:020000040800F2
:10200000C007002065210008BF310008B931000871
:10201000BD31000885250008453800080000000093
:10202000000000000000000000000000B1330008C4
:10203000BF2A000800000000C1310008F134000888
:102040007F2100087F2100087F2100087F210008F0
:102050007F2100087F2100087F210008C52E00088D
:102060007F210008412600087F2100087F21000809
:102070007F2100087F2100087F2100087F210008C0
:10208000533600087F210008000000007F2100086F
:102090007F2100087F2100087F2100087F210008A0
:1020A0007F2100087F2100087F2100086D3600088D
:1020B0007F210008000000007F21000800000000D0
:1020C0007F210008000000007F21000800000000C0
:1020D0000000000000000000000000000000000000
:1020E00000000000000000007F2100080000000048
:1020F00000000000000000000000000000000000E0
:102100007F21000800000000000000000000000027
:1021100000000000000000000000000000000000BF
:1021200000000000000000000000000000000000AF
:10213000000000000000000000000000000000009F
:102140000000000000000000000000007F210008E7
:10215000DFF80CD000F02AF900480047393A0008AF
:10216000C00700200648804706480047FEE7FEE714
:10217000FEE7FEE7FEE7FEE7FEE7FEE7FEE7FEE737
:10218000F53400085121000800487047E46F00084A
:10219000A0F14101192900D82030704730B505461B
:1021A0002A460B4612F8010B13F8014B08B1A04266
:1021B000F8D01CB1002802D06D1CF1E7284630BDD4
:1021C00010B5044604E00B7800F8013B03B1491C4C
:1021D000521EF8D2204610BD421C10F8011B0029E7
:1021E000FBD1801A7047000070B50F4D00B9286808
:1021F000002412E00A4602E09E4203D0521C1378EB
:10220000002BF9D1DAB2224305D02BB124B1002141
:1022100000F8011B04E00446401C0678002EE9D1BA
:102220002860204670BD0000000000202DE9F04726
:1022300091460F4680460446002614F8015B2DB1F6
:10224000FFF7A2FF0068405DC007F6D12B2D02D03A
:102250002D2D18D0641E4A463946204600F057F806
:1022600027B13968A14201D1C7F8008071054FF04C
:1022700002040BD54042002803DD04F05FFE046039
:10228000A007BDE8F08746F48066E4E70028F8DAA6
:1022900004F054FE04606FF00040F2E72DE9F05FB7
:1022A00093460F4680460446002604F047FED0F8C9
:1022B0000090824614F8015B2DB1FFF765FF0068BE
:1022C000405DC007F6D12B2D02D02D2D1AD0641EF3
:1022D0000021CAF800105A463946204600F017F887
:1022E000014627B13868A04201D1C7F80080DAF86A
:1022F0000000022809D0CAF80090700505D54842B0
:10230000BDE8F09F46F48066E2E70846F8E72DE96D
:10231000F05F82460078002715468B460AF10104DB
:10232000B946302801D09DB113E014F8010B012704
:10233000782803D0582801D045B10AE00DB1102DFE
:1023400007D10027102514F8010B02E0082500E052
:102350000A250026B0460EE005FB080005FB06F145
:10236000012701EB10461FFA80F8B6F5803F00D335
:10237000B94614F8010B294600F02AF80028EBDAD8
:10238000BBF1000F05D00FB1641E00E05446CBF83E
:102390000040B9F1000F06D004F0D0FD0221016029
:1023A000C81EBDE8F09F48EA0640FAE7064C074D14
:1023B00006E0E06840F0010394E807009847103415
:1023C000AC42F6D3FFF7C8FEE0790008007A0008B7
:1023D0003A2800D2303820F02002412A01D3A2F15D
:1023E0003700884201D34FF0FF307047D2B201E08E
:1023F00000F8012B491EFBD270470022F6E710B50A
:1024000013460A4604461946FFF7F0FF204610BD62
:1024100008224FF0000CC4F20202106820F0010004
:102420001060C2F800C0C2F804C0C2F808C0C2F808
:102430000CC0252052F8041C41F00F0142F8041C86
:1024400042F208411368C4F2010123F00103136052
:1024500001F14403936040F21A03C2F20003D36017
:1024600005235360136860F30D231360106820F098
:1024700040001060106840F080001060106820F08C
:1024800010001060106840F020001060106820F408
:1024900080401060106840F001001060106840F04B
:1024A0000200106041F20C00C4F20200026842F423
:1024B00000720260026822F400720260012251F888
:1024C000040C40F4807041F8040C086820F40060AB
:1024D0000860086840F400000860086840F48070F4
:1024E0000860486A20F470004862486A40F480003E
:1024F0004862C86A20F01F00C862886840F0070080
:102500008860C86A62F349100222C862886840F095
:1025100038008860C86A62F38E201022C86288681A
:1025200040F4E0708860C86A62F3D3301122C86258
:10253000486840F4E0104860C86A62F31850C86206
:10254000486840F460004860086820F46020086033
:1025500008680860086840F4801008600868C007D0
:1025600003D1086840F00100086040F22441C4F241
:102570000001C1F800C000BF0868B0F57A7FFBD346
:1025800070470000FEE741F214004FF6FF62C4F20C
:102590000200C7F6FE72016841F010010160016897
:1025A00041F004010160016841F4003101600168FB
:1025B00041F480210160016841F4800101604168BB
:1025C00041F400714160016841F00101016041681E
:1025D00041F480514160416841F40061416081688B
:1025E00041F002018160816841F080518160416861
:1025F00041F480414160C16921F00301C161C169B9
:1026000041F00301C161016A41F00101016250F82A
:10261000101C21F4404140F8101CC1691140C161F7
:10262000016AC90703D1016A41F001010162C16970
:1026300041F48031C161C16921F48071C161704789
:102640002DE9F04F81B00021C4F2020108688968C9
:102650000840800740F10E8240F2D020C2F2000014
:10266000D0F81200B0F5807F009002D94FF0080832
:1026700023E0802802D94FF007081EE0402802D945
:102680004FF0060819E0202802D94FF0050814E0A1
:10269000102802D94FF004080FE0082802D94FF0A3
:1026A00003080AE0042802D94FF0020805E04FF0C1
:1026B0000008022888BF4FF0010840F2180140F2DC
:1026C0008C3940F2380240F2240340F24C0A40F2C6
:1026D000420B40F21A0EC2F20001C2F20009C2F22D
:1026E0000002C2F20003C2F2000AC2F2000BC2F200
:1026F000000E81F80080B9F80410090628D54FF0C3
:10270000FF314FF6FF74002501FA08F1614000BF68
:1027100032F8156053F8254076B94AF8254024FA76
:1027200008F42BF81540002443F82540B9F802C0FE
:102730004CF48070A9F802003EF81500204443F8DC
:102740002500701C084022F815000135032DDFD14B
:10275000002000BF111803EB4006CD88F46875B95E
:102760000AEB4007FC60270A0BEB0004E78000241B
:10277000F460B9F8027047F40077A9F802700EEB24
:1027800000070230FF8804282744F76005F101079D
:10279000FFB2CF80DED1D9F80C000130C9F80C00AF
:1027A00040F26030C2F2000001684A1C40F2BA31C7
:1027B000C2F2000102600B88581C82B20880B2F598
:1027C0007A7F06D300200880D9F810100131C9F8AB
:1027D0001010009B83B140F25831C2F200010A6828
:1027E00001329A420A6007D300220A60B9F8021047
:1027F00041F01001A9F8021080B205280AD0032880
:102800006BD002287DD1B9F8020040F02000A9F871
:10281000020076E040F27000C2F20000006800287A
:1028200000D5404248F6396740F6C41144F24028CA
:102830004843C3F6E307C0F20F08A0FB070240F2CB
:102840006C30C2F20000036803EB520340F27402E2
:10285000C2F2000203601668002E00D57642714372
:102860004BF6BF564DF6836C4345A1FB0717CFF6D9
:10287000F076C4F21B3C40F27031C2F200010D68E8
:1028800005EB57070F6013DD9C1940F2643EA4FB73
:102890000C45C2F2000EDEF80040AA0C04EB954491
:1028A000751C2B4402FB0532631CCEF8003002601D
:1028B000474526DDB819A0FB0C0240F26830950CA4
:1028C000C2F20000036803EB9242731C1F44013202
:1028D00005FB037302600B6013E0B9F814000130CC
:1028E000A9F8140040F2D020C2F20000008A40B1E2
:1028F000B9F81410814204D999F800000A2840F070
:10290000D9804CF6CD41D9F80C00CCF6CC41A0FBD7
:102910000112D10801EB8101A0EB4100072805D18C
:10292000B9F8020040F00800A9F8020048F21F516F
:10293000D9F80C00C5F2EB11A0FB01125109642279
:1029400001FB12000B2805D1B9F8020040F001008C
:10295000A9F80200B9F8080040F2B8321826C2F20D
:102960000002C4F60006C0F301201178013101F025
:102970000F01032911701ED881425DD840F28431C5
:10298000C2F200010878097901F0080100F090FC1A
:10299000B9F8080006F1100206F5826110F0100384
:1029A000304608BF104608BF06F58061002B08BFFF
:1029B000324616464EE0072919D8043981423BDCDD
:1029C00040F28431C2F200014878097901F0040133
:1029D00000F06EFCB9F8080006F5806110F01000F8
:1029E000304618BF103008BF06F5826130E00B2971
:1029F0001FD8083981421FDC40F28431C2F2000145
:102A00008878097901F0020100F052FCB9F8080059
:102A100006F1100306F5826110F01002184608BF97
:102A2000304608BF06F58061002A08BF1E463246C0
:102A30000FE00C39814220DDB9F8080006F582610B
:102A400010F01000304618BF103008BF06F5806146
:102A500002460646402303600220086010201060F2
:102A6000082030600020C4F202000146406840F0B7
:102A70000200486001B0BDE8F08F40F28431C2F23C
:102A80000001C878097901F0010100F011FCB9F8E2
:102A9000080006F1100306F5826110F010021846D6
:102AA00008BF304608BF06F58061002A08BF1E46F1
:102AB0000246CFE7B9F8020040F04000A7E67047B1
:102AC00040F28C31C2F20001CA6800BFCB689B1A89
:102AD000834228BF704700BFF8E700002DE9F043AC
:102AE00081B01546002A8846064608BF012500F039
:102AF000EBF8A02000F09EF838B9300A00F09AF800
:102B000018B9F0B200F096F818B1022001B0BDE893
:102B1000F08300F0D9F8A12000F08CF800284FF0E5
:102B20000200F3D141F2184240F22441A5F1010C18
:102B300000264FF001094FF0000EC4F60002C4F267
:102B4000000100BF00240027106000BF0E6000BF1E
:102B50000B68002BFCD0C2F810900E600B68052BA0
:102B6000FCD3C2F800900E600B68032BFCD352F824
:102B7000083C64000E605B080D68022DFCD303F076
:102B800001030137082F44EA0304DFD35FFA8EF70D
:102B9000C2F810900E6000BF0B68022BFCD3BC453E
:102BA00008F8074014DD10610E6000BF0B68032BAE
:102BB000FCD3C2F800900E600B68052BFCD3C2F862
:102BC00010900E600B68022BFCD30EF1010EB9E7DA
:102BD000022010600020086008680328FCD3012050
:102BE00010600020086000BF08680528FCD30120A1
:102BF00010610020086000BF08680228FCD3022092
:102C000010610020086000BF08680028FCD0012087
:102C100010600020086000BF08680528FCD302206F
:102C200010600020086000BF086804284FF0000012
:102C3000FAD36BE7B0B541F2184E40F224410023BD
:102C40004FF0020C01220024C4F6000EC4F2000171
:102C500000FA04F52D06754658BF1035C5F800C0BA
:102C60000B6000BF0D68002DFCD0CEF800200B607B
:102C70000D68052DFCD30134CEF81020082CE7D1C7
:102C80000020086008680228FCD30220CEF800006B
:102C90000020086008680228FCD30120CEF800005C
:102CA0000020086008680328FCD35EF8080C0122A5
:102CB000CEF81020002240080A6000BF0A68022AED
:102CC000FCD300F00100B0BD41F2184140F22440B5
:102CD0000222C4F60001C4F200000A600022026071
:102CE0000268002AFCD001220A600022026000BFB4
:102CF0000268052AFCD302220A610022026000BF9A
:102D00000268052AFCD301220A610021016000BF8C
:102D100001680229FCD3704770B514460D4606467B
:102D2000FFF7D2FFA020FFF785FF90B9300AFFF729
:102D300081FF70B9F0B2FFF77DFF50B904E000BF2A
:102D4000013C0135200606D02878FFF773FF0028E4
:102D5000F6D0022070BD41F2184040F22441022218
:102D6000C4F60000C4F20001026100220A6000BF44
:102D70000A68002AFCD00122026000220A6000BF1B
:102D80000A68052AFCD3022202600020086000BF06
:102D9000086804284FF00000FAD370BD80B540F2F7
:102DA000503041F6024C40F2D023C2F20000C0F68F
:102DB000000CC2F20003018801F0070202804CEA15
:102DC000C2104FEAC21E821C002000BF115A1952C5
:102DD00002307C28FAD14EEA0C000088A3F87C006F
:102DE00080BD00002DE9F04381B040F2503940F23F
:102DF000D0254FF6FF7C00234AF201074FF6FF74FF
:102E0000C2F20009C2F20005B9F8002002F0070E74
:102E1000A9F800E035F813104C400021264687EA57
:102E200054040131F00708BF74080829F6D30133B0
:102E30003E2BEFD142F20408C4F20208D8F80C008D
:102E400000060BD540F22310C4F26750C8F800000A
:102E500048F6AB10CCF6EF50C8F80000501C41F615
:102E6000004700F007014FF48070C0F6000700EB48
:102E7000CE10A9F8001038430288624503D000F054
:102E8000F5FCB9F8001007EBC110210400F034FD87
:102E9000002600BFB9F8000007EB460101EBC010A7
:102EA00055F81610043000F027FDB01C86B23E2EF7
:102EB000F0D3D8F80C0040F08000C8F80C0001B046
:102EC000BDE8F08340F21440C4F20100016850F8FC
:102ED000142C1140490506D4016850F8142C1140F7
:102EE000890458BF70474FF48061016001604FF45E
:102EF00000510160016070472DE9F04141F2280066
:102F000040F20408002203230026C4F20200C4F6A3
:102F10000008016841F400310160016821F40031CA
:102F20000160016841F480210160016821F4802181
:102F30000160016841F480010160016821F48001B1
:102F400001604FF090400168D8F80800022E06F1A9
:102F500001069EBF03FA02F52943A8430232102E50
:102F6000F4D14FF090420123032500241160C8F8EA
:102F700008001168D8F80800002200BF03FA04F620
:102F800016F0580F06D005FA02F603FA02F7B1431D
:102F9000B043394301340232102CEFD14FF090424C
:102FA000032300261160C8F8080000210122D8F888
:102FB000000020F05800C8F80000D8F8040000BF56
:102FC00002FA06F7013617F0580F1CBF03FA01F793
:102FD000B8430231102EF3D1C8F804004FF09040EE
:102FE000002201234FF0030C022400260168D8F8C8
:102FF000080000BF03FA06F717F0A00F06D00CFA7E
:1030000002F704FA02F5B943B84329430136023204
:10301000102EEFD14FF09042032300261160C8F824
:10302000080000210122D8F8000020F0A000C8F814
:103030000000D8F8040000BF02FA06F7013617F0C6
:10304000A00F1CBF03FA01F738430231102EF3D151
:10305000C8F804000020A021002500F093FC4FF0E8
:103060009040022101224FF4C063012400F0BEFC15
:10307000D8F800000321002220F4C060C8F8000046
:10308000D8F8040004FA02F313F4C06F05D001FA73
:1030900005F3984304FA05F3184301320235102A68
:1030A000F0D1C8F8040001204FF4C061012500F000
:1030B00069FC4FF090400021032300260068D8F8F7
:1030C000082000BF05FA06F717F4C04F06D003FA30
:1030D00001F7B843BA4305FA01F73A430136023122
:1030E000102EEFD140F208414FF0904301261860B6
:1030F000C8F80820C4F600014FF0FF33D8F8FC23CD
:10310000486800BF1BB966F3830220F00C0001334E
:103110000F2BF7D1C8F8FC234860D8F8000420F042
:103120000200C8F800044FF0FF300A68002800F1E0
:10313000010008BF22F00C020F28F7D141F2004C29
:103140000A600023032601250027C4F6000CDCF8E2
:103150000020DCF80C1000BF012F06D806FA03F49B
:1031600005FA03F0A243A143024301370233102FB3
:10317000F2D1CCF80020CCF80C1000220323012758
:103180000026DCF8040040F00300CCF80400DCF872
:10319000081000BF012E06D803FA02F021EA000051
:1031A00007FA02F1014301360232102EF2D1CCF8B7
:1031B0000810BDE8F0810000FEE70000FEE7704760
:1031C000704710B540F2D0246A21FF22C2F20004F9
:1031D000A01DFFF70BF940F28C3100200123C2F251
:1031E0000001C880CA8842F0010222F0FE02CA80B3
:1031F000CA8822F4706202F54072CA80CA8822F43A
:103200004052CA80CA8863F39F32CA80CA8822802B
:1032100008810A8942F001020A810A8922F010021B
:103220000A810A8922F440720A810A896FF31F32E7
:103230000A810A89628048814A8922F001024A8112
:103240004A8922F004024A814A8922F010024A8106
:103250004A8942F020024A814A8942F480624A81C6
:103260004A8942F400724A814A8942F480724A8152
:103270004A8942F0800222F040024A814989208234
:10328000A18042F21071C4E902004FF47A70C4F8D0
:10329000120042F21070C2F21071C4E9080140F24B
:1032A000AA512085C0F2B041C4E90C0110BD000054
:1032B00081B046F28712C8F21862A0FB0223C21A3C
:1032C00003EB52021523120902FB130040F28C3368
:1032D00031A2C2F200031B89105CDA0605D4002972
:1032E00018BF60F07F00024605E07F22002922EA35
:1032F000000208BFC24343F2080000234FF6FF7CE0
:10330000C4F20100ADF802304FF0FF33ADF80230E7
:1033100003689B070FD4BDF80230013BADF80230C3
:10332000BDF80230002BF3D140F27803C2F2000363
:10333000196801311960D1B24160ADF802C000BF17
:103340000168C9070FD1BDF802100139ADF80210AC
:10335000BDF802100029F3D140F27801C2F2000159
:103360000A6801320A604168ADF802C001680906C6
:103370000FD5BDF802100139ADF80210BDF80210EA
:103380000029F3D140F27800C2F200000168013157
:10339000016001B0704700BF3F065B4F666D7D075F
:1033A0007F6F777C395E797180733E00400000004A
:1033B0007047000010B540F28C3140F2D02C4FF035
:1033C000000E4AF20103C2F20001C2F2000CC888EA
:1033D000ACF800000A89ACF802204989ACF8041066
:1033E0004FF6FF71414000200A4683EA5101013047
:1033F000D40708BF51080828F6D30EF1010EBEF11C
:10340000370F02D03CF81E00ECE7ACF86E10BDE8B8
:103410001040FFF7E7BC00284FEAD07300D54042C8
:103420002DE9F04340F2843944F6D35E4CF6CD48A2
:1034300048F21F5C42F20F72C2F200099042C1F2E0
:10344000620ECCF6CC48C5F2EB1C89F8043001DCE6
:10345000083314E048F29F64C0F20104A04204DC87
:10346000A0FB08040433E00809E044F23F24C0F262
:103470000F04A04232DCA0FB0C040233600989F87F
:103480000430A0FB0E34A309A0FB0846A0FB0C42AD
:10349000F608A3FB08455209A6FB0841ED08A2FB6C
:1034A0000847C90805EB850501EB8101A3EB45033E
:1034B000A6EB410189F80030FB0889F8021006EB01
:1034C000860103EB83034942A2EB430200EB410078
:1034D00089F8012089F80300BDE8F08349F27F6391
:1034E000C0F298039842DCBFA0FB0E039809C8E71E
:1034F0007047000042F2040040F2231148F6AB127C
:10350000C4F20200C4F26751CCF6EF5201600260CF
:1035100041604260C16841F02001C160C16841F072
:103520004001C1608168C907FCD1C16821F0200158
:10353000C160C16841F01001C160816911F0060FDE
:103540004FF60001C1F6FF7106D0826902F0060253
:10355000022A03D1BB2207E0A52205E0826902F01E
:103560000602062A01D1CC220A808269DF2303EAFF
:1035700012224A808269C2F307428A808269120E4F
:10358000CA80C269D2B20A81C26992B2120A4A8161
:1035900041F20401C268C4F2020122F01002C260CA
:1035A00051F8040C40F0010041F8040C51F8040CEF
:1035B0008007FBD50C220868C0F6FF0210404FF6CA
:1035C000FF720860C7F2C272086810404FF6FF72BF
:1035D0000860CFF6F26251F8040C10404FF6F0721A
:1035E00041F8040CC3F6FF72886A104040F20312DF
:1035F0008862C86A9043C862C86A20F48030C86292
:10360000C86A20F00040C862086B20F0010008631F
:10361000D1F8BC0020F48030C1F8BC000020486024
:10362000C1F8C80008680860086808600868086091
:10363000086820F00300086008680860086842F223
:1036400000014EF60850C0F60001CEF20000016005
:10365000704740F20C40C4F200000168426811401B
:10366000C9071CBF6FF0010141607047F0B581B020
:1036700043F61C04C4F201042068000703D5606807
:1036800040F0080060602068800640F1D88040F279
:103690008415A6680020C2F20005A5F84201FEF7D5
:1036A00073FD0168F0B2095C11F03E0F12D0B5F85D
:1036B0004671012185F84160A5F842113F2F00F2C3
:1036C0009C80FEF765FD791CA5F84611E91981F883
:1036D000C10092E00C280DDD0D2823D01B2851D00D
:1036E0001D280BD1B5F84801411C0AB2012AC8BFF8
:1036F000411E4EE008286CD00A287ED047F65201C1
:10370000000906F00F02C0F60001085C895C85F82C
:103710004100032085F84210A5F84201202085F8D9
:1037200043006AE040F60D200221A5F84100B5F8FB
:103730004601A5F842113F285AD805F1C1010022DF
:103740000A540120A5F846212870B5F9480100EB7C
:10375000D07222F00102801A40F28402C2F200020A
:10376000A5F8480102EBC0108022FEF729FDB5F94B
:103770004801013000EBD07121F00101401AA5F899
:1037800048013AE0B5F84801411E0AB2002A48BF94
:10379000411C40F2840608B2A5F848118022C2F20A
:1037A000000606EBC01105F1C100FEF709FDFEF7AA
:1037B00013FDB5F94811A5F8460105F14100802235
:1037C00006EBC111FEF7FCFCFEF706FDA5F8420171
:1037D00013E042F208000821A5F84100032085F813
:1037E0004310A5F84201B5F8460130B1013802E0B6
:1037F000002085F80001A5F84601B5F8420100F067
:103800003F0140F28C30A5F84211C2F2000002895B
:10381000D20718BF002910D0002200BF55FA82F34A
:1038200093F8413027683F06FCD5E36023685B06C8
:10383000FCD50132D3B29942F0D80021818201B087
:10384000F0BD0000FEE700004EF60C50BFF34F8FB6
:103850000422CEF20000C0F2FA52016801F4E061E5
:1038600011430160BFF34F8F00BFFDE7002342F219
:103870000C0CCFF6F173C4F2020C1946DCF80020F0
:10388000D20703D00131F9D3042132E0DCF8001073
:10389000C9061BD4DCF80010022202EA510141BB28
:1038A000DCF8041041F00201CCF80410CCF8080058
:1038B000DCF8040040F04000CCF80400DCF8000024
:1038C000C00705D00133F9D304210CE0032110E037
:1038D000DCF80000C00605D4DCF80000022101EA93
:1038E000500100E00321DCF8040020F00200CCF8D5
:1038F000040008467047000010B5002442F20C0E88
:10390000CFF6F174C4F2020E224600BFDEF800309A
:10391000DB0704D00132F9D34FF0040C30E0DEF8BD
:103920000020D20617D4DEF80020022303EA520C4E
:10393000BCF1000F24D1DEF8042042F00102CEF8E1
:1039400004200160DEF80000C00707D00134F9D37D
:103950004FF0040C0EE04FF0030C11E0DEF8000015
:10396000C00605D4DEF80000022101EA500C01E097
:103970004FF0030CDEF8040020F00100CEF8040044
:10398000604610BDF0B540F2200C00220F24002547
:10399000C4F6000CDCF80030DCF804E021FA05F68F
:1039A000F60705D004FA02F6B34300FA02F63343F1
:1039B00001350432082DF1D1082200240F2700BF61
:1039C00021FA02F6F60707D007FA04F600FA04F522
:1039D0002EEA060646EA050E01320434102AEFD11B
:1039E000CCF80030CCF804E0F0BD00002DE9F04147
:1039F000D0F800E0D0F80CC000244FF003080026F7
:103A000023FA06F7FF070DD008FA04F701FA04F5C8
:103A10002EEA070E2CEA07074EEA050E02FA04F515
:103A200047EA050C01360234102EE9D1C0F800E057
:103A3000C0F80CC0BDE8F08182B041F600444FF6FA
:103A4000FF754FF6FF76C0F60004FEF79CFDFFF70A
:103A500053FAA01C0021802202F4607330F8027C2B
:103A600023431B880FB9AB4223D001318030803211
:103A70000829F1D140F2503042F204070021C2F28D
:103A80000000C4F202070180F868000609D540F280
:103A90002310C4F26750386048F6AB10CCF6EF50F4
:103AA00038602046FFF7E2FEF86840F08000F860DA
:103AB00005E040F25032C2F2000211800088FFF7A8
:103AC0006DF940F2D027C2F20007B7F87600A0F1F6
:103AD00010018AB2120942EA013189B2072905D8D8
:103AE000012202FA01F111F08B0F04D14FF2E070C4
:103AF000C1F6FF70008840F25231C2F20001088026
:103B00004AF201010020CFF6FF7100BF37F8102004
:103B100056400022F307C6F34E0602F1010218BF19
:103B20004E40082AF6D301303828EFD1300440F255
:103B30008C36C2F2000604D0FFF743FBFFF73AFCD5
:103B400026E03888A5F5405189B2F0807888308128
:103B5000B88870813089884205D930896FF31F3069
:103B600030810020307070890C21C4F60001C0073C
:103B700005D040F25C320120C2F2000210704868A9
:103B8000400405D40C20C4F6000040688004D3D55E
:103B900041F20C0242F6044442F6004343F60007A9
:103BA000C4F20202C4F20104C4F20103C4F2010728
:103BB000106840F400601060106820F4006010602D
:103BC00000206062196821F070011960196819609D
:103BD0001968196041F63F71A162196821F44071BA
:103BE000196019681960E0620721206940F001003E
:103BF0002061E06920F00100E061606920F00300CD
:103C00006061E06940F00100E061E06920F00200DD
:103C1000E061E06940F00200E061E06920F004004A
:103C2000E061E06940F00400E061E06920F0080034
:103C3000E061E069E061206820F480702060206825
:103C400040F480702060206820F4007020602068BC
:103C5000206040F69F702063606920F07000606112
:103C6000606940F070006061206820F070002060A2
:103C7000206840F030002060206C40F40040206458
:103C8000186840F001001860506840F00200506071
:103C9000506820F00200506040F20040C4F2000082
:103CA0008162016821F070010160016801600168B2
:103CB00001604FF0FF31C162016821F44071016081
:103CC00001680160416941F001014161016841F011
:103CD000010101604AF6AB211068CAF6AA2140F43E
:103CE00080401060106820F480401060F088C0F3BD
:103CF0000320A0FB0112D10801EB4101A0EB8100E0
:103D000046F6E871C0F6000151F82050062001F097
:103D100053F83968090405D400EB5500B0FBF5F001
:103D200080B20AE040004FF6F07100EB5500B0FBA6
:103D3000F5F00140C0F342000844F86046F65541F2
:103D40004EF60C5540F200583868C0F60001CEF22D
:103D50000005C0F2FA5820F001003860386820F4FD
:103D6000C060386038683860386820F0010038601A
:103D7000386820F48050386038683860386820F03F
:103D800001003860786820F4405078607868786086
:103D9000386820F004003860386840F0040038606B
:103DA000386820F008003860386840F00800386053
:103DB000386840F020003860386840F00100386012
:103DC00040F2BC30C2F200000160FEF721FBD4F8E3
:103DD000FC0300F4415000F20F30C4F8FC03D4F8A7
:103DE000180420F40060C4F81804D4F8FC0340F070
:103DF0004000C4F8FC03C5F80080286800F4E060C7
:103E0000A0F54070B0F5A06F03D2010AC1F1040221
:103E100003E0C5F800800221022201234EF2074090
:103E20004EF2001740F2D02403FA01F10F23CEF234
:103E30000000CEF20007C2F2000423FA02F202F000
:103E4000030211430901017080213960296801F4DE
:103E5000E061A1F54071B1F5A06F03D2090AC1F18B
:103E6000040203E0C5F8008002210222012303FAC4
:103E700001F10F2323FA02F202F0020211434EF283
:103E800000120901CEF2000201754FF000611160CD
:103E9000296801F4E061A1F54071B1F5A06F03D28A
:103EA000090AC1F1040203E0C5F8008002210222E0
:103EB0000F234FF0010823FA02F208FA01F102F091
:103EC00001021143090181704EF200114FF400709C
:103ED000CEF20001086002F085FE40F2800947F64C
:103EE000350B0C254FF0000C4FF0030AA646C2F22A
:103EF0000009C0F6000BC4F6000500BF7088C005BD
:103F000040F19680708840F21807DC46AB4640F2DC
:103F100014054FF00008C2F20007C2F2000520F4B9
:103F20008070708040F26200C2F200003F78018829
:103F300040F24C00C2F20000044600686268484348
:103F4000030B4A432B6040F21005FB40120BC2F2F8
:103F50000005A2EB10302B8040F20C03800040F2F1
:103F60000805C2F200033841C2F200051A6022FAC5
:103F700007F3BEF932202B80A3684C46801ABEF8A6
:103F80003020594340F26403504348F6AD32090BE8
:103F9000C2F20003C6F6DB0250FB02F0021302EB92
:103FA000D07021FA07F21A8040F2680240F27003E2
:103FB000C2F20002C2F2000311600B2218605143EA
:103FC00040F24202C2F20002F9409288C9F80010A1
:103FD000B8EB922F02D1BEF8242007E00EF128039F
:103FE000B2F5006F38BF0EF126031A8892B25D4613
:103FF000E346A1464FF0000C4FF00108514348F64C
:10400000AD32C6F6DB0251FB02F10A1302EBD171AD
:104010002160484344F6D351C1F2620150FB01F0E4
:10402000811101EBD07040F27401C2F2000108600E
:104030007088800537D5708840F24201C2F20001D5
:1040400020F400700A467080BEF83600098900032B
:10405000B0FBF1F040F26201C2F20001088080B2D0
:10406000B18841F08001B180D18840F26C02C2F287
:1040700000024843010B1180BEF83410C0F30F302A
:10408000081A4FF47A71484346F6D541C7F6ED1148
:1040900050FB01F0C10A01EBD07040F26001193011
:1040A000C2F2000108807088000740F11D8170880D
:1040B00040F27C01C2F2000120F0080070806868C4
:1040C0000A88400406D464210020642A38BF511CA9
:1040D00009E000BF0020092A4FF0000188BF01203D
:1040E000632A88BF022040F27C02C2F200021180E3
:1040F00040F27E026968C2F200021388890405D486
:1041000064220021642B38BF5A1C08E00021092BCF
:104110004FF0000288BF0121632B88BF022140F2CB
:104120007E030128C2F200031A8008BF002904D0D0
:1041300028B9012903D105201CE003201AE0022838
:1041400008BF002904D028B9022903D1062011E0B4
:1041500004200FE0012808BF012909D081F00201E5
:1041600080F002000843B0FA80F04009C00001E08E
:10417000072000BF7070707808B1A6F814C03078BE
:104180000C2800F2B180DFE800F01F2C43505B0EDA
:1041900007070E697A171700707805284ED0032894
:1041A00040F0A2804AE07078052800F0548003288F
:1041B00008BF86F800C097E07078052848D003282B
:1041C00008BF86F800A08FE070780338032800F25B
:1041D0008B80DFE810F087000400CA03620008202B
:1041E00081E070780338032800F27E80DFE800F079
:1041F0003302265740F26430C6F810C0C2F2000005
:10420000C0F800C040F26830C2F2000000F0C5BB48
:1042100070780338032800F26780DFE810F0A60307
:1042200004001900420007205DE07078033803287D
:1042300000F25A80DFE800F002375639022052E0DF
:104240007078033803284FD8DFE800F00231053CCE
:1042500086F800A048E086F800C045E07078033892
:10426000032841D8DFE800F0023E303ABEF81200E1
:10427000B0F57A7F24BF6438AEF8120034E070786D
:104280000338032830D8DFE810F004007003660319
:104290006C03BEF81000013860E3052023E00A201B
:1042A00021E006201FE00B201DE00C201BE040F267
:1042B0005C31C2F200010878002800F0628381F8C6
:1042C00000C011E009200EE0BEF8120042F22731D2
:1042D00088429CBF6430AEF8120005E0B08840F020
:1042E0000100B0800420307040F28417C2F2000751
:1042F0003878002874D007F1C1005946FDF774FFE3
:1043000040F2A4313D46C2F20001086030B3002003
:104310005946FDF769FF40F2A831C2F2000108607A
:10432000E0B100205946FDF75FFF40F2AC31C2F228
:104330000001086090B100205946FDF755FF40F29A
:10434000B031C2F20001086040B100205946FDF7CB
:104350004BFF40F2B431C2F20001086040F2A430D9
:104360000027C2F20000046847F6F000C0F6000023
:10437000C1592046FDF712FF20B90C37F02FF3D1B9
:1043800007E000BF47F6F000C0F600003844806840
:10439000804740F2A4304FF0000C40F2D02E47F698
:1043A000350BC2F20000C2F2000EC0F6000BC0F8DE
:1043B00000C040F2A830C2F20000C0F800C040F2D5
:1043C000AC30C2F20000C0F800C040F2B030C2F21F
:1043D0000000C0F800C085F800C00C25C4F6000538
:1043E0007088C00700F07281708820F00100708032
:1043F00030780C2800F26A81DFE810F00D00100020
:1044000088008D00AD00BA00C700D100D600E500DD
:10441000E80039014701D9F80000CAE0316942F2E9
:104420000F723069914200F2A08044F6D351CB461E
:10443000A94640F2D02EC1F26201C2F2000E50FB3A
:1044400001F18A1102EBD17146F26762C6F266622F
:10445000144651FB02F2931003EBD27202EB82027C
:10446000A1EB420340F28431C2F200010D460B7011
:1044700048F21F51C5F2EB1185F804C050FB01F161
:104480004A1102EBD17151FB04F2971007EBD27283
:1044900002EB8202A1EB420150FB04F2971069701B
:1044A00007EBD27757FB04F2941004EBD27247F675
:1044B000350402EB8202C0F60004A7EB420207EBD0
:1044C0008707A0EB4700AA70E8704D46D94618064A
:1044D000A34640F0FB80080640F284314FF0130001
:1044E000C2F20001087040F0F180100640F2843101
:1044F0004FF01300C2F20001487040F0E78040F234
:1045000084311320C2F200018870DFE040F27000B5
:10451000C2F200004CE040F2740040F284351121F8
:10452000C2F20000C2F200050068297000284FEABC
:10453000D07100D5404242F20F722971904200F3CF
:1045400022814CF6CD440431CCF6CC442971A0FB39
:104550000402D008C6E140F2543042F20F71C2F2B8
:104560000000006888427FF660AFC0F3033197E037
:1045700040F24200C2F200008088BCEB902F40F075
:104580001781BEF8240074461BE14CF6CD41BEF8FD
:104590003000CCF6CC41A0FB0101C80809E040F294
:1045A0006430C2F2000003E040F26830C2F2000062
:1045B00000687446FEF72FFFA6464FF0000C0C254E
:1045C000C4F6000582E0BEF8120001E0BEF810005B
:1045D00042F20F71884262D844F6D35147F6350B48
:1045E000C1F26201C0F6000BA0FB0112910948F272
:1045F0001F52C5F2EB12A0FB02234CF6CD42CCF6C3
:10460000CC421546A1FB022C5A09A0FB0534A2FBA3
:104610000537E308A3FB054E4FEADC044FF0000C1E
:1046200004EB8404A1EB440140F2D024C2F2000464
:10463000254640F28434C2F200042170F90884F85F
:1046400004C001EB8101A2EB410161704FEADE0180
:10465000AE460C2501EB8101C4F60005A3EB410138
:10466000A17003EB8301A0EB4100E0702EE040F26B
:1046700084314FF01330C2F20001086081F804C0A9
:10468000708840F04000708020E044F2323040F208
:104690008431C4F23730C2F20001086016E0010B29
:1046A00047F6520240F28433C0F60002C2F2000321
:1046B000515C1970C0F30321515C5970C0F30311B0
:1046C00000F00F00515C105C9970D870CDE900CCFF
:1046D000306998B17088C00640F18C81708820F0F4
:1046E00010007080BEF80800BEF80A1088420CD98D
:1046F000D9F800208A4220DA7CE100BF40F2603025
:10470000C2F20000C0F800C074E102D2D9F8002063
:1047100011E0BEF90C00BEF90E10884205DD40F232
:104720007002C2F200021268E4E709DA40F2700295
:10473000C2F2000212688A4202DA824200F35A810F
:1047400040F25C30C2F200000078012840F0528153
:10475000708980064AD540F254300FF2DC52C2F222
:10476000000000687189C1F3811132F8111088428C
:104770003CD37089400733D440F25C30C2F2000071
:1047800080F800C036E148F29F62C0F20102904218
:1047900000F3978048F21F524CF6CD440231C5F227
:1047A000EB122971CCF6CC44A0FB0202500999E02F
:1047B0000EF12801B0F5006F744638BF0EF12601E6
:1047C00008884CF6CD4180B2CCF6CC41A0FB01016B
:1047D000C808FEF720FE0C254FF0000CA646EFE6B9
:1047E00040F25430C2F20000C0F800C040F2603025
:1047F000B9F80010C2F20000046820BA009008BAAC
:1048000040F27001C2F20001000C0988ADF804000A
:1048100008BA000CADF80600708980060FD540F28A
:10482000543069460822C2F200000088C00080B2FD
:10483000FEF772FA0C254FF0000CC4F600057089E3
:10484000C00640F1C780708940055CBF70895FEA8F
:10485000805070D57089400508D47089800505D5D1
:104860007089C00502D4D9F800106DE07089400548
:1048700007D47089800544BF70895FEAC05000F199
:104880009A807089400506D57089800503D47089A7
:10489000C00500F185807089400544BF70895FEADA
:1048A000805065D440F27000D9F800202146C2F251
:1048B0000000036847F24070C0F6000002F0D6F92D
:1048C00083E044F23F214CF6CD44C0F20F01CCF618
:1048D000CC44884206DC44F6D351C1F26201A0FB0D
:1048E0000101880948F21F5140F2D02E47F6350BDE
:1048F000C5F2EB11C2F2000EC0F6000BA0FB0112D4
:104900005109A0FB0423A1FB0427DA08A2FB04340D
:10491000FB0803EB8303A1EB43016970E10801EBA2
:104920008101A2EB4101A97002EB8201494200EB37
:104930004100E87043E67089C0057FF58BAF40F217
:104940007000C2F20000016847F24970C0F6000032
:1049500002F08CF939E0BEF810000130AEF810001A
:10496000C2E4B08840F00100B08086F80080BBE46B
:104970007089C00596D447F23670D9F800202146D8
:1049800016E040F2543081F80080C2F20000C0F816
:1049900000C040F26030C2F20000C0F800C0A3E4E2
:1049A00040F270002146C2F20000026847F2367001
:1049B000C0F6000007E040F27000D9F80010C2F223
:1049C00000000268DEA002F051F90C254FF0000C47
:1049D000C4F6000540F2543040F2D02E47F6350BB5
:1049E000C2F20000C2F2000EC0F6000B01460068E1
:1049F000013008607088800613D5708820F0200090
:104A00007080B088C0070CD0B088744620F00100D8
:104A1000B080FEF7CFFC0C25A6464FF0000CC4F684
:104A200000057088400640F17B81708840F60007E1
:104A3000C4F6000720F04000708041F20C00C4F280
:104A400002000146006940F08050086142F60040D3
:104A5000C4F2010002464FF60800CFF6FF7003468D
:104A6000105820F00100D050D05820F40000D05051
:104A70000022C86820F40070C8604FF090400168C0
:104A8000286800BF0AFA02F302321943202A20EAFA
:104A90000300F7D14FF09042116028600022D5F852
:104AA000F413D5F8000400BF0AFA02F302321943E6
:104AB000202A20EA0300F7D1C5F8F413C5F8000452
:104AC00000223968F86800BF0AFA02F3023219437B
:104AD000202A20EA0300F7D13960F86040F60C4044
:104AE0000022C4F60000D7F8001400680AFA02F3A6
:104AF00002321943202A20EA0300F7D1C7F8001434
:104B000040F60C410022C4F60001086041F200406A
:104B1000C4F600000168C0680AFA02F302321943C1
:104B2000202A20EA0300F7D141F20042B646CB46E4
:104B30000023C4F600021160D0604FF090400022C4
:104B40000068296808FA03F717F4105F06D00AFA1C
:104B500002F7B843B94308FA02F739430133023286
:104B6000102BEFD140F200494FF0904240F27433E5
:104B700040F2783740F28034042610602960C4F295
:104B80000109C2F20003C2F2000740F27C35C2F212
:104B90000004C0F20106D9F80000C2F2000520F4BA
:104BA0008060C9F80000D9F8040020F48060C9F8DA
:104BB0000400D9F8080020F48060C9F80800D9F88A
:104BC0000C0020F48060C9F80C00D9F8000040F413
:104BD0008060C9F80000D9F8080040F48060C9F886
:104BE0000800D9F80C0020F48060C9F80C00D9F84E
:104BF000000020F40050C9F80000D9F8040020F4A7
:104C00000050C9F80400D9F8080020F40050C9F891
:104C10000800D9F80C0020F40050C9F80C00D9F8AD
:104C2000000040F40050C9F80000D9F8080040F432
:104C30000050C9F80800D9F80C0020F40050C9F859
:104C40000C0047F20000C4F200000146006820F0AA
:104C500003000860086840F0010008604EF60C5040
:104C6000CEF200000146406840F0040048604EF279
:104C70000010CEF20000024650F8F00C18601068E8
:104C80003860506828609068206052F8F00C30401E
:104C9000764642F8F00C4EF61970CBF2FF70C2F86F
:104CA00080006FF48060C2F884004FF0FF30C2F8DB
:104CB000880030BF186842F8F00C38681060286827
:104CC0000025506020689060486820F0040048602B
:104CD000AEF814C0BEF80800000B8EF80000FDF717
:104CE00052FC0020C0F69470C9F80000C9F80450C6
:104CF000C9F80850C9F80C50C9F81050FEF7FCF874
:104D0000FDF786FB0C2540F2D02ED94647F6350B31
:104D10004FF0000CC4F60005C0F6000BC2F2000E06
:104D20004EF60C50CEF200000146406820F0040020
:104D3000486030BFFFF7E2B8000400080010002010
:104D40002535642C2535640A0000000010B540F2BA
:104D5000D0240AA0C2F20004A18CE28C238D01F0C1
:104D600085FF218EB4F9322008A001F07FFFE18E8B
:104D7000A28E0BA0BDE8104001F078BF2055414441
:104D80004A3D25642025642025640A0020494144C9
:104D90004A3D256420495A524F3D25640A000000CF
:104DA0002056494E543D25646D5620545632353DAB
:104DB00025646D560A00000070B541F204030246F6
:104DC00041F2002CC4F20203C0F27A0C186861466A
:104DD00000F00C0008282BD11868C0F38344186831
:104DE000996A000104D4A01C0F2C08BF102001E018
:104DF00004F11100002948BF1F301E68996AF603AC
:104E000005D440F60011C0F23D01414310E09E6A16
:104E1000490006F00F0606F1010102D4BCFBF1F1D6
:104E200005E046F60046C0F2DC26B6FBF1F1414350
:104E30001868062AC0F303101E68C6F302241E6811
:104E4000C6F3C22612D843A5285C47F21805C0F65F
:104E5000000521FA00FEA85D2EFA00F0DFE802F05E
:104E600004080A3F0E1D2500084670BD002070BDD5
:104E7000704670BD285D2EFA00F070BDD96AC90574
:104E80002ED4D86AC00343F60070C0F2AB105CBFEA
:104E900049F68070C0F2D50070BDD86A40064FF464
:104EA000004058BF48F2120070BDDA6A920708BF8E
:104EB00070BDD86A00F00300012808460FD0D86AF8
:104EC00000F00300022804BF4FF4004070BDD86A10
:104ED00000F00300032818BF4FF0000C604670BDBF
:104EE0001968C1F38132D96AC90FDFE802F00208FC
:104EF000101D11B34AF6AB20CAF6AA2019E089B1F9
:104F00004CF6CD40CCF6CC40AEFB00011DE0B1B17B
:104F100044F62510C2F29240AEFB0001AEEB010058
:104F200001EB5000800870BD89B148F63960C3F6C6
:104F3000E300AEFB0001480870BD400870BD4AF6B2
:104F4000AB21CAF6AA21A0FB0101880870BDC008E8
:104F500070BD00BF0000000000000000010203045B
:104F60000607080940F264300021C2F20000016027
:104F700040F26830C2F20000016040F26C30C2F2D0
:104F80000000016040F27030C2F20000016040F2A7
:104F90008C30C2F200000161704700002DE9F0473B
:104FA00040F2A830C2F20000046834B363A1204686
:104FB000FDF7F4F888B340F2AC30C2F200000068AC
:104FC00048B300211022FDF769F940F2B0310446E0
:104FD000C2F20001096800294ED0084600211022C3
:104FE000FDF75CF96FF0070187B211FA80F03828FD
:104FF00088BF4027002F40D15DE047F2082565209B
:105000000124C0F6000500BFC0B201F069FF285DB1
:105010000134422CF8D1BDE8F0874FA12046FDF7BE
:10502000BDF800284CD040F2AC30C2F2000000685D
:105030000028F0D040F2B034C2F200042168002908
:10504000E9D000211022FDF729F92168C4B210220D
:1050500008460021FDF722F940F2D021C2F20001FA
:1050600021F8140081B23EA001F000FE41A02146CB
:10507000BDE8F04701F0FABD402740F2D029E4B284
:1050800000200FF2C0080FF2C80A0025C2F2000982
:1050900006193E2E0FD8400703D14046314601F095
:1050A000E5FDF0B239F81010504601F0DFFD013592
:1050B000A8B28742ECD80A20BDE8F04701F010BF43
:1050C00047F66A012046C0F60001FDF767F878B19F
:1050D000FDF764FE47F2C0054C200124C0F6000530
:1050E000C0B201F0FDFE285D0134152CF8D192E725
:1050F00047F686012046C0F60001FDF74FF878B16B
:10510000FDF770FE47F2F60553200124C0F60005B6
:10511000C0B201F0E5FE285D0134132CF8D17AE726
:1051200047F2082565200124C0F60005C0B201F051
:10513000D7FE285D0134422CF8D16CE772656164BA
:10514000000000000A30782530345820200000008C
:105150002530345820000000777269746500000023
:105160002077726974652030782530345820746F48
:10517000000000002061646472657373203078253C
:10518000303458202E2E2E0A000000002DE9F04F5A
:1051900081B040F2A830C2F200000068002857D069
:1051A000002110220024FDF779F84FF6FF7B01461D
:1051B000584540F2AC30C2F20000006838BF8B4660
:1051C00078B100211022FDF769F86FF0FE01C6B238
:1051D00051FA80F0072E98BF8026B0FA80F044097B
:1051E00000E08026002C18BFFF2676B347F6310971
:1051F00047F62D0500200FF260080DF1020A002489
:10520000C0F60009C0F60005010700EB0B0703D14B
:105210004046394601F02AFDB8B251460122FDF759
:105220005DFC48B146200127C0B201F059FEE85D9F
:105230000137042FF8D104E09DF80210484601F030
:1052400015FD0134E0B28642DED80A2001F048FEA6
:1052500001B0BDE8F08F00BF0A3078253034582007
:1052600000000000B0B582B040F2A830C2F20000E9
:10527000006898B3002110220025FDF70FF8B5EB68
:10528000104F2BD1044640F2AC30C2F2000000684F
:1052900020B300211022FDF701F805468DF8030028
:1052A000A0B20DF103010122FDF736FD70B147F206
:1052B0009B0520200124C0F6000500BFC0B201F00C
:1052C0000FFE285D01340D2CF8D107E004A029461B
:1052D00001F0CCFC07A0214601F0C8FC02B0B0BD33
:1052E0002077726974652030782530325820746FC9
:1052F0000000000020656570726F6D20616464724B
:1053000065737320307825303458202E2E2E0A00F5
:10531000F0B581B040F25236C2F200063088B8B122
:1053200000244FF000670BA547EA8422002100BF4C
:10533000535CFF2B04D10131B1F5806FF8D104E04B
:105340002846214601F092FC308801348442EBD398
:1053500001B0F0BD205061676520253364204020F6
:1053600030782530384C58206973206E6F74206572
:105370006D707479210A00002DE9F04F81B042F27E
:105380000408C4F20208D8F80C0000060BD540F25D
:105390002310C4F26750C8F8000048F6AB10CCF6F2
:1053A000EF50C8F8000040F2A830C2F200000068D8
:1053B00068B100210A22FCF771FF40F2523481B239
:1053C0000729C2F2000411D24FF0070B14E047F294
:1053D0005A3565200124C0F6000500BFC0B201F0B7
:1053E0007FFD285D0134252CF8D130E022889142E0
:1053F00028BF501E1FFA80FB40F2AC30C2F2000002
:10540000006858B100210A22FCF748FF21881BFAE6
:1054100080F28A4202D284B20CB918E00124002042
:105420004FF0006A0FF23809002700BF00EB0B05B0
:105430004AEA85263046FEF719FA034648462946C9
:10544000324601F013FC0137B8B28442EED8D8F8E6
:105450000C0040F08000C8F80C0001B0BDE8F08FEF
:105460002045726173652050616765202533642093
:10547000402030782530384C582C20726573756C7C
:10548000742025640A00000070B582B040F21A064C
:1054900040F2100040F24205C2F20006C2F20000E3
:1054A000C2F200053188038840F214002A88C2F253
:1054B0000000046822A0009401F0D8FB40F208002C
:1054C00071886A88C2F20000038840F20C00C2F2C0
:1054D0000000046821A0009401F0C8FB40F26400C1
:1054E000B188AA88C2F20000038840F26800C2F2C4
:1054F0000000046820A0009401F0B8FB40F26000B6
:10550000F188EA88C2F20000B0F9003021A001F071
:10551000ADFB31892A8924A001F0A8FB40F262008A
:105520000021C2F20000028840F21800C2F200001E
:10553000037821A002B0BDE8704001F097BB00BF26
:1055400020636830303D25642025642025646D5635
:10555000203078253038580A000000002063683079
:10556000313D25642025642025646D562030782542
:105570003038580A0000000020636830323D25644E
:105580002025642025646D56203078253038580A4F
:105590000000000020636831363D2564202564202A
:1055A00025646F430A00000020636831373D25649D
:1055B0002025640A000000002063616C693D2564B9
:1055C00020564444413D25646D56204F53423D25AD
:1055D000640A000010B584B040F28C30C2F20000C2
:1055E000016940F28000C2F20000026840F27000DF
:1055F000C2F20000036840F27400C2F20000D0F86A
:1056000000C040F26430C2F20000D0F800E040F286
:105610006830C2F20000046803A0CDE900CE029415
:1056200001F024FB04B010BD20543D256C647320B0
:10563000553D25646D5620493D25646D4120503D02
:1056400025646D5720256C646D416820256C646D60
:1056500057680A0070B547F6F006002506A4C0F6A4
:10566000000600BF701971594268204601F0FEFA29
:105670000C35782DF6D170BD202573202D3E2025C8
:1056800073000000B0B584B040F2A830C2F2000050
:10569000046814B30FF2B0312046FCF77FFD0028F8
:1056A00053D040F2AC3040F28C34C2F20000C2F26F
:1056B0000004006838B100210A22FCF7EFFD2189BF
:1056C00060F300012181208900F001010FF2803098
:1056D00004B0BDE8B04001F0C9BA47F2795569207D
:1056E0000124C0F6000500BFC0B201F0F9FB285D3F
:1056F0000134372CF8D140F28C3046F6E872C2F211
:105700000000C0F60002C188C1F3032103890589A6
:10571000048952F82110C4F30124008903F0010226
:1057200040F2D023C2F20003C0F30010B3F810C05F
:105730002B0BCDE9004047F2F970C0F60000CDF820
:1057400008C001F093FA04B0B0BDC4A12046FCF734
:1057500025FDC8B140F2AC30C2F200000068E8B3E9
:1057600000210A220024FCF799FD46F6E871C0F6F4
:10577000000100BF51F8242082423ED901340C2C94
:10578000F8D14FF440603BE0C8A12046FCF706FD8D
:10579000002845D040F2AC30C2F200000068A8B149
:1057A00000210A22FCF77AFD40F28C31C2F200019E
:1057B0000A896FF31F3242EA003008810889B0F588
:1057C000604F03D308896FF31F30088140F28C309B
:1057D000C2F200000089010BB6A079E740F28C30DC
:1057E00046F6E871C2F20000C0F60001C088C0F3BE
:1057F000032051F82010AAA06AE704F00F0000026D
:1058000040F28C32C2F20002D38823F47063184352
:10581000D080D088C0F3032051F8201091A057E722
:10582000A7A12046FCF7BAFCE0B140F2AC30C2F2CE
:105830000000006868B100210A22FCF72FFD40F249
:105840008C31C2F200010A8922F4407260F309220D
:105850000A8140F28C30C2F200000089C0F30121BD
:1058600099A035E79BA12046FCF798FCB0B140F227
:10587000AC30C2F200000068A8B300210A22FCF795
:105880000DFD4FF0FF3111FA80F1022940F2D021D5
:1058900038BF0320C2F20001088254E792A12046DB
:1058A000FCF77CFC30B340F2AC30C2F20000006880
:1058B00068B100210A22FCF7F1FC40F28C31C2F2FF
:1058C00000010A8922F0100260F304120A8140F2FA
:1058D0008C30C2F200000089C0F3001147F214704E
:1058E000C0F60000F4E640F2D020C2F20000018AC7
:1058F0007AA0EDE67EA12046FCF750FC002844D0BB
:105900000020FFF759FA014647F28170C0F6000007
:1059100001F0ACF90120FFF74FFA014647F24E7053
:10592000C0F6000001F0A2F90220FFF745FA014697
:1059300047F29270C0F6000001F098F90320FFF7DB
:105940003BFA014647F2A370C0F6000001F08EF961
:105950000420FFF731FA014647F25F70C0F60000FD
:1059600001F084F90520FFF727FA014647F270702D
:10597000C0F6000001F07AF90620FFF71DFA014693
:1059800047F2B470C0F60000A2E647F68F01204649
:10599000C0F60001FCF702FCF8B140F2AC30C2F2F4
:1059A0000000006888B353A1FCF7F8FB68B347F226
:1059B0006B1520200124C0F60005C0B201F090FA5A
:1059C000285D0134152CF8D140F28C30C2F2000071
:1059D000418841F080014180B5E647F6DB01204671
:1059E000C0F60001FCF7DAFBA8B140F2AC30C2F21D
:1059F00000000068E8B100210A22FCF717FC40F221
:105A0000D021C2F20001C88618E047F29F60002151
:105A1000C0F600005CE647F2795569200124C0F623
:105A20000005C0B201F05CFA285D0134372CF8D1D2
:105A300089E640F2D020C2F20000C08E81B247F267
:105A40008860C0F6000043E66563686F00000000F0
:105A5000204543484F3D25640A000000626175649B
:105A600000000000207365742055415254204241CB
:105A7000554420746F20256C642C2073617665205A
:105A800026207265626F6F7420746F206170706C75
:105A900079206E657720626175642E0A000000002F
:105AA00020424155443D256C640A00006D656E75C9
:105AB00000000000204D454E553D25640A000000C1
:105AC000626B6C740000000020424C4B543D256416
:105AD0000A00000068616C74000000002048414C1E
:105AE000543D2564730A0000636F6D61000000007F
:105AF000636C6B0072756E00B0B540F2A830C2F2F4
:105B000000000468F4B147F69A012046C0F600018F
:105B1000FCF744FB38B340F2AC30C2F2000000683E
:105B2000002857D000210A22FCF7B8FB40F2D0230E
:105B3000024681B247F23410C2F20003C0F6000000
:105B40001A8650E047F24B5569200124C0F6000543
:105B5000C0B201F0C5F9285D01342E2CF8D1BDE8A2
:105B6000B040FFF7F3B847F68F012046C0F60001BA
:105B7000FCF714FBD8B340F2AC3040F2D024C2F2B0
:105B80000000C2F200040068218E40B342F210729D
:105B9000914244D140F27005C2F200052968F1B388
:105BA00000210A22FCF77AFB010400B242F21072D3
:105BB00000EBE17080EAE17128685143002800D5CC
:105BC0004042B1FBF0F247F23410C0F6000091B24F
:105BD000228608E040F2D020C2F20000018E47F297
:105BE000F660C0F60000BDE8B04001F03FB81EA16D
:105BF0002046FCF7D3FA08B340F2AC30C2F2000002
:105C0000006848B300210A22FCF748FB40F2D02389
:105C1000024601B215A0C2F200035A86E3E747F23A
:105C2000A01520200124C0F6000500BFC0B201F07D
:105C300057F9285D01341D2CF8D10CE047F24B5583
:105C400069200124C0F60005C0B201F049F9285DC1
:105C500001342E2CF8D1B0BD40F2D020C2F20000A9
:105C6000B0F9321006A0BEE77A726F002053657457
:105C700020495A524F20746F2025642E2E2E0A0080
:105C800020495A524F203D2025640A002DE9F04159
:105C900086B040F2A8310020C2F2000105900490C5
:105CA0000C68002C41D00FF29C612046FCF776FA7C
:105CB000002800F08B8040F2AC3000210A22C2F2B2
:105CC00000000068FCF7EAFA86B220200124002ECA
:105CD00000F0988047F2A805C0F60005C0B201F0B8
:105CE000FFF8285D0134182CF8D147F240750027E1
:105CF00004ACC0F6000500BFF8002146082280B2BF
:105D0000FCF7ECFE0498BDF816309DF8152001BA9A
:105D10009DF81400DBBA42EA0022284600F0A6FFF4
:105D20000137B8B28642E7D808E347F2E5456C2070
:105D30000124C0F6000500BFC0B201F0D1F8285D13
:105D40000134372CF8D140F28C3540F2D028C2F221
:105D50000005C2F2000868896989C1F38002698977
:105D6000C1F340136989C1F3001740F25431D8F8E8
:105D70001260C2F200010C6800F0010147F2C57028
:105D8000CDE90076C0F60000029400F06FFF68894C
:105D9000C0F380216889C0F340226889C0F30023E2
:105DA00047F21E70C0F6000000F060FF47F253603B
:105DB000B8F90E70B8F80810B8F80A20B8F90C3025
:105DC000C0F60000009700F051FFB7E20FF27C51DF
:105DD0002046FCF7E3F908B340F25C30C2F2000061
:105DE0000178002940F0AA820121017040F254306C
:105DF0000021C2F20000016040F26030C2F20000F7
:105E000001609BE247F26B05C0F60005C0B201F0ED
:105E100067F8285D0134162CF8D18FE20FF2345167
:105E20002046FCF7BBF948B140F25C30C2F20000FA
:105E30000178012904BF002101707FE20FF21C519B
:105E40002046FCF7ABF9A0B140F2AC3040F28C3404
:105E5000C2F20000C2F20004006820B300210A224E
:105E6000FCF71CFA618921F0C00160F387116181A0
:105E700027E00FF208512046FCF790F980B340F27A
:105E8000AC30C2F200000068002845D000210A2290
:105E9000FCF704FA40F28C31C2F200014A8960F347
:105EA00000024A8145E047F2E62620200125C0F69F
:105EB000000600BFC0B201F013F8705D0135242D5B
:105EC000F8D160890FF29842C0F381116089C0F364
:105ED000811052F820200FF2984000F0C7FE2DE20A
:105EE0000FF2AC412046FCF759F960B340F2AC30F8
:105EF000C2F200000068002841D000210A22FCF70D
:105F0000CDF940F28C31C2F200014A8922F004023C
:105F100060F382024A813FE047F2323520200124BB
:105F2000C0F60005C0B200F0DBFF285D0134282C6C
:105F3000F8D140F28C30C2F20000408900F001013B
:105F40000FF24040F8E10FF25C412046FCF726F9E1
:105F500060B340F2AC30C2F200000068002841D0CB
:105F600000210A22FCF79AF940F28C31C2F20001BA
:105F70004A8922F0100260F304124A813FE047F29E
:105F80000A3520200124C0F60005C0B200F0A8FFA9
:105F9000285D0134282CF8D140F28C30C2F2000088
:105FA0004089C0F380010FF2F030C5E10FF20841E3
:105FB0002046FCF7F3F860B340F2AC30C2F20000C8
:105FC0000068002840D000210A22FCF767F940F25F
:105FD0008C31C2F200014A8922F0200260F345129E
:105FE0004A813EE047F2BD4520200124C0F600056D
:105FF000C0B200F075FF285D0134282CF8D140F2C2
:106000008C30C2F200004089C0F300110FF29C30C6
:1060100092E10FF2B8312046FCF7C0F850B340F2DD
:10602000AC30C2F200000068F0B300210A22FCF795
:1060300035F940F28C31C2F200014A8922F48062C3
:1060400060F38A224A813CE047F27F352020012418
:10605000C0F60005C0B200F043FF285D0134272CD4
:10606000F8D140F28C30C2F200004089C0F34011F8
:10607000D3A061E1DAA12046FCF790F850B340F2DA
:10608000AC30C2F200000068F0B300210A22FCF735
:1060900005F940F28C31C2F200014A8922F4007203
:1060A00060F349224A813CE047F2F0352020012488
:1060B000C0F60005C0B200F013FF285D0134272CA4
:1060C000F8D140F28C30C2F200004089C0F3802148
:1060D000C0A031E1C6A12046FCF760F850B340F201
:1060E000AC30C2F200000068D8B300210A22FCF7ED
:1060F000D5F840F28C31C2F200014A8922F4807254
:1061000060F308224A8139E047F2CB352020012490
:10611000C0F60005C0B200F0E3FE285D0134252C76
:10612000F8D140F28C30C2F200004089C0F3402127
:10613000ACA001E1B2A12046FCF730F838B340F240
:10614000AC30C2F200000068B0B300210A22FCF7B4
:10615000A5F840F2D022010CC2F2000250829182D6
:106160003DE047F2A63520200124C0F60005C0B26C
:1061700000F0B6FE285D0134252CF8D140F28C30B9
:10618000C2F200004089C0F300219AA0D4E0A0A18F
:106190002046FCF703F830B340F2AC30C2F2000006
:1061A0000068A8B300210A22FCF740F840F2D02191
:1061B000C2F2000108813DE047F21745202001248A
:1061C000C0F60005C0B200F08BFE285D0134252C1E
:1061D000F8D140F2D020C2F20000818A408AC0EAA1
:1061E000014188A0A8E08EA12046FBF7D7FF20B38D
:1061F00040F2AC30C2F20000006898B300210A22DD
:10620000FCF714F840F2D021C2F2000148813BE0D3
:1062100047F2C26520200124C0F60005C0B200F09C
:106220005FFE285D01340E2CF8D140F2D020C2F27E
:106230000000008981B277A07EE07AA12046FBF7BA
:10624000ADFF38B340F2AC30C2F200000068B0B32A
:1062500000210A22FBF7EAFF40F2D021C2F200013E
:1062600088813EE047F2D06520200124C0F6000579
:10627000C0B200F035FE285D01340E2CF8D140F29A
:10628000D020C2F20000408981B247F29460C0F68B
:10629000000051E064A12046FBF780FF38B340F2D4
:1062A000AC30C2F20000006878B300210A22FBF78C
:1062B000BDFF40F2D021C2F20001C88137E047F2B1
:1062C000B46520200124C0F60005C0B200F008FE2D
:1062D000285D01340E2CF8D140F2D020C2F200002B
:1062E000808901B247F24860C0F6000024E047F21E
:1062F000E5456C200124C0F60005C0B200F0F0FDB9
:10630000285D0134372CF8D118E047F2DE652020F3
:106310000124C0F60005C0B200F0E2FD285D0134A2
:10632000182CF8D140F2D020C2F20000C08901B28E
:1063300047F27160C0F6000000F098FC06B0BDE8BE
:10634000F08100BF64756D700000000073746172AD
:106350007400000073746F700000000064657600C4
:106360003E7800084B780008447800083778000829
:10637000204445563D25642025730A006175746FDD
:1063800000000000204155544F3D25640A000000E4
:1063900072696E67000000002052494E473D256437
:1063A0000A0000007561727400000000205541521F
:1063B000543D25640A00000066696C650000000019
:1063C0002046494C453D25640A0000007469636B12
:1063D00000000000205449434B3D25640A000000A2
:1063E00076646300205644433D25640A00000000A3
:1063F00069646300204944433D25640A00000000AD
:10640000696E740020494E543D25640A0000000066
:10641000756800002055483D2535646D560A00001A
:10642000756C000069680000696C0000F0B581B00F
:1064300040F2A830C2F20000006800283FD00021DE
:106440001022FBF72BFF68B3074640F2AC30C2F2D4
:106450000000006830B100211022FBF71FFF82B25C
:10646000072A01D84FF480724FF6FF7300204AF2DA
:10647000010100BF3D5C6B40002500BF81EA530471
:10648000DE0705F1010508BF5C08082D2346F5D39A
:1064900001309042EED10BA0394601B0BDE8F0408A
:1064A00000F0E4BB47F2200520200124C0F60005DF
:1064B000C0B200F015FD285D01340F2CF8D101B0F9
:1064C000F0BD00BF53544152543D30782530385808
:1064D000204C454E3D307825303858204352433DBE
:1064E0003078253034580A002DE9F04742F21C007C
:1064F000C4F20200006840F2A830C2F20000006856
:10650000002852D000211022FBF7C8FEA8B1044693
:1065100040F2AC300025C2F20000006890B10021CA
:106520001022FBF7BBFE87B2B7F5807F88BF01253D
:10653000072F98BF4FF4807706E047F22008C0F697
:10654000000826E04FF48077002D18BF4FF48077C5
:10655000DFB147F6310A47F62B0800260FF2500943
:106560000025C0F6000AC0F6000800BF300703D1BE
:106570003119484600F07AFBA15D504600F076FBE9
:106580000135AEB2B742F1D803E047F62B08C0F6AA
:10659000000898F8000040B108F10104C0B200F012
:1065A0009FFC14F8010B0028F8D1BDE8F08700BF6C
:1065B0000A307825303858200000000070B540F2CD
:1065C000A830C2F200000468D4B147F66A01204640
:1065D000C0F60001FBF7E2FD00B347F2D50520202D
:1065E0000024C0F6000500BFC0B22E1900F078FCF0
:1065F00001347078202CF7D1BDE87040FCF7CEBB99
:1066000047F2B05570200124C0F60005C0B200F07A
:1066100067FC285D01342F2CF8D170BD47F6860148
:106620002046C0F60001FBF7B9FDA8B147F20915F5
:1066300020200124C0F60005C0B200F051FC285D06
:1066400001341F2CF8D140F28C30C2F20000818856
:1066500041F00101818070BD12A12046FBF79EFD33
:1066600088B147F2801520200124C0F6000500BF44
:10667000C0B200F035FC285D0134202CF8D1BDE813
:106680007040FCF79EBD47F2B05570200124C0F663
:10669000000500BFC0B200F023FC285D01342F2CA0
:1066A000F8D1BAE7726573746F726500F0B581B0A6
:1066B00042F20404C4F20204A06910F0060F0DD0E7
:1066C00047F28E0520200124C0F60005C0B200F07C
:1066D00007FC285D01340D2CF8D1B0E047F22816F4
:1066E00020200125C0F60006C0B200F0F9FB705D65
:1066F00001350C2DF8D1E068000609D540F22310D1
:10670000C4F26750206048F6AB10CCF6EF50206022
:10671000E068800509D440F22310C4F2675060603D
:1067200048F6AB10CCF6EF5060600020CFF6F17069
:10673000014600BFA268D20703D00131FAD3042179
:1067400008E0A168C90604D4A168022202EA510146
:1067500000E003214FF60002C1F6FF72138855884E
:106760009688D388B2F808E0B2F80AC0A76907F0A3
:106770000607062F08BF0521002944D1E16841F032
:106780002001E160E16841F04001E160014600BFA5
:10679000A768FF0703D00131FAD3042133E0A168D1
:1067A000C9062BD4A168022707EA510139BBE16869
:1067B000EDB221F02001E160F1B2E768FF2947F076
:1067C0001006E6604FF0BB061680558018BF91801A
:1067D000D9B2FF2918BFD1805FFA8EF1FF2918BF07
:1067E00011815FFA8CF1FF2918BF5181A168C90797
:1067F00027D001304FF00401F8D304E00321E06812
:1068000020F02000E0601FA000F030FAE06820F4E3
:106810000070E060E06840F08000E060A06910F087
:10682000060F0CD047F2810520200124C0F6000598
:10683000C0B200F055FB285D01340D2CF8D101B039
:10684000F0BDA068C00617D4A0680221E26801EA82
:10685000500122F010000029E060D4D147F25C160C
:1068600020200125C0F60006C0B200F039FB705DA3
:1068700001350F2DF8D1C9E7E068032120F01000A1
:10688000C0E700BF204572726F72203D2025640A68
:106890000000000040F2A830C2F20000006808B911
:1068A000002003E000210A22FBF7F8FCFCF708F9BE
:1068B00003A000F037FB012080F31388FCF7C4FF2E
:1068C000207265626F6F74696E67202E2E2E200A0B
:1068D00000000000B0B540F2A830C2F20000046829
:1068E000ACB13BA12046FBF759FC20B340F2AC30E1
:1068F000C2F20000006800284ED000210A22FBF7F7
:1069000095FC40F2D021C2F20001888649E047F2AE
:106910003C4574200124C0F6000500BFC0B200F061
:10692000DFFA285D0134282CF8D140F2D020C2F2E1
:106930000000818E36E047F68F012046C0F6000148
:10694000FBF72CFCB0B340F2AC30C2F200000068A0
:10695000E8B300210A22FBF769FC45F6144141F235
:10696000CC0240F2D023CFF6FE71C2F2000300FB4E
:10697000021044F6D35140F26C02C1F26201C2F23D
:10698000000250FB01F01288811101EBD07002442B
:1069900011A091B29A8609E040F2D020C2F2000024
:1069A000808E81B247F27C60C0F60000BDE8B04046
:1069B00000F05CB947F23C4574200124C0F60005A4
:1069C000C0B200F08DFA285D0134282CF8D1B0BD9A
:1069D00074763235000000002073657420545632FE
:1069E000353D25646D562E2E2E0A0000B0B540F2BE
:1069F000A830C2F2000004687CB347F69A01204632
:106A0000C0F60001FBF7CAFBC8B340F2AC30C2F2DB
:106A10000000006800284FD000210A22FBF73EFC4E
:106A2000024640F24200C2F20000808840F2D025C7
:106A30002823B0F5006F91B238BF2623B0F5806FE0
:106A400047F24810C2F2000538BF2423C0F6000008
:106A5000EA52BDE8B04000F009B947F21C55752074
:106A60000124C0F6000500BFC0B200F039FA285D6D
:106A700001342F2CF8D1BDE8B040FEF767B947F6D6
:106A80008F012046C0F60001FBF788FB18B340F2E7
:106A9000AC30C2F20000006870B140F24204002243
:106AA000C2F20004A188B2EB912F3FD140F2D02175
:106AB000C2F20001898C45E040F2D020C2F2000011
:106AC000818CC28C038D47F20270C0F60000BDE8D5
:106AD000B04000F0CBB847F6DB012046C0F600011D
:106AE000FBF75CFB00285BD040F2AC30C2F2000048
:106AF0000068002862D000210A22FBF797FBA0F271
:106B0000D17140F6B632914288BFB0BD40F2420129
:106B100040F2D022C2F20001C2F2000209894843C9
:106B2000010BD186C0F30F3129A092E740F2D022A9
:106B3000B1F5006FC2F2000202F1280338BF02F182
:106B40002603198889B242F2107291421AD140F29A
:106B50008005C2F200052968A1B100210A22FBF7D5
:106B60009DFB010400B242F2107200EBE17080EA7A
:106B7000E17128685143002800D54042B1FBF0F292
:106B8000A08853E747F2BD1520200124C0F6000578
:106B9000C0B200F0A5F9285D01341D2CF8D10CE03D
:106BA00047F21C5575200124C0F60005C0B200F064
:106BB00097F9285D01342F2CF8D1B0BD40F2D020D8
:106BC000C2F20000C18E47F28860C0F6000040E7C4
:106BD000207365742056494E5420746F2025646DCF
:106BE000560A000070B511A0162103221C2300F0E4
:106BF0003DF84FF2AC76002514A4C1F6FF7600BF35
:106C000036F81510204600F031F80135062DF7D181
:106C100047F22F050A200124C0F60005C0B200F09B
:106C20005FF9285D01343C2CF8D170BD2055494DE9
:106C3000657465724D696E69204633333020762560
:106C4000642E25642E256420534E3A002530345896
:106C50000000000043F61C01C4F201010A6812069C
:106C6000FCD5C86008684006FCD5704783B02DE9A4
:106C7000F04F86B004460FA843F61C070DF13C0BFD
:106C80000EC002A8C4F20107CDF804B0A0F1010AB9
:106C9000224614F8010B252802D000284DD119E115
:106CA0005078302804D02D2807D14FF0020E01E093
:106CB0004FF0010E9078D41C02E0941C4FF0000EAF
:106CC000A0F130024FF00009D2B2092A0ED800BF5D
:106CD00009EB8902520052FA80F214F8010BA2F17A
:106CE0003009A0F13003DBB20A2BF1D340F02002CF
:106CF0006C2A04BF14F8010B0EF1040E002800F0FA
:106D0000E9800346602888BF203BDAB24E2A0DDDB9
:106D10004F3A092A11D8DFE802F0051010101810B8
:106D20001310101508224F2338E000BF422A33D039
:106D3000432A00F0A980442A02D000F0D1F8A7E746
:106D40000A222BE01022582328E0DBF80000002262
:106D5000835C0132002BFBD10BF1040B5FEA8E71D7
:106D6000A2F1010500F194804D4580F0908040F241
:106D7000BC31C2F20001096849B100BF3B681B0683
:106D8000FCD52023FB6000BF3B685B06FCD5551C8F
:106D90004A452A46F0D37BE0022242236FF04301AA
:106DA000DBF800600025CDF800B00DF108084FF0C9
:106DB000000B51FA83F3B3FA83F3002E48BF012589
:106DC0005B0913EA050C18BF764278284FF00700DC
:106DD00008BF2720B6FBF2F559460BF1010B05FB66
:106DE0001263092B88BF03443033BBF10F0F08F83F
:106DF000013002D8B2422E46ECD96CF3C30E3025D6
:106E00005FEA0E7042BF2D2008F80B000BF1010B5A
:106E1000D8460098043000905FEACE7008BF202565
:106E20005FEA8E700ED4CB450AD209F10108A9EBB6
:106E30000B0600BF284600F053F8013EFAD101E0EE
:106E40000BF101081AF80B00ABF1010B00F048F848
:106E5000BBF1000FF6D1DDF800B0C845BFF418AFA4
:106E600040F2BC302022C2F20000006808F10108A4
:106E700038B100BF39680906FCD5FA60396849069F
:106E8000FCD5C845F2D103E71BF8040B55E71546BE
:106E9000017841B1461C00BFC8B200F021F816F8D5
:106EA000011B0029F8D14D45BFF4F2AE40F2BC30D1
:106EB0002022C2F20000006805F1010538B100BFD0
:106EC00039680906FCD5FA6039684906FCD54D4594
:106ED000F2D1DDE606B0BDE8F04F03B07047000028
:106EE00040F2BC310A28C2F2000109680DD1C1B1DB
:106EF00043F61C02C4F2010213681B06FCD50D23E5
:106F0000D36000BF13685B06FCD551B143F61C018A
:106F1000C4F201010A681206FCD5C8600868400680
:106F2000FCD5704710B5017839B1441CC8B2FFF7E1
:106F3000D7FF14F8011B0029F8D110BD0048704795
:106F40000400002002E008C8121F08C1002AFAD17C
:106F500070477047002001E001C1121F002AFBD1D9
:106F60007047004040404040404040404141414126
:106F70004140404040404040404040404040404010
:106F80004040400502020202020202020202020224
:106F900002020220202020202020202020020202A5
:106FA0000202020290909090909010101010101019
:106FB00010101010101010101010101010100202ED
:106FC0000202020288888888888808080808080859
:106FD000080808080808080808080808080802023D
:106FE00002024000636F000800100E000008070056
:106FF0000084030000C2010000E1000000960000D0
:10700000004B000080250000C01200006009000055
:10701000B00400002C010000000000000102030485
:10702000204261642041647265737321200A000A62
:10703000204543484F2053747564696F203C656355
:10704000686F2E786A747540676D61696C2E636F26
:107050006D3E2E20416C6C2052696768747320521B
:10706000657365727665642E200A00206C6F672058
:1070700064756D70205B646563206E756D5D200ABC
:107080000020454E20524450204F4B210A002052F0
:107090004450206973204F4E210A0020493243207A
:1070A0004572726F72210A00202020202074286D02
:1070B00073292C55286D56292C49286D41290A0021
:1070C0004C6F61642066726F6D20454550524F4D84
:1070D0002E2E2E0A00204C6F616420706172616D4B
:1070E00065746572732066726F6D20454550524F0E
:1070F0004D2E2E2E0A005361766520746F20454573
:1071000050524F4D2E2E2E0A00205361766520706E
:107110006172616D657465727320746F20454550AE
:10712000524F4D2E2E2E0A0020454E205244502EF6
:107130002E2E0A0020536574204941444A20746F62
:107140002025642E2E2E0A002053657420554144BC
:107150004A20746F2025642E2E2E0A00204C617563
:107160006E6368696E672E2E2E0A0020414443200C
:1071700063616C6962726174696F6E2E2E2E0A00F3
:1071800020526573746F72652064656661756C74F6
:1071900020706172616D65746572732E2E2E0A0007
:1071A00020536574204941444A20746F20313030A7
:1071B00030302066697273742E2E2E0A00205365BB
:1071C00074205541444A20746F20313030303020D3
:1071D00066697273742E2E2E0A006D656D6372637C
:1071E000205B68657820616464725D205B68657807
:1071F000206C656E5D2053686F77204D656D6F72F2
:1072000079204352432E0A00656570726F6D205BD2
:107210006C6F61647C736176657C726561647C7798
:10722000726974655D205B616464725D205B64619A
:1072300074615D204F70657261746520496E742EB3
:1072400020454550524F4D2E0A0065657264205B03
:1072500068657820616464725D205B686578206C85
:10726000656E5D2052656164204578742E20454529
:1072700050524F4D2E0A0065657772205B68657825
:1072800020616464725D205B68657820646174616C
:107290005D205772697465204578742E20454550ED
:1072A000524F4D2E0A00646973706C6179205357F8
:1072B0002076657273696F6E20616E6420534E2E66
:1072C0000A0067657420766F6C746167652063756A
:1072D0007272656E7420616E6420706F77657220C3
:1072E0006574632E0A00206C6F6720646576205BEE
:1072F000307C317C327C335D20536574206C6F6749
:10730000206465766963652E0A00206C6F672072C1
:10731000696E67205B307C315D205475726E204F42
:107320006E2F4F66662052494E47206D6F64652E62
:107330000A00206C6F67206175746F205B307C31B0
:107340005D205475726E204F6E2F4F66662041553A
:10735000544F206D6F64652E0A006572617365205D
:107360005B7061676520616464725D204572617362
:107370006520666C61736820706167652E0A002065
:107380006C6F672066696C65205B307C315D2054D2
:1073900075726E204F6E2F4F6666206C6F67206689
:1073A000696C652E0A00206C6F6720696463205B3E
:1073B000307C315D205475726E204F6E2F4F6666A3
:1073C00020696463206C6F672E0A00206C6F672051
:1073D000766463205B307C315D205475726E204F83
:1073E0006E2F4F666620766463206C6F672E0A00EE
:1073F000206C6F67207469636B205B307C315D208B
:107400005475726E204F6E2F4F6666207469636BE1
:10741000206C6F672E0A00206C6F6720696E7420E5
:107420005B646563206D735D20536574206C6F67CA
:1074300020696E74657276616C2E0A0074736574CF
:10744000205B747632357C63616C695D205B5456D9
:1074500032357C545D2073657420542070617261F4
:107460006D2E0A007265626F6F74205B64656C61DB
:1074700079206D735D205265737461727420737925
:107480007374656D2E0A0067657420414420496E4F
:10749000666F2E0A00636C65617220706F7765728B
:1074A00020616E642074696D6520496E666F2E0AD6
:1074B0000068656C7020496E666F2E0A00206C6F44
:1074C000672075617274205B307C315D2054757269
:1074D0006E204F6E2F4F66662055415254206475C2
:1074E0006D702E0A006C6F67205B64756D707C6137
:1074F00075746F7C72696E677C756172747C666985
:107500006C657C696E745D204F7065726174652076
:1075100064617461206C6F67732E0A007573657403
:10752000205B61646A7C63616C697C76696E745D02
:10753000205365742F53686F7720566F6C746167A2
:107540006520706172616D732E0A00697365742025
:107550005B61646A7C63616C697C7A726F5D2053E5
:1075600065742F53686F772043757272656E74204F
:10757000706172616D732E0A00696E666F205B65C3
:1075800063686F7C626175647C6D656E757C626B2F
:107590006C747C68616C747C636F6D615D20536595
:1075A000742F53686F7720706172616D732E0A00BB
:1075B000706172616D205B6C6F61647C7361766574
:1075C0007C726573746F72655D204F706572617453
:1075D0006520706172616D65746572732E0A006555
:1075E0006E61626C65205244502070726F746563E6
:1075F000742E0A00656D70747920436865636B2092
:10760000666C61736820736563746F7220697320A0
:10761000656D707479206F72206E6F742E0A006D24
:10762000656D7264205B68657820616464725D20BA
:107630005B686578206C656E5D2053686F77204DC0
:10764000656D6F72792E0A002049483D2535646DBD
:10765000410A002055483D2535646D560A20554C99
:107660003D2535646D560A2049483D2535646D41F8
:107670000A20494C3D2535646D410A00205456329C
:10768000353D25646D560A002056494E543D25640B
:107690006D560A0020554C3D2535646D560A002074
:1076A000414443315F43414C49203D2030782530EF
:1076B00034580A00206C6F67206968205B6D415D5B
:1076C0000A00206C6F67207568205B6D565D0A00AC
:1076D000206C6F6720756C205B6D565D0A00206C16
:1076E0006F6720696C205B494C20646563203130F2
:1076F0003030585D0A00204941444A203D2025642D
:107700000A00205541444A203D202564202564205C
:1077100025640A0020434F4D413D25640A00205452
:1077200049434B3D2564205644433D25642049444C
:10773000433D25640A00253130642C2535640A0058
:10774000253130642C2535642C2535640A0020430E
:107750004B5F4148422020203D20256C640A0020D8
:10776000434B5F4144432020203D20256C640A00A8
:1077700020434B5F4345432020203D20256C640A75
:107780000020434B5F5359532020203D20256C643B
:107790000A0020434B5F4150423120203D20256CA0
:1077A000640A0020434B5F4150423220203D202597
:1077B0006C640A0020434B5F5553415254203D20D6
:1077C000256C640A00204155544F3D2564205249E0
:1077D0004E473D25642046494C453D256420554192
:1077E00052543D256420494E543D256C646D7320F0
:1077F000434E543D256C640A0020424155443D25CA
:107800006C64204543484F3D2564204D454E553D11
:10781000256420424B4C543D256420434F4D413D4F
:1078200025642048414C543D2564730A0046462097
:1078300000253032582000323443353132003234A2
:107840004336340032344332353600323443313239
:1078500038003031323334353637383941424344D9
:107860004546006D656D637263006C6F616400670F
:10787000657461640065657264006D656D726400B5
:1078800065726173650073617665006C6F67006394
:10789000616C690067657475690061646A00706194
:1078A00072616D00656570726F6D007665727369E7
:1078B0006F6E00696E666F007264700068656C7050
:1078C00000636C6561720065657772006973657449
:1078D000007473657400757365740076696E740066
:1078E0007265626F6F7400656D70747900000000DE
:1078F00094780008C2720008D5550008C1780008C5
:1079000095740008654F00088B780008E57400083E
:107910008D5C0008B378000879750008855600086A
:10792000D67800081C750008ED690008CC780008BE
:107930004B750008F95A00089E780008B0750008D9
:10794000BD650008E07800086474000895680008C8
:10795000BC780008B174000855560008AB780008E0
:10796000A6720008E56B0008757800084A720008E6
:107970008D510008C778000877720008655200082A
:107980007A7800081F760008E96400086378000828
:10799000DA7100082D640008807800085A73000826
:1079A00079530008A4780008087200089D4F000869
:1079B000B8780008DF750008AD660008E7780008B1
:1079C000F475000811530008D17800083C740008D1
:1079D000D56800086F78000887740008895400088B
:1079E000007A00080000002008000000446F000832
:1079F000087A000808000020B8070000546F00084B
:087A000000000000000000007E
:04000005080021517D
:00000001FF
