:020000040800F2
:10200000C007002065210008C7310008C131000861
:10201000C53100088525000831380008000000009F
:102020000000000000000000000000009D330008D8
:10203000C72A000800000000C9310008DD3400088C
:102040007F2100087F2100087F2100087F210008F0
:102050007F2100087F2100087F210008CD2E000885
:102060007F210008412600087F2100087F21000809
:102070007F2100087F2100087F2100087F210008C0
:102080003F3600087F210008000000007F21000883
:102090007F2100087F2100087F2100087F210008A0
:1020A0007F2100087F2100087F21000859360008A1
:1020B0007F210008000000007F21000800000000D0
:1020C0007F210008000000007F21000800000000C0
:1020D0000000000000000000000000000000000000
:1020E00000000000000000007F2100080000000048
:1020F00000000000000000000000000000000000E0
:102100007F21000800000000000000000000000027
:1021100000000000000000000000000000000000BF
:1021200000000000000000000000000000000000AF
:10213000000000000000000000000000000000009F
:102140000000000000000000000000007F210008E7
:10215000DFF80CD000F02AF900480047253A0008C3
:10216000C00700200648804706480047FEE7FEE714
:10217000FEE7FEE7FEE7FEE7FEE7FEE7FEE7FEE737
:10218000E13400085121000800487047306B000816
:10219000A0F14101192900D82030704730B505461B
:1021A0002A460B4612F8010B13F8014B08B1A04266
:1021B000F8D01CB1002802D06D1CF1E7284630BDD4
:1021C00010B5044604E00B7800F8013B03B1491C4C
:1021D000521EF8D2204610BD421C10F8011B0029E7
:1021E000FBD1801A7047000070B50F4D00B9286808
:1021F000002412E00A4602E09E4203D0521C1378EB
:10220000002BF9D1DAB2224305D02BB124B1002141
:1022100000F8011B04E00446401C0678002EE9D1BA
:102220002860204670BD0000000000202DE9F04726
:1022300091460F4680460446002614F8015B2DB1F6
:10224000FFF7A2FF0068405DC007F6D12B2D02D03A
:102250002D2D18D0641E4A463946204600F057F806
:1022600027B13968A14201D1C7F8008071054FF04C
:1022700002040BD54042002803DD04F005FC046095
:10228000A007BDE8F08746F48066E4E70028F8DAA6
:1022900004F0FAFB04606FF00040F2E72DE9F05F14
:1022A00093460F4680460446002604F0EDFBD0F826
:1022B0000090824614F8015B2DB1FFF765FF0068BE
:1022C000405DC007F6D12B2D02D02D2D1AD0641EF3
:1022D0000021CAF800105A463946204600F017F887
:1022E000014627B13868A04201D1C7F80080DAF86A
:1022F0000000022809D0CAF80090700505D54842B0
:10230000BDE8F09F46F48066E2E70846F8E72DE96D
:10231000F05F82460078002715468B460AF10104DB
:10232000B946302801D09DB113E014F8010B012704
:10233000782803D0582801D045B10AE00DB1102DFE
:1023400007D10027102514F8010B02E0082500E052
:102350000A250026B0460EE005FB080005FB06F145
:10236000012701EB10461FFA80F8B6F5803F00D335
:10237000B94614F8010B294600F02AF80028EBDAD8
:10238000BBF1000F05D00FB1641E00E05446CBF83E
:102390000040B9F1000F06D004F076FB0221016085
:1023A000C81EBDE8F09F48EA0640FAE7064C074D14
:1023B00006E0E06840F0010394E807009847103415
:1023C000AC42F6D3FFF7C8FE14740008347400085A
:1023D0003A2800D2303820F02002412A01D3A2F15D
:1023E0003700884201D34FF0FF307047D2B201E08E
:1023F00000F8012B491EFBD270470022F6E710B50A
:1024000013460A4604461946FFF7F0FF204610BD62
:1024100008224FF0000CC4F20202106820F0010004
:102420001060C2F800C0C2F804C0C2F808C0C2F808
:102430000CC0252052F8041C41F00F0142F8041C86
:1024400042F208411368C4F2010123F00103136052
:1024500001F14403936040F21A03C2F20003D36017
:1024600005235360136860F30D231360106820F098
:1024700040001060106840F080001060106820F08C
:1024800010001060106840F020001060106820F408
:1024900080401060106840F001001060106840F04B
:1024A0000200106041F20C00C4F20200026842F423
:1024B00000720260026822F400720260012251F888
:1024C000040C40F4807041F8040C086820F40060AB
:1024D0000860086840F400000860086840F48070F4
:1024E0000860486A20F470004862486A40F480003E
:1024F0004862C86A20F01F00C862886840F0070080
:102500008860C86A62F349100222C862886840F095
:1025100038008860C86A62F38E201022C86288681A
:1025200040F4E0708860C86A62F3D3301122C86258
:10253000486840F4E0104860C86A62F31850C86206
:10254000486840F460004860086820F46020086033
:1025500008680860086840F4801008600868C007D0
:1025600003D1086840F00100086040F22441C4F241
:102570000001C1F800C000BF0868B0F57A7FFBD346
:1025800070470000FEE741F214004FF6FF62C4F20C
:102590000200C7F6FE72016841F010010160016897
:1025A00041F004010160016841F4003101600168FB
:1025B00041F480210160016841F4800101604168BB
:1025C00041F400714160016841F00101016041681E
:1025D00041F480514160416841F40061416081688B
:1025E00041F002018160816841F080518160416861
:1025F00041F480414160C16921F00301C161C169B9
:1026000041F00301C161016A41F00101016250F82A
:10261000101C21F4404140F8101CC1691140C161F7
:10262000016AC90703D1016A41F001010162C16970
:1026300041F48031C161C16921F48071C161704789
:102640002DE9F04F81B00021C4F2020108688968C9
:102650000840800740F1128240F2D020C2F2000010
:10266000C088B0F5807F02D94FF0080823E08028A9
:1026700002D94FF007081EE0402802D94FF00608A3
:1026800019E0202802D94FF0050814E0102802D9DB
:102690004FF004080FE0082802D94FF003080AE0C1
:1026A000042802D94FF0020805E04FF00008022884
:1026B00088BF4FF0010840F2180140F28C390090B9
:1026C00040F2380240F2240340F24C0A40F2420B3E
:1026D00040F21A0EC2F20001C2F20009C2F2000278
:1026E000C2F20003C2F2000AC2F2000BC2F2000EF4
:1026F00081F80080B9F80410090627D54FF0FF31A2
:102700004FF6FF74002501FA08F1614032F81560B8
:1027100053F8254076B94AF8254024FA08F42BF8F6
:102720001540002443F82540B9F802C04CF48070ED
:10273000A9F802003EF81500204443F82500701C5B
:10274000084022F815000135032DDFD1002000BF1D
:10275000111803EB4006CD88F46875B90AEB400701
:10276000FC60270A0BEB0004E7800024F460B9F852
:10277000027047F40077A9F802700EEB00070230F0
:10278000FF8804282744F76005F10107FFB2CF80D6
:10279000DED1D9F80C000130C9F80C0040F26030ED
:1027A000C2F2000001684A1C40F2BA31C2F20001D4
:1027B00002600B88581C82B20880B2F57A7F06D37B
:1027C00000200880D9F810100131C9F8101040F22B
:1027D0005C31C2F200010978012911D140F258316F
:1027E000009BC2F200010A6801329A420A6007D3D4
:1027F00000220A60B9F8021041F01001A9F8021095
:1028000080B205280AD003286BD002287DD1B9F800
:10281000020040F02000A9F8020076E040F27000CB
:10282000C2F200000068002800D5404248F639672F
:1028300040F6C41144F240284843C3F6E307C0F20F
:102840000F08A0FB070240F26C30C2F200000368E0
:1028500003EB520340F27402C2F2000203601668F6
:10286000002E00D5764271434BF6BF564DF6836C71
:102870004345A1FB0717CFF6F076C4F21B3C40F2AC
:102880007031C2F200010D6805EB57070F6013DDD0
:102890009C1940F2643EA4FB0C45C2F2000EDEF827
:1028A0000040AA0C04EB9544751C2B4402FB053236
:1028B000631CCEF800300260474526DDB819A0FB46
:1028C0000C0240F26830950CC2F20000036803EB82
:1028D0009242731C1F44013205FB037302600B60BC
:1028E00013E0B9F814000130A9F8140040F2D02028
:1028F000C2F20000008A40B1B9F81410814204D934
:1029000099F800000A2840F0D9804CF6CD41D9F85A
:102910000C00CCF6CC41A0FB0112D10801EB8101E7
:10292000A0EB4100072805D1B9F8020040F00800EB
:10293000A9F8020048F21F51D9F80C00C5F2EB11BA
:10294000A0FB01125109642201FB12000B2805D1E2
:10295000B9F8020040F00100A9F80200B9F8080037
:1029600040F2B8321826C2F20002C4F60006C0F3E4
:1029700001201178013101F00F01032911701ED8D7
:1029800081425DD840F28431C2F2000108780979B1
:1029900001F0080100F082FCB9F8080006F110020D
:1029A00006F5826110F01003304608BF104608BFDC
:1029B00006F58061002B08BF324616464EE0072917
:1029C00019D8043981423BDC40F28431C2F2000163
:1029D0004878097901F0040100F060FCB9F80800BA
:1029E00006F5806110F01000304618BF103008BFA7
:1029F00006F5826130E00B291FD8083981421FDCBF
:102A000040F28431C2F200018878097901F00201B4
:102A100000F044FCB9F8080006F1100306F58261E5
:102A200010F01002184608BF304608BF06F5806156
:102A3000002A08BF1E4632460FE00C39814220DDD5
:102A4000B9F8080006F5826110F01000304618BF92
:102A5000103008BF06F58061024606464023036039
:102A60000220086010201060082030600020C4F2AE
:102A700002000146406840F00200486001B0BDE835
:102A8000F08F40F28431C2F20001C878097901F078
:102A9000010100F003FCB9F8080006F1100306F587
:102AA000826110F01002184608BF304608BF06F5D4
:102AB0008061002A08BF1E460246CFE7B9F802002F
:102AC00040F04000A7E6704740F28C31C2F20001AE
:102AD000CA6800BFCB689B1A834228BF704700BFFB
:102AE000F8E700002DE9F04381B01546002A88463A
:102AF000064608BF012500F0EBF8A02000F09EF884
:102B000038B9300A00F09AF818B9F0B200F096F827
:102B100018B1022001B0BDE8F08300F0D9F8A1207F
:102B200000F08CF800284FF00200F3D141F2184277
:102B300040F22441A5F1010C00264FF001094FF0AD
:102B4000000EC4F60002C4F2000100BF00240027FA
:102B5000106000BF0E6000BF0B68002BFCD0C2F8F5
:102B600010900E600B68052BFCD3C2F800900E602D
:102B70000B68032BFCD352F8083C64000E605B0822
:102B80000D68022DFCD303F001030137082F44EA3E
:102B90000304DFD35FFA8EF7C2F810900E6000BF17
:102BA0000B68022BFCD3BC4508F8074014DD10610C
:102BB0000E6000BF0B68032BFCD3C2F800900E60C0
:102BC0000B68052BFCD3C2F810900E600B68022B2B
:102BD000FCD30EF1010EB9E702201060002008605E
:102BE00008680328FCD3012010600020086000BFA3
:102BF00008680528FCD3012010610020086000BF90
:102C000008680228FCD3022010610020086000BF81
:102C100008680028FCD0012010600020086000BF78
:102C200008680528FCD3022010600020086000BF5F
:102C3000086804284FF00000FAD36BE7B0B541F202
:102C4000184E40F2244100234FF0020C01220024D0
:102C5000C4F6000EC4F2000100FA04F52D06754614
:102C600058BF1035C5F800C00B6000BF0D68002DBF
:102C7000FCD0CEF800200B600D68052DFCD301348C
:102C8000CEF81020082CE7D1002008600868022840
:102C9000FCD30220CEF8000000200860086802285B
:102CA000FCD30120CEF8000000200860086803284B
:102CB000FCD35EF8080C0122CEF810200022400858
:102CC0000A6000BF0A68022AFCD300F00100B0BD10
:102CD00041F2184140F224400222C4F60001C4F23D
:102CE00000000A60002202600268002AFCD0012273
:102CF0000A600022026000BF0268052AFCD302229B
:102D00000A610022026000BF0268052AFCD301228A
:102D10000A610021016000BF01680229FCD37047ED
:102D200070B514460D460646FFF7D2FFA020FFF708
:102D300085FF90B9300AFFF781FF70B9F0B2FFF755
:102D40007DFF50B904E000BF013C0135200606D0EC
:102D50002878FFF773FF0028F6D0022070BD41F2FB
:102D6000184040F224410222C4F60000C4F20001DF
:102D7000026100220A6000BF0A68002AFCD001221A
:102D8000026000220A6000BF0A68052AFCD3022202
:102D900002600020086000BF086804284FF00000AF
:102DA000FAD370BD80B540F2503041F6024C40F28B
:102DB000D023C2F20000C0F6000CC2F2000301886A
:102DC00001F0070202804CEAC2104FEAC21E821CC8
:102DD000002000BF115A195202307C28FAD14EEA65
:102DE0000C000088A3F87C0080BD00002DE9F043B2
:102DF00081B040F2503940F2D0254FF6FF7C0023DD
:102E00004AF201074FF6FF74C2F20009C2F2000550
:102E1000B9F8002002F0070EA9F800E035F8131009
:102E20004C400021264687EA54040131F00708BFD0
:102E300074080829F6D301333E2BEFD142F204087F
:102E4000C4F20208D8F80C0000060BD540F223109B
:102E5000C4F26750C8F8000048F6AB10CCF6EF504B
:102E6000C8F80000501C41F6004700F007014FF47D
:102E70008070C0F6000700EBCE10A9F800103843B0
:102E80000288624503D000F0E7FCB9F8001007EBB8
:102E9000C110210400F026FD002600BFB9F8000093
:102EA00007EB460101EBC01055F81610043000F096
:102EB00019FDB01C86B23E2EF0D3D8F80C0040F0BD
:102EC0008000C8F80C0001B0BDE8F08340F2144067
:102ED000C4F20100016850F8142C1140490506D4D1
:102EE000016850F8142C1140890458BF70474FF402
:102EF0008061016001604FF4005101600160704722
:102F00002DE9F04141F2280040F204080022032399
:102F10000026C4F20200C4F60008016841F4003142
:102F20000160016821F400310160016841F48021F1
:102F30000160016821F480210160016841F4800191
:102F40000160016821F4800101604FF09040016848
:102F5000D8F80800022E06F101069EBF03FA02F51A
:102F60002943A8430232102EF4D14FF0904201239E
:102F7000032500241160C8F808001168D8F808007B
:102F8000002200BF03FA04F616F0580F06D005FA27
:102F900002F603FA02F7B143B04339430134023277
:102FA000102CEFD14FF09042032300261160C8F897
:102FB000080000210122D8F8000020F05800C8F8CD
:102FC0000000D8F8040000BF02FA06F7013617F037
:102FD000580F1CBF03FA01F7B8430231102EF3D18A
:102FE000C8F804004FF09040002201234FF0030C7A
:102FF000022400260168D8F8080000BF03FA06F78B
:1030000017F0A00F06D00CFA02F704FA02F5B94344
:10301000B843294301360232102EEFD14FF09042CF
:10302000032300261160C8F8080000210122D8F807
:10303000000020F0A000C8F80000D8F8040000BF8D
:1030400002FA06F7013617F0A00F1CBF03FA01F7CA
:1030500038430231102EF3D1C8F804000020A0211B
:10306000002500F085FC4FF09040022101224FF432
:10307000C063012400F0B0FCD8F800000321002256
:1030800020F4C060C8F80000D8F8040004FA02F385
:1030900013F4C06F05D001FA05F3984304FA05F361
:1030A000184301320235102AF0D1C8F8040001207B
:1030B0004FF4C061012500F05BFC4FF0904000210F
:1030C000032300260068D8F8082000BF05FA06F799
:1030D00017F4C04F06D003FA01F7B843BA4305FA14
:1030E00001F73A4301360231102EEFD140F2084188
:1030F0004FF0904301261860C8F80820C4F600017C
:103100004FF0FF33D8F8FC23486800BF1BB966F3C3
:10311000830220F00C0001330F2BF7D1C8F8FC23F9
:103120004860D8F8000420F00200C8F800044FF00E
:10313000FF300A68002800F1010008BF22F00C02ED
:103140000F28F7D141F2004C0A6000230326012525
:103150000027C4F6000CDCF80020DCF80C1000BFDF
:10316000012F06D806FA03F405FA03F0A243A1439F
:10317000024301370233102FF2D1CCF80020CCF8F3
:103180000C100022032301270026DCF8040040F085
:103190000300CCF80400DCF8081000BF012E06D8AC
:1031A00003FA02F021EA000007FA02F101430136B6
:1031B0000232102EF2D1CCF80810BDE8F0810000E8
:1031C000FEE70000FEE77047704710B540F2D024DC
:1031D0006821FF22C2F2000404F10800FFF706F99B
:1031E00040F28C3100200123C2F20001C880CA885D
:1031F00042F0010222F0FE02CA80CA8822F4706204
:1032000002F54072CA80CA8822F44052CA80CA8835
:1032100063F39F32CA80CA88228008810A8942F0FB
:1032200001020A810A8922F010020A810A8922F425
:1032300040720A810A896FF31F320A810A8962800B
:1032400048814A8922F001024A814A8922F0040217
:103250004A814A8922F010024A814A8942F02002BA
:103260004A814A8942F0800222F040024A8149891B
:10327000208242F21070A1804FF47A71E18042F214
:103280001071C2F21071C4E9080140F2AA51208500
:10329000C0F2B041C4E90C0110BD000081B046F29B
:1032A0008712C8F21862A0FB0223C21A03EB520273
:1032B0001523120902FB130040F28C3331A2C2F233
:1032C00000031B89105CDA0605D4002918BF60F0E2
:1032D0007F00024605E07F22002922EA000208BFA3
:1032E000C24343F2080000234FF6FF7CC4F2010002
:1032F000ADF802304FF0FF33ADF8023003689B07A2
:103300000FD4BDF80230013BADF80230BDF80230F9
:10331000002BF3D140F27803C2F2000319680131A7
:103320001960D1B24160ADF802C000BF0168C907A1
:103330000FD1BDF802100139ADF80210BDF802102E
:103340000029F3D140F27801C2F200010A6801328B
:103350000A604168ADF802C0016809060FD5BDF8E2
:1033600002100139ADF80210BDF802100029F3D1A6
:1033700040F27800C2F2000001680131016001B042
:10338000704700BF3F065B4F666D7D077F6F777CA0
:10339000395E797180733E00400000007047000084
:1033A00010B540F28C3140F2D02C4FF0000E4AF2B2
:1033B0000103C2F20001C2F2000CC888ACF80000A0
:1033C0000A89ACF802204989ACF804104FF6FF7165
:1033D000414000200A4683EA51010130D40708BF6A
:1033E00051080828F6D30EF1010EBEF1370F02D0B6
:1033F0003CF81E00ECE7ACF86E10BDE81040FFF79B
:10340000F5BC00284FEAD07300D540422DE9F043C7
:1034100040F2843944F6D35E4CF6CD4848F21F5C46
:1034200042F20F72C2F200099042C1F2620ECCF673
:10343000CC48C5F2EB1C89F8043001DC083314E0F9
:1034400048F29F64C0F20104A04204DCA0FB08041F
:103450000433E00809E044F23F24C0F20F04A04224
:1034600032DCA0FB0C040233600989F80430A0FBB5
:103470000E34A309A0FB0846A0FB0C42F608A3FBF0
:1034800008455209A6FB0841ED08A2FB0847C908F8
:1034900005EB850501EB8101A3EB4503A6EB41019B
:1034A00089F80030FB0889F8021006EB860103EB6F
:1034B00083034942A2EB430200EB410089F801205B
:1034C00089F80300BDE8F08349F27F63C0F29803F6
:1034D0009842DCBFA0FB0E039809C8E770470000C4
:1034E00042F2040040F2231148F6AB12C4F202008B
:1034F000C4F26751CCF6EF52016002604160426055
:10350000C16841F02001C160C16841F04001C16063
:103510008168C907FCD1C16821F02001C160C16880
:1035200041F01001C160816911F0060F4FF60001F2
:10353000C1F6FF7106D0826902F00602022A03D1A9
:10354000BB2207E0A52205E0826902F00602062AF6
:1035500001D1CC220A808269DF2303EA12224A8049
:103560008269C2F307428A808269120ECA80C269E8
:10357000D2B20A81C26992B2120A4A8141F20401AE
:10358000C268C4F2020122F01002C26051F8040CB9
:1035900040F0010041F8040C51F8040C8007FBD501
:1035A0000C220868C0F6FF0210404FF6FF72086058
:1035B000C7F2C272086810404FF6FF720860CFF67B
:1035C000F26251F8040C10404FF6F07241F8040C0E
:1035D000C3F6FF72886A104040F203128862C86A1C
:1035E0009043C862C86A20F48030C862C86A20F07C
:1035F0000040C862086B20F001000863D1F8BC00ED
:1036000020F48030C1F8BC0000204860C1F8C80038
:10361000086808600868086008680860086820F0A2
:103620000300086008680860086842F200014EF66E
:103630000850C0F60001CEF200000160704740F271
:103640000C40C4F20000016842681140C9071CBF69
:103650006FF0010141607047F0B581B043F61C0482
:10366000C4F201042068000703D5606840F0080038
:1036700060602068800640F1D88040F28415A6681A
:103680000020C2F20005A5F84201FEF77DFD0168A9
:10369000F0B2095C11F03E0F12D0B5F8467101216D
:1036A00085F84160A5F842113F2F00F29C80FEF79B
:1036B0006FFD791CA5F84611E91981F8C10092E067
:1036C0000C280DDD0D2823D01B2851D01D280BD12F
:1036D000B5F84801411C0AB2012AC8BF411E4EE09C
:1036E00008286CD00A287ED047F28921000906F00C
:1036F0000F02C0F60001085C895C85F841000320D8
:1037000085F84210A5F84201202085F843006AE0C0
:1037100040F60D200221A5F84100B5F84601A5F8B4
:1037200042113F285AD805F1C10100220A54012054
:10373000A5F846212870B5F9480100EBD07222F0B7
:103740000102801A40F28402C2F20002A5F8480188
:1037500002EBC0108022FEF733FDB5F948010130BD
:1037600000EBD07121F00101401AA5F848013AE0C0
:10377000B5F84801411E0AB2002A48BF411C40F278
:10378000840608B2A5F848118022C2F2000606EBB2
:10379000C01105F1C100FEF713FDFEF71DFDB5F9DF
:1037A0004811A5F8460105F14100802206EBC11140
:1037B000FEF706FDFEF710FDA5F8420113E042F208
:1037C00008000821A5F84100032085F84310A5F85A
:1037D0004201B5F8460130B1013802E0002085F819
:1037E0000001A5F84601B5F8420100F03F0140F2A2
:1037F0008C30A5F84211C2F200000289D20718BF2E
:10380000002910D0002200BF55FA82F393F841300E
:1038100027683F06FCD5E36023685B06FCD50132D0
:10382000D3B29942F0D80021818201B0F0BD0000EE
:10383000FEE700004EF60C50BFF34F8F0422CEF28D
:103840000000C0F2FA52016801F4E0611143016026
:10385000BFF34F8F00BFFDE7002342F20C0CCFF601
:10386000F173C4F2020C1946DCF80020D20703D031
:103870000131F9D3042132E0DCF80010C9061BD471
:10388000DCF80010022202EA510141BBDCF804100E
:1038900041F00201CCF80410CCF80800DCF8040078
:1038A00040F04000CCF80400DCF80000C00705D070
:1038B0000133F9D304210CE0032110E0DCF800000F
:1038C000C00605D4DCF80000022101EA500100E046
:1038D0000321DCF8040020F00200CCF804000846C4
:1038E0007047000010B5002442F20C0ECFF6F174C0
:1038F000C4F2020E224600BFDEF80030DB0704D01F
:103900000132F9D34FF0040C30E0DEF80020D2068B
:1039100017D4DEF80020022303EA520CBCF1000F9A
:1039200024D1DEF8042042F00102CEF80420016028
:10393000DEF80000C00707D00134F9D34FF0040CC3
:103940000EE04FF0030C11E0DEF80000C00605D4D5
:10395000DEF80000022101EA500C01E04FF0030CF8
:10396000DEF8040020F00100CEF80400604610BD2F
:10397000F0B540F2200C00220F240025C4F6000C04
:10398000DCF80030DCF804E021FA05F6F60705D093
:1039900004FA02F6B34300FA02F633430135043267
:1039A000082DF1D1082200240F2700BF21FA02F6CA
:1039B000F60707D007FA04F600FA04F52EEA060621
:1039C00046EA050E01320434102AEFD1CCF800305B
:1039D000CCF804E0F0BD00002DE9F041D0F800E0A3
:1039E000D0F80CC000244FF00308002623FA06F795
:1039F000FF070DD008FA04F701FA04F52EEA070EC6
:103A00002CEA07074EEA050E02FA04F547EA050C10
:103A100001360234102EE9D1C0F800E0C0F80CC025
:103A2000BDE8F08182B041F600444FF6FF754FF6D5
:103A3000FF76C0F60004FEF7A6FDFFF761FAA01CB2
:103A40000021802202F4607330F8027C23431B883B
:103A50000FB9AB4223D00131803080320829F1D137
:103A600040F2503042F204070021C2F20000C4F2DA
:103A700002070180F868000609D540F22310C4F25D
:103A80006750386048F6AB10CCF6EF5038602046EF
:103A9000FFF7E2FEF86840F08000F86005E040F2D1
:103AA0005032C2F2000211800088FFF77BF940F229
:103AB000D02AC2F2000ABAF87600A0F110018AB248
:103AC000120942EA013189B2072905D8012202FA16
:103AD00001F111F08B0F04D14FF2E070C1F6FF70CD
:103AE000008840F25231C2F2000108804AF201011E
:103AF0000020CFF6FF7100BF3AF810205640002298
:103B0000F307C6F34E0602F1010218BF4E40082A21
:103B1000F6D301303828EFD140F25C32300440F265
:103B20008C36C2F20006C2F2000204D0FFF74DFB51
:103B3000FFF736FC25E0BAF80000A5F5405189B240
:103B4000F080BAF802003081BAF804007081308940
:103B5000884205D930896FF31F30308100203070E2
:103B60007089C0071CBF012010700C20C4F6000033
:103B70004068400405D40C20C4F60000406880046E
:103B8000D4D541F20C0242F6044442F6004343F617
:103B90000007C4F20202C4F20104C4F20103C4F239
:103BA0000107106840F400601060106820F40060A5
:103BB000106000206062196821F0700119601968B6
:103BC00019601968196041F63F71A162196821F402
:103BD0004071196019681960E0620721206940F09E
:103BE00001002061E06920F00100E061606920F0DF
:103BF00003006061E06940F00100E061E06920F0ED
:103C00000200E061E06940F00200E061E06920F05C
:103C10000400E061E06940F00400E061E06920F048
:103C20000800E061E069E061206820F480702060B5
:103C3000206840F480702060206820F400702060CC
:103C40002068206040F69F702063606920F070005B
:103C50006061606940F070006061206820F0700071
:103C60002060206840F030002060206C40F400406C
:103C70002064186840F001001860506840F00200AD
:103C80005060506820F00200506040F20040C4F2E2
:103C900000008162016821F070010160016801602B
:103CA000016801604FF0FF31C162016821F4407189
:103CB000016001680160416941F0010141610168F1
:103CC00041F0010101604AF6AB211068CAF6AA2151
:103CD00040F480401060106820F480401060F0884C
:103CE000C0F30320A0FB0112D10801EB4101A0EBBE
:103CF000810046F63431C0F6000151F8205006200C
:103D000000F0A0FF3968090405D400EB5500B0FBB2
:103D1000F5F080B20AE040004FF6F07100EB55007C
:103D2000B0FBF5F00140C0F342000844F86046F2F1
:103D3000A1714EF60C5540F200563868C0F60001ED
:103D4000CEF20005C0F2FA5620F001003860386863
:103D500020F4C060386038683860386820F00100AE
:103D60003860386820F480503860386838603868C7
:103D700020F001003860786820F44050786078685E
:103D80007860386820F004003860386840F004003B
:103D90003860386820F008003860386840F0080063
:103DA0003860386840F020003860386840F0010022
:103DB000386040F2BC30C2F200000160FEF728FB20
:103DC000D4F8FC0300F4415000F20F30C4F8FC03B7
:103DD000D4F8180420F40060C4F81804D4F8FC03E4
:103DE00040F04000C4F8FC032E60286800F4E06056
:103DF000A0F54070B0F5A06F03D2010AC1F1040232
:103E000002E02E600221022201234EF207404EF210
:103E1000001703FA01F10F23CEF20000CEF20007E3
:103E200023FA02F202F0030211430901017080211A
:103E30003960296801F4E061A1F54071B1F5A06F26
:103E400003D2090AC1F1040202E02E60022102221B
:103E5000012303FA01F10F2323FA02F202F0020216
:103E600011434EF200120901CEF2000201754FF02B
:103E700000611160296801F4E061A1F54071B1F5BC
:103E8000A06F03D2090AC1F1040202E02E600221F0
:103E900002220F234FF0010B40F28C3423FA02F27E
:103EA0000BFA01F1C2F2000402F001021143090110
:103EB00081704EF200114FF40070CEF200010860E4
:103EC00002F036FC40F2841540F2843847F26C264A
:103ED0004FF0000E4FF00309C2F20005C2F20008D5
:103EE000C0F600066088C00540F19A806088AE4642
:103EF00040F21805C446B046C2F2000520F48070B6
:103F0000608040F26200C2F200002F7840F2140597
:103F1000018840F24C00C2F20005C2F200000646E1
:103F2000006872684843030B4A432B6040F2100557
:103F3000FB40120BC2F20005A2EB10302B8040F2C6
:103F40000C03800040F20805C2F200033841C2F2BF
:103F500000051A6022FA07F3BAF932202B80B36801
:103F6000801ABAF83020594340F26403504348F6AF
:103F7000AD32090BC2F20003C6F6DB0250FB02F0C1
:103F8000021302EBD07021FA07F21A8040F26802A5
:103F900040F27003C2F20002C2F2000311600B2271
:103FA00018600023514340F24202C2F20002F9407D
:103FB0009288B3EB922F40F28003C2F200031960A3
:103FC00002D1BAF8242007E00AF12803B2F5006F05
:103FD00038BF0AF126031A8892B246467546E04673
:103FE0004FF0000E514348F6AD32C6F6DB0251FBEE
:103FF00002F10A1302EBD17140F28002C2F2000218
:104000004843116044F6D351C1F2620150FB01F004
:10401000811101EBD07040F27401C2F2000108601E
:104020006088800537D5608840F24201C2F2000105
:1040300020F400700A466080BAF83600098900034F
:10404000B0FBF1F040F26201C2F20001088080B2E0
:10405000A18841F08001A180D18840F26C02C2F2B7
:1040600000024843010B1180BAF83410C0F30F303E
:10407000081A4FF47A71484346F6D541C7F6ED1158
:1040800050FB01F0C10A01EBD07040F26001193021
:10409000C2F2000108806088000740F12581608835
:1040A00040F27C01C2F2000120F0080060800C2088
:1040B000C4F6000040680A88400405D4642100204A
:1040C000642A38BF511C08E00020092A4FF0000183
:1040D00088BF0120632A88BF022040F27C02C2F21E
:1040E000000211800C2140F27E02C4F60001C2F2EF
:1040F000000249681388890406D464220021642BD5
:1041000038BF5A1C09E000BF0021092B4FF0000204
:1041100088BF0121632B88BF022140F27E03012862
:10412000C2F200031A8008BF002904D028B901296F
:1041300003D105201CE003201AE0022808BF002953
:1041400004D028B9022903D1062011E004200FE091
:10415000012808BF012909D081F0020180F0020086
:104160000843B0FA80F04009C00001E0072000BF1A
:104170006070607808B1A4F814E020780C2800F290
:10418000B380DFE800F01F2C43505B0E07070E6979
:104190007A171700607805284ED0032840F0A480D5
:1041A0004AE06078052800F05480032808BF84F8AE
:1041B00000E099E06078052848D0032808BF84F81B
:1041C000009091E060780338032800F28D80DFE8EA
:1041D00010F088000400EB046300082082E060789F
:1041E0000338032800F28080DFE800F0330226580D
:1041F00040F26430C4F810E0C2F20000C0F800E001
:1042000040F26830C2F2000000F0DEBC6078033893
:10421000032800F26980DFE810F0C70404001900E9
:10422000430007205EE060780338032800F25C80DA
:10423000DFE800F00238573A022053E06078033894
:10424000032851D8DFE800F00232053D84F80090E1
:104250004AE084F800E047E060780338032843D858
:10426000DFE800F0023F313BBAF80600B0F57A7F94
:1042700024BF6438AAF8060036E0607803380328C3
:1042800032D8DFE810F00400910486048D04BAF8F7
:104290001000013800F080BC052023E00A2021E056
:1042A00006201FE00B201DE00C201BE040F25C31DB
:1042B000C2F200010878002800F07A8481F800E05A
:1042C00012E009200EE0BAF8060042F227318842D7
:1042D0009CBF6430AAF8060006E0A08840F0010008
:1042E000A0800420207000BF287800286DD005F140
:1042F000C1003146FDF778FF40F2A435C2F2000557
:10430000286038B300203146FDF76EFF40F2A83137
:10431000C2F200010860E8B100203146FDF764FFF9
:1043200040F2AC31C2F20001086098B10020314681
:10433000FDF75AFF40F2B031C2F20001086048B107
:1043400000203146FDF750FF40F2B431C2F20001C7
:10435000086000BF2F684FF0000A00BF47F224300A
:10436000C0F6000050F80A103846FDF717FF28B9CC
:104370000AF10C0ABAF1F00FF0D106E047F224304E
:10438000C0F6000050448068804740F2A8304FF0EB
:10439000000E40F2D02AC2F20000C5F800E040F260
:1043A0008415C2F2000AC0F800E040F2AC30C2F25C
:1043B0000005C2F20000C0F800E040F2B030C2F2E6
:1043C0000000C0F800E085F800E06088C00700F059
:1043D000B381608820F00100608020780C2800F212
:1043E000AB81DFE810F00D0012007F008400A30015
:1043F000B000BC00C100C600CC00CF001A012501EE
:1044000040F28000C2F20000B7E0216942F20F7270
:104410002069914200F2948044F6D351C1F26201C6
:1044200050FB01F18A1102EBD17146F26762C6F2CC
:104430006662904651FB02F2931003EBD27202EBDC
:104440008202A1EB420340F28431C2F200010B7000
:1044500048F21F51C5F2EB1150FB01F14A1102EB7A
:10446000D17151FB08F2971007EBD27202EB820276
:10447000A1EB420C50FB08F240F284319710C2F2DB
:10448000000107EBD27781F801C057FB08F240F238
:1044900084389110C2F2000801EBD27188F804E070
:1044A00001EB8101A7EB410207EB8701A0EB410083
:1044B00088F8022088F80300180640F03D815FEA82
:1044C0000C604FF0130088F8000040F035811006B2
:1044D0004FF0130088F8010040F02E81132088F877
:1044E000020029E140F27000C2F2000045E040F213
:1044F00074001121C2F2000088F800100068002842
:104500004FEAD07100D5404242F20F7288F8041091
:10451000904200F3AA804CF6CD460431CCF6CC464E
:1045200088F80410A0FB0602D008DDE040F2543009
:1045300042F20F71C2F20000006888427FF66CAF51
:10454000C0F303317CE040F24200C2F200008088F8
:10455000BEEB902F40F09E80BAF82400A2E04CF60B
:10456000CD41BAF83000A0E040F26430C2F2000061
:1045700003E040F26830C2F2000000689AE0BAF846
:10458000060001E0BAF8100042F20F71884256D8D6
:1045900044F6D351C1F26201A0FB0112910948F225
:1045A0001F52C5F2EB12A0FB02234CF6CD42CCF613
:1045B000CC421546A1FB022C5A09A0FB0537A2FBF1
:1045C000053EFB08A3FB057A40F284154FEADC07A1
:1045D000C2F2000507EB8707A1EB470188F800103E
:1045E0004FEADE014FF0000E01EB810188F804E094
:1045F000A2EB410188F801104FEADA0140F2D02A1B
:1046000001EB8101C2F2000AA3EB410188F802101C
:1046100003EB8301A0EB41008BE04FF0133088F8EF
:1046200004E0C8F80000608840F04000608083E04B
:1046300044F23210C4F24120C8F800007CE0010BC3
:1046400047F28922C0F60002515C88F80010C0F3DE
:104650000321515C88F80110C0F3031100F00F0032
:10466000515C105C88F8021063E048F29F62C0F26F
:104670000102904227DC48F21F524CF6CD4602312F
:10468000C5F2EB1288F80410CCF6CC46A0FB02026F
:10469000500929E00AF12801B0F5006F38BF0AF18E
:1046A000260108884CF6CD4180B2CCF6CC41A0FB67
:1046B0000101C808FEF7A5FE40F284154FF0000E78
:1046C000C2F2000538E044F23F214CF6CD46C0F27C
:1046D0000F01CCF6CC46884206DC44F6D351C1F239
:1046E0006201A0FB0101880948F21F51C5F2EB11DC
:1046F000A0FB01125109A0FB0623A1FB0627DA0843
:10470000A2FB0636FB0803EB8303A1EB430188F809
:104710000110F10847F26C2601EB8101C0F600069A
:10472000A2EB410188F8021002EB8201494200EB42
:10473000410088F8030000BFCDE900EE206908B30E
:104740006088C0067BD5608820F01000608060899A
:10475000800625D540F254300FF27442C2F20000B8
:1047600000686189C1F3811132F81110884217D3B2
:10477000608940070DD440F25C30C2F2000080F83E
:1047800000E05CE040F26030C2F20000C0F800E0FF
:1047900055E040F25430C2F20000C0F800E000BF23
:1047A00040F2603040F28001C2F20000C2F200012B
:1047B0000768098838BA009008BA40F27001C2F25E
:1047C0000001000C0988ADF8040008BA000CADF82F
:1047D00006006089800610D540F2543069460822F0
:1047E000C2F200000088C00080B2FEF799FA40F2E1
:1047F00084154FF0000EC2F200056089C00616D580
:1048000040F280003946C2F20000026840F27000B7
:10481000C2F20000036847F27810C0F6000001F011
:10482000CBFF40F284154FF0000EC2F2000540F2BB
:104830005430C2F200000146006801300860608810
:10484000800612D5608820F020006080A088C00714
:104850000BD0A08820F00100A080FEF7A1FD40F25F
:1048600084154FF0000EC2F200056088400640F14A
:10487000848160884FF0904540F60007C4F6000739
:1048800020F04000608041F20C00C4F202000146BA
:10489000006940F08050086142F60040C4F2010017
:1048A00002464FF60800CFF6FF700346105820F07E
:1048B0000100D050D05820F40000D0500022C86829
:1048C00020F40070C8600C20C4F60000296800685D
:1048D00009FA02F302321943202A20EA0300F7D131
:1048E00029600C21C4F600010A460860D1F8F413CF
:1048F000D2F80004002200BF09FA02F30232194381
:10490000202A20EA0300F7D10C22C4F60002C2F8E4
:10491000F413C2F8000400223968F86809FA02F3B7
:1049200002321943202A20EA0300F7D13960F860E7
:1049300040F60C400022C4F60000D7F800140068CE
:1049400009FA02F302321943202A20EA0300F7D1C0
:10495000C7F8001440F60C410022C4F600010860BC
:1049600041F20040C4F600000168C06809FA02F391
:1049700002321943202A20EA0300F7D141F2004213
:10498000D0460023C4F6000211600C21D060002242
:10499000C4F60001286809680BFA03F717F4105FE2
:1049A00006D009FA02F7B843B9430BFA02F73943C4
:1049B00001330232102BEFD128600C2040F2004A64
:1049C00040F2743340F2783740F27C3540F2803662
:1049D0000424C4F60000C4F2010AC2F20003C2F2C9
:1049E0000007C2F20005C2F20006C0F20104016035
:1049F000DAF8000020F48060CAF80000DAF8040059
:104A000020F48060CAF80400DAF8080020F480601E
:104A1000CAF80800DAF80C0020F48060CAF80C002C
:104A2000DAF8000040F48060CAF80000DAF8080004
:104A300040F48060CAF80800DAF80C0020F48060C6
:104A4000CAF80C00DAF8000020F40050CAF80000A0
:104A5000DAF8040020F40050CAF80400DAF808007C
:104A600020F40050CAF80800DAF80C0020F40050D6
:104A7000CAF80C00DAF8000040F40050CAF8000050
:104A8000DAF8080040F40050CAF80800DAF80C0020
:104A900020F40050CAF80C0047F20000C4F20000F5
:104AA0000146006820F003000860086840F001003B
:104AB00008604EF60C50CEF200000146406840F00F
:104AC000040048604EF20010CEF20000024650F89A
:104AD000F00C18601068386050682860906830608A
:104AE00052F8F00C204040F28C3442F8F00C4EF6B4
:104AF0001970C2F20004CBF2FF70C2F880006FF4AC
:104B00008060C2F884004FF0FF30C2F8880030BFE8
:104B1000186842F8F00C386810602868002550606A
:104B200030689060486820F004004860A4F814E001
:104B30002089000B2070FDF726FD0020C0F6947040
:104B4000CAF80000CAF80450CAF80850CAF80C5055
:104B5000CAF81050FEF7D4F9FDF75AFC40F284155C
:104B600047F26C26C24640F284384FF0000EC2F283
:104B70000005C2F20008C0F600064EF60C50CEF258
:104B800000000146406820F00400486030BFFFF795
:104B9000A9B9BAF810000130AAF81000FFF7A4BBB9
:104BA000A08840F00100A08084F800B0FFF79CBB13
:104BB00040F2543081F800B0C2F20000C0F800E0CA
:104BC00040F26030C2F20000C0F800E0FFF78CBB9A
:104BD000000400080010002010B540F2D0240AA004
:104BE000C2F20004A18CE28C238D01F0E5FD218E40
:104BF000B4F9322008A001F0DFFDE18EA28E0BA0F7
:104C0000BDE8104001F0D8BD205541444A3D25641F
:104C10002025642025640A00204941444A3D25643A
:104C200020495A524F3D25640A0000002056494E43
:104C3000543D25646D5620545632353D25646D56DD
:104C40000A00000070B541F20403024641F2002C54
:104C5000C4F20203C0F27A0C1868614600F00C003E
:104C600008282BD11868C0F383441868996A00019A
:104C700004D4A01C0F2C08BF102001E004F1110087
:104C8000002948BF1F301E68996AF60305D440F614
:104C90000011C0F23D01414310E09E6A490006F058
:104CA0000F0606F1010102D4BCFBF1F105E046F666
:104CB0000046C0F2DC26B6FBF1F141431868062A33
:104CC000C0F303101E68C6F302241E68C6F3C22692
:104CD00012D843A5285C46F66435C0F6000521FAD3
:104CE00000FEA85D2EFA00F0DFE802F004080A3F9B
:104CF0000E1D2500084670BD002070BD704670BDB9
:104D0000285D2EFA00F070BDD96AC9052ED4D86A84
:104D1000C00343F60070C0F2AB105CBF49F6807070
:104D2000C0F2D50070BDD86A40064FF4004058BFAD
:104D300048F2120070BDDA6A920708BF70BDD86AE7
:104D400000F00300012808460FD0D86A00F00300E5
:104D5000022804BF4FF4004070BDD86A00F0030081
:104D6000032818BF4FF0000C604670BD1968C1F3EE
:104D70008132D96AC90FDFE802F00208101D11B3B1
:104D80004AF6AB20CAF6AA2019E089B14CF6CD400C
:104D9000CCF6CC40AEFB00011DE0B1B144F62510CD
:104DA000C2F29240AEFB0001AEEB010001EB5000FD
:104DB000800870BD89B148F63960C3F6E300AEFBE8
:104DC0000001480870BD400870BD4AF6AB21CAF624
:104DD000AA21A0FB0101880870BDC00870BD00BFFA
:104DE000000000000000000001020304060708099B
:104DF00040F264300021C2F20000016040F26830ED
:104E0000C2F20000016040F26C30C2F200000160AA
:104E100040F27030C2F20000016040F28C30C2F209
:104E200000000161704700002DE9F04740F2A83012
:104E3000C2F20000046834B363A12046FDF7AEF966
:104E400088B340F2AC30C2F20000006848B30021E1
:104E50001022FDF723FA40F2B0310446C2F20001FD
:104E6000096800294ED0084600211022FDF716FAE5
:104E70006FF0070187B211FA80F0382888BF402709
:104E8000002F40D15DE046F6545565200124C0F660
:104E9000000500BFC0B201F0C9FD285D0134422CFD
:104EA000F8D1BDE8F0874FA12046FDF777F900283B
:104EB0004CD040F2AC30C2F2000000680028F0D0C4
:104EC00040F2B034C2F2000421680029E9D0002188
:104ED0001022FDF7E3F92168C4B210220846002130
:104EE000FDF7DCF940F2D021C2F2000121F81400F4
:104EF00081B23EA001F060FC41A02146BDE8F04730
:104F000001F05ABC402740F2D029E4B200200FF251
:104F1000C0080FF2C80A0025C2F2000906193E2E89
:104F20000FD8400703D14046314601F045FCF0B2AE
:104F300039F81010504601F03FFC0135A8B2874205
:104F4000ECD80A20BDE8F04701F070BD47F2A1217E
:104F50002046C0F60001FDF721F978B1FDF722FFE8
:104F600046F60C454C200124C0F60005C0B201F005
:104F70005DFD285D0134152CF8D192E747F2BD2183
:104F80002046C0F60001FDF709F978B1FDF72EFFC4
:104F900046F6424553200124C0F60005C0B201F098
:104FA00045FD285D0134132CF8D17AE746F65455B7
:104FB00065200124C0F60005C0B201F037FD285D70
:104FC0000134422CF8D16CE7726561640000000086
:104FD0000A3078253034582020000000253034581D
:104FE0002000000077726974650000002077726904
:104FF00074652030782530345820746F000000002C
:1050000020616464726573732030782530345820D1
:105010002E2E2E0A000000002DE9F04F81B040F244
:10502000A830C2F200000068002857D000211022EA
:105030000024FDF733F94FF6FF7B0146584540F257
:10504000AC30C2F20000006838BF8B4678B1002156
:105050001022FDF723F96FF0FE01C6B251FA80F07D
:10506000072E98BF8026B0FA80F0440900E0802621
:10507000002C18BFFF2676B347F2682947F2642553
:1050800000200FF260080DF1020A0024C0F60009AA
:10509000C0F60005010700EB0B0703D14046394677
:1050A00001F08AFBB8B251460122FDF71BFD48B161
:1050B00046200127C0B201F0B9FCE85D0137042F9A
:1050C000F8D104E09DF80210484601F075FB013468
:1050D000E0B28642DED80A2001F0A8FC01B0BDE8AB
:1050E000F08F00BF0A3078253034582000000000CF
:1050F000B0B582B040F2A830C2F20000006898B3A8
:10510000002110220025FDF7C9F8B5EB104F2BD177
:10511000044640F2AC30C2F20000006820B3002127
:105120001022FDF7BBF805468DF80300A0B20DF183
:1051300003010122FDF7F4FD70B146F6E7352020AA
:105140000124C0F6000500BFC0B201F06FFC285D6D
:1051500001340D2CF8D107E004A0294601F02CFB06
:1051600007A0214601F028FB02B0B0BD207772698C
:1051700074652030782530325820746F00000000AC
:1051800020656570726F6D20616464726573732051
:10519000307825303458202E2E2E0A00F0B581B0FC
:1051A00040F25236C2F200063088B8B100244FF007
:1051B00000670BA547EA8422002100BF535CFF2B48
:1051C00004D10131B1F5806FF8D104E028462146C1
:1051D00001F0F2FA308801348442EBD301B0F0BD23
:1051E00020506167652025336420402030782530C9
:1051F000384C58206973206E6F7420656D70747917
:10520000210A00002DE9F04F81B042F20408C4F2F7
:105210000208D8F80C0000060BD540F22310C4F2A7
:105220006750C8F8000048F6AB10CCF6EF50C8F84D
:10523000000040F2A830C2F20000006868B100210E
:105240000A22FDF72BF840F2523481B20729C2F24C
:10525000000411D24FF0070B14E046F6A665652056
:105260000124C0F6000500BFC0B201F0DFFB285DDD
:105270000134252CF8D130E02288914228BF501EFD
:105280001FFA80FB40F2AC30C2F20000006858B157
:1052900000210A22FDF702F821881BFA80F28A42D7
:1052A00002D284B20CB918E0012400204FF0006A49
:1052B0000FF23809002700BF00EB0B054AEA8526EC
:1052C0003046FEF7C9FA034648462946324601F001
:1052D00073FA0137B8B28442EED8D8F80C0040F027
:1052E0008000C8F80C0001B0BDE8F08F2045726165
:1052F0007365205061676520253364204020307835
:105300002530384C582C20726573756C74202564D8
:105310000A00000070B582B040F21A0640F2100098
:1053200040F24205C2F20006C2F20000C2F20005DD
:105330003188038840F214002A88C2F20000046811
:1053400022A0009401F038FA40F2080071886A88BF
:10535000C2F20000038840F20C00C2F200000468B0
:1053600021A0009401F028FA40F26400B188AA88D4
:10537000C2F20000038840F26800C2F20000046834
:1053800020A0009401F018FA40F26000F188EA8849
:10539000C2F20000B0F9003021A001F00DFA31890D
:1053A0002A8924A001F008FA40F262000021C2F22A
:1053B0000000028840F21800C2F20000037821A029
:1053C00002B0BDE8704001F0F7B900BF206368305B
:1053D000303D25642025642025646D5620307825D5
:1053E0003038580A0000000020636830313D2564E1
:1053F0002025642025646D56203078253038580AE1
:105400000000000020636830323D256420256420C0
:1054100025646D56203078253038580A0000000089
:1054200020636831363D25642025642025646F4360
:105430000A00000020636831373D25642025640A96
:10544000000000002063616C693D256420564444DF
:10545000413D25646D56204F53423D25640A0000AE
:1054600010B584B040F28C30C2F20000016940F205
:105470008000C2F20000026840F27000C2F2000038
:10548000036840F27400C2F20000D0F800C040F29D
:105490006430C2F20000D0F800E040F26830C2F29E
:1054A0000000046803A0CDE900CE029401F084F965
:1054B00004B010BD20543D256C647320553D256417
:1054C0006D5620493D25646D4120503D25646D5742
:1054D00020256C646D416820256C646D57680A0056
:1054E00070B547F22436002506A4C0F6000600BFBA
:1054F000701971594268204601F05EF90C35782D1B
:10550000F6D170BD202573202D3E202573000000AC
:10551000B0B584B040F2A830C2F20000046814B301
:105520000FF2B0312046FCF739FE002853D040F28C
:10553000AC3040F28C34C2F20000C2F200040068C9
:1055400038B100210A22FCF7A9FE218960F300018D
:105550002181208900F001010FF2803004B0BDE804
:10556000B04001F029B947F2540569200124C0F682
:10557000000500BFC0B201F059FA285D0134372C94
:10558000F8D140F28C3046F63432C2F20000C0F658
:105590000002C188C1F3032103890589048952F8F7
:1055A0002110C4F30124008903F0010240F2D0234A
:1055B000C2F20003C0F30010B3F810C02B0BCDE90A
:1055C000004047F23020C0F60000CDF808C001F0DE
:1055D000F3F804B0B0BDC4A12046FCF7DFFDC8B1AC
:1055E00040F2AC30C2F200000068E8B300210A22A9
:1055F0000024FCF753FE46F63431C0F6000100BF2C
:1056000051F8242082423ED901340C2CF8D14FF4B9
:1056100040603BE0C8A12046FCF7C0FD002845D013
:1056200040F2AC30C2F200000068A8B100210A22AA
:10563000FCF734FE40F28C31C2F200010A896FF3AC
:105640001F3242EA003008810889B0F5604F03D369
:1056500008896FF31F30088140F28C30C2F20000DD
:105660000089010BB6A079E740F28C3046F6343160
:10567000C2F20000C0F60001C088C0F3032051F858
:105680002010AAA06AE704F00F00000240F28C325A
:10569000C2F20002D38823F470631843D080D0880C
:1056A000C0F3032051F8201091A057E7A7A120468E
:1056B000FCF774FDE0B140F2AC30C2F200000068CB
:1056C00068B100210A22FCF7E9FD40F28C31C2F2F8
:1056D00000010A8922F4407260F309220A8140F233
:1056E0008C30C2F200000089C0F3012199A035E797
:1056F0009BA12046FCF752FDB0B140F2AC30C2F2A3
:1057000000000068A8B300210A22FCF7C7FD4FF093
:10571000FF3111FA80F1022940F2D02138BF032075
:10572000C2F20001088254E792A12046FCF736FD40
:1057300030B340F2AC30C2F20000006868B1002122
:105740000A22FCF7ABFD40F28C31C2F200010A895B
:1057500022F0100260F304120A8140F28C30C2F28F
:1057600000000089C0F3001147F26E10C0F600007F
:10577000F4E640F2D020C2F20000018A7AA0EDE601
:105780007EA12046FCF70AFD002844D00020FFF748
:1057900059FA014647F2B910C0F6000001F00CF8C2
:1057A0000120FFF74FFA014647F28610C0F60000CD
:1057B00001F002F80220FFF745FA014647F2CA104D
:1057C000C0F6000000F0F8FF0320FFF73BFA0146A7
:1057D00047F2DB10C0F6000000F0EEFF0420FFF7F8
:1057E00031FA014647F29710C0F6000000F0E4FFDE
:1057F0000520FFF727FA014647F2A810C0F600007F
:1058000000F0DAFF0620FFF71DFA014647F2EC1020
:10581000C0F60000A2E647F2C6212046C0F600010D
:10582000FCF7BCFCF8B140F2AC30C2F200000068FA
:1058300088B353A1FCF7B2FC68B346F6B745202005
:105840000124C0F60005C0B201F0F0F8285D013473
:10585000152CF8D140F28C30C2F20000418841F0A2
:1058600080014180B5E647F212312046C0F60001C2
:10587000FCF794FCA8B140F2AC30C2F20000006822
:10588000E8B100210A22FCF7D1FC40F2D021C2F29B
:105890000001C88618E047F23B100021C0F6000066
:1058A0005CE647F2540569200124C0F60005C0B249
:1058B00001F0BCF8285D0134372CF8D189E640F2BC
:1058C000D020C2F20000C08E81B247F22F10C0F685
:1058D000000043E66563686F000000002045434810
:1058E0004F3D25640A0000006261756400000000FD
:1058F0002073657420554152542042415544207410
:105900006F20256C642C20736176652026207265DB
:10591000626F6F7420746F206170706C79206E6597
:105920007720626175642E0A000000002042415514
:10593000443D256C640A00006D656E750000000032
:10594000204D454E553D25640A000000626B6C7485
:105950000000000020424C4B543D25640A0000002A
:1059600068616C74000000002048414C543D25647F
:10597000730A0000636F6D6100000000636C6B00D0
:1059800072756E00B0B540F2A830C2F20000046833
:10599000F4B147F2D1212046C0F60001FCF7FEFB2E
:1059A00038B340F2AC30C2F200000068002857D093
:1059B00000210A22FCF772FC40F2D023024681B299
:1059C00046F68040C2F20003C0F600001A8650E09E
:1059D00047F2260569200124C0F60005C0B201F097
:1059E00025F8285D01342E2CF8D1BDE8B040FFF732
:1059F000F3B847F2C6212046C0F60001FCF7CEFB03
:105A0000D8B340F2AC3040F2D024C2F20000C2F26F
:105A100000040068218E40B342F21072914244D1DA
:105A200040F27005C2F200052968F1B300210A2294
:105A3000FCF734FC010400B242F2107200EBE1709A
:105A400080EAE17128685143002800D54042B1FB4B
:105A5000F0F246F68040C0F6000091B2228608E0DF
:105A600040F2D020C2F20000018E47F25010C0F682
:105A70000000BDE8B04000F09FBE1EA12046FCF72C
:105A80008DFB08B340F2AC30C2F20000006848B3AE
:105A900000210A22FCF702FC40F2D023024601B2A8
:105AA00015A0C2F200035A86E3E746F6EC45202033
:105AB0000124C0F6000500BFC0B200F0B7FF285DAA
:105AC00001341D2CF8D10CE047F226056920012491
:105AD000C0F60005C0B200F0A9FF285D01342E2CED
:105AE000F8D1B0BD40F2D020C2F20000B0F93210BF
:105AF00006A0BEE77A726F002053657420495A529F
:105B00004F20746F2025642E2E2E0A0020495A52F1
:105B10004F203D2025640A00F0B587B040F2A8313F
:105B20000020C2F20001059004900C68002C40D0C7
:105B30000FF2AC312046FCF731FB00286BD040F26D
:105B4000AC3000210A22C2F200000068FCF7A6FB7C
:105B500086B220200124002E78D046F6F435C0F617
:105B6000000500BFC0B200F061FF285D0134182CB1
:105B7000F8D147F27815002704ACC0F6000500BF45
:105B8000F8002146082280B2FCF7ACFF0498BDF86B
:105B900016309DF8152001BA9DF81400DBBA42EAD0
:105BA0000022284600F008FE0137B8B28642E7D846
:105BB00093E146F6C0756C200124C0F6000500BFD5
:105BC000C0B200F033FF285D0134372CF8D140F229
:105BD0008C3040F2D02740F25436C2F20000C2F2BC
:105BE0000007C2F2000641894289C2F3800243895C
:105BF00001F00101C3F300134089C0F34010FF8896
:105C00003668CDE9000747F2FD100296C0F60000A5
:105C100000F0D2FD61E1B4A12046FCF7BFFA08B361
:105C200040F25C30C2F200000178002940F055815A
:105C30000121017040F254300021C2F200000160E5
:105C400040F26030C2F20000016046E146F6B7352E
:105C5000C0F60005C0B200F0E9FE285D0134162C44
:105C6000F8D13AE1A2A12046FCF798FA48B140F2F7
:105C70005C30C2F200000178012904BF00210170EC
:105C80002BE19DA12046FCF789FAA0B140F2AC308F
:105C900040F28C34C2F20000C2F20004006818B373
:105CA00000210A22FCF7FAFA618921F0C00160F3B1
:105CB0008711618125E098A12046FCF76FFA68B34F
:105CC00040F2AC30C2F200000068002840D0002151
:105CD0000A22FCF7E3FA40F28C31C2F200014A8951
:105CE00060F300024A8140E046F63266202001253A
:105CF000C0F60006C0B200F099FE705D0135242D9B
:105D0000F8D160897DA2C0F381116089C0F3811050
:105D100052F820207DA000F04FFDDEE083A1204658
:105D2000FCF73CFA50B340F2AC30C2F2000000681D
:105D3000F0B300210A22FCF7B1FA40F28C31C2F232
:105D400000014A8922F0040260F382024A813CE0A9
:105D500046F67E6520200124C0F60005C0B200F0A2
:105D600065FE285D0134282CF8D140F28C30C2F257
:105D70000000408900F0010169A0ACE070A120465C
:105D8000FCF70CFA50B340F2AC30C2F200000068ED
:105D9000F0B300210A22FCF781FA40F28C31C2F202
:105DA00000014A8922F0100260F304124A813CE0AB
:105DB00046F6566520200124C0F60005C0B200F06A
:105DC00035FE285D0134282CF8D140F28C30C2F227
:105DD00000004089C0F3800156A07CE05DA1204610
:105DE000FCF7DCF950B340F2AC30C2F200000068BE
:105DF000C8B300210A22FCF751FA40F28C31C2F2FA
:105E000000014A8922F0200260F345124A8137E0FE
:105E100046F6987520200124C0F60005C0B200F0B7
:105E200005FE285D0134282CF8D140F28C30C2F2F6
:105E300000004089C0F3001143A04CE04AA1204675
:105E4000FCF7ACF928B340F2AC30C2F200000068B5
:105E500068B300210A22FCF721FA40F2D021C2F2F5
:105E60000001C88035E046F6CB6520200124C0F64D
:105E70000005C0B200F0DAFD285D0134272CF8D10E
:105E800040F28C30C2F200004089C0F3401133A0D0
:105E900021E046F6C0756C200124C0F60005C0B2B2
:105EA00000F0C4FD285D0134372CF8D115E046F62A
:105EB000F26520200124C0F60005C0B200F0B6FD56
:105EC000285D0134252CF8D140F2D020C2F2000028
:105ED000C08881B225A000F06FFC07B0F0BD00BF04
:105EE00064756D70000000007374617274000000CE
:105EF00073746F70000000006465760075720008AE
:105F0000827200087B7200086E72000820444556B9
:105F10003D25642025730A006175746F0000000040
:105F2000204155544F3D25640A00000072696E6798
:105F3000000000002052494E473D25640A00000041
:105F4000756172740000000020554152543D256473
:105F50000A00000066696C65000000002046494C9C
:105F6000453D25640A000000696E740020494E54C6
:105F70003D25640A00000000F0B581B040F2A83071
:105F8000C2F20000006800283FD000211022FCF778
:105F900085F968B3074640F2AC30C2F200000068F1
:105FA00030B100211022FCF779F982B2072A01D81A
:105FB0004FF480724FF6FF7300204AF2010100BFD8
:105FC0003D5C6B40002500BF81EA5304DE0705F10C
:105FD000010508BF5C08082D2346F5D30130904227
:105FE000EED10BA0394601B0BDE8F04000F0E4BBB3
:105FF00046F66C3520200124C0F60005C0B200F042
:1060000015FD285D01340F2CF8D101B0F0BD00BFA3
:1060100053544152543D307825303858204C454E29
:106020003D307825303858204352433D3078253074
:1060300034580A002DE9F04742F21C00C4F2020075
:10604000006840F2A830C2F200000068002852D078
:1060500000211022FCF722F9A8B1044640F2AC302E
:106060000025C2F20000006890B100211022FCF768
:1060700015F987B2B7F5807F88BF0125072F98BF34
:106080004FF4807706E046F66C38C0F6000826E04C
:106090004FF48077002D18BF4FF48077DFB147F2BF
:1060A000682A47F2622800260FF250090025C0F640
:1060B000000AC0F6000800BF300703D13119484676
:1060C00000F07AFBA15D504600F076FB0135AEB2E0
:1060D000B742F1D803E047F26228C0F6000898F80A
:1060E000000040B108F10104C0B200F09FFC14F8B8
:1060F000010B0028F8D1BDE8F08700BF0A307825F1
:10610000303858200000000070B540F2A830C2F2CC
:1061100000000468D4B147F2A1212046C0F6000176
:10612000FCF73CF800B346F6214520200024C0F6D9
:10613000000500BFC0B22E1900F078FC0134707861
:10614000202CF7D1BDE87040FCF72CBE47F28B0540
:1061500070200124C0F60005C0B200F067FC285D85
:1061600001342F2CF8D170BD47F2BD212046C0F676
:106170000001FCF713F8A8B146F65545202001248C
:10618000C0F60005C0B200F051FC285D01341F2CA0
:10619000F8D140F28C30C2F20000818841F0010158
:1061A000818070BD12A12046FBF7F8FF88B146F64A
:1061B000CC4520200124C0F6000500BFC0B200F08D
:1061C00035FC285D0134202CF8D1BDE87040FCF787
:1061D000FCBF47F28B0570200124C0F6000500BF0C
:1061E000C0B200F023FC285D01342F2CF8D1BAE7AF
:1061F000726573746F726500F0B581B042F2040489
:10620000C4F20204A06910F0060F0DD046F6DA358C
:1062100020200124C0F60005C0B200F007FC285D74
:1062200001340D2CF8D1B0E046F67446202001254B
:10623000C0F60006C0B200F0F9FB705D01350C2D10
:10624000F8D1E068000609D540F22310C4F2675087
:10625000206048F6AB10CCF6EF502060E068800577
:1062600009D440F22310C4F26750606048F6AB10C6
:10627000CCF6EF5060600020CFF6F170014600BF11
:10628000A268D20703D00131FAD3042108E0A16843
:10629000C90604D4A168022202EA510100E00321E8
:1062A0004FF60002C1F6FF72138855889688D3888E
:1062B000B2F808E0B2F80AC0A76907F00607062F8F
:1062C00008BF0521002944D1E16841F02001E160C7
:1062D000E16841F04001E160014600BFA768FF07A7
:1062E00003D00131FAD3042133E0A168C9062BD4CD
:1062F000A168022707EA510139BBE168EDB221F03C
:106300002001E160F1B2E768FF2947F01006E6607E
:106310004FF0BB061680558018BF9180D9B2FF2977
:1063200018BFD1805FFA8EF1FF2918BF11815FFA83
:106330008CF1FF2918BF5181A168C90727D001300E
:106340004FF00401F8D304E00321E06820F02000BE
:10635000E0601FA000F030FAE06820F40070E06018
:10636000E06840F08000E060A06910F0060F0CD0FB
:1063700046F6CD3520200124C0F60005C0B200F05D
:1063800055FB285D01340D2CF8D101B0F0BDA0689B
:10639000C00617D4A0680221E26801EA500122F089
:1063A00010000029E060D4D146F6A846202001253F
:1063B000C0F60006C0B200F039FB705D01350F2D4C
:1063C000F8D1C9E7E068032120F01000C0E700BF62
:1063D000204572726F72203D2025640A0000000083
:1063E00040F2A830C2F20000006808B9002003E0C3
:1063F00000210A22FBF752FFFCF766FB03A000F026
:1064000037FB012080F31388FDF714FA20726562D0
:106410006F6F74696E67202E2E2E200A0000000018
:10642000B0B540F2A830C2F200000468ACB13BA1A4
:106430002046FBF7B3FE20B340F2AC30C2F20000BE
:10644000006800284ED000210A22FBF7EFFE40F240
:10645000D021C2F20001888649E046F61775742003
:106460000124C0F6000500BFC0B200F0DFFA285DCD
:106470000134282CF8D140F2D020C2F20000818EE5
:1064800036E047F2C6212046C0F60001FBF786FE43
:10649000B0B340F2AC30C2F200000068E8B30021B3
:1064A0000A22FBF7C3FE45F6144141F2CC0240F24A
:1064B000D023CFF6FE71C2F2000300FB021044F6B7
:1064C000D35140F26C02C1F26201C2F2000250FBF1
:1064D00001F01288811101EBD070024411A091B239
:1064E0009A8609E040F2D020C2F20000808E81B28C
:1064F00047F22310C0F60000BDE8B04000F05CB9E0
:1065000046F6177574200124C0F60005C0B200F0ED
:106510008DFA285D0134282CF8D1B0BD747632355F
:10652000000000002073657420545632353D256408
:106530006D562E2E2E0A0000B0B540F2A830C2F2E1
:10654000000004687CB347F2D1212046C0F6000168
:10655000FBF724FEC8B340F2AC30C2F20000006882
:1065600000284FD000210A22FBF798FE024640F295
:106570004200C2F20000808840F2D0252823B0F506
:10658000006F91B238BF2623B0F5806F46F6944075
:10659000C2F2000538BF2423C0F60000EA52BDE86D
:1065A000B04000F009B946F6F77575200124C0F631
:1065B000000500BFC0B200F039FA285D01342F2C6D
:1065C000F8D1BDE8B040FEF707BB47F2C621204630
:1065D000C0F60001FBF7E2FD18B340F2AC30C2F2A6
:1065E0000000006870B140F242040022C2F20004D0
:1065F000A188B2EB912F3FD140F2D021C2F200012D
:10660000898C45E040F2D020C2F20000818CC28C1F
:10661000038D47F25C10C0F60000BDE8B04000F00A
:10662000CBB847F212312046C0F60001FBF7B6FDA9
:1066300000285BD040F2AC30C2F2000000680028B5
:1066400062D000210A22FBF7F1FDA0F2D17140F6E1
:10665000B632914288BFB0BD40F2420140F2D02232
:10666000C2F20001C2F2000209894843010BD1863F
:10667000C0F30F3129A092E740F2D022B1F5006FAC
:10668000C2F2000202F1280338BF02F12603198882
:1066900089B242F2107291421AD140F28005C2F2E0
:1066A00000052968A1B100210A22FBF7F7FD0104CA
:1066B00000B242F2107200EBE17080EAE1712868EA
:1066C0005143002800D54042B1FBF0F2A08853E7C7
:1066D00046F6095520200124C0F60005C0B200F09E
:1066E000A5F9285D01341D2CF8D10CE046F6F775AC
:1066F00075200124C0F60005C0B200F097F9285DAE
:1067000001342F2CF8D1B0BD40F2D020C2F20000ED
:10671000C18E47F22F10C0F6000040E72073657469
:106720002056494E5420746F2025646D560A00008F
:1067300070B511A0152105220B2300F03DF84FF292
:10674000AC76002514A4C1F6FF7600BF36F815100C
:10675000204600F031F80135062DF7D146F67B359D
:106760000A200124C0F60005C0B200F05FF9285DE0
:1067700001343C2CF8D170BD2055494D65746572CB
:106780004D696E692046333330207625642E2564AA
:106790002E256420534E3A00253034580000000066
:1067A00043F61C01C4F201010A681206FCD5C86058
:1067B00008684006FCD5704783B02DE9F04F86B0DD
:1067C00004460FA843F61C070DF13C0B0EC002A8AF
:1067D000C4F20107CDF804B0A0F1010A224614F872
:1067E000010B252802D000284DD119E1507830281E
:1067F00004D02D2807D14FF0020E01E04FF0010E1A
:106800009078D41C02E0941C4FF0000EA0F13002EE
:106810004FF00009D2B2092A0ED800BF09EB890255
:10682000520052FA80F214F8010BA2F13009A0F1E3
:106830003003DBB20A2BF1D340F020026C2A04BFF4
:1068400014F8010B0EF1040E002800F0E980034655
:10685000602888BF203BDAB24E2A0DDD4F3A092A64
:1068600011D8DFE802F005101010181013101015E1
:1068700008224F2338E000BF422A33D0432A00F0D9
:10688000A980442A02D000F0D1F8A7E70A222BE021
:106890001022582328E0DBF800000022835C01323C
:1068A000002BFBD10BF1040B5FEA8E71A2F1010505
:1068B00000F194804D4580F0908040F2BC31C2F2EE
:1068C0000001096849B100BF3B681B06FCD52023C5
:1068D000FB6000BF3B685B06FCD5551C4A452A4659
:1068E000F0D37BE0022242236FF04301DBF800602B
:1068F0000025CDF800B00DF108084FF0000B51FA5B
:1069000083F3B3FA83F3002E48BF01255B0913EA32
:10691000050C18BF764278284FF0070008BF2720E3
:10692000B6FBF2F559460BF1010B05FB1263092B7F
:1069300088BF03443033BBF10F0F08F8013002D891
:10694000B2422E46ECD96CF3C30E30255FEA0E70CE
:1069500042BF2D2008F80B000BF1010BD846009820
:10696000043000905FEACE7008BF20255FEA8E7089
:106970000ED4CB450AD209F10108A9EB0B0600BFE2
:10698000284600F053F8013EFAD101E00BF101086E
:106990001AF80B00ABF1010B00F048F8BBF1000F47
:1069A000F6D1DDF800B0C845BFF418AF40F2BC30F6
:1069B0002022C2F20000006808F1010838B100BFCF
:1069C00039680906FCD5FA6039684906FCD5C8451E
:1069D000F2D103E71BF8040B55E71546017841B1E6
:1069E000461C00BFC8B200F021F816F8011B0029B0
:1069F000F8D14D45BFF4F2AE40F2BC302022C2F2D5
:106A00000000006805F1010538B100BF39680906CA
:106A1000FCD5FA6039684906FCD54D45F2D1DDE672
:106A200006B0BDE8F04F03B07047000040F2BC3143
:106A30000A28C2F2000109680DD1C1B143F61C0257
:106A4000C4F2010213681B06FCD50D23D36000BFFE
:106A500013685B06FCD551B143F61C01C4F2010179
:106A60000A681206FCD5C86008684006FCD5704765
:106A700010B5017839B1441CC8B2FFF7D7FF14F83C
:106A8000011B0029F8D110BD004870470400002008
:106A900002E008C8121F08C1002AFAD170477047E7
:106AA000002001E001C1121F002AFBD17047004005
:106AB00040404040404040404141414141404040D1
:106AC0004040404040404040404040404040400501
:106AD0000202020202020202020202020202022078
:106AE0002020202020202020200202020202020278
:106AF0009090909090901010101010101010101096
:106B000010101010101010101010020202020202D9
:106B100088888888888808080808080808080808F5
:106B200008080808080808080808020202024000CD
:106B3000AF6A000800100E00000807000084030080
:106B400000C2010000E1000000960000004B0000C0
:106B500080250000C012000060090000B0040000A1
:106B60002C010000000000000102030420426164C7
:106B70002041647265737321200A000A204543484E
:106B80004F2053747564696F203C6563686F2E787D
:106B90006A747540676D61696C2E636F6D3E2E205F
:106BA000416C6C205269676874732052657365721A
:106BB0007665642E200A00206C6F672064756D7006
:106BC000205B646563206E756D5D200A0020454E74
:106BD00020524450204F4B210A002052445020693B
:106BE00073204F4E210A0020493243204572726FB4
:106BF00072210A00202020202074286D73292C5532
:106C0000286D56292C49286D41290A004C6F616472
:106C10002066726F6D20454550524F4D2E2E2E0A24
:106C200000204C6F616420706172616D65746572E3
:106C3000732066726F6D20454550524F4D2E2E2E9B
:106C40000A005361766520746F20454550524F4DC0
:106C50002E2E2E0A00205361766520706172616DC0
:106C6000657465727320746F20454550524F4D2EE8
:106C70002E2E0A0020454E205244502E2E2E0A0061
:106C800020536574204941444A20746F2025642EA6
:106C90002E2E0A0020536574205541444A20746FFB
:106CA0002025642E2E2E0A00204C61756E636869C3
:106CB0006E672E2E2E0A00204144432063616C69CA
:106CC00062726174696F6E2E2E2E0A0020526573F7
:106CD000746F72652064656661756C742070617292
:106CE000616D65746572732E2E2E0A0020536574D3
:106CF000204941444A20746F2031303030302066C2
:106D0000697273742E2E2E0A00205365742055412B
:106D1000444A20746F2031303030302066697273FD
:106D2000742E2E2E0A006D656D637263205B68659C
:106D30007820616464725D205B686578206C656EA4
:106D40005D2053686F77204D656D6F7279204352D7
:106D5000432E0A00656570726F6D205B6C6F616415
:106D60007C736176657C726561647C777269746539
:106D70005D205B616464725D205B646174615D20B1
:106D80004F70657261746520496E742E20454550C0
:106D9000524F4D2E0A0065657264205B686578204D
:106DA000616464725D205B686578206C656E5D204F
:106DB00052656164204578742E20454550524F4DF0
:106DC0002E0A0065657772205B68657820616464CF
:106DD000725D205B68657820646174615D20577224
:106DE000697465204578742E20454550524F4D2ECC
:106DF0000A00646973706C6179205357207665725C
:106E000073696F6E20616E6420534E2E0A006765B1
:106E10007420766F6C746167652063757272656E3D
:106E20007420616E6420706F776572206574632EC4
:106E30000A00206C6F6720646576205B307C317CB3
:106E4000327C335D20536574206C6F6720646576F7
:106E50006963652E0A00206C6F672072696E672077
:106E60005B307C315D205475726E204F6E2F4F6603
:106E7000662052494E47206D6F64652E0A00206CD3
:106E80006F67206175746F205B307C315D205475B5
:106E9000726E204F6E2F4F6666204155544F206D05
:106EA0006F64652E0A006572617365205B706167AF
:106EB0006520616464725D20457261736520666C53
:106EC00061736820706167652E0A00206C6F67200F
:106ED00066696C65205B307C315D205475726E2074
:106EE0004F6E2F4F6666206C6F672066696C652E4B
:106EF0000A00206C6F6720696E74205B64656320F4
:106F00006D735D20536574206C6F6720696E7465C6
:106F10007276616C2E0A0074736574205B7476322D
:106F2000357C63616C695D205B545632357C545D01
:106F300020736574205420706172616D2E0A007296
:106F400065626F6F74205B64656C6179206D735D41
:106F500020526573746172742073797374656D2E39
:106F60000A0067657420414420496E666F2E0A004E
:106F7000636C65617220706F77657220616E64204A
:106F800074696D6520496E666F2E0A0068656C70C5
:106F900020496E666F2E0A00206C6F672075617243
:106FA00074205B307C315D205475726E204F6E2FE3
:106FB0004F666620554152542064756D702E0A004C
:106FC0006C6F67205B64756D707C6175746F7C722B
:106FD000696E677C756172747C66696C657C696ECC
:106FE000745D204F70657261746520646174612006
:106FF0006C6F67732E0A0075736574205B61646A39
:107000007C63616C697C76696E745D205365742F56
:1070100053686F7720566F6C74616765207061727A
:10702000616D732E0A0069736574205B61646A7C0C
:1070300063616C697C7A726F5D205365742F53684D
:107040006F772043757272656E7420706172616D26
:10705000732E0A00696E666F205B6563686F7C62E1
:107060006175647C6D656E757C626B6C747C686147
:107070006C747C636F6D615D205365742F53686F12
:107080007720706172616D732E0A00706172616D9C
:10709000205B6C6F61647C736176657C7265737470
:1070A0006F72655D204F70657261746520706172EA
:1070B000616D65746572732E0A00656E61626C6540
:1070C000205244502070726F746563742E0A0065FC
:1070D0006D70747920436865636B20666C617368BA
:1070E00020736563746F7220697320656D707479A5
:1070F000206F72206E6F742E0A006D656D726420B1
:107100005B68657820616464725D205B68657820E7
:107110006C656E5D2053686F77204D656D6F727979
:107120002E0A0020545632353D25646D560A002043
:1071300056494E543D25646D560A00204144433162
:107140005F43414C49203D203078253034580A00B7
:10715000204941444A203D2025640A0020554144ED
:107160004A203D2025642025642025640A00204310
:107170004F4D413D25640A00253130642C2535648E
:107180002C2535640A0020434B5F414842202020D3
:107190003D20256C640A0020434B5F41444320207E
:1071A000203D20256C640A0020434B5F434543206B
:1071B00020203D20256C640A0020434B5F53595327
:1071C0002020203D20256C640A0020434B5F415065
:1071D000423120203D20256C640A0020434B5F4152
:1071E00050423220203D20256C640A0020434B5F32
:1071F0005553415254203D20256C640A00204155CE
:10720000544F3D25642052494E473D256420554149
:1072100052543D25642046494C453D256420494E45
:10722000543D25646D7320434E543D256C640A0023
:1072300020424155443D256C64204543484F3D253F
:1072400064204D454E553D256420424B4C543D2510
:107250006420434F4D413D25642048414C543D2519
:1072600064730A004646200025303258200032342C
:107270004335313200323443363400323443323510
:10728000360032344331323800303132333435361F
:10729000373839414243444546006D656D6372633A
:1072A000006C6F6164006765746164006565726499
:1072B000006D656D7264006572617365007361765F
:1072C00065006C6F670063616C6900676574756960
:1072D0000061646A00706172616D00656570726F53
:1072E0006D0076657273696F6E00696E666F00720D
:1072F00064700068656C7000636C65617200656540
:1073000077720069736574007473657400757365D2
:10731000740076696E74007265626F6F7400656DDB
:1073200070747900CB7200080E6E0008615400087A
:10733000F8720008706F0008F14D0008C272000872
:10734000C06F0008195B0008EA720008547000085A
:10735000115500080D730008F76F00083965000823
:10736000037300082670000885590008D5720008CC
:107370008B70000809610008177300083F6F000850
:10738000E1630008F37200088C6F0008E154000804
:10739000E2720008F26D000831670008AC72000864
:1073A000966D000819500008FE720008C36D0008B1
:1073B000F1500008B1720008FA700008356000084A
:1073C0009A720008266D0008795F0008B7720008FD
:1073D000A66E000805520008DB720008546D000814
:1073E000294E0008EF720008BA700008F961000821
:1073F0001E730008CF7000089D5100080873000834
:10740000176F000821640008A6720008626F000868
:107410001553000838740008000000200800000020
:10742000906A00084074000808000020B8070000B7
:10743000A06A00080000000000000000000000003A
:04000005080021517D
:00000001FF
