:020000040800F2
:10000000D00A0020E5330008B1310008B331000800
:1000100000000000000000000000000000000000E0
:10002000000000000000000000000000B5310008E2
:100030000000000000000000B73100081334000881
:1000400015340008000000001534000815340008BD
:100050001534000815340008153400080132000872
:1000600000000000E93100081534000815340008CC
:10007000153400081534000815340008000000008D
:1000800015340008000000000000000015340008CE
:10009000153400081534000815340008153400081C
:1000A000153400081534000815340008B93100086B
:1000B000153400080348854603F0CEFA004800478F
:1000C000B12B0008D00A0020B84801680122114372
:1000D00001604168B64A114041600168B54A11406B
:1000E00001600168012292049143016041683F224E
:1000F000120491434160C16A09090901C162016B9F
:10010000AD4A11400163416B490849004163002138
:100110008160704703460020A4495A090CD0012A87
:100120000CD0022A0CD0496BDA06D20E0123934080
:100130000B4200D0012070470968F5E7096AF3E730
:10014000496AF1E799490028086802D00122104362
:1001500001E0400840000860704701229349120600
:100160000028086801D0104300E090430860704701
:100170008E4A5168890889000143516070478B4855
:1001800040680C2108407047884A5168F023994321
:10019000014351607047854A516807231B02994308
:1001A00001435160704781494A6801239B039A4388
:1001B0004A604A6883B21A434A600A6B8B159A43B5
:1001C0000A630A6B000C02430A637047020F774907
:1001D000012A0AD0022A0A6B0BD003239B049A43FC
:1001E0000A630A6B02430A6370470A6B9208920023
:1001F000F6E703231B04F2E7F8B56C4D0446686884
:1002000000210C226D4E104005D0042803D0082890
:1002100003D00C281AD026601AE0696868680322A7
:100220008902D2030F0F1040BF1C00280AD0E86AD1
:100230000107090F3046491C03F000F978430146D5
:10024000216005E05E4839464143F9E75D4820609A
:1002500068685D4F0006000F3B5C20680246DA408C
:1002600062606B685B055B0FFB5CDA40A2602B6B26
:10027000DB0501D4554B05E06B685B0401D45308E2
:1002800000E09308E3602B6B5F06514B03D4504FA3
:100290001237276100E023612F6BFF0601D46661EE
:1002A00000E060612F6BBF070ED02F6BBF07BF0F41
:1002B000012F0BD02F6BBF07BF0F022F08D02F6B62
:1002C000FF43BF0706D006E0A26104E0A06102E0A0
:1002D000A36100E0A6612F6BBF03BF0F0FD02F6B90
:1002E000BF03BF0F012F0CD02F6BBF03BF0F022F17
:1002F00009D02F6BBF03BF0F032F06D006E0E261CA
:1003000004E0E06102E0E36100E0E6612F6B3F039F
:10031000BF0F0FD02A6B1203920F012A0CD0286B4B
:100320000003800F022809D0286B0003800F0328E8
:1003300006D006E0226204E0206202E0236200E0D0
:100340002662286B000602D41E486062F8BD616216
:10035000F8BD164A0029516901D0014300E08143EC
:1003600051617047114A0029916901D0014300E0B1
:100370008143916170470D4A0029D16901D0014341
:1003800000E08143D1617047084A0029D16801D05B
:10039000014300E08143D1607047044A002911699C
:1003A00001D0014300E08143116170470010024019
:1003B0000CB8FF08FFFFF6FEACFEF0FF00127A005B
:1003C00000093D00006CDC0200000020809FD50089
:1003D00000800000F0B50022012423460D68934000
:1003E0001D409D422AD10D79012D01D0022D12D13F
:1003F000876855000326AE40B74387604E79AE400C
:1004000085682E43866085889D43858085888B79A5
:1004100093401D438580066855000323AB409E43EF
:1004200006600E790768AE403E430660C6689E438C
:10043000C660CB79AB40C5682B43C360521C102A01
:10044000CBD3F0BD0246128A00200A4200D0012020
:1004500070478161704701857047002A01D0816132
:100460007047018570474B07DB0E9A40C90810B5ED
:1004700089000818016A0F249C40A1430162016AA7
:100480001143016210BD0000394A11684908490052
:10049000014311607047364910220028086801D0D6
:1004A000104300E090430860704731480169090635
:1004B00003D5304941603049416070472C4801699B
:1004C000802211430161704729490420CA68D2077C
:1004D00001D001207047CA68D20601D502207047BA
:1004E000C9684907FBD50320704700B50346FFF7ED
:1004F000EBFF02E0FFF7E8FF5B1E012803D0002BB3
:1005000000D1052000BD002BF4D1FAE7F0B50B2790
:1005100006463F043846FFF7E8FF04280FD1144C85
:100520002069022528432061666120694021084333
:1005300020613846FFF7D9FF2169A9432161F0BD49
:10054000F0B50B2706463F040D463846FFF7CDFFB2
:1005500004280CD1064C2069012108432061358014
:100560003846FFF7C2FF2169490849002161F0BD03
:100570000020024023016745AB89EFCD30B504462A
:1005800000688BB00D464008400020606068032181
:1005900009038843A9680143616020684949EA6802
:1005A0000840696811432A69024311432160A06829
:1005B00003210902884369690143A1606846FFF786
:1005C0001BFE4148844201D106980AE03F4884421C
:1005D00001D1079805E03E48844201D1089800E027
:1005E000029821680904296800D5400002F026FF1E
:1005F0002A6852088A4200D8401C2168090404D5A0
:100600000107344A490F10400843A0810BB030BDA8
:100610004B21C90101600021416081600C22C16051
:100620000261416170470029016802D00122114333
:1006300001E04908490001607047C905C90D0185FD
:100640007047808CC005C00D704710B50B041C0EA0
:1006500001238B40022C02D0032C02D002E0001DAB
:1006600000E008300168002A01D0194300E09943F6
:10067000016010BD0246D26900200A4200D001206C
:10068000704730B50A04130E0122144600258C4031
:10069000012B0ED0022B0ED08368090C2340C069B9
:1006A0008A401040002B02D0002800D001252846A7
:1006B00030BD0368F1E74368EFE70A0C0121914080
:1006C00001627047F3E9FFFF003801400044004039
:1006D00000480040F0FF000030B583780121027827
:1006E000002B15D094080E4BA400E4182368920741
:1006F000D50EFF22AA40934342789207120EAA40D9
:100700001A4322600078C006C00E8140054804E00C
:10071000D006C00E814003488030016030BD00002B
:1007200000E400E000E100E05E4910B5884202D13B
:100730000121C4143AE001218907884206D1012130
:100740000846FFF72AFE0021012008E056498842AA
:1007500008D101210220FFF720FE00210220FFF72F
:100760001CFE10BD5149884206D101211020FFF71F
:1007700014FE00211020F2E74D49884206D10121E4
:100780002020FFF70AFE00212020E8E7494988429F
:1007900007D1841501212046FFF7FFFD00212046E7
:1007A000DDE74549884209D101210C042046FFF7C5
:1007B000EBFD00212046FFF7E7FD10BD3F498842D1
:1007C00002D101214C04F1E73D498842F5D10121D4
:1007D0008C04EBE710B50288324B984206D0012416
:1007E000A407A04202D0304CA04203D17024A243FF
:1007F0004C8822432D4CA04203D0324C22400C891D
:10080000224302804A68C2620A880285984208D060
:10081000294A904205D0294A904202D0284A904263
:1008200001D1897A01860121818210BD30B5028C07
:10083000520852000284038C8288048B7025AC43DA
:10084000A4080D88A40025430224A3438C891C43DB
:100850004B882343134CA04208D0174CA04205D02C
:10086000164CA04202D0164CA0420DD10824A3433E
:10087000CC891C4304239C438B882343114C224086
:100880000C8A14434A8A2243828005838968416323
:10089000038430BD828870239A43828082880A4311
:1008A00082807047002C014000040040001000408E
:1008B000001400400020004000400140004401407E
:1008C00000480140FFFC0000424910B5884208D1B1
:1008D000441501212046FFF757FD00212046FFF770
:1008E00053FD10BD30B5C3683B4A8C6813400A689D
:1008F0000D792243CC686D032C4322430C6949696E
:1009000022430A431A43C26030BD0029816801D0E6
:10091000012200E0022211438160704701222F4929
:10092000D2050028886801D0104300E09043886019
:1009300070470122294992050028886801D0104398
:1009400000E0904388607047836A0B438362426192
:100950007047826800210123DB071A4382600F235E
:100960001B038268491CD20FD207994201D0002A8A
:10097000F7D18168002901DB006C704700207047C7
:1009800081681022114381607047816804221143FD
:10099000816070470029C16802D00122114301E043
:1009A00049084900C1607047C26802239A43C26087
:1009B000C2680A43C260704702460020CB0104D5DA
:1009C000926801231B069A4300E012680A4200D095
:1009D000012070470024014003D2FFFF002701409F
:1009E000F0B501684D4A114001600021016041608D
:1009F0008160C1604A494A4B08390F22984201D1AF
:100A0000486823E0464CF0231434A04229D0444DDA
:100A10001C012835A8422BD0414E1D023C36B04265
:100A20002DD03F4F1E035037B8422FD03C4F643774
:100A3000B84204D148681A0408E04860F0BD384F55
:100A40007837B84204D148680F2212061043F4E701
:100A50003449344F0839B842D2D0324A1432904225
:100A600002D148681843E8E72E4A2832904202D162
:100A700048682043E1E72B4A3C32904202D1486863
:100A80002843DAE7274A50329042D7D148683043AA
:100A9000D3E730B50368244A0C6A13408A684D696D
:100AA00022430C692C4322438C692243CC692243A4
:100AB0004C6A22438C6A22431A430260CA6842602D
:100AC0000A6882604968C16030BD0029016802D0AF
:100AD0000122114301E0114A114001607047002AD0
:100AE000026801D00A4300E08A4302607047014671
:100AF0000020CA0002D50B4A083A01E0084A083A29
:100B000012680A4200D001207047C10002D5054991
:100B1000083901E00249083948607047FEFF0000CB
:100B200008000240080402400F80FFFF024901480C
:100B300008607047AAAA00000030004030B5038862
:100B4000C122920113400A88CC890D892243CC88A6
:100B50002C4322434C8922438C8922431A4302802E
:100B60008288124B1A408B88134383800A8A028240
:100B70000288042349889A4311430180818B0C4ADF
:100B80001140818330BD40220029018801D01143EA
:100B900000E091430180704701737047024612895B
:100BA00000200A4200D0012070470000FFF0000042
:100BB000FFF7000013490A6904239A430A610128D8
:100BC00003D040BF20BF20BF704730BF70470E4BDF
:100BD0001A689208920002431A600A4803690422C4
:100BE00013430361012906D0022906D001690222BC
:100BF00011430161704730BF00E020BF016991439C
:100C0000F7E7000000ED00E00070004010B58379C8
:100C10001F490268002B26D00B6893430B604A687B
:100C200003689A434A6002795218136804682343A0
:100C300013608A6803689A438A60CA6803689A43A3
:100C4000CA604279102A05D051180A680068024328
:100C50000A6010BD8A6803681A438A60CA6800681F
:100C60000243CA6010BD00794018016891430160D9
:100C700010BD074948617047054A01465269002086
:100C80000A4200D0012070470149486170470000C6
:100C90000004014077494A68002A03D01070521CB2
:100CA0004A60704709680029FBD0084710B5044620
:100CB00002E0641CFFF7EEFF20780028F9D110BD98
:100CC000F3B58BB006463078761C002877D02528FF
:100CD00002D0FFF7DFFFF6E7002002903478761CA1
:100CE000302C02D02D2C02D005E0012000E00220A3
:100CF00002903478761C002705E00A2047433F190C
:100D00003478761C303F204630380928F5D96C2CD1
:100D100001D04C2C05D1029804210843029034786C
:100D2000761C002C4BD02146612C01D32039C9B24E
:100D30004F2937D006DC422932D043292AD0442912
:100D400006D13DE0532905D0552939D0582939D04D
:100D50002046BEE70C98002420C80C9000E0641CDC
:100D6000285D0028FBD102E02020FFF793FF0298C6
:100D7000800703D42046641CB842F5D32846FFF709
:100D800095FF02E02020FFF785FF2046641CB84253
:100D900099D2F7E70C980178001D0C90084698E767
:100DA000022000E0082001900298400701D4442965
:100DB0000AD00C9A442901CA0C9208D00EE04CE0EB
:100DC0000A20F0E71020EEE70C9901C90C910028E9
:100DD00004DA029940420822114302910025019948
:100DE00002F02CFBC9B2092904D9782C16D00722AD
:100DF0005118C9B204AA303151556D1C002801D0D8
:100E0000102DECD30298000702D52D2151556D1CF1
:100E100002982C46C00703D0302002E02722E7E7E3
:100E20002020089002E00898FFF734FF029880071E
:100E300003D42046641CB842F5D304A86D1E405D5F
:100E4000FFF728FF002DF8D102E02020FFF722FF56
:100E50002046641CB8429BD2F7E70DB0F0BD0FB43A
:100E600010B503A90298FFF72BFF10BC08BC04B013
:100E70001847000010000020FEB505462C46002053
:100E8000FF3441340290A0800F46019002F000FB35
:100E900000682946C05DC4318006C20E2E4601207E
:100EA00044360091002A0FD00199A0808F552089E7
:100EB000402823D2384602F0EFFA01462089009BF1
:100EC000421C2281C15419E0082F20D00D2F2CD0B4
:100ED0000A2F13D01B2F58D01D2F5ED0474A390937
:100EE00013685A5C0199A0808A553907090F5A5C2A
:100EF0008255022120220320A0808A552079800675
:100F0000800EA0803E480089002871D174E00199CC
:100F100008228A552023835503200221A0808A5568
:100F200020890028EAD0401E2DE001990D228A5523
:100F300002210A22A1808255208940281FD2009BCD
:100F40000021C1542181481E2860A05E8022C11763
:100F5000490F0918C908C900401A6081C101294810
:100F60000818009902F0B2FA0A20205E401CC1174E
:100F7000490F0918C908C900401A6081BEE700205E
:100F8000FF21043148552081B8E76089401E00B236
:100F90006081002809DA083006E06089401C00B250
:100FA0006081082801DB083860810A20205E154F27
:100FB000C001C1198022009802F088FA009802F05E
:100FC00092FA20810A20205E8022C001C119304699
:100FD00002F07CFA304602F086FAA0808EE72818EC
:100FE00040300079FFF756FE0298401CC0B20290D4
:100FF000A18802988142F2D8FF20FEBD3000002077
:101000000806002008020020F8B5E4480025006822
:10101000002844D0E148E2A1C43002F06BFAE14C70
:101020000028206019D0DEA1002002F063FA606081
:10103000002812D0DAA1002002F05CFAA06000289B
:101040000BD0D7A1002002F055FAE060002804D0B0
:10105000D3A1002002F04EFA2061D34F3E1D09E0DB
:101060000C2068433158206802F01CFA002804D193
:101070006D1CEDB238788542F2D33878854206D2BD
:101080000C204543A8198068002800D08047002024
:1010900020606060A060E060C04920610860F8BD29
:1010A0003EB5C04DC14C6868002870D0C0A102F0A8
:1010B000F9F900280FD0A868002807D00A220021DB
:1010C00002F03CFA81B22181BBA001E02189C1A0DC
:1010D000FFF7C5FE3EBDC4A1686802F0E3F9002831
:1010E00012D0A86800280CD00A22002102F026FAAB
:1010F00001F08AF9642102F0A1F981B2A180BCA0BB
:10110000E6E7A188C9A0E3E7CEA1686802F0CAF9C2
:1011100000280DD0A868002807D00A22002102F07C
:101120000DFA81B2A182C9A0D2E7A18AD0A0CFE7EF
:10113000D6A1686802F0B6F900280ED0A868002889
:1011400008D00A22002102F0F9F98107890FE18213
:10115000D0A0BDE7E18AD6A0BAE7DAA1686802F0BC
:10116000A1F9002814D0A86800280DD00A22002177
:1011700002F0E4F980B22083401E022801D203204D
:101180002083218BD1A0A3E7218BD8A0A0E717E073
:10119000DCA1686802F086F900280DD0A868002854
:1011A00007D00A22002102F0C9F981B26183D7A0D9
:1011B0008EE7618BDCA08BE7E0A0FFF777FD3EBDFB
:1011C000DEA0FFF773FDE08A628B218B6B4607C3BD
:1011D000A38A2289A188E8A0FFF741FE608A0090D7
:1011E000238AE289A189F2A0FFF739FE3EBD70B5DE
:1011F0006C4D6E4C686800283DD0F6A102F052F9A3
:1012000000280AD0A868002830D00A22002102F065
:1012100095F923E0FFF723FE70BDEFA1686802F0A7
:1012200041F9002825D0A86800281FD0218CEC4A5D
:10123000914217D1EB4D2968002913D00A220021D1
:1012400002F07CF9296800B2002900DA494200283E
:1012500000DA4042E24A504302F006F981B22184AA
:10126000E1A0D7E7E6A0FFF721FD70BD218CECA03F
:10127000D0E7EFA0F7E73023E35E228D218CF7A0C3
:10128000FFF7EDFD70BD70B5464D484C686800280D
:1012900052D0D0A102F006F900280AD0A868002890
:1012A0002ED00A22002102F049F923E0FFF7D7FDF2
:1012B00070BDC9A1686802F0F5F8002823D0A868BD
:1012C00000281DD0218DC64A914217D1EA4D2968C8
:1012D000002913D00A22002102F030F9296800B257
:1012E000002900DA4942002800DA4042BC4A504353
:1012F00002F0BAF881B22185E0A0D7E7E5A018E0B6
:10130000218DECA0D2E7EFA1686802F0CBF80028AD
:101310000ED0A868002807D00A22002102F00EF99A
:10132000208601B2E8A0C1E73021615EECA0BDE7F4
:10133000EFA0FFF7BBFC70BD3023E35E228D218C54
:10134000C6A0FFF78CFD70BD10B5164C6068002874
:1013500022D0F2A102F0A6F8002805D0F1A0FFF7F4
:10136000A5FC00F0BAFD10BDF7A1606802F09AF884
:10137000002805D0F6A0FFF799FC00F0CCFD10BDC9
:10138000FBA1606802F08EF8002805D0FAA0FFF7F4
:101390008DFC01F0F4FB10BD00E20000B400002061
:1013A0002000000018000020DC360008080600209D
:1013B0006563686F00000000205365742045434852
:1013C0004F2073746174757320746F2025642E2E02
:1013D0002E0D0A00204543484F20737461747573C5
:1013E000203D2025640D0A00626175640000000044
:1013F00020736574205541525420626175642074D5
:101400006F20256C6430302C207361766520262097
:101410007265626F6F7420746F206170706C7920D8
:101420006E657720626175642E0D0A002055415269
:10143000542062617564203D20256C6430300D0AB3
:10144000000000006D656E7500000000205365749B
:101450002064656661756C74204D656E7520696EDB
:1014600064657820746F2025642E2E2E0D0A0000EE
:101470002064656661756C74204D656E7520696EBB
:101480006465782069732025640D0A00626B6C74B2
:101490000000000020536574206272696768746EF2
:1014A00065737320746F2025642E2E2E0D0A0000A4
:1014B000206272696768746E657373206973202592
:1014C000640D0A0068616C740000000020536574AC
:1014D0002068616C742074696D656F757420746F19
:1014E000202564732E2E2E0D0A0000002068616CEA
:1014F000742074696D656F75742069732025647339
:101500000D0A0000636F6D610000000020536574D8
:10151000204C4544207479706520746F2025642E1A
:101520002E2E0D0A00000000204C454420747970D6
:10153000652069732025640D0A000000696E666FDE
:10154000205B6563686F7C626175647C6D656E7538
:101550007C626B6C747C68616C747C636F6D615DC4
:10156000204F70657261746520706172616D657481
:101570006572732E0D0A000020424155443D2564DA
:101580003030204543484F3D2564204D454E553D64
:10159000256420424B4C543D25642048414C543D29
:1015A00025647320434F4D413D25640D0A00000022
:1015B000204C4F474D3D2564204954564C3D2564F1
:1015C0002052494E473D2564204155544F3D2564E6
:1015D0000D0A000061646A0063616C69000000002C
:1015E000102700007C0000202053657420554144E2
:1015F0004A20746F2025642E2E2E0D0A0000000054
:1016000020536574205541444A20746F2031303096
:1016100030302066697273742E2E2E0D0A00000081
:10162000205541444A203D2025640D0A0000000059
:1016300075736574205B61646A7C63616C695D20AD
:101640005365742F53686F7720566F6C74616765AC
:1016500020706172616D732E0D0A000020554144A7
:101660004A3D2564204941444A3D256420495A5257
:101670004F3D25640D0A000078000020205365745A
:10168000204941444A20746F2025642E2E2E0D0AD5
:101690000000000020536574204941444A20746FC3
:1016A0002031303030302066697273742E2E2E0D4A
:1016B0000A000000204941444A203D2025640D0ACB
:1016C000000000007A726F002053657420495A525E
:1016D0004F20746F2025642E2E2E0D0A000000006E
:1016E00020495A524F203D2025640D0A0000000079
:1016F00069736574205B61646A7C63616C695D20F9
:101700005365742F53686F772043757272656E74DA
:1017100020706172616D732E0D0A00006C6F616440
:1017200000000000204C6F616420706172616D6583
:10173000746572732066726F6D20454550524F4D2F
:101740002E2E2E0D0A000000736176650000000049
:10175000205361766520706172616D657465727386
:1017600020746F20454550524F4D2E2E2E0D0A00ED
:10177000726573746F72650020526573746F726561
:101780002064656661756C7420706172616D65744A
:101790006572732E2E2E0D0A0000000099A0FFF72F
:1017A00085FA10BDFEB50026A24D01960296686826
:1017B000A14C002874D0A1A101F074FE00282ED005
:1017C0000A220021A86801F0B9FEA18901F036FEC5
:1017D0000C04240C21D09BA0FFF768FA1AE0F00457
:1017E000000C082201A900F0ABFDFFF79FF9684645
:1017F000808841BA6846C08842BA6846008943BAC0
:101800006846408940BA00B2009096A0FFF727FBD7
:10181000761CB6B2A642E2D3FEBD98A06EE09DA1B2
:10182000686801F03FFE002810D0A868002807D0A3
:101830000A22002101F082FE81B2A18196A059E026
:101840009DA0FFF733FAA189A6A053E0AEA1686876
:1018500001F028FE002810D0A868002807D00A222E
:10186000002101F06BFE81B2E181A8A042E0AEA0B0
:10187000FFF71CFAE189B7A03CE0BEA1686801F05F
:1018800011FE00281BD0A86800280DD00A220021D4
:1018900001F054FEC007C00F208202D0B7A101E0C2
:1018A0002FE0B7A1B7A025E0BCA0FFF7FFF9208A81
:1018B000002801D0B1A100E0B1A1C3A01AE0C9A1E4
:1018C000686801F0EFFD002817D0A86800280CD048
:1018D0000A22002101F032FEC007C00F608201D051
:1018E000A6A100E0A6A1C1A004E0C9A0FFF7DEF90F
:1018F0001BE0D4A0FFF7B3FAFEBDDCA0FFF7D6F9DA
:10190000FEBDDAA0FFF7D2F9A18976A0FFF7A7FA0A
:10191000E18990A0FFF7A3FA208A002801D097A1BF
:1019200000E097A1A8A0FFF79AFA608A002801D0EA
:1019300092A1DEE792A1DCE70EB5DB48D84AD9498F
:101940000068126809686B4607C3D8480368D8481E
:101950000268D8480168D8A0FFF781FA0EBD10B51B
:10196000E248E14C0368E24821880288E1A0FFF7E1
:1019700076FAE64861880368E5480288E5A0FFF743
:101980006EFAEA48A1880368E9480288E9A0FFF7EF
:1019900066FAEE4800220068E1880388EC48825E1F
:1019A000ECA0FFF75CFAF148218900680388F04851
:1019B0000288F0A0FFF753FAF448008881B2F44897
:1019C0000288F4A0FFF74BFA10BDF8A0FFF76EF9FC
:1019D000BFF34F8FFD49FC48C860BFF34F8FFEE750
:1019E00070B5FB4D002420460C21484341194A683C
:1019F0002958F8A0FFF733FA641C24B2092CF2DB53
:101A000070BD0000706172616D205B6C6F61647C01
:101A1000736176657C726573746F72655D204F705B
:101A2000657261746520706172616D657465727351
:101A30002E0D0A00180000200806002064756D7045
:101A4000000000002020202020692C202074287312
:101A5000292C2055286D56292C2049286D41290D07
:101A60000A000000202535642C202535642C202513
:101A700035642C202535640D0A000000206C6F674A
:101A80002064756D70205B646563206E756D5D20EC
:101A90000D0A00006D61780020536574206C6F673B
:101AA0002064617461206C656E67746820746F20B7
:101AB00025640D0A00000000206C6F67206D6178BE
:101AC000205B646563206C656E5D20536574206CDB
:101AD0006F672064617461206C656E6774682E0D99
:101AE0000A0000002063757272656E74206C6F6767
:101AF0002064617461206C656E677468206973206E
:101B000025640D0A00000000696E7400205365749E
:101B1000206C6F6720696E74657276616C20746FDB
:101B20002025640D0A000000206C6F6720696E7428
:101B3000205B64656320696E74657276616C5D20FC
:101B4000536574206C6F6720696E74657276616C82
:101B50002E0D0A002063757272656E74206C6F67BB
:101B600020696E74657276616C2069732025640D3E
:101B70000A00000072696E67000000004F6E0000EE
:101B80004F666600205365742052696E67204D6F62
:101B9000646520746F2025730D0A0000206C6F6748
:101BA0002072696E67205B307C315D205475726EE7
:101BB000204F6E2F4F66662072696E67206D6F64CE
:101BC000652E0D0A000000002063757272656E7448
:101BD0002072696E67206D6F6465206973202573BC
:101BE0000D0A00006175746F0000000020736574B9
:101BF000206175746F207374617274206C6F67203C
:101C00006D6F646520746F2025730D0A000000005D
:101C1000206C6F67206175746F205B307C315D20B4
:101C20005475726E204F6E2F4F6666206175746F0B
:101C3000207374617274206C6F67206D6F64652E01
:101C40000D0A00002063757272656E7420617574F0
:101C50006F207374617274206C6F67206D6F6465A0
:101C60002069732025730D0A000000006C6F672047
:101C70005B64756D707C6D61787C696E747C726973
:101C80006E677C6175746F5D204F706572617465FD
:101C90002064617461206C6F67732E0D0A00000070
:101CA000500000204C000020800000207800002020
:101CB0007C0000204800002020543D256C647320E7
:101CC000553D25646D5620493D25646D4120503DAC
:101CD00025646D5720256C646D416820256C646D0A
:101CE00057680D0A00000000BC0600206C000020B0
:101CF0003E00002020636830303D25642025646D5F
:101D000056203078253038580D0A00007000002029
:101D10004000002020636830313D25642025646D3B
:101D200056203078253038580D0A00007400002005
:101D30004200002020636830323D25642025646D18
:101D400056203078253038580D0A000090370008AA
:101D50004600002020636831363D25642025644319
:101D600020494E543D25640D0A0000008C370008C0
:101D70003C00002020636831373D25642025646DD8
:101D80005620494E543D25640D0A00008400002071
:101D90003A0000202063616C693D2564205644446C
:101DA000413D25646D560D0A0000000020726562F9
:101DB0006F6F742078626F6F74207368656C6C202D
:101DC0002E2E2E200D0A00000400FA0500ED00E082
:101DD000E0360008202573202D3E202573000000EA
:101DE000F8B5154800240068008800901348017871
:101DF000CB0601880088C9050A0F410ADB0E10A036
:101E0000FFF72DF8184D194E28683168005D00095C
:101E1000085CFEF73FFF28683168005D0007000F8F
:101E2000085CFEF737FF641CE4B20C2CECD310A066
:101E3000FEF73CFFF8BD00008C000020883700084A
:101E40002055494D657465724D696E69207625642B
:101E50002E25642E256420466C6173683A25646BD8
:101E600020534E3A0000000088000020300000207F
:101E70000D0A204543484F2053747564696F203C18
:101E80006563686F2E786A747540676D61696C2E42
:101E9000636F6D3E2E20416C6C20526967687473CD
:101EA0002052657365727665642E200D0A0000006D
:101EB00010B500203849394BFF242402C201D21842
:101EC0001288A24202D10880012010BD401C80B2BD
:101ED0000828F3D30020088010BD70B52E482F4B82
:101EE00001782F4C4907490F01800020C9014200A9
:101EF0008D18ED186D88401C80B2A5523F28F6D38E
:101F00003F21274800F015F9002801D0002070BDBE
:101F10000020C04370BDF8B51F4C00252078214F2C
:101F20004007400F2080FEF7C0FA20881B4EC001FA
:101F300080190021FEF704FB2078401C4007400F69
:101F40002080C00180190188B94203D0FEF7DEFA73
:101F5000002020802088FF21C00180190902FEF79F
:101F6000EFFA3E210E4800F0E4F80D490C4F4031E5
:101F7000888720886900C00142180848795A801C67
:101F80001018FEF7DDFA6D1CADB206463F2DF0D3FA
:101F9000FEF794FA3046F8BD2C000020003C000803
:101FA00008060020FFFF0000020B0A700205120F56
:101FB0004A700206120F00078A70000FC8700020D6
:101FC0000871704770B50C467D210546C90001F0C7
:101FD0004BFA0A2101F048FA21706421284601F0E9
:101FE00043FA0A2101F040FA61700A21284601F003
:101FF0003BFA0D460A2101F037FAA170E570002086
:10200000207170BD70B50C46050002D54542012017
:1020100000E0002020715A487D26F600854202DA51
:102020002079082114E05748854207DA0A2128461A
:1020300001F01AFA05462079042109E05248854248
:1020400009DA6421284601F00FFA054620790221B9
:102050000843207107E04D48854204DA314628469E
:1020600001F002FA05463146284601F0FDF90A2141
:1020700001F0FAF921706421284601F0F5F90A21EE
:1020800001F0F2F961700A21284601F0EDF90D46E0
:102090000A2101F0E9F9A170E57070BD70B50C4638
:1020A000050002D54542012000E00020E0703448E0
:1020B000854207DA0A21284601F0D6F90546E0787C
:1020C000042109E02F48854209DA6421284601F0FD
:1020D000CBF90546E07802210843E07008E02A4881
:1020E000854205DA7D21C900284601F0BDF9054683
:1020F0006421284601F0B8F90A2101F0B5F92170F0
:102100000A21284601F0B0F90D460A2101F0ACF988
:102110006170A57070BD0178002909D1132101708B
:102120004278002A04D141708278002A00D181705F
:10213000704770B5064600221548164D0FE0530053
:10214000F35A58400023C407E40F4008002C00D085
:1021500068405B1C9BB2082BF5D3521C92B28A429A
:10216000EDD370BD01B569460888800008800888F5
:10217000001D08806A461088411E1180FAD208BDF1
:1021800010270000A086010040420F0080969800B2
:10219000FFFF000001A0000010B59A4C022120466C
:1021A000FEF757F90120FFF7DDFF01212046FEF77A
:1021B00050F90520FFF7D6FF02212046FEF74BF924
:1021C0000520FFF7CFFF01212046FEF744F902204A
:1021D000FFF7C8FF10BD10B58A4C02212046FEF75C
:1021E0003AF90120FFF7BEFF01212046FEF731F941
:1021F0000520FFF7B7FF02212046FEF72AF9042049
:10220000FFF7B0FF10BD70B57E4E0546002428468E
:10221000A0400006C20F02213046FEF71EF9012041
:10222000FFF7A0FF01213046FEF713F90520FFF765
:1022300099FF01213046FEF70EF9641CE4B2082C28
:10224000E5D30220FFF78EFF02213046FEF701F9A9
:102250000220FFF787FF01213046FEF7FAF803203E
:10226000FFF780FF02213046FEF7ECF8044601211B
:102270003046FEF7F0F80220FFF774FF204670BDED
:1022800070B5604E002402213046FEF7E2F80025CA
:102290000120FFF767FF01213046FEF7DCF805203B
:1022A000FFF760FF01213046FEF7D3F80320FFF768
:1022B00059FF02213046FEF7C5F861060C0EC00733
:1022C00001D0641CE4B20220FFF74CFF6D1CEDB29C
:1022D000082DDDD301213046FEF7BDF80220FFF7BF
:1022E00041FF204670BD70B50D460646402A01D913
:1022F000402202E0002A00D101221446FFF74CFFE1
:10230000A020FFF780FF002810D1300AFFF77BFFE5
:1023100000280BD1F0B2FFF776FF002806D109E0C4
:1023200028786D1CFFF76FFF002801D0022070BDD8
:10233000641EE4B2002CF3D1FFF74DFF002070BD06
:10234000F8B500250E460746402A01D9402202E092
:10235000002A00D101221446FFF71EFFA020FFF73C
:1023600052FF002810D1380AFFF74DFF00280BD18B
:10237000F8B2FFF748FF002806D1FFF70DFFA120B4
:10238000FFF741FF002801D00220F8BD1D4F641E59
:1023900019E0FFF775FF705502213846FEF75BF82C
:1023A0000320FFF7DFFE01213846FEF752F8052033
:1023B000FFF7D8FE01213846FEF74DF80220FFF75F
:1023C000D1FE6D1CEDB2A542E3DBFFF759FF70555E
:1023D00002213846FEF73DF80320FFF7C3FE012136
:1023E0003846FEF736F80520FFF7BCFE01213846D7
:1023F000FEF731F80220FFF7B5FEFFF7ECFE0020F4
:10240000F8BD000000140048074A00218B00D35893
:10241000834202D1880010587047491C89B20C29A8
:10242000F4D3E120400270475837000870B5FE48E9
:102430000924408BE406FD4D002810D040212046A1
:10244000FEF709F802212846FEF705F8102120467C
:10245000FEF701F808212046FDF7FDFF70BD402181
:102460002046FDF7F6FF02212846FDF7F2FF102176
:102470002046FDF7EEFF08212046FDF7EAFF70BD7C
:1024800070B5EB480179C078C907C90F00F073FE39
:10249000E5480924408BE406E44D002810D0402193
:1024A0002046FDF7D8FF02212846FDF7D4FF102172
:1024B0002046FDF7D0FF08212046FDF7CAFF70BD7A
:1024C00040212046FDF7C5FF02212846FDF7C1FF48
:1024D00010212046FDF7BDFF08212046FDF7BBFF78
:1024E00070BD70B5D248022201798078114000F0A9
:1024F00042FECD480924408BE406CC4D002810D084
:1025000040212046FDF7A7FF02212846FDF7A3FF43
:1025100010212046FDF79DFF08212046FDF79BFF77
:1025200070BD40212046FDF794FF02212846FDF7AB
:1025300090FF10212046FDF78EFF08212046FDF771
:1025400088FF70BD70B5BA48042201794078114007
:1025500000F011FEB4480924408BE406B34D002876
:1025600010D040212046FDF776FF02212846FDF7D6
:1025700070FF10212046FDF76EFF08212046FDF771
:102580006AFF70BD40212046FDF763FF0221284607
:10259000FDF761FF10212046FDF75BFF0821204673
:1025A000FDF757FF70BD70B5A1480822017900788A
:1025B000114000F0E0FD9C480924408BE4069B4D4F
:1025C000002810D040212046FDF743FF0221284675
:1025D000FDF741FF10212046FDF73DFF0821204671
:1025E000FDF739FF70BD40212046FDF734FF022181
:1025F0002846FDF72EFF10212046FDF72AFF08216F
:102600002046FDF726FF70BD87488A4A807D8107F6
:102610005078890F401C0007000F5070042802D228
:10262000884210D8BFE7082803D2001F88420ADC7E
:1026300088E70C2803D20838884204DC51E70C38BC
:10264000884200DC1CE7F1E670B57A4C206B401C38
:1026500020637D21C900206B00F0F0FE2546343553
:10266000714A2868022904D0032913D0052921D0F2
:102670004AE06169491C6161A16A491C44D1A18891
:10268000491C89B2A180D2898A423DD80021A1800B
:1026900010210CE06188491C89B26180128B002AEC
:1026A00032D08A4230D221780A292DD040210843E5
:1026B000286029E0606C002800DC40425E49484305
:1026C000092100F0D1FE216A46182662E06C00283C
:1026D00000DC404258494843092100F0C5FE616AC8
:1026E000564B401860625942A26901E0F618521C2C
:1026F0008E42FBDC2662A261E26901E0C018521C36
:102700008842FBDCE26160620A21206B00F096FEE9
:10271000072903D128680821084328606421206B19
:1027200000F08CFE0B2903D12868012108432860A2
:1027300070BDF8B5424E00203346323B8200404C1B
:1027400041003E3C9D58645A2C199C50755C6D1C90
:102750002D062D0E75520FD1394F25022D0C0A3F33
:102760007D52394614398C50002199503149022448
:1027700034310A6822430A60401CC0B20528DDD308
:10278000FFF762FFFFF740FFF8BDFEB52948343080
:1027900001688A0776D502229143016028482A49B8
:1027A0000A3800890090274800680088484300994B
:1027B00000F044FE1F4C224E85B2E5801E3E30687C
:1027C000194F6843000B0102090CA0636181716815
:1027D0006943090B0A02E163081A120CA281302135
:1027E0008000795E0012411A388D4843174900F085
:1027F0003BFE60640190B0686843000B0102090C65
:102800002064E1810B214843010A388C48430F4979
:1028100000F02AFEA064019948437D21C90000F020
:1028200023FEE064304613E0080600200004004860
:102830009000002034000020C4090000C0BDF0FF5B
:10284000C60600208C370008E40C000010270000AA
:102850001430C08868430001000C2082FE49FF4A02
:10286000096809885143090B081A7D21C9004843AA
:10287000FB4900F0F9FD1E306082009868430001BA
:10288000000C2081FEBDF8B5F64801680A0723D583
:1028900008229143016000F03CFCF24900223439E7
:1028A000002800D04A800F7803250226EE4C3B001A
:1028B00000F0F3FE0D081527344059616159647A20
:1028C00095951200032866D0042806D0052878D0F4
:1028D000062801D105200870F8BD0820FBE7032871
:1028E00007D0042809D0052805D00628F4D10A20ED
:1028F000F1E70A70F8BD0E70F8BD4A618A61CA61DD
:10290000F8BD03285DD0042806D0052802D006288B
:10291000F6D1E0E70D70F8BD0720DCE70328EAD028
:10292000042805D0052836D00628F4D10C20D2E79B
:102930000B20D0E70328EDD0042805D00528D8D0F7
:102940000628E8D10920C6E7886A002801D08A62F3
:10295000F8BD0020C043CA628862F8BD0428FCD0DC
:102960000528FAD1C5E70328F8D1C2E70428F4D036
:102970000528F2D1BFE70328F8D1BCE703280CD023
:10298000042808D005280BD00628E6D1B548202316
:1029900002681A43026004209DE7E089401E01E0BE
:1029A000E089401CE081F8BD03280CD0042808D041
:1029B00005280BD00628F6D1AA48202302681A431E
:1029C0000260012087E7208B401E01E0208B401C25
:1029D0002083F8BD0428FCD00528FAD19AE7032803
:1029E000F8D197E7F8B59F4A1068C1071FD046088D
:1029F000760010463438166007789C499C4D9A4CF6
:102A00003B0000F04AFE0D080B1A1D2432343A3DFB
:102A1000272D424D14009549806C33E04069A8424F
:102A200006D29249FFF7CEFA9048FFF774FBF8BD43
:102A300080B218E0FFF7B8FAF8BD8C49406C21E08D
:102A400011220A70C06C491CFFF728FBF8BD8749AA
:102A5000C06AE7E7E08904E08449FFF7B3FAF8BD0C
:102A6000208BA842F8D38149E4E7208C00E0208D38
:102A70000A2100F0E3FC7D4904E07C49806901E023
:102A80007A49C069FFF7BEFAF8BD13200870487094
:102A90008870C87000200871402006431660F8BD99
:102AA00072497448C6E71CB500206E490090019039
:102AB0000A68D30627D510239A430A60694C6A49ED
:102AC000343C8A89E36A9A4203D8098A00291BD0D8
:102AD000E062A18D68460A0A02704170A28A130A58
:102AE0008370C270A26C131203714271626C131274
:102AF0008371C271C804000C08226946FFF7F3FB1A
:102B0000E06A401CE0621CBDA0621CBD10B55548C7
:102B100001688A0604D5202291430160FFF7FBF982
:102B200010BD10B54F4801684A0617D540229143A1
:102B3000016001210807FDF71EFC4F4C2046FDF700
:102B40001FFF00212046FDF7E0FE00F05BF90120A9
:102B500000F04AF901210846FEF739F810BD10B51A
:102B6000414C0D21A08A00F069FC3E4834380170C8
:102B7000618A002902D00021C943816210BD3A4810
:102B80003E4901800921C9018180012101814181E2
:102B90000A038281C1810021018241828182C18236
:102BA00001834183324A0284818402850186704711
:102BB00000F066F800F094FB00F0B1F8294900201D
:102BC0000860FFF775F9FFF788F90126B6030924B5
:102BD0007510E40600280BD031462046FDF732FC84
:102BE000002809D129462046FDF72CFC002803D1F6
:102BF000FFF7C5FFFFF78FF9FFF7B1FF314620461A
:102C0000FDF720FC002809D129462046FDF71AFCD3
:102C1000012803D109201449C001888000F021F95E
:102C200000F03EF900F0DEF900F05FF800F0ABF9DB
:102C3000FFF7D6F8FFF7A9FDFFF725FEFEF7E4F949
:102C4000FFF7D0FEFFF72FFFFFF760FFFFF769FFE9
:102C50000120FDF7AFFFEDE790370008E40C00001E
:102C6000CC10000068000020080600209000002022
:102C700010270000342100000024014088130000C8
:102C800010B5FDF721FA0120FDF75CFA0120FDF7F0
:102C900041FA0028FAD00020FDF76AFAFDF76FFA32
:102CA0000028FBD10120FDF7F6FB0020FDF7ECFB2F
:102CB0000020FDF769FA0020FDF76DFA0020FDF70E
:102CC0004CFA0020FDF76FFAFA48FDF77FFA012170
:102CD000F948FDF73EFB01210807FDF74CFB2D20CD
:102CE00001214002FDF73EFB10BD38B507216846C3
:102CF00001700321417001248470FDF7EDFC1B215C
:102D000068460170022141708470FDF7E5FC0921DD
:102D10006846017044708470FDF7DEFC38BDFEB576
:102D20000720009003266846067109206946C00600
:102D3000FDF750FB5820009000246846447101259F
:102D40000571847109206946C006FDF743FBA02088
:102D50000090022768460771467184710920694610
:102D6000C006FDF737FB092000220521C006FDF74C
:102D70007AFB092000220721C006FDF774FB7002D0
:102D800000906846077144718471C57109206946D5
:102D9000C006FDF71FFB09210122C806FDF763FBF2
:102DA000092001220A21C006FDF75DFB7003009097
:102DB000684644710471C57109206946C006FDF773
:102DC00009FB684600974471057184716946BB48E8
:102DD000FDF700FB684600964571057185716946EF
:102DE000B748FDF7F7FAFEBD1CB50921890200912D
:102DF000002269460A7108224A7188716846FDF707
:102E000005FF1CBD7CB5FF20009009250324694601
:102E1000ED060C712846FDF7DDFA022000906946A8
:102E2000A648FDF7D7FA33204002009000206946FB
:102E300008710120C8712846FDF7CCFA6946A04800
:102E40000094FDF7C7FA7CBD10B59E4C01462046A4
:102E5000FDF7F3FB80212046FDF70CFC0128F9D19A
:102E600010BD10B586B06846FDF7D2FB96486421C8
:102E700080884843FFF7C8FA924C00906946204684
:102E8000FDF77CFB012291492046FDF7DEFB012185
:102E90002046FDF7C8FB8F498D48086006B010BD7D
:102EA000F0B58D4F91B03846FDF79AFD8B480690EE
:102EB0008B4807900520099080200B90400000244B
:102EC00086000C9020200E900A94000208940F9027
:102ED0000D9606A910943846FDF7DBFD012202216C
:102EE0003846FDF7FCFD7D4D403D2846FDF7ECFCE6
:102EF0006846009404710394049469462846029637
:102F00000594FDF7EFFC072201212846FDF71CFD83
:102F1000072202212846FDF717FD07220421284633
:102F2000FDF712FD0722B1012846FDF70DFD07222E
:102F3000F1012846FDF708FD0120FDF7EFFC012017
:102F4000FDF7F7FC02212846FDF72EFD2846FDF788
:102F500000FD6449086001213846FDF7B6FD0121F6
:102F60002846FDF717FD01212846FDF7CEFC5E4CF3
:102F700028462146FDF720FD0028F9D02846FDF718
:102F800004FD11B0F0BD70B5584D88B02846FDF76E
:102F9000CBFB002469468C827D20CC828001069088
:102FA0008C838C7705A92846FDF714FC70206946B0
:102FB000088001264E80042088807D2040010290F8
:102FC00002208881CC81C00108824C822846FDF70E
:102FD0002DFC20212846FDF75DFC28883043288001
:102FE00008B070BD10B586B000206946FF22088089
:102FF00005324A80072212028A800222CA800122F8
:103000000A8152024A8108228A81C8810720384CED
:1030100008822046FDF792FD01212046FDF7B3FD11
:103020003CE770B5324C054602212046FDF7B6FD5F
:103030000028F9D029462046FDF7AEFDFF2070BDDF
:103040002C4900208A78642A01D3022002E00A2A4F
:1030500000D3012000228A70704710B50121092099
:1030600000244903C006FDF7EDF9224900284878FD
:1030700008D0642801D3022402E00A2800D30124E6
:10308000002004E0421C4A70642801D36420487088
:10309000204610BD10B50121092000248903C00677
:1030A000FDF7D0F91349002808782AD0642823D3E3
:1030B000022424E003000010010046000004004840
:1030C00000140048003801400806002005010500F2
:1030D000492E000810000020080002404024014052
:1030E000880600208400002001000001002C01401F
:1030F00000300140950000200A2800D30124002060
:1031000004E0421C0A70642801D364200870204641
:1031100010BD10B5FFF7BEFF0446FFF79EFF034644
:10312000FFF78EFF012C04D0002C09D0022C0ED00A
:1031300011E0002B02D0012B17D00CE0032010BDB2
:10314000012B02D0022B0ED005E0052010BD002B74
:1031500007D0022B0BD001280BD0022809D0002069
:1031600010BD042010BD062010BD072010BD082092
:1031700010BD092010BD10B50C46152100F05EF9F8
:103180000948405C0949498B002906D0FF21081AEB
:10319000002C06D04006400E03E0002C01D0802118
:1031A0000843FFF73EFF10BD9437000808060020D3
:1031B0007047FEE77047704770B52C4D2C4C294680
:1031C0002046FDF75EFA00280DD02046FDF739FABB
:1031D000C1B22848FDF750FE274900200880294643
:1031E0002046FDF76AFA70BD10B50220FDF77FFC9E
:1031F000002804D0FFF79DFA0220FDF786FC10BDE1
:10320000F8B50124A4022046FDF736FDE5000028AC
:1032100004D12846FDF730FD002825D0174818496D
:10322000007D0870144900200880FFF7DDFDFFF7DE
:1032300076FD144E01213046FDF767FB124F3046F4
:103240003946FDF7B9FB0028F9D03046FDF79DFB64
:103250002046FDF719FD2046FDF70BFD2846FDF73A
:1032600013FD2846FDF705FDF8BD0000050105002A
:1032700000380140B400002036000020080600207D
:1032800034000020002401400100000110B54E4828
:10329000016801221143016041684C4A11404160BC
:1032A00001684B4A11400160016801229204914378
:1032B000016041683F22120491434160C16A0909DB
:1032C0000901C162016BFF22543291430163416BDA
:1032D0004908490041630021816000F02EF810BDCB
:1032E00070B5394D69680C2001403A483A4C03D01A
:1032F000042901D0082901D0206014E06A686968B7
:1033000003239202DB03160F1940B61C002907D0D5
:10331000E96A0907090F491C00F090F87043EBE7D0
:103320002E484643266068682B490006000F091D99
:10333000085C2168C140216070BD1CB50021224895
:1033400001910091026801231B041A4302605B0093
:103350000522120304681C400094019C641C019423
:10336000009C002C02D1019C9442F3D1026892038C
:1033700028D5012100911A4A11211160416841604C
:103380004168416041687F22D203914341604168B6
:1033900011221204114341600168012212061143F7
:1033A000016001688901FCD5416889088900416094
:1033B000416802221143416041680907890F0229CF
:1033C000FAD11CBD00911CBD001002400CB8FF08D2
:1033D000FFFFF6FE00127A009800002000093D0071
:1033E000002002400C4880F308880C480168090E50
:1033F0000B4A914205D10B480B4901600B480C491F
:1034000001600C4880470C480047FEE7FEE7FEE7F6
:10341000FEE7FEE7FEE70000D00A002004000000FF
:103420001F000000181002400100000000000140D1
:10343000000000008D320008B500000830B50B46D2
:10344000014600202022012409E00D46D5409D427E
:1034500005D31D469540491B254695404019154604
:10346000521E002DF1DC30BD70B500242546002829
:1034700001DA01244042002901DA01254942FFF71F
:10348000DDFFAC4200D04042002C00D0494270BD6C
:10349000004870472C38000801464139192900D8E6
:1034A0002030704730B505462A460B4610781C7808
:1034B000521C5B1C002801D0A042F7D0002C03D086
:1034C000002802D06D1CEFE7284630BD10B5044639
:1034D00005E00B780370401C002B00D0491C521EE5
:1034E000F7D2204610BD421C0178401C0029FBD1B8
:1034F000801A704770B5104D002800D1286800244C
:1035000014E00A4602E09E4203D0521C1378002BBE
:10351000F9D1DAB2224307D0002B06D0002C04D018
:1035200000210170401C04E00446401C0678002E77
:10353000E7D12860204670BDAC000020F7B582B00E
:103540000F460026029C00F0B5F80090006801903C
:103550002578641C002D05D0FFF79AFF0068405DB8
:10356000C007F5D12B2D02D02D2D1CD0641E009844
:103570000021016039462046049A00F01AF80146FD
:10358000002F04D03868A04201D10298386000981A
:10359000006802280BD00098019A0260700506D5D9
:1035A000484205B0F0BD012080020643DFE708462F
:1035B000F7E7F7B582B0029C00272078641C154617
:1035C0000197302802D0002D15D015E02078012772
:1035D000641C782804D0582802D0002D09D00BE0B4
:1035E000002D01D0102D07D1002710252078641C54
:1035F00002E0082500E00A250026009610E0009968
:10360000012769430818020C294680B271430090D3
:103610008E183804864201D3012001902078641C62
:10362000294600F02BF80028E9DA0398002805D095
:10363000002F01D0641E00E0029C04600198002865
:1036400006D000F037F802210160C81E05B0F0BDB9
:10365000009930040843F9E7064C0125064E05E0C1
:10366000E36807CC2B430C3C98471034B442F7D3A3
:10367000FCF724FD043A0008243A00083A2800D256
:103680003038202302469A43412A01D31046373866
:10369000884201D30020C043704730B47446641E92
:1036A0002578641CAB4200D21D46635D5B00E318C5
:1036B00030BC184700487047B000002002E008C83E
:1036C000121F08C1002AFAD170477047002001E09C
:1036D00001C1121F002AFBD1704700000A00000040
:1036E000B03900085038000839190008AC39000812
:1036F000AC380008A5170008C83900083C39000894
:10370000A1100008E0390008E0380008EF110008B7
:10371000D83900080C39000887120008B8390008A9
:103720007439000849130008E8390008783800089F
:10373000CB190008D03900089C380008E1190008AE
:10374000C039000830380008E11D0008A43900081D
:103750008C3800085F19000800100E0000080700F0
:103760000084030000C2010000E100000096000098
:10377000004B000080250000C0120000600900001E
:10378000B00400002C01000034210000BAF7FF1F34
:10379000B8F7FF1F3F065B4F666D7D077F6F777C35
:1037A000395E797180733E004000404040404040A7
:1037B0004040404141414141404040404040404004
:1037C000404040404040404040400502020202026A
:1037D0000202020202020202020220202020202015
:1037E000202020200202020202020290909090907B
:1037F0009010101010101010101010101010101049
:1038000010101010100202020202028888888888B4
:1038100088080808080808080808080808080808A8
:10382000080808080802020202400000AA3700083F
:10383000646973706C61792053572076657273697F
:103840006F6E20616E6420534E2E0D0A0000000042
:1038500067657420766F6C7461676520637572723A
:10386000656E7420616E6420706F77657220657478
:10387000632E0D0A0000000052657374617274209B
:1038800073797374656D2E0D0A00000067657420EE
:10389000414420496E666F2E0D0A000068656C7009
:1038A00020496E666F2E0D0A000000006C6F6720C5
:1038B0005B64756D707C6D61787C696E747C726917
:1038C0006E677C6175746F5D204F706572617465A1
:1038D0002064617461206C6F67732E0D0A00000014
:1038E00075736574205B61646A7C63616C695D20DB
:1038F0005365742F53686F7720566F6C74616765DA
:1039000020706172616D732E0D0A00006973657419
:10391000205B61646A7C63616C697C7A726F5D2094
:103920005365742F53686F772043757272656E7498
:1039300020706172616D732E0D0A0000696E666FF2
:10394000205B6563686F7C626175647C6D656E7514
:103950007C626B6C747C68616C747C636F6D615DA0
:10396000205365742F53686F7720706172616D7397
:103970002E0D0A00706172616D205B6C6F61647C5A
:10398000736176657C726573746F72655D204F70CC
:10399000657261746520706172616D6574657273C2
:1039A0002E0D0A0067657461640000006C6F67008B
:1039B0006765747569000000706172616D000000D8
:1039C00076657273696F6E00696E666F0000000045
:1039D00068656C7000000000697365740000000089
:1039E00075736574000000007265626F6F7400008B
:1039F0003031323334353637383941424344454625
:103A000000000000243A000800000020B40000007C
:103A1000BC360008D83A0008B40000201C0A000098
:103A2000CC36000800000000010203040102030478
:103A30000607080900000000000000000000000068
:103A40000000000000000000000000000000000076
:103A500000000000F0390008000000000000000035
:103A60000000000000000000000000000000000056
:103A70000000000000000000000000000000000046
:103A80000000000000000000000000000000000036
:103A90000000000000000000000000000000000026
:103AA000000000000000000000000000ACF7FF1F55
:103AB000CCF7FF1F0000000000000000006CDC02DB
:103AC00000000000000000000102030406070809CE
:083AD0000000000000000000EE
:04000005080000B53A
:00000001FF
