:020000040800F2
:10200000C80B0020855B000851590008535900088F
:1020100000000000000000000000000000000000C0
:1020200000000000000000000000000055590008FA
:10203000000000000000000057590008595900082E
:10204000B55B000800000000B55B0008B55B000848
:10205000B55B0008B55B0008B55B0008A359000834
:10206000000000008B590008B55B0008B55B000854
:10207000B55B0008B55B0008B55B00080000000018
:10208000B55B00080000000000000000B55B000820
:10209000B55B0008B55B0008B55B0008B55B0008E0
:1020A000B55B0008B55B0008B55B00085B5900082C
:1020B000B55B00080348854603F09EFE00480047D4
:1020C00037530008C80B0020B848016801221143AB
:1020D00001604168B64A114041600168B54A11404B
:1020E00001600168012292049143016041683F222E
:1020F000120491434160C16A09090901C162016B7F
:10210000AD4A11400163416B490849004163002118
:102110008160704703460020A4495A090CD0012A67
:102120000CD0022A0CD0496BDA06D20E0123934060
:102130000B4200D0012070470968F5E7096AF3E710
:10214000496AF1E799490028086802D00122104342
:1021500001E04008400008607047012293491206E0
:102160000028086801D0104300E0904308607047E1
:102170008E4A5168890889000143516070478B4835
:1021800040680C2108407047884A5168F023994301
:10219000014351607047854A516807231B029943E8
:1021A00001435160704781494A6801239B039A4368
:1021B0004A604A6883B21A434A600A6B8B159A4395
:1021C0000A630A6B000C02430A637047020F7749E7
:1021D000012A0AD0022A0A6B0BD003239B049A43DC
:1021E0000A630A6B02430A6370470A6B9208920003
:1021F000F6E703231B04F2E7F8B56C4D0446686864
:1022000000210C226D4E104005D0042803D0082870
:1022100003D00C281AD026601AE069686868032287
:102220008902D2030F0F1040BF1C00280AD0E86AB1
:102230000107090F3046491C03F0D0FC78430146E2
:10224000216005E05E4839464143F9E75D4820607A
:1022500068685D4F0006000F3B5C20680246DA406C
:1022600062606B685B055B0FFB5CDA40A2602B6B06
:10227000DB0501D4554B05E06B685B0401D45308C2
:1022800000E09308E3602B6B5F06514B03D4504F83
:102290001237276100E023612F6BFF0601D46661CE
:1022A00000E060612F6BBF070ED02F6BBF07BF0F21
:1022B000012F0BD02F6BBF07BF0F022F08D02F6B42
:1022C000FF43BF0706D006E0A26104E0A06102E080
:1022D000A36100E0A6612F6BBF03BF0F0FD02F6B70
:1022E000BF03BF0F012F0CD02F6BBF03BF0F022FF7
:1022F00009D02F6BBF03BF0F032F06D006E0E261AA
:1023000004E0E06102E0E36100E0E6612F6B3F037F
:10231000BF0F0FD02A6B1203920F012A0CD0286B2B
:102320000003800F022809D0286B0003800F0328C8
:1023300006D006E0226204E0206202E0236200E0B0
:102340002662286B000602D41E486062F8BD6162F6
:10235000F8BD164A0029516901D0014300E08143CC
:1023600051617047114A0029916901D0014300E091
:102370008143916170470D4A0029D16901D0014321
:1023800000E08143D1617047084A0029D16801D03B
:10239000014300E08143D1607047044A002911697C
:1023A00001D0014300E081431161704700100240F9
:1023B0000CB8FF08FFFFF6FEACFEF0FF00127A003B
:1023C00000093D00006CDC0200010020809FD50068
:1023D00000800000F0B50022012423460D689340E0
:1023E0001D409D422AD10D79012D01D0022D12D11F
:1023F000876855000326AE40B74387604E79AE40EC
:1024000085682E43866085889D43858085888B7985
:1024100093401D438580066855000323AB409E43CF
:1024200006600E790768AE403E430660C6689E436C
:10243000C660CB79AB40C5682B43C360521C102AE1
:10244000CBD3F0BD0246128A00200A4200D0012000
:1024500070478161704701857047002A01D0816112
:102460007047018570474B07DB0E9A40C90810B5CD
:1024700089000818016A0F249C40A1430162016A87
:102480001143016210BD00005D4A1168490849000E
:102490000143116070475A4910220028086801D092
:1024A000104300E0904308607047554801690906F1
:1024B00003D554494160544941607047504801690F
:1024C00080221143016170474D490420CA68D20738
:1024D00001D001207047CA68D20601D5022070479A
:1024E000C9684907FBD50320704700B50346FFF7CD
:1024F000EBFF02E0FFF7E8FF5B1E012803D0002B93
:1025000000D1052000BD002BF4D1FAE7F0B50B2770
:1025100006463F043846FFF7E8FF04280FD1384C41
:102520002069022528432061666120694021084313
:1025300020613846FFF7D9FF2169A9432161F0BD29
:10254000F0B50B2706463F040D463846FFF7CDFF92
:1025500004280CD12A4C20690121084320613580D0
:102560003846FFF7C2FF2169490849002161F0BDE3
:1025700023480169890503D4224981602249816089
:1025800070471F48016942159143016170471C481B
:10259000016901225203114301617047184900206B
:1025A000C9694907890F00D001207047F0B50B2693
:1025B000074636043046FFF798FF04281ED1104C1A
:1025C000206920252843206120694021084320619B
:1025D0003046FFF78AFF04280BD12069A843206109
:1025E0002069102528432061084807803046FFF7FE
:1025F0007CFF052802D02169A9432161F0BD0000BC
:102600000020024023016745AB89EFCD00F8FF1F92
:1026100030B5044600688BB00D464008400020608D
:102620006068032109038843A96801436160206849
:102630004949EA680840696811432A69024311431D
:102640002160A06803210902884369690143A160F0
:102650006846FFF7D1FD4148844201D106980AE05F
:102660003F48844201D1079805E03E48844201D1A9
:10267000089800E0029821680904296800D5400004
:1026800003F0ACFA2A6852088A4200D8401C21683C
:10269000090404D50107344A490F10400843A081BA
:1026A0000BB030BD4B21C901016000214160816048
:1026B0000C22C1600261416170470029016802D0AB
:1026C0000122114301E04908490001607047C90532
:1026D000C90D01857047808CC005C00D704710B5CD
:1026E0000B041C0E01238B40022C02D0032C02D0C1
:1026F00002E0001D00E008300168002A01D0194303
:1027000000E09943016010BD0246D26900200A42F0
:1027100000D00120704730B50A04130E0122144680
:1027200000258C40012B0ED0022B0ED08368090CA3
:102730002340C0698A401040002B02D0002800D0FE
:102740000125284630BD0368F1E74368EFE70A0C2E
:102750000121914001627047F3E9FFFF0038014019
:102760000044004000480040F0FF000030B583788E
:1027700001210278002B15D094080E4BA400E41818
:1027800023689207D50EFF22AA409343427892070E
:10279000120EAA401A4322600078C006C00E814083
:1027A000054804E0D006C00E814003488030016037
:1027B00030BD000000E400E000E100E05E4910B53B
:1027C000884202D10121C4143AE0012189078842DC
:1027D00006D101210846FFF7E0FD0021012008E0B5
:1027E0005649884208D101210220FFF7D6FD002179
:1027F0000220FFF7D2FD10BD5149884206D10121C8
:102800001020FFF7CAFD00211020F2E74D49884251
:1028100006D101212020FFF7C0FD00212020E8E79C
:102820004949884207D1841501212046FFF7B5FDAB
:1028300000212046DDE74549884209D101210C04E9
:102840002046FFF7A1FD00212046FFF79DFD10BDAA
:102850003F49884202D101214C04F1E73D498842B9
:10286000F5D101218C04EBE710B50288324B984278
:1028700006D00124A407A04202D0304CA04203D1CC
:102880007024A2434C8822432D4CA04203D0324CEA
:1028900022400C89224302804A68C2620A8802856B
:1028A000984208D0294A904205D0294A904202D045
:1028B000284A904201D1897A01860121818210BD86
:1028C00030B5028C520852000284038C8288048B3B
:1028D0007025AC43A4080D88A40025430224A3431B
:1028E0008C891C434B882343134CA04208D0174CBF
:1028F000A04205D0164CA04202D0164CA0420DD1E9
:102900000824A343CC891C4304239C438B88234382
:10291000114C22400C8A14434A8A22438280058348
:1029200089684163038430BD828870239A43828022
:1029300082880A4382807047002C014000040040D6
:102940000010004000140040002000400040014002
:102950000044014000480140FFFC0000424910B51E
:10296000884208D1441501212046FFF70DFD0021C2
:102970002046FFF709FD10BD30B5C3683B4A8C689F
:1029800013400A680D792243CC686D032C4322431F
:102990000C69496922430A431A43C26030BD0029C9
:1029A000816801D0012200E002221143816070475A
:1029B00001222F49D2050028886801D0104300E089
:1029C0009043886070470122294992050028886851
:1029D00001D0104300E0904388607047836A0B4346
:1029E000836242617047826800210123DB071A433A
:1029F00082600F231B038268491CD20FD2079942C1
:102A000001D0002AF7D18168002901DB006C7047F2
:102A100000207047816810221143816070478168EF
:102A200004221143816070470029C16802D001224D
:102A3000114301E049084900C1607047C2680223A0
:102A40009A43C260C2680A43C260704702460020CF
:102A5000CB0104D5926801231B069A4300E012685B
:102A60000A4200D0012070470024014003D2FFFF3A
:102A700000270140F0B501684D4A11400160002176
:102A8000016041608160C1604A494A4B08390F22A8
:102A9000984201D1486823E0464CF0231434A04208
:102AA00029D0444D1C012835A8422BD0414E1D028F
:102AB0003C36B0422DD03F4F1E035037B8422FD086
:102AC0003C4F6437B84204D148681A0408E04860B3
:102AD000F0BD384F7837B84204D148680F2212064B
:102AE0001043F4E73449344F0839B842D2D0324A5F
:102AF0001432904202D148681843E8E72E4A28323F
:102B0000904202D148682043E1E72B4A3C32904290
:102B100002D148682843DAE7274A50329042D7D199
:102B200048683043D3E730B50368244A0C6A134041
:102B30008A684D6922430C692C4322438C692243E5
:102B4000CC6922434C6A22438C6A22431A430260B6
:102B5000CA6842600A6882604968C16030BD002965
:102B6000016802D00122114301E0114A11400160C5
:102B70007047002A026801D00A4300E08A430260DD
:102B8000704701460020CA0002D50B4A083A01E00E
:102B9000084A083A12680A4200D001207047C10072
:102BA00002D50549083901E00249083948607047F3
:102BB000FEFF000008000240080402400F80FFFFF3
:102BC0000249014808607047AAAA0000003000408E
:102BD00030B50388C122920113400A88CC890D893F
:102BE0002243CC882C4322434C8922438C892243A4
:102BF0001A4302808288124B1A408B8813438380C9
:102C00000A8A02820288042349889A431143018078
:102C1000818B0C4A1140818330BD402200290188FC
:102C200001D0114300E09143018070470173704768
:102C30000246128900200A4200D00120704700009D
:102C4000FFF00000FFF7000013490A6904239A43CC
:102C50000A61012803D040BF20BF20BF704730BFAA
:102C600070470E4B1A689208920002431A600A4895
:102C70000369042213430361012906D0022906D007
:102C80000169022211430161704730BF00E020BF9B
:102C900001699143F7E7000000ED00E0007000409B
:102CA00010B583791F490268002B26D00B68934327
:102CB0000B604A6803689A434A60027952181368A5
:102CC0000468234313608A6803689A438A60CA6869
:102CD00003689A43CA604279102A05D051180A68DD
:102CE000006802430A6010BD8A6803681A438A605C
:102CF000CA6800680243CA6010BD007940180168C4
:102D00009143016010BD074948617047054A01467B
:102D1000526900200A4200D00120704701494861F1
:102D2000704700000004014077494A68002A03D038
:102D30001070521C4A60704709680029FBD0084790
:102D400010B5044602E0641CFFF7EEFF207800286F
:102D5000F9D110BDF3B58BB006463078761C00284B
:102D600077D0252802D0FFF7DFFFF6E7002002909A
:102D70003478761C302C02D02D2C02D005E00120B6
:102D800000E0022002903478761C002705E00A203B
:102D900047433F193478761C303F204630380928A5
:102DA000F5D96C2C01D04C2C05D102980421084394
:102DB00002903478761C002C4BD02146612C01D334
:102DC0002039C9B24F2937D006DC422932D04329F5
:102DD0002AD0442906D13DE0532905D0552939D0C0
:102DE000582939D02046BEE70C98002420C80C9002
:102DF00000E0641C285D0028FBD102E02020FFF7E2
:102E000093FF0298800703D42046641CB842F5D390
:102E10002846FFF795FF02E02020FFF785FF2046B8
:102E2000641CB84299D2F7E70C980178001D0C9009
:102E3000084698E7022000E0082001900298400729
:102E400001D444290AD00C9A442901CA0C9208D012
:102E50000EE04CE00A20F0E71020EEE70C9901C9E3
:102E60000C91002804DA0299404208221143029191
:102E70000025019902F0B2FEC9B2092904D9782CC3
:102E800016D007225118C9B204AA303151556D1C11
:102E9000002801D0102DECD30298000702D52D2177
:102EA00051556D1C02982C46C00703D0302002E01B
:102EB0002722E7E72020089002E00898FFF734FF78
:102EC0000298800703D42046641CB842F5D304A8B6
:102ED0006D1E405DFFF728FF002DF8D102E0202095
:102EE000FFF722FF2046641CB8429BD2F7E70DB0E3
:102EF000F0BD0FB410B503A90298FFF72BFF10BC6B
:102F000008BC04B01847000010010020FEB50546BB
:102F10002C460020FF3441340290A0800F460190DF
:102F200002F086FE00682946C05DC4318006C20EEC
:102F30002E46012044360091002A0FD00199A0802E
:102F40008F552089402823D2384602F075FE01466D
:102F50002089009B421C2281C15419E0082F20D0F7
:102F60000D2F2CD00A2F13D01B2F58D01D2F5ED021
:102F7000474A390913685A5C0199A0808A55390774
:102F8000090F5A5C8255022120220320A0808A5515
:102F900020798006800EA0803E480089002871D1EB
:102FA00074E0019908228A552023835503200221C9
:102FB000A0808A5520890028EAD0401E2DE0019982
:102FC0000D228A5502210A22A1808255208940289B
:102FD0001FD2009B0021C1542181481E2860A05EA1
:102FE0008022C117490F0918C908C900401A608119
:102FF000C10129480818009902F038FE0A20205E15
:10300000401CC117490F0918C908C900401A60813E
:10301000BEE70020FF21043148552081B8E76089D0
:10302000401E00B26081002809DA083006E060899D
:10303000401C00B26081082801DB083860810A204A
:10304000205E154FC001C1198022009802F00EFECB
:10305000009802F018FE20810A20205E8022C00124
:10306000C119304602F002FE304602F00CFEA0808C
:103070008EE7281840300079FFF756FE0298401C72
:10308000C0B20290A18802988142F2D8FF20FEBD12
:10309000300100200007002000030020F8B5F848A8
:1030A00000250068002844D0F548F6A1C43002F09D
:1030B000F1FDF54C0028206019D0F2A1002002F0AB
:1030C000E9FD6060002812D0EEA1002002F0E2FDD0
:1030D000A06000280BD0EBA1002002F0DBFDE06037
:1030E000002804D0E7A1002002F0D4FD2061E74FC2
:1030F0003E1D09E00C2068433158206802F0A2FD13
:10310000002804D16D1CEDB238788542F2D33878AE
:10311000854206D20C204543A8198068002800D0BB
:103120008047002020606060A060E060D44920619A
:103130000860F8BDF8B5D44D0024686800282BD08D
:103140001022002102F0CAFD86B2A86800280AD029
:103150001022002102F0C2FDC5B2FF2D01D3FF25D0
:1031600002E0082D13D28025200703D13119C8A011
:10317000FFF7BFFE301980B20122694601F098FCCA
:1031800000280AD0C5A0FFF7DBFD641CE4B2AC4206
:10319000EAD3C3A0FFF7D4FDF8BD68460178C1A00B
:1031A000FFF7A7FEF1E77CB5B74C6068002818D0A0
:1031B0001022002102F092FD85B2A068002810D0F4
:1031C0001022002102F08AFD0446684604700122A4
:1031D0006946284601F03FFC002803D0B3A0FFF762
:1031E000AFFD7CBD2146B5A0FFF783FE2946B8A000
:1031F000FFF77FFE7CBD002206E083181B78FF2BC3
:1032000001D000207047521C8A42F6D30020C043F0
:103210007047F8B501260024F6067714A002851938
:1032200039462846FFF7E7FF002804D12A46214601
:10323000AFA0FFF75EFE641CA4B2202CEED3F8BD55
:1032400010B5FFF732F990484068002812D01022DC
:10325000002102F043FD1F21C90644180121890401
:103260008C420AD2FFF752F90246E10AA9A0FFF701
:1032700040FE02E0AEA0FFF763FDFFF71FF910BDAF
:10328000F8B5814C00256068002867D0B2A102F033
:10329000D9FC00282CD0A068002828D010220021BA
:1032A00002F01CFDC6B2E068002808D01022002100
:1032B00002F014FD84B22046083839280FD3402488
:1032C0000FE0680703D13946A5A0FFF712FEA74813
:1032D0007900415A6FA0FFF70CFE6D1CADB2A542FC
:1032E00002D277193F2FECD36DA0FFF729FDF8BD6F
:1032F0009FA1606802F0A6FC00281BD0A0680028EF
:10330000F5D0E1680029F2D01022002102F0E6FC9D
:10331000C5B210220021E06802F0E0FC81B29348BF
:103320006A00815294A0FFF7E4FD294668A0FFF7E8
:10333000E0FDF8BD95A1606802F084FC002803D090
:1033400001F071F993A0D0E798A1606802F07AFCCF
:10335000002803D001F07FF996A0C6E79A48C4E799
:10336000F8B5494D00266868002855D01022002184
:1033700002F0B4FC1F210446C9064018012189044B
:10338000884228D3914889112018884223D30720E6
:10339000400721180120C00381421CD30321890763
:1033A0006118814217D38A496118814213D3894831
:1033B00011212018890288420DD31720C00603214D
:1033C0002018C902884206D3012040070121201895
:1033D0000905884221D2FF27A8680137002808D0B4
:1033E0001022002102F07AFC85B2BD4201D8082DDE
:1033F0000DD23D460BE0300703D1A11976A0FFF7AF
:1034000078FDA15D27A0FFF774FD761CB6B2AE4231
:10341000F1D323A0FFF794FCF8BD72A0FAE770B5D2
:10342000194D6868002828D01022002102F056FCAF
:103430001F210446C906401801218904884205D38A
:10344000072040072018C910884217D2A868694D84
:10345000002808D01022002102F040FC81B208466A
:103460000838A84201D3FF2101310D46204601F062
:1034700000FA03462A462146BEE0C0E0C0E0000054
:10348000B401002020000000180100207C5E00082C
:103490000D0A3078253034582000000046462000C0
:1034A0000D0A000025303258200000002049324328
:1034B000204572726F72210D0A0000002077726938
:1034C00074652030782530325820746F0000000079
:1034D00020656570726F6D2061646472657373201E
:1034E000307825303458202E2E2E0D0A0000000092
:1034F00020506167652025336420402030782530D6
:10350000384C58206973206E6F7420656D70747923
:10351000210D0A00204572617365205061676520A6
:1035200025642C20726573756C742025640D0A0067
:10353000206572617365205B7061676520616464FA
:10354000725D20457261736520666C6173682070DE
:103550006167652E0D0A000072656164000000005D
:103560000D0A307825303858202000000007002050
:103570007772697465000000207772697465203085
:10358000782530345820746F000000006C6F61643F
:10359000000000004C6F61642066726F6D2045452D
:1035A00050524F4D2E2E2E0D0A000000736176658D
:1035B000000000005361766520746F20454550522D
:1035C0004F4D2E2E2E0D0A0060600008001400E002
:1035D0000000FFBF0000FEBF0D0A307825303858CC
:1035E00020000000204261642041647265737321F1
:1035F000200D0A00F9FF0300B1A0FFF77AFC70BDAF
:10360000B948FFF79DFB70BD30B5B84DB84C686840
:103610008BB0002871D0B7A102F014FB002810D0A5
:10362000A868002807D00A22002102F057FB81B2C7
:103630002181B2A001E02189B7A0FFF75AFC0BB0AD
:1036400030BDBAA1686802F0FDFA002812D0A8685F
:1036500000280CD00A22002102F040FB01F08CFA75
:10366000642102F0BBFA81B2A180B2A0E5E7A18893
:10367000BFA0E2E7C4A1686802F0E4FA00280DD018
:10368000A868002807D00A22002102F027FB81B297
:10369000A182BFA0D1E7A18AC6A0CEE7CCA168686D
:1036A00002F0D0FA00280ED0A868002808D00A221C
:1036B000002102F013FB8107890FE182C6A0BCE75D
:1036C000E18ACCA0B9E7D0A1686802F0BBFA002873
:1036D00014D0A86800280DD00A22002102F0FEFABA
:1036E00080B22083401E022801D203202083218B38
:1036F000C7A0A2E7218BCEA09FE73BE0D2A16868DC
:1037000002F0A0FA00280DD0A868002807D00A22ED
:10371000002102F0E3FA81B26183CDA08DE7618BD5
:10372000D2A08AE7D6A1686802F08CFA00281DD0E2
:103730006846FEF761FDD3A00099FFF7DAFBD5A03C
:103740000199FFF7D6FBD6A00299FFF7D2FBD7A0CD
:103750000399FFF7CEFBD9A00499FFF7CAFBDBA0C2
:103760000599FFF7C6FBDDA0069966E7E0A0FFF725
:10377000E7FA64E7DEA0FFF7E3FAE08A628B218BC9
:103780006B4607C3A38A2289A188E8A0FFF7B1FB93
:10379000608A0090238AE289A189F2A0FFF7A9FB41
:1037A0004DE770B5514D524C686800283DD0F6A1E8
:1037B00002F048FA00280AD0A868002830D00A226F
:1037C000002102F08BFA23E0FFF793FB70BDEFA11D
:1037D000686802F037FA002825D0A86800281FD0B2
:1037E000218CEC4A914217D1EB4D2968002913D066
:1037F0000A22002102F072FA296800B2002900DAD8
:103800004942002800DA4042E24A504302F0FCF903
:1038100081B22184E1A0D7E7E6A0FFF791FA70BD5D
:10382000218CECA0D0E7EFA0F7E73023E35E228DF8
:10383000218CF7A0FFF75DFB70BD70B52B4D2C4CB4
:103840006868002839D0D0A102F0FCF900280AD01D
:10385000A86800282ED00A22002102F03FFA23E0B7
:10386000FFF747FB70BDC9A1686802F0EBF90028BB
:1038700024D0A86800281DD0218DC64A914217D1B6
:10388000EA4D2968002913D00A22002102F026FA05
:10389000296800B2002900DA4942002800DA4042D3
:1038A000BC4A504302F0B0F981B22185E0A0D7E7CD
:1038B000E5A0F7E1218DECA0D2E7F6E1DCE1000024
:1038C00053544152543D307825303858204C454EA1
:1038D0003D307825303858204352433D30782530EC
:1038E00034580D0A00000000E435000818010020DB
:1038F000000700206563686F0000000020536574B6
:10390000204543484F2073746174757320746F2091
:1039100025642E2E2E0D0A00204543484F20737437
:1039200061747573203D2025640D0A006261756421
:1039300000000000207365742055415254206261DC
:10394000756420746F20256C6430302C2073617690
:10395000652026207265626F6F7420746F2061701D
:10396000706C79206E657720626175642E0D0A0097
:1039700020554152542062617564203D20256C64BD
:1039800030300D0A000000006D656E75000000000B
:10399000205365742064656661756C74204D656E96
:1039A0007520696E64657820746F2025642E2E2E34
:1039B0000D0A00002064656661756C74204D656EAB
:1039C0007520696E6465782069732025640D0A008E
:1039D000626B6C7400000000205365742062726991
:1039E0006768746E65737320746F2025642E2E2EA5
:1039F0000D0A0000206272696768746E6573732037
:103A000069732025640D0A0068616C740000000071
:103A1000205365742068616C742074696D656F75DE
:103A20007420746F202564732E2E2E0D0A00000062
:103A30002068616C742074696D656F75742069739A
:103A4000202564730D0A0000636F6D6100000000A3
:103A500020536574204C4544207479706520746F40
:103A60002025642E2E2E0D0A00000000204C454417
:103A700020747970652069732025640D0A000000A8
:103A80007263630020535953434C4B3D256C640DC6
:103A90000A0000002048434C4B3D256C640D0A0091
:103AA0002050434C4B3D256C640D0A00204144439B
:103AB000434C4B3D256C640D0A00000020434543F8
:103AC000434C4B3D256C640D0A00000020493243F5
:103AD00031434C4B3D256C640D0A00002055534189
:103AE000525431434C4B3D256C640D0A00000000DC
:103AF000696E666F205B6563686F7C626175647C6C
:103B00006D656E757C626B6C747C68616C747C63D3
:103B10006F6D615D204F70657261746520706172B8
:103B2000616D65746572732E0D0A00002042415567
:103B3000443D25643030204543484F3D2564204DA9
:103B4000454E553D256420424B4C543D256420484C
:103B5000414C543D25647320434F4D413D25640D38
:103B60000A000000204C4F474D3D25642049545623
:103B70004C3D25642052494E473D25642041555413
:103B80004F3D25640D0A000061646A0063616C6941
:103B900000000000102700007C0100202053657405
:103BA000205541444A20746F2025642E2E2E0D0A84
:103BB0000000000020536574205541444A20746F72
:103BC0002031303030302066697273742E2E2E0D05
:103BD0000A000000205541444A203D2025640D0A7A
:103BE0000000000075736574205B61646A7C63612A
:103BF0006C695D205365742F53686F7720566F6C26
:103C00007461676520706172616D732E0D0A00002A
:103C1000205541444A3D2564204941444A3D25649C
:103C200020495A524F3D25640D0A000078010020BA
:103C300020536574204941444A20746F2025642E26
:103C40002E2E0D0A000000002053657420494144C7
:103C50004A20746F203130303030206669727374BE
:103C60002E2E2E0D0A000000204941444A203D20FE
:103C700025640D0A000000009BA1686801F0E2FFC6
:103C800000280ED0A868002807D00A22002102F0E0
:103C900025F8208601B295A0E2E53021615E99A069
:103CA000DEE59CA0FFF74CF870BD3023E35E228D6B
:103CB000218CA348FFF71DF970BD10B5A14C6068B9
:103CC000002823D0A04901F0BDFF002805D09FA007
:103CD000FFF736F800F0A7FC10BD9B496068203163
:103CE00001F0B0FF002805D0A1A0FFF729F801F0EE
:103CF000C5FA10BDA6A1606801F0A4FF002805D098
:103D0000A5A0FFF71DF801F0FDFA10BDABA0FFF76D
:103D100017F810BD10B5FEF741FC002801D0B3A084
:103D200018E0BAA0FFF70CF8FEF7BFFBFEF720FC87
:103D3000BB20FEF73BFC014604280ED0BCA0FFF7D9
:103D4000D8F8FEF71EFCFEF7B9FBFEF727FC0128AA
:103D500002D1BCA0FEF7F4FF10BDC3A0FEF7F0FF38
:103D6000FEF715FCEDE7FEB50026764D01960296AE
:103D70006868C14C002874D0C0A101F063FF00281E
:103D80002ED00A220021A86801F0A8FFA18901F025
:103D900025FF0C04240C21D0BAA0FEF7D1FF1AE0B5
:103DA000F004000C082201A900F082FEFEF708FFD3
:103DB0006846808841BA6846C08842BA6846008929
:103DC00043BA6846408940BA00B20090B5A0FFF7F8
:103DD00090F8761CB6B2A642E2D3FEBDB7A06EE064
:103DE000BCA1686801F02EFF002810D0A868002848
:103DF00007D00A22002101F071FF81B2A181B6A093
:103E000059E0BDA0FEF79CFFA189C6A053E0CEA15A
:103E1000686801F017FF002810D0A868002807D0B4
:103E20000A22002101F05AFF81B2E181C7A042E0DD
:103E3000CDA0FEF785FFE189D6A03CE0DDA1686852
:103E400001F000FF00281BD0A86800280DD00A222E
:103E5000002101F043FFC007C00F208202D0D7A18C
:103E600001E02FE0D6A1D7A025E0DCA0FEF768FF97
:103E7000208A002801D0D1A100E0D1A1E2A01AE05F
:103E8000E8A1686801F0DEFE002817D0A8680028C5
:103E90000CD00A22002101F021FFC007C00F608270
:103EA00001D0C6A100E0C6A1E0A004E0E8A0FEF7B2
:103EB00047FF1AE2F3A0FFF71CF8FEBDFBA0FEF7D8
:103EC0003FFFFEBDF9A0FEF73BFFA18995A0FFF7DC
:103ED00010F8E189AFA0FFF70CF8208A002801D084
:103EE000B6A1FEE1FCE100007A726F002053657418
:103EF00020495A524F20746F2025642E2E2E0D0A11
:103F00000000000020495A524F203D2025640D0A30
:103F10000000000069736574205B61646A7C636102
:103F20006C695D205365742F53686F7720437572F9
:103F300072656E7420706172616D732E0D0A0000DF
:103F4000103C0008180100208C350008204C6F61DF
:103F50006420706172616D65746572732066726F42
:103F60006D20454550524F4D2E2E2E0D0A0000005B
:103F7000205361766520706172616D65746572733E
:103F800020746F20454550524F4D2E2E2E0D0A00A5
:103F9000726573746F72650020526573746F726519
:103FA0002064656661756C7420706172616D657402
:103FB0006572732E2E2E0D0A000000007061726172
:103FC0006D205B6C6F61647C736176657C72657378
:103FD000746F72655D204F706572617465207061E9
:103FE00072616D65746572732E0D0A0020526561F1
:103FF00064204F75742050726F74656374696F6EBE
:10400000206973204F4E210D0A00000020456E618B
:10401000626C652052656164204F75742050726F28
:1040200074656374696F6E202E2E2E0D0A000000D9
:10403000204572726F7220436F6465203D202564B5
:104040000D0A000020456E61626C65205265616456
:10405000204F75742050726F74656374696F6E20A1
:104060004F4B210D0A000000204C61756E6368699A
:104070006E672E2E2E0D0A000007002064756D70ED
:10408000000000002020202020692C2020742873AC
:10409000292C2055286D56292C2049286D41290DA1
:1040A0000A000000202535642C202535642C2025AD
:1040B00035642C202535640D0A000000206C6F67E4
:1040C0002064756D70205B646563206E756D5D2086
:1040D0000D0A00006D61780020536574206C6F67D5
:1040E0002064617461206C656E67746820746F2051
:1040F00025640D0A00000000206C6F67206D617858
:10410000205B646563206C656E5D20536574206C74
:104110006F672064617461206C656E6774682E0D32
:104120000A0000002063757272656E74206C6F6700
:104130002064617461206C656E6774682069732007
:1041400025640D0A00000000696E74002053657438
:10415000206C6F6720696E74657276616C20746F75
:104160002025640D0A000000206C6F6720696E74C2
:10417000205B64656320696E74657276616C5D2096
:10418000536574206C6F6720696E74657276616C1C
:104190002E0D0A002063757272656E74206C6F6755
:1041A00020696E74657276616C2069732025640DD8
:1041B0000A00000072696E67000000004F6E000088
:1041C0004F666600205365742052696E67204D6FFC
:1041D000646520746F2025730D0A0000206C6F67E2
:1041E0002072696E67205B307C315D205475726E81
:1041F000204F6E2F4F66662072696E67206D6F6468
:10420000652E0D0A000000002063757272656E74E1
:104210002072696E67206D6F646520697320257355
:104220000D0A00006175746F000000002073657452
:10423000206175746F207374617274206C6F6720D5
:104240006D6F646520746F2025730D0A00000000F7
:10425000206C6F67206175746F205B307C315D204E
:104260005475726E204F6E2F4F6666206175746FA5
:10427000207374617274206C6F67206D6F64652E9B
:104280000D0A00002063757272656E74206175748A
:104290006F207374617274206C6F67206D6F64653A
:1042A0002069732025730D0A000000006C6F6720E1
:1042B0005B64756D707C6D61787C696E747C72690D
:1042C0006E677C6175746F5D204F70657261746597
:1042D0002064617461206C6F67732E0D0A0000000A
:1042E000554955484830FEF704FE608A002801D041
:1042F00052A1DFE55049DDE50EB55348504A51491A
:104300000068126809686B4607C350480368504844
:1043100002685048016850A0FEF7EBFD0EBD10B5D5
:104320005A48594C03685A482188028859A0FEF718
:10433000E0FD5E48618803685D4802885DA0FEF785
:10434000D8FD6248A18803686148028861A0FEF731
:10435000D0FD664800220068E18803886448825ED8
:1043600064A0FEF7C6FD6948218900680388684893
:10437000028868A0FEF7BDFD6C48008881B26C48D9
:1043800002886CA0FEF7B5FD10BD704900204B6897
:10439000002B04D00A220021184601F09FFC6C4932
:1043A00000220A600A688242FCD36AA0FEF7C8FCB9
:1043B000BFF34F8F6E496D48C860BFF34F8FFEE764
:1043C00070B56C4D002420460C21484341194A68C1
:1043D000295869A0FEF78DFD641C24B2092CF2DB7C
:1043E00070BDF8B5674800240068008800906648F2
:1043F0000178CB0601880088C9050A0F410ADB0E47
:1044000062A0FEF776FD6B4D6B4E28683168005D4B
:104410000009085CFEF788FC28683168005D000729
:10442000000F085CFEF780FC641CE4B20C2CECD39B
:1044300062A0FEF785FCF8BDC04100084F6E000089
:10444000500100204C010020800100207801002054
:104450007C0100204801002020543D256C6473201D
:10446000553D25646D5620493D25646D4120503DE4
:1044700025646D5720256C646D416820256C646D42
:1044800057680D0A00000000B40700206C010020EE
:104490003E01002020636830303D25642025646D96
:1044A00056203078253038580D0A00007001002061
:1044B0004001002020636830313D25642025646D73
:1044C00056203078253038580D0A0000740100203D
:1044D0004201002020636830323D25642025646D50
:1044E00056203078253038580D0A0000905F0008BB
:1044F0004601002020636831363D25642025644351
:1045000020494E543D25640D0A0000008C5F0008D0
:104510003C01002020636831373D25642025646D0F
:104520005620494E543D25640D0A000084010020A8
:104530003A0100202063616C693D256420564444A3
:10454000413D25646D560D0A000000001801002051
:1045500064010020207265626F6F742078626F6F53
:1045600074202E2E2E200D0A000000000400FA05F3
:1045700000ED00E0805E0008202573202D3E202500
:10458000730000008C010020885F00082055494D11
:10459000657465724D696E69207625642E25642EDA
:1045A000256420466C6173683A25646B20534E3A4B
:1045B0000000000088010020300100200D0A204585
:1045C00043484F2053747564696F203C6563686F7E
:1045D0002E786A747540676D61696C2E636F6D3EED
:1045E0002E20416C6C205269676874732052657389
:1045F00065727665642E200D0A00000010B500205B
:104600003549364BFF242402C201D2181288A24237
:1046100002D10880012010BD401C80B20828F3D3CD
:104620000020088010BD70B52B482C4B01782C4C15
:104630004907490F01800020C90142008D18ED187B
:104640006D88401C80B2A5523F28F6D33F212448F4
:1046500000F027F970BDF8B51F4C00252078214FD8
:104660004007400F2080FDF720FF20881B4EC0012F
:1046700080190021FDF764FF2078401C4007400F9F
:104680002080C00180190188B94203D0FDF73EFFA8
:10469000002020802088FF21C00180190902FDF739
:1046A0004FFF3E210E4800F0FCF80D490C4F403101
:1046B000888720886900C00142180848795A801C00
:1046C0001018FDF73DFF6D1CADB206463F2DF0D32F
:1046D000FDF7F4FE3046F8BD2C010020001C000858
:1046E00000070020FFFF0000020B0A700205120FF6
:1046F0004A700206120F00078A70000FC87000206F
:104700000871704770B50C467D210546C90001F05F
:104710007BFA0A2101F078FA21706421284601F021
:1047200073FA0A2101F070FA61700A21284601F03B
:104730006BFA0D460A2101F067FAA170E5700020BE
:10474000207170BD70B50C46050002D545420120B0
:1047500000E00020207166487D26F600854202DADE
:104760002079082114E06348854207DA0A212846A7
:1047700001F04AFA05462079042109E05E488542A5
:1047800009DA6421284601F03FFA05462079022122
:104790000843207107E05948854204DA314628462B
:1047A00001F032FA05463146284601F02DFA0A2179
:1047B00001F02AFA21706421284601F025FA0A2125
:1047C00001F022FA61700A21284601F01DFA0D4617
:1047D0000A2101F019FAA170E57070BD70B50C46A0
:1047E000050002D54542012000E00020E07040486D
:1047F000854207DA0A21284601F006FA0546E078E4
:10480000042109E03B48854209DA6421284601F089
:10481000FBF90546E07802210843E07008E03648DD
:10482000854205DA7D21C900284601F0EDF90546EB
:104830006421284601F0E8F90A2101F0E5F9217028
:104840000A21284601F0E0F90D460A2101F0DCF9C1
:104850006170A57070BD0178002909D11321017024
:104860004278002A04D141708278002A00D18170F8
:10487000704770B5064600222148224D0EE0B35C19
:1048800058400023C407E40F4008002C00D06840C3
:104890005B1C9BB2082BF5D3521C92B28A42EED31A
:1048A00070BD70B5064600221548164D0FE0530046
:1048B000F35A58400023C407E40F4008002C00D0EE
:1048C00068405B1C9BB2082BF5D3521C92B28A4203
:1048D000EDD370BD01B5694608888000088008885E
:1048E000001D08806A461088411E1180FAD208BD5A
:1048F00010270000A086010040420F00809698001B
:10490000FFFF000001A0000010B59A4C02212046D4
:10491000FDF79FFD0120FFF7DDFF01212046FDF798
:1049200098FD0520FFF7D6FF02212046FDF793FDF5
:104930000520FFF7CFFF01212046FDF78CFD022067
:10494000FFF7C8FF10BD10B58A4C02212046FDF7C5
:1049500082FD0120FFF7BEFF01212046FDF779FD12
:104960000520FFF7B7FF02212046FDF772FD042066
:10497000FFF7B0FF10BD70B57E4E054600242846F7
:10498000A0400006C20F02213046FDF766FD01205F
:10499000FFF7A0FF01213046FDF75BFD0520FFF783
:1049A00099FF01213046FDF756FD641CE4B2082C46
:1049B000E5D30220FFF78EFF02213046FDF749FDC7
:1049C0000220FFF787FF01213046FDF742FD03205B
:1049D000FFF780FF02213046FDF734FD0446012138
:1049E0003046FDF738FD0220FFF774FF204670BD0A
:1049F00070B5604E002402213046FDF72AFD0025E7
:104A00000120FFF767FF01213046FDF724FD052057
:104A1000FFF760FF01213046FDF71BFD0320FFF784
:104A200059FF02213046FDF70DFD61060C0EC0074F
:104A300001D0641CE4B20220FFF74CFF6D1CEDB204
:104A4000082DDDD301213046FDF705FD0220FFF7DB
:104A500041FF204670BD70B50D460646402A01D97B
:104A6000402202E0002A00D101221446FFF74CFF49
:104A7000A020FFF780FF002810D1300AFFF77BFF4E
:104A800000280BD1F0B2FFF776FF002806D109E02D
:104A900028786D1CFFF76FFF002801D0022070BD41
:104AA000641EE4B2002CF3D1FFF74DFF002070BD6F
:104AB000F8B500250E460746402A01D9402202E0FB
:104AC000002A00D101221446FFF71EFFA020FFF7A5
:104AD00052FF002810D1380AFFF74DFF00280BD1F4
:104AE000F8B2FFF748FF002806D1FFF70DFFA1201D
:104AF000FFF741FF002801D00220F8BD1D4F641EC2
:104B000019E0FFF775FF705502213846FDF7A3FC49
:104B10000320FFF7DFFE01213846FDF79AFC052050
:104B2000FFF7D8FE01213846FDF795FC0220FFF77C
:104B3000D1FE6D1CEDB2A542E3DBFFF759FF7055C6
:104B400002213846FDF785FC0320FFF7C3FE012153
:104B50003846FDF77EFC0520FFF7BCFE01213846F4
:104B6000FDF779FC0220FFF7B5FEFFF7ECFE002011
:104B7000F8BD000000140048074A00218B00D358FC
:104B8000834202D1880010587047491C89B20C2911
:104B9000F4D3E12040027047585F000870B5FE482A
:104BA0000924408BE406FD4D002810D0402120460A
:104BB000FDF751FC02212846FDF74DFC102120464F
:104BC000FDF749FC08212046FDF745FC70BD40215A
:104BD0002046FDF73EFC02212846FDF73AFC102155
:104BE0002046FDF736FC08212046FDF732FC70BD5B
:104BF00070B5EB480179C078C907C90F00F08BFE8A
:104C0000E5480924408BE406E44D002810D04021FB
:104C10002046FDF720FC02212846FDF71CFC102150
:104C20002046FDF718FC08212046FDF712FC70BD58
:104C300040212046FDF70DFC02212846FDF709FC26
:104C400010212046FDF705FC08212046FDF703FC56
:104C500070BD70B5D248022201798078114000F011
:104C60005AFECD480924408BE406CC4D002810D0D4
:104C700040212046FDF7EFFB02212846FDF7EBFB24
:104C800010212046FDF7E5FB08212046FDF7E3FB58
:104C900070BD40212046FDF7DCFB02212846FDF7D0
:104CA000D8FB10212046FDF7D6FB08212046FDF752
:104CB000D0FB70BD70B5BA4804220179407811402C
:104CC00000F029FEB4480924408BE406B34D0028C7
:104CD00010D040212046FDF7BEFB02212846FDF7FB
:104CE000B8FB10212046FDF7B6FB08212046FDF752
:104CF000B2FB70BD40212046FDF7ABFB02212846E8
:104D0000FDF7A9FB10212046FDF7A3FB0821204653
:104D1000FDF79FFB70BD70B5A148082201790078AE
:104D2000114000F0F8FD9C480924408BE4069B4D9F
:104D3000002810D040212046FDF78BFB0221284699
:104D4000FDF789FB10212046FDF785FB0821204651
:104D5000FDF781FB70BD40212046FDF77CFB022161
:104D60002846FDF776FB10212046FDF772FB08214F
:104D70002046FDF76EFB70BD87488A4A807D81071B
:104D80005078890F401C0007000F5070042802D291
:104D9000884210D8BFE7082803D2001F88420ADCE7
:104DA00088E70C2803D20838884204DC51E70C3825
:104DB000884200DC1CE7F1E670B57A4C206B401CA1
:104DC00020637D21C900206B00F008FF25463435A3
:104DD000714A2868022904D0032913D0052921D05B
:104DE0004AE06169491C6161A16A491C44D1A188FA
:104DF000491C89B2A180D2898A423DD80021A18074
:104E000010210CE06188491C89B26180128B002A54
:104E100032D08A4230D221780A292DD0402108434D
:104E2000286029E0606C002800DC40425E4948436D
:104E3000092100F0E9FE216A46182662E06C00288C
:104E400000DC404258494843092100F0DDFE616A18
:104E5000564B401860625942A26901E0F618521C94
:104E60008E42FBDC2662A261E26901E0C018521C9E
:104E70008842FBDCE26160620A21206B00F0AEFE3A
:104E8000072903D128680821084328606421206B82
:104E900000F0A4FE0B2903D12868012108432860F3
:104EA00070BDF8B5424E00203346323B8200404C84
:104EB00041003E3C9D58645A2C199C50755C6D1CF9
:104EC0002D062D0E75520FD1394F25022D0C0A3F9C
:104ED0007D52394614398C500021995031490224B1
:104EE00034310A6822430A60401CC0B20528DDD371
:104EF000FFF762FFFFF740FFF8BDFEB529483430E9
:104F000001688A0776D502229143016028482A4920
:104F10000A380089009027480068008848430099B3
:104F200000F05CFE1F4C224E85B2E5801E3E3068CC
:104F3000194F6843000B0102090CA063618171687D
:104F40006943090B0A02E163081A120CA28130219D
:104F50008000795E0012411A388D4843174900F0ED
:104F600053FE60640190B0686843000B0102090CB5
:104F70002064E1810B214843010A388C48430F49E2
:104F800000F042FEA064019948437D21C90000F071
:104F90003BFEE064304613E00007002000040048B8
:104FA0009001002034010020C4090000C0BDF0FFC2
:104FB000BE0700208C5F0008E40C000010270000F2
:104FC0001430C08868430001000C2082FE49FF4A6B
:104FD000096809885143090B081A7D21C900484313
:104FE000FB4900F011FE1E3060820098684300010A
:104FF000000C2081FEBDF8B5F64801680A0723D5EC
:1050000008229143016000F054FCF2490022343937
:10501000002800D04A800F7803250226EE4C3B0082
:1050200000F00BFF0D081527344059616159647A6F
:1050300095951200032866D0042806D0052878D05C
:10504000062801D105200870F8BD0820FBE70328D9
:1050500007D0042809D0052805D00628F4D10A2055
:10506000F1E70A70F8BD0E70F8BD4A618A61CA6145
:10507000F8BD03285DD0042806D0052802D00628F4
:10508000F6D1E0E70D70F8BD0720DCE70328EAD091
:10509000042805D0052836D00628F4D10C20D2E704
:1050A0000B20D0E70328EDD0042805D00528D8D060
:1050B0000628E8D10920C6E7886A002801D08A625C
:1050C000F8BD0020C043CA628862F8BD0428FCD045
:1050D0000528FAD1C5E70328F8D1C2E70428F4D09F
:1050E0000528F2D1BFE70328F8D1BCE703280CD08C
:1050F000042808D005280BD00628E6D1B54820237F
:1051000002681A43026004209DE7E089401E01E026
:10511000E089401CE081F8BD03280CD0042808D0A9
:1051200005280BD00628F6D1AA48202302681A4386
:105130000260012087E7208B401E01E0208B401C8D
:105140002083F8BD0428FCD00528FAD19AE703286B
:10515000F8D197E7F8B59F4A1068C1071FD04608F5
:10516000760010463438166007789C499C4D9A4C5E
:105170003B0000F062FE0D080B1A1D2432343A3D4C
:10518000272D424D14009549806C33E04069A842B8
:1051900006D29249FFF7B6FA9048FFF75CFBF8BDDC
:1051A00080B218E0FFF7A0FAF8BD8C49406C21E00E
:1051B00011220A70C06C491CFFF710FBF8BD87492B
:1051C000C06AE7E7E08904E08449FFF79BFAF8BD8D
:1051D000208BA842F8D38149E4E7208C00E0208DA1
:1051E0000A2100F0FBFC7D4904E07C49806901E074
:1051F0007A49C069FFF7A6FAF8BD13200870487015
:105200008870C87000200871402006431660F8BD01
:1052100072497448C6E71CB500206E4900900190A1
:105220000A68D30627D510239A430A60694C6A4955
:10523000343C8A89E36A9A4203D8098A00291BD040
:10524000E062A18D68460A0A02704170A28A130AC0
:105250008370C270A26C131203714271626C1312DC
:105260008371C271C804000C08226946FFF7F3FB82
:10527000E06A401CE0621CBDA0621CBD10B5372175
:105280005548FFF70EFB544C4034E085FFF7E3F937
:10529000E08D10BD4F4801688A0603D52022914356
:1052A0000160EBE7704710B54A4801684A0617D518
:1052B00040229143016001210807FDF75CF84A4C48
:1052C0002046FDF7A7FB00212046FDF768FB00F014
:1052D00069F9012000F058F901210846FDF7C1FCE9
:1052E00010BD70B53C4C0025A08A0D2100F076FC65
:1052F000384834380170618A002901D0691E816202
:10530000284670BD3448394901800921C90181808E
:105310000121018141810A038281C1810021018231
:1053200041828182C182018341832D4A028481842A
:1053300002850186704700F073F800F0A1FB00F0D1
:10534000BEF8244900200860FFF758F9FFF76BF911
:1053500037212148FFF7A5FA1F4901264031C98DA1
:10536000B60309247510E40688420BD13146204665
:10537000FDF768F8002809D129462046FDF762F8B4
:10538000002803D1FFF7BEFFFFF778FFFFF7A9FF63
:10539000002801D0FFF772FF31462046FDF752F892
:1053A000002809D129462046FDF74CF8012803D1F1
:1053B00009200949C001888000F023F900F040F974
:1053C00000F0E0F914E00000905F0008E40C000039
:1053D000CC10000068010020000700209001002090
:1053E000102700000523000000240140881300005E
:1053F00000F04BF800F097F9FEF7F3FFFFF77DFDA3
:10540000FFF7F9FDFDF74AFEFFF7A4FEFFF703FFE4
:10541000FFF740FFFFF747FF0120FDF715FCEDE721
:1054200010B5FCF751FE0120FCF78CFE0120FCF7C3
:1054300071FE0028FAD00020FCF79AFEFCF79FFED0
:105440000028FBD10120FDF726F80020FDF71CF80D
:105450000020FCF799FE0020FCF79DFE0020FCF7E1
:105460007CFE0020FCF79FFEFA48FCF7AFFE01210E
:10547000F948FCF76EFF01210807FCF77CFF2D209F
:1054800001214002FCF76EFF10BD38B507216846C8
:1054900001700321417001248470FDF767F91B211D
:1054A00068460170022141708470FDF75FF909219F
:1054B0006846017044708470FDF758F938BDFEB538
:1054C0000720009003266846067109206946C00639
:1054D000FCF780FF582000900024684644710125A5
:1054E0000571847109206946C006FCF773FFA0208E
:1054F0000090022768460771467184710920694649
:10550000C006FCF767FF092000220521C006FCF752
:10551000AAFF092000220721C006FCF7A4FF7002A1
:1055200000906846077144718471C571092069460D
:10553000C006FCF74FFF09210122C806FCF793FFC4
:10554000092001220A21C006FCF78DFF700300909C
:10555000684644710471C57109206946C006FCF7AC
:1055600039FF684600974471057184716946BB48EC
:10557000FCF730FF684600964571057185716946F4
:10558000B748FCF727FFFEBD1CB509218902009131
:10559000002269460A7108224A7188716846FDF73F
:1055A0007FFB1CBD7CB5FF200090092503246946C4
:1055B000ED060C712846FCF70DFF022000906946AD
:1055C000A648FCF707FF3320400200900020694600
:1055D00008710120C8712846FCF7FCFE6946A04806
:1055E0000094FCF7F7FE7CBD10B59E4C01462046AA
:1055F000FDF76DF880212046FDF786F80128F9D1E6
:1056000010BD10B586B06846FDF74CF89648642189
:1056100080884843FFF7B0FA924C009069462046D4
:10562000FCF7F6FF012291492046FDF758F80121C9
:105630002046FDF742F88F498D48086006B010BD3E
:10564000F0B58D4F91B03846FDF714FA8B480690AF
:105650008B4807900520099080200B904000002483
:1056600086000C9020200E900A94000208940F905F
:105670000D9606A910943846FDF755FA012202212D
:105680003846FDF776FA7D4D403D2846FDF766F930
:10569000684600940471039404946946284602966F
:1056A0000594FDF769F9072201212846FDF796F9CF
:1056B000072202212846FDF791F9072204212846F6
:1056C000FDF78CF90722B1012846FDF787F907227B
:1056D000F1012846FDF782F90120FDF769F9012063
:1056E000FDF771F902212846FDF7A8F92846FDF7D4
:1056F0007AF96449086001213846FDF730FA012142
:105700002846FDF791F901212846FDF748F95E4C3E
:1057100028462146FDF79AF90028F9D02846FDF7DA
:105720007EF911B0F0BD70B5584D88B02846FDF730
:1057300045F8002469468C827D20CC828001069049
:105740008C838C7705A92846FDF78EF87020694672
:10575000088001264E80042088807D204001029030
:1057600002208881CC81C00108824C822846FDF746
:10577000A7F820212846FDF7D7F82888304328804D
:1057800008B070BD10B586B000206946FF220880C1
:1057900005324A80072212028A800222CA80012230
:1057A0000A8152024A8108228A81C8810720384C26
:1057B00008822046FDF70CFA01212046FDF72DFA5C
:1057C0003CE770B5324C054602212046FDF730FA21
:1057D0000028F9D029462046FDF728FAFF2070BDA1
:1057E0002C4900208A78642A01D3022002E00A2A88
:1057F00000D3012000228A70704710B501210920D2
:1058000000244903C006FCF71DFE22490028487801
:1058100008D0642801D3022402E00A2800D301241E
:10582000002004E0421C4A70642801D364204870C0
:10583000204610BD10B50121092000248903C006AF
:10584000FCF700FE1349002808782AD0642823D3E7
:10585000022424E003000010010046000004004878
:105860000014004800380140000700200501050031
:10587000E9550008100100200800024040240140C2
:10588000800700208401002001000001002C01405D
:1058900000300140950100200A2800D30124002097
:1058A00004E0421C0A70642801D36420087020467A
:1058B00010BD10B5FFF7BEFF0446FFF79EFF03467D
:1058C000FFF78EFF012C04D0002C09D0022C0ED043
:1058D00011E0002B02D0012B17D00CE0032010BDEB
:1058E000012B02D0022B0ED005E0052010BD002BAD
:1058F00007D0022B0BD001280BD0022809D00020A2
:1059000010BD042010BD062010BD072010BD0820CA
:1059100010BD092010BD10B50C46152100F05EF930
:105920000948405C0949498B002906D0FF21081A23
:10593000002C06D04006400E03E0002C01D0802150
:105940000843FFF73EFF10BD945F000800070020EA
:105950007047FEE770477047704770B52B4D2C4C71
:1059600029462046FCF7D7FE00280DD02046FCF73C
:10597000B2FEC1B22748FDF7C9FA274900200880C6
:1059800029462046FCF7E3FE70BD10B50220FDF766
:10599000F8F8002804D0FFF784FA0220FDF7FFF89A
:1059A00010BDF8B50124A4022046FDF7AFF9E500CB
:1059B000002804D12846FDF7A9F9002825D017486A
:1059C0001749007D0870144900200880FFF7DCFDAE
:1059D000FFF775FD134E01213046FCF7E0FF124F33
:1059E00030463946FDF732F80028F9D03046FDF749
:1059F00016F82046FDF792F92046FDF784F928466F
:105A0000FDF78CF92846FDF77EF9F8BD0501050084
:105A100000380140B40100203601002000070020BA
:105A200034010020002401400100000110B54E485F
:105A3000016801221143016041684C4A11404160F4
:105A400001684B4A114001600168012292049143B0
:105A5000016041683F22120491434160C16A090913
:105A60000901C162016BFF22543291430163416B12
:105A70004908490041630021816000F02EF810BD03
:105A800070B5394D69680C2001403A483A4C03D052
:105A9000042901D0082901D0206014E06A686968EF
:105AA00003239202DB03160F1940B61C002907D00E
:105AB000E96A0907090F491C00F090F87043EBE709
:105AC0002E484643266068682B490006000F091DD2
:105AD000085C2168C140216070BD1CB500212248CE
:105AE00001910091026801231B041A4302605B00CC
:105AF0000522120304681C400094019C641C01945C
:105B0000009C002C02D1019C9442F3D102689203C4
:105B100028D5012100911A4A112111604168416084
:105B20004168416041687F22D203914341604168EE
:105B3000112212041143416001680122120611432F
:105B4000016001688901FCD54168890889004160CC
:105B5000416802221143416041680907890F022907
:105B6000FAD11CBD00911CBD001002400CB8FF080A
:105B7000FFFFF6FE00127A009801002000093D00A8
:105B8000002002400C4880F308880C480168090E88
:105B90000B4A914205D10B480B4901600B480C4957
:105BA00001600C4880470C480047FEE7FEE7FEE72F
:105BB000FEE7FEE7FEE70000C80B0020040000003F
:105BC0001F0000001810024001000000000001400A
:105BD000000000002D5A0008B520000830B50B4623
:105BE000014600202022012409E00D46D5409D42B7
:105BF00005D31D469540491B25469540401915463D
:105C0000521E002DF1DC30BD70B500242546002861
:105C100001DA01244042002901DA01254942FFF757
:105C2000DDFFAC4200D04042002C00D0494270BDA4
:105C3000004870472C60000801464139192900D8F6
:105C40002030704730B505462A460B4610781C7840
:105C5000521C5B1C002801D0A042F7D0002C03D0BE
:105C6000002802D06D1CEFE7284630BD10B5044671
:105C700005E00B780370401C002B00D0491C521E1D
:105C8000F7D2204610BD421C0178401C0029FBD1F0
:105C9000801A704770B5104D002800D12868002484
:105CA00014E00A4602E09E4203D0521C1378002BF7
:105CB000F9D1DAB2224307D0002B06D0002C04D051
:105CC00000210170401C04E00446401C0678002EB0
:105CD000E7D12860204670BDAC010020F7B582B046
:105CE0000F460026029C00F0B5F800900068019075
:105CF0002578641C002D05D0FFF79AFF0068405DF1
:105D0000C007F5D12B2D02D02D2D1CD0641E00987C
:105D10000021016039462046049A00F01AF8014635
:105D2000002F04D03868A04201D102983860009852
:105D3000006802280BD00098019A0260700506D511
:105D4000484205B0F0BD012080020643DFE7084667
:105D5000F7E7F7B582B0029C00272078641C15464F
:105D60000197302802D0002D15D015E020780127AA
:105D7000641C782804D0582802D0002D09D00BE0EC
:105D8000002D01D0102D07D1002710252078641C8C
:105D900002E0082500E00A250026009610E00099A0
:105DA000012769430818020C294680B2714300900C
:105DB0008E183804864201D3012001902078641C9B
:105DC000294600F02BF80028E9DA0398002805D0CE
:105DD000002F01D0641E00E0029C0460019800289E
:105DE00006D000F037F802210160C81E05B0F0BDF2
:105DF000009930040843F9E7064C0125064E05E0FA
:105E0000E36807CC2B430C3C98471034B442F7D3DB
:105E1000FCF754F9BC630008DC6300083A2800D2A0
:105E20003038202302469A43412A01D3104637389E
:105E3000884201D30020C043704730B47446641ECA
:105E40002578641CAB4200D21D46635D5B00E318FD
:105E500030BC184700487047B001002002E008C875
:105E6000121F08C1002AFAD170477047002001E0D4
:105E700001C1121F002AFBD1704700001200000070
:105E80004C63000824610008F942000848630008D8
:105E9000B8610008673D00086C63000848620008AC
:105EA0000936000890630008EC610008A337000879
:105EB00088630008186200083B3800085463000833
:105EC00080620008BB3C0008986300087461000809
:105ED0008B43000878630008A8610008C1430008EC
:105EE0006463000804610008E343000830630008AD
:105EF000A46000083531000880630008D460000801
:105F0000A731000838630008F46200086133000814
:105F100020630008306000081F3400084063000858
:105F20004C610008413200085C63000860600008B2
:105F30008132000874630008B0620008153D000853
:105F4000A0630008C8620008133200082863000834
:105F5000986100081F43000800100E0000080700A9
:105F60000084030000C2010000E100000096000070
:105F7000004B000080250000C012000060090000F6
:105F8000B00400002C01000005230000BAF7FF1F39
:105F9000B8F7FF1F3F065B4F666D7D077F6F777C0D
:105FA000395E797180733E0040004040404040407F
:105FB00040404041414141414040404040404040DC
:105FC0004040404040404040404005020202020242
:105FD00002020202020202020202202020202020ED
:105FE0002020202002020202020202909090909053
:105FF0009010101010101010101010101010101021
:10600000101010101002020202020288888888888C
:106010008808080808080808080808080808080880
:10602000080808080802020202400000AA5F0008EF
:106030006D656D637263205B68657820616464726E
:106040005D205B686578206C656E5D2053686F77B6
:10605000204D656D6F7279204352432E0D0A00006A
:10606000656570726F6D205B6C6F61647C736176C7
:10607000657C726561647C77726974655D205B61C3
:106080006464725D205B646174615D204F70657251
:1060900061746520496E742E20454550524F4D2E37
:1060A0000D0A000065657264205B68657820616494
:1060B00064725D205B686578206C656E5D2052655A
:1060C0006164204578742E20454550524F4D2E0D69
:1060D0000A00000065657772205B6865782061645E
:1060E00064725D205B68657820646174615D20572F
:1060F00072697465204578742E20454550524F4D85
:106100002E0D0A00646973706C61792053572076F4
:10611000657273696F6E20616E6420534E2E0D0A96
:106120000000000067657420766F6C7461676520FD
:1061300063757272656E7420616E6420706F77652E
:1061400072206574632E0D0A000000006572617391
:1061500065205B7061676520616464725D204572D3
:1061600061736520666C61736820706167652E0DD0
:106170000A0000007265626F6F74205B64656C6179
:1061800079206D735D205265737461727420737928
:106190007374656D2E0D0A006765742041442049B3
:1061A0006E666F2E0D0A000068656C7020496E6681
:1061B0006F2E0D0A000000006C6F67205B64756D28
:1061C000707C6D61787C696E747C72696E677C61CD
:1061D00075746F5D204F70657261746520646174C1
:1061E00061206C6F67732E0D0A0000007573657473
:1061F000205B61646A7C63616C695D205365742F08
:1062000053686F7720566F6C746167652070617298
:10621000616D732E0D0A000069736574205B616403
:106220006A7C63616C697C7A726F5D205365742F40
:1062300053686F772043757272656E742070617257
:10624000616D732E0D0A0000696E666F205B6563D9
:10625000686F7C626175647C6D656E757C626B6C69
:10626000747C68616C747C636F6D615D20536574D0
:106270002F53686F7720706172616D732E0D0A0065
:10628000706172616D205B6C6F61647C73617665B7
:106290007C726573746F72655D204F706572617496
:1062A0006520706172616D65746572732E0D0A00F0
:1062B000656E61626C65205244502070726F746527
:1062C00063742E0D0A000000656D707479204368B8
:1062D00065636B20666C61736820736563746F72AD
:1062E00020697320656D707479206F72206E6F74F1
:1062F0002E0D0A006D656D7264205B686578206103
:106300006464725D205B686578206C656E5D205307
:10631000686F77204D656D6F72792E0D0A00000051
:106320006D656D63726300006765746164000000F1
:1063300065657264000000006D656D7264000000A8
:1063400065726173650000006C6F67006765747546
:1063500069000000706172616D0000006565707217
:106360006F6D000076657273696F6E00696E666F9F
:10637000000000007264700068656C70000000002E
:1063800065657772000000006973657400000000A5
:1063900075736574000000007265626F6F740000B1
:1063A000656D707479000000303132333435363722
:1063B000383941424344454600000000DC63000890
:1063C00000010020B40000005C5E0008906400083A
:1063D000B4010020140A00006C5E000800000000F8
:1063E000010203040102030406070809000000007B
:1063F000000000000000000000000000000000009D
:10640000000000000000000000000000A863000879
:10641000000000000000000000000000000000007C
:10642000000000000000000000000000000000006C
:10643000000000000000000000000000000000005C
:10644000000000000000000000000000000000004C
:10645000000000000000000000000000000000003C
:1064600000000000ACF7FF1FCCF7FF1F000000008A
:1064700000000000006CDC020000000000000000D2
:1064800001020304060708090000000000000000E4
:04000005080020B51A
:00000001FF
