:020000040800F2
:10200000C80F002065210008553B0008AD370008C7
:10201000E73A00082D2C0008955100080000000048
:10202000000000000000000000000000D341000894
:102030000530000800000000793B0008494D000809
:102040007F2100087F2100087F2100087F210008F0
:102050007F2100087F2100087F21000881320008CD
:102060007F210008E92F00087F2100087F21000858
:102070007F2100087F2100087F2100087F210008C0
:102080007F2100087F210008000000007F21000858
:102090007F2100087F2100087F2100087F210008A0
:1020A0007F2100087F2100087F210008D55000080B
:1020B0007F210008000000007F21000800000000D0
:1020C0007F210008000000007F2100087F21000818
:1020D0007F21000800000000000000000000000058
:1020E00000000000000000007F2100080000000048
:1020F00000000000000000000000000000000000E0
:102100007F21000800000000000000007F2100087F
:1021100000000000000000000000000000000000BF
:1021200000000000000000000000000000000000AF
:10213000000000000000000000000000000000009F
:102140000000000000000000000000007F210008E7
:10215000DFF80CD000F088FC0048004771580008F8
:10216000C80F00200648804706480047FEE7FEE704
:10217000FEE7FEE7FEE7FEE7FEE7FEE7FEE7FEE737
:10218000DD4D0008512100080048704748920008C2
:10219000A0F14101192900D82030704740EA01031D
:1021A0009B0703D009E008C9121F08C0042AFAD20D
:1021B00003E011F8013B00F8013B521EF9D27047D1
:1021C00030B505462A460B4612F8010B13F8014BB1
:1021D00008B1A042F8D01CB1002802D06D1CF1E774
:1021E000284630BD10B5044604E00B7800F8013BEA
:1021F00003B1491C521EF8D2204610BD421C10F8F3
:10220000011B0029FBD1801A7047000070B50F4DEB
:1022100000B92868002412E00A4602E09E4203D07A
:10222000521C1378002BF9D1DAB2224305D02BB11E
:1022300024B1002100F8011B04E00446401C06788C
:10224000002EE9D12860204670BD000070010020FA
:102250002DE9F04791460F4680460446002614F8C3
:10226000015B2DB1FFF790FF0068405DC007F6D11C
:102270002B2D02D02D2D18D0641E4A4639462046FB
:1022800000F00EFB27B13968A14201D1C7F80080E8
:1022900071054FF002040BD54042002803DD02F027
:1022A00089FF0460A007BDE8F08746F48066E4E794
:1022B0000028F8DA02F07EFF04606FF00040F2E7D9
:1022C0002DE9F05F93460F4680460446002602F053
:1022D00071FFD0F80090824614F8015B2DB1FFF732
:1022E00053FF0068405DC007F6D12B2D02D02D2D85
:1022F0001AD0641E0021CAF800105A4639462046FA
:1023000000F0CEFA014627B13868A04201D1C7F8E3
:102310000080DAF80000022809D0CAF800907005A1
:1023200005D54842BDE8F09F46F48066E2E70846DE
:10233000F8E780EA010210B502F00043400022D025
:102340004A001FD0010E01EB1261C0F35600C2F328
:10235000560240F4000042F40002A0FB02200004F8
:102360007F39140400D0401C50EA124001D44000D0
:10237000491EC2B20C0604EBD010401C4008802A53
:1023800002D003E0002010BD20F00100002900DA97
:102390000020184310BD30B480EA010202F000456D
:1023A00030F0004221F0004013D090B1C30DD40DA5
:1023B000C2F31601C0F31600E41A41F4000140F420
:1023C00000027D34914201D3641C00E04900002CDE
:1023D00002DA30BC002070474FF400000023914225
:1023E00001D3891A034340084FEA4101F7D151B1A3
:1023F000914202D14FF0004105E002D24FF00101BD
:1024000001E06FF0010103EBC450284430BC00F040
:1024100096BA2DE9FE4F804681EA0300C00F0C46B4
:10242000009021F0004123F00045B8EB0200A941E3
:1024300005D24046214690461C460B46024623F0F4
:102440000040104347D0270DC7F30A00C3F30A51D9
:102450000290401A019040286BDAC3F3130040F455
:10246000801B0098924620B10023D2EB030A63EB55
:102470000B0B01985946C0F14002504600F0DFF9BD
:1024800006460D4650465946019A00F0F7F910EB02
:1024900008006141002487EA115284EAE7731A4375
:1024A00040D0009A62B3019A012A4FEA075215DC24
:1024B000001B61EB02014FF0004202EA0752CDE936
:1024C0000042001C41F5801132462B4600F07DFA97
:1024D00003B0BDE8F08F40462146F9E7001B61EBF1
:1024E0000201001C41F5801300185B412018A2F581
:1024F000001747EB030140EAD570B6196D4111E0B2
:102500006D084FEA360645EAC0754FEA0752001BD0
:1025100061EB0201001C41F5801149084FEA3000CF
:102520000019514132462B4603B0BDE8F04F00F090
:102530003DBA0098012240000023D0EB020263EB79
:10254000E073009821464FEAE074B8EB000061EBBD
:102550000401E9E783F000435BE781F0004158E7BD
:102560002DE9FE4F81EA030404F0004421F000410C
:1025700000944FF0000B23F0004350EA01045ED0BA
:1025800052EA03045BD0C3F30A54C1F30A552C4446
:10259000A4F2F3340194A0FB0254C1F3130141F4FB
:1025A0008011C3F3130343F4801301FB024400FBC7
:1025B000034E840A970A44EA815447EA8357A4FBEE
:1025C000076802958D0A05FB07854FEA932C04FBEB
:1025D0000C542705029D4FEA065847EA1637B5EB1B
:1025E00008056EEB070C870E920E47EA811742EA48
:1025F0008312A7FB0201B6EB0B0164EB00042B0D69
:1026000043EA0C335E1844EB1C50DA465146E7FBB4
:102610000201C5F313044FEA0B3343EA14534FEAA4
:102620000432019C43EA0603A4F10C040294009CCA
:10263000CDE900B400F0C9F903B0BDE8F08F002087
:102640000146F9E72DE9F04D81EA030404F0004B5F
:1026500021F0004514464FF0000A23F0004150EAF3
:10266000050220D054EA01021DD0C5F30A570246E4
:10267000C5F31303C1F31300C1F30A5640F48015E8
:1026800043F48013A7EB0608101BD64608F2FD386A
:1026900073EB050002D308F1010801E092185B41D9
:1026A000B8F1000F03DA00200146BDE8F08D0020EC
:1026B0004FF48011064684460EE0171B73EB0507A6
:1026C00005D3121B63EB050306434CEA010C4908D2
:1026D0004FEA300092185B4150EA0107EDD152EA0F
:1026E000030012D082EA040083EA0501084305D002
:1026F000101BAB4106D20122002306E000224FF05E
:10270000004302E06FF0010253101AEB06004CEB9D
:10271000085110EB0A0041EB0B01BDE8F04D00F051
:1027200045B9C10F80EAE0700844CA07962300212A
:1027300000F00EB90EB5C10F80EAE0700844CA0778
:10274000002140F233438DE80E000A460B4600F0AC
:102750003CF903B000BD0EB540F2334102910021B7
:10276000CDE900110A460B4600F02FF903B000BD79
:1027700000F0004220F00040C10DC0F3160040F40C
:1027800000007F2901DA00207047962903DCC1F19F
:102790009601C84001E096398840002AF4D04042B2
:1027A000704770B5C1F30A5201F000450024C1F32F
:1027B000130140F2FF3341F480119A4201DA002004
:1027C00070BD40F233439A42A2F2334203DC5242DC
:1027D00000F044F800E090402C43F1D0404270BD3E
:1027E00000F0004230F000400AD0C10D01F56071E8
:1027F000C0F3160042EA0151C20840071143704776
:1028000000200146704701F0004330B421F0004140
:1028100050EA010206D00A0DA2F56072C1F313015D
:10282000002A02DC30BC00207047440F44EAC10497
:10283000C100E01830BC00EBC25000F080B8202A84
:1028400004DB203A00FA02F1002070479140C2F107
:10285000200320FA03F3194390407047202A04DB39
:10286000203A21FA02F00021704721FA02F3D04009
:10287000C2F120029140084319467047202A06DB26
:10288000CB17203A41FA02F043EAE07306E041FA3E
:1028900002F3D040C2F1200291400843194670472C
:1028A0002DE9F05F82460078002715468B460AF135
:1028B0000104B946302801D09DB113E014F8010B92
:1028C0000127782803D0582801D045B10AE00DB17E
:1028D000102D07D10027102514F8010B02E0082560
:1028E00000E00A250026B0460EE005FB080005FBC7
:1028F00006F1012701EB10461FFA80F8B6F5803F7C
:1029000000D3B94614F8010B294600F0BFF800289F
:10291000EBDABBF1000F05D00FB1641E00E05446A6
:10292000CBF80040B9F1000F06D002F043FC0221C1
:102930000160C81EBDE8F09F48EA0640FAE700299A
:10294000A8BF7047401C490008BF20F00100704735
:1029500010B4B0FA80FC00FA0CF050EA010404BF95
:1029600010BC704749B1CCF1200421FA04F411FAEB
:102970000CF118BF012121430843A3EB0C01CB1D2F
:102980004FEA00614FEA102042BF002010BC7047A0
:1029900000EBC35010440029A4BF10BC7047401C7A
:1029A000490008BF20F0010010BC704710B5141E8C
:1029B00073F1000408DA401C41F1000192185B41F8
:1029C0001A4301D120F0010010BD2DE9F04D9246CF
:1029D0009B4611B1B1FA81F202E0B0FA80F22032E6
:1029E0009046FFF72CFF04460F4640EA0A0041EAF2
:1029F0000B0153465A46084313D0114653EA0100CF
:102A000019D0C8F140025046FFF728FF05460E4690
:102A1000504659464246FFF712FF084305D00120B1
:102A200004E020463946BDE8F08D0020054346EA23
:102A3000E0762C4337430A986305E40AA0EB0800CC
:102A40000022FD0A44EA47540A3002D5002001461C
:102A5000E9E7010510196941DDE9084500196941F7
:102A6000BDE8F04DA2E70000064C074D06E0E06827
:102A700040F0010394E8070098471034AC42F6D3C5
:102A8000FFF76AFB38960008589600083A2800D2EB
:102A9000303820F02002412A01D3A2F137008842C9
:102AA00001D34FF0FF30704770B58C1810F8015B00
:102AB00015F0070301D110F8013B2A1106D110F8D7
:102AC000012B03E010F8016B01F8016B5B1EF9D1DB
:102AD0002B0705D40023521E0DD401F8013BFAE761
:102AE00010F8013BCB1A921C03E013F8015B01F8CC
:102AF000015B521EF9D5A142D8D3002070BD000061
:102B000030B58DB0002002F085FC3A4C3A49A5154D
:102B1000CDE90545089121150991002001218DF885
:102B200028108DF81C008DF8290005200B90480313
:102B30000C90142208A96846FFF730FB2A4621466C
:102B40000020079B02F094FC002002F057FC0020BC
:102B500002F00CFD002002F045FC02F07DFB254850
:102B60004838016841F480710160001D016821F05E
:102B700002010160016841F400010160016841F453
:102B8000807101600121084602F07EFB4FF4602154
:102B9000012002F097FB002002F050FB05210120EC
:102BA00002F02EFB00210722084602F0BDFB0121A6
:102BB0000722084602F0B8FB02210722084602F06D
:102BC000B3FB07221021032002F0AEFB07221121E4
:102BD000042002F0A9FB14224021002002F086FB11
:102BE00002F09AFB02F044FB012002F0DFFB0DB083
:102BF00030BD00004C240140B80B002010B50A4C39
:102C0000022300221946204602F0CDFD02230122B4
:102C10000021204602F0EAFD20460222BDE81040D5
:102C2000012102F051BD000000040048FEE7000051
:102C3000304810B541684160416841604168416079
:102C400041682D4A11404160416841F48011416062
:102C5000016841F08071016001688901FCD541681B
:102C600021F003014160416841F002014160416887
:102C70000907FCD5416B41F001014163016B21F46F
:102C800080310163016B21F480710163032003F043
:102C900099F840F2045003F06BF840F2025003F050
:102CA00067F840F2115003F055F840F2125003F06B
:102CB00051F840F2165003F04DF84FF4A06003F0C5
:102CC00049F840F20C6003F045F840F2017003F05F
:102CD00041F840F21C7003F03DF840F2096003F047
:102CE00039F840F20E6003F035F8BDE8104002F00C
:102CF0002DB8000000100240FFFFC27770B5431AE4
:102D000000D55B42A0F601224FF49A754FF4C776C6
:102D1000A0F29114642B09DAB44201D8092070BDE5
:102D2000AA4201D8062070BD032070BDB44204D869
:102D3000B1F5967F01DA072070BD40F2BB2640F660
:102D4000B833B44203D2994201DD0A2070BDA0F22B
:102D50006374F92C08D2B1F5206F05DD40F63634E6
:102D6000A14201DA042070BDAA4209D840F2627281
:102D7000914205DD40F65C02914201DA052070BD0A
:102D8000984208DDB1F5C87F05DD40F24C40814234
:102D900001DA082070BD002070BD000030B5144B72
:102DA00014481A6A0260596A41609C6A8460DD6A4C
:102DB000104BC560803B4FF0FF305B6A8A4202DDFA
:102DC0008B4203DA12E004DA8B4210DA93420EDD12
:102DD0000CE008498039AC42896A02DDA94203DA75
:102DE00004E004DAA94202DAA14200DD002030BD8D
:102DF000C8060020A8000020F0B56E4900206E4AE9
:102E00000D686E4E6E4C431E954203D334601846D7
:102E10000C6000E035604D68954201D318464C6067
:102E20008D68954201D318468C60CD68954201D3D8
:102E30001846CC600E69634D964203D32C60184649
:102E40000C6100E02E604D69954201D318464C613B
:102E50008D69954201D318468C61CD69954201D3A5
:102E60001846CC610A6A584D561C4FF000047DD0BC
:102E70002A604A6A554D561C79D02A608A6A544D98
:102E8000561C75D02A60CA6A524D561C71D02A60F1
:102E90000A8E1AB144F62065AA4202D90C2008868F
:102EA00018464D8E4FF6FF72954201D140F296556D
:102EB0004D868E8E4FF47A75964200D12E468E86C0
:102EC000CE8E964201D14FF49666CE860E8F022E9C
:102ED00000D300260E87B1F840703F4EAF4203D8B2
:102EE000B1F94070B74202DAA1F840401846B1F893
:102EF0004270AF4203D8B1F94250B54202DAA1F8AC
:102F000042401846B1F84440944200D10124A1F84F
:102F10004440B1F84640944200D10024A1F8464014
:102F2000B1F84850954200D10025A1F84850B1F8B9
:102F30004A50954200D10425A1F84A50B1F84C50AE
:102F4000954200D10125A1F84C50B1F84E50954260
:102F500000D10125A1F84E50B1F85060964200D141
:102F60000126A1F85060B1F8526003E016E018E0C5
:102F70001AE01CE0964200D10126A1F85260B1F897
:102F80005460964200D10026A1F854600CB1134958
:102F90000B60134A05F003011170F0BD0C622C6048
:102FA00067E74C622C6069E78C622C606BE7CC624F
:102FB0002C606DE7C806002080969800B8000020BD
:102FC000A0860100BC000020A8000020AC0000206A
:102FD000B0000020B400002018FCFFFF70000020AB
:102FE00025000020FFF7FEB810B50221002002F0F6
:102FF00089FA012805D10221BDE81040002002F025
:1030000077BA10BD7047000030B5064A11694AF61C
:10301000AA23054C01E0236000BF15696D1A8542A3
:10302000F9D330BD280000200030004001B5BDF8C4
:1030300000004FF6FF7101EA8000ADF80000BDF816
:103040000000001DADF80000BDF80000411EADF805
:103050000010F9D208BD00002DE9F04100250E4610
:103060000746402A01D9402201E002B90122144654
:10307000022000F043FCA021022000F00DFC88B9E2
:10308000390A022000F008FC60B9F9B2022000F011
:1030900003FC38B9022000F031FCA121022000F02D
:1030A000FBFB10B10220BDE8F081641E08E000BF08
:1030B00000F0BCFB7055022000F080FB6D1CEDB2EF
:1030C000A5424FF00200F3DB00F0B0FB7055022088
:1030D00000F090FB022000F031FC0020E3E700004C
:1030E00070B50D460646402A01D9402201E002B9DA
:1030F00001221446022000F001FCA021022000F071
:10310000CBFB88B9310A022000F0C6FB60B9F1B2EE
:10311000022000F0C1FB38B90AE000BF15F8011B1E
:10312000022000F0B9FB08B1022070BD641EE4B2B9
:10313000002CF3D1022000F001FC002070BD000043
:1031400010B50A490A4B00204FF47F4403EBC0122C
:10315000B2F8002CA24202D10880012010BD401C10
:1031600080B20828F2D30020088010BD00000020A3
:10317000001000080C4830B401780C4A01F0070137
:10318000018000200A4BC90101EB40041444B4F84B
:10319000024C23F81040401C80B23F28F4D330BCCE
:1031A0003F21034800F0BBBC0000002000100008D5
:1031B000C8060020024AC0B232F8100008807047EA
:1031C000C80600202DE9F041244C00254FF6FF777A
:1031D000207800F00700208002F03EFA2088204E80
:1031E000002106EBC01002F0D7F920781D4A401CE0
:1031F00000F0070002EBC0112080B1F8001CB942BA
:1032000005D006EBC01002F0E9F90020208080B262
:1032100006EBC0104FF47F4102F0BEF93E21124888
:1032200000F07DFC104EDFF83880A6F87C0008F135
:1032300002082088C00100EB450101EB080036F8C8
:10324000151002F0A9F96D1CADB207463F2DF0D361
:1032500002F0BCF93846BDE8F08100000000002013
:10326000001C000800100008C8060020024608469E
:10327000D1B2024A22F8110070470000C8060020AF
:10328000704700000348016821F00401016030BF6D
:103290007047000010ED00E070B54FF090463046EA
:1032A00002F04EFA5D4C204602F04AFA5C4D284688
:1032B00002F046FA01231A461946284602F073FA2C
:1032C000012202231146284602F06DFA01231A4614
:1032D0001946284602F08AFA01220223114628469E
:1032E00002F084FA012300220321304602F05BFA47
:1032F000022300220321304602F055FA0423002263
:103300000321304602F04FFA0122082311463046CD
:1033100002F049FA012210231146304602F043FA26
:10332000012240231146304602F03DFA08230122D3
:103330000021304602F05AFA1023012200213046C3
:1033400002F054FA402303220021304602F04EFAE4
:10335000202300220221304602F025FA8023002299
:103360000221304602F01FFA2023032200213046BA
:1033700002F03CFA802303220021304602F036FAA4
:1033800020220021304602F09FF9802200213046A1
:1033900002F09AF902231A460121204602F003FAAC
:1033A000022301220021204602F020FA02212046B9
:1033B00002F0BCF94FF4007423460122022130468A
:1033C00002F0F1F965002B4601220221304602F09D
:1033D000EAF9234601220021304602F007FA2B4683
:1033E00001220021304602F001FA22460121304636
:1033F00002F06AF92A460121304602F065F92301FC
:1034000001220021304602F0CEF963013046BDE8CA
:1034100070400122002102F0C6B9000000040048FB
:10342000001400482DE9F041203AD6B201F10F0214
:10343000D3B2C21D164D0024D2B200F001FE2C20E2
:1034400000F09DFE1348002100EB0617124E785C39
:103450000022C30701D0738800E0B388521C4FEAF2
:10346000132C05F804C005EB040CA41C4008D2B2D0
:103470008CF80130A4B2082AEBD3491CC9B2102938
:10348000E5D32846BDE8F0414FF4807100F060BEFE
:1034900088070020F4860008C80000202DE9F041CC
:1034A0002E4D0024A2F13003092B01D8DEB214E026
:1034B000412A2CD008DC202A0ED02D2A31D02E2AE9
:1034C00021D03A2A08D128E0562A1ED0572A20D0E7
:1034D000682A20D06D2A22D00A2601F11F02D3B219
:1034E00000F10F02D2B200F0ABFD2C2000F047FE3D
:1034F0001B48002100EB86171A4E785C0022C30798
:1035000011D0738810E00B26E7E70C26E5E70D26BF
:10351000E3E70E26E1E70F26DFE71026DDE71126B9
:10352000DBE71226D9E7B388521C4FEA132C05F8C3
:1035300004C005EB040CA41C4008D2B28CF8013086
:10354000A4B2082ADBD3491CC9B24029D5D32846E6
:10355000BDE8F0414FF4806100F0FABD880700201B
:10356000048D0008C80000202DE9F0411C461546D6
:103570000F46064608E0394630466D1CFFF752FFFD
:103580000836641EF6B2E4B22A78002A01D0002C74
:10359000F1D1BDE8F0812DE9F0411C4615460F46FA
:1035A000064608E0394630466D1CFFF777FF1036B7
:1035B000641EF6B2E4B22A78002A01D0002CF1D1C0
:1035C000BDE8F0812DE9F0414FF6E0710022384C62
:1035D0004E114FF4FC654FF61F07042803D0052851
:1035E00040D0062861D1A2806180314A0021102399
:1035F000921D0846FFF7B8FF2D4A102316321946D0
:103600000020FFF7B1FF2A4A6580102326322021CF
:103610000020FFF7A9FF264A102336323021002070
:10362000FFF7A2FF224A6680102346324021002085
:10363000FFF79AFF1E4A1023563250210020FFF751
:1036400093FF1B4A67801023663260210020FFF73A
:103650008BFFBDE8F041164A10237632702100201E
:10366000FFF782BFA2806180114A002108238632C1
:103670000846FFF790FF0E4A658008238E3220210E
:103680000020FFF788FF0A4A66800823963240210F
:103690000020FFF780FF6780BDE8F041044A08235F
:1036A0009E3260210020FFF776BFBDE8F081000068
:1036B000C80000200B281BD2DFE800F01A06080A19
:1036C0000C0E1012141618000AA070470BA07047B9
:1036D0000CA070470DA070470EA070470FA0704758
:1036E00010A0704711A0704712A0704713A0704738
:1036F00014A07047534450302E354100434450319C
:103700002E354100444350312E35410041504C206C
:103710002031410041504C322E31410041504C3259
:103720002E3441002051433220355600205143327F
:103730002039560051433220313256002020514367
:10374000332E3000554E4B4E4F574E0018B10128C6
:1037500003D003A0704705A0704707A07047000082
:103760004E6F742053657420000000005374616E26
:1037700064617264000000004869676820526573E4
:1037800000000000074801880748B1F5804F01D2CA
:1037900000687047B1F5004F01D2406870478068FB
:1037A00070470000B80B0020C806002002480068DF
:1037B000C00700D000BEFEE7F0ED00E010B50C4CF5
:1037C0000221204601F0B2FF0320FFF72FFC012168
:1037D000204601F0ADFF0520FFF728FC012120461F
:1037E00001F0A4FFBDE810400220FFF71FBC00005D
:1037F0000014004810B50C4C0221204601F098FF3F
:103800000320FFF713FC0121204601F091FF052062
:10381000FFF70CFC0121204601F088FFBDE81040B5
:103820000220FFF703BC00000014004870B5194ED9
:1038300000240221304601F07BFF00250120FFF724
:10384000F5FB0121304601F071FF0520FFF7EEFB8B
:103850000121304601F06CFF0320FFF7E7FB022156
:10386000304601F09BFF61060C0EC00701D0641CBE
:10387000E4B20220FFF7DAFB6D1CEDB2082DDDD3B8
:103880000121304601F052FF0220FFF7CFFB204616
:1038900070BD0000001400482DE9F041164E0D46A1
:1038A0000746002405FA04F0C0F3C0120221304696
:1038B00001F040FF0120FFF7B9FB0121304601F084
:1038C00037FF0520FFF7B2FB0121304601F02EFF44
:1038D000641CE4B2082CE5D30220FFF7A7FB022109
:1038E000304601F025FF0220FFF7A0FB3846BDE877
:1038F000F04100F03BB800000014004810B50E4C39
:103900000221204601F014FF0121204601F010FFA2
:103910000520FFF78BFB0221204601F007FF052061
:10392000FFF784FB0121204601F000FFBDE81040B5
:103930000220FFF77BBB00000014004810B50A4CC2
:103940000221204601F0F2FE0121204601F0F0FEA6
:103950000520FFF76BFB0221204601F0E9FEBDE8E0
:1039600010400420FFF762BB0014004870B50B4DF7
:103970000121284601F0DCFE0320FFF757FB02215E
:10398000284601F00BFF04460121284601F0CEFE37
:103990000220FFF74BFB204670BD000000140048DA
:1039A00070B500F02DF8054600F042F9044600F02D
:1039B00011FC012D03D045B1022D0DD00FE014B143
:1039C000012C16D00BE0032070BD012C02D0022C7C
:1039D0000DD004E0052070BD3CB1022C0BD00128B5
:1039E0000BD0022809D0002070BD042070BD062035
:1039F00070BD072070BD082070BD092070BD00009B
:103A000010B500244FF400514FF0904001F0C6FE75
:103A10000A490028087808D0642801D3022402E06B
:103A20000A2800D30124002004E0421C0A70642804
:103A300001D364200870204610BD0000C40000209F
:103A400070B506460C004FF0000039D020603046BB
:103A5000FFF754FFD1213046FFF71EFF3046FFF736
:103A6000E5FE05463046FFF7A9FE2068A90702D506
:103A70004FF07F4100E00021084340EA054020600C
:103A80003046FFF7D3FE05463046FFF797FE206825
:103A900040EA052020603046FFF7C8FE0546304664
:103AA000FFF78CFE2068284320603046FFF7BEFEFB
:103AB00004463046FFF79EFE3046FFF73FFF2046A4
:103AC00070BD70B50C460546FFF718FFD02128469B
:103AD000FFF7E2FE21462846FFF7DEFE2846BDE856
:103AE0007040FFF72BBFFEE770B5064600224FF689
:103AF000FF704AF201040FE0B35C58405FF000032E
:103B000010F0010F4FEA500000D060405B1C9BB2E8
:103B1000082BF5D3521C92B28A42EDD370BD70B51A
:103B2000064600224FF6FF704AF201040FE036F815
:103B300012305840002310F0010F4FEA500000D01F
:103B400060405B1C9BB2082BF5D3521C92B28A4298
:103B5000EDD370BD704710B54FF4A06001F0A8FF21
:103B600001220021092001F063FF0122BDE810407D
:103B700011461B2001F05CBF70470000024901485C
:103B8000086070470020000808ED00E02148204947
:103B9000224A0160204840F8181B40F8141C40F8E5
:103BA000101C40F80C1C116040F8081C40F8041C64
:103BB00001601B4A4160002111601A4A8160116056
:103BC000194AC1601160194A016111600C224161FA
:103BD000028340F2965242834FF47A7282834FF40A
:103BE0009662C28301840185418501228285C18557
:103BF00001860421418682860221C186028742878E
:103C00004FF4E15181874FF68001C1877047000072
:103C1000A0860100B8000020C8060020BC000020DB
:103C2000A8000020AC000020B0000020B40000205C
:103C300010B500244FF480414FF0904001F0AEFDEC
:103C40000A490028487808D0642801D3022402E0F9
:103C50000A2800D30124002004E0421C4A70642892
:103C600001D364204870204610BD0000C40000202D
:103C700030B595B0022001F0CDFB194D0024CDE9FF
:103C8000055401208DF828008DF829008DF81C407E
:103C9000089409944003CDE90B40142208A9684612
:103CA000FEF77CFA224629460220079B01F0E0FB42
:103CB0004FF482700D904FF44040CDE90E0468152A
:103CC000CDE910040320CDE91204054C0DA90C3CEC
:103CD000204602F011F9204602F002F915B030BD7D
:103CE0000C300140F8B50D46FF218DF8001001465B
:103CF0000024022001F030FC2946022001F042FCA1
:103D0000124D0021284602F0E1F8022001F06AFB82
:103D10004FF4FA7606E0641CA4B20A20FFF786F995
:103D2000B44205D80221084601F096FB0028F2D0E3
:103D3000022001F04BFB0021284602F0BDF8BDE84F
:103D4000F8400221084601F07DBB00000030014030
:103D50002DE9F041074600240B4D4FF4FA7606E0BA
:103D6000641CA4B20A20FFF761F9B44205D802210D
:103D7000284602F0BCF80028F2D03946284602F066
:103D8000B4F8FF20BDE8F081003001402DE9F0419A
:103D90000021030A124AC0B202EB410402F81130BA
:103DA000491C89B260708029F6D37F2300211A460E
:103DB000084600F045F92C2000F0E1F9094E0024F6
:103DC0004FF480774AF6AA253946054800F0C0F935
:103DD0003560641CA4B2802CF6D3BDE8F0810000ED
:103DE000880700200030004010B54FF090441021AB
:103DF000204601F09DFC0120FFF706F91021204626
:103E000001F094FC0120FFF7FFF81021204601F09B
:103E10008FFC0C20FFF7F8F8112000F0B0F90C200F
:103E2000FFF7F2F8B12000F0AAF9022000F0BCF987
:103E3000352000F0B9F9362000F0B6F9B22000F0D4
:103E40009EF9022000F0B0F9352000F0ADF93620DF
:103E500000F0AAF9B32000F092F9022000F0A4F9D2
:103E6000352000F0A1F9362000F09EF9022000F084
:103E70009BF9352000F098F9362000F095F9B42030
:103E800000F07DF9032000F08FF9C02000F077F9F1
:103E9000A22000F089F9022000F086F9842000F0C9
:103EA00083F9C12000F06BF9C52000F07DF9C22034
:103EB00000F065F90D2000F077F9002000F074F9AA
:103EC000C32000F05CF98D2000F06EF92A2000F08C
:103ED0006BF9C42000F053F98D2000F065F9EE2055
:103EE00000F062F9C52000F04AF90A2000F05CF900
:103EF000362000F044F94248007830B1012806D05D
:103F0000022878D0032805D177E0A82000E0C82057
:103F100000F04AF9E02000F032F9122000F044F9F4
:103F20001C2000F041F9102000F03EF9182000F0AC
:103F30003BF9332000F038F92C2000F035F925202A
:103F400000F032F9282000F02FF9282000F02CF999
:103F5000272000F029F92F2000F026F93C2000F05E
:103F600023F9002000F020F9032000F01DF90320C0
:103F700000F01AF9102000F017F9E12000F0FFF826
:103F8000122000F011F91C2000F00EF9102000F0B2
:103F90000BF9182000F008F92D2000F005F9282071
:103FA00000F002F9232000F0FFF8282000F0FCF8D0
:103FB000282000F0F9F8262000F0F6F82F2000F075
:103FC000F3F83B2000F0F0F8002000F0EDF80320BB
:103FD00000F0EAF8032000F0E7F8102000F0E4F821
:103FE0003A2000F0CCF8052000F0DEF8BDE81040E3
:103FF000292000F0C4B868208AE7082088E700007C
:104000002500002010B50D4C00F003002070362074
:1040100000F0B5F8207850B101280AD002280AD063
:1040200003280AD10820BDE8104000F0BDB8A82040
:10403000F9E7C820F7E76820F5E710BD2500002064
:104040002DE9F84F074641480E461C460178B01C42
:1040500000F0FF0B981C154600F0FF0A71B3B81C66
:1040600000F0FF09A81C00F0FF08012933D0022945
:104070004DD0032920D12A2000F081F800258DF8A9
:1040800000508DF801908DF802508DF803800421C6
:10409000684600F05DF82B2000F071F8761C8DF872
:1040A00000508DF801608DF80250641C8DF80340BB
:1040B0000421684600F04CF8BDE8F88F2A2000F093
:1040C0005EF80024FF1C8DF800408DF801708DF81B
:1040D0000240ED1C27E02A2000F051F800258DF861
:1040E00000508DF801908DF802508DF80380042166
:1040F000684600F02DF82B2000F041F8F61C8DF8F2
:1041000000508DF801608DF80250E41CCEE72A20A3
:1041100000F035F800247F1C8DF800408DF8017008
:104120008DF802406D1C8DF803500421684600F0A4
:104130000FF82B2000F023F88DF800408DF801B027
:104140008DF802408DF803A0B2E7000025000020A2
:1041500070B50D4606464FF090444021204601F0D0
:10416000E5FA0821204601F0E3FA29463046FFF738
:10417000B9FD2046BDE87040402101F0D9BA70B5C4
:1041800005464FF090444021204601F0CFFA082127
:10419000204601F0CBFA2846FFF7DAFD2046BDE8BD
:1041A0007040402101F0C4BA70B505464FF090440C
:1041B0004021204601F0BAFA0821204601F0B8FA61
:1041C0002846FFF7C5FD2046BDE87040402101F0BC
:1041D000AFBA7047044A002091784B1C9370642951
:1041E00001D3642191707047C400002010B53721BD
:1041F0000448FFF794FC034C24F86E0FFEF7E2FF2F
:10420000208810BDC80600204FF47A72B0FBF2F38C
:1042100010B50A22B3FBF2F402FB143330330B70F7
:104220002E234B706423B0FBF3F3B3FBF2F402FBD9
:10423000143330338B70B0FBF2F3B3FBF2F402FBB8
:1042400014333033CB70B0FBF2F302FB1300303089
:10425000087110BDF0B52E23002806DA3020087052
:104260008B704870C870087119E0494F0A226425A4
:1042700042F210764FF47A74B84212DA90FBF6F6F6
:1042800096FBF2F702FB176630360E704B7090FB10
:10429000F4F393FBF2F402FB1433303316E048716D
:1042A000F0BD3C4FB84222DA90FBF2F090FBF6F6FC
:1042B00096FBF2F790FBF4F402FB176630360E70B3
:1042C00094FBF2F602FB164430344C708B7090FB7A
:1042D000F5F393FBF2F402FB14333033CB7090FB15
:1042E000F2F393FBF2F402FB1433303342E02A4F33
:1042F000B8421ADA90FBF5F090FBF6F696FBF2F76F
:1043000090FBF4F402FB176630360E7094FBF2F665
:1043100002FB164430344C7090FBF5F494FBF2F53C
:1043200002FB154430348C70D8E71C4FB84228DAB1
:1043300090FBF4F090FBF6F696FBF2F790FBF4F4AA
:1043400002FB176630360E7094FBF2F602FB164441
:1043500030344C7090FBF5F494FBF2F502FB1544FD
:1043600030348C7090FBF2F494FBF2F502FB1544B0
:104370003034CC700B7190FBF2F302FB1300303041
:104380008DE73920087048708870C8700B7186E717
:10439000A086010040420F008096980000E1F505DC
:1043A0000A2290FBF2F310B593FBF2F402FB1433F4
:1043B00030330B7090FBF2F302FB13003030487087
:1043C00010BD00002DE9F04F0A226424DFF8BCC1C3
:1043D000DFF8BC91DFF8BCA12E256F4F42F21076BA
:1043E0004FF47A734FF0390B002848DBB84201DAFA
:1043F000202708E0604515DA90FBF7F797FBF2FC01
:1044000002FB1C7730370F7040E000BF90FBF2F3E7
:1044100093FBF2F402FB143330334B71A9E0887143
:10442000BDE8F08F48450ADA90FBF2F090FBF7F711
:1044300097FBF2FC02FB1C7730370F703CE05045D5
:104440000ADA90FBF4F090FBF7F797FBF2FC02FB23
:104450001C7730370F704DE0DFF840C160450ADA55
:1044600090FBF3F090FBF7F797FBF2FC02FB1C7755
:1044700030370F705CE0584681F800B080E0404271
:104480004FF02D0881F80080B84211DA90FBF6F663
:1044900096FBF2F790FBF3F302FB176630364E7093
:1044A0008D7093FBF2F502FB15333033CB7014E0C3
:1044B00060451BDA90FBF2F090FBF6F696FBF2F704
:1044C00090FBF3F302FB176630364E7093FBF2F667
:1044D00002FB163330338B70CD7090FBF4F393FBFB
:1044E000F2F402FB143330330B718FE748451BDACB
:1044F00090FBF4F090FBF6F696FBF2F790FBF3F3EB
:1045000002FB176630364E7093FBF2F602FB163351
:1045100030338B7090FBF4F393FBF2F402FB143313
:104520003033CB700D7171E7504528DA90FBF3F012
:1045300090FBF6F696FBF2F790FBF3F302FB17669F
:1045400030364E7093FBF2F602FB163330338B702D
:1045500090FBF4F393FBF2F402FB14333033CB7093
:1045600090FBF2F393FBF2F402FB143330330B7144
:104570004D7190FBF2F302FB130030304FE75846C9
:1045800048708870C87008714D7148E740420F004C
:104590008096980000E1F505A086010000CA9A3BCC
:1045A00070B50023002801DA5B1E4042244A90FBCC
:1045B000F2F40A2294FBF2F502FB1544214D30344B
:1045C00090FBF5F595FBF2F602FB1655E4B20C7084
:1045D00030354D702E258D7042F2107590FBF5F53B
:1045E00095FBF2F602FB16553035CD704FF47A7517
:1045F00090FBF5F595FBF2F602FB165530350D7183
:10460000642590FBF5F595FBF2F602FB1655303567
:104610004D7190FBF2F595FBF2F602FB1655303525
:104620008D7190FBF2F502FB15003030C8710BB1B3
:104630002D2002E0302C01D12020087070BD000038
:1046400040420F00A086010030B50023002802DAA6
:104650005B1E404200B2642290FBF2F40A2294FBFB
:10466000F2F502FB154430340C7090FBF2F494FB2D
:10467000F2F502FB154430344C7090FBF2F402FB6F
:10468000140030308870002020220C5C302C04D1C3
:104690000A54401CC0B20228F7D3002B05D00028D2
:1046A00003D008442D2200F8012C30BD30B5002382
:1046B000002801DA5B1E404242F2107290FBF2F4D5
:1046C0000A2294FBF2F502FB154430340C704FF4CF
:1046D0007A7490FBF4F494FBF2F502FB1544303449
:1046E0004C70642490FBF4F494FBF2F502FB154447
:1046F00030348C7090FBF2F494FBF2F502FB15441D
:104700003034CC7090FBF2F402FB140030300871AE
:10471000002020220C5C302C04D10A54401CC0B272
:104720000428F7D3002B05D0002803D008442D22FD
:1047300000F8012C30BD000030B50023002801DA5C
:104740005B1E4042284A90FBF2F40A2294FBF2F5E9
:1047500002FB154430340C70244C90FBF4F494FBB1
:10476000F2F502FB154430344C7042F2107490FBA9
:10477000F4F494FBF2F502FB154430348C704FF4E2
:104780007A7490FBF4F494FBF2F502FB1544303498
:10479000CC70642490FBF4F494FBF2F502FB154416
:1047A00030340C7190FBF2F494FBF2F502FB1544EB
:1047B00030344C7190FBF2F402FB140030308871FD
:1047C000002020220C5C302C04D10A54401CC0B2C2
:1047D0000628F7D3002B05D0002803D008442D224B
:1047E00000F8012C30BD000040420F00A0860100FF
:1047F0000B4A10B51368C0F3032403EB10331B7886
:104800000B7013681B5D4B701368C0F3031400F04A
:104810000F001B5D8B701268105CC87010BD00002B
:10482000180000200F4A10B51368C0F303541B5D35
:104830000B701368C0F303441B5D4B701368C0F327
:1048400003341B5D8B701368C0F303241B5DCB70B6
:104850001268C0F3031300F00F00D35C0B71105CFF
:10486000487110BD180000202DE9F0413E4C3D4834
:1048700000263B4F20223DA1E064FEF7B3FB04F18C
:104880008008E16CD8F81000491DFFF789FE404D03
:10489000E16CB5F940000D313435FFF7D5FEE16C20
:1048A000D8F814001531FFF77BFEE16CB5F90E0066
:1048B0001D31FFF7C9FE2B482022203035A1E064CE
:1048C000FEF790FB287CE16C00F0010030300872AC
:1048D000A87C00F001003030C873287D00F0010092
:1048E0003030C877688C1531FFF782FF1D482022D1
:1048F000403031A1E064FEF775FBE16C2888491D6A
:10490000FFF7D4FEA87EE16C3030C873288C1531D7
:10491000FFF7CCFEE16C60891B31FFF7C7FE114940
:1049200012206031E164FFF73BFDE16C2E25082089
:104930008D70C91CFFF734FDE16C1E204D71891D7F
:10494000FFF72EFDE06C00EB860137F8160008310A
:10495000FFF74EFF761CF6B2062EF3D3BDE8F081CA
:10496000ACF7FF1FCE000020280000205541444A2C
:104970003D20312E30303030302020304941444A03
:104980003D20312E3030303030202030000000000B
:10499000C80600204543484F3D3030303120415556
:1049A000544F3D30424B4C543D46383830205249EC
:1049B0004E473D300000000057414B453D313233FA
:1049C0003435204449523D32535442593D313233FB
:1049D00034352031323334350000000070B5344CAA
:1049E0003248082233A1E064FEF7FCFAE16C606A09
:1049F000491CFFF7E7FCE16C56200822C8712B48E0
:104A00002FA10830E064FEF7EDFAE16CA06AFFF731
:104A1000D9FC2E4D6D26288F012801D1E06C8671BE
:104A20002248082210302AA1E064FEF7DBFAE16C8C
:104A3000E06AFFF7C7FCE06C41218171298F0129F1
:104A400000D1467119480822183024A1E064FEF70D
:104A5000C9FA60694FF4616190FBF1F0642190FB49
:104A6000F1F201FB120000B2E16CFFF799FC606902
:104A70003C2590FBF5F090FBF5F105FB1100E16C96
:104A800000B2C91CFFF78CFC606990FBF5F105FBD7
:104A90001100E16C00B2891DFFF782FCE06C017827
:104AA000302901D12021017070BD00004E0100208D
:104AB000280000202030302E30303056000000001A
:104AC00020302E303030304100000000C806002079
:104AD00020302E30303041680000000020303A3065
:104AE000313A30320000000010B50B4C094820224A
:104AF0000AA1E064FEF776FAE16C20890A31FFF73B
:104B0000D5FD0F48E16CB0F94C00BDE810401B31F9
:104B1000FFF79ABD2E01002028000020204C6F676F
:104B2000436F756E743A20202020302020496E7427
:104B3000657276616C3A20202031732000000000FD
:104B4000C806002070B5274C2548202226A1E06425
:104B5000FEF748FAE16CE06AFFF734FCE16C206B89
:104B60001031FFF72FFC2949606990FBF1F06421B7
:104B700090FBF1F201FB1200E16C00B20A31FFF789
:104B80000FFC60694FF4616190FBF1F0182190FB1C
:104B9000F1F201FB1200E16C00B20D31FFF700FCF5
:104BA00060693C2590FBF5F090FBF5F105FB1100E9
:104BB000E16C00B21A31FFF7F3FB606990FBF5F18D
:104BC00005FB1100E16C00B21D31FFF7E9FB104855
:104BD000008F012803D1E16C6D208871887570BD4C
:104BE000EE0000202800002020302E3030303041F0
:104BF000682030306430306820302E30303030570C
:104C0000682030306D3030730000000080510100AA
:104C1000C806002010B5164C1448202215A1E064E7
:104C2000FEF7E0F9E16C606A491CFFF7CBFBE16C31
:104C30005620C8711031A06AFFF7C4FBE16CE06B2D
:104C40000931FFF707FBE16C206C1931FFF702FB1C
:104C5000E06C8021C1771049098F012904D16D21B1
:104C6000817381756B21C17710BD0000CE000020DB
:104C7000280000202030302E3030305620302E30AA
:104C80003030305720302E303030304120393939F3
:104C9000392E395200000000C806002010B5164C0D
:104CA0001448202244F84C0F14A1FEF79BF9A08B66
:104CB000216880B2C91CFFF7A7FA208E216800B2D4
:104CC0000B31FFF7C1FCA08C216880B21331FFF7D4
:104CD0009BFA14F84B0CFEF7EDFC01462068072206
:104CE0001930FEF77FF9206856217F22C171827347
:104CF000C17510BD0E0100202800002020442B317A
:104D00002E3635562020203031326F4320442D314D
:104D10002E36355620554E4B4E4F574E0000000054
:104D200007490A880749B2F5804F01D208607047E9
:104D3000B2F5004F01D248607047886070470000AC
:104D4000B80B0020C806002003F044BA3FB51BA3EF
:104D50000FCB8DE80F001D4841681D4B1D4AC1F364
:104D6000810119B1012901D0022901D013601CE091
:104D700041684468C1F38341C4F3C065C46AE40F69
:104D80000DB1113100E0891C04B11F314468C4F336
:104D900000443CB1C46A04F00F04641CB3FBF4F398
:104DA0004B43E3E70C4B5943116040681168C0F373
:104DB00003101DF80000C14011603FBD000000005D
:104DC0000000000001020304060708090010024069
:104DD00000127A00C000002000093D002048016850
:104DE00041F00101016001688907FCD541681D4A55
:104DF0001140416041681C4A1140416001681B4AF2
:104E000011400160C16A1A4A1140C162016B40F24F
:104E1000031291430163016B21F480310163016B43
:104E200021F000410163416B21F001014163D0F8A1
:104E3000C01021F48031C0F8C01000218160C0F89A
:104E4000CC104168416041684160416841604168FF
:104E500021F00301416041684160406870470000F3
:104E6000001002400C00FF08FFFFC277FFFFF2FEB8
:104E7000F0FFFF3F2DE9F05F044600270E46A4F83F
:104E80004671BA46FDF780F9006804F1C40B04F1DD
:104E90004405805D10F03E0F4FF0010013D0A4F8E0
:104EA00046010AF80560B4F84A01402832D230467B
:104EB000FDF76EF9B4F84A110246481CA4F84A01FD
:104EC00001F80B2026E002214FF0200E4FF00308DE
:104ED000082E2BD0DFF85C910D2E35D00A2E19D07C
:104EE000032E17D0102E15D01B2E61D01D2E69D089
:104EF000514A126802EB161393F800C0A4F8460159
:104F000006F00F030AF805C0D25C4255A4F84681AA
:104F100001F805E094F8460100F03F00A4F84601CE
:104F20004648B0F8440000287AD17DE008220AF80B
:104F3000052000F805E0A4F846814A55B4F84A0176
:104F40000028E7D0401E30E00D230AF805300A2281
:104F5000A4F846114255B4F84A01402822D200F87C
:104F60000BA0A4F84AA14FF0FF302060B4F94C0127
:104F70008022C11700EB517121F00701401AA4F8FB
:104F80004C0109EBC0105946FDF72CF9B4F94C015E
:104F9000401CC11700EB517121F00701401AA4F821
:104FA0004C01B7E7504684F803A1A4F84A01B1E7E1
:104FB000B4F84C01401E00B2A4F84C0100280CDAF1
:104FC000083008E0B4F84C01401C00B2A4F84C01D1
:104FD000082802DB0838A4F84C01B4F94C018022FF
:104FE00009EBC0115846FDF7FDF85846FDF706F9E4
:104FF000A4F84A01B4F94C01802209EBC0112846FB
:10500000FDF7F0F82846FDF7F9F8A4F8460181E726
:1050100006E0E01990F8440003F0FEF97F1CFFB2AF
:10502000B4F84601B842F4D80549FF20A1F800A021
:10503000BDE8F09FC802002018000020C80600202C
:105040003200002030B51E4D89B0284602F054FDD4
:1050500040F24F70ADF810000024FF200690ADF82C
:105060001C40ADF81240ADF814408DF81E4004A964
:10507000284602F081FD012000900420ADF80400D4
:105080000220ADF80600ADF80840C001ADF80A00F6
:10509000ADF80C406A460321284602F001FC069850
:1050A00003214208284602F018FD702203212846F9
:1050B00002F0ECFC284602F059FD09B030BD0000BA
:1050C00000040040C0F1FF020321014802F005BDC9
:1050D0000004004005480068800606D503480830F3
:1050E0000068C1B20248FFF7C5BE70471C380140D6
:1050F0007801002005494520086004492D200C391D
:105100000860044902480860704700000C380140FC
:10511000198400081C0000200D4810B500780428F0
:1051200007D005280FD0062811D1BDE81040FFF7A1
:105130009BBBFFF76FFDFFF705FDFFF7AFFDBDE878
:105140001040FFF7D1BCBDE81040FFF747BC10BDD1
:10515000280000200C480D49007810F003020C488C
:105160000ED0012A09D0022A04D0032A01D14969AC
:1051700001617047496941617047496981617047C0
:105180004969C1617047000024000020A800002088
:10519000C8060020FEE7000010B5032140F6A66017
:1051A00000F06AFA02494CF6CC40086010BD0000DD
:1051B00000300040004870477401002002E008C839
:1051C000121F08C1002AFAD170477047002001E081
:1051D00001C1121F002AFBD1704700000748016877
:1051E00041F00801016001680907FCD4016841F041
:1051F0000401016001684907FCD47047082401409C
:105200000905A1F5801101280CD0022809D10A480E
:10521000026822F44012026001F440110268114356
:105220000160704704480C38026822F47002026082
:1052300001F47001F2E7000038240140054900281C
:10524000086802D040F4006001E020F400600860CB
:10525000704700000824014010B540F20934204690
:1052600000F0A2FD2046BDE8104000F08FBD000018
:1052700004480168C90703D1016841F001010160D8
:1052800070470000082401400D4A00294FEAC07110
:105290000AD019B1116841F48011116080070ED550
:1052A000106840F4004009E019B1116821F4801140
:1052B0001160800703D5106820F40040106070472B
:1052C00008240140084A012809D0022806D11068A4
:1052D00020F4E040106010680843106070471068C8
:1052E00020F46020F6E7000008240140094B012863
:1052F00018680BD020F400701860186820F4FE7055
:1053000018601868114308431860704740F4007033
:10531000F2E70000802401400248016841F00101E9
:10532000016070478024014070B51F23062802D217
:105330001A4D2C6814E00C280CD2184E361F346815
:10534000801F00EB8005AB409C4301FA05F0204331
:1053500030600DE010280BD2104D083D2C680C3841
:1053600000EB8006B3409C4301FA06F0204328601E
:1053700007230A2903D2094C243C206805E013299D
:105380000AD2064C283C20680A3901EB41018B40C7
:1053900098438A400243226070BD000034240140DB
:1053A0000148006880B270474C2401400649C2079A
:1053B00003D00A6842F480020A60800703D50868B7
:1053C00040F40010086070470824014000EB8000A2
:1053D000810003480844816821F001018160704721
:1053E0000000024000EB800081000348084481680F
:1053F00041F00101816070470000024000EB800035
:10540000810003480844816841F0200181607047B1
:10541000000002400A4B00EB800103EB81018A6827
:1054200022F001028A6000228A60CA600A614A6131
:10543000596882000F209040014359607047000076
:1054400000000240034A5368800081400B435360D0
:105450007047000000000240044A1268800081404A
:105460000A4201D00120704700207047000002402E
:105470002DE9F0470C460AA9DDE9086991E8200505
:105480000746FFF7A3FF07EB870081001748084492
:1054900004614661C0F80C80816842EA090221F487
:1054A0007C514AEA010422438260D9B20129816811
:1054B00013D021F040018160E9B2012981680FD049
:1054C00021F080018160C5F30721002981680AD09D
:1054D00041F010018160BDE8F08741F04001EAE74A
:1054E00041F08001EEE721F01001F3E700000240F7
:1054F000034A5368800081400B43536070470000AB
:1055000000000240830010B5124A01FA03F300EBD9
:10551000800002EB8004022904D0042908D0082965
:1055200015D10BE01068A168184001F002010AE0F3
:105530001068A168184001F0040104E01068A16837
:10554000184001F0080110B109B1012010BD002080
:1055500010BD000000000240034A00EB800002EB97
:1055600080004161704700000000024000EB8000B5
:10557000810003480844816821F4804181607047BC
:1055800000000240034A00EB800002EB800089B279
:10559000C160704700000240F0B506464FF4702726
:1055A0000D46384600F038F800280CD1064C20692A
:1055B00040F0010020613580384600F02DF8216967
:1055C00021F001012161F0BD002002400248016983
:1055D00041F08001016170470020024070B505462E
:1055E0004FF47026304600F017F8002810D1094C0F
:1055F000206940F0020020616561206940F04000B0
:105600002061304600F008F8216921F00201216193
:1056100070BD00000020024000B5034600F008F80D
:105620005B1E012802D1002BF8D1042000BD000030
:1056300008490020CA68D20701D001207047CA6813
:10564000D20601D503207047C9684907FBD502205F
:10565000704700000020024004480169090603D594
:105660000349416003494160704700000020024047
:1056700023016745AB89EFCD30B5124A104B45F297
:1056800055551C461560D568641E05F0010502D00D
:10569000002DF8D100E04DB95160D1685B1E01F0DA
:1056A000020102D00029F8D102E009B1002030BD8A
:1056B000C0F30B0090604AF6AA201060012030BDB4
:1056C000FFFF0F0000300040F0B5036A446A002578
:1056D00001260F2706FA05FC1CEA020F09D04FEA43
:1056E000850C07FA0CFE23EA0E0301FA0CFE4EEAC3
:1056F00003036D1CADB2082DECD3082506FA05FC9A
:105700001CEA020F0BD04FEA850CACF1200C07FA13
:105710000CFE24EA0E0401FA0CFE4EEA04046D1C91
:10572000ADB2102DEAD303624462F0BD81627047CE
:10573000816170470AB181617047816270470000E2
:10574000144A10B5811A90421CD008DCB0F1904F79
:1057500015D01149C8421BD140F6122407E0B1F51B
:10576000806F12D0B1F5406F12D140F6162420465A
:1057700000F01AFB2046BDE8104000F007BB40F6E1
:105780001124F4E740F61324F1E740F61424EEE781
:1057900010BD00000008004800FCFFB70069084089
:1057A00000D0012070472DE9F047894601689246F4
:1057B000C268002401274FF0030C07FA04F51D42CC
:1057C0000BD066000CFA06F5A943AA4309FA06F8BD
:1057D0000AFA06F548EA01012A43641CA4B2102C17
:1057E000EBD30160C260BDE8F0870000F0B501298D
:1057F000416831D099434160816801270325A2F5B2
:105800007F44FF3C13D0002407FA04F61E4208D060
:10581000660005FA06FC21EA0C0102FA06FC4CEAD5
:105820000101641CA4B2102CEED38160F0BDC66BE4
:105830005FF0000407FA04F21A4206D04FEA440C63
:1058400005FA0CFC4CEA01011643641CA4B2102CAE
:10585000F0D38160C663F0BD1943CCE70348C0694B
:1058600010F0060001D04FF0FF30704700200240DA
:10587000FEF784F9FDF7DCF9FDF70EFDFDF760FC9E
:10588000FDF778FC37214948FEF749F9474CB4F851
:105890006E10884203D0FEF779F9FEF7A7FCFDF7FA
:1058A000ABFA08B1FEF7A2FC414864210068B0FBE6
:1058B000F1F0401EB0F1807F76D24FF0E0214861D8
:1058C0003C4AF02082F8140D00208861072008610E
:1058D000FEF741F9FFF7B6FBFFF75EFCFFF70AFCA6
:1058E00001F08CFFFDF70CF90A20FDF78DFBFEF7A8
:1058F000BFF9FEF779FA0020FEF748FA94F856004F
:105900005034FFF7DFFBFDF779F920882A4E4AF67D
:10591000AA25002831D02A4C2848202229A1E06459
:10592000FCF760FC2548202220302FA1E064FCF722
:1059300059FCE16C12201531FEF732FDE16C0820B4
:105940001831FEF72DFDE16C1E201B31FEF728FDFE
:105950001A48202240302DA1E064FCF743FC174890
:105960002022603017A1E064FCF73CFC0420FDF726
:1059700029FE6420FDF748FB356002F0F7FC02F0D9
:10598000A7FC02F00BFB02F09FF902F045F902F0D0
:1059900033FA02F07FFA02F0F5FA02F00FFA3560FE
:1059A000FDF770FCE9E7FFE7FEE70000C80600200E
:1059B000C00000200FE000E000300040CE000020DA
:1059C000280000202020202020202020202020200F
:1059D00020202020202020202020202020202020C7
:1059E00020202020000000002055494D657465727C
:1059F0002054465420202020204657207631372E30
:105A000031302E3236202020000000002062792024
:105A10004543484F2053747564696F20202020202F
:105A200020202020202020202020202000000000F6
:105A300030B51E4D002423462D6805F4E065B5F50C
:105A4000A06F12D006DCB5F5407F14D0B5F5806F9D
:105A500012D10DE0B5F5C06F04D0B5F5E06F0BD1F4
:105A6000042309E00124032306E00224234603E083
:105A70000324012300E00424C4F10404A140C3F181
:105A800004040F23E34013400B4300F1E02219010B
:105A900082F8001400F01F020121914040098000AB
:105AA00000F1E020C0F8001130BD00000CED00E076
:105AB0000249084302490860704700000000FA05E7
:105AC0000CED00E0094B0849DA7841F82200521C3D
:105AD00002F00300D870D1E900021044D1E902219C
:105AE0001144084480107047880B002028000020D3
:105AF00070B5252215A11E48FCF774FB1C491D48F2
:105B000008310E460068FEF74BFD1B4C184914F88F
:105B1000400F1D3140B20D46FEF7C8FD144802F09B
:105B2000ABFC252215A11248FCF75CFB1C48314652
:105B30000068FEF735FDA078294640B2FEF7B6FDB5
:105B4000BDE870400A4802F097BC00002055204193
:105B5000646A3A20313233343536373820202055C4
:105B6000205A65726F3A20202031323334350A00D2
:105B700048070020B8000020C80600202049204126
:105B8000646A3A20313233343536373820202049A0
:105B9000205A65726F3A20202031323334350A00A2
:105BA000BC0000202DE9F04760A688B06ACE8DE8E1
:105BB0006A005FA38046D3E90013CDE904135CA318
:105BC0000020D3E90013CDE906135C4B04460246DE
:105BD00059685B4EC1F3810119B1012901D0022935
:105BE00001D0314623E059685D68C1F38341C5F3B4
:105BF000C067DD6AED0F0FB1113100E0891C05B1FE
:105C00001F315D68DF6AC5F30045C7F3807765B172
:105C1000DD6A05F00F056D1C27B14A4FB7FBF5F59E
:105C2000694304E0B6FBF5F5FAE7474D69435D6863
:105C3000C5F303151DF8057021FA07F55F680DF12E
:105C4000100CC7F302271CF8077025FA07F95F68E4
:105C50000DF1180CC7F3C2274FF4004A1CF8077067
:105C600025FA07F7B8F1070F06D2DFE808F00408B5
:105C70000A0C0E3C4400084608B0BDE8F0872846F0
:105C8000FAE74846F8E73846F6E7186BC00506D449
:105C9000186BC00301D42D4C23E02D4C21E0586833
:105CA000C0F38131186BC00F31B1012909D002292D
:105CB0000ED0032915D110E008B1032003E07C08C1
:105CC0000FE018B10520B7FBF0F40AE0BC0808E0CB
:105CD00008B10720F7E70620F5E708B10920F2E749
:105CE000FC082046C8E7186B400602D448F21200B0
:105CF000C2E75046C0E7186B80070ED0186B00F063
:105D0000030001280BD0186B00F00300022808D014
:105D1000186BC043800706D006E03A4604E00A4606
:105D200002E0524600E032461046A5E700000000BF
:105D300000000000010203040607080900100240E9
:105D400000127A00006CDC0200093D00809FD50043
:105D5000003FAB01054901EB90110A6800F01F03F9
:105D60000120984002430A60704700000010024082
:105D7000054901EB90110A6800F01F0301209840CB
:105D800002430A607047000000100240054901EB21
:105D900090110A6800F01F030120984082430A60B6
:105DA0007047000000100240054901EB90110A689D
:105DB00000F01F030120984002430A607047000072
:105DC0000010024004490A6B22F003020A630A6BC6
:105DD00002430A6370470000001002402DE9F047BB
:105DE0002F48324B3249C569DFF8B8C02E4A0C78CB
:105DF0001E69AF0300F1800007D54661664501D3F7
:105E000042611A6144F003003EE014F00308284C9C
:105E10004FF69B7A247824F0030404F1010735D06F
:105E2000DFF89090B8F1010F1FD0B8F1020F0DD03C
:105E3000B8F1030F08D14661664501D342611A618A
:105E40004D4501DDA41C0C70BDE8F0875C69446120
:105E5000644501D342615A614D4500DD0F705545DF
:105E6000F2DA087840F003000EE09E69466166456C
:105E700001D342619A614D4500DD0C705545E3DA6E
:105E8000087820F00300801C0870DDE7DC694461BD
:105E9000644501D34261DA615545D5DA0F70D3E725
:105EA0002800002080969800A0860100C8060020E7
:105EB000240000209BFF01000029416803D021F04D
:105EC00001014160704721F00201FAE700294168B1
:105ED00003D041F001014160704741F00201FAE74F
:105EE000016841F0400101607047C16070478068FF
:105EF000084000D001207047026802F441530A684C
:105F00001A434B6813438A681A43CB6813430A69E0
:105F10001A434B698969134319430160C16921F42C
:105F20000061C16170470000064900200860064911
:105F30000860064908600649086006490860064985
:105F4000088070475C0000206000002054000020A2
:105F5000580000203C0000203000002030B58D4D5E
:105F60008D4C85B06868002875D08CA1FCF728F9A5
:105F700060B1A868002831D010220021FCF768F930
:105F800000F00101A4F8441086A0C2E08AA168686C
:105F9000FCF716F9A0B1A86800281FD01022002134
:105FA000FCF78EF981B2A4F85610080AC9B28842EB
:105FB00000D30846FFF786F8B4F8561080A0A8E092
:105FC00088A16868FCF7FCF850B1A868002805D0E3
:105FD0000A220021FCF73CF98449086005B030BD75
:105FE00083A16868FCF7ECF8A0B1A8680028F5D098
:105FF0000A220021FCF72CF9C11700EB917121F066
:106000000301401AA4F84E0005B0C0B2BDE830400C
:10601000FDF7F8BF77A16868FCF7D2F858B1A86817
:106020000028DBD00A220021FCF712F981B2A4F883
:10603000541072A06DE078A16868FCF7C1F858B1FF
:10604000A8680028CAD00A220021FCF701F981B211
:10605000A18673A05DE084E077A16868FCF7B0F8E2
:1060600000282FD00020FFF79DFD014673A002F00D
:10607000E1F90120FFF796FD014675A002F0DAF97B
:106080000220FFF78FFD014676A002F0D3F903202E
:10609000FFF788FD014678A002F0CCF90420FFF755
:1060A00081FD014679A002F0C5F90520FFF77AFDD0
:1060B00001467BA002F0BEF90620FFF773FD014602
:1060C0007CA026E080A16868FCF77AF890B1A86807
:1060D00060B17FA1FCF774F840B17EA002F0CCF96A
:1060E0008248016841F40021016077E78048018817
:1060F00080A00EE085A16868FCF762F870B1A8681E
:106100000028F2D00A220021FCF7A2F881B2E18631
:1061100080A005B0BDE8304002F08CB982A168686B
:10612000FCF74EF8B8B1A8680028DED00A2200219A
:10613000FCF78EF800EBD07121F00101401A2087A6
:10614000C0B2FDF703FB218F05B00246BDE8304029
:1061500076A002F06FB905B07B48BDE8304002F090
:106160008BB9794802F088F994F838003434FDF797
:10617000EDFAA18863882288CDE90310CDE90123D7
:10618000208C0090638B628C218A704802F052F957
:1061900024E7000004000020C80600206563686F43
:1061A0000000000020736574204543484F20746F41
:1061B0002025642E2E2E0A00626B6C7400000000F5
:1061C0002073657420424B4C5420746F2030782526
:1061D00030345820616E64206170706C792E2E2EE0
:1061E0000A00000074696D65000000003C0000209A
:1061F0006469720073746279000000002073657432
:10620000207362616E6462792074696D6520746FB9
:1062100020253564730A00006977616B6500000012
:1062200020736574204957414B4520746F202535F4
:1062300064204C53420A0000636C6B0020434B5FA8
:106240005359532020203D20256C640A0000000093
:1062500020434B5F4148422020203D20256C640AAA
:106260000000000020434B5F4150423120203D2080
:10627000256C640A0000000020434B5F415042320D
:1062800020203D20256C640A0000000020434B5F65
:106290004144432020203D20256C640A000000007A
:1062A00020434B5F4345432020203D20256C640A5A
:1062B0000000000020434B5F5553415254203D20C5
:1062C000256C640A0000000063616C690000000036
:1062D00072756E00204144432063616C6962726193
:1062E00074696F6E2E2E2E0A0000000080000020C0
:1062F0002E00002020414443315F43414C49203D62
:10630000203078253034580A0000000076696E7419
:1063100000000000207365742056494E5420746FAD
:10632000202534646D560A00646576002073657418
:1063300020446576696365205479706520746F2008
:1063400025642025730A00007893000858950008FA
:10635000F8B50020394CADF800000546606800280B
:1063600069D037A1FBF72CFF78B3A06800282BD0A9
:1063700010220021FBF7A4FFC6B2E06840B1102252
:106380000021FBF79DFF84B2A4F10800392812D345
:10639000402412E0680703D139462BA002F04AF8E6
:1063A000B8B26946FCF706FFBDF8001029A002F05C
:1063B00041F86D1CADB2A54202D277193F2FE9D347
:1063C00026A000BF02F058F8F8BDFFE724A16068DE
:1063D000FBF7F6FEE8B1A0680028F5D0E1680029D7
:1063E000F2D010220021FBF76BFFC5B21022002172
:1063F000E068FBF765FF84B221462846FCF736FFCC
:10640000214619A002F016F829461CA002F012F845
:10641000DAE721A16068FBF7D3FE18B1FCF7AAFE0A
:106420001FA0CFE725A16068FBF7CAFE18B1FCF7F3
:10643000C9FE24A0C6E72948C4E7000004000020E4
:1064400072656164000000000A30782530345820FD
:106450002000000025303458200000000A00000011
:106460007772697465000000207772697465203066
:10647000782530345820746F000000002065657066
:10648000726F6D206164647265737320307825309B
:106490003458202E2E2E0A006C6F6164000000001C
:1064A0004C6F61642066726F6D20496E742E2045BA
:1064B0004550524F4D2E2E2E0A0000007361766516
:1064C000000000005361766520746F20496E742EC1
:1064D00020454550524F4D2E2E2E0A00B8920008EE
:1064E000F8B51D4D0024686800282ED01022002128
:1064F000FBF7E6FEB0F5803F01D34FF6FF7006468E
:10650000A86850B110220021FBF7DAFEC5B2FF2DBA
:1065100001D3FF2502E0082D12D28025200703D1E8
:1065200031190EA001F086FF301980B201226946B0
:10653000FCF792FD50B10CA001F09EFF641CE4B288
:10654000AC42EBD309A001F097FFF8BD9DF8001015
:1065500007A001F06FFFF1E7040000200A30782562
:106560003034582000000000464620000A00000099
:1065700025303258200000007CB5144D6868002892
:106580001AD010220021FBF79BFE0446B0F5803F95
:1065900012D2A86800280FD010220021FBF790FE2D
:1065A0008DF80000A0B201226946FCF799FD0100B8
:1065B00003D007A001F03EFF7CBD9DF8001008A0AD
:1065C00001F038FF21460BA0F4E700000400002092
:1065D00020493243204572726F72212025640A00DF
:1065E0002077726974652030782530325820746FB6
:1065F0000000000020656570726F6D206164647238
:1066000065737320307825303458202E2E2E0A00E2
:106610002DE9F041222255A15C48FBF7E3FD5C48DF
:106620005A4C611D0068FDF7CDFE5620E0725948B6
:1066300004F10D0188460068FDF70CFE564D2888D0
:1066400004F11A01FEF7D4F8544F6D26388F012853
:1066500000D1A6744D4801F00FFF322250A14B48E3
:10666000FBF7C0FD5B48211D0068FDF7ABFE5A48F3
:1066700041460068FDF7EEFD5848007800F0030140
:10668000012088403030607655484049203100680C
:10669000FEF7C8F853483D4926310068FEF74CF82C
:1066A000388F012802D1A6726B20E074374801F0C0
:1066B000E3FE21224CA13548FBF794FD5248E11C32
:1066C0000068FDF77FFE514841460068FDF77AFEFD
:1066D0004F482E4916310068FEF72EF8388F0128F2
:1066E00001D16672E674294801F0C6FE2E2249A146
:1066F0002648FBF777FD5348611D008880B2FDF7FF
:1067000083FDA888214911310F46FEF771F84E48E4
:106710001E4900881B3180B2FDF776FD28891B4990
:1067200027310E46FEF764F8184801F0A5FE2E2228
:1067300046A11648FBF756FD5048611D008880B2FF
:10674000FDF762FD68883946FEF752F84C480F495C
:1067500000881C3100B2FDF777FFE8883146FEF76C
:1067600047F8BDE8F041094801F086BE20553A20BF
:106770002030332E3330305620302E3033373957D7
:106780002041443D3078433346370A004807002013
:106790004C00002064000020B80B0020C806002038
:1067A00020493A202D302E303037364120363536CC
:1067B0002E393652205047413D382041443D3078F3
:1067C000464646464431202020202D393275560A4F
:1067D000000000005000002068000020240000207D
:1067E000440000204800002020503A20302E303055
:1067F00030304168202D302E303030315768202025
:106800002020203136730A00540000205800002058
:106810003C0000202056642B3A312E36353056206D
:1068200041443D30784646464620205664643A331B
:106830002E333030562041443D3078464646460A95
:106840000000000090000020400000202056642D31
:106850003A312E363530562041443D307846464652
:1068600046202020546A3A202032336F432041448E
:106870003D3078464646460A000000009800002059
:10688000A400002070B50C4D0024281F0678B61F08
:106890000EE000BF04EB440005EB80018A682AB1DA
:1068A0004A6855F8201005A001F0C4FD641C24B20C
:1068B000B442EFDB70BD000028860008202573205D
:1068C0002D3E20257300000070B52D4C6068002817
:1068D0004ED02CA1FBF774FC2B4D58B1A0680028BA
:1068E00017D00A220021FBF7B3FC2860BDE87040F6
:1068F000FEF730BC25A16068FBF762FC50B1A068D0
:10690000002806D00A220021FBF7A2FC2149A1F8A9
:10691000420070BD20A16068FBF752FC18B30A2248
:106920000021A068FBF794FCFBF7FBFE04461C4823
:106930000068FBF7F6FE01462046FBF72CFD1949DF
:10694000FBF7F7FCFBF714FF2860FEF703FC1B22A4
:1069500015A11C48FBF746FC1A4928680D31FDF7C4
:106960001FFE184800E018A0BDE8704001F084BD8B
:1069700015A001F081FDBDE87040FFF7B9B8000037
:106980000400002061646A00BC0000207A65726F18
:1069900000000000C806002063616C690000000070
:1069A000500000200050C347207365742049616483
:1069B0006A20746F2031323334353637382E2E2E1C
:1069C0000A0000004807002069736574205B616459
:1069D0006A7C7A65726F7C63616C695D205B61645F
:1069E0006A20313030303030787C492031303030DE
:1069F00030785D20736574204920706172616D2E5E
:106A00000A00000010B5324C6068002859D031A14E
:106A1000FBF7D6FBC0B1A068002857D0E168002979
:106A200054D00A220021FBF74BFC00F01F000F2876
:106A300001D9022100E000210007E268400EBDE814
:106A400010401023FCF790BD24A16068FBF7B8FB51
:106A500060B110220021A068FBF732FCA16880B26F
:106A6000002933D0BDE81040FDF790B91DA1606842
:106A7000FBF7A6FB80B1A068002827D00A220021DE
:106A8000FBF71EFC10F0010F01D0292000E02820A8
:106A9000BDE81040FDF773BB14A16068FBF790FBE5
:106AA00078B1A068002811D00A220021FBF708FC69
:106AB000104900F00300A1F84E00BDE81040FDF7BA
:106AC000A1BABDE810400CA001F0D6BC10BD00007A
:106AD0000400002073686F770000000066696C6C2A
:106AE000000000006F6E6F6666000000726F7461D8
:106AF00074650000C80600206C6364205B73686FD7
:106B0000777C66696C6C7C6F6E6F66667C726F7486
:106B10006174655D205B616464725D205B646174B7
:106B2000615D204F706572617465204C43442E0A8C
:106B3000000000002DE9F047D44FD64D00267868BC
:106B4000D34C4FF06D0905F1100A002871D0D2A185
:106B5000FBF736FB002870D00A220021B868FBF74B
:106B6000AFFBB4F84A10012202EB8121B0FBF1F235
:106B700001FB120007043F0C5DD0208F012804D0D8
:106B8000C7A000BF01F078FC4FE0D1A0FAE700BF3A
:106B90004FF6FF7000EA06101022D949FCF75CFAA4
:106BA0003222D8A1BB48FBF71DFBD54CB949208840
:106BB00040BAFDF77BFDD4F80200617900BA20F0FD
:106BC000FF000843E91DFDF7B7FDA179207A0B0608
:106BD0004FF07F4808EA23221043E279090441EA92
:106BE000022108435146FDF7EDFB617AE07A0B067E
:106BF00008EA23221043A27A090441EA0221084349
:106C0000A4491931FDF7DEFBA089A24940BA22311F
:106C1000FDF7FAFAE0899F4940BA2931FDF7F4FA05
:106C20009C4801F029FC761CB6B2BE42B0D3BDE848
:106C3000F087F5E001E0BFA0EEE0C4A1B8467868B7
:106C4000FBF7BEFA00260A27002820D00A220021DE
:106C5000D8F80800FBF734FB80B2411E032906D8A0
:106C600024F84A0FBAA001F007FC208807E0BEA074
:106C700001F002FCC9A001F0FFFBB4F84A0085490D
:106C80008002FDF713FD6F71AE718248C4E0CBA1A5
:106C9000D8F80400FBF794FAE8B1D8F8080060B11E
:106CA0000A220021FBF70CFBC0B224F84C0FC4A051
:106CB00001F0E2FBB4F9000007E0C7A001F0DCFB43
:106CC000D0A001F0D9FBB4F94C007249FDF7BCFC2F
:106CD000EF702E71D9E7D2A14646D8F80400FBF731
:106CE0006FFAC0B1B06868B10A220021FBF7E8FA78
:106CF00000F0010024F8480FCBA01CE0CFA08BE0EF
:106D0000CFA089E0D0A001F0B7FBD9A001F0B4FB7F
:106D1000B4F848001BE0DCA17068FBF751FAC8B179
:106D2000B06860B10A220021FBF7CAFA00F0010046
:106D300024F8460FD6A001F09FFB208807E0DCA0D6
:106D400001F09AFBE7A001F097FBB4F84600002899
:106D5000D6D0D3E7ECA17068FBF732FA4D4F083775
:106D600078B1B06858B10A220021FBF771FA2062AD
:106D70001322E6A14748FBF735FA206A13E0E8A0A2
:106D80004AE0EEA17068FBF71BFA90B1B06870B1F1
:106D90000A220021FBF75CFA60621322E8A13D4859
:106DA000FBF720FA606A3946FDF70CFB6DE7E9A0B6
:106DB00032E0EFA17068FBF703FA78B1B06858B120
:106DC0000A220021FBF744FAA0621322E9A131480C
:106DD000FBF708FAA06A13E0EBA01DE0F1A17068D0
:106DE000FBF7EEF9B8B1B06898B10A220021FBF7C1
:106DF0002FFAE0621322ECA12648FBF7F3F9E06AD0
:106E00003946FDF7DFFA208F0128CFD185F80E90A3
:106E10003BE7EAA000E0F0A0BDE8F04701F02CBBA2
:106E2000EDA001F029FB1C22FBA11A48FBF7DAF9BF
:106E3000B4F84A001749800214314834FDF736FC93
:106E4000144801F019FB1722FAA11248FBF7CAF9FE
:106E50001049B4F904001131FDF7F6FB0D4801F0BB
:106E60000BFB85A001F008FB34F8480908B173A0BA
:106E700000E073A001F000FB9CA001F0FDFAB4F863
:106E8000460008B16DA0E3E1E0E10000040000204D
:106E9000C80600204807002064756D7000000000DF
:106EA00020202020692C20202020742873292C20C9
:106EB000202020552856292C2020202049284129EF
:106EC0002C20202056642B2C20202056642D0A00D4
:106ED00020202020692C20202020742873292C2099
:106EE000202020552856292C20202049286D412972
:106EF0002C20202056642B2C20202056642D0A00A4
:106F0000A80B002031323334352C20313233343564
:106F100036372C2030302E303030302C2030302E90
:106F2000303030302C203030302E302C203030308B
:106F30002E300A00206C6F672064756D70205B64D2
:106F40006563206E756D5D200A0000006D6178003C
:106F500020536574204D61782064617461206C6FEA
:106F60006720746F20000000206C6F67206D6178CF
:106F7000205B317C327C337C345D20536574204D42
:106F800061782064617461206C6F6720316B7C32A2
:106F90006B7C336B7C346B2E0A00000020637572AF
:106FA00072656E74206C6F672064617461206C651B
:106FB0006E6774682069732000000000696E7400B9
:106FC00020536574206C6F6720696E7465727661FA
:106FD0006C20746F20000000206C6F6720696E7455
:106FE000205B64656320696E74657276616C5D20F8
:106FF000536574206C6F6720696E74657276616C7E
:107000002E0A00002063757272656E74206C6F67C3
:1070100020696E74657276616C20697320000000CF
:1070200072696E6700000000205365742052696E1B
:1070300067204D6F646520746F2000004F6E0A005A
:107040004F66660A00000000206C6F672072696E50
:1070500067205B307C315D205475726E204F6E2F3F
:107060004F66662072696E67206D6F64652E0A0038
:107070002063757272656E742072696E67206D6F21
:1070800064652069732000006175746F0000000062
:1070900020736574206175746F207374617274203D
:1070A0006C6F67206D6F646520746F2000000000B6
:1070B000206C6F67206175746F205B307C315D20C0
:1070C0005475726E204F6E2F4F6666206175746F17
:1070D000207374617274206C6F67206D6F64652E0D
:1070E0000A0000002063757272656E742061757409
:1070F0006F207374617274206C6F67206D6F6465AC
:10710000206973200000000075680000207365741A
:107110002055483D30302E30303030560A000000C7
:10712000206C6F67207568205B554820646563207C
:107130003130303030585D0A00000000756C0000BE
:107140002073657420554C3D30302E303030305631
:107150000A000000206C6F6720756C205B554C2086
:10716000646563203130303030585D0A0000000023
:1071700069680000207365742049483D30302E3026
:10718000303030410A000000206C6F6720696820B1
:107190005B494820646563203130303030585D0AE7
:1071A00000000000696C00002073657420494C3DAC
:1071B00030302E30303030410A000000206C6F67D4
:1071C00020696C205B494C2064656320313030308D
:1071D00030585D0A000000006C6F67205B64756DBD
:1071E000707C6D61787C696E747C72696E677C619D
:1071F00075746F7C75687C756C7C69687C696C5D86
:10720000204F7065726174652064617461206C6FD9
:1072100067732E0A00000000206C6F6720646174A1
:1072200061206C656E677468206973203132333475
:10723000350A0000206C6F6720696E746572766194
:107240006C206973203132330A000000AFF2102045
:1072500001F012F91B2212A11848FAF7C3FF291DE9
:10726000206AFDF7AFF85146606AFDF7ABF81348A6
:1072700001F002F91B2212A11048FAF7B3FF291DF1
:10728000A06AFDF79FF85146E06AFDF79BF8208F52
:1072900001287FF41FAD85F80A9085F81690F4E474
:1072A0002055483D30302E303030305620554C3D42
:1072B00030302E30303030560A00000048070020B1
:1072C0002049483D30302E303030304120494C3D4F
:1072D00030302E30303030410A00000070B5194D8A
:1072E000686800282DD010220021FAF7E9FF044633
:1072F000A0F10060B0F5802F04D3A4F10050B0F5E8
:10730000004F19D2A868104D40B110220021FAF7A1
:10731000D7FF81B2A1F10800A84201D34FF48071D8
:107320000D462046FCF7E0FB2A462146BDE87040AA
:10733000034606A001F07EB8BDE870400CA001F045
:107340009BB870BD04000020F9FF03005354415264
:10735000543D307825303858204C454E3D30782506
:10736000303858204352433D3078253034580A0095
:10737000204261642041647265737321200A000019
:107380002DE9F0410024FEF769FA00282DD1184DAF
:107390006868002829D010220021FAF791FF060022
:1073A00021D0A8684FF4807740B110220021FAF76D
:1073B00087FF85B2BD4201D8082D0DD23D460BE0B6
:1073C000200703D131190BA001F034F8315D0CA076
:1073D00001F030F8641CA4B2AC42F1D30AA0BDE8BD
:1073E000F04101F049B809A0F9E7BDE8F0810000DB
:1073F000040000200A3078253038582000000000B2
:1074000025303258200000000A000000204261644C
:107410002041647265737321200A000010B5174C77
:107420006068002824D016A1FAF7CAFE40B116A061
:1074300001F022F8FBF79EFEBDE81040FBF7DCBC34
:107440001AA16068FAF7BCFE30B11AA001F014F876
:10745000BDE81040FCF7CABE1EA16068FAF7B0FE96
:1074600030B11EA001F008F8BDE81040FCF78EBB5B
:10747000BDE8104021A000F0FFBF00000400002084
:107480006C6F616400000000204C6F6164207061CB
:1074900072616D65746572732066726F6D2045450B
:1074A00050524F4D2E2E2E0A00000000736176655B
:1074B00000000000205361766520706172616D6587
:1074C0007465727320746F20454550524F4D2E2EB7
:1074D0002E0A0000726573746F7265002052657326
:1074E000746F72652064656661756C74207061727A
:1074F000616D65746572732E2E2E0A007061726163
:107500006D205B6C6F61647C736176657C72657302
:10751000746F72655D204F70657261746520706173
:1075200072616D65746572732E0A00001049002047
:107530004B6823B10A2200211846FAF7C1FE0A213E
:10754000B0FBF1F0FBF760FD0AA000F095FF012011
:1075500080F31388BFF34F8F0A4801680A4A01F489
:10756000E06111430160BFF34F8F00BFFDE70000F2
:1075700004000020207265626F6F74696E672E2EA2
:107580002E200A000CED00E00400FA0570B51D4D38
:107590001D4C686800282ED01CA1FAF711FE38B1E6
:1075A000A86800282DD00A220021FAF751FE16E023
:1075B00017A16868FAF704FEC0B1A868002820D0B7
:1075C0000A220021FAF744FE41F2CC011E3848435A
:1075D0004FF47A7190FBF1F00F490988084481B2A9
:1075E00061860EA0BDE8704000F024BFBDE8704089
:1075F0000FA000F041BF0EA000F03EFF618E16A06C
:10760000F0E770BD04000020C8060020763330008B
:1076100063616C69000000009C00002020736574A9
:10762000205633303D2534646D562E2E2E0A000030
:1076300074736574205B7633307C63616C695D20A4
:107640005B5633307C545D20736574205420706128
:1076500072616D2E0A000000205633303D253464DF
:107660006D560A0070B53C4C606800286DD03BA197
:10767000FAF7A6FD3A4D58B1A068002817D00A22A3
:107680000021FAF7E5FD2860BDE87040FDF748BB32
:1076900034A16068FAF794FD344E48B1A068002820
:1076A00005D00A220021FAF7D3FDA6F8400070BDEC
:1076B0002FA16068FAF784FD18B30A220021A068A0
:1076C000FAF7C6FDFBF72DF804462B480068FBF7D8
:1076D00028F801462046FAF75EFE2849FAF729FE07
:1076E000FBF746F82860FDF71BFB1B2224A12B4863
:1076F000FAF778FD294928680D31FCF751FF274832
:107700001FE027A16068FAF75BFDC8B1A0680028F8
:10771000CDD00A220021FAF79BFDA0F2D17140F6EC
:10772000B7329142C3D2204909894143012000EB7D
:10773000114081B2F186BDE870401CA000F07ABE15
:107740001FA0BDE8704000F097BE1DA000F094FEA1
:10775000BDE87040FEF7CCB90400002061646A0007
:10776000B80000207A65726F00000000C806002093
:1077700063616C69000000004C0000200050C347AA
:1077800020736574205561646A20746F2031323330
:1077900034353637382E2E2E0A00000048070020D8
:1077A00076696E7400000000B80B002020736574C9
:1077B0002056494E5420746F202534646D560A00BB
:1077C00075736574205B61646A7C7A65726F7C6333
:1077D000616C695D205B61646A203130303030302B
:1077E000787C55203130303030785D2073657420DE
:1077F0005520706172616D2E0A00000070B50F484F
:1078000000240D4D017801F01F0301880088490A0A
:10781000C0F343120AA000F00DFE00BF35F81410AB
:107820000EA000F007FE641CE4B2062CF6D3BDE8FF
:1078300070400CA000F020BEACF7FF1FC491000800
:107840002055494D65746572544654207625642E42
:1078500025642E256420534E3A000000253034580C
:10786000000000000A204543484F205374756469A6
:107870006F203C6563686F2E786A747540676D6130
:10788000696C2E636F6D3E2E20416C6C20526967CF
:107890006874732052657365727665642E200A00E1
:1078A00030B5764B764C39B3012963D002297CD0B0
:1078B000032920D1016A21F480510162016A146810
:1078C00041EA04310162016A21F400510162016A56
:1078D000D48841EA04310162984208D1416821F418
:1078E000804141604168528941EA82114160C16929
:1078F00021F44071C16130BD016A21F001010162D2
:10790000016A156829430162016A21F002010162DE
:10791000016AD58829430162984207D0A04205D068
:107920005849884202D0584988421FD1016A21F043
:1079300004010162016A938819430162016A21F01E
:1079400008010162016A138919430162416821F447
:10795000807141604168538919434160416821F455
:10796000007141604168928911434160816921F051
:10797000030145E0016A21F010010162016A156806
:1079800041EA05110162016A21F020010162016AE8
:10799000D58841EA05110162984223D1016A21F09C
:1079A00040010162016A938800E02BE041EA031183
:1079B0000162016A21F080010162016A138941EAD2
:1079C00003110162416821F480614160416853897B
:1079D00041EA83014160416821F4006141604168EE
:1079E000928907E0A04208D1416821F4806141609A
:1079F0004168528941EA82014160816921F4407104
:107A0000816130BD016A21F480710162016A1468EC
:107A100041EA04210162016A21F400710162016AF4
:107A2000D48841EA04210162984223D1016A21F4F9
:107A300080610162016A938841EA03210162016A5F
:107A400021F400610162016A138941EA03210162A4
:107A5000416821F4805141604168538941EA031132
:107A60004160416821F4005141604168928941EAD6
:107A700002114160C16921F003013BE7002C014084
:107A800000400140004401400048014071B101291B
:107A900013D002291AD0032907D1C16921F4E0418A
:107AA000C161C16941EA0221C1617047816921F068
:107AB000700181618169114306E0816921F4E0412F
:107AC0008161816941EA022181617047C16921F0C8
:107AD0007001C161C1691143E6E739B1012907D0DD
