:020000040800F2
:102000004811002065210008CD3C00086139000816
:10201000653C0008012C0008015A0008000000007F
:102020000000000000000000000000000D43000858
:102030003130000800000000F13C00087D55000828
:102040007F2100087F2100087F2100087F210008F0
:102050007F2100087F2100087F2100087F210008E0
:102060007F210008153000087F2100087F2100082B
:102070007F2100087F2100087F2100087F210008C0
:102080007F2100087F210008000000007F21000858
:102090007F2100087F2100087F2100087F210008A0
:1020A0007F2100087F2100087F210008795900085E
:1020B0007F210008000000007F21000800000000D0
:1020C0007F210008000000007F21000800000000C0
:1020D0000000000000000000000000000000000000
:1020E00000000000000000007F2100080000000048
:1020F00000000000000000000000000000000000E0
:102100007F21000800000000000000000000000027
:1021100000000000000000000000000000000000BF
:1021200000000000000000000000000000000000AF
:10213000000000000000000000000000000000009F
:102140000000000000000000000000007F210008E7
:10215000DFF80CD000F076FC00480047B1600008C2
:10216000481100200648804706480047FEE7FEE782
:10217000FEE7FEE7FEE7FEE7FEE7FEE7FEE7FEE737
:10218000FD5500085121000800487047B489000837
:10219000A0F14101192900D82030704730B505461B
:1021A0002A460B4612F8010B13F8014B08B1A04266
:1021B000F8D01CB1002802D06D1CF1E7284630BDD4
:1021C00010B5044604E00B7800F8013B03B1491C4C
:1021D000521EF8D2204610BD421C10F8011B0029E7
:1021E000FBD1801A7047000070B50F4D00B9286808
:1021F000002412E00A4602E09E4203D0521C1378EB
:10220000002BF9D1DAB2224305D02BB124B1002141
:1022100000F8011B04E00446401C0678002EE9D1BA
:102220002860204670BD0000000000202DE9F04726
:1022300091460F4680460446002614F8015B2DB1F6
:10224000FFF7A2FF0068405DC007F6D12B2D02D03A
:102250002D2D18D0641E4A463946204600F00EFB4C
:1022600027B13968A14201D1C7F8008071054FF04C
:1022700002040BD54042002803DD06F047FB046052
:10228000A007BDE8F08746F48066E4E70028F8DAA6
:1022900006F03CFB04606FF00040F2E72DE9F05FD0
:1022A00093460F4680460446002606F02FFBD0F8E2
:1022B0000090824614F8015B2DB1FFF765FF0068BE
:1022C000405DC007F6D12B2D02D02D2D1AD0641EF3
:1022D0000021CAF800105A463946204600F0CEFACE
:1022E000014627B13868A04201D1C7F80080DAF86A
:1022F0000000022809D0CAF80090700505D54842B0
:10230000BDE8F09F46F48066E2E70846F8E780EA19
:10231000010210B502F00043400022D04A001FD055
:10232000010E01EB1261C0F35600C2F3560240F4F5
:10233000000042F40002A0FB022000047F391404D4
:1023400000D0401C50EA124001D44000491EC2B2E5
:102350000C0604EBD010401C4008802A02D003E099
:10236000002010BD20F00100002900DA00201843F1
:1023700010BD30B480EA010202F0004530F00042A6
:1023800021F0004013D090B1C30DD40DC2F316015B
:10239000C0F31600E41A41F4000140F400027D3459
:1023A000914201D3641C00E04900002C02DA30BCE9
:1023B000002070474FF400000023914201D3891A96
:1023C000034340084FEA4101F7D151B1914202D194
:1023D0004FF0004105E002D24FF0010101E06FF043
:1023E000010103EBC450284430BC00F096BA2DE93B
:1023F000FE4F804681EA0300C00F0C46009021F09A
:10240000004123F00045B8EB0200A94105D2404647
:10241000214690461C460B46024623F000401043DE
:1024200047D0270DC7F30A00C3F30A510290401AA0
:10243000019040286BDAC3F3130040F4801B00982E
:10244000924620B10023D2EB030A63EB0B0B0198F9
:102450005946C0F14002504600F0DFF906460D46ED
:1024600050465946019A00F0F7F910EB0800614117
:10247000002487EA115284EAE7731A4340D0009A95
:1024800062B3019A012A4FEA075215DC001B61EB87
:1024900002014FF0004202EA0752CDE90042001C5F
:1024A00041F5801132462B4600F07DFA03B0BDE8BD
:1024B000F08F40462146F9E7001B61EB0201001C4A
:1024C00041F5801300185B412018A2F5001747EB77
:1024D000030140EAD570B6196D4111E06D084FEA6D
:1024E000360645EAC0754FEA0752001B61EB020150
:1024F000001C41F5801149084FEA30000019514194
:1025000032462B4603B0BDE8F04F00F03DBA0098CC
:10251000012240000023D0EB020263EBE07300983D
:1025200021464FEAE074B8EB000061EB0401E9E7F3
:1025300083F000435BE781F0004158E72DE9FE4F4F
:1025400081EA030404F0004421F0004100944FF0BC
:10255000000B23F0004350EA01045ED052EA03046A
:102560005BD0C3F30A54C1F30A552C44A4F2F334EC
:102570000194A0FB0254C1F3130141F48011C3F391
:10258000130343F4801301FB024400FB034E840A4F
:10259000970A44EA815447EA8357A4FB07680295E7
:1025A0008D0A05FB07854FEA932C04FB0C54270585
:1025B000029D4FEA065847EA1637B5EB08056EEB61
:1025C000070C870E920E47EA811742EA8312A7FB97
:1025D0000201B6EB0B0164EB00042B0D43EA0C3354
:1025E0005E1844EB1C50DA465146E7FB0201C5F386
:1025F00013044FEA0B3343EA14534FEA0432019CAD
:1026000043EA0603A4F10C040294009CCDE900B453
:1026100000F0C9F903B0BDE8F08F00200146F9E7EA
:102620002DE9F04D81EA030404F0004B21F0004550
:1026300014464FF0000A23F0004150EA050220D072
:1026400054EA01021DD0C5F30A570246C5F313032D
:10265000C1F31300C1F30A5640F4801543F480130C
:10266000A7EB0608101BD64608F2FD3873EB0500F1
:1026700002D308F1010801E092185B41B8F1000FA4
:1026800003DA00200146BDE8F08D00204FF48011F0
:10269000064684460EE0171B73EB050705D3121B95
:1026A00063EB050306434CEA010C49084FEA30008E
:1026B00092185B4150EA0107EDD152EA030012D0B3
:1026C00082EA040083EA0501084305D0101BAB41F0
:1026D00006D20122002306E000224FF0004302E070
:1026E0006FF0010253101AEB06004CEB085110EB8F
:1026F0000A0041EB0B01BDE8F04D00F045B9C10FF8
:1027000080EAE0700844CA079623002100F00EB961
:102710000EB5C10F80EAE0700844CA07002140F2FC
:1027200033438DE80E000A460B4600F03CF903B037
:1027300000BD0EB540F2334102910021CDE90011F8
:102740000A460B4600F02FF903B000BD00F000422E
:1027500020F00040C10DC0F3160040F400007F29B6
:1027600001DA00207047962903DCC1F19601C840C8
:1027700001E096398840002AF4D04042704770B595
:10278000C1F30A5201F000450024C1F3130140F2E5
:10279000FF3341F480119A4201DA002070BD40F20B
:1027A00033439A42A2F2334203DC524200F044F82F
:1027B00000E090402C43F1D0404270BD00F0004258
:1027C00030F000400AD0C10D01F56071C0F3160071
:1027D00042EA0151C20840071143704700200146F8
:1027E000704701F0004330B421F0004150EA01028B
:1027F00006D00A0DA2F56072C1F31301002A02DCB3
:1028000030BC00207047440F44EAC104C100E01806
:1028100030BC00EBC25000F080B8202A04DB203A24
:1028200000FA02F1002070479140C2F1200320FA23
:1028300003F3194390407047202A04DB203A21FA21
:1028400002F00021704721FA02F3D040C2F12002C9
:102850009140084319467047202A06DBCB17203ADF
:1028600041FA02F043EAE07306E041FA02F3D04095
:10287000C2F1200291400843194670472DE9F05FEC
:1028800082460078002715468B460AF10104B946B6
:10289000302801D09DB113E014F8010B01277828EE
:1028A00003D0582801D045B10AE00DB1102D07D151
:1028B0000027102514F8010B02E0082500E00A2586
:1028C0000026B0460EE005FB080005FB06F10127D7
:1028D00001EB10461FFA80F8B6F5803F00D3B946E9
:1028E00014F8010B294600F0BFF80028EBDABBF121
:1028F000000F05D00FB1641E00E05446CBF8004035
:10290000B9F1000F06D006F001F802210160C81EDF
:10291000BDE8F09F48EA0640FAE70029A8BF7047E3
:10292000401C490008BF20F00100704710B4B0FA05
:1029300080FC00FA0CF050EA010404BF10BC7047A0
:1029400049B1CCF1200421FA04F411FA0CF118BFBA
:10295000012121430843A3EB0C01CB1D4FEA006189
:102960004FEA102042BF002010BC704700EBC3505C
:1029700010440029A4BF10BC7047401C490008BF88
:1029800020F0010010BC704710B5141E73F1000454
:1029900008DA401C41F1000192185B411A4301D151
:1029A00020F0010010BD2DE9F04D92469B4611B17B
:1029B000B1FA81F202E0B0FA80F220329046FFF7DD
:1029C0002CFF04460F4640EA0A0041EA0B01534639
:1029D0005A46084313D0114653EA010019D0C8F1F2
:1029E00040025046FFF728FF05460E46504659461E
:1029F0004246FFF712FF084305D0012004E02046BD
:102A00003946BDE8F08D0020054346EAE0762C43C8
:102A100037430A986305E40AA0EB08000022FD0A88
:102A200044EA47540A3002D500200146E9E701058F
:102A300010196941DDE9084500196941BDE8F04D0B
:102A4000A2E70000064C074D06E0E06840F00103F5
:102A500094E8070098471034AC42F6D3FFF77CFBAC
:102A60001C9E00083C9E00083A2800D2303820F016
:102A70002002412A01D3A2F13700884201D34FF04E
:102A8000FF30704770B58D1810F8014B14F0030239
:102A900001D110F8012B231106D110F8013B03E0FE
:102AA00010F8016B01F8016B521EF9D1ABB110F8AF
:102AB000012B04F00C048A1A0C2C03D0A2EB841214
:102AC0009B1C08E010F8014BA2EB0422F8E712F877
:102AD000014B01F8014B5B1EF9D5A942D4D300206C
:102AE00070BD000010B588B00020002403F0CEF8BF
:102AF0004FF400500790052006900120ADF8140017
:102B00004FF4806004902F48694603908DF8084088
:102B10002D4C4FF48070019004F14400009000208F
:102B200003F0DCF8002003F0A7F8002003F04EF9D2
:102B3000002003F097F802F0C3FF54F8040C0121C1
:102B400040F4807044F8040C206820F002002060FB
:102B5000206840F400002060206840F4807020600D
:102B6000012002F0C3FF01204FF4602102F0DAFFE0
:102B7000002002F09BFF0120052102F073FF134C9F
:102B8000002000210722A047012001210722A047A1
:102B9000022002210722A047032010210722A0477C
:102BA000042011210722A04700204021142202F016
:102BB000CBFF02F0DDFF02F08FFF012003F038F8B9
:102BC00008B010BD6402002008240140815B0008A9
:102BD00010B50A4C022120460022022303F0FFF91F
:102BE000204600210122022303F020FA2046012181
:102BF0000222BDE8104003F091B900BF0004004874
:102C0000FEE7000010B52D482D4A016801600168FB
:102C1000016001680160016811400160016841F4D0
:102C20008011016050F8041C41F0807140F8041CD0
:102C300050F8041C8901FBD5016821F003010160F3
:102C4000016841F00201016001680907FCD5016BD0
:102C500041F001010163C16A21F48031C162C16A9E
:102C600021F48071C162032003F03CFC40F2045067
:102C700003F012FC40F2025003F00EFC114C40F243
:102C80001150A04740F21250A04740F21650A04702
:102C90004FF4A060A04740F20C60A04740F20170E2
:102CA000A04740F21C70A04740F20960A04740F2E4
:102CB0000E60A047BDE8104002F062BC0410024064
:102CC000FFFFC27781640008A0F13001CAB20A2A6E
:102CD00001D2C8B270472D2816D06D2816D03A28D8
:102CE00016D0412816D0442816D0452816D0502892
:102CF00016D0562816D0572816D0682816D02E2859
:102D00000CBF0B210A21E4E71221E2E71121E0E7E1
:102D10001021DEE70D21DCE71421DAE71321D8E7E3
:102D20001521D6E70C21D4E70E21D2E70F21D0E7F9
:102D3000431A48BF5B42A0F29112632B04DCB2F548
:102D4000C77F09D809213EE0B2F5C77F0CD8B1F59D
:102D5000967F09DA072136E0A0F601200321B0F5BD
:102D60009A7F98BF06212EE040F2BA239A4205D8F6
:102D700040F6B832914201DD0A2124E0A0F26372EC
:102D8000F82A06D8A1F60122B2F59A7F01D80421CB
:102D900019E0A0F60122B2F59A7F05D8A1F263727C
:102DA000F92A01D205210EE0A1F2911240F2BB23D3
:102DB00000219A424FF0000240F6B83338BF01229A
:102DC0009842C8BFD10008467047000010B585483A
:102DD000026A446A816AC36A9D48A242C0E9132418
:102DE000C0E9151307DD006AA0420CDB90420ADC43
:102DF0004FF0FF3010BD08DA016A4FF0FF30A142FA
:102E000002DA914200DD002010BD994205DD406AE2
:102E10009842F8DB8842EBDDF5E7E9DA426A4FF0E9
:102E2000FF309A42F0DA8A42EDDCEDE770B5F749FF
:102E30006E4B08686C4A984205D96D480A6002607A
:102E40004FF0FF3002E06A4C206000204C689C424A
:102E500084BF4A604FF0FF308C689C4284BF8A6018
:102E60004FF0FF30CC689C4284BFCA604FF0FF3007
:102E70000C699C4205D95F480A6102604FF0FF303F
:102E800001E05C4D2C604C699C4284BF4A614FF06C
:102E9000FF308C699C4284BF8A614FF0FF30CC695F
:102EA0009C4284BFCA614FF0FF300A6A531C524BE8
:102EB00004BF00220A621A604A6A531C4F4B04BFC7
:102EC00000224A621A608A6A531C4D4B04BF0022DA
:102ED0008A621A60CA6A531C4A4B04BF0022CA6243
:102EE0001A600A8E44F62063013A9A4222BF0C20EF
:102EF00008864FF0FF304B8E4FF6FF72934208BFAB
:102F000040F296534B868B8E934208BF4FF47A73F0
:102F10008B86CB8E934208BF4FF49663CB860B8F84
:102F2000012B88BF00230B87B1F84030B3F57A7FBF
:102F300082BF0020A1F840004FF0FF30B1F84230CE
:102F4000B3F57A7F82BF0020A1F842004FF0FF3036
:102F5000B1F84430934208BF0123A1F84430B1F8DE
:102F60004A30934208BF0423A1F84A30B1F84C30EC
:102F7000934208BF0123A1F84C30B1F84E30934280
:102F800008BF0123A1F84E30B1F85040944208BF69
:102F90000124A1F85040B1F85240944208BF0124E6
:102FA000A1F85240B1F84640A51A18BF2546A1F82D
:102FB0004650B1F84840A61A18BF2646A1F8486006
:102FC000B1F85440A21A18BF2246A1F854201DB1EE
:102FD0000D494FF0FF320A600C4A03F003011170F3
:102FE00070BD00BFC4070020A08601007F96980036
:102FF00030020020F8010020DC010020E001002068
:10300000E4010020E8010020D4010020700200202B
:10301000FFF7D6B880B50020022102F0A9FE0128F2
:1030200018BF80BD00200221BDE8804002F096BE9E
:1030300070470000B0B50649104B0A694AF6AA2449
:103040000D69AD1A854228BFB0BD1C6000BFF7E70F
:1030500090010020BCB5094C4AF6AA25ADF806003F
:10306000BDF80600411EADF8061028B14FF45C70A3
:1030700000F006F82560F3E7BCBD00BF003000405B
:1030800081B0ADF80200BDF802008000ADF802008A
:10309000BDF802000430ADF80200BDF80200411E88
:1030A0000028ADF80210F8D101B0704710B5022029
:1030B00000F0E8FC0220A02100F0B6FC044602204B
:1030C00000F0FEFC204610BDF8B50C460646402A2E
:1030D00001D93F2703E0002A08BF0122571E022022
:1030E000022500F0CFFC0220A02100F09DFC38BB9F
:1030F000310A0220022500F097FC08BBF1B2022041
:10310000022500F091FCD8B90220022500F0BAFC9B
:103110000220A12100F088FC90B900250220EEB227
:1031200000F050FCA0550220B74203DD00F01AFC6D
:103130000135F3E700F02EFC022000F0C1FC002571
:103140002846F8BD2DE9F0418046022017460C467E
:10315000022500F097FC3E46002F08BF0126022002
:10316000A021402F88BF402600F05EFCE0B94FEA66
:1031700018210220022500F057FCA8B95FFA88F157
:103180000220022500F050FC70B90225300607D05D
:103190002178022000F048FC30B9013E0134F5E707
:1031A000022000F08DFC00252846BDE8F0810000DB
:1031B0003E480021082906D00288B2F57F4F05D08D
:1031C00080300131F6E70021002000E00120364A7E
:1031D000118070473448394A018801F007010180A5
:1031E000064840EAC11000217E2903D0435A5352B9
:1031F0000231F9E731483F2100F04EBD021C0008C2
:103200002E4AC0B232F8100008807047C407002070
:103210002DE9F041DFF89080B8F8000000F00700D9
:10322000A8F8000002F046FEB8F800001F4F002189
:1032300007EBC010002402F0DFFDB8F800004FF6E5
:10324000FF72013000F00700A8F80000C101795AB0
:10325000914206D047EAC01002F0ECFD0020A8F829
:10326000004047EAC0104FF47F4102F0C5FD134C07
:10327000054620463E2100F00FFD0026A4F87C0004
:103280007E2E0BD0B8F80020B819A15B00EBC2105D
:10329000023002F0B1FD05460236F1E702F0C4FD4E
:1032A000E8B2BDE8F08100BF44080020001C00081F
:1032B000024AC0B222F8101008467047C407002026
:1032C0000348016821F00401016030BF704700BF6E
:1032D00010ED00E0F8B5614E4FF09040B047604D02
:1032E000A5F580542046B0472846B0475D4F284694
:1032F000012101220123B84728460121012202238E
:10330000B847594E2846012101220123B0472846DB
:10331000012101220223B0474FF0904003210022F7
:103320000123B8474FF09040032100220223B84701
:103330004FF09040032100220423B8474FF0904003
:10334000012101220823B8474FF0904001210122BA
:103350001023B8474FF09040012101224023B84785
:103360004FF09040002101220823B0474FF09040D9
:10337000002101221023B0474FF09040002103228A
:103380004023B0474FF09040022100222023B8474D
:103390004FF09040022100228023B8474FF0904028
:1033A000002103222023B0474FF090400021032248
:1033B0008023B0472D4D4FF0904000212022A84798
:1033C0004FF0904000218022A84720460121022290
:1033D0000223B8472046002101220223B04720469D
:1033E000022102F0CBFD4FF09040022101224FF468
:1033F0000073B8474FF09040022101224FF48063E0
:10340000B8474FF09040002101224FF40073B047BD
:103410004FF09040002101224FF48063B0474FF0FD
:10342000904001214FF40072A8474FF090400121D5
:103430004FF48062A8474FF09040002101224FF4E2
:103440000053B8474FF09040002101224FF48043D1
:10345000BC4601B0BDE8F040604700BF915F000886
:1034600000140048DF5F00082D6000081D5F0008A1
:103470002DE9FC47DFF8A880DFF89C90DFF89CA0DE
:10348000284C00270020002142461023A9F8007094
:10349000AAF800700097A0474FF6E0704D4625F857
:1034A000020B21A20020102110230097A04700202A
:1034B00020212A4610230097A04740F2FF704D4676
:1034C00025F8120B1DA20020302110230097A047E1
:1034D0001FA20020402110230097A0474FF4FC605A
:1034E0004E4626F8220B002050212A461023009732
:1034F000A04700206021324610230097A047BAF869
:1035000000007021A9F80000002042461023009717
:10351000A047BDE8FC8700BF080000207202002021
:103520007495000835380008202055494D657465AC
:1035300072205446542020200000000020204543E3
:10354000484F2053747564696F20202000000000EC
:10355000202075696D657465722E636F6D20202063
:10356000000000002DE9F04198461546C21D01F10A
:103570000F03D2B2DBB200F013FE2C2000F09AFE53
:10358000A5F12000C3B2A948D349174D0088098886
:1035900005EB031CD14D4FF0000E0026BEF1100FBD
:1035A0001AD0B8F1000F04D0BEF10F0F01D1FF27E0
:1035B00001E01CF80E700023072B0AD8FC070C460C
:1035C00008BF044664BAB2B2AC52013302367F0877
:1035D000F2E70EF1010EE1E7C0484FF48071BDE85B
:1035E000F04100F04FBE00BFB8890008F8B50546AD
:1035F00010460C46FFF768FB064605F10F00C2B205
:1036000004F11F00C3B22846214600F0C9FD2C205A
:1036100000F050FE8548B049124B00880988AF4C35
:103620004FF0000E03EB861C0025BEF1400F12D0B8
:103630001CF80E600027072F0AD8F3070B4608BFB7
:1036400003465BBAAAB2A352013702357608F2E705
:103650000EF1010EE9E7A1484FF48061BDE8F840A2
:1036600000F010BEC88F0008F8B59B4F4FF6E07011
:1036700038806E48224C0025494E058000200021EC
:10368000224610230095B04704F1100200201021BB
:1036900010230095B0474FF4FC60388004F12002FD
:1036A0000020202110230095B04704F130020020B3
:1036B000302110230095B04740F2FF70388004F1AC
:1036C00040020020402110230095B04704F1500231
:1036D0000020502110230095B0474FF61F0038807E
:1036E00004F160020020602110230095B04704F12E
:1036F00070020020702110230095B047F8BD00BF74
:1037000080000020F8B5744F4FF6E07038804748CD
:10371000224C0025224E0580002000212246102345
:103720000095B04704F110020020102110230095ED
:10373000B0474FF4FC60388004F1300200202021B3
:1037400010230095B04704F12002002030211023FF
:103750000095B04740F2FF70388004F1400200202D
:10376000402110230095B04704F150020020502161
:1037700010230095B0474FF61F00388004F1600217
:103780000020602110230095B04704F17002002052
:10379000702110230095B047F8BD00BF0001002044
:1037A00035380008F8B54C4C204800254FF4FC662D
:1037B0002246058022F8326B00200021102300955C
:1037C00000F038F84FF6E0702246194F22F8420B0D
:1037D000002011210823B84740F2FF70224622F84A
:1037E0004A0B002030210823B8474FF61F0022461D
:1037F00022F8520B00204F210823B847224622F816
:103800005A6B002070211023009500F013F81F2040
:10381000208000207F21102200F03AF800207F2134
:103820006F22BDE8F84000F033B800BF72020020FC
:103830006B3800082DE9F843DDF820901C4615464A
:1038400088460746002620060DD0AA5D5AB129FAFF
:1038500006F000F00103F8B24146FFF783FE01369F
:10386000013C0837EFE7BDE8F883F8B51C4615467C
:103870000E460746200609D02A783AB1F8B23146FA
:10388000FFF7B4FE013C10370135F3E7F8BD000047
:1038900070B50C46134611462246054600F080FCE2
:1038A0002C2000F007FD0C4A601B128801300B4DE4
:1038B00081B2130A0024E6B2B14206D905F81630E7
:1038C00076000136AA550134F5E7400081B203487D
:1038D000BDE8704000F0D6BC08000020470800207A
:1038E0000138C1B209298FBF02A040B203A151F82B
:1038F00020007047554E4B4E4F574E00A59500087F
:10390000B5950008AD9500088D95000895950008BF
:103910009D950008C5950008CD950008BD95000847
:103920008595000805A108A2012808BF0A4609A13B
:10393000002818BF11460846704700BF48696768ED
:1039400020526573000000004E6F74205365742090
:10395000000000005374616E646172640000000036
:10396000FEE70000B0B56D4C0221204602F006FBD8
:10397000524D0320A8472046012102F001FB0520FB
:10398000A8472046012102F0F9FA02202946BDE8A5
:10399000B0400847B0B5614C0221204602F0F0FA71
:1039A000464D0320A8472046012102F0E9FA0520F0
:1039B000A8472046012102F0E1FA02202946BDE88D
:1039C000B04008472DE9F04154480221804602F0FA
:1039D000D7FA3A4C00270026072F1BD80120A04712
:1039E00040460121454602F0C9FA0520A04740465D
:1039F000012102F0C5FA0320A0474046022102F04F
:103A0000E9FA05460220A04705F0010040EA460613
:103A10000137E1E74046012102F0B0FA0220FFF74A
:103A20002FFBF0B2BDE8F08170B53C4C0D4600268E
:103A3000082E17D005FA06F0C0B2C20920460221AE
:103A400002F0A0FA0120FFF71BFB2046012102F043
:103A500097FA0520FFF714FB2046012102F08EFAA9
:103A60000136E5E70220FFF70BFB2046022102F0BA
:103A700087FA0220FFF704FB0020BDE8704000F049
:103A800035B800BFB0B5254C0221204602F078FAC7
:103A90002046012102F074FA084D0520A84720466F
:103AA000022102F06BFA0520A8472046012102F00E
:103AB00065FA02202946BDE8B04008478130000879
:103AC00010B5164C0221204602F058FA204601217A
:103AD00002F056FA0520FFF7D3FA2046022102F041
:103AE0004FFA0420BDE81040FFF7CABAB0B50B4C3E
:103AF0000121204602F044FA0320FFF7C1FA2046D4
:103B0000022102F067FA05462046012102F036FA4A
:103B10000220FFF7B5FA2846B0BD00BF00140048E8
:103B200010B500F02FF8044600F09EF91449642304
:103B30000A78642A38BF531C012C0B7002BF00287E
:103B4000032010BD1CB9012804BF052010BD022CA4
:103B500002BF0028042010BD1CB9022804BF0620A3
:103B600010BD012C02BF0128072010BD80F002000B
:103B700084F002010843B0FA80F04009C00010BD93
:103B80007102002080B54FF090404FF4005102F0D8
:103B900021FA09490B7840B10020092B88BF012088
:103BA0000022632B88BF022004E064220020642BE3
:103BB00038BF5A1C0A7080BD6E020020C9B32DE9BF
:103BC000F04104460020086020460D46FFF75AFFEA
:103BD0002046D121FFF728FF174F2046B847DFF8CE
:103BE0005C8006462046C047B007286840EA064089
:103BF00048BF40F07F4028602046B8470646204630
:103C0000C047286840EA062028602046B847064694
:103C10002046C0472868304328602046B8470546FC
:103C20002046FFF7B7FE2046FFF74AFF2846BDE8CB
:103C3000F0810020704700BFC539000865390008D1
:103C4000B0B50C460546FFF71DFF2846D021FFF70B
:103C5000EBFE28462146FFF7E7FE2846BDE8B040C8
:103C6000FFF72EBFFEE7F0B54FF6FF7300224AF2D2
:103C700001048A420ED0855C6B400025072D07D8D1
:103C800084EA5306DF0708BF5E0801353346F5E7CF
:103C90000132EEE798B2F0BDF0B54FF6FF730022A7
:103CA0004AF201048A420FD030F812506B400025CE
:103CB000072D07D884EA5306DF0708BF5E080135E1
:103CC0003346F5E70132EDE798B2F0BD704780B5B5
:103CD0004FF4A06002F090FA09200021012202F0C6
:103CE0005FFA1B2001210122BDE8804002F058BA92
:103CF00070470000B0B5144C0020A047184D014695
:103D000012A0A8470120A047014616A0A8470220FC
:103D1000A047014618A0A8470320A04701461BA0C2
:103D2000A8470420A04701461DA0A8470520A0479A
:103D3000014620A0A8470620A047014622A02A4607
:103D4000BDE8B040104700BF0563000820434B5F4B
:103D50005359532020203D20256C640A00000000A8
:103D6000A986000820434B5F4148422020203D2087
:103D7000256C640A0000000020434B5F4150423133
:103D800020203D20256C640A0000000020434B5F8A
:103D90004150423220203D20256C640A0000000082
:103DA00020434B5F4144432020203D20256C640A82
:103DB0000000000020434B5F4345432020203D206E
:103DC000256C640A0000000020434B5F55534152AC
:103DD00054203D20256C640A000000001749184A51
:103DE00015481160174AC16081604160016011602F
:103DF000C161816141610161134900220A60134977
:103E000002620A60124942620A60124982620A60D2
:103E1000114941654FF0011101651049C1644FF42A
:103E200080218164012141640D490264028741635C
:103E30000C490163C2627047C4070020A0860100DC
:103E400030020020F8010020DC010020E001002009
:103E5000E4010020E8010020201C80F8010002009D
:103E60006400B0040C00960580B54FF090404FF40C
:103E7000804102F0AFF809490B7840B10020092BCE
:103E800088BF01200022632B88BF022004E0642247
:103E90000020642B38BF5A1C0A7080BD6F020020BE
:103EA000B0B590B0022001F0F1FE4FF40050394C53
:103EB0000890002540F201100795ADF8180004F1B4
:103EC0000C00CDE904558DF80C500295019001A924
:103ED000022001F003FF03200F95CDE90D504FF4B0
:103EE0000070CDE90B504FF440400A904FF48270BF
:103EF000099009A9204602F08DFB204602F07EFBC6
:103F000010B0B0BDBCB50C460146FF208DF80700CF
:103F1000022001F053FF0220214601F063FF1D4CF7
:103F200000212046002502F061FB022001F09AFEEC
:103F30000220022101F0C8FE38B90A20FFF7A0F8DC
:103F4000681CB5F5FA7F0546F2D3022001F080FE29
:103F50002046002102F040FB02200221BDE8BC40C7
:103F600001F0AABE70B50B4D04460026284602217A
:103F700002F04BFB38B90A20FFF782F8701CB6F547
:103F8000FA7F0646F2D32846214602F03CFBFF208A
:103F900070BD00BF00300140F8B5124B010A00228D
:103FA000802A06D003EB420403F81210607001323D
:103FB000F6E7002000217F227F23002500F0F0F8A3
:103FC0002C2000F077F9074C074E4AF6AA277F2DE0
:103FD00088BFF8BD20464FF4807100F053F9376078
:103FE0000135F4E7470800200030004070B54FF07D
:103FF0009040102101F0C4FF5A4C0120A0474FF01F
:104000009040102101F0BAFF0120A0474FF09040EE
:10401000102101F0B5FF0C20A047534D1120A847F7
:104020000C20A047B120A847504C0220A0473520C3
:10403000A0473620A047B220A8470220A04735203D
:10404000A0473620A047B320A8470220A04735202C
:10405000A0473620A0470220A0473520A0473620A1
:10406000A047B420A8470320A047C020A847A2200B
:10407000A0470220A0478420A047C120A847C52010
:10408000A047C220A8470D20A0470020A047C3207A
:10409000A8478D20A0472A20A047C420A8478D20EC
:1040A000A047EE20A047C520A8470A20A0473620F9
:1040B0002E46A84772480078032806D83749C00022
:1040C00021FA00F0C0B200F00BF9E020B047122056
:1040D000A0471C20A0471020A0471820A04733204D
:1040E000A0472C20A0472520A0472820A047282013
:1040F000A0472720A0472F20A0473C20A047002012
:10410000A0470320A0470320A0471020A047E1209C
:10411000B0471220A0471C20A0471020A04718201D
:10412000A0472D20A0472820A0472320A0472820D3
:10413000A0472820A0472620A0472F20A0473B20AB
:10414000A0470020A0470320A0470320A04710203D
:10415000A0473A20B0470520A04729203146BDE8B6
:104160007040084735300008B5420008E1420008B9
:1041700010B5434C00F003002070362000F09AF890
:104180002078032888BF10BD0449C00021FA00F040
:10419000C0B2BDE8104000F0A3B800BFA8C86808CE
:1041A000F8B5064636480078032868D80C461D4600
:1041B0001746DFE800F0020D263F2A2000F07AF8CB
:1041C000F81C8DF803000027F01C8DF8027022E027
:1041D0002A2000F06FF8B81C8DF803000027B01CEF
:1041E0008DF802708DF80100684604218DF800708A
:1041F00000F048F82B2000F05DF88DF800700320E7
:1042000030E02A2000F056F8781C00278DF80300D3
:104210008DF80270701C8DF80100684604218DF83D
:10422000007000F02FF82B2000F044F88DF800709B
:10423000022017E02A2000F03DF8B81C8DF803009A
:104240000027B01C8DF802708DF80100684604212B
:104250008DF8007000F016F82B2000F02BF80120EC
:104260008DF8007000218DF80210411920448DF85E
:1042700003108DF801006846042100F003F8F8BD32
:1042800070020020B0B50C4605464FF0904040212A
:1042900001F074FE4FF09040082101F071FE2846B5
:1042A0002146FFF72FFE4FF090404021BDE8B0407F
:1042B00001F066BE10B504464FF09040402101F079
:1042C0005DFE4FF09040082101F058FE2046FFF7B8
:1042D00049FE4FF090404021BDE8104001F050BE33
:1042E00010B504464FF09040402101F047FE4FF0DA
:1042F0009040082101F044FE2046FFF733FE4FF0C6
:1043000090404021BDE8104001F03ABE70470000E7
:1043100010B5064C37212046FFF7BEFCA4F86E000E
:10432000FEF776FFB4F86E0010BD00BFC407002092
:1043300070B5B0F1FF3F2FDD42F20F7290422FDCDB
:104340002E224A7082B20A23B2FBF3F4B4FBF3F5D7
:1043500005EB8505A4EB450545F03005CD704FF420
:104360007A75B2FBF5F5B5FBF3F606EB8606A5EB21
:10437000460545F030050D706425B2FBF5F2D5B267
:10438000B5FBF3F303EB8303A2EB430242F03002ED
:104390008A7004EB84026CE03C48086030206CE0DA
:1043A000C14A90422EDC2E228A706422B0FBF2F2C7
:1043B0000A2493B2B3FBF4F303EB8303A2EB4302AF
:1043C00042F03002CA704FF47A72B0FBF2F2D3B20C
:1043D000B3FBF4F303EB8303A2EB430242F030029E
:1043E0004A7042F21072B0FBF2F2B0FBF4F0D3B2BA
:1043F000B3FBF4F303EB8303A2EB430242F030027E
:104400000A7031E0A94A904239DC2E22CA704FF47A
:104410007A72B0FBF2F20A2493B2B3FBF4F303EB2B
:104420008303A2EB430242F030028A7042F2107220
:10443000B0FBF2F2D3B2B3FBF4F303EB8303A2EBD2
:10444000430242F030024A709B4AB0FBF2F2D3B210
:10445000B3FBF4F303EB8303A2EB430242F030021D
:104460000A706422B0FBF2F080B2B0FBF4F202EB0F
:104470008202A0EB420040F03000087170BD02489B
:1044800008603920F9E700BF3939392E302E303035
:1044900010B5B0F1FF3F36DD834A90423BDC2E225F
:1044A0004A700A22B0FBF2F303EB8304A0EB44044E
:1044B00044F030044C719CB2B4FBF2F404EB84047D
:1044C000A3EB440343F030030B716423B0FBF3F31D
:1044D0009CB2B4FBF2F404EB8404A3EB440343F07A
:1044E0003003CB704FF47A73B0FBF3F3DCB2B4FB60
:1044F000F2F404EB8404A3EB440343F030038B7029
:1045000042F21073BBE04FF03030C1F8020042F6C7
:104510003060088010BD654A904238DC2E228A70D7
:104520000A22B0FBF2F3B3FBF2F404EB8404A3EB36
:10453000440343F030034B716423B0FBF3F39CB2AC
:10454000B4FBF2F404EB8404A3EB440343F0300324
:104550000B714FF47A73B0FBF3F39CB2B4FBF2F43B
:1045600004EB8404A3EB440343F03003CB7042F22A
:104570001073B0FBF3F3DCB2B4FBF2F404EB84048D
:10458000A3EB440343F030034B704B4B77E0484AB6
:10459000904239DC2E22CA706422B0FBF2F30A2268
:1045A000B3FBF2F404EB8404A3EB440343F03003C5
:1045B0004B714FF47A73B0FBF3F39CB2B4FBF2F49B
:1045C00004EB8404A3EB440343F030030B7142F289
:1045D0001073B0FBF3F39CB2B4FBF2F404EB84046D
:1045E000A3EB440343F030038B70334BB0FBF3F386
:1045F000DCB2B4FBF2F404EB8404A3EB440343F019
:1046000030034B702D4B3AE02A4A904244DC2E2274
:104610000A714FF47A72B0FBF2F30A22B3FBF2F4A0
:1046200004EB8404A3EB440343F030034B71224BAF
:10463000B0FBF3F3B3FBF2F404EB8404A3EB440309
:1046400043F030038B7042F21073B0FBF3F39CB273
:10465000B4FBF2F404EB8404A3EB440343F0300313
:10466000CB70164BB0FBF3F3DCB2B4FBF2F404EB0B
:104670008404A3EB440343F030034B70104BB0FBB6
:10468000F3F0C3B2B3FBF2F202EB8202A0EB420002
:1046900040F03000087010BD43F62E1088804FF0B7
:1046A0003930086010BD00BF9F8601003F420F00F7
:1046B0007F969800FFE0F505A086010040420F00BC
:1046C0008096980010B50A2290FBF2F303EB830466
:1046D000A0EB44003030487093FBF2F000EB800018
:1046E000A3EB40003030087010BD0000B0B50028CA
:1046F0003DD4E24A904278DC2E228A7020220A239E
:104700000A70B0FBF3F294B2B4FBF3F404EB84044C
:10471000A2EB440444F030044C716424B0FBF4F484
:10472000A5B2B5FBF3F505EB8505A4EB450444F014
:1047300030040C714FF47A74B0FBF4F4E5B2B5FBBD
:10474000F3F505EB8505A4EB450444F03004CC708B
:1047500042F21074B0FBF4F4E5B2B5FBF3F303EBF3
:104760008303A4EB430343F030034B7018E22D2284
:104770000A70C34A9042C0F280802E228A706FF085
:10478000090290FBF2F20A2392FBF3F404EB840497
:10479000A2EB440230324A716FF0630290FBF2F2F6
:1047A00092FBF3F404EB8404A2EB440230320A716E
:1047B000B44A90FBF2F292FBF3F404EB8404A2EB14
:1047C00044023032CA70B04A90FBF2F292FBF3F42A
:1047D00004EB8404A2EB440230324A7090FBF3F203
:1047E00002EB8202C0EB42008EE1A84A90427ADCE2
:1047F0002E220A238A70B0FBF3F2B2FBF3F404EB2F
:104800008404A2EB440444F030044C716424B0FBF3
:10481000F4F4A5B2B5FBF3F505EB8505A4EB45046F
:1048200044F030040C714FF47A74B0FBF4F4A5B288
:10483000B5FBF3F505EB8505A4EB450444F0300426
:10484000CC7042F21074B0FBF4F4E5B2B5FBF3F5B2
:1048500005EB8505A4EB450444F030044C70E74CAF
:10486000B0FBF4F4E5B2B5FBF3F303EB8303A4EB85
:10487000430343F030030B7092E1D54A90427DDB55
:104880002E22CA706FF0630290FBF2F30A2293FBB0
:10489000F2F404EB8404A3EB440330334B71D34BA9
:1048A00090FBF3F393FBF2F404EB8404A3EB4403D7
:1048B00030330B71C94B90FBF3F393FBF2F404EB31
:1048C0008404A3EB440330338B70C54B90FBF3F3AC
:1048D00093FBF2F404EB8404A3EB440330334B70FA
:1048E0006FF0090308E1C24A90427DDC2E22CA70B3
:1048F0006422B0FBF2F30A22B3FBF2F404EB84046B
:10490000A3EB440343F030034B714FF47A73B0FBD5
:10491000F3F39CB2B4FBF2F404EB8404A3EB440382
:1049200043F030030B7142F21073B0FBF3F39CB20F
:10493000B4FBF2F404EB8404A3EB440343F0300330
:104940008B70E24BB0FBF3F3DCB2B4FBF2F404EB9C
:104950008404A3EB440343F030034B70DC4BB0FB07
:10496000F3F3B0FBF2F0DCB2B4FBF2F404EB84043A
:10497000A3EB440343F030030B700FE1954A9042E0
:10498000C0F286802E220A71984A90FBF2F30A2226
:1049900093FBF2F404EB8404A3EB440330334B7138
:1049A0008E4B90FBF3F393FBF2F404EB8404A3EB44
:1049B00044033033CB708A4B90FBF3F393FBF2F458
:1049C00004EB8404A3EB440330338B70854B90FBE2
:1049D000F3F393FBF2F404EB8404A3EB44033033CE
:1049E0004B706FF0630387E0824A904200F38E8041
:1049F0002E220A714FF47A72B0FBF2F30A22B3FB53
:104A0000F2F404EB8404A3EB440343F030034B7152
:104A1000AE4BB0FBF3F3B3FBF2F404EB8404A3EB73
:104A2000440343F030038B7042F21073B0FBF3F396
:104A30009CB2B4FBF2F404EB8404A3EB440343F014
:104A40003003CB70A24BB0FBF3F3DCB2B4FBF2F457
:104A500004EB8404A3EB440343F030034B70694B35
:104A6000B0FBF3F3DCB2B4FBF2F404EB8404A3EB8D
:104A7000440343F030030B7064238DE09F860100F4
:104A80006179FEFF18FCFFFFF0D8FFFF3F420F00E7
:104A9000514A9042C0F28C802E224A714F4A90FBBC
:104AA000F2F30A2293FBF2F404EB8404A3EB440335
:104AB00030330B714A4B90FBF3F393FBF2F404EBAE
:104AC0008404A3EB44033033CB70464B90FBF3F3E9
:104AD00093FBF2F404EB8404A3EB440330338B70B8
:104AE000414B90FBF3F393FBF2F404EB8404A3EB50
:104AF000440330334B703D4B90FBF3F090FBF2F2EC
:104B000002EB8202A0EB420030304FE03A4A904282
:104B100055DC2E224A7142F21072B0FBF2F30A22E7
:104B2000B3FBF2F404EB8404A3EB440343F030033F
:104B30000B71EA4BB0FBF3F3B3FBF2F404EB840428
:104B4000A3EB440343F03003CB70E54BB0FBF3F32E
:104B5000B3FBF2F404EB8404A3EB440343F030030F
:104B60008B70274BB0FBF3F3B3FBF2F404EB84043C
:104B7000A3EB440343F030030B70224BB0FBF3F381
:104B8000DCB2B4FBF2F404EB8404A3EB440343F083
:104B900030034B704FF47A73B0FBF3F0B0FBF2F2DA
:104BA00002EB8202A0EB420040F030008871B0BD01
:104BB0002E2048714FF03930C1F8010005E04FF068
:104BC0003930086042F6396088803920EEE700BF4E
:104BD000C1BDF0FF816967FF011F0AFAF0D8FFFF2E
:104BE0006079FEFFC0BDF0FF806967FF18FCFFFF22
:104BF0007F969800FFE0F505FFC99A3BA08601006B
:104C000000E1F50580969800B0B52E228A70002844
:104C1000024600D542420A23B2FBF3F4002804EB1B
:104C20008405A2EB450545F03005CD71B4FBF3F5E5
:104C300005EB8505A4EB450444F030048C714FF07E
:104C40006404B2FBF4F4B4FBF3F505EB8505A4EBC7
:104C5000450444F030044C714FF47A74B2FBF4F420
:104C6000B4FBF3F505EB8505A4EB450444F03004F3
:104C70000C7142F21074B2FBF4F4B4FBF3F505EBE3
:104C80008505A4EB450444F03004CC70934CB2FB92
:104C9000F4F4B4FBF3F505EB8505A4EB450444F00F
:104CA00030044C708E4CB2FBF4F2B2FBF3F303EB26
:104CB0008303A2EB430242F030020A7003D4302A8D
:104CC00003D1202000E02D200870B0BDA086010097
:104CD00040420F0070B500EBE03282EAE03213B2DE
:104CE0000A2493FBF4F505EB8506A2EB460230326D
:104CF0008A7095FBF4F202EB8202A5EB420230329D
:104D00004A70642293FBF2F292FBF4F303EB830309
:104D1000A2EB430230320A7000222023022A05D07F
:104D20008C5C302C04D18B540132F7E7002303E074
:104D3000D3B2B3FA83F35B09B0F1FF3F04DC1BB9D4
:104D400088182D2100F8011C70BD0028034600D5ED
:104D5000434270B50A24B3FBF4F505EB8506A3EBDB
:104D6000460646F030060E71B5FBF4F606EB8606F5
:104D7000A5EB460545F03005CD706425B3FBF5F590
:104D8000B5FBF4F606EB8606A5EB460545F03005C7
:104D90008D704FF47A75B3FBF5F5B5FBF4F606EBC1
:104DA0008606A5EB460545F030054D7042F21075BC
:104DB000B3FBF5F3B3FBF4F404EB8404A3EB44037B
:104DC00043F030030B7000232024042B06D03AB1AB
:104DD000CD5C302D04D1CC540133F6E7002203E042
:104DE000DAB2B2FA82F25209B0F1FF3F04DC1AB92A
:104DF000C8182D2100F8011C70BD000000280246D3
:104E000000D54242B0B50A23B2FBF3F404EB8405AB
:104E1000A2EB450545F030058D71B4FBF3F505EBCC
:104E20008505A4EB450444F030044C716424B2FBC6
:104E3000F4F4B4FBF3F505EB8505A4EB450444F06D
:104E400030040C714FF47A74B2FBF4F4B4FBF3F554
:104E500005EB8505A4EB450444F03004CC7042F228
:104E60001074B2FBF4F4B4FBF3F505EB8505A4EB89
:104E7000450444F030048C70184CB2FBF4F4B4FBDD
:104E8000F3F505EB8505A4EB450444F030044C70C4
:104E9000134CB2FBF4F2B2FBF3F303EB8303A2EB8C
:104EA000430242F030020A7000222023062A05D075
:104EB0008C5C302C04D18B540132F7E7002303E0E3
:104EC000D3B2B3FA83F35B09B0F1FF3F04DC1BB943
:104ED00088182D2100F8011CB0BD00BFA08601007C
:104EE00040420F0010B51A4B020B1C68A25C0A70FE
:104EF000C0F303221C68A25C4A70C0F303121C6852
:104F000000F00F00A25C8A701A68105CC87010BDB7
:104F100010B50F4BC0F303521C68A25C0A70C0F3BB
:104F200003421C68A25C4A70C0F303321C68A25C96
:104F30008A70C0F303221C68A25CCA70C0F303121B
:104F40001B6800F00F009A5C0A71185C487110BD74
:104F50008001002070B5154C874DA11D1420A84775
:104F600004F109010320A84704F10C011120A8470E
:104F7000824D754E288804F11201B047688804F10B
:104F80001601B047A88804F11A01B047E88804F177
:104F90002201B047288904F12601B047688904F14D
:104FA0002A013246BDE87040104700BF0A000020C9
:104FB0002DE9F8434B4C514D4BA120461022A847F8
:104FC0004F48611D0069FFF71FFE4E4E04F10D01B1
:104FD000B6F94000FFF77EFE04F110004AA110224E
:104FE000A847DFF8388104F11501D8F86800FFF709
:104FF0000BFEB6F9420004F11D01FFF76BFE04F150
:10500000200047A11022A84796F8440096F84610C1
:10501000182767F35F0067F35F0184F8280084F8BE
:105020002F1004F1300043A11022A847B6F8560013
:10503000DFF8149104F13501C84796F8480043A100
:1050400067F35F0084F83F0004F140001022A84796
:10505000B08E434F04F145010122B84796F84E0047
:1050600040A1303084F84F0004F150001022A847CE
:10507000B6F8540004F155010122B847B8F8080009
:1050800004F15B010122B8473B4D04F1600114209B
:10509000A8472E2604F16301032084F86260A84724
:1050A00004F16601112084F86560A847334D04F1CE
:1050B00068012888C847688804F16C01C847A88837
:1050C00004F17001C847E88804F17401C8472889D1
:1050D00004F17801C847688904F17C014A46BDE8BB
:1050E000F8431047800000205541444A3D20312EAE
:1050F0003030303030202030000000001130000807
:1051000020020020C40700204941444A3D20312E9E
:10511000303030303020203000000000900100207E
:105120004543484F3D30303031204155544F3D309C
:1051300000000000424B4C543D4638383020524964
:105140004E473D3000000000E54E000857414B45FA
:105150003D3132333435204449523D3200000000A5
:105160004B4D0008535442593D31323334352031D0
:105170003233343500000000C5460008ACF7FF1F8D
:105180002DE9F0416A4C6BA120461022FDF740FF4B
:105190006D4E611C306AFFF7A9FAB06B04F109018A
:1051A000FFF776F9DFF8A4815620E071B8F83800EF
:1051B00004F11005012804BF6D20A07364A12846E6
:1051C0001022FDF725FF706A2946FFF78FFAF06B72
:1051D00004F11901FFF75CF98020E077B8F8380096
:1051E000012803D16B20E0776D20A07504F1300514
:1051F0005CA128461022FDF70BFFB06A2946FFF795
:1052000075FA70695C4990FBF1F0642190FBF1F252
:1052100002FB110004F13A0100B2FFF753FA706982
:105220004FF4616190FBF1F0182190FBF1F101EB7B
:105230004101A0EBC10000B204F13D01FFF742FAC9
:10524000B8F8380004F12005012804BF6D2084F867
:1052500036004AA128461022FDF7DAFEF06A2946F8
:10526000FFF744FA70693C2590FBF5F090FBF5F1EF
:10527000C1EB0111A0EB810000B204F12A01FFF79C
:1052800021FA706990FBF5F1C1EB0111A0EB8100EF
:1052900000B204F12D01FFF715FAB8F838003C49C7
:1052A000012804BF6D2084F826003A4D04F1400027
:1052B0001022A847306E04F14301FFF739F8364851
:1052C00004F14B01B0F90C00FFF704FD7F2084F8D6
:1052D0004E00562704F1500030A1102284F8477088
:1052E000A847706E04F15301FFF722F8307884F874
:1052F0005770FEF7F5FA014604F159000722A84756
:1053000004F160002AA11022A847F08804F16A0184
:105310000122FFF71AFD04F170002AA11022A8470C
:10532000B8F94C0004F17B01BDE8F041FFF7D2BCB5
:10533000000100202030302E3030305620302E300A
:10534000303030570000000090010020C4070020DA
:1053500020302E303030304120393939392E395211
:105360000000000020302E303030304168203030D6
:1053700064303068000000008051010020302E3081
:1053800030303057682030306D303073000000000E
:1053900063950008113000082002002020442D31C0
:1053A0002E36355620554E4B4E4F574E00000000BE
:1053B000204C6F67436F756E743A20202020302098
:1053C0000000000020496E74657276616C3A2020FE
:1053D00020317320000000002DE9F041474C48A126
:1053E00004F110000822FDF713FE484E04F11101EC
:1053F000306AFFF77BF9562004F11805E07544A1E7
:1054000028460822FDF704FE706A2946FFF76EF968
:10541000DFF8088104F12005B8F8380040A1012820
:1054200004BF6D20A07728460822FDF7F1FDB06B80
:105430002946FFF75BF9B8F838003CA1012804BF02
:105440006D2084F8260020461022FDF7E1FD7069EA
:105450003B4990FBF1F0642190FBF1F202FB11005B
:10546000214600B2FFF72EF970694FF4616190FB9D
:10547000F1F0182190FBF1F101EB4101A0EBC1002B
:1054800000B2E11CFFF71EF9B06AE11DFFF72EF92B
:10549000B8F8380004F12805012804BF6D206073B6
:1054A00028A128461022FDF7B3FD70693C2790FB28
:1054B000F7F090FBF7F1C1EB0111A0EB810000B216
:1054C0002946FFF7FFF8706990FBF7F1C1EB011176
:1054D000A0EB810000B204F12B01FFF7F3F8F06AB2
:1054E00004F12F01FFF702F9B8F83800012804BFD2
:1054F0006D2084F83500BDE8F08100BF3A0000203F
:105500002030302E30303056000000009001002056
:1055100020302E303030304100000000C407002021
:1055200020302E30303030570000000030306430F2
:1055300030682020302E30303030416800000000CC
:105540008051010030306D3030732020302E3030EB
:1055500030305768000000000749082309880AB264
:10556000B2F1FF3FE44AC8BF0423B1F5804F28BF22
:105570001A441060704700BF6402002002F086BF2A
:105580001648016801F00C021549082A1AD1026870
:1055900003681B014FF0110358BF0223C2F383427B
:1055A0001A44836A002B48BF1F320368DB0302D40E
:1055B0000C49514306E0836A03F00F030133B1FB4A
:1055C000F3F15143084A09A311600068C0F30310C6
:1055D000185C21FA00F01060704700BF0410024010
:1055E00000127A0000093D007C000020000000004D
:1055F0000000000001020304060708094848494961
:10560000494A0160026041604260C16841F0200186
:10561000C160C16841F04001C1608168C907FCD127
:10562000C16821F02001C160C16841F01001C16072
:1056300082693E4912F0060F06D0826902F0060226
:10564000022A03D1BB2207E0A52205E0826902F00D
:105650000602062A01D1CC220A808269DF2303EAEE
:1056600012224A808269C2F307428A808269120E3E
:10567000CA80C269D2B20A81C26992B2120A4A8150
:10568000C16821F01001C160294850F8041C41F0A4
:10569000010140F8041C50F8041C8907FBD501687F
:1056A000244A114001600168234A1140016050F80A
:1056B000041C224A114040F8041C816A204A11400F
:1056C0008162C16A40F203129143C162C16A21F44E
:1056D0008031C162C16A21F00041C162016B21F0D9
:1056E00001010163D0F8BC1021F48031C0F8BC1076
:1056F00000214160C0F8C8100168016001680160C4
:1057000001680160016821F0030101600168016026
:1057100000684FF000604FF4005100F077BD00BF0B
:105720000420024023016745AB89EFCD00F8FF1F3D
:10573000041002400C00FF08FFFFC277FFFFF2FEDB
:10574000F0FFFF3F70B5044600200D46A4F8460167
:10575000FCF71AFD0068405D10F03E0F13D00120E9
:1057600084F84450A4F84601B4F84A613F2E00F290
:105770009B802846FCF70CFD711CA4F84A11A11966
:1057800081F8C40090E0A5F10800082818D8DFE8E7
:1057900000F005258B25253825258B000320A4F84E
:1057A000460142F20800A4F84400082084F84600AC
:1057B000B4F84A01002877D00138A4F84A0173E010
:1057C000032D71D01B2D4CD01D2D07D1B4F84C01E9
:1057D000411C0AB2072AC8BFC11F49E04549280930
:1057E00009680122085CA4F8462184F8440005F009
:1057F0000F00085C84F84500202084F84600032050
:1058000050E00220A4F8460140F60D20A4F8440020
:10581000B4F84A013F2865D804F1C40100220A54B3
:105820004FF0FF302060A4F84A21B4F94C01C217B0
:1058300000EB527222F00702801A2D4AA4F84C01A4
:1058400002EBC0108022FCF7BBFCB4F94C01013024
:10585000C11700EB517121F00701401AA4F84C0167
:1058600022E0B4F84C01411E0AB2002A48BFC11D13
:105870001F4D08B2A4F84C1105EBC01104F1C4008F
:105880008022FCF79DFCFCF7A7FCA4F84A01B4F9C0
:105890004C01802205EBC01104F14400FCF790FCA0
:1058A000FCF79AFCA4F84601B4F84601514900F00F
:1058B0003F00A4F84601B1F8441071B10025E9B2E7
:1058C00080B2884209D954FA85F090F8440002F079
:1058D000DFFEB4F846010135F1E7084800210180F8
:1058E000FF2070BD0020A4F84A0184F80301DBE723
:1058F0007402002080010020C407002098010020CD
:10590000B0B588B01B4C204602F052FAFF2006903A
:1059100040F24F700490002504A920468DF81C50D9
:10592000059502F07FFA4FF08070ADF80C500290B0
:105930000C486A460190012000902046032102F0A5
:1059400019F9069803214208204602F02AFA204657
:105950000321702202F00AFA204602F05DFA08B034
:10596000B0BD00BF0400020080F0FF020148032127
:1059700002F017BA0004004008480168090703D57F
:10598000416841F0080141600168890658BF7047CD
:105990008068C1B20248FFF7D5BE00BF1C38014085
:1059A0007406002004484521C1600449044A0A6085
:1059B0002D210160704700BF003801408C0100209C
:1059C000918600080C4A0B49127802F0030201F19B
:1059D0001000DFE802F00205080A01F11C0004E0F3
:1059E00001F1180001E001F114000449896E016021
:1059F000704700BFC4070020460800209001002027
:105A0000FEE7000080B540F6A660032100F062FAD0
:105A100002484CF6CC41016080BD00BF0030004020
:105A20000648BFF34F8F064A016801F4E061114355
:105A30000160BFF34F8F00BFFDE700BF0CED00E03A
:105A40000400FA058148016841F00801016001681D
:105A50000907FCD4016841F00401016001684907AD
:105A6000FCD47047022810D001281CD10E480268CF
:105A700022F4700202604FF4700202EB01510268DE
:105A80003FFA81F11143016070470748C26822F470
:105A90004012C2604FF4401202EB0151C26801F49F
:105AA00040111143C16070472C2401406749002810
:105AB0000A6842F4006308BF22F400630B60704779
:105AC00080B540F2093000F0FFFC40F20930BDE83B
:105AD000804000F0EDBC00005C480168C90703D1BC
:105AE000016841F001010160704700BF00F0010250
:105AF00059B156491AB10A6842F480120A60800707
:105B00000FD5086840F400400AE050491AB10A680D
:105B100022F480120A60800703D5086820F4004050
:105B200008607047012804D002280BD16FF4E040D0
:105B300001E06FF46020454A136818401060106857
:105B400008431060704700BFB0B50C4B01281C68BB
:105B500024F4007508BF44F400751D60186820F433
:105B6000FE70186042EA0100196808431860B0BD71
:105B70000248016841F00101016070478024014042
:105B8000B0B5274B05280CD800EB80001F2501FA83
:105B900000F405FA00F09D6A25EA000020439862AF
:105BA0001EE00B280DD800EB80001E381F2501FADF
:105BB00000F405FA00F05D6A25EA0000204358620F
:105BC0000EE010280CD200EB80003C381F2501FAB3
:105BD00000F405FA00F01D6A25EA0000204318626F
:105BE00009290CD801EB410002FA00F1072202FA60
:105BF00000F05A6822EA000008435860B0BD12293C
:105C00000CD801EB41001E3802FA00F1072202FA1B
:105C100000F01A6822EA000008431860B0BD00BF17
:105C20000C2401400148006880B270474C240140B8
:105C3000C107064903D00A6842F480020A6080075F
:105C400003D5086840F4001008607047082401403C
:105C5000634900EB800051F8202022F0010241F856
:105C6000202070475E4900EB800051F8202042F070
:105C7000010241F820207047594900EB800051F89B
:105C8000202042F0200241F820207047374A00EBE4
:105C9000800102EB81014B68800023F001034B601F
:105CA00000234B608B60CB600B610F2101FA00F089
:105CB0001168084310607047800001FA00F02B491A
:105CC0000A68104308607047800001FA00F03A4902
:105CD0000968084018BF0120704700BF70B5404AEE
:105CE00000EB800052F8203023F0010342F820300E
:105CF0000C6802EB80039C60CC68DC600C8B5C6001
:105D000052F820304C6823F47C530D69CE6923434C
:105D10002B43334342F8203052F820300D7A23F0E1
:105D200040040E7D012D08BF43F0400442F820409E
:105D300052F82030012E23F0800408BF43F0800485
:105D400042F8204052F82030497D43F010040029E9
:105D500008BF23F0100442F8204070BD800001FA13
:105D600000F002490A6810430860704704000240CE
:105D7000002208291DD801238B4013F48A7F4FF09D
:105D8000000313D010B50C4C8200236801FA02F214
:105D900000EB8000134044EA800018BF01238068B4
:105DA00010EA010218BF0122BDE8104002EA030018
:105DB00070470023FAE700BF00000240024A00EBF0
:105DC000800042F82010704714000240044900EBA4
:105DD000800051F8202022F4804241F820207047B2
:105DE00008000240034A00EB800089B242F820100C
:105DF000704700BF0C00024070B505464FF470209C
:105E00000C4600F035F800B170BD184E306840F017
:105E1000010030604FF470202C8000F029F83168C8
:105E200021F00101316070BD1048016841F080012E
:105E300001607047B0B504464FF4702000F018F8C8
:105E400000B1B0BD094D286840F0020028606C60C8
:105E5000286840F0400028604FF4702000F008F8F7
:105E6000296821F002012960B0BD00BF1020024066
:105E700070B5441E0025013C45F1000600F008F80D
:105E8000012801D1002EF6D1012808BF042070BDE1
:105E900007480168C9071CBF012070470168C9068F
:105EA0004FBF03200068022101EA5000704700BF85
:105EB0000C2002400448C168090603D5034901606B
:105EC00003490160704700BF042002402301674579
:105ED000AB89EFCDB0B5B14A45F2555313600E4BC7
:105EE0001C46D56805F0010514B10134002DF8D128
:105EF00045B95160D16801F0020113B101330029A5
:105F0000F8D109B10020B0BD6FF31F3090604AF6A0
:105F1000AA2010600120B0BD0200F0FFF0B5D0F85B
:105F200020E0446A00254FF00F0C0027082F0ED008
:105F300022FA07F6F60707D00CFA05F301FA05F680
:105F40002EEA030343EA060E04350137EEE708257F
:105F500000264FF00F0C102D0CD022FA05F3DB07B2
:105F600005D00CFA06F701FA06F3BC431C430436CD
:105F70000135F0E7C0F820E04462F0BD816270476F
:105F8000816170471823002A08BF282319507047E1
:105F900010B500F138404FEAB02005280FD840F680
:105FA0001124DFE800F00F0306090C0D40F612245F
:105FB00008E040F6132405E040F6142402E010BD8A
:105FC00040F61624204600F07FFA2046BDE8104037
:105FD00000F06EBA0069084018BF012070472DE933
:105FE000F043D0F800E0D0F80C8000264FF0030C0E
:105FF0000027102F14D023FA07F4E4070DD00CFA71
:1060000006F502FA06F928EA050444EA090801FA45
:1060100006F42EEA050545EA040E02360137E8E7E4
:10602000C0F800E0C0F80C80BDE8F083F0B50129AD
:10603000416814BF99431943416081684FF6FF746A
:10604000A24212D1C26B002401254FF0030C00279D
:10605000102F1DD005FA07F61E421EBF32430CFA60
:1060600004F6314302340137F2E700244FF0030C09
:106070000026102E0FD023FA06F7FF0705D00CFAE2
:1060800004F502FA04F7A943394302340136F0E774
:106090008160C263F0BD8160F0BD0000034800680C
:1060A00010F0060018BF4FF0FF3070471C20024070
:1060B000FCF7A8FDFDF70EF9FDF77AF8FDF78AF871
:1060C000854C3721B4F86E502046FDF7E5FD85423A
:1060D00003D0FDF783FEFEF71BF9FCF7A7FE08B11E
:1060E000FEF716F92A4864210068B0FBF1F0013888
:1060F000B0F1807F00D3FEE72649F02248602648B1
:1061000002700020886007200860FDF7E0FDFFF7BF
:10611000F7FBFFF777FCFFF745FC01F0DBFCFCF732
:10612000E1FC0A20FCF786FFFDF7BAFEFDF75EFFF3
:106130000020FDF731FF94F85600FFF715FCFCF73F
:1061400047FDFEF707FFB4F85000144C38B1FDF7D7
:106150008FF96420FCF76EFF4AF6AA2020604AF609
:10616000AA2502F04BFA02F0FBF902F06DF801F0FB
:1061700001FF01F0AFFE01F08BFF01F0C9FF02F05B
:1061800057F801F06DFF2560FDF79AF8E9E700BFC9
:106190007C00002010E000E023ED00E00030004033
:1061A00010B5194B1C6804F4E064A4F54074B4F510
:1061B000A06F03D2230AC3F1040403E00C4C1C605B
:1061C0000223022499400F23E3401A401143094A55
:1061D000090140EA020383F800131C2101EAD001FF
:1061E00000F01F00012303FA00F0885010BD00BF2B
:1061F0000005FA0500E100E0024908430249086091
:10620000704700BF0000FA050CED00E0024A1140A3
:10621000084302490860704780FFFF1F08ED00E057
:1062200010B5E849084B8A7803F1240444F82200A9
:10623000501C00F00300243388700FCB0844104436
:106240001844801010BD00BF20020020F8B5174C84
:1062500017A120462522FBF7B3FF1E4804F10805CD
:1062600000682946FEF7D0FC1B4F04F11D0697F984
:10627000400031460122FEF768FD204602F038FA60
:1062800016A120462522FBF79BFF1D4829460068E2
:10629000FEF7BAFC97F9420031460122FEF755FDA0
:1062A0002046BDE8F84002F023BA00BF470C0020AA
:1062B00020552041646A3A2031323334353637383C
:1062C00020202055205A65726F3A20202031323329
:1062D00034350A0030020020C40700202049204144
:1062E000646A3A2031323334353637382020204939
:1062F000205A65726F3A20202031323334350A003B
:10630000F8010020F0B5544B02461868534E00F0D7
:106310000C000828354627D11868C0F38345186853
:106320009C6A000104D4A81C0F2D08BF102001E0B6
:1063300005F11100002C48BF1F301C68996AE40366
:1063400003D4484900FB01F50EE09C6A490004F0C3
:106350000F0404F1010402D4B6FBF4F102E0404959
:10636000B1FBF4F101FB00F51868B446C0F303106B
:1063700019681C68062AC4F3C227C1F302260FD885
:1063800039A1085C3C4925FA00F4C85D24FA00F004
:10639000DFE802F004080A3A0E1A22002846F0BD8F
:1063A0000020F0BD2046F0BD885D24FA00F0F0BD6D
:1063B000D96AC90529D4D86AC00330485CBF49F6F8
:1063C0008070C0F2D500F0BDD86A40064FF400409E
:1063D00058BF48F21200F0BDD96A890714D0D86AB4
:1063E00000F00300012828460ED0D86A00F0030010
:1063F000022804BF4FF40040F0BDD86A00F003004B
:106400000328604618BF0020F0BD1A68D96AC2F39D
:106410008132C90FDFE802F00209101500290EBF12
:1064200040080320B4FBF0F0F0BD00290EBF800847
:106430000520B4FBF0F0F0BD51B10720B4FBF0F043
:10644000F0BD00290EBFC0080920B4FBF0F0F0BD7C
:106450000621B0FBF1F0F0BD0410024000127A00FA
:10646000006CDC0200093D0000000000000000009C
:10647000010203040607080948950008003FAB0124
:1064800000F01F01012202FA01F1154A8009835828
:1064900019438150704700BF00F01F01012202FA2A
:1064A00001F10F4A8009835819438150704700BF9A
:1064B00000F01F01012202FA01F1094A8009835804
:1064C00023EA01018150704700F01F01012202FA06
:1064D00001F1034A8009835819438150704700BF76
:1064E0000010024004490A6822F003020A600A68A8
:1064F00010430860704700BF3010024070B5314B48
:106500009A69900315D43248017801F00304DFE85A
:1065100004F0023C1F2FD84C2B4EE569B5429D6616
:1065200002D92A4DE5619D664FF69A739A420EDCB8
:106530001AE0D148244A01699142996602D9234957
:10654000016199662248017841F00301017070BD34
:10655000C94C1D4E6569B5429D6602D91B4D6561EA
:106560009D661C4B9A421FDD01F0FC010131EDE7F5
:10657000C14C154E2569B5429D6602D9134D256162
:106580009D66144B9A42E2DD17E0BB4C0E4EA569A6
:10659000B5429D6602D90D4DA5619D660D4B9A428F
:1065A00007DD01F0FC01D1E74FF69A739A42CBDD8B
:1065B000CDE74FF69A739A42C9DC01F0FC01023133
:1065C000C4E700BF900100207F969800A0860100DC
:1065D000460800209BFF01006FF00102002908BF60
:1065E0006FF00202416811404160704701220029AA
:1065F00008BF02224168114341607047016841F0C1
:10660000400101607047C16070478068084018BF52
:1066100001207047F0B5026891E8F81002F4415289
:106620001A4322432A43324389693A4342EA0C021D
:1066300011430160C16921F40061C161F0BD000036
:1066400006480021016006480160064801600648CE
:1066500001609C480160054801807047C40100202A
:10666000C0010020B8010020BC01002096010020DC
:106670002DE9F04786B07D4D6C688CB17CA1204639
:10668000FBF78CFD60B3A86838B300211022FBF73C
:10669000CDFD00F001017848A0F8441077A039E062
:1066A000A64802F025F87448068FB0F84E80B0F87E
:1066B0005690B0F844A0B0F85470848EC58EF0B2F5
:1066C000FDF730F9CDE90074CDE9025604909C48FD
:1066D00051464A46434601F0E7FF06B0BDE8F08761
:1066E0006BA12046FBF75AFDC8B1A8680028F4D07A
:1066F00000211022FBF7D2FD5F4CA4F85600C0F336
:106700000721C0B2814238BF0846FFF72DF9B4F81F
:10671000561061A006B0BDE8F04701F0C5BF67A103
:106720002046FBF73BFD48B1A8680028D5D00021E2
:106730000A22FBF77BFD63490860CEE762A1204691
:10674000FBF72CFDA8B1A8680028C6D000210A22BA
:10675000FBF76CFDC11700EB917121F00301401AAA
:106760004549A1F84E00C0B206B0BDE8F047FDF7BC
:10677000FFBC56A12046FBF711FD60B1A8680028B8
:10678000ABD000210A22FBF751FD3B49A1F8540090
:1067900081B250A0BEE756A12046FBF7FFFC58B1DE
:1067A000A868002899D000210A22FBF73FFD324952
:1067B000888681B250A0ADE755A12046FBF7EEFCDC
:1067C00020B106B0BDE8F047FDF794BA5149204624
:1067D000FBF7E4FC90B1A86860B14FA1FBF7DEFCC9
:1067E00040B14E4801F084FF4D48016841F400215A
:1067F000016072E74B4801884B488BE74B492046C4
:10680000FBF7CCFC60B1A86800283FF466AF00211C
:106810000A22FBF70BFD1849C88681B2444879E784
:1068200044A12046FBF7BAFCD0B1A86800283FF489
:1068300054AF00210A22FBF7F9FC00EBD07121F0E4
:106840000101401A0C4984B20887C0B2FDF76AF80A
:1068500002463948214606B0BDE8F04701F024BFA2
:10686000364806B0BDE8F04701F042BF0C020020F8
:106870006563686F00000000C40700202073657422
:10688000204543484F20746F2025642E2E2E0A0089
:10689000626B6C74000000002073657420424B4CE6
:1068A0005420746F2030782530345820616E642075
:1068B0006170706C792E2E2E0A00000074696D656F
:1068C00000000000A4010020646972007374627902
:1068D0000000000020736574207362616E64627949
:1068E0002074696D6520746F20253564730A00007B
:1068F0006977616B6500000020736574204957411A
:106900004B4520746F20253564204C53420A00000B
:10691000636C6B00F69C000872756E00F7950008BA
:10692000EC010020940100201A9B0008439D000800
:10693000EA9A0008646576009C9B0008E4970008CA
:10694000B79B00082DE9FC473D4E00207468ADF868
:106950000600002C6FD03BA12046FBF71FFCA8B31C
:10696000B06800286AD0002110220024FBF796FCB2
:106970000546F06820B100211022FBF78FFC84B29D
:10698000EDB2A4F1080000260FF2C4080DF10609CB
:106990000FF2C80A382888BF4024B0B2844213D905
:1069A0002F183E2F10D8400703D14046394601F03A
:1069B0007BFEB8B24946FCF723FCBDF806105046F2
:1069C00001F072FE0136E8E7204835E025A12046B7
:1069D000FBF7E4FBE8B1B06880B3F16871B3002164
:1069E0001022FBF75BFC0446F06800211022FBF745
:1069F00055FCE4B285B220462946FCF759FC1BA0A1
:106A0000294601F051FE1EA0214601F04DFEBDE8D1
:106A1000FC8722492046FBF7C1FB18B1FCF7DAFBE3
:106A20001FA009E025492046FBF7B8FB18B1FCF789
:106A3000EFFB23A000E0284801F05AFEBDE8FC87E8
:106A40000C0200207265616400000000FF9B0008DA
:106A50000A30782530345820200000002530345882
:106A60002000000077726974650000002077726969
:106A700074652030782530345820746F0000000091
:106A800020656570726F6D20616464726573732038
:106A9000307825303458202E2E2E0A00D99C00083C
:106AA0004C6F61642066726F6D20496E742E2045B4
:106AB0004550524F4D2E2E2E0A000000ED9C00082E
:106AC0005361766520746F20496E742E20454550C1
:106AD000524F4D2E2E2E0A00739600082DE9F84FC6
:106AE000244C6068002843D0002110220026FBF7C8
:106AF000D5FBB0F5803F38BF0646A06868B10021DD
:106B00001022FBF7CBFB4FF48077092807D3C6F59B
:106B10008031884238BF074601E04FF480771B4838
:106B200000250DF1020B81464AF6AA280FF2540AFD
:106B3000AF421AD07419280703D10FA0214601F0E3
:106B4000B3FDA0B259460122FCF7BEFA18B1504677
:106B500001F0CEFD04E09DF802100B4801F0A4FD09
:106B60004846C9F800800135E2E7094801F0C0FD58
:106B7000BDE8F88F0C0200200A3078253034582008
:106B80000000000046462000019C00080030004044
:106B9000FF9B00082DE9F04F85B03A483A4FD0F8F6
:106BA00000A07868002854D0002110220024FBF7B0
:106BB00075FBB4EB104F4CD18046B868002848D024
:106BC000002110220025FBF769FB0646F86820B17A
:106BD00000211022FBF762FB0546310A681E0022E5
:106BE00001AB082A06D003EB420403F812106670CA
:106BF0000132F6E74FF6FF7100270DF1040901227B
:106C0000884228BF1546AF4226D207EB0800112D57
:106C100007D34FF6F07108404FF0100B4946102291
:106C200004E080B24FF0020B49460222FCF78AFAD8
:106C300010BB5F440024FCF739FA0028E3D00120A0
:106C4000FCF708FA601C0B2C0446F4D324A001F0D6
:106C50004FFD05B0BDE8F08FB1B20CA0424601F087
:106C600023FD0848022DF4D300682946A0EB0A0250
:106C700011A001F019FDECE70146184801F014FDE0
:106C8000E7E700BFA00100200C0200202077726916
:106C900074652030782530345820746F2065657015
:106CA000726F6D2061646472657373203078253073
:106CB0003458202E2E2E0A002077726974652030F9
:106CC000782530345820776F7264732074616B6557
:106CD00020256C64207469636B730A00FE9A0008B7
:106CE00020454532345F436865636B427573792094
:106CF00074696D656F75742E0D0A00002DE9F84FEB
:106D0000584C59A120462222FBF75AFA5E4804F15A
:106D1000050900684946FDF7E9FC5620E0725B482A
:106D200004F10D0600683146FDF7B2FBDFF8608123
:106D300004F11A01B8F80000FEF7D4F8554F388F67
:106D4000012804BF6D20A074204601F0D1FC52A19F
:106D500020463222FBF734FA5C48211D0068FDF71B
:106D6000C5FC5B4831460068FDF792FB594801219C
:106D7000007800F0030001FA00F040F03000607687
:106D8000554804F120010068FEF7C2F8534804F1A9
:106D900026010068FEF732F8388F012803D16B20F6
:106DA000E0746D20A072204601F0A2FC4CA12046A8
:106DB0002122FBF705FA5248E11C0068FDF796FC1A
:106DC000504831460068FDF791FC4F4804F1160128
:106DD0000068FEF713F8388FDFF89CB8012802BF6F
:106DE0006D20E07460722046D847484920462E2224
:106DF000FBF7E6F94648DFF81CA100684946D04792
:106E0000B8F8040004F11106434D3146A847434841
:106E100004F11B010068D047B8F8080004F1270707
:106E20003946A8472046D8473D4920462E22FBF741
:106E3000C7F93C4849460068D047B8F802003146D7
:106E4000A847394804F11C01B0F90000FDF742FFE2
:106E5000B8F806003946A84720465946BDE8F84F1D
:106E6000084700BF470C002020553A202030332E21
:106E70003330305620302E30333739572041443D9F
:106E80003078433346370A00B0010020C8010020A3
:106E900064020020C407002020493A202D302E3003
:106EA00030373641203635362E393652205047415C
:106EB0003D382041443D3078464646464431202006
:106EC00020202D393275560A00000000B401002040
:106ED000CC01002046080020A8010020AC010020C1
:106EE00020503A20302E303030304168202D302E66
:106EF00030303031576820202020203136730A008E
:106F0000B8010020BC010020A40100207F9A0008E5
:106F1000F001002031430008E54E00087400002015
:106F2000529A0008F40100202C02002070B5074E90
:106F3000002507A4842D08BF70BD701971594268DF
:106F4000204601F0B1FB0C35F4E700BF509D00086E
:106F5000202573202D3E202573000000B0B52D4D57
:106F60006C6884B12C492046FBF718F990B1A868E9
:106F7000F0B100210A22FBF759F928490860BDE861
:106F8000B040FEF71FBD334801F0B2FBBDE8B04092
:106F9000FFF75CB922492046FBF700F948B1A86821
:106FA00030B100210A22FBF741F91E49A1F8420045
:106FB000B0BD1D492046FBF7F1F828B3A8680021B1
:106FC0000A22FBF733F9FBF79AFB044617480068DF
:106FD000FBF795FB01462046FBF7CBF91449FBF77D
:106FE00096F9FBF7B3FB0D4D2860FEF7EBFC114C57
:106FF00011A120461B22FBF7E3F8286804F10D01DC
:10700000FDF702FE204600E01248BDE8B04001F066
:107010006FBB00BF0C020020019D0008F80100209A
:107020001F9D0008C4070020F69C0008B401002042
:107030000050C347470C00202073657420496164E9
:107040006A20746F2031323334353637382E2E2E85
:107050000A00000026980008BCB52F4D6C68002C73
:1070600053D02EA12046FBF799F8B8B1A8680028A4
:1070700050D0E96800294DD000210A220024FBF7F6
:107080000DF97821EA6801EAC003022101EAD00182
:10709000184610230094FCF7CDFBBCBD21A120466F
:1070A000FBF77CF858B1A86800211022FBF7F6F82E
:1070B000A96879B380B2BDE8BC40FCF76DBF1BA1E5
:1070C0002046FBF76BF860B1A86818B300210A22CC
:1070D000FBF7E4F8142161F35F00BDE8BC40FDF765
:1070E000E9B814A12046FBF759F870B1A86888B137
:1070F00000210A22FBF7D2F8104900F00300A1F8A2
:107100004E00BDE8BC40FDF733B80D48BDE8BC40BB
:1071100001F0EEBABCBD00BF0C02002073686F77AF
:107120000000000066696C6C000000006F6E6F6606
:1071300066000000726F746174650000C40700206F
:107140003A9600082DE9F84FDFF814546C68002CCB
:1071500000F088800FF20C412046FBF71FF8002852
:1071600000F0E980A86800210A22FBF797F8DFF811
:10717000FC13B1F84A2092020132B0FBF2F303FB98
:1071800012001FFA80F9B9F1000F00F0EE80098FAC
:107190000FF224400FF2F032012908BF104601F02F
:1071A000A7FACF48DFF84454DFF83C44DFF84084C6
:1071B0000027834605F1070A05F11006B8B281459C
:1071C00098BFBDE8F88F380180B221461022FBF746
:1071D0007BFF4AF6AA21CBF800102846414632220E
:1071E000FAF7EEFF20786178012241EA0020294673
:1071F000FDF7ABFDD4F80200514600BAFDF7FEFDE5
:10720000E079A179227A000240EA0140090610449F
:10721000314648BF00F17F40FDF768FAA07A617AF5
:10722000E27A000240EA01400906104405F1190122
:1072300048BF00F17F40FDF759FA207B627B05F1E2
:10724000220142EA0020FDF773F8A07BE27B05F102
:10725000290142EA0020FDF76BF8284601F048FAC0
:107260000137ABE7DFF80404DFF80C84C047DFF830
:107270007C43DFF80814DFF8089420461C22C84736
:10728000DFF8E8A204F11401BAF84A0001228002F2
:10729000FDF75BFD2046C047DFF8E81320461722C4
:1072A000C847BAF94C0004F11101FDF713FD20465F
:1072B000C047DFF8D403C047BAF84800DFF864538A
:1072C00000282846DFF8586308BF3046C047DFF87B
:1072D000BC03C047BAF84600002808BF3546284618
:1072E000C047DFF8AC1320461B22C847DAF820005D
:1072F000251DDFF8A0732946B847DAF8240004F109
:1073000010063146B8472046C047DFF88C132046A8
:107310001B22C847DAF828002946B847DAF82C00BB
:107320003146B847BAF8380001284ED1AF4C6D202D
:10733000A075A07249E0AFA12046FAF72FFFB0B1C7
:10734000A86800210A220A25FAF7A8FF4FF0FF31AA
:1073500011FA80F1032927D8844CA4F84A00A848E0
:1073600001F0C6F9B4F84A0027E081A42DE0A5A1F8
:107370002046FAF713FF68B3A868002840D0002120
:107380000A220A25FAF78AFF784CC0B2A4F84C000A
:107390009D4801F0ADF9B4F94C00944C2146FDF73D
:1073A00099FCA4F8035010E0934801F0A1F9934828
:1073B00001F09EF96D48B0F84A008C4C80022146DD
:1073C0000122FDF7C2FCA4F805502046BDE8F84FA5
:1073D00001F08EB98FA12046FAF7E0FE08B3A86845
:1073E000A8B300210A22FAF759FF604C00F001000F
:1073F000A4F84800894801F07BF9B4F848004EE051
:10740000824801F075F9824801F072F95748774CCB
:10741000B0F94C002146FDF75DFC0A20A4F80300FA
:10742000D3E783A12046FAF7B9FED0B1A86868B3C4
:1074300000210A22FAF732FF4C4C00F00100A4F8B8
:1074400046007D4801F054F9B4F8460027E076483C
:1074500001F04EF9754801F04BF94448B0F8480086
:107460001DE078A12046FAF799FEF0B1A868A8B30C
:1074700000210A22FAF7DAFE3C4D5C4C734928627F
:1074800020461322FAF79CFE286A22E06B4801F09E
:107490002FF96B4801F02CF93448B0F84600614CE4
:1074A0005F49002808BF0C468FE769A12046FAF71C
:1074B00075FEB8B1A86850B300210A22FAF7B6FEEB
:1074C0002A4D4A4C6449686220461322FAF778FE36
:1074D000686A04F10801FDF709F976E75A4C74E788
:1074E000003000405DA12046FAF758FE88B1A86838
:1074F00078B300210A22FAF799FE1C4D3B4C5949FA
:10750000A86220461322FAF75BFEA86A15E0514CE8
:107510005BE755A12046FAF741FEE0B1A868E0B16B
:1075200000210A22FAF782FE104D304C5149E862E0
:1075300020461322FAF744FEE86A04F10801FDF739
:10754000D5F8288F01287FF440AF284C6D20A07318
:107550003BE7434C39E7454C37E7454C35E700BF3F
:107560000C02002064756D7000000000C40700204C
:10757000206C6F672064756D70205B646563206E9E
:10758000756D5D200A00000020202020692C20203D
:107590002020742873292C20202020552856292C9F
:1075A00020202049286D41292C20202056642B2C96
:1075B00020202056642D0A0020202020692C202025
:1075C0002020742873292C20202020552856292C6F
:1075D00020202020492841292C20202056642B2CB3
:1075E00020202056642D0A0054020020470C002061
:1075F000B39900086D617800879700089B9C00088C
:10760000379C0008696E74004D9C0008B99700080B
:10761000B89C000872696E6700000000079C0008B3
:10762000939B0008989B00082D970008639C000816
:107630006175746F000000001A9C000855970008DF
:107640007A9C000875680000489B0008AC9A000806
:10765000756C00007A9B0008D89A000869680000E1
:107660002F9B0008149A0008696C00001E990008FE
:10767000619B0008409A0008F1860008F99900080B
:10768000C1210008E39900086B9C0008829C000857
:10769000BE9A0008ED460008269A0008B0B5184DBD
:1076A0006868A8B100211022FAF7F8FD04466FF3CC
:1076B0001100B0F1006F0CD047F6FF7024EA000013
:1076C000B0F1005F05D00F48BDE8B04001F010B840
:1076D000B0BDA86830B100211022FAF7DFFD85B2F5
:1076E000072D01D84FF4807520462946FCF7BBFAD8
:1076F000034605A021462A46BDE8B04000F0D4BFAD
:107700000C020020D595000853544152543D307866
:1077100025303858204C454E3D307825303858209B
:107720004352433D3078253034580A002DE9F84360
:10773000FEF7B4FC08B1BDE8F8831D4D6868002869
:10774000F9D000211022FAF7A9FD58B30446A86821
:10775000002550B100211022FAF7A0FD87B2B7F53D
:10776000807F88BF0125072F01D84FF48077DFF88D
:107770005490002D4FF000050FF23C0818BF4FF455
:107780008077AEB2B7420BD9300703D1A11940467A
:1077900000F08AFFA15D484600F086FF0135F0E762
:1077A000044800E00848BDE8F84300F0A1BF00BF6E
:1077B0000C020020FF9B00080A3078253038582042
:1077C00000000000019C0008D595000810B517487E
:1077D00044682CB316492046FAF7E0FC40B115A0E6
:1077E00000F086FFFBF7F6FCBDE81040FBF71EBB80
:1077F00019492046FAF7D2FC30B118A000F078FF02
:10780000BDE81040FCF784BD1CA12046FAF7C6FC79
:1078100030B11CA000F06CFFBDE81040FCF7DEBAF0
:107820002048BDE8104000F063BF00BF0C020020FC
:10783000D99C0008204C6F616420706172616D6595
:10784000746572732066726F6D20454550524F4DBE
:107850002E2E2E0A00000000ED9C000820536176B9
:107860006520706172616D657465727320746F203C
:10787000454550524F4D2E2E2E0A000072657374EE
:107880006F72650020526573746F7265206465665F
:1078900061756C7420706172616D65746572732EB0
:1078A0002E2E0A005B9900080A48406808B900209B
:1078B00006E000210A220A24FAF7F0FCB0FBF4F0FB
:1078C000FBF7B8FB04A000F013FF012080F313883E
:1078D000FEF7A6F80C020020207265626F6F7469D3
:1078E0006E672E2E2E200A00B0B51D4D6C685CB15F
:1078F0001CA12046FAF752FC68B1A86850B30021D9
:107900000A22FAF793FC1DE01C4800F0F1FE16482D
:10791000418E1BA01AE016492046FAF73FFCD0B171
:10792000A868B8B100210A22FAF780FC114941F297
:10793000CC0200FB02104FF47A7190FBF1F00E497B
:10794000096808440849488681B20848BDE8B04043
:1079500000F0AABEB0BD0948BDE8B04000F0C8BE06
:107960000C02002076333000C4070020E4950008A4
:10797000F69C00081808FEFF20020020609800080E
:10798000205633303D2534646D560A00B0B53D4D68
:107990006C6884B13C492046FAF700FC90B1A868B5
:1079A000F0B100210A22FAF741FC38490860BDE82D
:1079B000B040FDF7D1BD464800F09AFEBDE8B040AA
:1079C000FEF744BC32492046FAF7E8FB48B1A86804
:1079D00030B100210A22FAF729FC2E49A1F8400013
:1079E000B0BD2D492046FAF7D9FB40B3A868002165
:1079F0000A22FAF71BFCFAF782FE044627480068C1
:107A0000FAF77DFE01462046FAF7B3FC2449FAF75F
:107A10007EFCFAF79BFE1D4D2860FDF79DFD214C75
:107A200021A120461B22FAF7CBFB286804F10D01A7
:107A3000FDF7EAF82046BDE8B04000F059BE214904
:107A40002046FAF7ABFBD0B1A8680028C8D00021C7
:107A50000A22FAF7EBFBA0F2D17140F6B63291425E
:107A6000BED8194909894843012101EB1040094951
:107A7000C88681B21548BDE8B04000F015BE144874
:107A8000D9E700BF0C020020019D00083002002051
:107A90001F9D0008C4070020F69C0008B0010020CC
:107AA0000050C347470C0020207365742055616463
:107AB0006A20746F2031323334353637382E2E2E0B
:107AC0000A000000439D000864020020EA9A0008B2
:107AD0008698000870B50D480088410AC0F343122B
