:020000040800F2
:10200000580E0020652100089D3C00086939000831
:10201000353C0008012C0008815A0008000000002F
:10202000000000000000000000000000AD410008BA
:102030003130000800000000C13C00088D54000849
:102040007F2100087F2100087F2100087F210008F0
:102050007F2100087F2100087F2100087F210008E0
:102060007F210008153000087F2100087F2100082B
:102070007F2100087F2100087F2100087F210008C0
:102080007F2100087F210008000000007F21000858
:102090007F2100087F2100087F2100087F210008A0
:1020A0007F2100087F2100087F210008F9590008DE
:1020B0007F210008000000007F21000800000000D0
:1020C0007F210008000000007F21000800000000C0
:1020D0000000000000000000000000000000000000
:1020E00000000000000000007F2100080000000048
:1020F00000000000000000000000000000000000E0
:102100007F21000800000000000000000000000027
:1021100000000000000000000000000000000000BF
:1021200000000000000000000000000000000000AF
:10213000000000000000000000000000000000009F
:102140000000000000000000000000007F210008E7
:10215000DFF80CD000F076FC004800473161000841
:10216000580E00200648804706480047FEE7FEE775
:10217000FEE7FEE7FEE7FEE7FEE7FEE7FEE7FEE737
:102180000D5500085121000800487047048A0008D6
:10219000A0F14101192900D82030704730B505461B
:1021A0002A460B4612F8010B13F8014B08B1A04266
:1021B000F8D01CB1002802D06D1CF1E7284630BDD4
:1021C00010B5044604E00B7800F8013B03B1491C4C
:1021D000521EF8D2204610BD421C10F8011B0029E7
:1021E000FBD1801A7047000070B50F4D00B9286808
:1021F000002412E00A4602E09E4203D0521C1378EB
:10220000002BF9D1DAB2224305D02BB124B1002141
:1022100000F8011B04E00446401C0678002EE9D1BA
:102220002860204670BD0000000000202DE9F04726
:1022300091460F4680460446002614F8015B2DB1F6
:10224000FFF7A2FF0068405DC007F6D12B2D02D03A
:102250002D2D18D0641E4A463946204600F00EFB4C
:1022600027B13968A14201D1C7F8008071054FF04C
:1022700002040BD54042002803DD06F06FFB04602A
:10228000A007BDE8F08746F48066E4E70028F8DAA6
:1022900006F064FB04606FF00040F2E72DE9F05FA8
:1022A00093460F4680460446002606F057FBD0F8BA
:1022B0000090824614F8015B2DB1FFF765FF0068BE
:1022C000405DC007F6D12B2D02D02D2D1AD0641EF3
:1022D0000021CAF800105A463946204600F0CEFACE
:1022E000014627B13868A04201D1C7F80080DAF86A
:1022F0000000022809D0CAF80090700505D54842B0
:10230000BDE8F09F46F48066E2E70846F8E780EA19
:10231000010210B502F00043400022D04A001FD055
:10232000010E01EB1261C0F35600C2F3560240F4F5
:10233000000042F40002A0FB022000047F391404D4
:1023400000D0401C50EA124001D44000491EC2B2E5
:102350000C0604EBD010401C4008802A02D003E099
:10236000002010BD20F00100002900DA00201843F1
:1023700010BD30B480EA010202F0004530F00042A6
:1023800021F0004013D090B1C30DD40DC2F316015B
:10239000C0F31600E41A41F4000140F400027D3459
:1023A000914201D3641C00E04900002C02DA30BCE9
:1023B000002070474FF400000023914201D3891A96
:1023C000034340084FEA4101F7D151B1914202D194
:1023D0004FF0004105E002D24FF0010101E06FF043
:1023E000010103EBC450284430BC00F096BA2DE93B
:1023F000FE4F804681EA0300C00F0C46009021F09A
:10240000004123F00045B8EB0200A94105D2404647
:10241000214690461C460B46024623F000401043DE
:1024200047D0270DC7F30A00C3F30A510290401AA0
:10243000019040286BDAC3F3130040F4801B00982E
:10244000924620B10023D2EB030A63EB0B0B0198F9
:102450005946C0F14002504600F0DFF906460D46ED
:1024600050465946019A00F0F7F910EB0800614117
:10247000002487EA115284EAE7731A4340D0009A95
:1024800062B3019A012A4FEA075215DC001B61EB87
:1024900002014FF0004202EA0752CDE90042001C5F
:1024A00041F5801132462B4600F07DFA03B0BDE8BD
:1024B000F08F40462146F9E7001B61EB0201001C4A
:1024C00041F5801300185B412018A2F5001747EB77
:1024D000030140EAD570B6196D4111E06D084FEA6D
:1024E000360645EAC0754FEA0752001B61EB020150
:1024F000001C41F5801149084FEA30000019514194
:1025000032462B4603B0BDE8F04F00F03DBA0098CC
:10251000012240000023D0EB020263EBE07300983D
:1025200021464FEAE074B8EB000061EB0401E9E7F3
:1025300083F000435BE781F0004158E72DE9FE4F4F
:1025400081EA030404F0004421F0004100944FF0BC
:10255000000B23F0004350EA01045ED052EA03046A
:102560005BD0C3F30A54C1F30A552C44A4F2F334EC
:102570000194A0FB0254C1F3130141F48011C3F391
:10258000130343F4801301FB024400FB034E840A4F
:10259000970A44EA815447EA8357A4FB07680295E7
:1025A0008D0A05FB07854FEA932C04FB0C54270585
:1025B000029D4FEA065847EA1637B5EB08056EEB61
:1025C000070C870E920E47EA811742EA8312A7FB97
:1025D0000201B6EB0B0164EB00042B0D43EA0C3354
:1025E0005E1844EB1C50DA465146E7FB0201C5F386
:1025F00013044FEA0B3343EA14534FEA0432019CAD
:1026000043EA0603A4F10C040294009CCDE900B453
:1026100000F0C9F903B0BDE8F08F00200146F9E7EA
:102620002DE9F04D81EA030404F0004B21F0004550
:1026300014464FF0000A23F0004150EA050220D072
:1026400054EA01021DD0C5F30A570246C5F313032D
:10265000C1F31300C1F30A5640F4801543F480130C
:10266000A7EB0608101BD64608F2FD3873EB0500F1
:1026700002D308F1010801E092185B41B8F1000FA4
:1026800003DA00200146BDE8F08D00204FF48011F0
:10269000064684460EE0171B73EB050705D3121B95
:1026A00063EB050306434CEA010C49084FEA30008E
:1026B00092185B4150EA0107EDD152EA030012D0B3
:1026C00082EA040083EA0501084305D0101BAB41F0
:1026D00006D20122002306E000224FF0004302E070
:1026E0006FF0010253101AEB06004CEB085110EB8F
:1026F0000A0041EB0B01BDE8F04D00F045B9C10FF8
:1027000080EAE0700844CA079623002100F00EB961
:102710000EB5C10F80EAE0700844CA07002140F2FC
:1027200033438DE80E000A460B4600F03CF903B037
:1027300000BD0EB540F2334102910021CDE90011F8
:102740000A460B4600F02FF903B000BD00F000422E
:1027500020F00040C10DC0F3160040F400007F29B6
:1027600001DA00207047962903DCC1F19601C840C8
:1027700001E096398840002AF4D04042704770B595
:10278000C1F30A5201F000450024C1F3130140F2E5
:10279000FF3341F480119A4201DA002070BD40F20B
:1027A00033439A42A2F2334203DC524200F044F82F
:1027B00000E090402C43F1D0404270BD00F0004258
:1027C00030F000400AD0C10D01F56071C0F3160071
:1027D00042EA0151C20840071143704700200146F8
:1027E000704701F0004330B421F0004150EA01028B
:1027F00006D00A0DA2F56072C1F31301002A02DCB3
:1028000030BC00207047440F44EAC104C100E01806
:1028100030BC00EBC25000F080B8202A04DB203A24
:1028200000FA02F1002070479140C2F1200320FA23
:1028300003F3194390407047202A04DB203A21FA21
:1028400002F00021704721FA02F3D040C2F12002C9
:102850009140084319467047202A06DBCB17203ADF
:1028600041FA02F043EAE07306E041FA02F3D04095
:10287000C2F1200291400843194670472DE9F05FEC
:1028800082460078002715468B460AF10104B946B6
:10289000302801D09DB113E014F8010B01277828EE
:1028A00003D0582801D045B10AE00DB1102D07D151
:1028B0000027102514F8010B02E0082500E00A2586
:1028C0000026B0460EE005FB080005FB06F10127D7
:1028D00001EB10461FFA80F8B6F5803F00D3B946E9
:1028E00014F8010B294600F0BFF80028EBDABBF121
:1028F000000F05D00FB1641E00E05446CBF8004035
:10290000B9F1000F06D006F029F802210160C81EB7
:10291000BDE8F09F48EA0640FAE70029A8BF7047E3
:10292000401C490008BF20F00100704710B4B0FA05
:1029300080FC00FA0CF050EA010404BF10BC7047A0
:1029400049B1CCF1200421FA04F411FA0CF118BFBA
:10295000012121430843A3EB0C01CB1D4FEA006189
:102960004FEA102042BF002010BC704700EBC3505C
:1029700010440029A4BF10BC7047401C490008BF88
:1029800020F0010010BC704710B5141E73F1000454
:1029900008DA401C41F1000192185B411A4301D151
:1029A00020F0010010BD2DE9F04D92469B4611B17B
:1029B000B1FA81F202E0B0FA80F220329046FFF7DD
:1029C0002CFF04460F4640EA0A0041EA0B01534639
:1029D0005A46084313D0114653EA010019D0C8F1F2
:1029E00040025046FFF728FF05460E46504659461E
:1029F0004246FFF712FF084305D0012004E02046BD
:102A00003946BDE8F08D0020054346EAE0762C43C8
:102A100037430A986305E40AA0EB08000022FD0A88
:102A200044EA47540A3002D500200146E9E701058F
:102A300010196941DDE9084500196941BDE8F04D0B
:102A4000A2E70000064C074D06E0E06840F00103F5
:102A500094E8070098471034AC42F6D3FFF77CFBAC
:102A6000189D0008389D00083A2800D2303820F020
:102A70002002412A01D3A2F13700884201D34FF04E
:102A8000FF30704770B58D1810F8014B14F0030239
:102A900001D110F8012B231106D110F8013B03E0FE
:102AA00010F8016B01F8016B521EF9D1ABB110F8AF
:102AB000012B04F00C048A1A0C2C03D0A2EB841214
:102AC0009B1C08E010F8014BA2EB0422F8E712F877
:102AD000014B01F8014B5B1EF9D5A942D4D300206C
:102AE00070BD000010B588B00020002403F00EF97E
:102AF0004FF400500790052006900120ADF8140017
:102B00004FF4806004902F48694603908DF8084088
:102B10002D4C4FF48070019004F14400009000208F
:102B200003F01CF9002003F0E7F8002003F08EF911
:102B3000002003F0D7F803F003F854F8040C012147
:102B400040F4807044F8040C206820F002002060FB
:102B5000206840F400002060206840F4807020600D
:102B6000012003F003F801204FF4602103F01AF86C
:102B7000002002F0DBFF0120052102F0B3FF134C1F
:102B8000002000210722A047012001210722A047A1
:102B9000022002210722A047032010210722A0477C
:102BA000042011210722A04700204021142203F015
:102BB0000BF803F01DF802F0CFFF012003F078F8C6
:102BC00008B010BD6402002008240140015C000828
:102BD00010B50A4C022120460022022303F03FFADE
:102BE000204600210122022303F060FA2046012141
:102BF0000222BDE8104003F0D1B900BF0004004834
:102C0000FEE7000010B52D482D4A016801600168FB
:102C1000016001680160016811400160016841F4D0
:102C20008011016050F8041C41F0807140F8041CD0
:102C300050F8041C8901FBD5016821F003010160F3
:102C4000016841F00201016001680907FCD5016BD0
:102C500041F001010163C16A21F48031C162C16A9E
:102C600021F48071C162032003F0A2FC40F2045001
:102C700003F078FC40F2025003F074FC114C40F277
:102C80001150A04740F21250A04740F21650A04702
:102C90004FF4A060A04740F20C60A04740F20170E2
:102CA000A04740F21C70A04740F20960A04740F2E4
:102CB0000E60A047BDE8104002F0EABB04100240DD
:102CC000FFFFC2774D650008A0F13001CAB20A2AA1
:102CD00001D2C8B270472D2816D06D2816D03A28D8
:102CE00016D0412816D0442816D0452816D0502892
:102CF00016D0562816D0572816D0682816D02E2859
:102D00000CBF0B210A21E4E71221E2E71121E0E7E1
:102D10001021DEE70D21DCE71421DAE71321D8E7E3
:102D20001521D6E70C21D4E70E21D2E70F21D0E7F9
:102D3000431A48BF5B42A0F29112632B04DCB2F548
:102D4000C77F09D809213EE0B2F5C77F0CD8B1F59D
:102D5000967F09DA072136E0A0F601200321B0F5BD
:102D60009A7F98BF06212EE040F2BA239A4205D8F6
:102D700040F6B832914201DD0A2124E0A0F26372EC
:102D8000F82A06D8A1F60122B2F59A7F01D80421CB
:102D900019E0A0F60122B2F59A7F05D8A1F263727C
:102DA000F92A01D205210EE0A1F2911240F2BB23D3
:102DB00000219A424FF0000240F6B83338BF01229A
:102DC0009842C8BFD10008467047000010B585483A
:102DD000026A446A816AC36A9D48A242C0E9132418
:102DE000C0E9151307DD006AA0420CDB90420ADC43
:102DF0004FF0FF3010BD08DA016A4FF0FF30A142FA
:102E000002DA914200DD002010BD994205DD406AE2
:102E10009842F8DB8842EBDDF5E7E9DA426A4FF0E9
:102E2000FF309A42F0DA8A42EDDCEDE770B5F749FF
:102E30006E4B08686C4A984205D96D480A6002607A
:102E40004FF0FF3002E06A4C206000204C689C424A
:102E500084BF4A604FF0FF308C689C4284BF8A6018
:102E60004FF0FF30CC689C4284BFCA604FF0FF3007
:102E70000C699C4205D95F480A6102604FF0FF303F
:102E800001E05C4D2C604C699C4284BF4A614FF06C
:102E9000FF308C699C4284BF8A614FF0FF30CC695F
:102EA0009C4284BFCA614FF0FF300A6A531C524BE8
:102EB00004BF00220A621A604A6A531C4F4B04BFC7
:102EC00000224A621A608A6A531C4D4B04BF0022DA
:102ED0008A621A60CA6A531C4A4B04BF0022CA6243
:102EE0001A600A8E44F62063013A9A4222BF0C20EF
:102EF00008864FF0FF304B8E4FF6FF72934208BFAB
:102F000040F296534B868B8E934208BF4FF47A73F0
:102F10008B86CB8E934208BF4FF49663CB860B8F84
:102F2000012B88BF00230B87B1F84030B3F57A7FBF
:102F300082BF0020A1F840004FF0FF30B1F84230CE
:102F4000B3F57A7F82BF0020A1F842004FF0FF3036
:102F5000B1F84430934208BF0123A1F84430B1F8DE
:102F60004A30934208BF0423A1F84A30B1F84C30EC
:102F7000934208BF0123A1F84C30B1F84E30934280
:102F800008BF0123A1F84E30B1F85040944208BF69
:102F90000124A1F85040B1F85240944208BF0124E6
:102FA000A1F85240B1F84640A51A18BF2546A1F82D
:102FB0004650B1F84840A61A18BF2646A1F8486006
:102FC000B1F85440A21A18BF2246A1F854201DB1EE
:102FD0000D494FF0FF320A600C4A03F003011170F3
:102FE00070BD00BFD0040020A08601007F9698002D
:102FF00030020020F8010020DC010020E001002068
:10300000E4010020E8010020D40100206E0200202D
:10301000FFF7D6B880B50020022102F0E9FE0128B2
:1030200018BF80BD00200221BDE8804002F0D6BE5E
:1030300070470000B0B50649104B0A694AF6AA2449
:103040000D69AD1A854228BFB0BD1C6000BFF7E70F
:1030500090010020BCB5094C4AF6AA25ADF806003F
:10306000BDF80600411EADF8061028B14FF45C70A3
:1030700000F006F82560F3E7BCBD00BF003000405B
:1030800081B0ADF80200BDF802008000ADF802008A
:10309000BDF802000430ADF80200BDF80200411E88
:1030A0000028ADF80210F8D101B0704710B5022029
:1030B00000F0ECFC0220A02100F0BAFC0446022043
:1030C00000F002FD204610BDF8B50C460646402A29
:1030D00001D93F2703E0002A08BF0122571E022022
:1030E000022500F0D3FC0220A02100F0A1FC38BB97
:1030F000310A0220022500F09BFC08BBF1B202203D
:10310000022500F095FCD8B90220022500F0BEFC93
:103110000220A12100F08CFC90B900250220EEB223
:1031200000F054FCA0550220B74203DD00F01EFC65
:103130000135F3E700F032FC022000F0C5FC002569
:103140002846F8BD2DE9F0418046022017460C467E
:10315000022500F09BFC3E46002F08BF01260220FE
:10316000A021402F88BF402600F062FCE0B94FEA62
:1031700018210220022500F05BFCA8B95FFA88F153
:103180000220022500F054FC70B90225300607D059
:103190002178022000F04CFC30B9013E0134F5E703
:1031A000022000F091FC00252846BDE8F0810000D7
:1031B0003E480021082906D00288B2F57F4F05D08D
:1031C00080300131F6E70021002000E00120364A7E
:1031D000118070473448394A018801F007010180A5
:1031E000064840EAC11000217E2903D0435A5352B9
:1031F0000231F9E731483F2100F036BD021C0008DA
:103200002E4AC0B232F8100008807047D004002067
:103210002DE9F041DFF89080B8F8000000F00700D9
:10322000A8F8000002F086FEB8F800001F4F002149
:1032300007EBC010002402F01FFEB8F800004FF6A4
:10324000FF72013000F00700A8F80000C101795AB0
:10325000914206D047EAC01002F02CFE0020A8F8E8
:10326000004047EAC0104FF47F4102F005FE134CC6
:10327000054620463E2100F0F7FC0026A4F87C001D
:103280007E2E0BD0B8F80020B819A15B00EBC2105D
:10329000023002F0F1FD05460236F1E702F004FECD
:1032A000E8B2BDE8F08100BF50050020001C000816
:1032B000024AC0B222F8101008467047D00400201D
:1032C0000348016821F00401016030BF704700BF6E
:1032D00010ED00E0F8B5614E4FF09040B047604D02
:1032E000A5F580542046B0472846B0475D4F284694
:1032F000012101220123B84728460121012202238E
:10330000B847594E2846012101220123B0472846DB
:10331000012101220223B0474FF0904003210022F7
:103320000123B8474FF09040032100220223B84701
:103330004FF09040032100220423B8474FF0904003
:10334000012101220823B8474FF0904001210122BA
:103350001023B8474FF09040012101224023B84785
:103360004FF09040002101220823B0474FF09040D9
:10337000002101221023B0474FF09040002103228A
:103380004023B0474FF09040022100222023B8474D
:103390004FF09040022100228023B8474FF0904028
:1033A000002103222023B0474FF090400021032248
:1033B0008023B0472D4D4FF0904000212022A84798
:1033C0004FF0904000218022A84720460121022290
:1033D0000223B8472046002101220223B04720469D
:1033E000022102F00BFE4FF09040022101224FF427
:1033F0000073B8474FF09040022101224FF48063E0
:10340000B8474FF09040002101224FF40073B047BD
:103410004FF09040002101224FF48063B0474FF0FD
:10342000904001214FF40072A8474FF090400121D5
:103430004FF48062A8474FF09040002101224FF4E2
:103440000053B8474FF09040002101224FF48043D1
:10345000BC4601B0BDE8F040604700BF1160000805
:10346000001400485F600008AD6000089D5F000820
:103470002DE9FC47DFF8A880DFF89C90DFF89CA0DE
:10348000284C00270020002142461023A9F8007094
:10349000AAF800700097A0474FF6E0704D4625F857
:1034A000020B21A20020102110230097A04700202A
:1034B00020212A4610230097A04740F2FF704D4676
:1034C00025F8120B1DA20020302110230097A047E1
:1034D0001FA20020402110230097A0474FF4FC605A
:1034E0004E4626F8220B002050212A461023009732
:1034F000A04700206021324610230097A047BAF869
:1035000000007021A9F80000002042461023009717
:10351000A047BDE8FC8700BF080000207C02002017
:10352000C49500083D380008202055494D65746554
:1035300072205446542020200000000020204543E3
:10354000484F2053747564696F20202000000000EC
:10355000202075696D657465722E636F6D20202063
:10356000000000002DE9F04198461546C21D01F10A
:103570000F03D2B2DBB200F063FD2C2000F0EAFDB5
:10358000AC48A5F12001CBB2D549194D0088B8F15E
:10359000000F18BF1F20098805EB031CD14D4FF009
:1035A000000E0026BEF1100F1BD0B8F1000F04D0A2
:1035B000BEF10F0F01D1FF2701E01CF80E700023B0
:1035C000072B0BD8FC070C4608BF044624BA240C72
:1035D000B2B2AC52013302367F08F1E70EF1010EB0
:1035E000E0E7C0484FF48071BDE8F04100F09ABDBB
:1035F000088A0008F8B5054610460C46FFF764FB3C
:10360000064605F10F00C2B204F11F00C3B22846FE
:10361000214600F015FD2C2000F09CFD8548B049A6
:10362000124B00880988AF4C4FF0000E03EB861C4C
:103630000025BEF1400F12D01CF80E600027072FA6
:103640000AD8F3070B4608BF03465BBAAAB2A352D7
:10365000013702357608F2E70EF1010EE9E7A148DD
:103660004FF48061BDE8F84000F05CBD18900008A0
:10367000F8B59B4F4FF6E07038806E48224C00251D
:10368000494E058000200021224610230095B047B6
:1036900004F110020020102110230095B0474FF4D0
:1036A000FC60388004F120020020202110230095C6
:1036B000B04704F130020020302110230095B047BC
:1036C00040F2FF70388004F14002002040211023B6
:1036D0000095B04704F150020020502110230095BE
:1036E000B0474FF61F00388004F1600200206021CF
:1036F00010230095B04704F17002002070211023C0
:103700000095B047F8BD00BF80000020F8B5744FA9
:103710004FF6E07038804748224C0025224E058045
:1037200000200021224610230095B04704F110022A
:103730000020102110230095B0474FF4FC60388022
:1037400004F130020020202110230095B04704F13D
:1037500020020020302110230095B04740F2FF7076
:10376000388004F140020020402110230095B0472A
:1037700004F150020020502110230095B0474FF66D
:103780001F00388004F160020020602110230095A2
:10379000B04704F170020020702110230095B0475B
:1037A000F8BD00BF000100203D380008F8B54C4CC2
:1037B000204800254FF4FC662246058022F8326B33
:1037C000002000211023009500F038F84FF6E0703B
:1037D0002246194F22F8420B002011210823B84736
:1037E00040F2FF70224622F84A0B002030210823C5
:1037F000B8474FF61F00224622F8520B00204F21F7
:103800000823B847224622F85A6B00207021102363
:10381000009500F013F81F20208000207F21102247
:1038200000F03AF800207F216F22BDE8F84000F058
:1038300033B800BF7C020020733800082DE9F8433C
:10384000DDF820901C4615468846074600262006CF
:103850000DD0AA5D5AB129FA06F000F00103F8B2C2
:103860004146FFF77FFE0136013C0837EFE7BDE830
:10387000F883F8B51C4615460E460746200609D0C3
:103880002A783AB1F8B23146FFF7B4FE013C10375E
:103890000135F3E7F8BD000070B50C46134611463C
:1038A0002246054600F0CCFB2C2000F053FC0C4ACD
:1038B000601B128801300B4D81B2130A0024E6B25E
:1038C000B14206D905F8163076000136AA55013402
:1038D000F5E7400081B20348BDE8704000F022BC2B
:1038E00008000020530500200138C1B209298FBF0C
:1038F00002A040B203A151F820007047554E4B4E34
:103900004F574E00F595000805960008FD950008F4
:10391000DD950008E5950008ED950008159600086E
:103920001D9600080D960008D595000805A108A26F
:10393000012808BF0A4609A1002818BF11460846F9
:10394000704700BF48696768205265730000000037
:103950004E6F742053657420000000005374616E34
:103960006461726400000000FEE70000B0B56D4CB9
:103970000221204602F042FB524D0320A847204678
:10398000012102F03DFB0520A8472046012102F05D
:1039900035FB02202946BDE8B0400847B0B5614C70
:1039A0000221204602F02CFB464D0320A84720466A
:1039B000012102F025FB0520A8472046012102F045
:1039C0001DFB02202946BDE8B04008472DE9F04123
:1039D00054480221804602F013FB3A4C002700268F
:1039E000072F1BD80120A04740460121454602F081
:1039F00005FB0520A0474046012102F001FB032002
:103A0000A0474046022102F025FB05460220A047C0
:103A100005F0010040EA46060137E1E74046012192
:103A200002F0ECFA0220FFF72BFBF0B2BDE8F081C8
:103A300070B53C4C0D460026082E17D005FA06F04E
:103A4000C0B2C2092046022102F0DCFA0120FFF7D1
:103A500017FB2046012102F0D3FA0520FFF710FBE7
:103A60002046012102F0CAFA0136E5E70220FFF7FD
:103A700007FB2046022102F0C3FA0220FFF700FBF9
:103A80000020BDE8704000F035B800BFB0B5254C4F
:103A90000221204602F0B4FA2046012102F0B0FAD9
:103AA000084D0520A8472046022102F0A7FA05206C
:103AB000A8472046012102F0A1FA02202946BDE8CC
:103AC000B04008478130000810B5164C022120464E
:103AD00002F094FA2046012102F092FA0520FFF745
:103AE000CFFA2046022102F08BFA0420BDE81040F4
:103AF000FFF7C6BAB0B50B4C0121204602F080FAA0
:103B00000320FFF7BDFA2046022102F0A3FA054682
:103B10002046012102F072FA0220FFF7B1FA28468E
:103B2000B0BD00BF0014004810B500F051FB0446C2
:103B300000F06AFB144964230A88642A38BF531CC6
:103B4000012C0B8002BF0028032010BD1CB90128E6
:103B500004BF052010BD022C02BF0028042010BDA8
:103B60001CB9022804BF062010BD012C02BF012889
:103B7000072010BD80F0020084F002010843B0FA73
:103B800080F04009C00010BD74020020C9B32DE9C7
:103B9000F04104460020086020460D46FFF776FFFE
:103BA0002046D121FFF744FF174F2046B847DFF8E2
:103BB0005C8006462046C047B007286840EA0640B9
:103BC00048BF40F07F4028602046B8470646204660
:103BD000C047286840EA062028602046B8470646C5
:103BE0002046C0472868304328602046B84705462D
:103BF0002046FFF7D3FE2046FFF766FF2846BDE8C4
:103C0000F0810020704700BFCD3900086D390008F1
:103C1000B0B50C460546FFF739FF2846D021FFF71F
:103C200007FF28462146FFF703FF2846BDE8B040BE
:103C3000FFF74ABFFEE7F0B54FF6FF7300224AF2E6
:103C400001048A420ED0855C6B400025072D07D801
:103C500084EA5306DF0708BF5E0801353346F5E7FF
:103C60000132EEE798B2F0BDF0B54FF6FF730022D7
:103C70004AF201048A420FD030F812506B400025FE
:103C8000072D07D884EA5306DF0708BF5E08013511
:103C90003346F5E70132EDE798B2F0BD704780B5E5
:103CA0004FF4A06002F0EEFA09200021012202F098
:103CB000BDFA1B2001210122BDE8804002F0B6BA06
:103CC00070470000B0B5144C0020A047184D0146C5
:103CD00012A0A8470120A047014616A0A84702202D
:103CE000A047014618A0A8470320A04701461BA0F3
:103CF000A8470420A04701461DA0A8470520A047CB
:103D0000014620A0A8470620A047014622A02A4637
:103D1000BDE8B040104700BFD163000820434B5FAF
:103D20005359532020203D20256C640A00000000D8
:103D3000F986000820434B5F4148422020203D2067
:103D4000256C640A0000000020434B5F4150423163
:103D500020203D20256C640A0000000020434B5FBA
:103D60004150423220203D20256C640A00000000B2
:103D700020434B5F4144432020203D20256C640AB2
:103D80000000000020434B5F4345432020203D209E
:103D9000256C640A0000000020434B5F55534152DC
:103DA00054203D20256C640A000000001749184A81
:103DB00015481160174AC16081604160016011605F
:103DC000C161816141610161134900220A601349A7
:103DD00002620A60124942620A60124982620A6003
:103DE000114941654FF0011101651049C1644FF45B
:103DF00080218164012141640D490264028741638D
:103E00000C490163C2627047D0040020A086010003
:103E100030020020F8010020DC010020E001002039
:103E2000E4010020E8010020201C80F801000200CD
:103E30006400B0040C009605F8B5124B010A00228C
:103E4000802A06D003EB420403F81210607001329E
:103E5000F6E7002000217F227F23002500F0F0F804
:103E60002C2000F077F9074C074E4AF6AA277F2D41
:103E700088BFF8BD20464FF4807100F053F93760D9
:103E80000135F4E7530500200030004070B54FF0D5
:103E90009040102102F0B4F85A4C0120A0474FF096
:103EA0009040102102F0AAF80120A0474FF0904066
:103EB000102102F0A5F80C20A047534D1120A8476F
:103EC0000C20A047B120A847504C0220A047352025
:103ED000A0473620A047B220A8470220A04735209F
:103EE000A0473620A047B320A8470220A04735208E
:103EF000A0473620A0470220A0473520A047362003
:103F0000A047B420A8470320A047C020A847A2206C
:103F1000A0470220A0478420A047C120A847C52071
:103F2000A047C220A8470D20A0470020A047C320DB
:103F3000A8478D20A0472A20A047C420A8478D204D
:103F4000A047EE20A047C520A8470A20A04736205A
:103F50002E46A84772480078032806D83749C00083
:103F600021FA00F0C0B200F00BF9E020B0471220B7
:103F7000A0471C20A0471020A0471820A0473320AE
:103F8000A0472C20A0472520A0472820A047282074
:103F9000A0472720A0472F20A0473C20A047002073
:103FA000A0470320A0470320A0471020A047E120FE
:103FB000B0471220A0471C20A0471020A04718207F
:103FC000A0472D20A0472820A0472320A047282035
:103FD000A0472820A0472620A0472F20A0473B200D
:103FE000A0470020A0470320A0470320A04710209F
:103FF000A0473A20B0470520A04729203146BDE818
:1040000070400847353000085541000881410008DC
:1040100010B5434C00F003002070362000F09AF8F1
:104020002078032888BF10BD0449C00021FA00F0A1
:10403000C0B2BDE8104000F0A3B800BFA8C868082F
:10404000F8B5064636480078032868D80C461D4661
:104050001746DFE800F0020D263F2A2000F07AF82C
:10406000F81C8DF803000027F01C8DF8027022E088
:104070002A2000F06FF8B81C8DF803000027B01C50
:104080008DF802708DF80100684604218DF80070EB
:1040900000F048F82B2000F05DF88DF80070032048
:1040A00030E02A2000F056F8781C00278DF8030035
:1040B0008DF80270701C8DF80100684604218DF89F
:1040C000007000F02FF82B2000F044F88DF80070FD
:1040D000022017E02A2000F03DF8B81C8DF80300FC
:1040E0000027B01C8DF802708DF80100684604218D
:1040F0008DF8007000F016F82B2000F02BF801204E
:104100008DF8007000218DF80210411920448DF8BF
:1041100003108DF801006846042100F003F8F8BD93
:104120006E020020B0B50C4605464FF0904040218D
:1041300001F064FF4FF09040082101F061FF284634
:10414000214601F095FB4FF090404021BDE8B04082
:1041500001F056BF10B504464FF09040402101F0E9
:104160004DFF4FF09040082101F048FF204601F03C
:10417000CFFB4FF090404021BDE8104001F040BF20
:1041800010B504464FF09040402101F037FF4FF04A
:104190009040082101F034FF204601F0B9FB4FF0B8
:1041A00090404021BDE8104001F02ABF7047000058
:1041B00010B5064C37212046FFF756FDA4F86E00D7
:1041C000FFF726F8B4F86E0010BD00BFD004002041
:1041D00080B54FF090404FF4005101F03BFF09498A
:1041E0000B8840B10020092B88BF01200022632BDF
:1041F00088BF022004E064220020642B38BF5A1CD0
:104200000A8080BD7002002080B54FF090404FF4CE
:10421000804101F01FFF09490B8840B10020092BA4
:1042200088BF01200022632B88BF022004E06422A3
:104230000020642B38BF5A1C0A8080BD7202002007
:1042400070B5B0F1FF3F2FDD42F20F7290422FDCCC
:104250002E224A7082B20A23B2FBF3F4B4FBF3F5C8
:1042600005EB8505A4EB450545F03005CD704FF411
:104270007A75B2FBF5F5B5FBF3F606EB8606A5EB12
:10428000460545F030050D706425B2FBF5F2D5B258
:10429000B5FBF3F303EB8303A2EB430242F03002DE
:1042A0008A7004EB84026CE03C48086030206CE0CB
:1042B000C14A90422EDC2E228A706422B0FBF2F2B8
:1042C0000A2493B2B3FBF4F303EB8303A2EB4302A0
:1042D00042F03002CA704FF47A72B0FBF2F2D3B2FD
:1042E000B3FBF4F303EB8303A2EB430242F030028F
:1042F0004A7042F21072B0FBF2F2B0FBF4F0D3B2AB
:10430000B3FBF4F303EB8303A2EB430242F030026E
:104310000A7031E0A94A904239DC2E22CA704FF46B
:104320007A72B0FBF2F20A2493B2B3FBF4F303EB1C
:104330008303A2EB430242F030028A7042F2107211
:10434000B0FBF2F2D3B2B3FBF4F303EB8303A2EBC3
:10435000430242F030024A709B4AB0FBF2F2D3B201
:10436000B3FBF4F303EB8303A2EB430242F030020E
:104370000A706422B0FBF2F080B2B0FBF4F202EB00
:104380008202A0EB420040F03000087170BD02488C
:1043900008603920F9E700BF3939392E302E303026
:1043A00010B5B0F1FF3F36DD834A90423BDC2E2250
:1043B0004A700A22B0FBF2F303EB8304A0EB44043F
:1043C00044F030044C719CB2B4FBF2F404EB84046E
:1043D000A3EB440343F030030B716423B0FBF3F30E
:1043E0009CB2B4FBF2F404EB8404A3EB440343F06B
:1043F0003003CB704FF47A73B0FBF3F3DCB2B4FB51
:10440000F2F404EB8404A3EB440343F030038B7019
:1044100042F21073BBE04FF03030C1F8020042F6B8
:104420003060088010BD654A904238DC2E228A70C8
:104430000A22B0FBF2F3B3FBF2F404EB8404A3EB27
:10444000440343F030034B716423B0FBF3F39CB29D
:10445000B4FBF2F404EB8404A3EB440343F0300315
:104460000B714FF47A73B0FBF3F39CB2B4FBF2F42C
:1044700004EB8404A3EB440343F03003CB7042F21B
:104480001073B0FBF3F3DCB2B4FBF2F404EB84047E
:10449000A3EB440343F030034B704B4B77E0484AA7
:1044A000904239DC2E22CA706422B0FBF2F30A2259
:1044B000B3FBF2F404EB8404A3EB440343F03003B6
:1044C0004B714FF47A73B0FBF3F39CB2B4FBF2F48C
:1044D00004EB8404A3EB440343F030030B7142F27A
:1044E0001073B0FBF3F39CB2B4FBF2F404EB84045E
:1044F000A3EB440343F030038B70334BB0FBF3F377
:10450000DCB2B4FBF2F404EB8404A3EB440343F009
:1045100030034B702D4B3AE02A4A904244DC2E2265
:104520000A714FF47A72B0FBF2F30A22B3FBF2F491
:1045300004EB8404A3EB440343F030034B71224BA0
:10454000B0FBF3F3B3FBF2F404EB8404A3EB4403FA
:1045500043F030038B7042F21073B0FBF3F39CB264
:10456000B4FBF2F404EB8404A3EB440343F0300304
:10457000CB70164BB0FBF3F3DCB2B4FBF2F404EBFC
:104580008404A3EB440343F030034B70104BB0FBA7
:10459000F3F0C3B2B3FBF2F202EB8202A0EB4200F3
:1045A00040F03000087010BD43F62E1088804FF0A8
:1045B0003930086010BD00BF9F8601003F420F00E8
:1045C0007F969800FFE0F505A086010040420F00AD
:1045D0008096980010B50A2290FBF2F303EB830457
:1045E000A0EB44003030487093FBF2F000EB800009
:1045F000A3EB40003030087010BD0000B0B50028BB
:104600003DD4E24A904278DC2E228A7020220A238E
:104610000A70B0FBF3F294B2B4FBF3F404EB84043D
:10462000A2EB440444F030044C716424B0FBF4F475
:10463000A5B2B5FBF3F505EB8505A4EB450444F005
:1046400030040C714FF47A74B0FBF4F4E5B2B5FBAE
:10465000F3F505EB8505A4EB450444F03004CC707C
:1046600042F21074B0FBF4F4E5B2B5FBF3F303EBE4
:104670008303A4EB430343F030034B7018E22D2275
:104680000A70C34A9042C0F280802E228A706FF076
:10469000090290FBF2F20A2392FBF3F404EB840488
:1046A000A2EB440230324A716FF0630290FBF2F2E7
:1046B00092FBF3F404EB8404A2EB440230320A715F
:1046C000B44A90FBF2F292FBF3F404EB8404A2EB05
:1046D00044023032CA70B04A90FBF2F292FBF3F41B
:1046E00004EB8404A2EB440230324A7090FBF3F2F4
:1046F00002EB8202C0EB42008EE1A84A90427ADCD3
:104700002E220A238A70B0FBF3F2B2FBF3F404EB1F
:104710008404A2EB440444F030044C716424B0FBE4
:10472000F4F4A5B2B5FBF3F505EB8505A4EB450460
:1047300044F030040C714FF47A74B0FBF4F4A5B279
:10474000B5FBF3F505EB8505A4EB450444F0300417
:10475000CC7042F21074B0FBF4F4E5B2B5FBF3F5A3
:1047600005EB8505A4EB450444F030044C70E74CA0
:10477000B0FBF4F4E5B2B5FBF3F303EB8303A4EB76
:10478000430343F030030B7092E1D54A90427DDB46
:104790002E22CA706FF0630290FBF2F30A2293FBA1
:1047A000F2F404EB8404A3EB440330334B71D34B9A
:1047B00090FBF3F393FBF2F404EB8404A3EB4403C8
:1047C00030330B71C94B90FBF3F393FBF2F404EB22
:1047D0008404A3EB440330338B70C54B90FBF3F39D
:1047E00093FBF2F404EB8404A3EB440330334B70EB
:1047F0006FF0090308E1C24A90427DDC2E22CA70A4
:104800006422B0FBF2F30A22B3FBF2F404EB84045B
:10481000A3EB440343F030034B714FF47A73B0FBC6
:10482000F3F39CB2B4FBF2F404EB8404A3EB440373
:1048300043F030030B7142F21073B0FBF3F39CB200
:10484000B4FBF2F404EB8404A3EB440343F0300321
:104850008B70E24BB0FBF3F3DCB2B4FBF2F404EB8D
:104860008404A3EB440343F030034B70DC4BB0FBF8
:10487000F3F3B0FBF2F0DCB2B4FBF2F404EB84042B
:10488000A3EB440343F030030B700FE1954A9042D1
:10489000C0F286802E220A71984A90FBF2F30A2217
:1048A00093FBF2F404EB8404A3EB440330334B7129
:1048B0008E4B90FBF3F393FBF2F404EB8404A3EB35
:1048C00044033033CB708A4B90FBF3F393FBF2F449
:1048D00004EB8404A3EB440330338B70854B90FBD3
:1048E000F3F393FBF2F404EB8404A3EB44033033BF
:1048F0004B706FF0630387E0824A904200F38E8032
:104900002E220A714FF47A72B0FBF2F30A22B3FB43
:10491000F2F404EB8404A3EB440343F030034B7143
:10492000AE4BB0FBF3F3B3FBF2F404EB8404A3EB64
:10493000440343F030038B7042F21073B0FBF3F387
:104940009CB2B4FBF2F404EB8404A3EB440343F005
:104950003003CB70A24BB0FBF3F3DCB2B4FBF2F448
:1049600004EB8404A3EB440343F030034B70694B26
:10497000B0FBF3F3DCB2B4FBF2F404EB8404A3EB7E
:10498000440343F030030B7064238DE09F860100E5
:104990006179FEFF18FCFFFFF0D8FFFF3F420F00D8
:1049A000514A9042C0F28C802E224A714F4A90FBAD
:1049B000F2F30A2293FBF2F404EB8404A3EB440326
:1049C00030330B714A4B90FBF3F393FBF2F404EB9F
:1049D0008404A3EB44033033CB70464B90FBF3F3DA
:1049E00093FBF2F404EB8404A3EB440330338B70A9
:1049F000414B90FBF3F393FBF2F404EB8404A3EB41
:104A0000440330334B703D4B90FBF3F090FBF2F2DC
:104A100002EB8202A0EB420030304FE03A4A904273
:104A200055DC2E224A7142F21072B0FBF2F30A22D8
:104A3000B3FBF2F404EB8404A3EB440343F0300330
:104A40000B71EA4BB0FBF3F3B3FBF2F404EB840419
:104A5000A3EB440343F03003CB70E54BB0FBF3F31F
:104A6000B3FBF2F404EB8404A3EB440343F0300300
:104A70008B70274BB0FBF3F3B3FBF2F404EB84042D
:104A8000A3EB440343F030030B70224BB0FBF3F372
:104A9000DCB2B4FBF2F404EB8404A3EB440343F074
:104AA00030034B704FF47A73B0FBF3F0B0FBF2F2CB
:104AB00002EB8202A0EB420040F030008871B0BDF2
:104AC0002E2048714FF03930C1F8010005E04FF059
:104AD0003930086042F6396088803920EEE700BF3F
:104AE000C1BDF0FF816967FF011F0AFAF0D8FFFF1F
:104AF0006079FEFFC0BDF0FF806967FF18FCFFFF13
:104B00007F969800FFE0F505FFC99A3BA08601005B
:104B100000E1F50580969800B0B52E228A70002835
:104B2000024600D542420A23B2FBF3F4002804EB0C
:104B30008405A2EB450545F03005CD71B4FBF3F5D6
:104B400005EB8505A4EB450444F030048C714FF06F
:104B50006404B2FBF4F4B4FBF3F505EB8505A4EBB8
:104B6000450444F030044C714FF47A74B2FBF4F411
:104B7000B4FBF3F505EB8505A4EB450444F03004E4
:104B80000C7142F21074B2FBF4F4B4FBF3F505EBD4
:104B90008505A4EB450444F03004CC70934CB2FB83
:104BA000F4F4B4FBF3F505EB8505A4EB450444F000
:104BB00030044C708E4CB2FBF4F2B2FBF3F303EB17
:104BC0008303A2EB430242F030020A7003D4302A7E
:104BD00003D1202000E02D200870B0BDA086010088
:104BE00040420F0070B500EBE03282EAE03213B2CF
:104BF0000A2493FBF4F505EB8506A2EB460230325E
:104C00008A7095FBF4F202EB8202A5EB420230328D
:104C10004A70642293FBF2F292FBF4F303EB8303FA
:104C2000A2EB430230320A7000222023022A05D070
:104C30008C5C302C04D18B540132F7E7002303E065
:104C4000D3B2B3FA83F35B09B0F1FF3F04DC1BB9C5
:104C500088182D2100F8011C70BD0028034600D5DE
:104C6000434270B50A24B3FBF4F505EB8506A3EBCC
:104C7000460646F030060E71B5FBF4F606EB8606E6
:104C8000A5EB460545F03005CD706425B3FBF5F581
:104C9000B5FBF4F606EB8606A5EB460545F03005B8
:104CA0008D704FF47A75B3FBF5F5B5FBF4F606EBB2
:104CB0008606A5EB460545F030054D7042F21075AD
:104CC000B3FBF5F3B3FBF4F404EB8404A3EB44036C
:104CD00043F030030B7000232024042B06D03AB19C
:104CE000CD5C302D04D1CC540133F6E7002203E033
:104CF000DAB2B2FA82F25209B0F1FF3F04DC1AB91B
:104D0000C8182D2100F8011C70BD000000280246C3
:104D100000D54242B0B50A23B2FBF3F404EB84059C
:104D2000A2EB450545F030058D71B4FBF3F505EBBD
:104D30008505A4EB450444F030044C716424B2FBB7
:104D4000F4F4B4FBF3F505EB8505A4EB450444F05E
:104D500030040C714FF47A74B2FBF4F4B4FBF3F545
:104D600005EB8505A4EB450444F03004CC7042F219
:104D70001074B2FBF4F4B4FBF3F505EB8505A4EB7A
:104D8000450444F030048C70184CB2FBF4F4B4FBCE
:104D9000F3F505EB8505A4EB450444F030044C70B5
:104DA000134CB2FBF4F2B2FBF3F303EB8303A2EB7D
:104DB000430242F030020A7000222023062A05D066
:104DC0008C5C302C04D18B540132F7E7002303E0D4
:104DD000D3B2B3FA83F35B09B0F1FF3F04DC1BB934
:104DE00088182D2100F8011CB0BD00BFA08601006D
:104DF00040420F0010B51A4B020B1C68A25C0A70EF
:104E0000C0F303221C68A25C4A70C0F303121C6842
:104E100000F00F00A25C8A701A68105CC87010BDA8
:104E200010B50F4BC0F303521C68A25C0A70C0F3AC
:104E300003421C68A25C4A70C0F303321C68A25C87
:104E40008A70C0F303221C68A25CCA70C0F303120C
:104E50001B6800F00F009A5C0A71185C487110BD65
:104E60008001002070B5154C874DA11D1420A84766
:104E700004F109010320A84704F10C011220A847FE
:104E8000824D754E288804F11201B047688804F1FC
:104E90001601B047A88804F11A01B047E88804F168
:104EA0002201B047288904F12601B047688904F13E
:104EB0002A013246BDE87040104700BF0A000020BA
:104EC0002DE9F8434B4C514D4BA120461022A847E9
:104ED0004F48611D0069FFF71FFE4E4E04F10D01A2
:104EE000B6F94000FFF77EFE04F110004AA110223F
:104EF000A847DFF8388104F11501D8F86800FFF7FA
:104F00000BFEB6F9420004F11D01FFF76BFE04F140
:104F1000200047A11022A84796F8440096F84610B2
:104F2000182767F35F0067F35F0184F8280084F8AF
:104F30002F1004F1300043A11022A847B6F8560004
:104F4000DFF8149104F13501C84796F8480043A1F1
:104F500067F35F0084F83F0004F140001022A84787
:104F6000B08E434F04F145010122B84796F84E0038
:104F700040A1303084F84F0004F150001022A847BF
:104F8000B6F8540004F155010122B847B8F80800FA
:104F900004F15B010122B8473B4D04F1600114208C
:104FA000A8472E2604F16301032084F86260A84715
:104FB00004F16601122084F86560A847334D04F1BE
:104FC00068012888C847688804F16C01C847A88828
:104FD00004F17001C847E88804F17401C8472889C2
:104FE00004F17801C847688904F17C014A46BDE8AC
:104FF000F8431047800000205541444A3D20312E9F
:1050000030303030302020300000000011300008F7
:1050100020020020D00400204941444A3D20312E86
:10502000303030303020203000000000900100206F
:105030004543484F3D30303031204155544F3D308D
:1050400000000000424B4C543D4638383020524955
:105050004E473D3000000000F54D000857414B45DC
:105060003D3132333435204449523D320000000096
:105070005B4C0008535442593D31323334352031B2
:105080003233343500000000D5450008ACF7FF1F6F
:105090002DE9F0416A4C6BA120461022FDF7B8FFC4
:1050A0006D4E611C306AFFF7A9FAB06B04F109017B
:1050B000FFF776F9DFF8A4815620E071B8F83800E0
:1050C00004F11005012804BF6D20A07364A12846D7
:1050D0001022FDF79DFF706A2946FFF78FFAF06BEB
:1050E00004F11901FFF75CF98020E077B8F8380087
:1050F000012803D16B20E0776D20A07504F1300505
:105100005CA128461022FDF783FFB06A2946FFF70D
:1051100075FA70695C4990FBF1F0642190FBF1F243
:1051200002FB110004F13A0100B2FFF753FA706973
:105130004FF4616190FBF1F0182190FBF1F101EB6C
:105140004101A0EBC10000B204F13D01FFF742FABA
:10515000B8F8380004F12005012804BF6D2084F858
:1051600036004AA128461022FDF752FFF06A294670
:10517000FFF744FA70693C2590FBF5F090FBF5F1E0
:10518000C1EB0111A0EB810000B204F12A01FFF78D
:1051900021FA706990FBF5F1C1EB0111A0EB8100E0
:1051A00000B204F12D01FFF715FAB8F838003C49B8
:1051B000012804BF6D2084F826003A4D04F1400018
:1051C0001022A847306E04F14301FFF739F8364842
:1051D00004F14B01B0F90C00FFF704FD7F2084F8C7
:1051E0004E00562704F1500030A1102284F8477079
:1051F000A847706E04F15301FFF722F8307884F865
:105200005770FEF771FB014604F159000722A847C9
:1052100004F160002AA11022A847F08804F16A0175
:105220000122FFF71AFD04F170002AA11022A847FD
:10523000B8F94C0004F17B01BDE8F041FFF7D2BCA6
:10524000000100202030302E3030305620302E30FB
:10525000303030570000000090010020D0040020C2
:1052600020302E303030304120393939392E395202
:105270000000000020302E303030304168203030C7
:1052800064303068000000008051010020302E3072
:1052900030303057682030306D30307300000000FF
:1052A000B3950008113000082002002020442D3161
:1052B0002E36355620554E4B4E4F574E00000000AF
:1052C000204C6F67436F756E743A20202020302089
:1052D0000000000020496E74657276616C3A2020EF
:1052E00020317320000000002DE9F041474C48A117
:1052F00004F110000822FDF78BFE484E04F1110165
:10530000306AFFF77BF9562004F11805E07544A1D7
:1053100028460822FDF77CFE706A2946FFF76EF9E1
:10532000DFF8088104F12005B8F8380040A1012811
:1053300004BF6D20A07728460822FDF769FEB06BF8
:105340002946FFF75BF9B8F838003CA1012804BFF3
:105350006D2084F8260020461022FDF759FE706962
:105360003B4990FBF1F0642190FBF1F202FB11004C
:10537000214600B2FFF72EF970694FF4616190FB8E
:10538000F1F0182190FBF1F101EB4101A0EBC1001C
:1053900000B2E11CFFF71EF9B06AE11DFFF72EF91C
:1053A000B8F8380004F12805012804BF6D206073A7
:1053B00028A128461022FDF72BFE70693C2790FBA0
:1053C000F7F090FBF7F1C1EB0111A0EB810000B207
:1053D0002946FFF7FFF8706990FBF7F1C1EB011167
:1053E000A0EB810000B204F12B01FFF7F3F8F06AA3
:1053F00004F12F01FFF702F9B8F83800012804BFC3
:105400006D2084F83500BDE8F08100BF3A0000202F
:105410002030302E30303056000000009001002047
:1054200020302E303030304100000000D004002009
:1054300020302E30303030570000000030306430E3
:1054400030682020302E30303030416800000000BD
:105450008051010030306D3030732020302E3030DC
:1054600030305768000000000749082309880AB255
:10547000B2F1FF3FE34AC8BF0423B1F5804F28BF14
:105480001A441060704700BF6402002003F020B887
:105490001648016801F00C021549082A1AD1026861
:1054A00003681B014FF0110358BF0223C2F383426C
:1054B0001A44836A002B48BF1F320368DB0302D4FF
:1054C0000C49514306E0836A03F00F030133B1FB3B
:1054D000F3F15143084A09A311600068C0F30310B7
:1054E000185C21FA00F01060704700BF0410024001
:1054F00000127A0000093D007C000020000000003E
:105500000000000001020304060708094848494951
:10551000494A0160026041604260C16841F0200177
:10552000C160C16841F04001C1608168C907FCD118
:10553000C16821F02001C160C16841F01001C16063
:1055400082693E4912F0060F06D0826902F0060217
:10555000022A03D1BB2207E0A52205E0826902F0FE
:105560000602062A01D1CC220A808269DF2303EADF
:1055700012224A808269C2F307428A808269120E2F
:10558000CA80C269D2B20A81C26992B2120A4A8141
:10559000C16821F01001C160294850F8041C41F095
:1055A000010140F8041C50F8041C8907FBD5016870
:1055B000244A114001600168234A1140016050F8FB
:1055C000041C224A114040F8041C816A204A114000
:1055D0008162C16A40F203129143C162C16A21F43F
:1055E0008031C162C16A21F00041C162016B21F0CA
:1055F00001010163D0F8BC1021F48031C0F8BC1067
:1056000000214160C0F8C8100168016001680160B4
:1056100001680160016821F0030101600168016017
:1056200000684FF000604FF4005100F035BE00BF3D
:105630000420024023016745AB89EFCD00F8FF1F2E
:10564000041002400C00FF08FFFFC277FFFFF2FECC
:10565000F0FFFF3F70B5044600200D46A4F8460158
:10566000FCF792FD0068405D10F03E0F13D0012062
:1056700084F84450A4F84601B4F84A613F2E00F281
:1056800099802846FCF784FD711CA4F84A11A119E1
:1056900081F8C4008EE0A5F10800082818D8DFE8DA
:1056A00000F0052589252538252589000320A4F843
:1056B000460142F20800A4F84400082084F846009D
:1056C000B4F84A01002875D00138A4F84A0171E005
:1056D000032D6FD01B2D4AD01D2D07D1B4F84C01DE
:1056E000411C0AB2012AC8BF411E47E044492809AB
:1056F00009680122085CA4F8462184F8440005F0FA
:105700000F00085C84F84500202084F84600032040
:105710004EE00220A4F8460140F60D20A4F8440013
:10572000B4F84A013F2863D804F1C40100220A54A6
:105730004FF0FF302060A4F84A21B4F94C0100EB8F
:10574000D07222F00102801A2C4AA4F84C0102EB1C
:10575000C0108022FCF734FDB4F94C01013000EB9D
:10576000D07121F00101401AA4F84C0122E0B4F8F4
:105770004C01411E0AB2002A48BF411C1F4D08B20D
:10578000A4F84C1105EBC01104F1C4008022FCF711
:1057900017FDFCF721FDA4F84A01B4F94C01802261
:1057A00005EBC01104F14400FCF70AFDFCF714FD01
:1057B000A4F84601B4F84601AE4900F03F00A4F851
:1057C0004601B1F8441071B10025E9B280B28842B7
:1057D00009D954FA85F090F8440002F081FFB4F83A
:1057E00046010135F1E7084800210180FF2070BD26
:1057F0000020A4F84A0184F80301DBE77E020020C0
:1058000080010020D004002098010020B0B590B0A5
:10581000022000F07BFA4FF400505A4C089000250B
:1058200040F201100795ADF8180004F10C00CDE925
:1058300004558DF80C500295019001A9022000F04A
:105840008DFA03200F95CDE90D504FF40070CDE98E
:105850000B504FF440400A904FF48270099009A910
:10586000204600F03DFF204600F02EFF10B0B0BDF6
:10587000BCB50C4601460020ADF80600022000F041
:10588000DDFA0220214600F0EDFA3E4C00212046D0
:1058900000F012FF022000F025FA4FF0FF304FF623
:1058A000FF75ADF806000220022100F04DFA60B944
:1058B000BDF806000138ADF80600BDF80600002866
:1058C000F1D13148016801310160ADF80650204640
:1058D000802100F000FF01280CD1BDF8060001383E
:1058E000ADF80600BDF806000028F0D12648016892
:1058F00001310160022000F0EBF92046002100F0A8
:10590000D1FE02200221BDE8BC4000F015BA00BF64
:105910007CB5054600201B4CADF806004FF0FF306B
:105920004FF6FF76ADF806002046022100F0D3FEC8
:1059300060B9BDF806000138ADF80600BDF80600F4
:105940000028F1D110480168013101602046294644
:1059500000F0BFFEADF806602046802100F0BBFEDF
:1059600001280CD1BDF806000138ADF80600BDF8DD
:1059700006000028F0D104480168013101604FF6AB
:10598000FF707CBD0030014078020020B0B588B0C7
:10599000174C204602F02EFAFF20069040F24F707E
:1059A0000490002504A920468DF81C50059502F0AE
:1059B0005BFA4FF08070ADF80C5002900D486A46CB
:1059C0000190012000902046032102F0F5F806988E
:1059D00003214208204602F006FA204603217022E5
:1059E00002F0E6F9204602F039FA08B0B0BD00BF77
:1059F000000400400400020008480168090703D5BC
:105A0000416841F0080141600168890658BF70474C
:105A10008068C1B20248FFF71DBE00BF1C380140BC
:105A20008003002004484521C1600449044A0A60FB
:105A30002D210160704700BF003801408C0100201B
:105A4000E18600080C4A0B49127802F0030201F1CA
:105A50001000DFE802F00205080A01F11C0004E072
:105A600001F1180001E001F114000449896E0160A0
:105A7000704700BFD0040020520500209001002094
:105A8000FEE7000080B540F6A660032100F062FA50
:105A900002484CF6CC41016080BD00BF00300040A0
:105AA0000648BFF34F8F064A016801F4E0611143D5
:105AB0000160BFF34F8F00BFFDE700BF0CED00E0BA
:105AC0000400FA058148016841F00801016001689D
:105AD0000907FCD4016841F004010160016849072D
:105AE000FCD47047022810D001281CD10E4802684F
:105AF00022F4700202604FF4700202EB015102685E
:105B00003FFA81F11143016070470748C26822F4EF
:105B10004012C2604FF4401202EB0151C26801F41E
:105B200040111143C16070472C240140674900288F
:105B30000A6842F4006308BF22F400630B607047F8
:105B400080B540F2093000F025FD40F20930BDE893
:105B5000804000F013BD00005C480168C90703D114
:105B6000016841F001010160704700BF00F00102CF
:105B700059B156491AB10A6842F480120A60800786
:105B80000FD5086840F400400AE050491AB10A688D
:105B900022F480120A60800703D5086820F40040D0
:105BA00008607047012804D002280BD16FF4E04050
:105BB00001E06FF46020454A1368184010601068D7
:105BC00008431060704700BFB0B50C4B01281C683B
:105BD00024F4007508BF44F400751D60186820F4B3
:105BE000FE70186042EA0100196808431860B0BDF1
:105BF0000248016841F001010160704780240140C2
:105C0000B0B5274B05280CD800EB80001F2501FA02
:105C100000F405FA00F09D6A25EA0000204398622E
:105C20001EE00B280DD800EB80001E381F2501FA5E
:105C300000F405FA00F05D6A25EA0000204358628E
:105C40000EE010280CD200EB80003C381F2501FA32
:105C500000F405FA00F01D6A25EA000020431862EE
:105C600009290CD801EB410002FA00F1072202FADF
:105C700000F05A6822EA000008435860B0BD1229BB
:105C80000CD801EB41001E3802FA00F1072202FA9B
:105C900000F01A6822EA000008431860B0BD00BF97
:105CA0000C2401400148006880B270474C24014038
:105CB000C107064903D00A6842F480020A608007DF
:105CC00003D5086840F400100860704708240140BC
:105CD000634900EB800051F8202022F0010241F8D6
:105CE000202070475E4900EB800051F8202042F0F0
:105CF000010241F820207047594900EB800051F81B
:105D0000202042F0200241F820207047374A00EB63
:105D1000800102EB81014B68800023F001034B609E
:105D200000234B608B60CB600B610F2101FA00F008
:105D30001168084310607047800001FA00F02B4999
:105D40000A68104308607047800001FA00F03A4981
:105D50000968084018BF0120704700BF70B5404A6D
:105D600000EB800052F8203023F0010342F820308D
:105D70000C6802EB80039C60CC68DC600C8B5C6080
:105D800052F820304C6823F47C530D69CE692343CC
:105D90002B43334342F8203052F820300D7A23F061
:105DA00040040E7D012D08BF43F0400442F820401E
:105DB00052F82030012E23F0800408BF43F0800405
:105DC00042F8204052F82030497D43F01004002969
:105DD00008BF23F0100442F8204070BD800001FA93
:105DE00000F002490A68104308607047040002404E
:105DF000002208291DD801238B4013F48A7F4FF01D
:105E0000000313D010B50C4C8200236801FA02F293
:105E100000EB8000134044EA800018BF0123806833
:105E200010EA010218BF0122BDE8104002EA030097
:105E300070470023FAE700BF00000240024A00EB6F
:105E4000800042F82010704714000240044900EB23
:105E5000800051F8202022F4804241F82020704731
:105E600008000240034A00EB800089B242F820108B
:105E7000704700BF0C00024070B505464FF470201B
:105E80000C4600F035F800B170BD184E306840F097
:105E9000010030604FF470202C8000F029F8316848
:105EA00021F00101316070BD1048016841F08001AE
:105EB00001607047B0B504464FF4702000F018F848
:105EC00000B1B0BD094D286840F0020028606C6048
:105ED000286840F0400028604FF4702000F008F877
:105EE000296821F002012960B0BD00BF10200240E6
:105EF00070B5441E0025013C45F1000600F008F88D
:105F0000012801D1002EF6D1012808BF042070BD60
:105F100007480168C9071CBF012070470168C9060E
:105F20004FBF03200068022101EA5000704700BF04
:105F30000C2002400448C168090603D503490160EA
:105F400003490160704700BF0420024023016745F8
:105F5000AB89EFCDB0B5B44A45F2555313600E4B43
:105F60001C46D56805F0010514B10134002DF8D1A7
:105F700045B95160D16801F0020113B10133002924
:105F8000F8D109B10020B0BD6FF31F3090604AF620
:105F9000AA2010600120B0BD0200F0FFF0B5D0F8DB
:105FA00020E0446A00254FF00F0C0027082F0ED088
:105FB00022FA07F6F60707D00CFA05F301FA05F600
:105FC0002EEA030343EA060E04350137EEE70825FF
:105FD00000264FF00F0C102D0CD022FA05F3DB0732
:105FE00005D00CFA06F701FA06F3BC431C4304364D
:105FF0000135F0E7C0F820E04462F0BD81627047EF
:10600000816170471823002A08BF28231950704760
:1060100010B500F138404FEAB02005280FD840F6FF
:106020001124DFE800F00F0306090C0D40F61224DE
:1060300008E040F6132405E040F6142402E010BD09
:1060400040F61624204600F0A5FA2046BDE8104090
:1060500000F094BA0069084018BF012070472DE98C
:10606000F043D0F800E0D0F80C8000264FF0030C8D
:106070000027102F14D023FA07F4E4070DD00CFAF0
:1060800006F502FA06F928EA050444EA090801FAC5
:1060900006F42EEA050545EA040E02360137E8E764
:1060A000C0F800E0C0F80C80BDE8F083F0B501292D
:1060B000416814BF99431943416081684FF6FF74EA
:1060C000A24212D1C26B002401254FF0030C00271D
:1060D000102F1DD005FA07F61E421EBF32430CFAE0
:1060E00004F6314302340137F2E700244FF0030C89
:1060F0000026102E0FD023FA06F7FF0705D00CFA62
:1061000004F502FA04F7A943394302340136F0E7F3
:106110008160C263F0BD8160F0BD0000034800688B
:1061200010F0060018BF4FF0FF3070471C200240EF
:10613000FCF768FDFDF7CEF8FDF73AF8FDF74AF8F1
:10614000954C3721B4F86E502046FDF78DFD854201
:1061500003D0FDF72BFEFEF72BF8FCF767FE08B126
:10616000FEF726F82C4864210068B0FBF1F00138F6
:10617000B0F1807F00D3FEE72849F022486028482C
:1061800002700020886007200860FDF788FDFFF797
:10619000FDFBFFF777FCFFF745FC01F0BDFCFCF7CA
:1061A000A1FC0A20FCF746FFFFF730FBFDF76EFE6F
:1061B0000020FDF741FE94F85600032180F0FF0215
:1061C000184801F010FEFCF703FDFEF74BFEB4F893
:1061D0005000154C38B1FDF74BF96420FCF72AFF4D
:1061E0004AF6AA2020604AF6AA2502F02FFA02F009
:1061F000D9F902F04BF801F0DFFE01F08DFE01F05D
:1062000069FF01F0A7FF02F035F801F04BFF2560B0
:10621000FDF756F8E9E700BF7C00002010E000E041
:1062200023ED00E0000400400030004010B5194BA1
:106230001C6804F4E064A4F54074B4F5A06F03D2C4
:10624000230AC3F1040403E00C4C1C600223022463
:1062500099400F23E3401A401143094A090140EADB
:10626000020383F800131C2101EAD00100F01F0093
:10627000012303FA00F0885010BD00BF0005FA05A5
:1062800000E100E00249084302490860704700BF8E
:106290000000FA050CED00E0024A114008430249F3
:1062A0000860704780FFFF1F08ED00E010B5F84957
:1062B000084B8A7803F1240444F82200501C00F0B3
:1062C0000300243388700FCB084410441844801016
:1062D00010BD00BF200200202DE9F84F214C22A163
:1062E00020463222FCF794FE2B4F04F10608386852
:1062F0002A4D4146A847786804F10E094946A84747
:10630000B86804F1160A5146A847F86804F11E0B54
:106310005946A847B7F8400004F126063146012245
:10632000FEF79BFC204602F00BFA1DA1204632220C
:10633000FCF76EFE38694146A84778694946A84788
:10634000B8695146A847F8695946A847B7F84200C6
:1063500031460122FEF781FC2046BDE8F84F02F0ED
:10636000EFB900BF53090020205561646A3D203118
:106370002E303030303020312E303030303020313F
:106380002E303030303020312E303030303031321D
:106390003334350A00000000D0040020194B0008F7
:1063A000204961646A3D20312E3030303030203158
:1063B0002E303030303020312E30303030302031FF
:1063C0002E303030303031323334350A00000000A6
:1063D000F0B5544B02461868534E00F00C000828E4
:1063E000354627D11868C0F3834518689C6A0001B8
:1063F00004D4A81C0F2D08BF102001E005F11100E6
:10640000002C48BF1F301C68996AE40303D4484934
:1064100000FB01F50EE09C6A490004F00F0404F152
:10642000010402D4B6FBF4F102E04049B1FBF4F1FF
:1064300001FB00F51868B446C0F3031019681C6826
:10644000062AC4F3C227C1F302260FD839A1085C7B
:106450003C4925FA00F4C85D24FA00F0DFE802F0B8
:1064600004080A3A0E1A22002846F0BD0020F0BDAA
:106470002046F0BD885D24FA00F0F0BDD96AC90558
:1064800029D4D86AC00330485CBF49F68070C0F296
:10649000D500F0BDD86A40064FF4004058BF48F21E
:1064A0001200F0BDD96A890714D0D86A00F0030041
:1064B000012828460ED0D86A00F00300022804BF45
:1064C0004FF40040F0BDD86A00F003000328604696
:1064D00018BF0020F0BD1A68D96AC2F38132C90F13
:1064E000DFE802F00209101500290EBF4008032062
:1064F000B4FBF0F0F0BD00290EBF80080520B4FB0E
:10650000F0F0F0BD51B10720B4FBF0F0F0BD002970
:106510000EBFC0080920B4FBF0F0F0BD0621B0FBAF
:10652000F1F0F0BD0410024000127A00006CDC02B1
:1065300000093D000000000000000000010203040B
:106540000607080998950008003FAB0100F01F01FD
:10655000012202FA01F1154A80098358194381503A
:10656000704700BF00F01F01012202FA01F10F4A3B
:106570008009835819438150704700BF00F01F0104
:10658000012202FA01F1094A8009835823EA010134
:106590008150704700F01F01012202FA01F1034A05
:1065A0008009835819438150704700BF0010024092
:1065B00004490A6822F003020A600A68104308606E
:1065C000704700BF3010024070B5314B9A6990039C
:1065D00015D43248017801F00304DFE804F0023CEE
:1065E0001F2FE34C2B4EE569B5429D6602D92A4D1B
:1065F000E5619D664FF69A739A420EDC1AE0DC481C
:10660000244A01699142996602D923490161996638
:106610002248017841F00301017070BDD44C1D4E39
:106620006569B5429D6602D91B4D65619D661C4B2F
:106630009A421FDD01F0FC010131EDE7CC4C154E13
:106640002569B5429D6602D9134D25619D66144B9F
:106650009A42E2DD17E0C64C0E4EA569B5429D6632
:1066600002D90D4DA5619D660D4B9A4207DD01F0E3
:10667000FC01D1E74FF69A739A42CBDDCDE74FF696
:106680009A739A42C9DC01F0FC010231C4E700BFF1
:10669000900100207F969800A086010052050020FE
:1066A0009BFF01006FF00102002908BF6FF002029A
:1066B00041681140416070470122002908BF022251
:1066C0004168114341607047016841F04001016039
:1066D0007047C16070478068084018BF012070474C
:1066E000F0B5026891E8F81002F441521A432243CF
:1066F0002A43324389693A4342EA0C02114301605A
:10670000C16921F40061C161F0BD000006480021AB
:106710000160064801600648016006480160C948FA
:106720000160054801807047C4010020C0010020BD
:10673000B8010020BC010020960100202DE9F0479F
:1067400086B0884D6C688CB187A12046FBF726FD8A
:1067500060B3A868002848D000211022FBF766FD2E
:1067600000F001018248A0F8441041E0B74801F070
:10677000E7FF7F48068FB0F84E80B0F85690B0F82B
:1067800044A0B0F85470848EC58EF0B2FDF7CEF8F8
:10679000CDE90074CDE902560490AD4851464A4611
:1067A000434601F0A9FF06B0BDE8F08774A120467A
:1067B000FBF7F4FC10B3A86890B100211022FBF79E
:1067C0006DFD6B49A1F85600C0F30721C0B28142AC
:1067D00038BF084680F0FF026B48032101F003FB3D
:1067E0006348B0F8561069A003E06148B0F844105F
:1067F00060A006B0BDE8F04701F07EBF67A120466B
:10680000FBF7CCFCB0B1A86878B100210A22FBF7F5
:106810000DFDC11700EB917121F00301401A54499D
:10682000A1F84E00C0B2FDF7F3FB5148B0F84E108E
:106830005BA0DEE75DA12046FBF7B0FC48B1A8688D
:10684000A8B100210A22FBF7F1FC4949A1F8540044
:1068500010E05BA12046FBF7A1FC70B1A868B0B1C5
:1068600000210A22FBF7E2FC4149888611E04048FA
:10687000B0F8540081B24FA0BBE757A12046FBF708
:106880008DFC48B106B0BDE8F047FDF71BBA3848AB
:10689000808E81B24CA0ACE750492046FBF77EFCCD
:1068A00090B1A86860B14EA1FBF778FC40B14DA053
:1068B00001F046FF5148016841F40021016072E790
:1068C0004F4801884FA094E754492046FBF766FCE7
:1068D00040B1A868C8B100210A22FBF7A7FC2449EF
:1068E000C88614E052A12046FBF758FC90B1A86876
:1068F000F8B100210A22FBF799FC00EBD07121F0DE
:106900000101401A1A49088715E01948C08E81B262
:1069100043A06EE74A492046FBF740FCB8B1A8689F
:10692000D8B100210A22FBF781FC014645480160ED
:1069300015E00F48008F84B2C0B2FCF7F7FF0246A3
:106940003CA0214606B0BDE8F04701F0D5BE3F4867
:1069500006B0BDE8F04701F0F3BE3A4801683A4896
:1069600047E700BF0C0200206563686F000000006D
:10697000D0040020204543484F3D25640A00000014
:10698000626B6C74000000000004004020424B4C1D
:10699000543D3078253034580A0000006469720094
:1069A000204449523D25640A000000007374627956
:1069B0000000000020535442593D253564730A00FD
:1069C0006977616B65000000204957414B453D25C3
:1069D0003564204C53420A00636C6B00F29B000844
:1069E00072756E00204144432063616C696272617C
:1069F00074696F6E2E2E2E0A00000000EC0100203C
:106A00009401002020414443315F43414C49203DE3
:106A1000203078253034580A000000003F9C0008E0
:106A20002056494E543D2534646D560A000000003E
:106A300064657600204445563D25642025730A0090
:106A4000DF9B0008A4010020CA9B000804980008EE
:106A50006D9B00082DE9FC473D4E00207468ADF8A1
:106A60000600002C6FD03BA12046FBF797FBA8B394
:106A7000B06800286AD0002110220024FBF70EFC29
:106A80000546F06820B100211022FBF707FC84B214
:106A9000EDB2A4F1080000260FF2C4080DF10609BA
:106AA0000FF2C80A382888BF4024B0B2844213D9F4
:106AB0002F183E2F10D8400703D14046394601F029
:106AC0001BFEB8B24946FCF79BFBBDF806105046CA
:106AD00001F012FE0136E8E7204835E025A1204606
:106AE000FBF75CFBE8B1B06880B3F16871B30021DB
:106AF0001022FBF7D3FB0446F06800211022FBF7BD
:106B0000CDFBE4B285B220462946FCF7D1FB1BA0A1
:106B1000294601F0F1FD1EA0214601F0EDFDBDE882
:106B2000FC8722492046FBF739FB18B1FCF752FBE2
:106B30001FA009E025492046FBF730FB18B1FCF700
:106B400067FB23A000E0284801F0FAFDBDE8FC87C0
:106B50000C0200207265616400000000B29B000816
:106B60000A30782530345820200000002530345871
:106B70002000000077726974650000002077726958
:106B800074652030782530345820746F0000000080
:106B900020656570726F6D20616464726573732027
:106BA000307825303458202E2E2E0A00C19B000844
:106BB0004C6F61642066726F6D20496E742E2045A3
:106BC0004550524F4D2E2E2E0A000000E49B000827
:106BD0005361766520746F20496E742E20454550B0
:106BE000524F4D2E2E2E0A009B9600082DE9F84F8D
:106BF000244C6068002843D0002110220026FBF7B7
:106C00004DFBB0F5803F38BF0646A06868B1002153
:106C10001022FBF743FB4FF48077092807D3C6F512
:106C20008031884238BF074601E04FF480771B4827
:106C300000250DF1020B81464AF6AA280FF2540AEC
:106C4000AF421AD07419280703D10FA0214601F0D2
:106C500053FDA0B259460122FCF736FA18B150464E
:106C600001F06EFD04E09DF802100B4801F044FDB8
:106C70004846C9F800800135E2E7094801F060FDA7
:106C8000BDE8F88F0C0200200A30782530345820F7
:106C90000000000046462000B49B00080030004081
:106CA000B29B00082DE9F04F85B03A483A4FD0F832
:106CB00000A07868002854D0002110220024FBF79F
:106CC000EDFAB4EB104F4CD18046B868002848D09C
:106CD000002110220025FBF7E1FA0646F86820B1F2
:106CE00000211022FBF7DAFA0546310A681E00225D
:106CF00001AB082A06D003EB420403F812106670B9
:106D00000132F6E74FF6FF7100270DF10409012269
:106D1000884228BF1546AF4226D207EB0800112D46
:106D200007D34FF6F07108404FF0100B4946102280
:106D300004E080B24FF0020B49460222FCF702FA4F
:106D400010BB5F440024FCF7B1F90028E3D0012018
:106D5000FCF780F9601C0B2C0446F4D324A001F04E
:106D6000EFFC05B0BDE8F08FB1B20CA0424601F0D7
:106D7000C3FC0848022DF4D300682946A0EB0A02A0
:106D800011A001F0B9FCECE70146184801F0B4FC91
:106D9000E7E700BFA00100200C0200202077726905
:106DA00074652030782530345820746F2065657004
:106DB000726F6D2061646472657373203078253062
:106DC0003458202E2E2E0A002077726974652030E8
:106DD000782530345820776F7264732074616B6546
:106DE00020256C64207469636B730A00B99A0008EB
:106DF00020454532345F436865636B427573792083
:106E000074696D656F75742E0D0A00002DE9F84FD9
:106E1000584C59A120462222FCF7FAF85E4804F1AA
:106E2000050900684946FDF7E9FB5620E0725B481A
:106E300004F10D0600683146FDF7B2FADFF8608113
:106E400004F11A01B8F80000FDF7D4FF554F388F50
:106E5000012804BF6D20A074204601F071FC52A1EE
:106E600020463222FCF7D4F85C48211D0068FDF76B
:106E7000C5FB5B4831460068FDF792FA594801218D
:106E8000007800F0030001FA00F040F03000607676
:106E9000554804F120010068FDF7C2FF534804F192
:106EA00026010068FDF732FF388F012803D16B20DF
:106EB000E0746D20A072204601F042FC4CA12046F7
:106EC0002122FCF7A5F85248E11C0068FDF796FB6B
:106ED000504831460068FDF791FB4F4804F1160118
:106EE0000068FDF713FF388FDFF830B1012802BFCB
:106EF0006D20E07460722046D847494920462E2212
:106F0000FCF786F84748DFF820A100684946D047DB
:106F1000B8F8040004F11106444D3146A84744482E
:106F200004F11B010068D047B8F8080004F12707F6
:106F30003946A8472046D8473E4920462E22FCF72E
:106F400067F83D4849460068D047B8F80200314626
:106F5000A8473A4804F11C01B0F90000FDF742FED1
:106F6000B8F806003946A84720465946BDE8F84F0C
:106F7000084700BF5309002020553A202030332E07
:106F80003330305620302E30333739572041443D8E
:106F90003078433346370A00B0010020C801002092
:106FA00064020020D004002020493A202D302E30E9
:106FB00030373641203635362E393652205047414B
:106FC0003D382041443D30784646464644312020F5
:106FD00020202D393275560A00000000B40100202F
:106FE000CC01002052050020A8010020AC010020A7
:106FF00020503A20302E303030304168202D302E55
:1070000030303031576820202020203136730A007C
:10701000B8010020BC010020A40100204187000825
:10702000589A0008F001002041420008F54D000880
:10703000740000202B9A0008F40100202C0200208C
:1070400070B5074E002507A4842D08BF70BD7019C8
:1070500071594268204601F04FFB0C35F4E700BF40
:107060004C9C0008202573202D3E20257300000035
:10707000B0B52D4D6C6884B12C492046FBF78EF8D5
:1070800090B1A868F0B100210A22FBF7CFF8284997
:107090000860BDE8B040FEF7D5BC334801F050FBB6
:1070A000BDE8B040FFF718B922492046FBF776F853
:1070B00048B1A86830B100210A22FBF7B7F81E4991
:1070C000A1F84200B0BD1D492046FBF767F828B380
:1070D000A86800210A22FBF7A9F8FBF710FB044679
:1070E00017480068FBF70BFB01462046FBF741F908
:1070F0001449FBF70CF9FBF729FB0D4D2860FEF74F
:10710000A1FC114C11A120461B22FBF781FF28682E
:1071100004F10D01FDF700FD204600E01248BDE836
:10712000B04001F00DBB00BF0C020020FD9B000829
:10713000F80100201B9C0008D0040020F29B0008EE
:10714000B40100200050C347530900202073657428
:10715000204961646A20746F203132333435363708
:10716000382020200A00000046980008BCB52F4DAA
:107170006C68002C53D02EA12046FBF70FF8B8B155
:10718000A868002850D0E96800294DD000210A22C3
:107190000024FBF783F87821EA6801EAC0030221A2
:1071A00001EAD001184610230094FCF747FBBCBD50
:1071B00021A12046FAF7F2FF58B1A8680021102259
:1071C000FBF76CF8A96879B380B2BDE8BC40FCF766
:1071D00033BE1BA12046FAF7E1FF60B1A86818B3DF
:1071E00000210A22FBF75AF8142161F35F00BDE881
:1071F000BC40FCF7AFBF14A12046FAF7CFFF70B137
:10720000A86888B100210A22FBF748F8E94900F094
:107210000300A1F84E00BDE8BC40FCF7F9BE0C48E5
:10722000BDE8BC4001F08CBABCBD00BF0C02002020
:1072300073686F770000000066696C6C00000000E6
:107240006F6E6F6666000000726F74617465000097
:10725000629600082DE9F84FDFF84C536C68002C5B
:1072600000F086800FF244312046FAF797FF00289D
:1072700000F0B780A86800210A22FBF70FF8DFF8BA
:107280003413B1F84A2092020132B0FBF2F303FB4F
:1072900012001FFA80FABAF1000F00F0B880098FCF
:1072A0000FF24430C4A2012908BF104601F048FA89
:1072B000DFF86853DFF86043DFF86483002605F1E8
:1072C000070905F1100B05F11907B0B2824598BF07
:1072D000BDE8F88F300180B221461022FBF7F4FEA2
:1072E000B0484AF6AA210160284641463222FBF7FF
:1072F0008FFE20786178012241EA00202946FDF7BF
:10730000ACFCD4F80200494600BAFDF7FFFCE07976
:10731000A179227A000240EA014009061044594648
:1073200048BF00F17F40FDF769F9A07A617AE27AFF
:10733000000240EA014009061044394648BF00F106
:107340007F40FDF75BF9207B627B05F1220142EA79
:107350000020FCF775FFA07BE27B05F1290142EAE2
:107360000020FCF76DFF284601F0EAF90136ACE792
:10737000DFF8340301F0E4F98E4FB7F84A00B7F8AC
:107380004C30B7F84820B7F8461000938302C7483E
:1073900001F0B2F9A14CC64920461B22FBF738FE8A
:1073A000386A251DDFF80C832946C047786A04F146
:1073B00010063146C047204601F0C2F9BE492046BA
:1073C0001B22FBF725FEB86A2946C047F86A3146FA
:1073D000C047388F012802D16D20A075A0728F4858
:1073E00029E096A12046FAF7D9FE90B1A8680021BD
:1073F0000A22FAF753FF4FF0FF3111FA80F1032907
:1074000018D86C4A81B2A2F84A008EA05DE085A02F
:1074100011E08FA12046FAF7C1FE80B1A868F8B14B
:1074200000210A22FAF73AFF00F001016148A0F8B2
:1074300046101BE08248BDE8F84F01F081B9884949
:107440002046FAF7ABFE98B1A86808B300210A22DB
:10745000FAF724FF00F001015648A0F848101DE09B
:107460007D4801F06DF95348B0F846107B482CE098
:107470007EA12046FAF792FE90B1A868F0B10021F3
:107480000A22FAF70BFFC1B24A48A0F84C101BE0E1
:10749000744801F055F94748B0F84810724814E0B4
:1074A00075A12046FAF77AFE98B1A868F8B10021D4
:1074B0000A22FAF7BBFE3F4908621BE06C4801F064
:1074C0003FF93C48B0F84C106A48BDE8F84F01F06D
:1074D00013B96CA12046FAF761FEA0B1A86800B309
:1074E00000210A22FAF7A2FE324948621CE06348F2
:1074F00001F026F9494C624920460F22FBF788FD2E
:107500002C48006A18E062A12046FAF747FEC0B195
:10751000A86820B300210A22FAF788FE254988626C
:1075200020E0594801F00CF93C4C584920460F2204
:10753000FBF76EFD1F48406A211DFDF75FF82046EE
:1075400079E756A12046FAF729FEA0B1A868A0B1B4
:1075500000210A22FAF76AFE1649C86210E04D4877
:1075600001F0EEF82D4C4C4920460F22FBF750FD60
:10757000104DA86A0CE04C485DE7494801F0E0F87E
:10758000264C484920460F22FBF742FD094DE86A88
:10759000211DFDF733F8288F01287FF420AF6D20DF
:1075A0001CE700BF003000400C02002064756D70C5
:1075B00000000000D004002020202020692C202082
:1075C0002020742873292C20202020552856292C6F
:1075D00020202049286D41292C20202056642B2C66
:1075E00020202056642D0A0020202020692C2020F5
:1075F0002020742873292C20202020552856292C3F
:1076000020202020492841292C20202056642B2C82
:1076100020202056642D0A00540200205309002027
:10762000D3990008206C6F672064756D70205B64CF
:107630006563206E756D5D200A0000006D61780045
:10764000A7970008204D41583D25646B0A000000B3
:107650006175746F0000000075970008439B000877
:10766000E99B000855970008399B0008696E740073
:10767000D9970008649B000875680000EE9A00081E
:10768000859A0008756C0000209B00089F9A0008EE
:1076900069680000D59A0008039A0008696C000028
:1076A000079B00081D9A00083E9900084D9B0008A2
:1076B000939A0008FD450008119A0008B0B5184DCE
:1076C0006868A8B100211022FAF7E8FD04466FF3BC
:1076D0001100B0F1006F0CD047F6FF7024EA0000F3
:1076E000B0F1005F05D00F48BDE8B04001F028B808
:1076F000B0BDA86830B100211022FAF7CFFD85B2E5
:10770000072D01D84FF4807520462946FCF793FADF
:10771000034605A021462A46BDE8B04000F0ECBF74
:107720000C0200202596000853544152543D3078F5
:1077300025303858204C454E3D307825303858207B
:107740004352433D3078253034580A002DE9F84340
:10775000FEF7E4FC08B1BDE8F8831D4D6868002819
:10776000F9D000211022FAF799FD58B30446A86811
:10777000002550B100211022FAF790FD87B2B7F52D
:10778000807F88BF0125072F01D84FF48077DFF86D
:107790005490002D4FF000050FF23C0818BF4FF435
:1077A0008077AEB2B7420BD9300703D1A11940465A
:1077B00000F0A2FFA15D484600F09EFF0135F0E712
:1077C000044800E00848BDE8F84300F0B9BF00BF36
:1077D0000C020020B29B00080A307825303858206F
:1077E00000000000B49B00082596000810B517485B
:1077F00044682CB316492046FAF7D0FC40B115A0D6
:1078000000F09EFFFBF7E6FCBDE81040FBF70EBB67
:1078100019492046FAF7C2FC30B118A000F090FFD9
:10782000BDE81040FCF7C4BC1CA12046FAF7B6FC2A
:1078300030B11CA000F084FFBDE81040FCF7B6BAE0
:107840002048BDE8104000F07BBF00BF0C020020C4
:10785000C19B0008204C6F616420706172616D658E
:10786000746572732066726F6D20454550524F4D9E
:107870002E2E2E0A00000000E49B000820536176A3
:107880006520706172616D657465727320746F201C
:10789000454550524F4D2E2E2E0A000072657374CE
:1078A0006F72650020526573746F7265206465663F
:1078B00061756C7420706172616D65746572732E90
:1078C0002E2E0A007B9900080A48406808B900205B
:1078D00006E000210A220A24FAF7E0FCB0FBF4F0EB
:1078E000FBF7A8FB04A000F02BFF012080F3138816
:1078F000FEF7D6F80C020020207265626F6F746983
:107900006E672E2E2E200A00B0B5204D6C686CB12B
:107910001FA12046FAF742FC70B1A86840B30021CD
:107920000A22FAF783FC1B49488623E0234800F02B
:1079300007FF1848418E1EE018492046FAF72EFC32
:10794000F0B1A86808B300210A22FAF76FFC1449C5
:1079500041F2CC0200FB02104FF47A7190FBF1F07F
:107960001049096808440B49488681B20EA003E01B
:107970000848408E81B20848BDE8B04000F0BCBE67
:107980000E48BDE8B04000F0DBBEB0BD0C020020E8
:1079900076333000D0040020AD9A0008F29B000836
:1079A0001808FEFF20020020207365742056333033
:1079B0003D2534646D562E2E2E0A00008098000856
:1079C000B0B53D4D6C6884B13C492046FAF7E6FB02
:1079D00090B1A868F0B100210A22FAF727FC3849D3
:1079E0000860BDE8B040FDF73FBD4A4800F0A8FE82
:1079F000BDE8B040FEF770BC32492046FAF7CEFB36
:107A000048B1A86830B100210A22FAF70FFC2E49CC
:107A1000A1F84000B0BD2D492046FAF7BFFBD0B118
:107A2000A8680028F6D000210A22FAF7FFFBA0F28E
:107A3000D17140F6B6329142ECD8254909894843C4
:107A4000012101EB10402049C88681B221A0BDE888
:107A5000B04000F051BE24492046FAF79FFB28B3FE
:107A6000A86800210A22FAF7E1FBFAF748FE04466B
:107A70001E480068FAF743FE01462046FAF779FCF3
:107A80001B49FAF744FCFAF761FE0D4D2860FDF73B
:107A9000EBFC184C18A120461B22FBF7B9FA28680A
:107AA00004F10D01FDF738F8204600E01948BDE863
:107AB000B04000F045BE00BF0C020020FD9B000856
:107AC000300200201B9C0008D00400203F9C0008CE
:107AD00064020020207365742056494E5420746F50
