:020000040800F2
:10200000100B00207D210008513700081133000813
:10201000E3360008852B0008954400080000000006
:10202000000000000000000000000000E13A00088D
:10203000952E000800000000393A0008B141000860
:102040009721000897210008972100089721000890
:102050009721000897210008972100089721000880
:102060009721000897210008972100089721000870
:102070009721000897210008972100089721000860
:102080009721000897210008000000009721000810
:102090009721000897210008972100089721000840
:1020A000972100089721000897210008E1430008C4
:1020B00097210008000000009721000800000000A0
:1020C00097210008000000009721000897210008D0
:1020D00097210008972100089721000800000000C0
:1020E0000000000000000000972100089721000870
:1020F00097210008972100089721000897210008E0
:10210000972100080000000000000000972100084F
:1021100000000000000000000000000000000000BF
:1021200000000000000000000000000000000000AF
:10213000000000000000000000000000000000009F
:10214000000000000000000000000000000000008F
:1021500000000000000000009721000897210008FF
:102160009721000897210008DFF80CD000F07AFCD6
:102170000048004795490008100B0020064880479A
:1021800006480047FEE7FEE7FEE7FEE7FEE7FEE75C
:10219000FEE7FEE7FEE7FEE7B5410008692100081B
:1021A00000487047347B0008A0F14101192900D88C
:1021B0002030704740EA01039B0703D009E008C9BB
:1021C000121F08C0042AFAD203E011F8013B00F8FC
:1021D000013B521EF9D2704730B505462A460B46E0
:1021E00012F8010B13F8014B08B1A042F8D01CB152
:1021F000002802D06D1CF1E7284630BD10B504461A
:1022000004E00B7800F8013B03B1491C521EF8D2E0
:10221000204610BD421C10F8011B0029FBD1801A7A
:102220007047000070B50F4D00B92868002412E017
:102230000A4602E09E4203D0521C1378002BF9D1CB
:10224000DAB2224305D02BB124B1002100F8011BE2
:1022500004E00446401C0678002EE9D128602046A0
:1022600070BD0000B80000202DE9F04791460F46F0
:1022700080460446002614F8015B2DB1FFF790FF5D
:102280000068405DC007F6D12B2D02D02D2D18D04F
:10229000641E4A463946204600F001FB27B13968E2
:1022A000A14201D1C7F8008071054FF002040BD59F
:1022B0004042002803DD02F0EFF80460A007BDE80B
:1022C000F08746F48066E4E70028F8DA02F0E4F8E4
:1022D00004606FF00040F2E72DE9F05F93460F468F
:1022E00080460446002602F0D7F8D0F800908246D7
:1022F00014F8015B2DB1FFF753FF0068405DC00784
:10230000F6D12B2D02D02D2D1AD0641E0021CAF833
:1023100000105A463946204600F0C1FA014627B15E
:102320003868A04201D1C7F80080DAF8000002281E
:1023300009D0CAF80090700505D54842BDE8F09F65
:1023400046F48066E2E70846F8E780EA010210B545
:1023500002F00043400022D04A001FD0010E01EBE2
:102360001261C0F35600C2F3560240F4000042F47A
:102370000002A0FB022000047F39140400D0401C9E
:1023800050EA124001D44000491EC2B20C0604EBD0
:10239000D010401C4008802A02D003E0002010BD6D
:1023A00020F00100002900DA0020184310BD30B4ED
:1023B00080EA010202F0004530F0004221F00040C6
:1023C00013D090B1C30DD40DC2F31601C0F31600A3
:1023D000E41A41F4000140F400027D34914201D33B
:1023E000641C00E04900002C02DA30BC0020704779
:1023F0004FF400000023914201D3891A034340089F
:102400004FEA4101F7D151B1914202D14FF0004161
:1024100005E002D24FF0010101E06FF0010103EB92
:10242000C450284430BC00F089BA2DE9FE4F8046E4
:1024300081EA0300C00F0C46009021F0004123F018
:102440000045B8EB0200A94105D24046214690461E
:102450001C460B46024623F00040104347D0270D90
:10246000C7F30A00C3F30A510290401A01904028B2
:102470006BDAC3F3130040F4801B0098924620B13E
:102480000023D2EB030A63EB0B0B01985946C0F112
:102490004002504600F0D2F906460D4650465946D5
:1024A000019A00F0EAF910EB08006141002487EA84
:1024B000115284EAE7731A4340D0009A62B3019A3A
:1024C000012A4FEA075215DC001B61EB02014FF0B5
:1024D000004202EA0752CDE90042001C41F580119A
:1024E00032462B4600F070FA03B0BDE8F08F40464C
:1024F0002146F9E7001B61EB0201001C41F5801346
:1025000000185B412018A2F5001747EB030140EAD1
:10251000D570B6196D4111E06D084FEA360645EAEF
:10252000C0754FEA0752001B61EB0201001C41F528
:10253000801149084FEA30000019514132462B46BC
:1025400003B0BDE8F04F00F030BA0098012240001F
:102550000023D0EB020263EBE073009821464FEAC0
:10256000E074B8EB000061EB0401E9E783F000439D
:102570005BE781F0004158E72DE9FE4F81EA030453
:1025800004F0004421F0004100944FF0000B23F0D0
:10259000004350EA01045ED052EA03045BD0C3F367
:1025A0000A54C1F30A552C44A4F2F3340194A0FB5D
:1025B0000254C1F3130141F48011C3F3130343F434
:1025C000801301FB024400FB034E840A970A44EA8D
:1025D000815447EA8357A4FB076802958D0A05FBDF
:1025E00007854FEA932C04FB0C542705029D4FEA04
:1025F000065847EA1637B5EB08056EEB070C870E51
:10260000920E47EA811742EA8312A7FB0201B6EB5A
:102610000B0164EB00042B0D43EA0C335E1844EB12
:102620001C50DA465146E7FB0201C5F313044FEA9A
:102630000B3343EA14534FEA0432019C43EA060386
:10264000A4F10C040294009CCDE900B400F0BCF9A4
:1026500003B0BDE8F08F00200146F9E72DE9F04D09
:1026600081EA030404F0004B21F0004514464FF0CA
:10267000000A23F0004150EA050220D054EA01028A
:102680001DD0C5F30A570246C5F31303C1F3130067
:10269000C1F30A5640F4801543F48013A7EB0608F3
:1026A000101BD64608F2FD3873EB050002D308F183
:1026B000010801E092185B41B8F1000F03DA002035
:1026C0000146BDE8F08D00204FF480110646844697
:1026D0000EE0171B73EB050705D3121B63EB050315
:1026E00006434CEA010C49084FEA300092185B415E
:1026F00050EA0107EDD152EA030012D082EA040049
:1027000083EA0501084305D0101BAB4106D2012224
:10271000002306E000224FF0004302E06FF00102C8
:1027200053101AEB06004CEB085110EB0A0041EB7A
:102730000B01BDE8F04D00F038B9C10F80EAE07040
:102740000844CA079623002100F001B90EB5C10F55
:1027500080EAE0700844CA07002140F233438DE864
:102760000E000A460B4600F02FF903B000BD00F042
:10277000004220F00040C10DC0F3160040F40000FC
:102780007F2901DA00207047962903DCC1F1960108
:10279000C84001E096398840002AF4D04042704792
:1027A00070B5C1F30A5201F000450024C1F31301D2
:1027B00040F2FF3341F480119A4201DA002070BDEB
:1027C00040F233439A42A2F2334203DC524200F019
:1027D00044F800E090402C43F1D0404270BD00F03E
:1027E000004230F000400AD0C10D01F56071C0F325
:1027F000160042EA0151C208400711437047002009
:102800000146704701F0004330B421F0004150EA26
:10281000010206D00A0DA2F56072C1F31301002A6D
:1028200002DC30BC00207047440F44EAC104C10000
:10283000E01830BC00EBC25000F080B8202A04DB66
:10284000203A00FA02F1002070479140C2F12003C3
:1028500020FA03F3194390407047202A04DB203A02
:1028600021FA02F00021704721FA02F3D040C2F1B0
:1028700020029140084319467047202A06DBCB17F7
:10288000203A41FA02F043EAE07306E041FA02F32B
:10289000D040C2F1200291400843194670472DE90B
:1028A000F05F82460078002715468B460AF1010446
:1028B000B946302801D09DB113E014F8010B01276F
:1028C000782803D0582801D045B10AE00DB1102D69
:1028D00007D10027102514F8010B02E0082500E0BD
:1028E0000A250026B0460EE005FB080005FB06F1B0
:1028F000012701EB10461FFA80F8B6F5803F00D3A0
:10290000B94614F8010B294600F0BEF80028EBDAAE
:10291000BBF1000F05D00FB1641E00E05446CBF8A8
:102920000040B9F1000F06D001F0B6FD02210160B0
:10293000C81EBDE8F09F48EA0640FAE70029A8BF94
:102940007047401C490008BF20F00100704710B4D8
:10295000B0FA80FC00FA0CF050EA010404BF10BC8D
:10296000704749B1CCF1200421FA04F411FA0CF1BA
:1029700018BF012121430843A3EB0C01CB1D4FEAF3
:1029800000614FEA102042BF002010BC704700EBEE
:10299000C35010440029A4BF10BC7047401C49001C
:1029A00008BF20F0010010BC704710B5141E73F171
:1029B000000408DA401C41F1000192185B411A43FF
:1029C00001D120F0010010BD2DE9F04D92469B464B
:1029D00011B1B1FA81F202E0B0FA80F220329046F1
:1029E000FFF72CFF04460F4640EA0A0041EA0B01BC
:1029F00053465A46084313D0114653EA010019D0F2
:102A0000C8F140025046FFF728FF05460E465046E3
:102A100059464246FFF712FF084305D0012004E063
:102A200020463946BDE8F08D0020054346EAE076B1
:102A30002C4337430A986305E40AA0EB0800002200
:102A4000FD0A44EA47540A3002D500200146E9E76E
:102A5000010510196941DDE9084500196941BDE822
:102A6000F04DA2E7064C074D06E0E06840F0010398
:102A700094E8070098471034AC42F6D3FFF778FB90
:102A8000D87E0008F87E00083A2800D2303820F0BE
:102A90002002412A01D3A2F13700884201D34FF02E
:102AA000FF30704770B590B0002001F0EBFD344866
:102AB0000126324CCDE9086020150A9000200B90C9
:102AC0000C9004200D90C002A5150E90182209A9A3
:102AD0006846CDE90645FFF76DFB33462A46214699
:102AE000002001F0E7FD002001F0C0FD002001F012
:102AF00019FE002001F0AEFD01F01CFD1F48483812
:102B0000016841F480710160001D016821F002013B
:102B10000160016841F400010160016841F48071C5
:102B200001600121084601F01DFD4FF460210120E4
:102B300001F036FD002001F0EFFC0421012001F03E
:102B4000D1FC00210722084601F03EFD01210722A9
:102B5000084601F039FD07221021022001F034FD62
:102B600007221121032001F02FFD01F0EFFC01F0FD
:102B7000A7FC012001F05EFD10B070BD4C240140A7
:102B8000AA000020FEE70000174810B5016B41F0D5
:102B900003010163416B41F001014163016B21F4C9
:102BA0008071016340F2025002F002F940F20450D9
:102BB00002F0FEF840F2115002F0ECF840F2125030
:102BC00002F0E8F84FF4A06002F0E4F840F21C7064
:102BD00002F0E0F840F2096002F0DCF8BDE81040D5
:102BE00040F20E6002F0D6B80010024070B5431AF1
:102BF00000D55B42A0F601224FF49A754FF4C776D8
:102C0000A0F29114642B09DAB44201D8092070BDF6
:102C1000AA4201D8062070BD032070BDB44204D87A
:102C2000B1F5967F01DA072070BD40F2BB2640F671
:102C3000B833B44203D2994201DD0A2070BDA0F23C
:102C40006374F92C08D2B1F5206F05DD40F63634F7
:102C5000A14201DA042070BDAA4209D840F2627292
:102C6000914205DD40F65C02914201DA052070BD1B
:102C7000984208DDB1F5C87F05DD40F24C40814245
:102C800001DA082070BD002070BD000030B5134B84
:102C900013481A6A8266596AC1669C6A0467DD6ACB
:102CA0000F4B45674FF0FF305B6B8A4202DD8B4272
:102CB00003DA11E004DA8B420FDA93420DDD0BE008
:102CC0000749AC42896B02DDA94203DA04E004DA69
:102CD000A94202DAA14200DD002030BD100600202A
:102CE0002800002070B561490020614A0D68614EDE
:102CF000614C431E954203D3346018460C6000E0DB
:102D000035604D68954201D318464C608D689542F8
:102D100001D318468C60CD68954201D31846CC602B
:102D20000D69564E954203D3346018460C6100E09D
:102D300035604D69954201D318464C618D699542C5
:102D400001D318468C61CD69954201D31846CC61F8
:102D50000C6A4B4D661C4FF000027BD02C604C6A15
:102D6000484D661C79D02C608C6A474D661C77D024
:102D70002C60CC6A454D661C75D02C600C8E1CB145
:102D800044F62065AC4202D90C2008861846B1F8FA
:102D900040604FF47A746542A64203D8B1F94060AE
:102DA000AE4202DAA1F840201846B1F84260A642CD
:102DB00003D8B1F94240AC4202DAA1F842201846E9
:102DC000B1F844404FF6FF72944200D10124A1F8BB
:102DD0004440B1F84650954200D10025A1F8465034
:102DE000B1F84840944200D10024A1F84840B1F81D
:102DF0004A40944200D10424A1F84A40B1F84C4022
:102E0000944200D10124A1F84C40B1F84E409442C4
:102E100000D10124A1F84E40B1F85040944200D1B5
:102E20000124A1F85040B1F85240944200D101244D
:102E3000A1F85240B1F85440944200D10024A1F8C6
:102E40005440002D01D012490B6070BD02E004E037
:102E500006E008E00A622A6081E74A622A6083E7A6
:102E60008A622A6085E7CA622A6087E71006002026
:102E700080969800A0000020A0860100A4000020F9
:102E80009000002094000020980000209C0000206A
:102E90008000002070470000044AD16900E000BFB4
:102EA000D3695B1A8342FAD37047000028000020E0
:102EB00001B5BDF80000ADF80000BDF80000001D30
:102EC000ADF80000BDF80000411EADF80010F9D2C9
:102ED00008BD00002DE9F04100250E460746402AB6
:102EE00001D9402201E002B901221446012000F07C
:102EF00000FBA021012000F0B5FA88B9390A0120B1
:102F000000F0B0FA60B9F9B2012000F0ABFA38B9BC
:102F1000012000F0EEFAA121012000F0A3FA10B187
:102F20000220BDE8F081641E08E000BF00F049FA0D
:102F30007055012000F0EDF96D1CEDB2A5424FF087
:102F40000100F3DB00F03DFA7055012000F00DFAAE
:102F5000012000F002FB0020E3E7000070B50D4601
:102F60000646402A01D9402201E002B90122144656
:102F7000012000F0BEFAA021012000F073FA88B908
:102F8000310A012000F06EFA60B9F1B2012000F0C0
:102F900069FA38B90AE000BF15F8011B012000F0FA
:102FA00061FA08B1022070BD641EE4B2002CF3D1B6
:102FB000012000F0D2FA002070BD000010B50A49CF
:102FC0000A4B00204FF47F4403EBC012B2F8002CF0
:102FD000A24202D10880012010BD401C80B2082806
:102FE000F2D30020088010BD00000020001000086F
:102FF0000C4830B401780C4A01F007010180002030
:103000000A4BC90101EB40041444B4F8024C23F804
:103010001040401C80B23F28F4D330BC3F2103480D
:1030200000F07BBB0000002000100008100600200C
:10303000024AC0B232F81000088070471006002023
:103040002DE9F041244C00254FF6FF77207800F061
:103050000700208001F0D2FB2088204E002106EBE3
:10306000C01001F06BFB20781D4A401C00F00700E7
:1030700002EBC0112080B1F8001CB94205D006EB6C
:10308000C01001F07DFB0020208080B206EBC01054
:103090004FF47F4101F052FB3E21124800F03DFB0E
:1030A000104EDFF83880A6F87C0008F1020820886E
:1030B000C00100EB450101EB080036F8151001F0E6
:1030C0003DFB6D1CADB207463F2DF0D301F050FB28
:1030D0003846BDE8F081000000000020001C000818
:1030E000001000081006002002460846D1B2024A2D
:1030F00022F8110070470000100600202DE9F04171
:103100004FF09046304601F0C5FB5A4F384601F06B
:10311000C1FB012300220321304601F0EEFB022314
:1031200000220321304601F0E8FB0122042311466E
:10313000304601F0E2FB012208231146304601F03F
:10314000DCFB012240231146304601F0D6FB012270
:1031500080231146304601F0D0FB012204231146A2
:10316000304601F0EDFB012208231146304601F004
:10317000E7FB012240231146304601F0E1FB01222A
:1031800080231146304601F0DBFB10230022012191
:10319000304601F0B2FB202300220121304601F02D
:1031A000ACFB4FF40054234600220121304601F0CD
:1031B000A4FB65002B4600220121304601F09DFB57
:1031C000102301220021304601F0BAFB2023012206
:1031D0000021304601F0B4FB234601220021304695
:1031E00001F0AEFB2B4601220021304601F0A8FB86
:1031F0001021304601F046FB2021304601F042FB11
:103200002146304601F03EFB2946304601F03AFBAC
:103210002411234601220221304601F06EFB234691
:1032200001220021304601F08BFB2246012130466D
:1032300001F0F4FA6400234601220221304601F035
:103240005CFB234601220021304601F079FB224637
:103250000121304601F0E2FA022301220021384622
:1032600001F04BFB3846BDE8F04102230022114635
:1032700001F066BB000400480B281BD2DFE800F019
:103280001A06080A0C0E1012141618000AA070472D
:103290000BA070470CA070470DA070470EA07047A0
:1032A0000FA0704710A0704711A0704712A0704780
:1032B00013A0704714A07047534450302E3541007E
:1032C000434450312E354100444350312E354100A6
:1032D00041504C202031410041504C322E314100B0
:1032E00041504C322E34410020514332203556009B
:1032F000205143322039560051433220313256009A
:1033000020205143332E3000554E4B4E4F574E0028
:10331000FEE710B54FF09044022816D00821204651
:1033200001F0AEFA0320FFF7C3FD0421204601F0AF
:10333000A9FA0520FFF7BCFD0421204601F0A0FA00
:10334000BDE810400220FFF7B3BD8021204601F008
:1033500097FA0320FFF7ACFD4021204601F092FAD6
:103360000520FFF7A5FD4021E7E710B54FF0904499
:10337000022816D00821204601F084FA0320FFF726
:1033800097FD0421204601F07DFA0520FFF790FD0E
:103390000421204601F074FABDE810400220FFF736
:1033A00087BD8021204601F06DFA0320FFF780FDE4
:1033B0004021204601F066FA0520FFF779FD402103
:1033C000E7E72DE9F041002407464FF09045022839
:1033D00034D00821284601F055FA00260120FFF7D5
:1033E00067FD022F2CD00421284601F049FA052060
:1033F000FFF75EFD0421284601F044FA0320FFF7A1
:1034000057FD0821284601F073FA61060C0EC0072B
:1034100001D0641CE4B20220FFF74AFD761CF6B22C
:10342000082EDBD3022F1BD00421284601F028FAF6
:103430000220FFF73DFD2046BDE8F0818021C9E76D
:103440004021284601F01CFA0520FFF731FD4021FC
:10345000284601F017FA0320FFF72AFD8021D1E763
:103460004021E2E72DE9F0410F46064600244FF0E7
:10347000904500BF07FA04F0C0F3C012022E26D018
:103480000821284601F000FA0120FFF711FD042170
:10349000284601F0F7F90520FFF70AFD0421284628
:1034A00001F0EEF9641CE4B2082CE3D30220FFF72C
:1034B000FFFC022E1BD00821284601F0E3F9022070
:1034C000FFF7F6FC3046BDE8F04100F06CB8802113
:1034D000284601F0D9F90120FFF7EAFC40212846EF
:1034E00001F0D0F90520FFF7E3FC4021D7E7802168
:1034F000E2E710B54FF0904402281AD00821204688
:1035000001F0C0F90421204601F0BCF90520FFF7C5
:10351000CFFC0821204601F0B3F90520FFF7C8FCD5
:103520000421204601F0ACF9BDE810400220FFF76D
:10353000BFBC8021204601F0A5F94021204601F0C2
:10354000A1F90520FFF7B4FC8021204601F098F98D
:103550000520FFF7ADFC4021E3E710B54FF09044A4
:10356000022813D00821204601F08AF904212046C0
:1035700001F088F90520FFF79BFC0821204601F0A7
:1035800081F9BDE810400420FFF792BC802120465D
:1035900001F076F94021204601F074F90520FFF78B
:1035A00087FC8021EAE770B54FF09044022815D0DF
:1035B0000421204601F066F90320FFF779FC082179
:1035C0002546204601F094F904460421284601F0DE
:1035D00057F90220FFF76CFC204670BD40212046C1
:1035E00001F050F90320FFF763FC802125462046B7
:1035F00001F07EF904464021E8E7000010B5002400
:1036000002210C4801F074F90B490028088808D001
:10361000642801D3022402E00A2800D301240020F8
:1036200004E0421C0A80642801D3642008802046FC
:1036300010BD000000040048A800002070B5064638
:103640000C004FF0000039D020603046FFF751FFEA
:10365000D1213046FFF706FF3046FFF7B2FE0546A0
:103660003046FFF756FE2068A90702D54FF07F418C
:1036700000E00021084340EA054020603046FFF7A3
:10368000A0FE05463046FFF744FE206840EA0520CC
:1036900020603046FFF795FE05463046FFF739FEBD
:1036A0002068284320603046FFF78BFE04463046F2
:1036B000FFF75BFE3046FFF750FF204670BD70B548
:1036C0000C460546FFF715FFD0212846FFF7CAFE36
:1036D00021462846FFF7C6FE2846BDE87040FFF7A2
:1036E0003CBFFEE770B5064600224FF6FF704AF277
:1036F00001040FE0B35C58405FF0000310F0010FCD
:103700004FEA500000D060405B1C9BB2082BF5D301
:10371000521C92B28A42EDD370BD70B506460022AB
:103720004FF6FF704AF201040FE036F812305840AD
:10373000002310F0010F4FEA500000D060405B1CE6
:103740009BB2082BF5D3521C92B28A42EDD370BDC6
:10375000704710B54FF4A06001F0F6F90122BDE802
:10376000104011461B2001F0A9B9000070B50646B3
:103770005FF0000404F1B000C0B200F02FF90020A7
:1037800000F02CF9102000F029F90025304600F057
:103790003CF96D1CEDB2802DF8D3641CE4B2082C0A
:1037A000E8D370BD10B50446AE2000F017F94020F4
:1037B00000F014F9B02000F011F90CB1C82000E0BD
:1037C000C02000F00BF9812000F008F9012000F082
:1037D00005F90CB1A12000E0A02000F0FFF8A62020
:1037E00000F0FCF8A82000F0F9F81F2000F0F6F82F
:1037F000D32000F0F3F8002000F0F0F8D52000F01E
:10380000EDF8F02000F0EAF8D92000F0E7F82220E7
:1038100000F0E4F8DA2000F0E1F8022000F0DEF831
:10382000DB2000F0DBF8492000F0D8F88D2000F014
:10383000D5F8142000F0D2F8AF2000F0CFF8BDE8A2
:1038400010400020FFF792BF08B1A72000E0A6209B
:1038500000F0C4B810B504468D2000F0BFF8142065
:1038600000F0BCF80CB1AF2000E0AE20BDE8104085
:1038700000F0B4B810B520B1C82000F0AFF8A12016
:1038800003E0C02000F0AAF8A020BDE8104000F03E
:10389000A5B870B505464FF090464021304600F07F
:1038A000EFFF002428064FF08001304602D500F0DB
:1038B000E9FF01E000F0E4FF6806050E4021304614
:1038C00000F0E0FF4021304600F0DAFF641CE4B273
:1038D000082CE7D370BD10B50446B031C8B200F073
:1038E0007DF804F00F0000F079F8102040EA141081
:1038F000BDE8104000F072B82DE9F041203A0E46C4
:1039000007460024D5B2FFF7E6FF0D4800EB05158A
:10391000285D00F07AF8641CE4B2082CF8D3761C19
:10392000F1B23846FFF7D7FF00242819007A00F0DB
:103930006CF8641CE4B2082CF7D3BDE8F0810000F9
:10394000A07400082DE9F04117460E4604460025F4
:103950000CE031462046FFF7CFFF0834E4B2782C64
:1039600002D90024B61CF6B26D1CEDB27A5D002AB5
:10397000EFD1BDE8F08110B54FF0904440212046D2
:1039800000F080FF8021204600F07CFF802120464F
:1039900000F076FF2046BDE81040402100F070BFE7
:1039A00010B54FF090444021204600F06BFF80217D
:1039B000204600F065FF2046BDE81040802100F061
:1039C00061BF10B54FF090444021204600F05AFFEF
:1039D0002046BDE81040402100F052BF10B504461B
:1039E000FFF7C9FF7820FFF754FFFFF7EAFF002039
:1039F000FFF74FFFFFF7E5FF2046FFF74AFFFFF70E
:103A0000E0FFBDE81040FFF7CBBF10B50446FFF75D
:103A1000B2FF7820FFF73DFFFFF7D3FF4020FFF70D
:103A200038FFFFF7CEFF2046FFF733FFFFF7C9FF50
:103A3000BDE81040FFF7B4BF7047000002490148DD
:103A4000086070470020000808ED00E01D481C4990
:103A50001E4A01601C4840F8141B40F8101C40F836
:103A60000C1C40F8081C116040F8041C0160416007
:103A7000174A816000211160164AC1601160164A20
:103A800001611160154A416111600C2281618283DC
:103A900040F29652C2834FF6FF7202848185C1853F
:103AA00001220286418681860421C18602874287DF
:103AB0008287C2874FF46161A0F840107047000010
:103AC000A0860100A000002010060020A400002015
:103AD0009000002094000020980000209C0000200E
:103AE0007047000010B537210448FFF716FE034C5D
:103AF00024F86E0FFFF7A4FA208810BD10060020EE
:103B00004FF47A72B0FBF2F310B50A22B3FBF2F471
:103B100002FB143330330B702E234B706423B0FB45
:103B2000F3F3B3FBF2F402FB143330338B70B0FBCE
:103B3000F2F3B3FBF2F402FB14333033CB70B0FB7F
:103B4000F2F302FB13003030087110BDF0B52E23E4
:103B5000002806DA302008708B704870C870087131
:103B600019E0494F0A22642542F210764FF47A7424
:103B7000B84212DA90FBF6F696FBF2F702FB1766F4
:103B800030360E704B7090FBF4F393FBF2F402FBB3
:103B90001433303316E04871F0BD3C4FB84222DA9E
:103BA00090FBF2F090FBF6F696FBF2F790FBF4F444
:103BB00002FB176630360E7094FBF2F602FB1644D9
:103BC00030344C708B7090FBF5F393FBF2F402FBF6
:103BD00014333033CB7090FBF2F393FBF2F402FB1F
:103BE0001433303342E02A4FB8421ADA90FBF5F032
:103BF00090FBF6F696FBF2F790FBF4F402FB1766E7
:103C000030360E7094FBF2F602FB164430344C70E2
:103C100090FBF5F494FBF2F502FB154430348C7004
:103C2000D8E71C4FB84228DA90FBF4F090FBF6F688
:103C300096FBF2F790FBF4F402FB176630360E7039
:103C400094FBF2F602FB164430344C7090FBF5F412
:103C500094FBF2F502FB154430348C7090FBF2F4C7
:103C600094FBF2F502FB15443034CC700B7190FBE1
:103C7000F2F302FB130030308DE7392008704870F2
:103C80008870C8700B7186E7A086010040420F0063
:103C90008096980000E1F5050A2290FBF2F310B53A
:103CA00093FBF2F402FB143330330B7090FBF2F30E
:103CB00002FB13003030487010BD00002DE9F04FBA
:103CC0000A226424DFF8BCC1DFF8BC91DFF8BCA194
:103CD0002E256F4F42F210764FF47A734FF0390B66
:103CE000002848DBB84201DA202708E0604515DAF1
:103CF00090FBF7F797FBF2FC02FB1C7730370F7055
:103D000040E000BF90FBF2F393FBF2F402FB1433AC
:103D100030334B71A9E08871BDE8F08F48450ADA6D
:103D200090FBF2F090FBF7F797FBF2FC02FB1C779D
:103D300030370F703CE050450ADA90FBF4F090FB0E
:103D4000F7F797FBF2FC02FB1C7730370F704DE062
:103D5000DFF840C160450ADA90FBF3F090FBF7F71B
:103D600097FBF2FC02FB1C7730370F705CE0584683
:103D700081F800B080E040424FF02D0881F80080CB
:103D8000B84211DA90FBF6F696FBF2F790FBF3F3EC
:103D900002FB176630364E708D7093FBF2F502FB16
:103DA00015333033CB7014E060451BDA90FBF2F032
:103DB00090FBF6F696FBF2F790FBF3F302FB176627
:103DC00030364E7093FBF2F602FB163330338B70B5
:103DD000CD7090FBF4F393FBF2F402FB1433303319
:103DE0000B718FE748451BDA90FBF4F090FBF6F679
:103DF00096FBF2F790FBF3F302FB176630364E703A
:103E000093FBF2F602FB163330338B7090FBF4F326
:103E100093FBF2F402FB14333033CB700D7171E776
:103E2000504528DA90FBF3F090FBF6F696FBF2F79C
:103E300090FBF3F302FB176630364E7093FBF2F6FD
:103E400002FB163330338B7090FBF4F393FBF2F4E8
:103E500002FB14333033CB7090FBF2F393FBF2F49C
:103E600002FB143330330B714D7190FBF2F302FB04
:103E7000130030304FE7584648708870C87008719A
:103E80004D7148E740420F008096980000E1F5052B
:103E9000A086010000CA9A3B70B50023002801DA11
:103EA0005B1E4042244A90FBF2F40A2294FBF2F596
:103EB00002FB1544214D303490FBF5F595FBF2F6ED
:103EC00002FB1655E4B20C7030354D702E258D7006
:103ED00042F2107590FBF5F595FBF2F602FB1655D4
:103EE0003035CD704FF47A7590FBF5F595FBF2F611
:103EF00002FB165530350D71642590FBF5F595FBE9
:103F0000F2F602FB165530354D7190FBF2F595FB3C
:103F1000F2F602FB165530358D7190FBF2F502FB7F
:103F200015003030C8710BB12D2002E0302C01D1CA
:103F30002020087070BD000040420F00A0860100E4
:103F400030B50023002802DA5B1E404200B2642232
:103F500090FBF2F40A2294FBF2F502FB1544303494
:103F60000C7090FBF2F494FBF2F502FB1544303434
:103F70004C7090FBF2F402FB14003030887000208B
:103F800020220C5C302C04D10A54401CC0B2022800
:103F9000F7D3002B05D0002803D008442D2200F8C9
:103FA000012C30BD30B50023002801DA5B1E4042F1
:103FB00042F2107290FBF2F40A2294FBF2F502FB3B
:103FC000154430340C704FF47A7490FBF4F494FB85
:103FD000F2F502FB154430344C70642490FBF4F489
:103FE00094FBF2F502FB154430348C7090FBF2F434
:103FF00094FBF2F502FB15443034CC7090FBF2F4E4
:1040000002FB140030300871002020220C5C302CA0
:1040100004D10A54401CC0B20428F7D3002B05D0A9
:10402000002803D008442D2200F8012C30BD0000E8
:1040300030B50023002801DA5B1E4042284A90FB7D
:10404000F2F40A2294FBF2F502FB154430340C70B2
:10405000244C90FBF4F494FBF2F502FB154430344D
:104060004C7042F2107490FBF4F494FBF2F502FBF6
:10407000154430348C704FF47A7490FBF4F494FB54
:10408000F2F502FB15443034CC70642490FBF4F458
:1040900094FBF2F502FB154430340C7190FBF2F402
:1040A00094FBF2F502FB154430344C7190FBF2F4B2
:1040B00002FB140030308871002020220C5C302C70
:1040C00004D10A54401CC0B20628F7D3002B05D0F7
:1040D000002803D008442D2200F8012C30BD000038
:1040E00040420F00A08601000B4A10B51368C0F3D0
:1040F000032403EB10331B780B7013681B5D4B70AC
:104100001368C0F3031400F00F001B5D8B7012687E
:10411000105CC87010BD0000180000200F4A10B5D8
:104120001368C0F303541B5D0B701368C0F30344A2
:104130001B5D4B701368C0F303341B5D8B701368F9
:10414000C0F303241B5DCB701268C0F3031300F0AF
:104150000F00D35C0B71105C487110BD180000207B
:104160002DE9F041114D00240F4E1220E96DFFF7AB
:1041700093FDE96D2E2707208F70C91CFFF78CFD7A
:10418000E96D1D204F71891DFFF786FDE86D00EB7D
:10419000840136F814000831FFF7A6FF641CE4B26E
:1041A000062CF3D3BDE8F081ACF7FF1F28000020F8
:1041B00002F0E6BE1448016841F0010101600168A7
:1041C0008907FCD54168114A114041604168104A95
:1041D00011404160416821F44001416001680D4A8D
:1041E00011400160C16A21F00F01C162016B40F210
:1041F000431291430163416B21F0010141630021AE
:10420000816002F0C7BA0000001002400C00FF08F5
:10421000FFFFC277FFFFF2FE2DE9F05F04460027A3
:104220000E46A4F84671BA46FDF7BAFF006804F1DD
:10423000C40B04F14405805D10F03E0F4FF0010007
:1042400013D0A4F846010AF80560B4F84A014028E2
:1042500032D23046FDF7A8FF0146B4F84A01421CAD
:10426000A4F84A2100F80B1026E002214FF0200E9E
:104270004FF00308082E2BD0DFF858910D2E35D0C3
:104280000A2E19D0032E17D0102E15D01B2E61D058
:104290001D2E69D0504A126802EB161393F800C025
:1042A000A4F8460106F00F030AF805C0D25C425597
:1042B000A4F8468101F805E094F8460100F03F00BB
:1042C000A4F846014548B0F8440000287AD17DE0C2
:1042D00008220AF8052000F805E0A4F846814A55AE
:1042E000B4F84A010028E7D0401E30E00D230AF858
:1042F00005300A22A4F846114255B4F84A01402874
:1043000022D200F80BA0A4F84AA14FF0FF302060A1
:10431000B4F94C018022C11700EB517121F0070163
:10432000401AA4F84C0109EBC0105946FDF766FF8E
:10433000B4F94C01401CC11700EB517121F0070189
:10434000401AA4F84C01B7E7504684F803A1A4F83A
:104350004A01B1E7B4F84C01401E00B2A4F84C0188
:1043600000280CDA083008E0B4F84C01401C00B218
:10437000A4F84C01082802DB0838A4F84C01B4F971
:104380004C01802209EBC0115846FDF737FF584613
:10439000FDF740FFA4F84A01B4F94C01802209EB73
:1043A000C0112846FDF72AFF2846FDF733FFA4F881
:1043B000460181E706E0E01990F8440002F002FFB0
:1043C0007F1CFFB2B4F84601B842F4D8FF20BDE824
:1043D000F09F0000100200201800002010060020AE
:1043E00005480068800606D5034808300068C1B259
:1043F0000248FFF711BF70471C380140C000002081
:1044000005494520086004492D200C3908600449FD
:1044100002480860704700000C380140C571000870
:104420001C0000200A480C49007810F003020948DB
:10443000C06F0BD0012A07D0022A03D0032A00D173
:10444000086170474861704788617047C86170476C
:104450002500002028000020100600200A480C49F2
:10446000007810F003020948806F0BD0012A07D0B2
:10447000022A03D0032A00D10860704748607047C1
:1044800088607047C8607047240000202800002022
:1044900010060020FEE7000000487047BC00002026
:1044A00002E008C8121F08C1002AFAD170477047FD
:1044B000002001E001C1121F002AFBD1704700005B
:1044C0000748016841F00801016001680907FCD450
:1044D000016841F00401016001684907FCD470479C
:1044E000082401400A050A4BA2F5801203EB015192
:1044F000012809D0022806D10648036893430360C7
:1045000002680A430260704702480C38F5E7000071
:104510000000F0FF3824014005490028086802D057
:1045200040F4006001E020F4006008607047000083
:104530000824014010B540F20934204600F054FC34
:104540002046BDE8104000F041BC0000044801686E
:10455000C90703D1016841F0010101607047000003
:10456000082401400D4A00294FEAC0710AD019B150
:10457000116841F48011116080070ED5106840F475
:10458000004009E019B1116821F480111160800721
:1045900003D5106820F400401060704708240140E3
:1045A000084A012809D0022806D1106820F4E0400A
:1045B00010601068084310607047106820F4602095
:1045C000F6E700000824014070B5122900D100214F
:1045D0001F23062802D2164D2C680CE00C2804D2AA
:1045E000134D2D1F2C68801F05E010280BD2104D95
:1045F000083D2C680C3800EB8006B3409C4301FA60
:1046000006F02043286007230A2903D2084C243CE3
:10461000206805E012290AD2054C283C20680A3996
:1046200001EB41018B4098438A400243226070BDF8
:10463000342401400649C20703D00A6842F48002CC
:104640000A60800703D5086840F4001008607047CE
:104650000824014000EB8000810003480844816881
:1046600041F00101816070470000024000EB8000D2
:10467000810003480844816841F02001816070474F
:10468000000002400A4B00EB800103EB81018A68C5
:1046900022F001028A6000228A60CA600A614A61CF
:1046A000596882000F209040014359607047000014
:1046B000000002402DE9F0430DF11C0800EB8000E2
:1046C00098E8E0024FEA80081548DDE90BC4404451
:1046D00001614561C0F80CC08168324321F47C510E
:1046E0000C4322438260816883B121F040018160E4
:1046F000816877B121F0800181608168B9F1000F94
:104700000AD041F010018160BDE8F08341F0400122
:10471000EDE741F08001EFE721F01001F3E7000041
:104720000000024000EB80008100034808448168DB
:1047300021F480418160704700000240F0B50646D8
:104740004FF470270D46384600F038F800280CD199
:10475000064C206940F0010020613580384600F0A9
:104760002DF8216921F001012161F0BD00200240F6
:104770000248016941F08001016170470020024058
:1047800070B505464FF47026304600F017F8002843
:1047900010D1094C206940F0020020616561206958
:1047A00040F040002061304600F008F8216921F017
:1047B0000201216170BD00000020024000B50346E7
:1047C00000F008F85B1E012802D1002BF8D104206C
:1047D00000BD000008490020CA68D20701D00120AE
:1047E0007047CA68D20601D503207047C9684907D7
:1047F000FBD50220704700000020024004480169F8
:10480000090603D503494160034941607047000030
:104810000020024023016745AB89EFCDF0B5036A64
:10482000446A002501260F2706FA05FC1CEA020F40
:1048300009D04FEA850C07FA0CFE23EA0E0301FAB1
:104840000CFE4EEA03036D1CADB2082DECD3082517
:1048500006FA05FC1CEA020F0BD04FEA850CACF1FE
:10486000200C07FA0CFE24EA0E0401FA0CFE4EEAB4
:1048700004046D1CADB2102DEAD303624462F0BD96
:1048800081627047816170470AB1816170478162BE
:1048900070470000144A10B5811A90421CD008DC01
:1048A000B0F1904F15D01149C8421BD140F61224E7
:1048B00007E0B1F5806F12D0B1F5406F12D140F62C
:1048C0001624204600F090FA2046BDE8104000F083
:1048D0007DBA40F61124F4E740F61324F1E740F6E0
:1048E0001424EEE710BD00000008004800FCFFB7EC
:1048F0000069084000D0012070472DE9F047894643
:1049000001689246C268002401274FF0030C07FAA1
:1049100004F51D420BD066000CFA06F5A943AA4324
:1049200009FA06F80AFA06F548EA01012A43641C66
:10493000A4B2102CEBD30160C260BDE8F087000088
:10494000F0B50129416819D099434160816800247C
:1049500001274FF0030C00BF07FA04F61E4207D0F0
:1049600066000CFA06F521EA050502FA06F129436C
:10497000641CA4B2102CEFD38160F0BD1943E4E7AE
:104980000348C06910F0060001D04FF0FF307047B7
:1049900000200240FFF752F8FEF7F6F8FEF70EFB94
:1049A000FEF726FB37213848FEF7B7FE364CB4F841
:1049B0006E10884203D0FFF749F8FFF793F8FEF72F
:1049C00091F908B1FFF78EF8304864210068B0FB18
:1049D000F1F0401EB0F1807F55D24FF0E0214861E8
:1049E0002B4AF02082F8140D00208861072008610E
:1049F000FEF784FBFEF7ADFEFFF702FDFEF752F86F
:104A000014F84E0FFEF7CEFE608820B301F070FE62
:104A1000294C20221FA1E06DFDF7F0FBE16D122073
:104A20000831FFF739F9E16D07200B31FFF734F951
:104A3000E16D1D200E31FFF72FF900210846E26DD0
:104A4000FEF780FFE26D022100201032FEF77AFFB0
:104A50006420FEF721FA02F05FFB02F00FFB02F088
:104A600091F901F015FF01F0BBFE02F06DF801F0C5
:104A700095FF01F0EBFF02F079F901F071FF0020E2
:104A800000F06CF8E7E7FEE710060020B400002015
:104A90000FE000E055494D657465722031372E30C6
:104AA000362E3235206279204543484F20537475A5
:104AB00064696F20000000002800002070B5214BC1
:104AC00000252C461E68C6F30226072E14D01E6849
:104AD000C6F30226062E11D01E68C6F30226052E46
:104AE0000FD01E68C6F30226042E0DD01B68C3F338
:104AF0000223032B0BD00BE0042409E0012503243F
:104B000006E002252C4603E00325012400E00425ED
:104B1000C5F104039940C4F104040F23E34013409A
:104B20000B4300F1E022190182F8001400F01F028B
:104B3000012191404009800000F1E020C0F80011FF
:104B400070BD00000CED00E0024908430249086016
:104B5000704700000000FA050CED00E004490A6807
:104B600022F004020A6008B120BF704730BF7047CE
:104B700010ED00E070B5252215A11E48FDF73EFBA3
:104B80001C491D4808310E460068FFF785F91B4C8B
:104B9000184914F8400F1D3140B20D46FFF702FAD4
:104BA000144802F03FFB252215A11248FDF726FB11
:104BB0001C4831460068FFF76FF9A078294640B2DB
:104BC000FFF7F0F9BDE870400A4802F02BBB000087
:104BD00020552041646A3A20313233343536373833
:104BE00020202055205A65726F3A20202031323320
:104BF00034350A0090060020A00000201006002096
:104C000020492041646A3A2031323334353637380E
:104C100020202049205A65726F3A202020313233FB
:104C200034350A00A40000202DE9F04751A688B0D1
:104C30005ACE8DE85A0050A38046D3E90013CDE93F
:104C400004134DA10020D1E90031CDE906314D4BCF
:104C50000546024659684C4EC1F3810119B101293C
:104C600001D0022901D0314617E059685C68C1F3D0
:104C70008341C4F3C0640CB1113100E0891C5C684D
:104C8000C4F300443CB1DC6A04F00F04641CB6FBBE
:104C9000F4F4614301E03D4C61435C68C4F30314E8
:104CA0001DF8047021FA07F45F680DF1100CC7F3CA
:104CB00002271CF8077024FA07F95F680DF1180C39
:104CC000C7F3C2274FF4004A1CF8077024FA07F70D
:104CD000B8F1070F06D2DFE808F004080A0C0E2925
:104CE0003100084608B0BDE8F0872046FAE748469C
:104CF000F8E73846F6E7186BC00501D4244D13E0F9
:104D00005868C0F3813030B1012806D0022806D09F
:104D1000032809D107E07D0806E0BD0804E006206D
:104D2000B7FBF0F500E0FD082846DBE7186B40060E
:104D300002D448F21200D5E75046D3E7186B80073B
:104D40000ED0186B00F0030001280BD0186B00F098
:104D50000300022808D0186BC043800706D006E085
:104D60003A4604E00A4602E0524600E03246104667
:104D7000B8E700000000000000000000010203048A
:104D8000060708090010024000127A0000093D00E1
:104D9000809FD500054901EB90110A6800F01F03C0
:104DA0000120984002430A60704700000010024052
:104DB000054901EB90110A6800F01F03012098409B
:104DC00002430A607047000000100240054901EBF1
:104DD00090110A6800F01F030120984082430A6086
:104DE0007047000000100240054901EB90110A686D
:104DF00000F01F030120984002430A607047000042
:104E0000001002402DE9F0472E48314B3149856AA8
:104E1000DFF8B4C02D4A0C781E69AF0307D5C6670A
:104E2000664501D3C2671A6144F003003EE014F006
:104E30000308284C4FF69B7A247824F0030404F1ED
:104E4000010735D0DFF89090B8F1010F1FD0B8F10D
:104E5000020F0DD0B8F1030F08D1C667664501D324
:104E6000C2671A614D4501DDA41C0C70BDE8F087D6
:104E70005C69C467644501D3C2675A614D4500DD72
:104E80000F705545F2DA087840F003000EE09E6995
:104E9000C667664501D3C2679A614D4500DD0C7057
:104EA0005545E3DA087820F00300801C0870DDE740
:104EB000DC69C467644501D3C267DA615545D5DA58
:104EC0000F70D3E72800002080969800A08601008C
:104ED00010060020250000209BFF01002DE9F0476F
:104EE0002E48314B3149456ADFF8B4C02D4A0C7861
:104EF0001E68AF0307D58667664501D382671A60CF
:104F000044F003003EE014F00308284C4FF69B7A6F
:104F1000247824F0030404F1010735D0DFF89090E1
:104F2000B8F1010F1FD0B8F1020F0DD0B8F1030F87
:104F300008D18667664501D382671A604D4501DD59
:104F4000A41C0C70BDE8F0875C688467644501D3DD
:104F500082675A604D4500DD0F705545F2DA0878DA
:104F600040F003000EE09E688667664501D38267C5
:104F70009A604D4500DD0C705545E3DA087820F065
:104F80000300801C0870DDE7DC688467644501D39A
:104F90008267DA605545D5DA0F70D3E72800002024
:104FA00080969800A08601001006002024000020B2
:104FB0009BFF010006490020086006490860064979
:104FC000086006490860064908600649088070477D
:104FD0006C000020700000206400002068000020A9
:104FE000480000202C00002038B5564D564C68680B
:104FF00000287DD055A1FDF7EFF8B0B1A86828B121
:1050000010220021FDF730F9A4F844000B2251A131
:105010005348FDF7F3F8B4F8440008B1312000E03C
:1050200030204F49C87108467BE04EA16868FDF703
:10503000D3F848B1A868002805D00A220021FDF75E
:1050400013F94A49086038BD49A16868FDF7C4F8FA
:1050500050B1A8680028F6D010220021FDF704F90D
:10506000A4F84E0043A05CE04CA16868FDF7B4F8DA
:1050700058B1A8680028E6D00A220021FDF7F4F80C
:1050800081B2A4F8541047A046E04DA16868FDF72E
:10509000A3F850B1A8680028D5D00A220021FDF756
:1050A000E3F881B2A18648A036E04DA16868FDF71B
:1050B00093F8002834D00020FFF7B6FD014649A040
:1050C00002F08EF80120FFF7AFFD01464AA002F082
:1050D00087F80220FFF7A8FD01464CA002F080F8F7
:1050E0000320FFF7A1FD01464DA002F079F800E092
:1050F0001BE00420FFF798FD01464EA002F070F877
:105100000520FFF791FD01464FA002F069F8062047
:10511000FFF78AFD014651A0BDE8384002F060B8B3
:1051200053A0BDE8384002F07DB851A002F07AF8F3
:1051300034F8340F0090238C628B218A5BA002F03C
:105140004FF838BD04000020100600206563686F2A
:1051500000000000204543484F3A20580A00000054
:105160009006002074696D65000000004800002072
:1051700064697200207361766520616E64207265D7
:10518000626F6F7420746F206170706C7920636837
:10519000616E67652E2E2E0A00000000737462791E
:1051A0000000000020736574207362616E64627990
:1051B0002074696D6520746F20253564730A0000C2
:1051C0006977616B65000000207365742049574161
:1051D0004B4520746F20253564204C53420A000053
:1051E000636C6B0020434B5F5359532020203D20BC
:1051F000256C640A0000000020434B5F41484220B8
:1052000020203D20256C640A0000000020434B5FF5
:105210004150423120203D20256C640A00000000EE
:1052200020434B5F4150423220203D20256C640AD0
:105230000000000020434B5F4144432020203D20DC
:10524000256C640A0000000020434B5F4345432067
:1052500020203D20256C640A0000000020434B5FA5
:105260005553415254203D20256C640A0000000033
:105270006374726C205B6563686F7C74696D657CB8
:105280006469727C737462797C6977616B655D2097
:105290005B706172616D5D20446576696365204372
:1052A0006F6E74726F6C2E0A000000002045434838
:1052B0004F3D307825303458204449523D307825D0
:1052C00030345820535442593D252D3564204957D8
:1052D000414B453D252D35640A000000F8B50020FE
:1052E000394CADF8000005466068002869D037A148
:1052F000FCF772FF78B3A06800282BD010220021A1
:10530000FCF7EAFFC6B2E06840B110220021FCF7CA
:10531000E3FF84B2A4F10800392812D3402412E03C
:10532000680703D139462BA001F05AFFB8B269468D
:10533000FDF77EFEBDF8001029A001F051FF6D1CA5
:10534000ADB2A54202D277193F2FE9D326A000BF04
:1053500001F068FFF8BDFFE724A16068FCF73CFF9F
:10536000E8B1A0680028F5D0E1680029F2D0102249
:105370000021FCF7B1FFC5B210220021E068FCF764
:10538000ABFF84B221462846FDF7AEFE214619A0A8
:1053900001F026FF29461CA001F022FFDAE721A137
:1053A0006068FCF719FF18B1FDF722FE1FA0CFE7D8
:1053B00025A16068FCF710FF18B1FDF741FE24A09D
:1053C000C6E72948C4E70000040000207265616454
:1053D000000000000A3078253034582020000000FA
:1053E00025303458200000000A00000077726974EC
:1053F00065000000207772697465203078253034AC
:105400005820746F0000000020656570726F6D2079
:105410006164647265737320307825303458202EAF
:105420002E2E0A006C6F6164000000004C6F6164F6
:105430002066726F6D20496E742E20454550524F84
:105440004D2E2E2E0A0000007361766500000000CC
:105450005361766520746F20496E742E2045455047
:10546000524F4D2E2E2E0A00A87B0008F8B51D4D78
:105470000024686800282ED010220021FCF72CFFA1
:10548000B0F5803F01D34FF6FF700646A86850B1D3
:1054900010220021FCF720FFC5B2FF2D01D3FF250C
:1054A00002E0082D12D28025200703D131190EA069
:1054B00001F096FE301980B201226946FDF70AFD1F
:1054C00050B10CA001F0AEFE641CE4B2AC42EBD3D0
:1054D00009A001F0A7FEF8BD9DF8001007A001F09B
:1054E0007FFEF1E7040000200A3078253034582090
:1054F00000000000464620000A0000002530325817
:10550000200000007CB5144D686800281AD01022D5
:105510000021FCF7E1FE0446B0F5803F12D2A868F6
:1055200000280FD010220021FCF7D6FE8DF80000D5
:10553000A0B201226946FDF711FD010003D007A0CA
:1055400001F04EFE7CBD9DF8001008A001F048FE61
:1055500021460BA0F4E7000004000020204932435C
:10556000204572726F72212025640A0020777269CB
:1055700074652030782530325820746F00000000A8
:1055800020656570726F6D2061646472657373204D
:10559000307825303458202E2E2E0A002DE9F04781
:1055A000322253A15F48FCF729FE5F4801245D4D7C
:1055B000007800F0030104FA01F0303028725B48F3
:1055C00005F10F0188460068FEF7A8FD584805F16F
:1055D000160189460068FEF771FB564805F11F0168
:1055E0000F460068FEF7B2FA534805F126010E4651
:1055F0000068FEF71DFD284601F014FE32224FA17F
:105600002846FCF7FBFD5A484146007800F00300AD
:105610008440584830342C720068FEF77FFD5648AD
:1056200049460068FEF74AFB544839460068FEF7D1
:105630008DFA534831460068FEF7FAFC284601F01F
:10564000F1FD21224FA12846FCF7D8FD5548E91C61
:105650000068FEF733FB544805F10D010068FEF7C2
:105660002DFB524849460068FEF7E2FC284601F04F
:10567000D9FD2E224EA12846FCF7C0FD5848691DD1
:105680000088FEF73DFA574C208805F111010F46BE
:10569000FEF72AFD544805F11B010088FEF730FA99
:1056A000608805F127010E46FEF71EFD284601F031
:1056B000B9FD2E224DA12846FCF7A0FD5748691DD3
:1056C0000088FEF71DFAA0883946FEF70DFD544804
:1056D00005F11C01B0F90000FEF732FCE08831460C
:1056E000FEF702FD2846BDE8F04701F09BBD000033
:1056F00020553A205047413D382041443D307830D4
:1057000030433346372020342E3939373056203055
:105710002E30333739572020393739383275560A09
:105720000000000090060020240000204C00002013
:105730005C000020740000205400002020493A2022
:105740005047413D382041443D3078464646464426
:1057500031202D302E3030373641203635362E3937
:105760003652202020202D393275560A00000000C4
:10577000250000205000002060000020780000205C
:105780005800002020503A20302E30303030416810
:10579000202D302E3030303157682020202020310D
:1057A00036730A00640000206800002048000020D2
:1057B0002056642B3A312E363530562041443D3048
:1057C0007846464646202056642D3A312E363530EE
:1057D000562041443D3078464646460A00000000C7
:1057E00036000020AA0000203A0000202056646401
:1057F0003A332E333030562041443D3078464646C9
:1058000046202020546A3A202032336F43204144FE
:105810003D3078464646460A00000000320000202F
:105820004000002070B50C4D0024281F0678B61FDC
:105830000EE000BF04EB440005EB80018A682AB14A
:105840004A6855F8201005A001F0CAFC641C24B277
:10585000B442EFDB70BD0000D47300082025732034
:105860002D3E20257300000070B52D4C6068002887
:105870004ED02CA1FCF7B0FC2B4D58B1A0680028ED
:1058800017D00A220021FCF7EFFC2860BDE8704029
:10589000FEF7C8BD25A16068FCF79EFC50B1A0686A
:1058A000002806D00A220021FCF7DEFC2149A1F8DD
:1058B000420070BD20A16068FCF78EFC18B30A227C
:1058C0000021A068FCF7D0FCFCF737FF04461C4819
:1058D0000068FCF732FF01462046FCF768FD1949D5
:1058E000FCF733FDFCF743FF2860FEF79BFD1B220E
:1058F00015A11C48FCF782FC1A4928680D31FEF7F7
:10590000CBFA184800E018A0BDE8704001F08ABC4E
:1059100015A001F087FCBDE87040FFF72BB900002F
:105920000400002061646A00A40000207A65726FA0
:10593000000000001006002063616C690000000098
:10594000600000200050C3472073657420496164E3
:105950006A20746F2031323334353637382E2E2E8C
:105960000A0000009006002069736574205B616482
:105970006A7C7A65726F7C63616C695D205B6164CF
:105980006A20313030303030787C4920313030304E
:1059900030785D20736574204920706172616D2ECE
:1059A0000A0000002DE9F047DA4FDB4D0026786849
:1059B000DA4C05F1100900287ED0D9A1FCF70CFCC7
:1059C000002868D00A220021B868FCF785FCB4F8EA
:1059D0004A10012202EB8121B0FBF1F201FB12001F
:1059E00007043F0C55D0D0A001F01CFC4DE000BFD7
:1059F0004FF6FF7000EA06101022D749FDF76AFA49
:105A00003222D6A1C448FCF7F9FBD34CC249208806
:105A100040BAFEF7C7FAD4F80200617900BA20F064
:105A2000FF000843E91DFEF703FBA179207A0B066E
:105A30004FF07F4808EA23221043E279090441EA43
:105A4000022108434946FEF739F9617AE07A0B06EC
:105A500008EA23221043A27A090441EA02210843FA
:105A6000AD491931FEF72AF9A089AB4940BA223174
:105A7000FEF746F8E089A84940BA2931FEF740F818
:105A8000A54801F0CFFB761CB6B2BE42B0D3BDE84C
:105A9000F087BEA0E6E0C3A1B8467868FCF79CFB9F
:105AA00000260A27002822D00A220021D8F8080060
:105AB000FCF712FC80B200E0D8E0411E032906D8B2
:105AC00024F84A0FB8A001F0ADFB208807E0BCA085
:105AD00001F0A8FBC7A001F0A5FBB4F84A008E496D
:105AE0008002FEF75FFA6F71AE718B48BAE0C9A110
:105AF000D8F80400FCF770FBE8B1D8F8080060B1F2
:105B00000A220021FCF7E8FBC0B224F84C0FC2A027
:105B100001F088FBB4F9000007E0C5A001F082FBAA
:105B2000CEA001F07FFBB4F94C007B49FEF708FAE8
:105B3000EF702E71D9E7D0A14546D8F80400FCF7E4
:105B40004BFBC0B1A86868B10A220021FCF7C4FB76
:105B500000F0010024F8480FC9A01CE0CDA081E0AE
:105B6000CDA07FE0CEA001F05DFBD7A001F05AFBF5
:105B7000B4F848001BE0DAA16868FCF72DFBC8B157
:105B8000A86860B10A220021FCF7A6FB00F0010022
:105B900024F8460FD4A001F045FB208807E0DAA0E6
:105BA00001F040FBE5A001F03DFBB4F84600002801
:105BB000D6D0D3E7EAA16868FCF70EFB564E08364C
:105BC00078B1A86858B10A220021FCF74DFB206289
:105BD0001322E4A15048FCF711FB206A13E0E6A071
:105BE00040E0ECA16868FCF7F7FA80B1A86860B102
:105BF0000A220021FCF738FB60621322E6A1464826
:105C0000FCF7FCFA606A314682E0E8A02AE0EEA1E7
:105C10006868FCF7E1FA78B1A86858B10A22002157
:105C2000FCF722FBA0621322E8A13B48FCF7E6FA4E
:105C3000A06AE8E7EAA015E0F0A16868FCF7CCFAF2
:105C400078B1A86858B10A220021FCF70DFBE06288
:105C50001322EBA13048FCF7D1FAE06AD3E7EDA0BC
:105C600000E0F3A0BDE8F04701F0DCBAF0A001F0DD
:105C7000D9FA1C22FEA12848FCF7C0FAB4F84A0061
:105C80002549800214314834FEF78CF9224801F08E
:105C9000C9FA1722FDA12048FCF7B0FA1E49B4F951
:105CA00004001131FEF74CF91B4801F0BBFA88A043
:105CB00001F0B8FA34F8480908B176A000E076A0FF
:105CC00001F0B0FA9FA001F0ADFAB4F8460008B1B7
:105CD00070A000E070A001F0A5FA1B22F1A10E480F
:105CE000FCF78CFA291D206AFDF7E8FF4946606A37
:105CF000FDF7E4FF084801F095FA1B22F0A10648E1
:105D0000FCF77CFA291DA06AFDF7D8FF4946E06A36
:105D1000E4E10000040000209006002010060020AE
:105D200064756D700000000020202020692C202068
:105D30002020742873292C20202020552856292C17
:105D400020202020492841292C20202056642B2C5B
:105D500020202056642D0A00DC0600203132333426
:105D6000352C20313233343536372C2030302E303C
:105D70003030302C2030302E303030302C2030304D
:105D8000302E302C203030302E300A00206C6F67DF
:105D90002064756D70205B646563206E756D5D2099
:105DA0000A0000006D61780020536574204D617811
:105DB0002064617461206C6F6720746F20000000A4
:105DC000206C6F67206D6178205B317C327C337C86
:105DD000345D20536574204D6178206461746120C6
:105DE0006C6F6720316B7C326B7C336B7C346B2E39
:105DF0000A0000002063757272656E74206C6F6714
:105E00002064617461206C656E677468206973201A
:105E100000000000696E740020536574206C6F6789
:105E200020696E74657276616C20746F20000000CA
:105E3000206C6F6720696E74205B64656320696EF7
:105E400074657276616C5D20536574206C6F672099
:105E5000696E74657276616C2E0A0000206375723B
:105E600072656E74206C6F6720696E7465727661FE
:105E70006C2069732000000072696E6700000000EA
:105E8000205365742052696E67204D6F64652074DD
:105E90006F2000004F6E0A004F66660A0000000087
:105EA000206C6F672072696E67205B307C315D20EB
:105EB0005475726E204F6E2F4F66662072696E6742
:105EC000206D6F64652E0A002063757272656E74B2
:105ED0002072696E67206D6F646520697320000011
:105EE0006175746F00000000207365742061757423
:105EF0006F207374617274206C6F67206D6F6465BE
:105F000020746F2000000000206C6F6720617574A2
:105F10006F205B307C315D205475726E204F6E2F88
:105F20004F6666206175746F207374617274206CA3
:105F30006F67206D6F64652E0A0000002063757224
:105F400072656E74206175746F2073746172742051
:105F50006C6F67206D6F646520697320000000001E
:105F600075680000207365742055483D30302E3030
:105F7000303030560A000000206C6F6720756820B2
:105F80005B554820646563203130303030585D0AFD
:105F900000000000756C00002073657420554C3DB6
:105FA00030302E30303030560A000000206C6F67E1
:105FB00020756C205B554C20646563203130303097
:105FC00030585D0A000000006968000020736574A5
:105FD0002049483D30302E30303030410A0000003A
:105FE000206C6F67206968205B49482064656320E6
:105FF0003130303030585D0A00000000696C00001C
:106000002073657420494C3D30302E3030303041A3
:106010000A000000206C6F6720696C205B494C20EF
:10602000646563203130303030585D0A0000000074
:106030006C6F67205B64756D707C6D61787C696ED8
:10604000747C72696E677C6175746F7C75687C7531
:106050006C7C69687C696C5D204F706572617465E9
:106060002064617461206C6F67732E0A0000000069
:10607000206C6F672064617461206C656E67746862
:106080002069732031323334350A0000206C6F6789
:1060900020696E74657276616C20697320313233C9
:1060A0000A0000002055483D30302E303030305648
:1060B00020554C3D30302E30303030560A00000034
:1060C0002049483D30302E303030304120494C3D61
:1060D00030302E30303030410A000000FDF7EEFD48
:1060E00003E5000070B5194D686800282DD0102216
:1060F0000021FCF7F1F80446A0F10060B0F5802F14
:1061000004D3A4F10050B0F5004F19D2A868104D87
:1061100040B110220021FCF7DFF881B2A1F10800A4
:10612000A84201D34FF480710D462046FDF7DAFAFC
:106130002A462146BDE87040034606A001F050B84B
:10614000BDE870400CA001F06DB870BD04000020E7
:10615000F9FF030053544152543D307825303858EC
:10616000204C454E3D307825303858204352433D31
:106170003078253034580A0020426164204164722E
:1061800065737321200A00002DE9F0410024FEF719
:10619000F7FB00282DD1184D6868002829D010225F
:1061A0000021FCF799F8060021D0A8684FF4807709
:1061B00040B110220021FCF78FF885B2BD4201D812
:1061C000082D0DD23D460BE0200703D131190BA05D
:1061D00001F006F8315D0CA001F002F8641CA4B2D5
:1061E000AC42F1D30AA0BDE8F04101F01BB809A010
:1061F000F9E7BDE8F0810000040000200A307825AE
:1062000030385820000000002530325820000000AF
:106210000A000000204261642041647265737321AA
:10622000200A000010B5374C6068002863D036A102
:10623000FBF7D2FFB8B1A068002861D0E16800295F
:106240005ED00A220021FCF747F800F01F000F285B
:1062500001D9022100E00021E2680007BDE81040FA
:10626000400EFDF76FBB2AA16068FBF7B5FF60B178
:1062700010220021A068FCF72FF8A168C0B2002905
:106280003ED0BDE81040FDF771BA23A16068FBF76E
:10629000A3FF60B1A068002832D00A220021FCF7D9
:1062A0001BF8BDE8104000F00100FDF7D3BA1CA1B7
:1062B0006068FBF791FF60B1A068002820D00A2237
:1062C0000021FCF709F8BDE8104000F00100FDF7DF
:1062D000BBBA14A16068FBF77FFF60B1A06800281B
:1062E0000ED00A220021FBF7F7FFBDE8104000F0B6
:1062F0000100FDF7BFBABDE810400CA000F092BF4E
:1063000010BD00000400002073686F7700000000DB
:1063100066696C6C000000006F6E6F6666000000BE
:10632000696E7600726F7461746500006F6C6564ED
:10633000205B73686F777C66696C6C7C6F6E6F66D0
:10634000667C696E767C726F746174655D205B61DA
:106350006464725D205B646174615D204F7065727E
:10636000617465204F4C45442E0A000010B5174C4F
:106370006068002824D016A1FBF72EFF40B116A0BC
:1063800000F050FFFCF734FEBDE81040FCF7AABC5B
:106390001AA16068FBF720FF30B11AA000F042FF9D
:1063A000BDE81040FDF79EBB1EA16068FBF714FF1F
:1063B00030B11EA000F036FFBDE81040FDF746BB2F
:1063C000BDE8104021A000F02DBF00000400002017
:1063D0006C6F616400000000204C6F61642070618C
:1063E00072616D65746572732066726F6D204545CC
:1063F00050524F4D2E2E2E0A00000000736176651C
:1064000000000000205361766520706172616D6547
:106410007465727320746F20454550524F4D2E2E77
:106420002E0A0000726573746F72650020526573E6
:10643000746F72652064656661756C74207061723A
:10644000616D65746572732E2E2E0A007061726123
:106450006D205B6C6F61647C736176657C726573C3
:10646000746F72655D204F70657261746520706134
:1064700072616D65746572732E0A00001049002008
:106480004B6823B10A2200211846FBF725FF0A2199
:10649000B0FBF1F0FCF700FD0AA000F0C3FE012004
:1064A00080F31388BFF34F8F0A4801680A4A01F44A
:1064B000E06111430160BFF34F8F00BFFDE70000B3
:1064C00004000020207265626F6F74696E672E2E63
:1064D0002E200A000CED00E00400FA0570B51D4DF9
:1064E0001D4C686800282ED01CA1FBF775FE38B142
:1064F000A86800282DD00A220021FBF7B5FE16E07F
:1065000017A16868FBF768FEC0B1A868002820D012
:106510000A220021FBF7A8FE41F2CC011E384843B5
:106520004FF47A7190FBF1F00F490988084481B269
:1065300061860EA0BDE8704000F052BEBDE870401C
:106540000FA000F06FBE0EA000F06CFE618E16A0D2
:10655000F0E770BD04000020100600207633300004
:1065600063616C69000000003C00002020736574CA
:10657000205633303D2534646D562E2E2E0A0000F1
:1065800074736574205B7633307C63616C695D2065
:106590005B5633307C545D207365742054207061E9
:1065A00072616D2E0A000000205633303D253464A0
:1065B0006D560A0070B52D4C606800284ED02CA195
:1065C000FBF70AFE2B4D58B1A068002817D00A220D
:1065D0000021FBF749FE2860BDE87040FDF73EBF93
:1065E00025A16068FBF7F8FD50B1A068002806D02F
:1065F0000A220021FBF738FE2149A1F8400070BDB6
:1066000020A16068FBF7E8FD18B30A220021A0680A
:10661000FBF72AFEFCF791F804461C480068FCF7DB
:106620008CF801462046FBF7C2FE1949FBF78DFEA8
:10663000FCF79DF82860FDF711FF1B2215A11C48EF
:10664000FBF7DCFD1A4928680D31FDF725FC1848D9
:1066500000E018A0BDE8704000F0E4BD15A000F017
:10666000E1FDBDE87040FEF785BA0000040000209F
:1066700061646A00A00000207A65726F000000006B
:106680001006002063616C69000000005C000020BF
:106690000050C34720736574205561646A20746F8D
:1066A0002031323334353637382E2E2E0A00000092
:1066B0009006002075736574205B61646A7C7A655E
:1066C000726F7C63616C695D205B61646A2031304C
:1066D00030303030787C55203130303030785D20AB
:1066E000736574205520706172616D2E0A00000080
:1066F00070B50F4800240D4D017801F01F0301888B
:106700000088490AC0F343120AA000F069FD00BFE7
:1067100035F814100EA000F063FD641CE4B2062CE2
:10672000F6D3BDE870400CA000F07CBDACF7FF1FB5
:10673000B07A00082055494D657465725553422062
:106740007625642E25642E256420534E3A000000E1
:1067500025303458000000000A204543484F20539C
:10676000747564696F203C6563686F2E786A747510
:1067700040676D61696C2E636F6D3E2E20416C6CBD
:106780002052696768747320526573657276656418
:106790002E200A0011480021026842F48032026073
:1067A00040F6010203689B0302D4491C9142F9D1CF
:1067B0000168890310D541684160416841604168C2
:1067C0004160416821F003014160416841F00101ED
:1067D000416041684907FCD5704700000010024045
:1067E0002DE9F04726490868420646D520F04000CA
:1067F000A1F164040860A06BFBF7A8FFDFF88480B8
:10680000DFF884908A46054642464B46FBF7B4FEC5
:1068100007460E46606CFBF7E2FF3A463346FBF74D
:1068200004FEFBF7EFFF064660642846514600224F
:10683000164BFBF713FF07460D46606BFBF786FF11
:106840003A462B46FBF798FE42464B46FBF794FE32
:1068500007460D46A06CFBF7C2FF3A462B46FBF7F6
:10686000E4FDFBF7CFFF0546A0643046FBF77FFF52
:10687000E0632846FBF77BFF2064BDE8F08700005B
:106880008C000020DFBC9A785634323F0088C34029
:106890002DE9FC5F2E490868820754D520F00200DC
:1068A000A1F164040860A06B8046FBF74FFFDFF89E
:1068B000A490834600224F464B460191FBF7CEFE43
:1068C00005460E46606BFBF741FF824600223B46C1
:1068D0000091FBF7C3FE00223B46FBF74DFE2A4624
:1068E0003346FBF749FEFBF75BFFE064002801DA63
:1068F0004042E0645FEA0800174DDFF8608024D072
:10690000DDE900175E46504600224B46FBF734FE99
:1069100032463B46FBF7A2FEFBF742FF642190FBA9
:10692000F1F1C4E91401002801DA40422065A842CF
:1069300000DD2565002901DA48426065616D414549
:1069400001DDC4F85480BDE8FC9FC4E91458FAE79F
:106950008C0000200088C340FFE0F5059CFF630029
:106960000D4910B50868420314D520F48020A1F128
:1069700064040860606B49F64041884208DDA06B02
:10698000B0F57A7F04DD618AE089FCF72FF900E039
:106990000020607010BD00008C00002070B52849F8
:1069A0000868C2064AD520F0100008604FF09045F4
:1069B00010212846FDF764FF214C2249643CA08841
:1069C000020A0A704870226A130E8B70130CCB7087
:1069D000130A0B714A71626B130C8B71130ACB7122
:1069E0000A72A26B130C4B72130A8B72CA72E28981
:1069F000130A0B734A73628A130A8B73CA734FF6B6
:106A0000FF7101EA001010220E49FCF7A7FAA088D6
:106A1000401C81B20C48A180B0F84A20B1EB822F13
:106A200006D3B0F84810002009B1A08000E0A065AE
:106A30002846BDE870401021FDF724BF70BD00005E
:106A40008C000020DC060020100600200D4910B547
:106A50000868420714D520F00400A1F1640408601E
:106A6000E0780021401CE0700846E26DFCF76AFF08
:106A7000E26D02210020BDE810401032FCF762BF39
:106A800010BD00008C0000202DE9F041FCF7B6FDA0
:106A90002B494FF000020B6E5C1C01D101280AD07B
:106AA000274C0E7803256434052E05D2DFE806F066
:106AB00006101B2A3200CA80BDE8F081012810D0E0
:106AC0000228F9D1002BF7D1206840F4003032E0E1
:106AD000012805D00228EFD1BDE8F041FEF76ABADF
:106AE00002200870E8E7012805D00228E4D1886D6B
:106AF00018B18A65E0E70D70DEE74FF0FF3088657A
:106B00008A80D9E7012803D00228D5D10420E8E7FC
:106B10000A70D1E70128EED00228CDD10949B1F899
:106B20004E0050B15FF00000A1F84E00FCF7A2FE4D
:106B3000206840F480302060BEE70120F4E70000C8
:106B4000280000201006002070B561480168CA07BF
:106B500028D021F00101A0F164040160643821789B
:106B6000C06D05291ED2DFE801F0031E9C78AE003F
:106B7000202258A1FBF742FBE16D606BFDF79EF808
:106B8000E16DE06C0931FCF7E1FFE16DA06B1031C4
:106B9000FDF794F8E16D206D1931FCF7D7FFE16D39
:106BA0008020C87770BD202253A1FBF727FBE16D41
:106BB000E06BFDF783F85948226A642192FBF0F0FC
:106BC00090FBF1F301FB1300C0B20A25B0FBF5F313
:106BD000E16D30338B72B0FBF5F305FB1300303001
:106BE000C8724FF4616092FBF0F0182290FBF2F350
:106BF00002FB1300C0B2B0FBF5F230324A73B0FBB7
:106C0000F5F205FB1200303088731031206CFDF76F
:106C100055F8266A3C2296FBF2F090FBF2F102FB5B
:106C20001100C1B2B1FBF5F3E06D30338376B1FBF7
:106C3000F5F305FB13113031C17696FBF2F102FB3F
:106C40001161C9B2B1FBF5F230324277B1FBF5F216
:106C500005FB12113031817770BD202230A1FBF786
:106C6000CDFAE16DE089891CFCF74AFFE16DB4F9CA
:106C700018000A31FDF764F9E16D608A1231FCF702
:106C80003FFF6078FCF7F8FA0146E06D0722183004
:106C9000FBF7B4FAE16D56207F2288714A7388753C
:106CA00070BD202227A1FBF7A9FAE16DA0880A3167
:106CB000FDF778F92C48E16DB0F94C00BDE8704063
:106CC0001B31FDF73DB9BDE87040FDF749BA000042
:106CD0008C00002020302E303030305620302E30C6
:106CE0003030305720302E30303030412039393973
:106CF000392E39520000000020302E303030304123
:106D0000682030306430306820302E3030303057DA
:106D1000682030306D303073000000008051010079
:106D2000442B312E3635562020203031326F43200F
:106D3000442D312E36355620554E4B4E4F574E2052
:106D400000000000204C6F67436F756E743A20207E
:106D50002020302020496E74657276616C3A2020C4
:106D6000203173200000000010060020044908684C
:106D7000C20304D520F480300860FCF7B3BE70472E
:106D80008C0000202DE9F05F4A49086802077CD595
:106D900020F00800086040390120FCF74FFCDFF8C4
:106DA00018814449444688F800003C390220FCF729
:106DB00045FCDFF808910646DFF804A189F80000D9
:106DC00027783C4CDFF8FCB03806A4F1640423D4E7
:106DD000BAF94000616A081AFBF7B8FC00225B466A
:106DE000FBF7CAFBFBF7DCFC07F003010841054693
:106DF000E062A06FFBF7A1FC3349FBF7D8FA074626
:106E00002846FBF79AFC3149FBF79FFA3946FBF716
:106E10009CFAFBF7ACFC6063300628D4BAF9420058
:106E2000A16A081AFBF792FC00225B46FBF7A4FB61
:106E3000FBF7B6FC06F00301084106462063E06F4D
:106E4000FBF77BFC2049FBF7B2FAFBF7C8FC0746CF
:106E50000D463046FBF77AFC1D4A1E4BFBF78CFBB8
:106E60003A462B46FBF788FBFBF79AFCA063FEF73C
:106E700035F8FDF7C7FF98F8001099F8002021F0C9
:106E800010014C4622F0100200E010E041F08C01AD
:106E900088F8001042F08C0089F800000120FCF70F
:106EA0000EFC2178BDE8F05F0220FCF708BCBDE8CD
:106EB000F09F00008C00002024000020250000200E
:106EC0001006002000402F400050C3475C8F023F57
:106ED000ABAAAAAAAAAAEA3FF0B42548C1884FF4EF
:106EE0009602B2FBF1F18AB222494A8103885343E8
:106EF000C3F30F358D8143885343C3F30F340C82A2
:106F000080885043C0F30F331B488B820A89D0E935
:106F10000176D0F800C0632A1DD36422BCFBF2FCCA
:106F2000B7FBF2F7B6FBF2F2A1F80EC04F8292B2B5
:106F3000CA820560C0E90143002008810F48408EE5
:106F4000801A4FF47A72504341F2CC0290FBF2F077
:106F50001E30088307E065443C4433440560C0E9C3
:106F60000143521C0A81F0BC0120FDF763BB000005
:106F7000AA00002028000020D006002010060020D3
:106F80002DE9F0413B4EF069401CF061FFF77CFDBC
:106F9000FFF7A2FFF069642190FBF1F201FB120000
:106FA000C5B2354F06F16404242D45D012DC052D01
:106FB00046D006DC052D43D2DFE805F02D193A3E18
:106FC0004400062D1FD0212D2ED0222D0FD0232D91
:106FD00036D12DE0442D2BD00DDC272D13D002DC33
:106FE000252D2DD12EE0422D2AD0432D28D12068E9
:106FF00040F0080023E0452D1ED0462D22D0472D1D
:107000001ED0482D1CD1B7F85200002818D0206897
:1070100040F0040013E0306A401C3062206840F009
:10702000800040F480200AE0206840F0400006E044
:10703000206840F0020002E0206840F0010020607B
:10704000BDE8F081B06D401CFAD1FBF71FFE401C7B
:10705000F6D1B7F84C0048B1042DF1D1B178491CF4
:10706000C9B2B1708842EBD80020B070206840F0FF
:107070001000E4E7280000201006002070B5244826
:1070800001680A0642D521F08001A0F16404016084
:10709000204D226ECAB14FF0904610213046FDF7C8
:1070A000EFFB4FF47A70FBF703FF10213046FDF73A
:1070B000E9FBA88E0021A0F57F42FF3A1DD0E0B188
:1070C000A26B904219DAE1801AE0B5F8542052B16F
:1070D000A36D43B9E3885B1C9BB2E3809A4202D85C
:1070E00041F4003101608A0310D521F400310160C0
:1070F0004FF0FF302066002004E0E088002805D132
:1071000001202166BDE87040FCF7A4BB70BD000003
:107110008C000020100600202DE9F041DFF894805B
:107120000025D8F80000002841D023A108F1C400B0
:10713000FBF778F8214C2060B0B11FA10020FBF7CD
:1071400071F8606080B11CA10020FBF76BF8A060B3
:1071500050B119A10020FBF765F8E06020B116A13D
:107160000020FBF75FF82061154F3E1D0AE000BFCD
:1071700005EB450056F820102068FBF72DF820B9E4
:107180006D1CEDB238788542F2D33878854206D24C
:1071900005EB450006EB8000806800B180470020C9
:1071A00020606060A060E0602061C8F80000BDE879
:1071B000F0810000C000002020000000040000203A
:1071C000D073000805490A681206FCD5034A0C3240
:1071D000106008684006FCD5704700001C3801406C
:1071E0000FB410B503A9029800F026F810BC5DF8A2
:1071F00014FB000010B504460A2802D10D20FFF749
:10720000F9FF07494A681AB102F8014B4A6010BDFC
:1072100009680029FBD02046BDE81040084700005F
:107220001C00002010B5044602E0641CFFF7E2FFDA
:1072300020780028F9D110BD2DE9FF5F8A46054668
:107240004FEA0D0915F8010B00286FD0252802D050
:10725000FFF7D0FFF6E715F8010B4FF000083028D4
:1072600002D02D2802D005E0012000E00220804657
:1072700015F8010B002606E006EB860100EB41063F
:1072800015F8010B303EA0F130010929F4D96C2822
:1072900001D04C2803D115F8010B48F00408002850
:1072A00044D00246612801D3203AD2B24F2A3ED0C0
:1072B00006DC422A38D0432A33D0442AC8D138E0E9
:1072C000532A0FD0552A34D0582AC1D15FF0100369
:1072D0005FEA487101D4442A2DD05AF8041B442A8D
:1072E0002BD02FE05AF8047B002400E0641C385DAA
:1072F0000028FBD102E02020FFF77CFF5FEA8870C6
:1073000003D42046641CB042F5D33846FFF78AFF09
:1073100002E02020FFF76EFF2046641CB04291D2AD
:10732000F7E71AF8040B93E70223D1E74EE00823AE
:10733000CEE70A23CCE75AF8041B002902DA4942B7
:1073400048F0080800244F46B1FBF3F203FB121289
:10735000B1FBF3F1D2B2092A05D9782816D04FF043
:10736000070C6244D2B230323A55641C09B1102C79
:10737000EAD35FEA087003D52D2009F80400641CE5
:1073800027465FEAC87004D0302003E04FF0270C96
:10739000E7E72020834602E05846FFF72BFF5FEA2D
:1073A000887003D438467F1CB042F5D3641E19F8A8
:1073B0000400FFF71FFF002CF8D102E02020FFF7A8
:1073C00019FF38467F1CB042A9D2F7E7BDE8FF9FFE
:1073D00011000000647E0008687D00089D550008CB
:1073E000947E00087C7D0008B54F0008607E000890
:1073F000A47D0008A5590008747E0008E47D0008FB
:107400006D630008B47E0008087D0008B5650008BB
:10741000A47E0008A47C000869580008AC7E00081F
:10742000E07C0008DD6400086C7E0008687C0008D1
:10743000E94F0008BC7E0008447D00087D64000818
:107440008C7E0008987D000825580008847E00087E
:107450004C7C0008F16600087C7E0008A87B0008D0
:10746000DD520008487E0008687B0008256200089D
:10747000507E0008EC7B00086D5400089C7E0008DC
:107480001C7C000805550008587E0008147E000882
:1074900089610008407E0008387B0008E56000082C
:1074A00000000000000000000000000000000000DC
:1074B000000000F800000000000000333000000071
:1074C00000100C06100C0600000000000000000078
:1074D00040C07840C0784000043F04043F040400EA
:1074E000007088FC08300000001820FF211E0000FA
:1074F000F008F000E018000000211C031E211E000F
:1075000000F00888700000001E2123241927211094
:1075100010160E0000000000000000000000000037
:10752000000000E0180402000000000718204000DE
:1075300000020418E00000000040201807000000CE
:10754000404080F0804040000202010F0102020032
:10755000000000F0000000000101011F0101010016
:10756000000000000000000080B07000000000007B
:107570000000000000000000000101010101010104
:10758000000000000000000000303000000000009B
:107590000000000080601804006018060100000070
:1075A00000E010080810E000000F102020100F006D
:1075B000001010F8000000000020203F20200000F4
:1075C000007008080888700000302824222130004C
:1075D00000300888884830000018202020110E0054
:1075E0000000C02010F8000000070424243F2400FD
:1075F00000F80888880808000019212020110E00D2
:1076000000E0108888180000000F112020110E00E3
:1076100000380808C83808000000003F00000000DB
:107620000070880808887000001C222121221C009C
:1076300000E010080810E0000000312222110F00C5
:10764000000000C0C000000000000030300000005A
:1076500000000080000000000000806000000000CA
:1076600000008040201008000001020408102000E3
:10767000404040404040400004040404040404002E
:1076800000081020408000000020100804020100C3
:10769000007048080808F0000000003036010000C3
:1076A000C030C828E810E0000718272423140B0076
:1076B0000000C038E0000000203C230202273820F0
:1076C00008F8888888700000203F202020110E00D4
:1076D000C0300808080838000718202020100800CB
:1076E00008F808080810E000203F202020100F00B4
:1076F00008F88888E8081000203F20202320180080
:1077000008F88888E8081000203F200003000000E7
:10771000C03008080838000007182020221E020088
:1077200008F808000008F808203F210101213F2047
:10773000000808F8080800000020203F2020000072
:1077400000000808F8080800C08080807F00000062
:1077500008F888C028180800203F2001263820009B
:1077600008F8080000000000203F20202020300002
:1077700008F8F800F8F80800203F003F003F20001C
:1077800008F830C00008F808203F200007183F0024
:10779000E01008080810E0000F10202020100F0053
:1077A00008F808080808F000203F21010101000046
:1077B000E01008080810E0000F18242438504F008B
:1077C00008F8888888887000203F2000030C30204B
:1077D00000708808080838000038202121221C0089
:1077E000180808F8080818000000203F20000000D2
:1077F00008F808000008F808001F202020201F00BB
:107800000878880000C83808000007380E0100001A
:10781000F80800F80008F800033C0700073C0300E4
:10782000081868808068180820302C03032C30204A
:107830000838C800C83808000000203F20000000B9
:1078400010080808C8380800203826212020180011
:10785000000000FE020202000000007F40404000E5
:10786000000C30C000000000000000010638C0001D
:1078700000020202FE000000004040407F000000C5
:1078800000000402020204000000000000000000EA
:1078900000000000000000008080808080808080E8
:1078A00000020204000000000000000000000000D0
:1078B00000008080808000000019242222223F20C6
:1078C00008F8008080000000003F112020110E0009
:1078D0000000008080800000000E11202020110098
:1078E000000000808088F800000E112020103F204A
:1078F0000000808080800000001F222222221300CE
:10790000008080F0888888180020203F2020000018
:107910000000808080808000006B949494936000CD
:1079200008F8008080800000203F210000203F20D8
:1079300000809898000000000020203F20200000D8
:10794000000000809898000000C08080807F0000C8
:1079500008F8000080808000203F24022D302000A5
:10796000000808F8000000000020203F2020000050
:107970008080808080808000203F20003F20003F6A
:107980008080008080800000203F210000203F2078
:107990000000808080800000001F202020201F0029
:1079A000808000808000000080FFA12020110E0058
:1079B0000000008080808000000E112020A0FF8049
:1079C000808080008080800020203F2120000100F6
:1079D000000080808080800000332424242419004B
:1079E000008080E0808000000000001F2020000058
:1079F0008080000000808000001F202020103F2099
:107A0000808080000080808000010E300806010028
:107A100080800080008080800F300C030C300F00CD
:107A200000808000808080000020312E0E312000F8
:107A3000808080000080808080818E701806010028
:107A400000808080808080000021302C2221300046
:107A500000000000807C020200000000003F404067
:107A600000000000FF00000000000000FF00000018
:107A70000002027C800000000040403F0000000047
:107A800000060101020204040000000000000000E2
:107A90000000609090600000000000000000000006
:107AA0000000008080000000002E310000312E0018
:107AB000FD24004040404040404040404141414161
:107AC00041404040404040404040404040404040B5
:107AD00040404005020202020202020202020202C9
