:020000040800F2
:10200000D810002065210008DF3E0008E1340008F8
:10201000113E00083D2B0008E563000800000000A9
:10202000000000000000000000000000E54500087E
:10203000292D000800000000F93F0008ED560008B7
:102040007F2100087F2100087F2100087F210008F0
:102050007F2100087F2100087F2100087F210008E0
:102060007F2100087F2100087F2100087F210008D0
:102070007F2100087F2100087F2100087F210008C0
:102080007F2100087F210008000000007F21000858
:102090007F2100087F2100087F2100087F210008A0
:1020A0007F2100087F2100087F210008355D00089E
:1020B0007F210008000000007F21000800000000D0
:1020C0007F210008000000007F21000800000000C0
:1020D0000000000000000000000000000000000000
:1020E00000000000000000007F2100080000000048
:1020F00000000000000000000000000000000000E0
:102100007F21000800000000000000000000000027
:1021100000000000000000000000000000000000BF
:1021200000000000000000000000000000000000AF
:10213000000000000000000000000000000000009F
:102140000000000000000000000000007F210008E7
:10215000DFF80CD000F0D6FB0048004725680008E7
:10216000D81000200648804706480047FEE7FEE7F3
:10217000FEE7FEE7FEE7FEE7FEE7FEE7FEE7FEE737
:102180006D5700085121000800487047509C000816
:10219000A0F14101192900D82030704730B505461B
:1021A0002A460B4612F8010B13F8014B08B1A04266
:1021B000F8D01CB1002802D06D1CF1E7284630BDD4
:1021C00010B5044604E00B7800F8013B03B1491C4C
:1021D000521EF8D2204610BD421C10F8011B0029E7
:1021E000FBD1801A7047000070B50F4D00B9286808
:1021F000002412E00A4602E09E4203D0521C1378EB
:10220000002BF9D1DAB2224305D02BB124B1002141
:1022100000F8011B04E00446401C0678002EE9D1BA
:102220002860204670BD0000000000202DE9F04726
:1022300091460F4680460446002614F8015B2DB1F6
:10224000FFF7A2FF0068405DC007F6D12B2D02D03A
:102250002D2D18D0641E4A463946204600F06FFAEC
:1022600027B13968A14201D1C7F8008071054FF04C
:1022700002040BD54042002803DD07F095FC046002
:10228000A007BDE8F08746F48066E4E70028F8DAA6
:1022900007F08AFC04606FF00040F2E72DE9F05F80
:1022A00093460F4680460446002607F07DFCD0F892
:1022B0000090824614F8015B2DB1FFF765FF0068BE
:1022C000405DC007F6D12B2D02D02D2D1AD0641EF3
:1022D0000021CAF800105A463946204600F02FFA6D
:1022E000014627B13868A04201D1C7F80080DAF86A
:1022F0000000022809D0CAF80090700505D54842B0
:10230000BDE8F09F46F48066E2E70846F8E72DE96D
:10231000FE4F804681EA0300C00F0C46009021F07A
:10232000004123F00045B8EB0200A94105D2404628
:10233000214690461C460B46024623F000401043BF
:1023400047D0270DC7F30A00C3F30A510290401A81
:10235000019040286BDAC3F3130040F4801B00980F
:10236000924620B10023D2EB030A63EB0B0B0198DA
:102370005946C0F14002504600F0B0F906460D46FD
:1023800050465946019A00F0C8F910EB0800614127
:10239000002487EA115284EAE7731A4340D0009A76
:1023A00062B3019A012A4FEA075215DC001B61EB68
:1023B00002014FF0004202EA0752CDE90042001C40
:1023C00041F5801132462B4600F04EFA03B0BDE8CD
:1023D000F08F40462146F9E7001B61EB0201001C2B
:1023E00041F5801300185B412018A2F5001747EB58
:1023F000030140EAD570B6196D4111E06D084FEA4E
:10240000360645EAC0754FEA0752001B61EB020130
:10241000001C41F5801149084FEA30000019514174
:1024200032462B4603B0BDE8F04F00F00EBA0098DC
:10243000012240000023D0EB020263EBE07300981E
:1024400021464FEAE074B8EB000061EB0401E9E7D4
:1024500083F000435BE781F0004158E72DE9FE4F30
:1024600081EA030404F0004421F0004100944FF09D
:10247000000B23F0004350EA01045ED052EA03044B
:102480005BD0C3F30A54C1F30A552C44A4F2F334CD
:102490000194A0FB0254C1F3130141F48011C3F372
:1024A000130343F4801301FB024400FB034E840A30
:1024B000970A44EA815447EA8357A4FB07680295C8
:1024C0008D0A05FB07854FEA932C04FB0C54270566
:1024D000029D4FEA065847EA1637B5EB08056EEB42
:1024E000070C870E920E47EA811742EA8312A7FB78
:1024F0000201B6EB0B0164EB00042B0D43EA0C3335
:102500005E1844EB1C50DA465146E7FB0201C5F366
:1025100013044FEA0B3343EA14534FEA0432019C8D
:1025200043EA0603A4F10C040294009CCDE900B434
:1025300000F09AF903B0BDE8F08F00200146F9E7FA
:102540002DE9F04D81EA030404F0004B21F0004531
:1025500014464FF0000A23F0004150EA050220D053
:1025600054EA01021DD0C5F30A570246C5F313030E
:10257000C1F31300C1F30A5640F4801543F48013ED
:10258000A7EB0608101BD64608F2FD3873EB0500D2
:1025900002D308F1010801E092185B41B8F1000F85
:1025A00003DA00200146BDE8F08D00204FF48011D1
:1025B000064684460EE0171B73EB050705D3121B76
:1025C00063EB050306434CEA010C49084FEA30006F
:1025D00092185B4150EA0107EDD152EA030012D094
:1025E00082EA040083EA0501084305D0101BAB41D1
:1025F00006D20122002306E000224FF0004302E051
:102600006FF0010253101AEB06004CEB085110EB6F
:102610000A0041EB0B01BDE8F04D00F016B90EB514
:10262000C10F80EAE0700844CA07002140F233433A
:102630008DE80E000A460B4600F016F903B000BD07
:1026400070B5C1F30A5201F000450024C1F3130133
:1026500040F2FF3341F480119A4201DA002070BD4C
:1026600040F233439A42A2F2334203DC524200F07A
:1026700044F800E090402C43F1D0404270BD00F09F
:10268000004230F000400AD0C10D01F56071C0F386
:10269000160042EA0151C20840071143704700206A
:1026A0000146704701F0004330B421F0004150EA88
:1026B000010206D00A0DA2F56072C1F31301002ACF
:1026C00002DC30BC00207047440F44EAC104C10062
:1026D000E01830BC00EBC25000F080B8202A04DBC8
:1026E000203A00FA02F1002070479140C2F1200325
:1026F00020FA03F3194390407047202A04DB203A64
:1027000021FA02F00021704721FA02F3D040C2F111
:1027100020029140084319467047202A06DBCB1758
:10272000203A41FA02F043EAE07306E041FA02F38C
:10273000D040C2F1200291400843194670472DE96C
:10274000F05F82460078002715468B460AF10104A7
:10275000B946302801D09DB113E014F8010B0127D0
:10276000782803D0582801D045B10AE00DB1102DCA
:1027700007D10027102514F8010B02E0082500E01E
:102780000A250026B0460EE005FB080005FB06F111
:10279000012701EB10461FFA80F8B6F5803F00D301
:1027A000B94614F8010B294600F0BEF80028EBDA10
:1027B000BBF1000F05D00FB1641E00E05446CBF80A
:1027C0000040B9F1000F06D007F0EEF902210160D8
:1027D000C81EBDE8F09F48EA0640FAE70029A8BFF6
:1027E0007047401C490008BF20F00100704710B43A
:1027F000B0FA80FC00FA0CF050EA010404BF10BCEF
:10280000704749B1CCF1200421FA04F411FA0CF11B
:1028100018BF012121430843A3EB0C01CB1D4FEA54
:1028200000614FEA102042BF002010BC704700EB4F
:10283000C35010440029A4BF10BC7047401C49007D
:1028400008BF20F0010010BC704710B5141E73F1D2
:10285000000408DA401C41F1000192185B411A4360
:1028600001D120F0010010BD2DE9F04D92469B46AC
:1028700011B1B1FA81F202E0B0FA80F22032904652
:10288000FFF72CFF04460F4640EA0A0041EA0B011D
:1028900053465A46084313D0114653EA010019D053
:1028A000C8F140025046FFF728FF05460E46504645
:1028B00059464246FFF712FF084305D0012004E0C5
:1028C00020463946BDE8F08D0020054346EAE07613
:1028D0002C4337430A986305E40AA0EB0800002262
:1028E000FD0A44EA47540A3002D500200146E9E7D0
:1028F000010510196941DDE9084500196941BDE884
:10290000F04DA2E7064C074D06E0E06840F00103F9
:1029100094E8070098471034AC42F6D3FFF71CFC4C
:1029200000C0000820C000083A2800D2303820F04B
:102930002002412A01D3A2F13700884201D34FF08F
:10294000FF30704770B58C1810F8015B15F0070365
:1029500001D110F8013B2A1106D110F8012B03E038
:1029600010F8016B01F8016B5B1EF9D12B0705D440
:102970000023521E0DD401F8013BFAE710F8013B89
:10298000CB1A921C03E013F8015B01F8015B521EA5
:10299000F9D5A142D8D3002070BD000080B5094808
:1029A0004FF4007103F0A6FE0748C08E80BD00BF43
:1029B00080B504484FF4007103F09AFE0248C08EBF
:1029C00080BD00BF00040048AC0300202DE9F041A9
:1029D000804680887A2828BF7A20B8F802104218EA
:1029E000532A01D900202BE098F80A304046DFF83E
:1029F00034C300F8163F032608F11607A0F801605B
:102A00008CB2A2420FD95CF8244014B125882C0A5C
:102A100001E000250024B3B2FC54731C9BB2FD54AA
:102A200001310236ECE7F11EB5B288F818102946DC
:102A300001F0EFF9711C7855000A89B27854B01C86
:102A400088F80C00C0B2BDE8F08100BF2DE9F0416C
:102A5000804680887A2828BF7A20B8F80210421869
:102A6000422A01D900202CE098F80A304046DFF8CD
:102A70005CC000F8163F0423032608F11607A0F8EF
:102A800001308CB2A2420FD95CF8244014B12588E1
:102A90002C0A01E000250024B3B2FC54731C9BB245
:102AA000FD5401310236ECE7F11EB5B288F818107A
:102AB000294601F0AEF9711C7855000A89B27854A4
:102AC000B01C88F80C00C0B2BDE8F081C000002046
:102AD00010B50446807A04F8160F102060700020AC
:102AE000207134F8140CE07014F80E1C000A6171A7
:102AF000A0702046062101F08CF9E080082004F83F
:102B00000A0C082010BD10B50446807A062104F88E
:102B1000160F0620607034F8140C00BA000C6080A8
:102B200034F8120C00BA000CA080204601F071F9B4
:102B3000E080082004F80A0C082010BDFEE7000021
:102B400010B52448244A01680160016801600168E9
:102B50000160016811400160016841F4A021016039
:102B600050F8041C41F0807140F8041C50F8041C1B
:102B70008901FBD5016821F003010160016841F082
:102B80000201016001680907FCD5032004F046F941
:102B900040F2045004F01CF940F2025004F018F91D
:102BA0000E4C40F21150A04740F21250A0474FF493
:102BB000A060A04740F20C60A04740F20B60A04725
:102BC00040F21C70A04740F20E60A047BDE81040E4
:102BD00002F08EBD04100240FFFFC277B96D0008FD
:102BE000018849B9418839B9818829B9C18819B999
:102BF000018909B9408908B1002070474FF0FF30C2
:102C00007047000010B5EC48026B446B816BC36BDE
:102C10004E48A242C0E91524C0E9171307DD406AF7
:102C2000A0420CDB90420ADC4FF0FF3010BD08DA06
:102C3000416A4FF0FF30A14202DA914200DD0020EC
:102C400010BD994205DD806A9842F8DB8842EBDDD1
:102C5000F5E7E9DA826A4FF0FF309A42F0DA8A4209
:102C6000EDDCEDE7FFF7ACBAB0B5044694F8981088
:102C700094F8992090F8960094F8973042EA01224F
:102C800020706370628094F89A1094F89B00032B74
:102C900040EA0121A1800BD0102B0FD0062B2AD0A7
:102CA000042B3DD12069D8BB2046FFF7CFFE34E08E
:102CB0002069A8BB2046FFF789FE2EE0207294F819
:102CC0009C10082861722BD8B1EB400F28D1154A0F
:102CD000002188421CD063880B44522B09D852F83B
:102CE000233033B104EB4105B5F89D502DBA2D0CBE
:102CF0001D800131EDE7522A12D80A4850F822000F
:102D000070B10180206958B92046FFF7FCFE04E04D
:102D1000206928B92046FFF7DBFE4FF0FF30206125
:102D2000B0BD00BFC801002070470000B0B5074922
:102D3000114B4A6F4AF6AA241546AD1A854228BFA0
:102D4000B0BD1C6000BF4D6FF7E700BF340300202B
:102D5000BCB5094C4AF6AA25ADF80600BDF8060038
:102D6000411EADF8061028B14FF45C7000F006F873
:102D70002560F3E7BCBD00BF0030004081B0ADF876
:102D80000200BDF802008000ADF80200BDF80200AC
:102D90000430ADF80200BDF80200411E0028ADF875
:102DA0000210F8D101B07047F8B50C460646402A2B
:102DB00001D93F2703E0002A08BF0122571E022045
:102DC000022500F09DFC0220A02100F04BFC38BB46
:102DD000310A0220022500F045FC08BBF1B20220B6
:102DE000022500F03FFCD8B90220022500F088FC43
:102DF0000220A12100F036FC90B900250220EEB29D
:102E000000F0D4FBA0550220B74203DD00F06AFBBE
:102E10000135F3E700F098FB022000F0ADFC00253F
:102E20002846F8BD2DE9F0418046022017460C46A1
:102E3000022500F065FC3E46002F08BF0126022057
:102E4000A021402F88BF402600F00CFCE0B94FEADB
:102E500018210220022500F005FCA8B95FFA88F1CC
:102E60000220022500F0FEFB70B90225300607D0D3
:102E70002178022000F0F6FB30B9013E0134F5E77D
:102E8000022000F079FC00252846BDE8F081000012
:102E900070B5454D0021A81C80224FF6FF7408290B
:102EA0000CD002F460732B4330F8026C1B880EB90F
:102EB000A34210D0803280300131F0E7394E00203B
:102EC000308003F095FB308805EBC01003F052FB17
:102ED00003F04AFB02E0334A11800488204670BDAB
:102EE000B0B53048344B0188002401F0070101805F
:102EF000074840EAC1120232C9017C2C03D0155B9D
:102F00001D530234F9E708430088A3F87C00B0BDE4
:102F1000021C0008284AC0B232F81000088070472E
:102F20002DE9F0411F4EDFF8048E30883E2100F07D
:102F300007003080404600F085FF054603F058FB4F
:102F400031884FF48072481C00F0070002EBC11179
:102F5000154F308001F46071CA5B4FF6FF739A42DF
:102F600004D041EA070003F005FB308807EBC010EE
:102F7000290403F04DFB0546002084B23D2C0CD8FB
:102F8000328807EB440058F8141000EBC2100430EC
:102F900003F03EFB0546A01CEFE703F0E5FAE8B2BC
:102FA000BDE8F081D8060020001C0008024AC0B22B
:102FB00022F81010084670475806002003480168A0
:102FC00021F00401016030BF704700BF10ED00E048
:102FD000F8B54FF0904003F095FB7C4C204603F091
:102FE00091FB7B4D4FF09040002101220123A84727
:102FF0004FF09040002101220223A8474FF090405B
:10300000012101220423A847724F4FF09040002174
:1030100000220423B8474FF09040042103F06AFBDC
:103020004FF09040012101220823A8474FF0904023
:10303000012101221023A8474FF0904001210122D5
:103040000823B8474FF09040012101221023B847D0
:103050004FF09040022102224FF48073A8474FF0B6
:103060009040002101224FF48073B8475A4E4FF030
:10307000904002214FF48072B0474FF090400221FF
:1030800001224FF40073A8474FF090400021012225
:103090004FF40073B8474FF0904001214FF4007295
:1030A000B0474FF09040022101224FF48063A847BF
:1030B0004FF09040002101224FF48063B8474FF059
:1030C000904001214FF48062B04720460021012248
:1030D0000223A8472046012102220823A8472046B0
:1030E000012102221023A847204601210222202389
:1030F000A8472046002101220823B8472046002186
:1031000001221023B8472046002101222023B8477E
:103110002046012101224FF40073A84720460021D8
:1031200000224FF40073B84720464FF4007103F0BB
:10313000E1FA2046012101224FF48063A84720468E
:10314000012101224FF40063A847204601210122FA
:103150004FF48063B8472046012101224FF40063F9
:10316000B8472046012102224FF48053A847204649
:10317000012102224FF40053A847204601210222D8
:103180004FF48043A8472046012102224FF4004318
:10319000A8472046002101224FF48053B84720461B
:1031A000002101224FF40053B8472046002101229C
:1031B0004FF48043B8472046002101224FF40043DA
:1031C000BC4601B0BDE8F040604700BF00040048C5
:1031D00053670008A1670008916600082DE9F041D7
:1031E00098461546C21D01F10F03D2B2DBB201F0C1
:1031F0003BF92C2001F0C4F99048A5F12001CBB295
:103200008D49194D0088B8F1000F18BF1F2009889B
:1032100005EB031C494D4FF0000E0026BEF1100FC8
:103220001BD0B8F1000F04D0BEF10F0F01D1FF2762
:1032300001E01CF80E700023072B0BD8FC070C468E
:1032400008BF044624BA240CB2B2AC520133023691
:103250007F08F1E70EF1010EE0E738484FF4807186
:10326000BDE8F04101F072B9649C0008F8B5A2F124
:103270003003DCB2092C32D800F10F0201F11F0338
:10328000D2B2DBB201F0F0F82C2001F079F96B48F2
:103290006949294B0088098803EB841C274C4FF0AF
:1032A000000E0025BEF1400F12D01CF80E60002762
:1032B000072F0AD8F3070B4608BF03465BBAAAB22A
:1032C000A352013702357608F2E70EF1010EE9E765
:1032D0001A484FF48061BDE8F84001F037B92D2A53
:1032E00016D06D2A16D03A2A16D0412A16D0442A72
:1032F00016D0452A16D0502A16D0562A16D0572A4C
:1033000016D0682A16D02E2A0CBF0B240A24B3E745
:103310001224B1E71124AFE71024ADE70D24ABE789
:103320001424A9E71324A7E71524A5E70C24A3E791
:103330000E24A1E70F249FE774A20008D407002001
:10334000B0B53E483C4C002101804FF6E07022466B
:10335000124D22F8020B002000210823A8474FF449
:10336000FC60224622F80A0B002020210823A847EF
:1033700040F2FF70224622F8120B00204021082361
:10338000A8474FF61F0024F81A0B002060212246A0
:103390000823AC46BDE8B040604700BF7F3400085A
:1033A000F8B5254F4FF6E07038802448244C0025AE
:1033B000244E058000200021224610230095B047AE
:1033C00004F110020020102110230095B0474FF4A3
:1033D000FC60388004F12002002020211023009599
:1033E000B04704F130020020302110230095B0478F
:1033F00040F2FF70388004F1400200204021102389
:103400000095B04704F15002002050211023009590
:10341000B0474FF61F00388004F1600200206021A1
:1034200010230095B04704F1700200207021102392
:103430000095B047F8BD00BF100000200404002034
:103440003C000020493400082DE9F843DDF82090C5
:103450001C46154688460746002620060DD0AA5D64
:103460005AB129FA06F000F00103F8B24146FFF71D
:10347000B5FE0136013C0837EFE7BDE8F883F8B543
:103480001C4615460E460746200609D02A783AB152
:10349000F8B23146FFF7EAFE013C10370135F3E799
:1034A000F8BD072808BFFFF77BBF062804D0052812
:1034B00018BF7047FFF774BFFFF742BF022884BFF1
:1034C0000348704740B203A151F82000704700BF85
:1034D00019B000080BB00008F6AF000805B00008EE
:1034E000FEE7000010B5022814D1D04C4FF48061E3
:1034F000204603F0FDF80320FFF740FC20464FF480
:10350000006103F0F7F80520FFF738FC20464FF480
:10351000006112E04FF09040082103F0E9F8032029
:10352000FFF72CFC4FF09040102103F0E3F805204A
:10353000FFF724FC4FF09040102103F0D9F802204F
:10354000BDE81040FFF71ABC10B5022814D1B74CE3
:103550004FF48061204603F0CDF80320FFF70EFC06
:1035600020464FF4006103F0C5F80520FFF706FC84
:1035700020464FF4006112E04FF09040082103F024
:10358000B9F80320FFF7FAFB4FF09040102103F049
:10359000B1F80520FFF7F2FB4FF09040102103F047
:1035A000A7F80220BDE81040FFF7E8BB2DE9F04185
:1035B00005469E48022D80461ABF4FF090400821D4
:1035C0004FF4806103F096F800240027072C38D8C8
:1035D0000120FFF7D3FB022D14D140464FF40061C8
:1035E000464603F085F80520FFF7C8FB40464FF438
:1035F000006103F07FF80320FFF7C0FB40464FF463
:10360000806112E04FF09040102103F071F8052026
:10361000FFF7B4FB4FF09040102103F06BF803204C
:10362000FFF7ACFB4FF09040082103F08DF8064601
:103630000220FFF7A3FB06F0010040EA4707013430
:10364000C4E7022D19BF4FF09040102140464FF4BF
:10365000006103F04DF80220FFF790FBF8B2BDE8DF
:10366000F08100BFF8B5714D0E4604460027082FC3
:1036700030D006FA07F0C0B2C209022C13D1284696
:103680004FF4806103F038F80120FFF777FB2846FC
:103690004FF4006103F02EF80520FFF76FFB28467A
:1036A0004FF4006112E04FF09040082103F024F83D
:1036B0000120FFF763FB4FF09040102103F01AF850
:1036C0000520FFF75BFB4FF09040102103F010F84E
:1036D0000137CCE70220FFF751FB022C19BF4FF056
:1036E0009040082128464FF4806103F003F802203F
:1036F000FFF744FB2046BDE8F84000F069B800BF82
:1037000010B5022819D1494C4FF48061204602F0CF
:10371000F1FF20464FF4006102F0ECFF0520FFF7B7
:103720002DFB20464FF4806102F0E2FF0520FFF7F9
:1037300025FB20464FF4006117E04FF09040082130
:1037400002F0D8FF4FF09040102102F0D3FF052087
:10375000FFF714FB4FF09040082102F0C9FF05204D
:10376000FFF70CFB4FF09040102102F0C1FF022048
:10377000BDE81040FFF702BB10B5022811D12B4C59
:103780004FF48061204602F0B3FF20464FF4006101
:1037900002F0B0FF0520FFF7F1FA20464FF48061F8
:1037A0000FE04FF09040082102F0A2FF4FF0904050
:1037B000102102F09FFF0520FFF7E0FA4FF0904044
:1037C000082102F097FF0420BDE81040FFF7D6BAA9
:1037D000B0B5022812D1F54D4FF40061284602F031
:1037E00089FF0320FFF7CAFA28464FF4806102F0F0
:1037F000ABFF044628464FF4006110E04FF09040C4
:10380000102102F077FF0320FFF7B8FA4FF0904045
:10381000082102F099FF04464FF09040102102F079
:1038200067FF0220FFF7AAFA2046B0BD0004004857
:10383000B0B56FF45E61884202DA4FF6184032E0AC
:1038400047F6E571884202DD41F6BE602BE017497C
:10385000002240F277331BB214B29C420BDC1C44B2
:1038600024F001054D5F6410854202DC16DA621C0B
:10387000F2E7631EEFE731F9132031F91410801AD3
:1038800000EB8000891A400090FBF1F003EB83010C
:1038900000EB41004FF61841084404E0044904EBF2
:1038A000840001EB400000B2B0BD00BF2EA80008AC
:1038B00018FCFFFF80B51148018FC1F3011151B110
:1038C000012918BF80BD4FF4E13002F057FABDE87E
:1038D000804004F0A7BE0A490978008FC0F3032096
:1038E000B0FBF1F202FB1100064951F8200002F092
:1038F00045FA0548BDE8804000F0D8BAAC03002086
:1039000024A80008F4A70008FC06002010B500F069
:1039100089FE044600F0A4FE15494FF47A730A8824
:10392000B2F57A7F38BF531C012C0B8002BF0028F0
:10393000032010BD1CB9012804BF052010BD022CB6
:1039400002BF0028042010BD1CB9022804BF0620B5
:1039500010BD012C02BF0128072010BD80F002001D
:1039600084F002010843B0FA80F04009C00010BDA5
:10397000FE03002010B501200021002400F09CF877
:103980004C482021202C08BF10BD01550134F9E717
:10399000B0B5154C0520A047144D30200021A84794
:1039A0000520A04730200021A8470120A047302053
:1039B0000021A8470120A04728200021A847052072
:1039C000A0470B4C28200021A04708200021A04739
:1039D00006200021A0470C200021A0470120002143
:1039E0002246BDE8B0401047512D0008B53B000805
:1039F000B93A0008B0B5032811D8DFE800F0021E7C
:103A00002D3C80200021002400F056F8294D082C80
:103A10004ED0285D012100F04FF80134F7E78020F7
:103A20000021002500F048F8224C102D32D0605DB6
:103A3000012100F041F80135F7E78820002100243A
:103A400000F03AF81B4D082C32D02819007A0121D9
:103A500000F032F80134F6E7C0200021002400F025
:103A60002BF8144D082C23D02819007C012100F0DC
:103A700023F80134F6E7C8200021002400F01CF8E8
:103A80000C4D082C14D02819007E012100F014F8E8
:103A90000134F6E7C0200021002500F00DF8102DBC
:103AA00006D06019007C012100F006F80135F6E728
:103AB000B0BD00BFDA06002080B500F005F80A208E
:103AC000BDE88040FFF75AB92DE9F84F5B4C0E4630
:103AD00005462046202102F00BFE2046082116B1A3
:103AE00002F008FE01E002F003FE314A20461021F8
:103AF0009047534E0A20B04728064FF0180058BF91
:103B000028204FF4805844F8008068064FF01800D1
:103B100058BF28204FF4005944F80090A8064FF0F1
:103B2000180058BF28204FF4804A44F800A0E80647
:103B30004FF0180058BF28204FF4004B44F800B055
:103B40000A201827B0472046202102F0D3FD0A2082
:103B5000B047174A20462021904728074FF0180009
:103B600058BF282044F8008068074FF0180058BF5D
:103B7000282044F80090A8074FF0180058BF2820CC
:103B800044F800A0E8074FF00A0008BF282744F8CF
:103B900007B0B0472046202102F0ACFD0A20B04714
:103BA000034A20462021BDE8F84F10470004004892
:103BB000F166000870B5214C0E46054620462021CE
:103BC00002F096FD2046082116B102F093FD01E0B7
:103BD00002F08EFD2046102102F08AFD184E0A20C8
:103BE000B0471821280658BF28214FF48052625050
:103BF00069064FF0180158BF28214FF40052625057
:103C0000A9064FF0180158BF28214FF48042182010
:103C10006250E90658BF28204FF4004121500A2085
:103C2000B0472046202102F065FD0A20B04720461B
:103C30002021BDE8704002F05BBD00BF00040048D9
:103C40007D2D0008F8B5394C3821204600F0FAF8EF
:103C500030B13648392100F0F5F808B10020F8BD40
:103C6000B4F860109548324BC180B4F86210324A03
:103C70000181B4F86610324E81812568B4F868106D
:103C80001D60C1812B49954284BF2160196025695F
:103C90002A4B95421D6084BF21611960236A294D1A
:103CA0003360AB4282BF216231600B46676A264EA9
:103CB0000135AF42376001D29F4202DB00236362CD
:103CC0003360A56A214B4E1E1D60B54282BF41F292
:103CD0008835A5621D60E36A9446934284BF46F22C
:103CE000A813E362B4F84A30194A642B24BF0423B2
:103CF000A4F84A30236B656B1360164AA66B1560F7
:103D0000154AE76B1660154A1760226C624588BF3A
:103D1000E1620189124AC1F380011170C089114921
:103D2000C0F3810008704FF0FF30F8BD5806002046
:103D300098030020A08601007F9698009C03002035
:103D4000A00300203F420F00A40300203800002001
:103D5000880300208C03002090030020940300209F
:103D600034030020F8030020C9B32DE9F0410446D4
:103D70000020086020460D46FFF7C2FC2046D121F6
:103D8000FFF770FC174F2046B847DFF85C80064607
:103D90002046C047B007286840EA064048BF40F0C8
:103DA0007F4028602046B84706462046C04728681E
:103DB00040EA062028602046B84706462046C0470D
:103DC0002868304328602046B84705462046FFF75C
:103DD000BBFB2046FFF7D0FC2846BDE8F081002061
:103DE000704700BFAD350008E5340008B0B50C469B
:103DF0000546FFF785FC2846D021FFF733FC28460F
:103E00002146FFF72FFC2846BDE8B040FFF7B4BCC1
:103E1000FEE7F0B54FF6FF7300224AF201048A4232
:103E20000ED0855C6B400025072D07D884EA530629
:103E3000DF0708BF5E0801353346F5E70132EEE7DC
:103E400098B2F0BDF0B54FF6FF7300224AF20104BC
:103E50008A420FD030F812506B400025072D07D84A
:103E600084EA5306DF0708BF5E0801353346F5E7ED
:103E70000132EDE798B2F0BD10B50446C07A98B1B2
:103E8000A28A0132A28292B28A420DD900F03F0189
:103E900004F19600E172FFF7BCFF10B92046FEF76F
:103EA000E3FE0020A082E07210BD00000021C1727C
:103EB0008182E64949898172704700BFDC03002096
:103EC000024600209082D37A402B24BFD0727047E4
:103ED000D01880F89610581CD0720846704770476A
:103EE000B0B54EF2C301884202D94FF6D4602FE03C
:103EF000A12802D240F2DC502AE016490022B42365
:103F00001BB214B29C420BDC1C4424F001054D5B37
:103F10006410854202D316D9621CF2E7631EEFE7F4
:103F200031F8132031F81410801A00EB8000891A40
:103F3000400090FBF1F003EB830100EB41004FF6F2
:103F4000D461084404E0044904EB840001EB400020
:103F500000B2B0BDDCB70008D4FEFFFF80B54FF45F
:103F6000A06002F089FD1B2001210122BDE88040F4
:103F700002F056BDB0B540F23D71884202D24FF614
:103F8000300032E048F2FE11884202D941F6C810F2
:103F90002BE0174900224FF457731BB214B29C4216
:103FA0000BDC1C4424F001054D5B6410854202D8F3
:103FB00016D2621CF2E7631EEFE731F8142031F8E5
:103FC0001310801A00EB8000891A400090FBF1F07A
:103FD00004EB840100EB41004FF63001084404E09B
:103FE000044904EB840001EB400000B2B0BD00BF07
:103FF00046B9000830F8FFFF70470000B0B5144C18
:104000000020A047184D014612A0A8470120A04754
:10401000014616A0A8470220A047014618A0A847BD
:104020000320A04701461BA0A8470420A047014643
:104030001DA0A8470520A047014620A0A8470620AC
:10404000A047014622A02A46BDE8B040104700BF65
:104050003D6C000820434B5F5359532020203D20E6
:10406000256C640A000000004399000820434B5F60
:104070004148422020203D20256C640A00000000B9
:1040800020434B5F4150423120203D20256C640A83
:104090000000000020434B5F4150423220203D2071
:1040A000256C640A0000000020434B5F414443201C
:1040B00020203D20256C640A0000000020434B5F57
:1040C0004345432020203D20256C640A0000000069
:1040D00020434B5F5553415254203D20256C640AC8
:1040E00000000000F0B55149514A544B1160514A4B
:1040F0004D481160504AC1601360514A816041606F
:104100000160C1618161416101610362002313604B
:104110004C4A41F2883414604CF250324362C2621D
:10412000494A84621360494A0363D380D4880127D3
:1041300044F00104D480D48824F00204D480D488CC
:1041400024F00404D480B2F806C01381158925F048
:1041500001051581158925F004051581158945F09E
:10416000100525F020051581158925F0C00515815C
:10417000158925F4706505F54075158115899381BC
:10418000968926F001069681968926F00206968188
:10419000968926F004069681968946F0080696814F
:1041A000968946F0400626F0B0069681968967F318
:1041B0001F2696819689D381D48944F00104D48145
:1041C000D48924F00C04D481D48944F0800424F0F0
:1041D0007004D4811E4C436323601E4C8363C3630D
:1041E00001644FF4003123601B4C41644FF4802183
:1041F000816464212360A0F85010A0F860C0D189C8
:104200006FF31F31D181A0F86470A0F86250D1899A
:1042100021F4706101F5A061D181A0F86660D189B7
:10422000A0F86810F0BD00BF58060020A08601006D
:10423000980300209C030020A0030020400D0300F1
:10424000A40300203800002088030020DC030020A5
:104250008C0300209003002094030020F8B5124B3B
:10426000010A0022802A06D003EB420403F8121050
:1042700060700132F6E7002000217F227F230025B5
:1042800000F0F2F82C2000F07BF9074C074E4AF6BC
:10429000AA277F2D88BFF8BD20464FF4807100F01B
:1042A00055F937600135F4E7D407002000300040AD
:1042B00070B5CB4C4FF48051204602F01BFA5B4D99
:1042C0000A20A84720464FF4805102F011FA0A2034
:1042D000A84720464FF4805102F00CFA7820A847F6
:1042E000534E1120B0477820A847B120B047514C19
:1042F0000220A0473520A0473620A047B220B04773
:104300000220A0473520A0473620A047B320B04761
:104310000220A0473520A0473620A0470220A04712
:104320003520A0473620A047B420B0470320A0473F
:10433000C020B047A220A0470220A0478420A04769
:10434000C120B047C520A047C220B0470D20A047DC
:104350000020A047C320B0478D20A0472A20A047B7
:10436000C420B0478D20A047EE20A047C520B0470D
:104370000A20A04736203546B04773480078032806
:1043800006D83849C00021FA00F0C0B200F010F998
:10439000E020A8471220A0471C20A0471020A047DB
:1043A0001820A0473320A0472C20A0472520A04755
:1043B0002820A0472820A0472720A0472F20A0473B
:1043C0003C20A0470020A0470320A0470320A0478F
:1043D0001020A047E120A8471220A0471C20A0479A
:1043E0001020A0471820A0472D20A0472820A04734
:1043F0002320A0472820A0472820A0472620A04708
:104400002F20A0473B20A0470020A0470320A04723
:104410000320A0471020A0473A20A8470520A04726
:1044200029202946BDE87040084700BF2D2D00080F
:1044300081450008B145000810B5434C00F0030069
:104440002070362000F09CF82078032888BF10BD2B
:104450000449C00021FA00F0C0B2BDE8104000F0ED
:10446000A7B800BFA8C86808F8B50646364800785F
:10447000032868D80C461D461746DFE800F0020DF9
:10448000263F2A2000F07CF8F81C8DF80300002756
:10449000F01C8DF8027022E02A2000F071F8B81CA0
:1044A0008DF803000027B01C8DF802708DF8010014
:1044B000684604218DF8007000F048F82B2000F0C9
:1044C0005FF88DF80070032030E02A2000F058F8E3
:1044D000781C00278DF803008DF80270701C8DF891
:1044E0000100684604218DF8007000F02FF82B20A1
:1044F00000F046F88DF80070022017E02A2000F046
:104500003FF8B81C8DF803000027B01C8DF802702E
:104510008DF80100684604218DF8007000F016F84F
:104520002B2000F02DF801208DF8007000218DF86F
:104530000210411920448DF803108DF801006846DF
:10454000042100F003F8F8BDF803002070B5244CF6
:104550000D46064620464FF4005102F0C9F82046A9
:104560004FF4804102F0C6F83046294601F0C0FA07
:1045700020464FF40051BDE8704002F0BBB800BFC8
:10458000B0B5174D044628464FF4005102F0B0F87C
:1045900028464FF4804102F0ABF8204601F020FBA2
:1045A00028464FF40051BDE8B04002F0A3B800BF68
:1045B000B0B50B4D044628464FF4005102F098F870
:1045C00028464FF4804102F095F8204601F008FBA0
:1045D00028464FF40051BDE8B04002F08BB800BF50
:1045E000000400487047000010B50C480C4CC1880E
:1045F000A4F860100189A4F862108189A4F86610FB
:10460000C0893721A4F868002046FFF71BFCA4F8F6
:104610006E00BDE81040FEF783BC00BFDC03002045
:104620005806002080B54FF09040012102F08CF830
:104630000A490B8848B10020632B88BF0120DB08A2
:1046400000227C2B88BF022006E04FF47A72002003
:10465000B3F57A7F38BF5A1C0A8080BDFA03002068
:1046600080B54FF09040022102F06EF80A490B88A5
:1046700048B10020632B88BF0120DB0800227C2B7F
:1046800088BF022006E04FF47A720020B3F57A7FEB
:1046900038BF5A1C0A8080BDFC03002010B5044CB2
:1046A00004A120462022FEF7DDFA3020207310BD41
:1046B000DA0600202055494D657465722056332E68
:1046C00078202020206279204543484F205374757C
:1046D00064696F2000000000F8B5154D154C164FA9
:1046E000284621462022B84705F1200013A12022A8
:1046F000B84730201A4E85F82C0005F135011420FA
:10470000B04705F138010120B04705F13B010A200F
:10471000B04705F1400013A12022B84705F1600021
:10472000214620223B4601B0BDE8F040184700BFBB
:104730003C00002041AF0008652C00082055494D81
:10474000657465722056332E78202020204657202D
:104750007631392E31322E323220202000000000F6
:10476000BD490008206279204543484F20537475A5
:1047700064696F202020202020202020202020205D
:10478000202020200000000010B5B0F1FF3F36DDF2
:10479000834A90423BDC2E224A700A22B0FBF2F39D
:1047A00003EB8304A0EB440444F030044C719CB24E
:1047B000B4FBF2F404EB8404A3EB440343F03003B2
:1047C0000B716423B0FBF3F39CB2B4FBF2F404EB83
:1047D0008404A3EB440343F03003CB704FF47A73AB
:1047E000B0FBF3F3DCB2B4FBF2F404EB8404A3EB10
:1047F000440343F030038B7042F21073BBE04FF080
:104800003030C1F8020042F63060088010BD654AC1
:10481000904238DC2E228A700A22B0FBF2F3B3FBFE
:10482000F2F404EB8404A3EB440343F030034B7134
:104830006423B0FBF3F39CB2B4FBF2F404EB840406
:10484000A3EB440343F030030B714FF47A73B0FBD6
:10485000F3F39CB2B4FBF2F404EB8404A3EB440343
:1048600043F03003CB7042F21073B0FBF3F3DCB2D1
:10487000B4FBF2F404EB8404A3EB440343F03003F1
:104880004B704B4B77E0484A904239DC2E22CA707D
:104890006422B0FBF2F30A22B3FBF2F404EB8404CB
:1048A000A3EB440343F030034B714FF47A73B0FB36
:1048B000F3F39CB2B4FBF2F404EB8404A3EB4403E3
:1048C00043F030030B7142F21073B0FBF3F39CB270
:1048D000B4FBF2F404EB8404A3EB440343F0300391
:1048E0008B70334BB0FBF3F3DCB2B4FBF2F404EBAC
:1048F0008404A3EB440343F030034B702D4B3AE0A8
:104900002A4A904244DC2E220A714FF47A72B0FB9C
:10491000F2F30A22B3FBF2F404EB8404A3EB4403A6
:1049200043F030034B71224BB0FBF3F3B3FBF2F4D3
:1049300004EB8404A3EB440343F030038B7042F296
:104940001073B0FBF3F39CB2B4FBF2F404EB8404F9
:10495000A3EB440343F03003CB70164BB0FBF3F3EF
:10496000DCB2B4FBF2F404EB8404A3EB440343F0A5
:1049700030034B70104BB0FBF3F0C3B2B3FBF2F259
:1049800002EB8202A0EB420040F03000087010BD44
:1049900043F62E1088804FF03930086010BD00BFFC
:1049A0009F8601003F420F007F969800FFE0F505CB
:1049B000A086010040420F008096980010B50A22A0
:1049C00090FBF2F303EB8304A0EB4400303048701B
:1049D00093FBF2F000EB8000A3EB40003030087056
:1049E00010BD0000B0B500283DD4E24A904278DC0A
:1049F0002E228A7020220A230A70B0FBF3F294B2AE
:104A0000B4FBF3F404EB8404A2EB440444F030045C
:104A10004C716424B0FBF4F4A5B2B5FBF3F505EBDF
:104A20008505A4EB450444F030040C714FF47A740E
:104A3000B0FBF4F4E5B2B5FBF3F505EB8505A4EBAB
:104A4000450444F03004CC7042F21074B0FBF4F42E
:104A5000E5B2B5FBF3F303EB8303A4EB430343F0AD
:104A600030034B7018E22D220A70C34A9042C0F204
:104A700080802E228A706FF0090290FBF2F20A23E6
:104A800092FBF3F404EB8404A2EB440230324A714B
:104A90006FF0630290FBF2F292FBF3F404EB8404F8
:104AA000A2EB440230320A71B44A90FBF2F292FB5C
:104AB000F3F404EB8404A2EB44023032CA70B04A2F
:104AC00090FBF2F292FBF3F404EB8404A2EB4402B9
:104AD00030324A7090FBF3F202EB8202C0EB4200EC
:104AE0008EE1A84A90427ADC2E220A238A70B0FB1B
:104AF000F3F2B2FBF3F404EB8404A2EB440444F0BD
:104B000030044C716424B0FBF4F4A5B2B5FBF3F5AA
:104B100005EB8505A4EB450444F030040C714FF41B
:104B20007A74B0FBF4F4A5B2B5FBF3F505EB85059B
:104B3000A4EB450444F03004CC7042F21074B0FB96
:104B4000F4F4E5B2B5FBF3F505EB8505A4EB4504FC
:104B500044F030044C70E74CB0FBF4F4E5B2B5FB24
:104B6000F3F303EB8303A4EB430343F030030B7035
:104B700092E1D54A90427DDB2E22CA706FF063022B
:104B800090FBF2F30A2293FBF2F404EB8404A3EB10
:104B9000440330334B71D34B90FBF3F393FBF2F4AC
:104BA00004EB8404A3EB440330330B71C94B90FB3B
:104BB000F3F393FBF2F404EB8404A3EB44033033EC
:104BC0008B70C54B90FBF3F393FBF2F404EB84047E
:104BD000A3EB440330334B706FF0090308E1C24A82
:104BE00090427DDC2E22CA706422B0FBF2F30A22CE
:104BF000B3FBF2F404EB8404A3EB440343F030036F
:104C00004B714FF47A73B0FBF3F39CB2B4FBF2F444
:104C100004EB8404A3EB440343F030030B7142F232
:104C20001073B0FBF3F39CB2B4FBF2F404EB840416
:104C3000A3EB440343F030038B70E24BB0FBF3F380
:104C4000DCB2B4FBF2F404EB8404A3EB440343F0C2
:104C500030034B70DC4BB0FBF3F3B0FBF2F0DCB293
:104C6000B4FBF2F404EB8404A3EB440343F03003FD
:104C70000B700FE1954A9042C0F286802E220A7195
:104C8000984A90FBF2F30A2293FBF2F404EB8404BB
:104C9000A3EB440330334B718E4B90FBF3F393FB48
:104CA000F2F404EB8404A3EB44033033CB708A4B5F
:104CB00090FBF3F393FBF2F404EB8404A3EB4403C3
:104CC00030338B70854B90FBF3F393FBF2F404EBE2
:104CD0008404A3EB440330334B706FF0630387E02D
:104CE000824A904200F38E802E220A714FF47A722B
:104CF000B0FBF2F30A22B3FBF2F404EB8404A3EB5F
:104D0000440343F030034B71AE4BB0FBF3F3B3FB02
:104D1000F2F404EB8404A3EB440343F030038B7000
:104D200042F21073B0FBF3F39CB2B4FBF2F404EB69
:104D30008404A3EB440343F03003CB70A24BB0FBDD
:104D4000F3F3DCB2B4FBF2F404EB8404A3EB44030E
:104D500043F030034B70694BB0FBF3F3DCB2B4FBB0
:104D6000F2F404EB8404A3EB440343F030030B7030
:104D700064238DE09F8601006179FEFF18FCFFFF30
:104D8000F0D8FFFF3F420F00514A9042C0F28C80A2
:104D90002E224A714F4A90FBF2F30A2293FBF2F45F
:104DA00004EB8404A3EB440330330B714A4B90FBB8
:104DB000F3F393FBF2F404EB8404A3EB44033033EA
:104DC000CB70464B90FBF3F393FBF2F404EB8404BB
:104DD000A3EB440330338B70414B90FBF3F393FB15
:104DE000F2F404EB8404A3EB440330334B703D4BEB
:104DF00090FBF3F090FBF2F202EB8202A0EB420098
:104E000030304FE03A4A904255DC2E224A7142F24D
:104E10001072B0FBF2F30A22B3FBF2F404EB840449
:104E2000A3EB440343F030030B71664BB0FBF3F389
:104E3000B3FBF2F404EB8404A3EB440343F030032C
:104E4000CB70614BB0FBF3F3B3FBF2F404EB8404DF
:104E5000A3EB440343F030038B70274BB0FBF3F319
:104E6000B3FBF2F404EB8404A3EB440343F03003FC
:104E70000B70224BB0FBF3F3DCB2B4FBF2F404EBA7
:104E80008404A3EB440343F030034B704FF47A7374
:104E9000B0FBF3F0B0FBF2F202EB8202A0EB4200B7
:104EA00040F030008871B0BD2E2048714FF039308D
:104EB000C1F8010005E04FF03930086042F6396072
:104EC00088803920EEE700BFC1BDF0FF816967FF30
:104ED000011F0AFAF0D8FFFF6079FEFFC0BDF0FFA6
:104EE000806967FF18FCFFFF7F969800FFE0F505DB
:104EF000FFC99A3BA086010000E1F5058096980065
:104F0000B0B52E228A700028024600D542420A23FC
:104F1000B2FBF3F4002804EB8405A2EB450545F051
:104F20003005CD71B4FBF3F505EB8505A4EB450425
:104F300044F030048C714FF06404B2FBF4F4B4FB21
:104F4000F3F505EB8505A4EB450444F030044C7102
:104F50004FF47A74B2FBF4F4B4FBF3F505EB85057A
:104F6000A4EB450444F030040C7142F21074B2FB1F
:104F7000F4F4B4FBF3F505EB8505A4EB450444F02C
:104F80003004CC70D64CB2FBF4F4B4FBF3F505EB73
:104F90008505A4EB450444F030044C700A4CB2FB88
:104FA000F4F2B2FBF3F303EB8303A2EB430242F010
:104FB00030020A7003D4302A03D1202000E02D20D3
:104FC0000870B0BDA086010040420F0070B500EB34
:104FD000E03282EAE03213B20A2493FBF4F505EBE7
:104FE0008506A2EB460230328A7095FBF4F202EBA2
:104FF0008202A5EB420230324A70642293FBF2F245
:1050000092FBF4F303EB8303A2EB430230320A700A
:1050100000222023022A05D08C5C302C04D18B5432
:105020000132F7E7002303E0D3B2B3FA83F35B095D
:10503000B0F1FF3F04DC1BB988182D2100F8011CDA
:1050400070BDF0B52E23CB7000EBE03383EAE03384
:105050001CB20A2594FBF5F606EB8607A3EB470383
:1050600030330B7196FBF5F303EB8303A6EB43039D
:1050700030338B70642394FBF3F393FBF5F606EB6C
:105080008606A3EB460330334B704FF47A7394FBE0
:10509000F3F393FBF5F404EB8404A3EB440303F173
:1050A0003005002320240D70042B0BD0EDB2302DE1
:1050B00008D13AB1CD186D782E2D03D05E1CCC549A
:1050C0003346F1E7B0F1FF3F05DC18061EBFC818F4
:1050D0002D2100F8011CF0BD70B500EBE03282EA32
:1050E000E03213B20A2493FBF4F505EB8506A2EB3C
:1050F00046023032CA7095FBF4F202EB8202A5EB55
:10510000420230328A70642293FBF2F292FBF4F591
:1051100005EB8505A2EB450230324A704FF47A72F6
:1051200093FBF2F292FBF4F303EB8303A2EB430253
:1051300030320A7000222023032A05D08C5C302CE8
:1051400004D18B540132F7E7002303E0D3B2B3FA62
:1051500083F35B09B0F1FF3F04DC1BB988182D21F4
:1051600000F8011C70BD0028034600D5434270B50D
:105170000A24B3FBF4F505EB8506A3EB460646F0DF
:1051800030060E71B5FBF4F606EB8606A5EB460578
:1051900045F03005CD706425B3FBF5F5B5FBF4F6AD
:1051A00006EB8606A5EB460545F030058D704FF4FD
:1051B0007A75B3FBF5F5B5FBF4F606EB8606A5EBC1
:1051C000460545F030054D7042F21075B3FBF5F31E
:1051D000B3FBF4F404EB8404A3EB440343F0300387
:1051E0000B7000232024042B06D03AB1CD5C302D67
:1051F00004D1CC540133F6E7002203E0DAB2B2FA6C
:1052000082F25209B0F1FF3F04DC1AB9C8182D210F
:1052100000F8011C70BD00000028024600D5424283
:10522000B0B50A23B2FBF3F404EB8405A2EB450509
:1052300045F030054D71B4FBF3F505EB8505A4EBA6
:10524000450444F030040C716424B2FBF4F4B4FB64
:10525000F3F505EB8505A4EB450444F03004CC7070
:105260004FF47A74B2FBF4F4B4FBF3F505EB850567
:10527000A4EB450444F030048C7042F21074B2FB8D
:10528000F4F4B4FBF3F505EB8505A4EB450444F019
:1052900030044C704B4CB2FBF4F2B2FBF3F303EB73
:1052A0008303A2EB430242F030020A700022202363
:1052B000052A05D08C5C302C04D18B540132F7E7E1
:1052C000002303E0D3B2B3FA83F35B09B0F1FF3FED
:1052D00004DC1BB988182D2100F8011CB0BD00BFEB
:1052E000A08601000028024600D54242B0B50A233C
:1052F000B2FBF3F404EB8405A2EB450545F0300561
:105300008D71B4FBF3F505EB8505A4EB450444F082
:1053100030044C716424B2FBF4F4B4FBF3F505EBF8
:105320008505A4EB450444F030040C714FF47A7405
:10533000B2FBF4F4B4FBF3F505EB8505A4EB4504EF
:1053400044F03004CC7042F21074B2FBF4F4B4FBBD
:10535000F3F505EB8505A4EB450444F030048C70AF
:10536000184CB2FBF4F4B4FBF3F505EB8505A4EBA4
:10537000450444F030044C70134CB2FBF4F2B2FB21
:10538000F3F303EB8303A2EB430242F030020A7013
:1053900000222023062A05D08C5C302C04D18B54AB
:1053A0000132F7E7002303E0D3B2B3FA83F35B09DA
:1053B000B0F1FF3F04DC1BB988182D2100F8011C57
:1053C000B0BD00BFA086010040420F0010B51A4BCF
:1053D000020B1C68A25C0A70C0F303221C68A25C6A
:1053E0004A70C0F303121C6800F00F00A25C8A70C0
:1053F0001A68105CC87010BD10B50F4BC0F3035293
:105400001C68A25C0A70C0F303421C68A25C4A706C
:10541000C0F303321C68A25C8A70C0F303221C68CC
:10542000A25CCA70C0F303121B6800F00F009A5C04
:105430000A71185C487110BDBC00002070B50446AC
:10544000774D14202146A8472E26E11C0120A67086
:10545000A847A11D0A206671A847074E08340025F9
:10546000062D08BF70BD36F815002146FFF7AEFFC8
:1054700004340135F4E700BFACF7FF1F10B50AA1F3
:1054800020220446FDF7EEFB974804F10901006D68
:10549000FFF7C2FE8D4804F11B01808F000ABDE8B2
:1054A0001040FFF793BD00BF204C6F67436E743A06
:1054B000202020202020302020496E7465727661E3
:1054C0006C3A20202031732000000000B0B517A1F5
:1054D00020220446FDF7C6FB7C481D49008F0522AB
:1054E000C0F3811080F0020051F82010601CFDF71D
:1054F000B9FB7D4DA11DE869FFF7F4FEB5F90C007D
:1055000004F110010122FFF79CFDB5F9100004F130
:1055100018010122FFF795FD28787F21002808BF98
:105520006FF0200161776175B0BD00BF2054595004
:10553000454B202020202020307556202032302E50
:10554000306F43202032302E306F432000000000A7
:10555000549C0008F8B528A120220446FDF782FBE0
:10556000614D2146286BFFF73DFA686B04F110018D
:10557000FFF738FA554D2949288F294FC0071EBF1C
:105580006D20A071A075286C90FBF1F0642190FB58
:10559000F1F202FB110004F10A0100B2B847286CD5
:1055A0004FF4616190FBF1F0182190FBF1F101EBF8
:1055B0004101A0EBC10000B204F10D01B847286C15
:1055C0003C2690FBF6F090FBF6F1C1EB0111A0EB4D
:1055D000810000B204F11A01B847286C3A4690FBEA
:1055E000F6F1C1EB0111A0EB810000B204F11D0145
:1055F000BDE8F840104700BF20302E303030304139
:10560000682030306430306820302E3030303057F1
:10561000682030306D303073000000008051010090
:10562000BD49000870B51FA120220446FDF71AFBF2
:1056300025492D4DB1F8441005F12C0001318EB2F1
:10564000022E38BF05F1240000682146FFF7CAF991
:105650004120022E38BF5620E071A86A04F11001E3
:10566000FFF7C0F9286C04F10901FFF78DF8686CA9
:1056700004F11901FFF788F81448018FC9071EBF0C
:105680006D21A173A175008FC00707D129786FF034
:105690007F00002908BF6FF00B0000E06B20E0776F
:1056A00070BD00BF20302E303030305620302E30CC
:1056B0003030305720302E303030304120393939B9
:1056C000392E39520000000058060020AC0300209B
:1056D00080B50548416F0131416703F0F7FBBDE834
:1056E000804003F061BF00BF34030020FFF7F0BF2C
:1056F0001648016801F00C021549082A1AD10268FF
:1057000003681B014FF0110358BF0223C2F3834209
:105710001A44836A002B48BF1F320368DB0302D49C
:105720000C49514306E0836A03F00F030133B1FBD8
:10573000F3F15143084A09A311600068C0F3031054
:10574000185C21FA00F01060704700BF041002409E
:1057500000127A0000093D00340000200000000023
:1057600000000000010203040607080952485349DB
:10577000534A0160026041604260C16841F020010B
:10578000C160C16841F04001C1608168C907FCD1B6
:10579000C16821F02001C160C16841F01001C16001
:1057A0008269484912F0060F06D0826902F00602AB
:1057B000022A03D1BB2207E0A52205E0826902F09C
:1057C0000602062A01D1CC220A808269DF2303EA7D
:1057D00012224A808269C2F307428A808269120ECD
:1057E000CA80C269D2B20A81C26992B2120A4A81DF
:1057F000C16821F01001C1603348016841F47001B3
:1058000001603248016841F00101016001688907C7
:10581000FCD541682E4A1140416041682D4A114033
:10582000416001682C4A11400160C16A2B4A114055
:10583000C162016B40F2031291430163016B21F4D9
:1058400080310163016B21F000410163416B21F064
:1058500001014163D0F8C01021F48031C0F8C010BC
:1058600000218160C0F8CC10016841F480310160F2
:1058700040F2FF714A1E03688A4203D213F40031DA
:105880001146F7D00168890310D54168416041682D
:10589000416041684160416821F003014160416815
:1058A00041F00101416041684907FCD54FF00060BB
:1058B0004FF4005101F0EAB804200240230167458B
:1058C000AB89EFCD00F8FF1F88ED00E0001002402B
:1058D0000C00FF08FFFFC277FFFFF2FEF0FFFF3F63
:1058E00070B5044600200D46A4F84601FCF74CFCB8
:1058F0000068405D10F03E0F13D0012084F8445042
:10590000A4F84601B4F84A613F2E00F29980284677
:10591000FCF73EFC711CA4F84A11A11981F8C400DF
:105920008EE0A5F10800082818D8DFE800F005256A
:1059300089252538252589000320A4F8460142F24F
:105940000800A4F84400082084F84600B4F84A018E
:10595000002875D00138A4F84A0171E0032D6FD0FA
:105960001B2D4AD01D2D07D1B4F84C01411C0AB2A1
:10597000012AC8BF411E47E043492809096801229E
:10598000085CA4F8462184F8440005F00F00085C88
:1059900084F84500202084F8460003204EE00220D1
:1059A000A4F8460140F60D20A4F84400B4F84A01DA
:1059B0003F2860D804F1C40100220A544FF0FF30A0
:1059C0002060A4F84A21B4F94C0100EBD07222F017
:1059D0000102801A2B4AA4F84C0102EBC01080226D
:1059E000FCF7EEFBB4F94C01013000EBD07121F073
:1059F0000101401AA4F84C0122E0B4F84C01411E08
:105A00000AB2002A48BF411C1E4D08B2A4F84C112E
:105A100005EBC01104F1C4008022FCF7D1FBFCF7B8
:105A2000DBFBA4F84A01B4F94C01802205EBC0115C
:105A300004F14400FCF7C4FBFCF7CEFBA4F84601DC
:105A4000B4F84601CA4900F03F00A4F84601C988ED
:105A5000C9070ED00025E9B280B2884209D954FAAC
:105A600085F090F8440003F0DDFEB4F846010135FE
:105A7000F1E7FF2070BD0020A4F84A0184F803017B
:105A8000DEE700BF06040020BC000020B0B590B0E7
:105A9000022000F0E9FC4FF400506E4C0890002505
:105AA00040F201100795ADF8180004F10C00CDE9A3
:105AB00004558DF80C500295019001A9022000F0C8
:105AC000FFFC03200F95CDE90D504FF40070CDE998
:105AD0000B504FF440400A904FF48270099009A98E
:105AE000204601F0ADFA204601F09EFA10B0B0BD9C
:105AF000BCB50C4601460020ADF80600022000F0BF
:105B000021FD0220214600F025FD524C00212046B7
:105B100001F082FA022000F09DFC4FF0FF304FF6BA
:105B2000FF75ADF806000220022100F0BDFC60B94F
:105B3000BDF806000138ADF80600BDF806000028E3
:105B4000F1D14548016801310160ADF806502046A9
:105B5000802101F070FA01280CD1BDF8060001384F
:105B6000ADF80600BDF806000028F0D13A480168FB
:105B700001310160022000F063FC2046002101F0A9
:105B800041FA02200221BDE8BC4000F083BC00BF06
:105B900010B5124C022120460222082300F0D9FD44
:105BA000204602210222202300F0D3FD20460021BE
:105BB0000322082300F0F4FD2046002103222023C5
:105BC00000F0EEFD20460021082200F061FD204695
:105BD00000212022BDE8104000F05ABD000400481A
:105BE0007CB5054600201B4CADF806004FF0FF3099
:105BF0004FF6FF76ADF806002046022101F01BFAB1
:105C000060B9BDF806000138ADF80600BDF8060021
:105C10000028F1D110480168013101602046294671
:105C200001F007FAADF806602046802101F003FA82
:105C300001280CD1BDF806000138ADF80600BDF80A
:105C400006000028F0D104480168013101604FF6D8
:105C5000FF707CBD0030014000040020B0B588B06A
:105C6000184C204602F04AFEFF200690E9200490DE
:105C7000002504A920468DF81C50059502F078FEF9
:105C80004FF08070ADF80C5002900F486A460190BA
:105C9000012000902046002102F012FD2046002144
:105CA000002202F024FE20460021702202F004FEB1
:105CB0002046012102F0B4FE204602F053FE08B057
:105CC000B0BD00BF002C01400400020070B50446C6
:105CD0000120FDF715FD01209121FDF7C3FC08B15E
:105CE000022070BD0120FDF761FC05460120FDF793
:105CF000F9FB0120FDF75AFC06460120FDF724FCC4
:105D00000120FDF739FD14B146EA0520208000206E
:105D100070BD0000064A00210C2905D052F8213040
:105D2000834202D90131F7E70C21C8B2704700BFA6
:105D3000F4A700080D480168090703D5416841F040
:105D400008014160016889060BD509498068098905
:105D5000C1F30111012905D019B9C1B20648FEF7F6
:105D6000AFB87047C1B20348FFF7BABD1C38014055
:105D7000DC03002008050020FC060020B0B5144C10
:105D80000546204603F080FD2046294603F056FDD7
:105D90002046002103F0A1FD2046002103F0C5FDAF
:105DA0002046002103F0ADFD2046042103F0A1FDB3
:105DB0002046082103F0B1FD2046052103F083FDB4
:105DC000204603F07BFD034803490160B0BD00BFDE
:105DD000003801401C0300202598000870B5984D3C
:105DE00095F83000122800F22281DFE810F013004D
:105DF00018001D00220027002001200120012001A1
:105E00002C0045006000730083009500A800D600B8
:105E1000E3000C018B48BDE87040FFF703BC8948E4
:105E2000BDE87040FFF796BB8648BDE87040FFF7BD
:105E300025BB8448BDE87040FFF748BB8148BDE8FA
:105E40007040FFF7FBBA7F4CA54920462022FCF7A3
:105E500009FF864D2146686AFEF7C4FDA86A04F171
:105E60001001FEF7BFFD6878C0071ED0686E04F110
:105E70000801FFF745F818E0724C984920462022A7
:105E8000FCF7F0FE794D2146686AFEF7ABFDA86A83
:105E900004F11001FEF7A6FD686E04F10801FFF79A
:105EA0002FF86878C00700F0C280A86E0CE0654C3F
:105EB000894920462022FCF7D5FE6C484078C0076F
:105EC00000F0B5808148406804F11801BDE87040D9
:105ED000FFF716B85B4C7F4920462022FCF7C2FE34
:105EE000624D6878C00715D0E86E04F10801FEF72E
:105EF00079FD0FE0534C764920462022FCF7B2FE94
:105F00005A4D04F10801E86EFEF76CFD6878C00791
:105F100000F08D80286F0CE04A4C63A120462022BF
:105F2000FCF7A0FE51484078C00700F08080674829
:105F3000006804F11801BDE87040FEF753BD414C04
:105F4000684920462022FCF78DFE484E7078C00735
:105F50000CD0288F6449C0F3811080F0020051F802
:105F6000201004F109000522FCF77CFEB6F90C00B4
:105F700004F110010122FFF764F8B6F9100004F1F2
:105F800018010122FFF75DF830787F21002808BF53
:105F90006FF020016177617570BD2A4C0026082ED4
:105FA00045D005EB4600008C2146FFF70FFA04347C
:105FB0000136F4E7234C2EA120462022FCF752FEA6
:105FC000288F3449C0F30110334A012808BF0A461C
:105FD0003249002818BF1146E01D0722FCF742FE97
:105FE000288F10F0300F06D12D4804F10D01B0F9C3
:105FF0006400FEF7EBFF2B480068E98FC1F3031143
:10600000405C207770BD0F4C0FA120462022FCF78A
:1060100029FEA88F4FF4705101EA801004F10A01A3
:106020000122FFF7A0F811484078C00700D170BDE9
:10603000A88F04F11B01000ABDE87040FEF7C6BF3F
:10604000AC030020DA0600204C6F674D61783A20DF
:106050002020203430393620496E74657276616CA8
:106060003A2020202020732000000000340300206C
:1060700020554152543A205445524D202020202092
:10608000204261636B4C696768743A20302020209D
:1060900000000000A4AF000811B00008CDAF000858
:1060A00058060020BC00002055204D696E204D612F
:1060B000782053657475702E536574537465703A07
:1060C0002020202020202056000000000800002072
:1060D0001FB0000840B0000862AF000883AF00089E
:1060E000D5AF0008ACAF0008549C0008F8B5724E5C
:1060F00096F83000072816D006286BD0052840F007
:10610000DA806E4C2046FFF78DFA04F12000FFF78D
:1061100021FA04F14000FFF7D9F904F16000BDE86D
:10612000F840FFF7ABB9654C6E4D65A120462022C3
:10613000A8476D4F04F10801F86EFEF753FC386F65
:1061400004F11801FEF74EFC04F1200067A12022A3
:10615000A847786E04F12801FEF7D2FEB86E04F16C
:106160003801FEF7CDFE04F1400069A12022A847C6
:10617000308F7049C0F301106F4A012808BF0A46EA
:106180006E49002818BF114604F145000322A847B4
:106190006B4804F14D01B0F96400FEF717FFB08FB2
:1061A0004FF4705101EA801004F15501FEF794FF9D
:1061B000F08F64480068017884F85E10F18FC1F3B5
:1061C0000311405C84F85F0004F16000BDE8F84012
:1061D000FFF734B95C4C5DA120460822FCF742FD74
:1061E0005749414FB1F8441007F12C0001318DB2ED
:1061F000022D38BF07F1240000682146FEF7F2FBAC
:106200004120022D38BF562004F10805E07152A14B
:1062100028460822FCF726FDB86A2946FEF7E2FB6D
:10622000308F04F11005C0071CBF6D20A0734DA175
:1062300028460822FCF716FD386B2946FEF7D2FBEC
:10624000308F04F11805C0071CBF6D20607546F63D
:1062500041004749E08228460822FCF703FD306CE4
:106260004FF4616190FBF1F0642190FBF1F2414F3A
:1062700002FB1100294600B2B847306C3C2590FB68
:10628000F5F090FBF5F1C1EB0111A0EB810000B23C
:1062900004F11B01B847306C90FBF5F1C1EB011123
:1062A000A0EB810000B204F11E01B847207E302827
:1062B00004BF20202076F8BDAC0300203C00002065
:1062C00055204D61783A202032302E303030305613
:1062D00055204D696E3A202020302E303030305617
:1062E00000000000652C00083403002055204164A4
:1062F0006A3A202020312E3030303030492041643D
:106300006A3A202020312E3030303030000000003A
:10631000554152543A202020204144523A20202016
:106320004C4F474D3A2020202020424C3A2020203C
:1063300000000000A4AF000811B00008CDAF0008B5
:1063400058060020BC0000201200002020302E3013
:10635000303030560000000020302E3030303041D8
:106360000000000020302E30303041680000000076
:10637000FCAF0008BD4900080B4A1849127802F02A
:10638000030201F11000DFE802F00205080A01F142
:106390001C0004E001F1180001E001F114001049B3
:1063A000896E0160704700BFFA0600200A48007835
:1063B00000F003010948DFE801F00205080A074878
:1063C0000C3004E00548083001E00448043004497A
:1063D000496E0160704700BFFB0600205806002090
:1063E00034030020FEE7000080B540F6354005216B
:1063F00000F028F9A4484CF6CC41016080BD00BFF4
:106400000D48BFF34F8F0D4A016801F4E06111435D
:106410000160BFF34F8F00BFFDE700BF0648BFF329
:106420004F8F064A016801F4E06111430160BFF338
:106430004F8F00BFFDE700BF0CED00E00400FA0540
:106440003F4900EB800051F8202022F0010241F882
:10645000202070473A4900EB800051F8202042F09C
:10646000010241F8202070470E4A00EB800102EB48
:1064700081014B68800023F001034B6000234B60D7
:106480008B60CB600B610F2101FA00F011680843AB
:1064900010607047800001FA00F002490A6810435A
:1064A0000860704704000240800001FA00F00349D0
:1064B0000968084018BF0120704700BF0000024073
:1064C00070B51F4A00EB800052F8203023F0010322
:1064D00042F820300C6802EB80039C60CC68DC60E2
:1064E0000C8B5C6052F820304C6823F47C530D69AF
:1064F000CE6923432B43334342F8203052F82030F7
:106500000D7A23F040040E7D012D08BF43F04004B6
:1065100042F8204052F82030012E23F0800408BFBA
:1065200043F0800442F8204052F82030497D43F087
:106530001004002908BF23F0100442F8204070BD69
:1065400008000240024A00EB800042F82010704729
:1065500014000240034A00EB800089B242F8201088
:10656000704700BF0C0002403548016841F08001CF
:1065700001607047B0B504464FF4702000F016F883
:1065800000B1B0BD2E4D286840F0020028606C605C
:10659000286840F0400028604FF4702000F006F8B2
:1065A000296821F002012960B0BD00BF70B5441E0A
:1065B0000025013C45F1000600F008F8012801D152
:1065C000002EF6D1012808BF042070BD07480168DD
:1065D000C9071CBF012070470168C9064FBF0320CF
:1065E0000068022101EA5000704700BF0C20024001
:1065F0000448C168090603D50349016003490160E5
:10660000704700BF0420024023016745AB89EFCDEE
:1066100070B505464FF470200C46FFF7C7FF00B178
:1066200070BD074E306840F0010030604FF47020BC
:106630002C60FFF7BBFF316821F00101316070BDB4
:1066400010200240B0B5F34A45F2555313600F4B8A
:106650001C46D56805F0010514B10134002DF8D1B0
:1066600045B95160D16801F0020113B1013300292D
:10667000F8D109B10020B0BD6FF31F3090604AF629
:10668000AA2010600120B0BD003000400200F0FFE1
:10669000F0B5D0F820E0446A00254FF00F0C002739
:1066A000082F0ED022FA07F6F60707D00CFA05F3EA
:1066B00001FA05F62EEA030343EA060E0435013714
:1066C000EEE7082500264FF00F0C102D0CD022FA13
:1066D00005F3DB0705D00CFA06F701FA06F3BC4315
:1066E0001C4304360135F0E7C0F820E04462F0BDF9
:1066F00081627047816170471823002A08BF2823F0
:106700001950704710B500F138404FEAB020052805
:106710000FD840F61124DFE800F00F0306090C0D36
:1067200040F6122408E040F6132405E040F6142455
:1067300002E010BD40F61624204600F061FB204622
:10674000BDE8104000F050BB0069084018BF0120B0
:1067500070472DE9F043D0F800E0D0F80C80002617
:106760004FF0030C0027102F14D023FA07F4E4078E
:106770000DD00CFA06F502FA06F928EA050444EAF7
:10678000090801FA06F42EEA050545EA040E023668
:106790000137E8E7C0F800E0C0F80C80BDE8F083FE
:1067A000F0B50129416814BF9943194341608168DC
:1067B0004FF6FF74A24212D1C26B002401254FF0A4
:1067C000030C0027102F1DD005FA07F61E421EBF2E
:1067D00032430CFA04F6314302340137F2E7002465
:1067E0004FF0030C0026102E0FD023FA06F7FF07F8
:1067F00005D00CFA04F502FA04F7A9433943023430
:106800000136F0E78160C263F0BD8160F0BD000039
:106810000348006810F0060018BF4FF0FF307047C3
:106820001C200240FCF78CF9FCF7D2FBFCF730FB94
:10683000FCF756FBFDF706FA18B9FDF753FCFDF718
:10684000D3FEFDF78BFBFFF709FAFFF7CDFD6E488E
:106850004FF47A710068B0FBF1F00138B0F1807F3D
:1068600000D3FEE76949F0224860694802700020C1
:106870008860072008604FF090400121FFF764FF17
:1068800028B94FF090400221FFF75EFF50B34FF060
:1068900090400121FFF758FF70B94FF0904002215E
:1068A000FFF752FF012807D1854800210170854874
:1068B000018F21F0040113E04FF090400121FFF718
:1068C00043FF012812D14FF090400221FFF73CFF17
:1068D00060B97B48012101707A48018F41F00401C1
:1068E000018701E0FDF7FEFBFDF77EFE744D494C8C
:1068F000287880B3FFF74CF9FFF7C8F8FDF7D8FC0C
:106900004AF6AA2020600020FDF7A8FC6D4EF08F0B
:10691000C0F3032086F8300096F83000072803D82B
:1069200096F83000042802D8052086F83000F08F51
:106930003949C0F30310085C002180F0FF0204F520
:106940007C4001F0D4FFF08FC00732D0FDF7C4FEC9
:10695000FCF726FD26E0FDF71BF8FDF70BF8594E76
:106960002D49F08F000B86F8300096F8300005288E
:1069700024BF002086F83000F08FC0F30310085CBD
:10698000002180F0FF0204F57C4001F0B0FFF08FA1
:10699000C0070ED00520FCF7C9F9FDF77FFE0520E2
:1069A000FDF728F84FF47A70FCF7C0F94AF6AA20F0
:1069B00020601A48FCF714F918B14AF6AA202060A2
:1069C000FDE7FCF777FF3F48808FC0071CBF4FF003
:1069D000FF30E8644AF6AA2502F0D6FC02F000F97E
:1069E00002F092F802F090FE02F0F2FE02F042FA9B
:1069F00002F0AEFC02F068F902F01CF802F0C2F9F5
:106A00002560FCF7DBFAE7E73400002010E000E047
:106A100023ED00E0003000401EAF0008ACF7FF1F80
:106A200010B5194B1C6804F4E064A4F54074B4F587
:106A3000A06F03D2230AC3F1040403E00C4C1C60D2
:106A40000223022499400F23E3401A401143094ACC
:106A5000090140EA020383F800131C2101EAD00176
:106A600000F01F00012303FA00F0885010BD00BFA2
:106A70000005FA0500E100E0024908430249086008
:106A8000704700BF0000FA050CED00E0024A11401B
:106A9000084302490860704780FFFF1F08ED00E0CF
:106AA0000749084B8A7843F82200501C00F0030085
:106AB00088700FCB0844104418448010704700BF02
:106AC00034030020AC0300202DE9F84F384C39493D
:106AD000394B204632229847384F04F1060938686E
:106AE000DFF8DCB04946D847786804F10E0A514611
:106AF000D847B86804F116052946D847F86804F164
:106B00001E084146D847B7F8460004F126062D4B2B
:106B10003146012298472C49204688472B49264B6D
:106B200020463222984738694946D8477869514605
:106B3000D847B8692946D847F8694146D847B7F8D1
:106B40004800204B3146012298471F49204688477C
:106B5000194E1FA120463C22B0472A482A4D006802
:106B60004946A847294804F114010068A847284865
:106B700004F122010068A847B7F84A00114D04F15A
:106B80002A010122A84710492046884721A1204612
:106B90002A22B047B7F8440004F112010122A847A5
:106BA000386C4146D84708492046BDE8F84F0847A9
:106BB000D40B0020C4B40008652C0008580600203F
:106BC000014F0008675100088D99000897B400082C
:106BD00020556D61783D32302E30303030562055A2
:106BE0006D696E3D30302E3030303056205568792A
:106BF000733D30302E353030305631323334350A33
:106C000000000000A0030020E5490008A4030020C4
:106C1000380000202037356D56205348554E5420FB
:106C200052616E67653D31323334354120476169C9
:106C30006E3D30312E30303030300A00F0B5544BDC
:106C400002461868534E00F00C000828354627D13C
:106C50001868C0F3834518689C6A000104D4A81C16
:106C60000F2D08BF102001E005F11100002C48BFD6
:106C70001F301C68996AE40303D4484900FB01F5FE
:106C80000EE09C6A490004F00F0404F1010402D4F0
:106C9000B6FBF4F102E04049B1FBF4F101FB00F571
:106CA0001868B446C0F3031019681C68062AC4F3B8
:106CB000C227C1F302260FD839A1085C3C4925FA46
:106CC00000F4C85D24FA00F0DFE802F004080A3A94
:106CD0000E1A22002846F0BD0020F0BD2046F0BD6F
:106CE000885D24FA00F0F0BDD96AC90529D4D86AB4
:106CF000C00330485CBF49F68070C0F2D500F0BDDB
:106D0000D86A40064FF4004058BF48F21200F0BD68
:106D1000D96A890714D0D86A00F0030001282846F0
:106D20000ED0D86A00F00300022804BF4FF40040E0
:106D3000F0BDD86A00F003000328604618BF0020A9
:106D4000F0BD1A68D96AC2F38132C90FDFE802F0D8
:106D50000209101500290EBF40080320B4FBF0F013
:106D6000F0BD00290EBF80080520B4FBF0F0F0BD97
:106D700051B10720B4FBF0F0F0BD00290EBFC008F0
:106D80000920B4FBF0F0F0BD0621B0FBF1F0F0BD3E
:106D90000410024000127A00006CDC0200093D0081
:106DA00000000000000000000102030406070809BB
:106DB00025A80008003FAB0100F01F01012202FAE4
:106DC00001F1154A8009835819438150704700BF6B
:106DD00000F01F01012202FA01F10F4A80098358D5
:106DE00019438150704700BF00F01F01012202FAD1
:106DF00001F1094A8009835823EA01018150704753
:106E000000F01F01012202FA01F1034A80098358B0
:106E100019438150704700BF0010024004490A68BE
:106E200022F003020A600A6810430860704700BF3E
:106E30003010024070B56C4B9A69900315D43348FA
:106E4000017801F00304DFE804F002243343674CC7
:106E5000674EE569B5429D6602D9664DE5619D665E
:106E60004FF69A739A422FDD4EE06048604A0169FE
:106E70009142996602D95F49016199662348017878
:106E800041F0030101705D48818E41F440418186EB
:106E900070BD564C564EA569B5429D6602D9554DFA
:106EA000A5619D66564B9A421FDD01F0FC012AE068
:106EB0004E4C4F4E6569B5429D6602D94D4D656198
:106EC0009D664F4B9A4218DD01F0FC0101311AE03A
:106ED000464C474E2569B5429D6602D9454D256110
:106EE0009D66474B9A4204DC0EE04FF69A739A4235
:106EF0000ADC01F0FC01023105E04FF69A739A4278
:106F000002DC41F00301017070BD00BFFA060020F1
:106F100070B5354B5A69900315D43748017801F0A4
:106F20000304DFE804F002243343304C304EE568BC
:106F3000B5425D6602D92F4DE5605D664FF69A73E6
:106F40009A422FDD4EE02948294A0168914259664C
:106F500002D92849016059662748017841F00301A8
:106F600001702648818E41F44051818670BD1F4CCE
:106F70001F4EA568B5425D6602D91E4DA5605D66CF
:106F80001F4B9A421FDD01F0FC012AE0174C184EFE
:106F90006568B5425D6602D9164D65605D66184B41
:106FA0009A4218DD01F0FC0101311AE00F4C104E3D
:106FB0002568B5425D6602D90E4D25605D66104BB1
:106FC0009A4204DC0EE04FF69A739A420ADC01F012
:106FD000FC01023105E04FF69A739A4202DC41F05F
:106FE0000301017070BD00BF34030020580600206B
:106FF0007F969800A0860100FB060020AC030020CD
:107000009BFF01006FF00102002908BF6FF0020230
:1070100041681140416070470122002908BF0222E7
:107020004168114341607047016841F040010160CF
:107030007047C16070478068084018BF01207047E2
:10704000F0B5026891E8F81002F441521A43224365
:107050002A43324389693A4342EA0C0211430160F0
:10706000C16921F40061C161F0BD00000548002143
:1070700001600548016005480160054801608F48CE
:1070800001617047700300206C030020640300203E
:10709000680300202DE9F04385B0854D6C68ACB1E4
:1070A00084A12046FBF77AF8D0B3A86840B100214C
:1070B0000A22FBF7BBF88149CA8860F30002CA8044
:1070C0007E48C08800F001017DA083E09A4802F06C
:1070D0005DFC7A4D8F48B5F80680B5F80E90EF89C3
:1070E000EE884FF40071FFF72FFB04464FF09040FD
:1070F0000421FFF729FB2969CDE903010020CDE92F
:107100000140C6F34000009008F00101C9F30312EA
:10711000C7F3810389A002F014FC05B0BDE8F08339
:107120006AA12046FBF73AF8E8B1A868A8B10021A7
:107130001022FBF77BF86149CA8922F0F00260F364
:107140000712CA81C8896349C0F30310085C002193
:1071500080F0FF02604801F0CAFB5848C089C0F3C4
:1071600003115EA036E060A12046FBF717F8D0B10E
:10717000A86890B100210A22FBF758F84F49CA8944
:1071800022F00C0260F383025848CA81007820B1D3
:10719000C889C0F38100FDF74FF94848C089C0F3A2
:1071A000810153A016E055A12046FAF7F7FFB0B1D0
:1071B000A86850B100210A22FBF738F83F49CA8875
:1071C00022F0020260F34102CA803C48C088C0F34A
:1071D00040014CA005B0BDE8F04302F0B2BB4CA1A9
:1071E0002046FAF7DBFFA0B13448C08880072DD5D0
:1071F000A86800283FF491AF00210A22FBF716F897
:1072000050B344484FF4007105B0BDE8F043FFF7B8
:1072100071BA42A12046FAF7C1FF70B12748C08871
:10722000800713D5A86800283FF477AF00210A2211
:1072300005B0BDE8F043FAF7F9BF39A12046FAF7E7
:10724000ADFF88B11D48C08880071ED4324805B004
:10725000BDE8F04302F09ABB2E484FF4007105B030
:10726000BDE8F043FFF744BA2EA12046FAF796FF97
:10727000C0B1A86828B100210A22FAF7D7FF0F4948
:1072800008610E48016929A0A4E7A86800283FF416
:1072900044AF00210A22FAF7C9FF28B14FF090400D
:1072A0000421B1E72448D2E74FF090400421D6E70B
:1072B000200300206563686F00000000DC030020ED
:1072C000204543484F3D25640A000000626B6C7402
:1072D000000000001EAF0008002C014020424B4C73
:1072E000543D25580A0000006469720034030020F0
:1072F000204449523D25640A0000000074657374FF
:107300000000000020544553543D25640A0000004D
:107310006C65640000040048BDB000086F70740024
:107320006D6F730074696D65000000002054494D55
:10733000453D256C640000009BB200082045434891
:107340004F3D256420424B4C543D25582044495222
:107350003D256420544553543D2564204C45443D0F
:107360002564204F50543D2564204D4F533D2564E6
:107370002054494D453D256C640A00002DE9FC4729
:107380003D4E00207468ADF80600002C6FD03BA184
:107390002046FAF703FFA8B3B06800286AD000219E
:1073A00010220024FAF77AFF0546F06820B1002188
:1073B0001022FAF773FF84B2EDB2A4F108000026A0
:1073C0000FF2C4080DF106090FF2C80A382888BF69
:1073D0004024B0B2844213D92F183E2F10D8400752
:1073E00003D14046394602F0ACFAB8B24946FBF741
:1073F00091FDBDF80610504602F0A3FA0136E8E709
:10740000204835E025A12046FAF7C8FEE8B1B0686B
:1074100080B3F16871B300211022FAF73FFF0446F0
:10742000F06800211022FAF739FFE4B285B2204655
:107430002946FBF7BBFD1BA0294602F082FA1E4835
:10744000214602F07EFABDE8FC871C492046FAF787
:10745000A5FE18B1FBF744FD19A009E01F4920461D
:10746000FAF79CFE18B1FBF75BFD1DA000E0224877
:1074700002F08CFABDE8FC8720030020726561648D
:10748000000000008BB600080A3078253034582000
:107490002000000025303458200000007772697405
:1074A00065000000207772697465203078253034DB
:1074B0005820746F0000000070B000089AB60008F1
:1074C0004C6F61642066726F6D20496E742E20458A
:1074D0004550524F4D2E2E2E0A000000AFB6000828
:1074E0005361766520746F20496E742E2045455097
:1074F000524F4D2E2E2E0A000BB100082DE9F84FE9
:10750000254D6868002844D0002110220024FAF795
:10751000C5FE4FF6FF76B04238BF0646A86868B190
:1075200000211022FAF7BAFE6FF0FE01C7B251FA3D
:1075300080F0B0FA80F04409072F00D88027DFF8E8
:107540006C9E00250FF258080DF1020B0FF25C0A39
:10755000002C18BFFF27E8B2874217D9341800075C
:1075600003D14046214602F0ECF9A0B2594601226F
:10757000FBF71AFC18B1504602F008FA04E09DF837
:107580000210484602F0DDF90135E4E7034802F055
:10759000FDF9BDE8F88F00BF200300208BB600087E
:1075A0000A3078253034582000000000464620007C
:1075B0007CB5144D6868D8B1002110220026FAF776
:1075C0006DFEB6EB104F13D10446A86880B10021C0
:1075D0001022FAF763FE05468DF80300A0B20DF104
:1075E00003010122FBF71EFC18B107A002F0CEF93F
:1075F0007CBD09A0294602F0A4F90C48214602F0FE
:10760000A0F97CBD2003002020493243204572723E
:107610006F72210A000000002077726974652030C3
:10762000782530325820746F0000000070B00008D8
:107630002DE9F047524C53A120463222FBF712FBB2
:107640005D484FF0010A007804F10F0600F00300D6
:107650000AFA00F040F030002072584831460068C5
:10766000FDF7CAFE564804F1160800684146FDF7CA
:10767000B9F9544804F11F0700683946FDF784F84A
:10768000514804F1260500682946FDF72BFEDFF876
:107690003C91B9F80800C0071CBF6D2084F8240095
:1076A000204602F073F94AA120463222FBF7DAFAAB
:1076B00054483146007800F003000AFA00F040F028
:1076C0003000207250480068FDF796FE4F48414652
:1076D0000068FDF787F94E4839460068FDF754F811
:1076E0004C4829460068FDF7FDFDB9F80800C007C1
:1076F00004D06B2084F825006D202077204602F00E
:1077000045F9454920462822FBF7ACFA434804F1E5
:107710000A010088FDF75AFE41483146B0F90000E1
:107720000122FDF78EFC3F4804F11701B0F900007B
:107730000122FDF786FC204602F028F93AA12046F6
:107740002822FBF78FFA4048E11C0068FDF74AF950
:107750003E4804F10D010068FDF744F9D9F8100026
:107760004146FDF7BFFDB9F80800C0071EBF6D20F8
:10777000E07460720248BDE8F04702F007B900BF4C
:10778000D40B002020553A205047413D3820414439
:107790003D30783030433037432020342E39303874
:1077A000315620302E3030303057202039363233A9
:1077B0003875560A00000000FB0600204803002030
:1077C000580300207403002050030020DC03002035
:1077D00020493A205047413D382041443D307830DF
:1077E00030303030302020302E30303030412039B1
:1077F0003939392E39522020202020203075560A60
:1078000000000000FA0600204C0300205C0300206A
:10781000780300205403002019B500083A03002023
:10782000400300204403002020503A20302E303006
:10783000303041682020302E3030303057682020E2
:107840002020202034730A006403002068030020F5
:1078500070B5074E002507A4842D08BF70BD7019B0
:1078600071594268204602F06CF80C35F4E700BF0D
:107870001CB70008202573202D3E20257300000032
:107880002DE9F04186B0A14D6C68B4B1A0A12046AD
:10789000FAF784FC002843D0A86840B100210A22EE
:1078A000FAF7C4FC9C490A8960F300020A819A48ED
:1078B000008900F0010199A061E0CB4802F066F870
:1078C000954FB7F808803D89FE883C893889C0F318
:1078D0008110FBF7F3FDAA4909783A893B89A24F49
:1078E000B7F86470C2F303220392CDE90107C4F331
:1078F00081100090C3F30320B0FBF1F202FB1100F2
:10790000A04951F8200008F001010490B748C5F3E0
:107910008002C6F3800302F014F806B0BDE8F081DF
:1079200081A12046FAF73AFC90B1A86850B1002135
:107930000A22FAF77BFC78490A8922F0040260F3F4
:1079400082020A8174480089C0F3800177A016E0A2
:1079500079A12046FAF722FCB0B1A86850B1002105
:107960000A22FAF763FC6C49CA8822F0040260F329
:107970008202CA806848C088C0F340016FA006B088
:10798000BDE8F04101F0DDBF6FA12046FAF706FC2B
:1079900018B3A86880B100210A22FAF747FC032136
:1079A00090FBF1F101EB4101401A5B490A8922F099
:1079B000C00260F387120A8157480189C1F381141C
:1079C0000089C0F38110FBF779FD024660A02146D3
:1079D00006B0BDE8F04101F0B4BF61A12046FAF75E
:1079E000DDFB88B1A868B8B300210A22FAF71EFCB3
:1079F000C0B20028014608BF0121F7285A4888BFB5
:107A0000F721A0F864102AE05BA12046FAF7C6FB34
:107A100038B3A86870B100210A22FAF707FCFEF714
:107A200079F93D4900F00F000A8922F4706242EAB8
:107A3000002008813848524A018912780089C0F331
:107A40000320B0FBF2F303FB12004E4A52F8202051
:107A5000C1F303214CA0BBE74348B0F8641043A036
:107A60008DE74DA12046FAF799FBC0B1A86818B37D
:107A700000210A22FAF7DAFBC11700EB517121F05D
:107A80000701401A04281FD82349CA896FF31F32FF
:107A900042EA0030C881C889010B4D486FE74EA10A
:107AA0002046FAF77BFB00B31B48C1880289838913
:107AB000C08900904A482EE71748C189C089090B40
:107AC000C0F30322434883E70528FFF626AF124997
:107AD00000F00F00CA8922F4706242EA0020C881D7
