:020000040800F2
:10200000E810002065210008873F0008853500089A
:10201000B93E00083D2B00081166000800000000D2
:1020200000000000000000000000000085470008DC
:10203000912D000800000000A14000087D58000814
:102040007F2100087F2100087F2100087F210008F0
:102050007F2100087F2100087F2100087F210008E0
:102060007F2100087F2100087F2100087F210008D0
:102070007F2100087F2100087F2100087F210008C0
:102080007F2100087F210008000000007F21000858
:102090007F2100087F2100087F2100087F210008A0
:1020A0007F2100087F2100087F210008C55E00080D
:1020B0007F210008000000007F21000800000000D0
:1020C0007F210008000000007F21000800000000C0
:1020D0000000000000000000000000000000000000
:1020E00000000000000000007F2100080000000048
:1020F00000000000000000000000000000000000E0
:102100007F21000800000000000000000000000027
:1021100000000000000000000000000000000000BF
:1021200000000000000000000000000000000000AF
:10213000000000000000000000000000000000009F
:102140000000000000000000000000007F210008E7
:10215000DFF80CD000F0D6FB00480047516A0008B9
:10216000E81000200648804706480047FEE7FEE7E3
:10217000FEE7FEE7FEE7FEE7FEE7FEE7FEE7FEE737
:10218000FD5800085121000800487047949F00083E
:10219000A0F14101192900D82030704730B505461B
:1021A0002A460B4612F8010B13F8014B08B1A04266
:1021B000F8D01CB1002802D06D1CF1E7284630BDD4
:1021C00010B5044604E00B7800F8013B03B1491C4C
:1021D000521EF8D2204610BD421C10F8011B0029E7
:1021E000FBD1801A7047000070B50F4D00B9286808
:1021F000002412E00A4602E09E4203D0521C1378EB
:10220000002BF9D1DAB2224305D02BB124B1002141
:1022100000F8011B04E00446401C0678002EE9D1BA
:102220002860204670BD0000000000202DE9F04726
:1022300091460F4680460446002614F8015B2DB1F6
:10224000FFF7A2FF0068405DC007F6D12B2D02D03A
:102250002D2D18D0641E4A463946204600F06FFAEC
:1022600027B13968A14201D1C7F8008071054FF04C
:1022700002040BD54042002803DD07F037FE04605E
:10228000A007BDE8F08746F48066E4E70028F8DAA6
:1022900007F02CFE04606FF00040F2E72DE9F05FDC
:1022A00093460F4680460446002607F01FFED0F8EE
:1022B0000090824614F8015B2DB1FFF765FF0068BE
:1022C000405DC007F6D12B2D02D02D2D1AD0641EF3
:1022D0000021CAF800105A463946204600F02FFA6D
:1022E000014627B13868A04201D1C7F80080DAF86A
:1022F0000000022809D0CAF80090700505D54842B0
:10230000BDE8F09F46F48066E2E70846F8E72DE96D
:10231000FE4F804681EA0300C00F0C46009021F07A
:10232000004123F00045B8EB0200A94105D2404628
:10233000214690461C460B46024623F000401043BF
:1023400047D0270DC7F30A00C3F30A510290401A81
:10235000019040286BDAC3F3130040F4801B00980F
:10236000924620B10023D2EB030A63EB0B0B0198DA
:102370005946C0F14002504600F0B0F906460D46FD
:1023800050465946019A00F0C8F910EB0800614127
:10239000002487EA115284EAE7731A4340D0009A76
:1023A00062B3019A012A4FEA075215DC001B61EB68
:1023B00002014FF0004202EA0752CDE90042001C40
:1023C00041F5801132462B4600F04EFA03B0BDE8CD
:1023D000F08F40462146F9E7001B61EB0201001C2B
:1023E00041F5801300185B412018A2F5001747EB58
:1023F000030140EAD570B6196D4111E06D084FEA4E
:10240000360645EAC0754FEA0752001B61EB020130
:10241000001C41F5801149084FEA30000019514174
:1024200032462B4603B0BDE8F04F00F00EBA0098DC
:10243000012240000023D0EB020263EBE07300981E
:1024400021464FEAE074B8EB000061EB0401E9E7D4
:1024500083F000435BE781F0004158E72DE9FE4F30
:1024600081EA030404F0004421F0004100944FF09D
:10247000000B23F0004350EA01045ED052EA03044B
:102480005BD0C3F30A54C1F30A552C44A4F2F334CD
:102490000194A0FB0254C1F3130141F48011C3F372
:1024A000130343F4801301FB024400FB034E840A30
:1024B000970A44EA815447EA8357A4FB07680295C8
:1024C0008D0A05FB07854FEA932C04FB0C54270566
:1024D000029D4FEA065847EA1637B5EB08056EEB42
:1024E000070C870E920E47EA811742EA8312A7FB78
:1024F0000201B6EB0B0164EB00042B0D43EA0C3335
:102500005E1844EB1C50DA465146E7FB0201C5F366
:1025100013044FEA0B3343EA14534FEA0432019C8D
:1025200043EA0603A4F10C040294009CCDE900B434
:1025300000F09AF903B0BDE8F08F00200146F9E7FA
:102540002DE9F04D81EA030404F0004B21F0004531
:1025500014464FF0000A23F0004150EA050220D053
:1025600054EA01021DD0C5F30A570246C5F313030E
:10257000C1F31300C1F30A5640F4801543F48013ED
:10258000A7EB0608101BD64608F2FD3873EB0500D2
:1025900002D308F1010801E092185B41B8F1000F85
:1025A00003DA00200146BDE8F08D00204FF48011D1
:1025B000064684460EE0171B73EB050705D3121B76
:1025C00063EB050306434CEA010C49084FEA30006F
:1025D00092185B4150EA0107EDD152EA030012D094
:1025E00082EA040083EA0501084305D0101BAB41D1
:1025F00006D20122002306E000224FF0004302E051
:102600006FF0010253101AEB06004CEB085110EB6F
:102610000A0041EB0B01BDE8F04D00F016B90EB514
:10262000C10F80EAE0700844CA07002140F233433A
:102630008DE80E000A460B4600F016F903B000BD07
:1026400070B5C1F30A5201F000450024C1F3130133
:1026500040F2FF3341F480119A4201DA002070BD4C
:1026600040F233439A42A2F2334203DC524200F07A
:1026700044F800E090402C43F1D0404270BD00F09F
:10268000004230F000400AD0C10D01F56071C0F386
:10269000160042EA0151C20840071143704700206A
:1026A0000146704701F0004330B421F0004150EA88
:1026B000010206D00A0DA2F56072C1F31301002ACF
:1026C00002DC30BC00207047440F44EAC104C10062
:1026D000E01830BC00EBC25000F080B8202A04DBC8
:1026E000203A00FA02F1002070479140C2F1200325
:1026F00020FA03F3194390407047202A04DB203A64
:1027000021FA02F00021704721FA02F3D040C2F111
:1027100020029140084319467047202A06DBCB1758
:10272000203A41FA02F043EAE07306E041FA02F38C
:10273000D040C2F1200291400843194670472DE96C
:10274000F05F82460078002715468B460AF10104A7
:10275000B946302801D09DB113E014F8010B0127D0
:10276000782803D0582801D045B10AE00DB1102DCA
:1027700007D10027102514F8010B02E0082500E01E
:102780000A250026B0460EE005FB080005FB06F111
:10279000012701EB10461FFA80F8B6F5803F00D301
:1027A000B94614F8010B294600F0BEF80028EBDA10
:1027B000BBF1000F05D00FB1641E00E05446CBF80A
:1027C0000040B9F1000F06D007F090FB0221016034
:1027D000C81EBDE8F09F48EA0640FAE70029A8BFF6
:1027E0007047401C490008BF20F00100704710B43A
:1027F000B0FA80FC00FA0CF050EA010404BF10BCEF
:10280000704749B1CCF1200421FA04F411FA0CF11B
:1028100018BF012121430843A3EB0C01CB1D4FEA54
:1028200000614FEA102042BF002010BC704700EB4F
:10283000C35010440029A4BF10BC7047401C49007D
:1028400008BF20F0010010BC704710B5141E73F1D2
:10285000000408DA401C41F1000192185B411A4360
:1028600001D120F0010010BD2DE9F04D92469B46AC
:1028700011B1B1FA81F202E0B0FA80F22032904652
:10288000FFF72CFF04460F4640EA0A0041EA0B011D
:1028900053465A46084313D0114653EA010019D053
:1028A000C8F140025046FFF728FF05460E46504645
:1028B00059464246FFF712FF084305D0012004E0C5
:1028C00020463946BDE8F08D0020054346EAE07613
:1028D0002C4337430A986305E40AA0EB0800002262
:1028E000FD0A44EA47540A3002D500200146E9E7D0
:1028F000010510196941DDE9084500196941BDE884
:10290000F04DA2E7064C074D06E0E06840F00103F9
:1029100094E8070098471034AC42F6D3FFF71CFC4C
:1029200090C30008B0C300083A2800D2303820F025
:102930002002412A01D3A2F13700884201D34FF08F
:10294000FF30704770B58C1810F8015B15F0070365
:1029500001D110F8013B2A1106D110F8012B03E038
:1029600010F8016B01F8016B5B1EF9D12B0705D440
:102970000023521E0DD401F8013BFAE710F8013B89
:10298000CB1A921C03E013F8015B01F8015B521EA5
:10299000F9D5A142D8D3002070BD000080B5094808
:1029A0004FF4007103F0BCFF0748C08C80BD00BF2E
:1029B00080B504484FF4007103F0B0FF0248C08CAA
:1029C00080BD00BF00040048CC0300202DE9F04189
:1029D000804680887A2828BF7A20B8F802104218EA
:1029E000532A01D900202BE098F80A304046DFF83E
:1029F0009CC300F8163F032608F11607A0F80160F3
:102A00008CB2A2420FD95CF8244014B125882C0A5C
:102A100001E000250024B3B2FC54731C9BB2FD54AA
:102A200001310236ECE7F11EB5B288F818102946DC
:102A300001F043FA711C7855000A89B27854B01C31
:102A400088F80C00C0B2BDE8F08100BF2DE9F0416C
:102A5000804680887A2828BF7A20B8F80210421869
:102A6000422A01D900202CE098F80A304046DFF8CD
:102A70005CC000F8163F0423032608F11607A0F8EF
:102A800001308CB2A2420FD95CF8244014B12588E1
:102A90002C0A01E000250024B3B2FC54731C9BB245
:102AA000FD5401310236ECE7F11EB5B288F818107A
:102AB000294601F002FA711C7855000A89B278544F
:102AC000B01C88F80C00C0B2BDE8F081D80000202E
:102AD00010B50446807A04F8160F102060700020AC
:102AE000207134F8140CE07014F80E1C000A6171A7
:102AF000A0702046062101F0E0F9E080082004F8EB
:102B00000A0C082010BD10B50446807A062104F88E
:102B1000160F0620607034F8140C00BA000C6080A8
:102B200034F8120C00BA000CA080204601F0C5F960
:102B3000E080082004F80A0C082010BDFEE7000021
:102B400010B52448244A01680160016801600168E9
:102B50000160016811400160016841F4A021016039
:102B600050F8041C41F0807140F8041C50F8041C1B
:102B70008901FBD5016821F003010160016841F082
:102B80000201016001680907FCD5032004F062FA24
:102B900040F2045004F038FA40F2025004F034FAE3
:102BA0000E4C40F21150A04740F21250A0474FF493
:102BB000A060A04740F20C60A04740F20B60A04725
:102BC00040F21C70A04740F20E60A047BDE81040E4
:102BD00002F056BE04100240FFFFC277F16F0008FA
:102BE000A0F13001CAB20A2A01D2C8B270472D281A
:102BF00016D06D2816D03A2816D0412816D0442871
:102C000016D0452816D0502816D0562816D057284A
:102C100016D0682816D02E280CBF0B210A21E4E715
:102C20001221E2E71121E0E71021DEE70D21DCE7C8
:102C30001421DAE71321D8E71521D6E70C21D4E7D0
:102C40000E21D2E70F21D0E7018849B9418839B96F
:102C5000818829B9C18819B9018909B9408908B1A0
:102C6000002070474FF0FF307047000010B5EC486F
:102C7000026B446B816BC36B4E48A242C0E91524C2
:102C8000C0E9171307DD406AA0420CDB90420ADC62
:102C90004FF0FF3010BD08DA416A4FF0FF30A1421B
:102CA00002DA914200DD002010BD994205DD806A04
:102CB0009842F8DB8842EBDDF5E7E9DA826A4FF00B
:102CC000FF309A42F0DA8A42EDDCEDE7FFF778BA9E
:102CD000B0B5044694F8981094F8992090F89600AE
:102CE00094F8973042EA012220706370628094F871
:102CF0009A1094F89B00032B40EA0121A1800BD08D
:102D0000102B0FD0062B2AD0042B3DD12069D8BB25
:102D10002046FFF79BFE34E02069A8BB2046FFF762
:102D200055FE2EE0207294F89C10082861722BD872
:102D3000B1EB400F28D1154A002188421CD063888E
:102D40000B44522B09D852F8233033B104EB410520
:102D5000B5F89D502DBA2D0C1D800131EDE7522A9A
:102D600012D80A4850F8220070B10180206958B981
:102D70002046FFF7C8FE04E0206928B92046FFF787
:102D8000A7FE4FF0FF302061B0BD00BFE001002082
:102D900070470000B0B50749114B4A6F4AF6AA24A4
:102DA0001546AD1A854228BFB0BD1C6000BF4D6FEF
:102DB000F7E700BF54030020BCB5094C4AF6AA252A
:102DC000ADF80600BDF80600411EADF8061028B1AA
:102DD0004FF45C7000F006F82560F3E7BCBD00BF5F
:102DE0000030004081B0ADF80200BDF80200800064
:102DF000ADF80200BDF802000430ADF80200BDF8E5
:102E00000200411E0028ADF80210F8D101B0704751
:102E100010B5022000F0C6FC0220A02100F074FCD6
:102E20000446022000F0FAFC204610BDF8B50C461E
:102E30000646402A01D93F2703E0002A08BF0122A5
:102E4000571E0220022500F0ADFC0220A02100F058
:102E50005BFC38BB310A0220022500F055FC08BBA0
:102E6000F1B20220022500F04FFCD8B90220022561
:102E700000F098FC0220A12100F046FC90B900254A
:102E80000220EEB200F0E4FBA0550220B74203DDC1
:102E900000F07AFB0135F3E700F0A8FB022000F018
:102EA000BDFC00252846F8BD2DE9F04180460220F2
:102EB00017460C46022500F075FC3E46002F08BF61
:102EC00001260220A021402F88BF402600F01CFCD4
:102ED000E0B94FEA18210220022500F015FCA8B93C
:102EE0005FFA88F10220022500F00EFC70B902257D
:102EF000300607D02178022000F006FC30B9013EF0
:102F00000134F5E7022000F089FC00252846BDE8E1
:102F1000F081000070B5434D0021A81C80224FF6BF
:102F2000FF7408290CD002F460732B4330F8026C54
:102F30001B880EB9A34210D0803280300131F0E7F7
:102F4000364E0020308003F069FC308805EBC0105D
:102F500003F026FC03F01EFC02E0304A11800488D6
:102F6000204670BDB0B52D482D4B0188002401F0DE
:102F700007010180074840EAC1120232C9017C2CD6
:102F800003D0155B1D530234F9E708430088A3F80A
:102F90007C00B0BD021C00082DE9F0411F4EDFF897
:102FA000308E30883E2100F007003080404600F02F
:102FB0009DFF054603F032FC31884FF48072481CB7
:102FC00000F0070002EBC111164F308001F4607170
:102FD000CA5B4FF6FF739A4204D041EA070003F040
:102FE000DFFB308807EBC010290403F027FC0546FF
:102FF000002084B23D2C0CD8328807EB440058F8EE
:10300000141000EBC210043003F018FC0546A01C9D
:10301000EFE703F0BFFBE8B2BDE8F081E80600206F
:1030200068060020001C00080348016821F0040124
:10303000016030BF704700BF10ED00E0F8B57F4D74
:103040004FF09040A8477E4C2046A84704F580608A
:10305000A8477C4D4FF09040002101220123A84752
:103060004FF09040002101220223A8474FF09040EA
:10307000012101220423A847734F4FF09040002103
:1030800000220423B8474FF09040042103F048FC8D
:103090004FF09040012101220823A8474FF09040B3
:1030A000012101221023A8474FF090400121012265
:1030B0000823B8474FF09040012101221023B84760
:1030C0004FF09040022102224FF48073A8474FF046
:1030D0009040002101224FF48073B8475B4E4FF0BF
:1030E000904002214FF48072B0474FF0904002218F
:1030F00001224FF40073A8474FF0904000210122B5
:103100004FF40073B8474FF0904001214FF4007224
:10311000B0474FF09040022101224FF48063A8474E
:103120004FF09040002101224FF48063B8474FF0E8
:10313000904001214FF48062B047204600210122D7
:103140000223A8472046012102220823A84720463F
:10315000012102221023A847204601210222202318
:10316000A8472046002101220823B8472046002115
:1031700001221023B8472046002101222023B8470E
:103180002046012101224FF40073A8472046002168
:1031900000224FF40073B84720464FF4007103F04B
:1031A000BFFB2046012101224FF48063A84720463F
:1031B000012101224FF40063A8472046012101228A
:1031C0004FF48063B8472046012101224FF4006389
:1031D000B8472046012102224FF48053A8472046D9
:1031E000012102224FF40053A84720460121022268
:1031F0004FF48043A8472046012102224FF40043A8
:10320000A8472046002101224FF48053B8472046AA
:10321000002101224FF40053B8472046002101222B
:103220004FF48043B8472046002101224FF4004369
:10323000BC4601B0BDE8F040604700BF31690008FE
:10324000000400487F690008CD690008BD680008D7
:103250002DE9F04198461546C21D01F10F03D2B287
:10326000DBB201F0D1F92C2001F05AFA8748A5F120
:103270002001CBB2B149194D0088B8F1000F18BF39
:103280001F20098805EB031CAD4D4FF0000E0026F2
:10329000BEF1100F1BD0B8F1000F04D0BEF10F0F1C
:1032A00001D1FF2701E01CF80E700023072B0BD87B
:1032B000FC070C4608BF044624BA240CB2B2AC5238
:1032C000013302367F08F1E70EF1010EE0E79C487A
:1032D0004FF48071BDE8F04101F008BAA89F0008E2
:1032E000F8B5054610460C46FFF77AFC064605F190
:1032F0000F00C2B204F11F00C3B22846214601F0FC
:1033000083F92C2001F00CFA60488C49124B00889C
:1033100009888B4C4FF0000E03EB861C0025BEF194
:10332000400F12D01CF80E600027072F0AD8F307B1
:103330000B4608BF03465BBAAAB2A3520137023557
:103340007608F2E70EF1010EE9E77D484FF480615F
:10335000BDE8F84001F0CAB9B8A500082DE9FC4164
:103360004A48224C754D00274FF4FC680780002026
:10337000002122461023A5F80080009700F08CF869
:103380004FF6E0701A4E288004F11002002011213F
:103390000823B04740F2FF70288004F11802002093
:1033A00030210823B0474FF61F00288004F1200287
:1033B00000204F210823B04704F12802002070218B
:1033C0001023A5F80080009700F066F81F202880E1
:1033D00000207F21102200F08DF800207F216F2235
:1033E00002B0BDE8F04100F085B800BF1A0000202F
:1033F000CF340008F8B5514F4FF6E07038802348BD
:10340000234C0025234E0580002000212246102356
:103410000095B04704F11002002010211023009500
:10342000B0474FF4FC60388004F1200200202021D6
:1034300010230095B04704F1300200203021102302
:103440000095B04740F2FF70388004F14002002040
:10345000402110230095B04704F150020020502174
:1034600010230095B0474FF61F00388004F160022A
:103470000020602110230095B04704F17002002065
:10348000702110230095B047F8BD00BF1404002040
:1034900052000020993400082DE9F843DDF820900F
:1034A0001C46154688460746002620060DD0AA5D14
:1034B0005AB129FA06F000F00103F8B24146FFF7CD
:1034C000C7FE0136013C0837EFE7BDE8F883F8B5E1
:1034D0001C4615460E460746200609D02A783AB102
:1034E000F8B23146FFF7FCFE013C10370135F3E737
:1034F000F8BD000070B50C4613461146224605463D
:1035000001F082F82C2001F00BF90C4A601B1288A4
:1035100001300B4D81B2130A0024E6B2B14206D944
:1035200005F8163076000136AA550134F5E740005B
:1035300081B20348BDE8704001F0D8B818000020FF
:10354000E4070020072808BFFFF754BF062804D06F
:10355000052818BF7047FFF74DBFFFF7FFBE0000FB
:10356000022884BF0348704740B203A151F82000ED
:10357000704700BF5EB3000850B3000844B30008B2
:103580004AB30008FEE7000010B5022814D1D04C61
:103590004FF48061204603F0C1F90320FFF722FCBD
:1035A00020464FF4006103F0BBF90520FFF71AFC39
:1035B00020464FF4006112E04FF09040082103F0E4
:1035C000ADF90320FFF70EFC4FF09040102103F0FF
:1035D000A7F90520FFF706FC4FF09040102103F0FB
:1035E0009DF90220BDE81040FFF7FCBB10B5022892
:1035F00014D1B74C4FF48061204603F091F90320B9
:10360000FFF7F0FB20464FF4006103F089F9052035
:10361000FFF7E8FB20464FF4006112E04FF09040C6
:10362000082103F07DF90320FFF7DCFB4FF0904009
:10363000102103F075F90520FFF7D4FB4FF09040FF
:10364000102103F06BF90220BDE81040FFF7CABB60
:103650002DE9F04105469E48022D80461ABF4FF0E5
:10366000904008214FF4806103F05AF900240027AC
:10367000072C38D80120FFF7B5FB022D14D14046A6
:103680004FF40061464603F049F90520FFF7AAFB15
:1036900040464FF4006103F043F90320FFF7A2FB1B
:1036A00040464FF4806112E04FF09040102103F04B
:1036B00035F90520FFF796FB4FF09040102103F0FD
:1036C0002FF90320FFF78EFB4FF09040082103F005
:1036D00051F906460220FFF785FB06F0010040EA9B
:1036E00047070134C4E7022D19BF4FF09040102165
:1036F00040464FF4006103F011F90220FFF772FB1E
:10370000F8B2BDE8F08100BFF8B5714D0E46044631
:103710000027082F30D006FA07F0C0B2C209022CE9
:1037200013D128464FF4806103F0FCF80120FFF725
:1037300059FB28464FF4006103F0F2F80520FFF72B
:1037400051FB28464FF4006112E04FF090400821F1
:1037500003F0E8F80120FFF745FB4FF090401021FF
:1037600003F0DEF80520FFF73DFB4FF090401021FD
:1037700003F0D4F80137CCE70220FFF733FB022C2B
:1037800019BF4FF09040082128464FF4806103F0A4
:10379000C7F80220FFF726FB2046BDE8F84000F0FE
:1037A00069B800BF10B5022819D1494C4FF48061A7
:1037B000204603F0B5F820464FF4006103F0B0F85E
:1037C0000520FFF70FFB20464FF4806103F0A6F8B9
:1037D0000520FFF707FB20464FF4006117E04FF08C
:1037E0009040082103F09CF84FF09040102103F026
:1037F00097F80520FFF7F6FA4FF09040082103F004
:103800008DF80520FFF7EEFA4FF09040102103F0FD
:1038100085F80220BDE81040FFF7E4BA10B5022891
:1038200011D12B4C4FF48061204603F077F82046ED
:103830004FF4006103F074F80520FFF7D3FA204637
:103840004FF480610FE04FF09040082103F066F8DC
:103850004FF09040102103F063F80520FFF7C2FA03
:103860004FF09040082103F05BF80420BDE81040C1
:10387000FFF7B8BAB0B5022812D1F54D4FF4006188
:10388000284603F04DF80320FFF7ACFA28464FF422
:10389000806103F06FF8044628464FF4006110E0A1
:1038A0004FF09040102103F03BF80320FFF79AFA05
:1038B0004FF09040082103F05DF804464FF090402F
:1038C000102103F02BF80220FFF78CFA2046B0BD40
:1038D00000040048B0B56FF45E61884202DA4FF62A
:1038E000184032E047F6E571884202DD41F6BE60DD
:1038F0002BE01749002240F277331BB214B29C42EE
:103900000BDC1C4424F001054D5F6410854202DC91
:1039100016DA621CF2E7631EEFE731F9132031F982
:103920001410801A00EB8000891A400090FBF1F01F
:1039300003EB830100EB41004FF61841084404E01B
:10394000044904EB840001EB400000B2B0BD00BFAD
:1039500072AB000818FCFFFF80B51148018DC1F360
:10396000011151B1012918BF80BD4FF4E13002F0BF
:10397000CDFABDE8804004F0C3BF0A490978008D44
:10398000C0F30320B0FBF1F202FB1100064951F82D
:10399000200002F0BBFA0548BDE8804000F0DABA2A
:1039A000CC03002068AB000838AB00080C070020EF
:1039B00010B500F007FF044600F022FF15494FF450
:1039C0007A730A88B2F57A7F38BF531C012C0B80BA
:1039D00002BF0028032010BD1CB9012804BF052028
:1039E00010BD022C02BF0028042010BD1CB9022803
:1039F00004BF062010BD012C02BF0128072010BD06
:103A000080F0020084F002010843B0FA80F040091F
:103A1000C00010BD0E04002010B5012000210024BC
:103A200000F09CF84C482021202C08BF10BD015507
:103A30000134F9E7B0B5154C0520A047144D3020EE
:103A40000021A8470520A04730200021A8470120D9
:103A5000A04730200021A8470120A04728200021AE
:103A6000A8470520A0470B4C28200021A04708208C
:103A70000021A04706200021A0470C200021A047DC
:103A8000012000212246BDE8B0401047B92D0008B2
:103A9000593C00085D3B0008B0B5032811D8DFE8A9
:103AA00000F0021E2D3C80200021002400F056F87A
:103AB000294D082C4ED0285D012100F04FF801342B
:103AC000F7E780200021002500F048F8224C102D57
:103AD00032D0605D012100F041F80135F7E7882020
:103AE0000021002400F03AF81B4D082C32D0281990
:103AF000007A012100F032F80134F6E7C0200021FD
:103B0000002400F02BF8144D082C23D02819007C39
:103B1000012100F023F80134F6E7C8200021002439
:103B200000F01CF80C4D082C14D02819007E01213F
:103B300000F014F80134F6E7C0200021002500F061
:103B40000DF8102D06D06019007C012100F006F858
:103B50000135F6E7B0BD00BFEA06002080B500F0F1
:103B600005F80A20BDE88040FFF73CB92DE9F84F81
:103B70005B4C0E4605462046202102F0CFFE204633
:103B8000082116B102F0CCFE01E002F0C7FE314A76
:103B9000204610219047534E0A20B04728064FF088
:103BA000180058BF28204FF4805844F80080680659
:103BB0004FF0180058BF28204FF4005944F80090E7
:103BC000A8064FF0180058BF28204FF4804A44F848
:103BD00000A0E8064FF0180058BF28204FF4004B13
:103BE00044F800B00A201827B0472046202102F0F0
:103BF00097FE0A20B047174A204620219047280701
:103C00004FF0180058BF282044F8008068074FF094
:103C1000180058BF282044F80090A8074FF018005B
:103C200058BF282044F800A0E8074FF00A0008BF5A
:103C3000282744F807B0B0472046202102F070FE44
:103C40000A20B047034A20462021BDE8F84F10471C
:103C5000000400481D69000870B5214C0E46054659
:103C60002046202102F05AFE2046082116B102F01B
:103C700057FE01E002F052FE2046102102F04EFEF7
:103C8000184E0A20B0471821280658BF28214FF4A3
:103C90008052625069064FF0180158BF28214FF436
:103CA00000526250A9064FF0180158BF28214FF466
:103CB000804218206250E90658BF28204FF4004186
:103CC00021500A20B0472046202102F029FE0A2078
:103CD000B04720462021BDE8704002F01FBE00BF63
:103CE00000040048E52D0008F8B59E4C3821204618
:103CF00000F0FCF830B19B48392100F0F7F808B12A
:103D00000020F8BDB4F860103248334BC180B4F8DD
:103D10006210334A0181B4F86610334E4181256840
:103D2000B4F868101D6081812C49954284BF2160E0
:103D3000196025692B4B95421D6084BF2161196074
:103D4000236A2A4D3360AB4282BF216231600B4649
:103D5000676A274E0135AF42376001D29F4202DBCE
:103D6000002363623360A56A224B4E1E1D60B5427C
:103D700082BF41F28835A5621D60E36A9446934292
:103D800084BF46F2A813E362B4F84A301A4A642B9F
:103D900024BF0423A4F84A30236B656B1360174AD1
:103DA000A66B1560164AE76B1660164A1760226C00
:103DB000624588BFE1620189134AC1F38001117035
:103DC00080891249C0F3810008704FF0FF30F8BDC0
:103DD00068060020EC030020B8030020A086010044
:103DE0007F969800BC030020C00300203F420F00D4
:103DF000C403002014000020A8030020AC0300200E
:103E0000B0030020B4030020540300200804002065
:103E1000C9B32DE9F04104460020086020460D4654
:103E2000FFF7C0FC2046D121FFF76EFC174F20465C
:103E3000B847DFF85C8006462046C047B0072868D0
:103E400040EA064048BF40F07F4028602046B8471F
:103E500006462046C047286840EA062028602046DB
:103E6000B84706462046C0472868304328602046A9
:103E7000B84705462046FFF7B9FB2046FFF7CEFCC2
:103E80002846BDE8F0810020704700BF5136000889
:103E900089350008B0B50C460546FFF783FC284677
:103EA000D021FFF731FC28462146FFF72DFC28469C
:103EB000BDE8B040FFF7B2BCFEE7F0B54FF6FF73C8
:103EC00000224AF201048A420ED0855C6B40002534
:103ED000072D07D884EA5306DF0708BF5E080135BF
:103EE0003346F5E70132EEE798B2F0BDF0B54FF694
:103EF000FF7300224AF201048A420FD030F81250B8
:103F00006B400025072D07D884EA5306DF0708BF5A
:103F10005E0801353346F5E70132EDE798B2F0BDB2
:103F200010B50446C07A98B1A28A0132A28292B238
:103F30008A420DD900F03F0104F19600E172FFF7CB
:103F4000BCFF10B92046FEF7C3FE0020A082E0723D
:103F500010BD00000021034AC17292F864208182E2
:103F60008272704768060020024600209082D37A51
:103F7000402B24BFD0727047D01880F89610581C80
:103F8000D072084670477047B0B54EF2C301884200
:103F900002D94FF6D4602FE0A12802D240F2DC50C3
:103FA0002AE016490022B4231BB214B29C420BDC57
:103FB0001C4424F001054D5B6410854202D316D9E0
:103FC000621CF2E7631EEFE731F8132031F814109A
:103FD000801A00EB8000891A400090FBF1F003EB9F
:103FE000830100EB41004FF6D461084404E004492A
:103FF00004EB840001EB400000B2B0BD6CBB0008D4
:10400000D4FEFFFF80B54FF4A06002F051FE1B20EC
:1040100001210122BDE8804002F01EBEB0B540F291
:104020003D71884202D24FF6300032E048F2FE1174
:10403000884202D941F6C8102BE0174900224FF4FC
:1040400057731BB214B29C420BDC1C4424F00105D4
:104050004D5B6410854202D816D2621CF2E7631EE3
:10406000EFE731F8142031F81310801A00EB8000CC
:10407000891A400090FBF1F004EB840100EB410051
:104080004FF63001084404E0044904EB840001EBDE
:10409000400000B2B0BD00BFD6BC000830F8FFFF42
:1040A00070470000B0B5144C0020A047184D0146E1
:1040B00012A0A8470120A047014616A0A847022049
:1040C000A047014618A0A8470320A04701461BA00F
:1040D000A8470420A04701461DA0A8470520A047E7
:1040E000014620A0A8470620A047014622A02A4654
:1040F000BDE8B040104700BF756E000820434B5F1D
:104100005359532020203D20256C640A00000000F4
:10411000879C000820434B5F4148422020203D20DF
:10412000256C640A0000000020434B5F415042317F
:1041300020203D20256C640A0000000020434B5FD6
:104140004150423220203D20256C640A00000000CE
:1041500020434B5F4144432020203D20256C640ACE
:104160000000000020434B5F4345432020203D20BA
:10417000256C640A0000000020434B5F55534152F8
:1041800054203D20256C640A000000002DE9FF4109
:104190006C46DFF8C88005462EA120460822C0479D
:1041A00028786978012241EA0020214601F0A3F82D
:1041B0002B4F2046B8472BA120460A22C047D5F8EE
:1041C0000200214600BA01F055F92046B847284EB2
:1041D000204631460A22C047E879A9792A7A0002A6
:1041E00040EA014009061044214648BF00F17F40E3
:1041F00000F0C0FC2046B847204631460A22C0479E
:10420000A87A697AEA7A000240EA01400906104475
:10421000214648BF00F17F4000F0ACFC2046B84783
:1042200014A120460822C047A8892146C0BA01220D
:1042300000F0CFFF2046B84710A120460822C04713
:10424000E8892146C0BA012200F0C3FF2046B847E2
:10425000BDE8FF8131323334352C2000CD2C0008ED
:104260006D9B0008313233343536372C2000000086
:10427000F0B200083030302E302C20003030302E9C
:10428000300D0A00F0B55149514A544B1160514A62
:104290004D481160504AC1601360514A81604160CD
:1042A0000160C161816141610161036200231360AA
:1042B0004C4A41F2883414604CF250324362C2627C
:1042C000494A84621360494A0363D380D488012732
:1042D00044F00104D480D48824F00204D480D4882B
:1042E00024F00404D480B2F806C01381158925F0A7
:1042F00001051581158925F004051581158945F0FD
:10430000100525F020051581158925F0C0051581BA
:10431000158925F4706505F540751581158953815A
:10432000568926F001065681568926F002065681E6
:10433000568926F004065681568946F008065681AD
:10434000568946F0400626F0B0065681568967F336
:104350001F26568156899381948944F001049481E3
:10436000948924F00C049481948944F0800424F00E
:10437000700494811E4C436323601E4C8363C363AB
:1043800001644FF4003123601B4C41644FF48021E1
:10439000816464212360A0F85010A0F860C0918966
:1043A0006FF31F319181A0F86470A0F86250918979
:1043B00021F4706101F5C0619181A0F86660918976
:1043C000A0F86810F0BD00BF68060020A0860100BC
:1043D000B8030020BC030020C0030020400D0300F0
:1043E000C403002014000020A8030020EC030020D8
:1043F000AC030020B0030020B4030020F8B5124B3A
:10440000010A0022802A06D003EB420403F81210AE
:1044100060700132F6E7002000217F227F23002513
:1044200000F0F2F82C2000F07BF9074C074E4AF61A
:10443000AA277F2D88BFF8BD20464FF4807100F079
:1044400055F937600135F4E7E407002000300040FB
:1044500070B5CB4C4FF48051204602F061FA5B4DB1
:104460000A20A84720464FF4805102F057FA0A204C
:10447000A84720464FF4805102F052FA7820A8470E
:10448000534E1120B0477820A847B120B047514C77
:104490000220A0473520A0473620A047B220B047D1
:1044A0000220A0473520A0473620A047B320B047C0
:1044B0000220A0473520A0473620A0470220A04771
:1044C0003520A0473620A047B420B0470320A0479E
:1044D000C020B047A220A0470220A0478420A047C8
:1044E000C120B047C520A047C220B0470D20A0473B
:1044F0000020A047C320B0478D20A0472A20A04716
:10450000C420B0478D20A047EE20A047C520B0476B
:104510000A20A04736203546B04773480078032864
:1045200006D83849C00021FA00F0C0B200F010F9F6
:10453000E020A8471220A0471C20A0471020A04739
:104540001820A0473320A0472C20A0472520A047B3
:104550002820A0472820A0472720A0472F20A04799
:104560003C20A0470020A0470320A0470320A047ED
:104570001020A047E120A8471220A0471C20A047F8
:104580001020A0471820A0472D20A0472820A04792
:104590002320A0472820A0472820A0472620A04766
:1045A0002F20A0473B20A0470020A0470320A04782
:1045B0000320A0471020A0473A20A8470520A04785
:1045C00029202946BDE87040084700BF952D000806
:1045D000214700085147000810B5434C00F0030084
:1045E0002070362000F09CF82078032888BF10BD8A
:1045F0000449C00021FA00F0C0B2BDE8104000F04C
:10460000A7B800BFA8C86808F8B5064636480078BD
:10461000032868D80C461D461746DFE800F0020D57
:10462000263F2A2000F07CF8F81C8DF803000027B4
:10463000F01C8DF8027022E02A2000F071F8B81CFE
:104640008DF803000027B01C8DF802708DF8010072
:10465000684604218DF8007000F048F82B2000F027
:104660005FF88DF80070032030E02A2000F058F841
:10467000781C00278DF803008DF80270701C8DF8EF
:104680000100684604218DF8007000F02FF82B20FF
:1046900000F046F88DF80070022017E02A2000F0A4
:1046A0003FF8B81C8DF803000027B01C8DF802708D
:1046B0008DF80100684604218DF8007000F016F8AE
:1046C0002B2000F02DF801208DF8007000218DF8CE
:1046D0000210411920448DF803108DF8010068463E
:1046E000042100F003F8F8BD0804002070B5244C44
:1046F0000D46064620464FF4005102F00FF92046C1
:104700004FF4804102F00CF93046294601F0B8FA26
:1047100020464FF40051BDE8704002F001B900BFDF
:10472000B0B5174D044628464FF4005102F0F6F894
:1047300028464FF4804102F0F1F8204601F018FBC2
:1047400028464FF40051BDE8B04002F0E9B800BF80
:10475000B0B50B4D044628464FF4005102F0DEF888
:1047600028464FF4804102F0DBF8204601F000FBC0
:1047700028464FF40051BDE8B04002F0D1B800BF68
:10478000000400487047000010B50C480C4CC1886C
:10479000A4F860100189A4F862104189A4F8661099
:1047A00080893721A4F868002046FFF79FFBA4F812
:1047B0006E00BDE81040FEF7EFBB00BFEC03002029
:1047C0006806002080B54FF09040012102F0D2F839
:1047D0000A490B8848B10020632B88BF0120DB0801
:1047E00000227C2B88BF022006E04FF47A72002062
:1047F000B3F57A7F38BF5A1C0A8080BD0A040020B6
:1048000080B54FF09040022102F0B4F80A490B88BD
:1048100048B10020632B88BF0120DB0800227C2BDD
:1048200088BF022006E04FF47A720020B3F57A7F49
:1048300038BF5A1C0A8080BD0C040020024803A126
:104840002022FEF743BA00BFEA0600202055494D5A
:10485000657465722056332E302020202062792026
:104860004543484F2053747564696F200000000071
:10487000F8B5134D134C144F284621462022B84753
:1048800005F1200011A12022B847194E05F135018C
:104890001520B04705F138010620B04705F13B016E
:1048A0001420B04705F1400012A12022B84705F1BD
:1048B0006000214620223B4601B0BDE8F040184789
:1048C0005200002085B20008CD2C00082055494D2B
:1048D000657465722056332E3020202020465720E4
:1048E0007631392E31322E32322020200000000065
:1048F0004D4B0008206279204543484F2053747582
:1049000064696F20202020202020202020202020CB
:10491000202020200000000010B5B0F1FF3F36DD60
:10492000834A90423BDC2E224A700A22B0FBF2F30B
:1049300003EB8304A0EB440444F030044C719CB2BC
:10494000B4FBF2F404EB8404A3EB440343F0300320
:104950000B716423B0FBF3F39CB2B4FBF2F404EBF1
:104960008404A3EB440343F03003CB704FF47A7319
:10497000B0FBF3F3DCB2B4FBF2F404EB8404A3EB7E
:10498000440343F030038B7042F21073BBE04FF0EE
:104990003030C1F8020042F63060088010BD654A30
:1049A000904238DC2E228A700A22B0FBF2F3B3FB6D
:1049B000F2F404EB8404A3EB440343F030034B71A3
:1049C0006423B0FBF3F39CB2B4FBF2F404EB840475
:1049D000A3EB440343F030030B714FF47A73B0FB45
:1049E000F3F39CB2B4FBF2F404EB8404A3EB4403B2
:1049F00043F03003CB7042F21073B0FBF3F3DCB240
:104A0000B4FBF2F404EB8404A3EB440343F030035F
:104A10004B704B4B77E0484A904239DC2E22CA70EB
:104A20006422B0FBF2F30A22B3FBF2F404EB840439
:104A3000A3EB440343F030034B714FF47A73B0FBA4
:104A4000F3F39CB2B4FBF2F404EB8404A3EB440351
:104A500043F030030B7142F21073B0FBF3F39CB2DE
:104A6000B4FBF2F404EB8404A3EB440343F03003FF
:104A70008B70334BB0FBF3F3DCB2B4FBF2F404EB1A
:104A80008404A3EB440343F030034B702D4B3AE016
:104A90002A4A904244DC2E220A714FF47A72B0FB0B
:104AA000F2F30A22B3FBF2F404EB8404A3EB440315
:104AB00043F030034B71224BB0FBF3F3B3FBF2F442
:104AC00004EB8404A3EB440343F030038B7042F205
:104AD0001073B0FBF3F39CB2B4FBF2F404EB840468
:104AE000A3EB440343F03003CB70164BB0FBF3F35E
:104AF000DCB2B4FBF2F404EB8404A3EB440343F014
:104B000030034B70104BB0FBF3F0C3B2B3FBF2F2C7
:104B100002EB8202A0EB420040F03000087010BDB2
:104B200043F62E1088804FF03930086010BD00BF6A
:104B30009F8601003F420F007F969800FFE0F50539
:104B4000A086010040420F008096980010B50A220E
:104B500090FBF2F303EB8304A0EB44003030487089
:104B600093FBF2F000EB8000A3EB400030300870C4
:104B700010BD0000B0B500283DD4E24A904278DC78
:104B80002E228A7020220A230A70B0FBF3F294B21C
:104B9000B4FBF3F404EB8404A2EB440444F03004CB
:104BA0004C716424B0FBF4F4A5B2B5FBF3F505EB4E
:104BB0008505A4EB450444F030040C714FF47A747D
:104BC000B0FBF4F4E5B2B5FBF3F505EB8505A4EB1A
:104BD000450444F03004CC7042F21074B0FBF4F49D
:104BE000E5B2B5FBF3F303EB8303A4EB430343F01C
:104BF00030034B7018E22D220A70C34A9042C0F273
:104C000080802E228A706FF0090290FBF2F20A2354
:104C100092FBF3F404EB8404A2EB440230324A71B9
:104C20006FF0630290FBF2F292FBF3F404EB840466
:104C3000A2EB440230320A71B44A90FBF2F292FBCA
:104C4000F3F404EB8404A2EB44023032CA70B04A9D
:104C500090FBF2F292FBF3F404EB8404A2EB440227
:104C600030324A7090FBF3F202EB8202C0EB42005A
:104C70008EE1A84A90427ADC2E220A238A70B0FB89
:104C8000F3F2B2FBF3F404EB8404A2EB440444F02B
:104C900030044C716424B0FBF4F4A5B2B5FBF3F519
:104CA00005EB8505A4EB450444F030040C714FF48A
:104CB0007A74B0FBF4F4A5B2B5FBF3F505EB85050A
:104CC000A4EB450444F03004CC7042F21074B0FB05
:104CD000F4F4E5B2B5FBF3F505EB8505A4EB45046B
:104CE00044F030044C70E74CB0FBF4F4E5B2B5FB93
:104CF000F3F303EB8303A4EB430343F030030B70A4
:104D000092E1D54A90427DDB2E22CA706FF0630299
:104D100090FBF2F30A2293FBF2F404EB8404A3EB7E
:104D2000440330334B71D34B90FBF3F393FBF2F41A
:104D300004EB8404A3EB440330330B71C94B90FBA9
:104D4000F3F393FBF2F404EB8404A3EB440330335A
:104D50008B70C54B90FBF3F393FBF2F404EB8404EC
:104D6000A3EB440330334B706FF0090308E1C24AF0
:104D700090427DDC2E22CA706422B0FBF2F30A223C
:104D8000B3FBF2F404EB8404A3EB440343F03003DD
:104D90004B714FF47A73B0FBF3F39CB2B4FBF2F4B3
:104DA00004EB8404A3EB440343F030030B7142F2A1
:104DB0001073B0FBF3F39CB2B4FBF2F404EB840485
:104DC000A3EB440343F030038B70E24BB0FBF3F3EF
:104DD000DCB2B4FBF2F404EB8404A3EB440343F031
:104DE00030034B70DC4BB0FBF3F3B0FBF2F0DCB202
:104DF000B4FBF2F404EB8404A3EB440343F030036C
:104E00000B700FE1954A9042C0F286802E220A7103
:104E1000984A90FBF2F30A2293FBF2F404EB840429
:104E2000A3EB440330334B718E4B90FBF3F393FBB6
:104E3000F2F404EB8404A3EB44033033CB708A4BCD
:104E400090FBF3F393FBF2F404EB8404A3EB440331
:104E500030338B70854B90FBF3F393FBF2F404EB50
:104E60008404A3EB440330334B706FF0630387E09B
:104E7000824A904200F38E802E220A714FF47A7299
:104E8000B0FBF2F30A22B3FBF2F404EB8404A3EBCD
:104E9000440343F030034B71AE4BB0FBF3F3B3FB71
:104EA000F2F404EB8404A3EB440343F030038B706F
:104EB00042F21073B0FBF3F39CB2B4FBF2F404EBD8
:104EC0008404A3EB440343F03003CB70A24BB0FB4C
:104ED000F3F3DCB2B4FBF2F404EB8404A3EB44037D
:104EE00043F030034B70694BB0FBF3F3DCB2B4FB1F
:104EF000F2F404EB8404A3EB440343F030030B709F
:104F000064238DE09F8601006179FEFF18FCFFFF9E
:104F1000F0D8FFFF3F420F00514A9042C0F28C8010
:104F20002E224A714F4A90FBF2F30A2293FBF2F4CD
:104F300004EB8404A3EB440330330B714A4B90FB26
:104F4000F3F393FBF2F404EB8404A3EB4403303358
:104F5000CB70464B90FBF3F393FBF2F404EB840429
:104F6000A3EB440330338B70414B90FBF3F393FB83
:104F7000F2F404EB8404A3EB440330334B703D4B59
:104F800090FBF3F090FBF2F202EB8202A0EB420006
:104F900030304FE03A4A904255DC2E224A7142F2BC
:104FA0001072B0FBF2F30A22B3FBF2F404EB8404B8
:104FB000A3EB440343F030030B71664BB0FBF3F3F8
:104FC000B3FBF2F404EB8404A3EB440343F030039B
:104FD000CB70614BB0FBF3F3B3FBF2F404EB84044E
:104FE000A3EB440343F030038B70274BB0FBF3F388
:104FF000B3FBF2F404EB8404A3EB440343F030036B
:105000000B70224BB0FBF3F3DCB2B4FBF2F404EB15
:105010008404A3EB440343F030034B704FF47A73E2
:10502000B0FBF3F0B0FBF2F202EB8202A0EB420025
:1050300040F030008871B0BD2E2048714FF03930FB
:10504000C1F8010005E04FF03930086042F63960E0
:1050500088803920EEE700BFC1BDF0FF816967FF9E
:10506000011F0AFAF0D8FFFF6079FEFFC0BDF0FF14
:10507000806967FF18FCFFFF7F969800FFE0F50549
:10508000FFC99A3BA086010000E1F50580969800D3
:10509000B0B52E228A700028024600D542420A236B
:1050A000B2FBF3F4002804EB8405A2EB450545F0C0
:1050B0003005CD71B4FBF3F505EB8505A4EB450494
:1050C00044F030048C714FF06404B2FBF4F4B4FB90
:1050D000F3F505EB8505A4EB450444F030044C7171
:1050E0004FF47A74B2FBF4F4B4FBF3F505EB8505E9
:1050F000A4EB450444F030040C7142F21074B2FB8E
:10510000F4F4B4FBF3F505EB8505A4EB450444F09A
:105110003004CC70D64CB2FBF4F4B4FBF3F505EBE1
:105120008505A4EB450444F030044C700A4CB2FBF6
:10513000F4F2B2FBF3F303EB8303A2EB430242F07E
:1051400030020A7003D4302A03D1202000E02D2041
:105150000870B0BDA086010040420F0070B500EBA2
:10516000E03282EAE03213B20A2493FBF4F505EB55
:105170008506A2EB460230328A7095FBF4F202EB10
:105180008202A5EB420230324A70642293FBF2F2B3
:1051900092FBF4F303EB8303A2EB430230320A7079
:1051A00000222023022A05D08C5C302C04D18B54A1
:1051B0000132F7E7002303E0D3B2B3FA83F35B09CC
:1051C000B0F1FF3F04DC1BB988182D2100F8011C49
:1051D00070BDF0B52E23CB7000EBE03383EAE033F3
:1051E0001CB20A2594FBF5F606EB8607A3EB4703F2
:1051F00030330B7196FBF5F303EB8303A6EB43030C
:1052000030338B70642394FBF3F393FBF5F606EBDA
:105210008606A3EB460330334B704FF47A7394FB4E
:10522000F3F393FBF5F404EB8404A3EB440303F1E1
:105230003005002320240D70042B0BD0EDB2302D4F
:1052400008D13AB1CD186D782E2D03D05E1CCC5408
:105250003346F1E7B0F1FF3F05DC18061EBFC81862
:105260002D2100F8011CF0BD70B500EBE03282EAA0
:10527000E03213B20A2493FBF4F505EB8506A2EBAA
:1052800046023032CA7095FBF4F202EB8202A5EBC3
:10529000420230328A70642293FBF2F292FBF4F500
:1052A00005EB8505A2EB450230324A704FF47A7265
:1052B00093FBF2F292FBF4F303EB8303A2EB4302C2
:1052C00030320A7000222023032A05D08C5C302C57
:1052D00004D18B540132F7E7002303E0D3B2B3FAD1
:1052E00083F35B09B0F1FF3F04DC1BB988182D2163
:1052F00000F8011C70BD0028034600D5434270B57C
:105300000A24B3FBF4F505EB8506A3EB460646F04D
:1053100030060E71B5FBF4F606EB8606A5EB4605E6
:1053200045F03005CD706425B3FBF5F5B5FBF4F61B
:1053300006EB8606A5EB460545F030058D704FF46B
:105340007A75B3FBF5F5B5FBF4F606EB8606A5EB2F
:10535000460545F030054D7042F21075B3FBF5F38C
:10536000B3FBF4F404EB8404A3EB440343F03003F5
:105370000B7000232024042B06D03AB1CD5C302DD5
:1053800004D1CC540133F6E7002203E0DAB2B2FADA
:1053900082F25209B0F1FF3F04DC1AB9C8182D217E
:1053A00000F8011C70BD00000028024600D54242F2
:1053B000B0B50A23B2FBF3F404EB8405A2EB450578
:1053C00045F030054D71B4FBF3F505EB8505A4EB15
:1053D000450444F030040C716424B2FBF4F4B4FBD3
:1053E000F3F505EB8505A4EB450444F03004CC70DF
:1053F0004FF47A74B2FBF4F4B4FBF3F505EB8505D6
:10540000A4EB450444F030048C7042F21074B2FBFB
:10541000F4F4B4FBF3F505EB8505A4EB450444F087
:1054200030044C704B4CB2FBF4F2B2FBF3F303EBE1
:105430008303A2EB430242F030020A7000222023D1
:10544000052A05D08C5C302C04D18B540132F7E74F
:10545000002303E0D3B2B3FA83F35B09B0F1FF3F5B
:1054600004DC1BB988182D2100F8011CB0BD00BF59
:10547000A08601000028024600D54242B0B50A23AA
:10548000B2FBF3F404EB8405A2EB450545F03005CF
:105490008D71B4FBF3F505EB8505A4EB450444F0F1
:1054A00030044C716424B2FBF4F4B4FBF3F505EB67
:1054B0008505A4EB450444F030040C714FF47A7474
:1054C000B2FBF4F4B4FBF3F505EB8505A4EB45045E
:1054D00044F03004CC7042F21074B2FBF4F4B4FB2C
:1054E000F3F505EB8505A4EB450444F030048C701E
:1054F000184CB2FBF4F4B4FBF3F505EB8505A4EB13
:10550000450444F030044C70134CB2FBF4F2B2FB8F
:10551000F3F303EB8303A2EB430242F030020A7081
:1055200000222023062A05D08C5C302C04D18B5419
:105530000132F7E7002303E0D3B2B3FA83F35B0948
:10554000B0F1FF3F04DC1BB988182D2100F8011CC5
:10555000B0BD00BFA086010040420F0010B51A4B3D
:10556000020B1C68A25C0A70C0F303221C68A25CD8
:105570004A70C0F303121C6800F00F00A25C8A702E
:105580001A68105CC87010BD10B50F4BC0F3035201
:105590001C68A25C0A70C0F303421C68A25C4A70DB
:1055A000C0F303321C68A25C8A70C0F303221C683B
:1055B000A25CCA70C0F303121B6800F00F009A5C73
:1055C0000A71185C487110BDD400002070B5044603
:1055D000774D15202146A8472E26E11C0620A670EF
:1055E000A847A11D14206671A847074E083400255E
:1055F000062D08BF70BD36F815002146FFF7AEFF37
:1056000004340135F4E700BFACF7FF1F10B50AA161
:1056100020220446FDF75AFB974804F10901006D6A
:10562000FFF7C2FE8D4804F11B01408D000ABDE862
:105630001040FFF793BD00BF204C6F67436E743A74
:10564000202020202020302020496E746572766151
:105650006C3A20202031732000000000B0B517A163
:1056600020220446FDF732FB7C481D49008D0522AF
:10567000C0F3811080F0020051F82010601CFDF78B
:1056800025FB7D4DA11DE869FFF7F4FEB5F90C007F
:1056900004F110010122FFF79CFDB5F9100004F19F
:1056A00018010122FFF795FD28787F21002808BF07
:1056B0006FF0200161776175B0BD00BF2054595073
:1056C000454B202020202020307556202032302EBF
:1056D000306F43202032302E306F43200000000016
:1056E000989F0008F8B528A120220446FDF7EEFA9D
:1056F000614D2146286BFFF73DFA686B04F11001FC
:10570000FFF738FA554D2949288D294FC0071EBF8C
:105710006D20A071A075286B90FBF1F0642190FBC7
:10572000F1F202FB110004F10A0100B2B847286B44
:105730004FF4616190FBF1F0182190FBF1F101EB66
:105740004101A0EBC10000B204F10D01B847286B84
:105750003C2690FBF6F090FBF6F1C1EB0111A0EBBB
:10576000810000B204F11A01B847286B3A4690FB59
:10577000F6F1C1EB0111A0EB810000B204F11D01B3
:10578000BDE8F840104700BF20302E3030303041A7
:10579000682030306430306820302E303030305760
:1057A000682030306D3030730000000080510100FF
:1057B0004D4B000870B51FA120220446FDF786FA64
:1057C00025492D4DB1F8441005F12C0001318EB260
:1057D000022E38BF05F1240000682146FFF7CAF900
:1057E0004120022E38BF5620E071A86A04F1100152
:1057F000FFF7C0F9286C04F10901FFF78DF8686C18
:1058000004F11901FFF788F81448018DC9071EBF7C
:105810006D21A173A175008DC00707D129786FF0A4
:105820007F00002908BF6FF00B0000E06B20E077DD
:1058300070BD00BF20302E303030305620302E303A
:105840003030305720302E30303030412039393927
:10585000392E39520000000068060020CC030020D9
:1058600080B50548416F0131416703F0B7FCBDE8E1
:10587000804004F031B800BF54030020FFF7F0BFB0
:105880001648016801F00C021549082A1AD102686D
:1058900003681B014FF0110358BF0223C2F3834278
:1058A0001A44836A002B48BF1F320368DB0302D40B
:1058B0000C49514306E0836A03F00F030133B1FB47
:1058C000F3F15143084A09A311600068C0F30310C3
:1058D000185C21FA00F01060704700BF041002400D
:1058E00000127A0000093D001000002000000000B6
:1058F000000000000102030406070809524853494A
:10590000534A0160026041604260C16841F0200179
:10591000C160C16841F04001C1608168C907FCD124
:10592000C16821F02001C160C16841F01001C1606F
:105930008269484912F0060F06D0826902F0060219
:10594000022A03D1BB2207E0A52205E0826902F00A
:105950000602062A01D1CC220A808269DF2303EAEB
:1059600012224A808269C2F307428A808269120E3B
:10597000CA80C269D2B20A81C26992B2120A4A814D
:10598000C16821F01001C1603348016841F4700121
:1059900001603248016841F0010101600168890736
:1059A000FCD541682E4A1140416041682D4A1140A2
:1059B000416001682C4A11400160C16A2B4A1140C4
:1059C000C162016B40F2031291430163016B21F448
:1059D00080310163016B21F000410163416B21F0D3
:1059E00001014163D0F8C01021F48031C0F8C0102B
:1059F00000218160C0F8CC10016841F48031016061
:105A000040F2FF714A1E03688A4203D213F4003148
:105A10001146F7D00168890310D54168416041689B
:105A2000416041684160416821F003014160416883
:105A300041F00101416041684907FCD54FF0006029
:105A40004FF4005101F03EB90420024023016745A4
:105A5000AB89EFCD00F8FF1F88ED00E00010024099
:105A60000C00FF08FFFFC277FFFFF2FEF0FFFF3FD1
:105A700070B5044600200D46A4F84601FCF784FBEF
:105A80000068405D10F03E0F13D0012084F84450B0
:105A9000A4F84601B4F84A613F2E00F299802846E6
:105AA000FCF776FB711CA4F84A11A11981F8C40017
:105AB0008EE0A5F10800082818D8DFE800F00525D9
:105AC00089252538252589000320A4F8460142F2BE
:105AD0000800A4F84400082084F84600B4F84A01FD
:105AE000002875D00138A4F84A0171E0032D6FD069
:105AF0001B2D4AD01D2D07D1B4F84C01411C0AB210
:105B0000012AC8BF411E47E043492809096801220C
:105B1000085CA4F8462184F8440005F00F00085CF6
:105B200084F84500202084F8460003204EE002203F
:105B3000A4F8460140F60D20A4F84400B4F84A0148
:105B40003F2860D804F1C40100220A544FF0FF300E
:105B50002060A4F84A21B4F94C0100EBD07222F085
:105B60000102801A2B4AA4F84C0102EBC0108022DB
:105B7000FCF726FBB4F94C01013000EBD07121F0A9
:105B80000101401AA4F84C0122E0B4F84C01411E76
:105B90000AB2002A48BF411C1E4D08B2A4F84C119D
:105BA00005EBC01104F1C4008022FCF709FBFCF7EF
:105BB00013FBA4F84A01B4F94C01802205EBC01193
:105BC00004F14400FCF7FCFAFCF706FBA4F84601DC
:105BD000B4F84601CA4900F03F00A4F84601C9885C
:105BE000C9070ED00025E9B280B2884209D954FA1B
:105BF00085F090F8440003F0ADFFB4F8460101359C
:105C0000F1E7FF2070BD0020A4F84A0184F80301E9
:105C1000DEE700BF16040020D4000020B0B590B02D
:105C2000022000F037FD4FF400506E4C0890002524
:105C300040F201100795ADF8180004F10C00CDE911
:105C400004558DF80C500295019001A9022000F036
:105C50004DFD03200F95CDE90D504FF40070CDE9B7
:105C60000B504FF440400A904FF48270099009A9FC
:105C7000204601F01BFB204601F00CFB10B0B0BD2C
:105C8000BCB50C4601460020ADF80600022000F02D
:105C90006FFD0220214600F073FD524C002120468A
:105CA00001F0F0FA022000F0EBFC4FF0FF304FF66D
:105CB000FF75ADF806000220022100F00BFD60B96F
:105CC000BDF806000138ADF80600BDF80600002852
:105CD000F1D14548016801310160ADF80650204618
:105CE000802101F0DEFA01280CD1BDF80600013850
:105CF000ADF80600BDF806000028F0D13A4801686A
:105D000001310160022000F0B1FC2046002101F0C9
:105D1000AFFA02200221BDE8BC4000F0D1BC00BFB8
:105D200010B5124C022120460222082300F027FE63
:105D3000204602210222202300F021FE20460021DD
:105D40000322082300F042FE2046002103222023E4
:105D500000F03CFE20460021082200F0AFFD204666
:105D600000212022BDE8104000F0A8BD000400483A
:105D70007CB5054600201B4CADF806004FF0FF3007
:105D80004FF6FF76ADF806002046022101F089FAB1
:105D900060B9BDF806000138ADF80600BDF8060090
:105DA0000028F1D1104801680131016020462946E0
:105DB00001F075FAADF806602046802101F071FA15
:105DC00001280CD1BDF806000138ADF80600BDF879
:105DD00006000028F0D104480168013101604FF647
:105DE000FF707CBD0030014010040020B0B588B0C9
:105DF000184C204602F0F2FEFF200690E9200490A5
:105E0000002504A920468DF81C50059502F020FFBE
:105E10004FF08070ADF80C5002900F486A46019028
:105E2000012000902046002102F0BAFD204600210A
:105E3000002202F0CCFE20460021702202F0ACFECF
:105E40002046012102F05CFF204602F0FBFE08B074
:105E5000B0BD00BF002C01400400020070B5044634
:105E60000120FDF79FFC01209121FDF74DFC08B1B9
:105E7000022070BD0120FDF7EBFB05460120FDF778
:105E800083FB0120FDF7E4FB06460120FDF7AEFB96
:105E90000120FDF7C3FC14B146EA05202080002054
:105EA00070BD0000064A00210C2905D052F82130AF
:105EB000834202D90131F7E70C21C8B2704700BF15
:105EC00038AB00080D480168090703D5416841F067
:105ED00008014160016889060BD509498068098974
:105EE000C1F30111012905D019B9C1B20648FEF765
:105EF0003BB87047C1B20348FFF7BABD1C38014038
:105F0000EC030020180500200C070020B0B5144C4D
:105F10000546204603F05AFE2046294603F030FE8F
:105F20002046002103F07BFE2046002103F09FFE67
:105F30002046002103F087FE2046042103F07BFE6B
:105F40002046082103F08BFE2046052103F05DFE6C
:105F5000204603F055FE034803490160B0BD00BF71
:105F60000038014034030020559B000870B5984D5F
:105F700095F82000122800F22281DFE810F01300CB
:105F800018001D002200270020012001200120010F
:105F90002C0045006000730083009500A800D60027
:105FA000E3000C018B48BDE87040FFF703BC894853
:105FB000BDE87040FFF796BB8648BDE87040FFF72C
:105FC00025BB8448BDE87040FFF748BB8148BDE869
:105FD0007040FFF7FBBA7F4CA54920462022FCF712
:105FE00075FE864D2146686AFEF7C4FDA86A04F175
:105FF0001001FEF7BFFD6878C0071ED0686E04F17F
:106000000801FFF745F818E0724C98492046202215
:10601000FCF75CFE794D2146686AFEF7ABFDA86A85
:1060200004F11001FEF7A6FD686E04F10801FFF708
:106030002FF86878C00700F0C280A86E0CE0654CAD
:10604000894920462022FCF741FE6C484078C00771
:1060500000F0B5808148406804F11801BDE8704047
:10606000FFF716B85B4C7F4920462022FCF72EFE36
:10607000624D6878C00715D0E86E04F10801FEF79C
:1060800079FD0FE0534C764920462022FCF71EFE96
:106090005A4D04F10801E86EFEF76CFD6878C00700
:1060A00000F08D80286F0CE04A4C63A1204620222E
:1060B000FCF70CFE51484078C00700F0808067482C
:1060C000006804F11801BDE87040FEF753BD414C73
:1060D000684920462022FCF7F9FD484E7078C00739
:1060E0000CD0288D6449C0F3811080F0020051F873
:1060F000201004F109000522FCF7E8FDB6F90C00B8
:1061000004F110010122FFF764F8B6F9100004F160
:1061100018010122FFF75DF830787F21002808BFC1
:106120006FF020016177617570BD2A4C0026082E42
:1061300045D005EB4600008A2146FFF70FFA0434EC
:106140000136F4E7234C2EA120462022FCF7BEFDA9
:10615000288D3449C0F30110334A012808BF0A468C
:106160003249002818BF1146E01D0722FCF7AEFD9A
:10617000288D10F0300F06D12D4804F10D01B0F933
:106180006400FEF7EBFF2B480068A98DC1F30311F3
:10619000405C207770BD0F4C0FA120462022FCF7F9
:1061A00095FD688D4FF4705101EA801004F10A01E9
:1061B0000122FFF7A0F811484078C00700D170BD58
:1061C000688D04F11B01000ABDE87040FEF7C6BFF0
:1061D000CC030020EA0600204C6F674D61783A201E
:1061E0002020203430393620496E74657276616C17
:1061F0003A202020202073200000000054030020BB
:1062000020554152543A205445524D202020202000
:10621000204261636B4C696768743A20302020200B
:1062200000000000E8B2000856B300081BB30008E5
:1062300068060020D400002055204D696E204D6175
:10624000782053657475702E536574537465703A75
:1062500020202020202020560000000008000020E0
:1062600064B3000885B30008A6B20008C7B20008EE
:1062700023B30008FAB20008989F00082DE9F04106
:10628000874E96F82000072816D006286BD00528E0
:1062900040F00381834C2046FFF78CFA04F1200084
:1062A000FFF720FA04F14000FFF7D8F904F160008D
:1062B000BDE8F041FFF7AAB97A4C844D7AA1204697
:1062C0002022A847824F04F10801F86EFEF752FC25
:1062D000386F04F11801FEF74DFC04F120007DA198
:1062E0002022A847786E04F12801FEF7D1FEB86E8F
:1062F00004F13801FEF7CCFE04F140007EA120221B
:10630000A847308D8549C0F30110854A012808BF90
:106310000A468449002818BF114604F145000322AB
:10632000A847814804F14D01B0F96400FEF716FF5B
:10633000708D4FF4705101EA801004F15501FEF7A1
:1063400093FFB08D79480068017884F85E10B18DB4
:10635000C1F30311405C84F85F0004F16000BDE804
:10636000F041FFF733B9724C72A104F110052846D1
:106370000822FCF7ABFC6C49DFF85481B1F84410FB
:1063800008F12C0001318FB2022F38BF08F1240030
:1063900000682946FEF7EEFB4120022F38BF562049
:1063A00004F11805E07566A128460822FCF78EFC6A
:1063B000D8F828002946FEF7DDFB308D04F12005D2
:1063C000C0071CBF6D20A07760A128460822FCF7FB
:1063D0007DFCD8F840002946FEF7CCFB308D5E49A5
:1063E000C0071CBF6D2084F8260020461022FCF751
:1063F0006DFC306B594990FBF1F0642190FBF1F298
:1064000002FB1100214600B2FEF7A0FB306B4FF4F7
:10641000616190FBF1F0182190FBF1F101EB41017A
:10642000A0EBC10000B2E11CFEF790FBD8F83000F1
:10643000E11DFEF79FFB308D04F12805C0071CBF4E
:106440006D206073464928461022FCF73FFC306BF4
:106450003C2790FBF7F090FBF7F1C1EB0111A0EBAB
:10646000810000B22946FEF771FB306B90FBF7F11B
:10647000C1EB0111A0EB810000B204F12B01FEF78A
:1064800065FBD8F8340004F12F01FEF773FB308D63
:10649000C0071CBF6D2084F83500BDE8F08100BF47
:1064A000CC0300205200002055204D61783A202076
:1064B00032302E303030305655204D696E3A202023
:1064C00020302E303030305600000000CD2C000837
:1064D00054030020552041646A3A202020312E3098
:1064E00030303030492041646A3A202020312E304B
:1064F0003030303000000000554152543A20202006
:10650000204144523A2020204C4F474D3A20202031
:106510002020424C3A20202000000000E8B2000871
:1065200056B300081BB3000868060020D400002002
:106530001A00002020302E3030303056000000008D
:1065400020302E30303030410000000020302E301E
:106550003030305700000000A6B300088051010021
:10656000B7B300082848B0F87600A0F110018AB24D
:10657000120942EA013189B2072905D8012202FA3B
:1065800001F111F08B0F01D1044800880449088003
:10659000800200F100604860704700BFE0F7FF1F15
:1065A0004C0300200B4A1849127802F0030201F153
:1065B0001000DFE802F00205080A01F11C0004E007
:1065C00001F1180001E001F114001049896E016029
:1065D000704700BF0A0700200A48007800F0030156
:1065E0000948DFE801F00205080A07480C3004E01A
:1065F0000548083001E0044804300449496E016050
:10660000704700BF0B0700206806002054030020DD
:10661000FEE7000080B540F63540052100F028F97E
:10662000A4484CF6CC41016080BD00BF0D48BFF3CB
:106630004F8F0D4A016801F4E06111430160BFF31F
:106640004F8F00BFFDE700BF0648BFF34F8F064ADC
:10665000016801F4E06111430160BFF34F8F00BF97
:10666000FDE700BF0CED00E00400FA053F4900EB38
:10667000800051F8202022F0010241F820207047CC
:106680003A4900EB800051F8202042F0010241F825
:10669000202070470E4A00EB800102EB81014B681D
:1066A000800023F001034B6000234B608B60CB60C4
:1066B0000B610F2101FA00F0116808431060704768
:1066C000800001FA00F002490A6810430860704730
:1066D00004000240800001FA00F003490968084004
:1066E00018BF0120704700BF0000024070B51F4A6C
:1066F00000EB800052F8203023F0010342F82030F4
:106700000C6802EB80039C60CC68DC600C8B5C60E6
:1067100052F820304C6823F47C530D69CE69234332
:106720002B43334342F8203052F820300D7A23F0C7
:1067300040040E7D012D08BF43F0400442F8204084
:1067400052F82030012E23F0800408BF43F080046B
:1067500042F8204052F82030497D43F010040029CF
:1067600008BF23F0100442F8204070BD080002402A
:10677000024A00EB800042F82010704714000240EB
:10678000034A00EB800089B242F82010704700BF36
:106790000C0002403548016841F0800101607047FB
:1067A000B0B504464FF4702000F016F800B1B0BD4B
:1067B0002E4D286840F0020028606C60286840F088
:1067C000400028604FF4702000F006F8296821F09E
:1067D00002012960B0BD00BF70B5441E0025013C18
:1067E00045F1000600F008F8012801D1002EF6D18D
:1067F000012808BF042070BD07480168C9071CBFF5
:10680000012070470168C9064FBF032000680221BC
:1068100001EA5000704700BF0C2002400448C168E4
:10682000090603D50349016003490160704700BFB1
:106830000420024023016745AB89EFCD70B50546C2
:106840004FF470200C46FFF7C7FF00B170BD074E34
:10685000306840F0010030604FF470202C60FFF78A
:10686000BBFF316821F00101316070BD1020024092
:10687000B0B5F64A45F2555313600F4B1C46D56828
:1068800005F0010514B10134002DF8D145B951606E
:10689000D16801F0020113B101330029F8D109B127
:1068A0000020B0BD6FF31F3090604AF6AA20106040
:1068B0000120B0BD003000400200F0FFF0B5D0F87C
:1068C00020E0446A00254FF00F0C0027082F0ED05F
:1068D00022FA07F6F60707D00CFA05F301FA05F6D7
:1068E0002EEA030343EA060E04350137EEE70825D6
:1068F00000264FF00F0C102D0CD022FA05F3DB0709
:1069000005D00CFA06F701FA06F3BC431C43043623
:106910000135F0E7C0F820E04462F0BD81627047C5
:10692000816170471823002A08BF28231950704737
:1069300010B500F138404FEAB02005280FD840F6D6
:106940001124DFE800F00F0306090C0D40F61224B5
:1069500008E040F6132405E040F6142402E010BDE0
:1069600040F61624204600F067FB2046BDE81040A4
:1069700000F056BB0069084018BF012070472DE9A0
:10698000F043D0F800E0D0F80C8000264FF0030C64
:106990000027102F14D023FA07F4E4070DD00CFAC7
:1069A00006F502FA06F928EA050444EA090801FA9C
:1069B00006F42EEA050545EA040E02360137E8E73B
:1069C000C0F800E0C0F80C80BDE8F083F0B5012904
:1069D000416814BF99431943416081684FF6FF74C1
:1069E000A24212D1C26B002401254FF0030C0027F4
:1069F000102F1DD005FA07F61E421EBF32430CFAB7
:106A000004F6314302340137F2E700244FF0030C5F
:106A10000026102E0FD023FA06F7FF0705D00CFA38
:106A200004F502FA04F7A943394302340136F0E7CA
:106A30008160C263F0BD8160F0BD00000348006862
:106A400010F0060018BF4FF0FF3070471C200240C6
:106A5000FCF776F8FCF7F2FAFCF75CFAFCF782FA3E
:106A6000FFF780FDFDF740F918B9FDF70BFCFDF7C6
:106A70008BFEFDF7C7FAFFF7B9F9FFF7CBFD7048BA
:106A80004FF47A710068B0FBF1F00138B0F1807F0B
:106A900000D3FEE76B49F02248606B48027000208B
:106AA0008860072008604FF090400121FFF762FFE7
:106AB00028B94FF090400221FFF75CFF50B34FF030
:106AC00090400121FFF756FF70B94FF0904002212E
:106AD000FFF750FF012807D1874800210170874840
:106AE000018D21F0040113E04FF090400121FFF7E8
:106AF00041FF012812D14FF090400221FFF73AFFE9
:106B000060B97D48012101707C48018D41F004018C
:106B1000018501E0FDF7B6FBFDF736FE764D4B4CE7
:106B2000287880B3FFF7FCF8FFF778F8FDF790FCC2
:106B30004AF6AA2020600020FDF760FC6F4EB08D61
:106B4000C0F3032086F8200096F82000072803D819
:106B500096F82000042802D8062086F82000B08D80
:106B60003B49C0F30310085C002180F0FF0204F5EC
:106B70007C4002F02CF8B08DC00732D0FDF778FED3
:106B8000FCF738FC26E0FCF755FFFCF745FF5B4EB1
:106B90002F49B08D000B86F8200096F820000528BC
:106BA00024BF002086F82000B08DC0F30310085CDD
:106BB000002180F0FF0204F57C4002F008F8B08D5F
:106BC000C0070ED00520FCF7E5F8FDF737FE0520DD
:106BD000FCF762FF4FF47A70FCF7DCF84AF6AA2063
:106BE00020601C48FCF730F818B14AF6AA20206053
:106BF000FDE7FCF7B1FE4148418DC9071CBF4FF0CE
:106C0000FF31E964818C4AF6AA2541F02001818494
:106C100002F052FD02F054F902F0E6F802F00CFF27
:106C200002F06EFF02F0AEFA02F02CFD02F0BCF9A9
:106C300002F070F802F036FA2560FCF7F5F9E7E7A4
:106C40001000002010E000E023ED00E000300040E4
:106C500062B20008ACF7FF1F10B5194B1C6804F4B2
:106C6000E064A4F54074B4F5A06F03D2230AC3F125
:106C7000040403E00C4C1C600223022499400F23FF
:106C8000E3401A401143094A090140EA020383F82C
:106C900000131C2101EAD00100F01F00012303FAB8
:106CA00000F0885010BD00BF0005FA0500E100E0CB
:106CB0000249084302490860704700BF0000FA0516
:106CC0000CED00E0024A1140084302490860704799
:106CD00080FFFF1F08ED00E00749084B8A7843F862
:106CE0002200501C00F0030088700FCB08441044B1
:106CF00018448010704700BF54030020CC030020CC
:106D00002DE9F84F384C3949394B20463222984703
:106D1000384F04F106093868DFF8DCB04946D84737
:106D2000786804F10E0A5146D847B86804F1160590
:106D30002946D847F86804F11E084146D847B7F8F5
:106D4000460004F126062D4B3146012298472C4976
:106D5000204688472B49264B2046322298473869DF
:106D60004946D84778695146D847B8692946D8472F
:106D7000F8694146D847B7F94800204B314601220F
:106D800098471F4920468847194E1FA120463C229C
:106D9000B0472A482A4D00684946A847294804F1C7
:106DA00014010068A847284804F122010068A84798
:106DB000B7F84A00114D04F12A010122A8471049F1
:106DC0002046884721A120462A22B047B7F8440030
:106DD00004F112010122A847386C4146D8470849FE
:106DE0002046BDE8F84F0847E40B00200FB8000824
:106DF000CD2C00086806002091500008F7520008CA
:106E0000D19C0008E2B7000820556D61783D323012
:106E10002E303030305620556D696E3D30302E307A
:106E20003030305620556879733D30302E35303053
:106E3000305631323334350A00000000C0030020E0
:106E4000754B0008C4030020140000202037356D66
:106E500056205348554E542052616E67653D31327D
:106E600033343541204761696E3D30312E3030304A
:106E700030300A00F0B5544B02461868534E00F00B
:106E80000C000828354627D11868C0F383451868D8
:106E90009C6A000104D4A81C0F2D08BF102001E03B
:106EA00005F11100002C48BF1F301C68996AE403EB
:106EB00003D4484900FB01F50EE09C6A490004F048
:106EC0000F0404F1010402D4B6FBF4F102E04049DE
:106ED000B1FBF4F101FB00F51868B446C0F30310F0
:106EE00019681C68062AC4F3C227C1F302260FD80A
:106EF00039A1085C3C4925FA00F4C85D24FA00F089
:106F0000DFE802F004080A3A0E1A22002846F0BD13
:106F10000020F0BD2046F0BD885D24FA00F0F0BDF1
:106F2000D96AC90529D4D86AC00330485CBF49F67C
:106F30008070C0F2D500F0BDD86A40064FF4004022
:106F400058BF48F21200F0BDD96A890714D0D86A38
:106F500000F00300012828460ED0D86A00F0030094
:106F6000022804BF4FF40040F0BDD86A00F00300CF
:106F70000328604618BF0020F0BD1A68D96AC2F322
:106F80008132C90FDFE802F00209101500290EBF97
:106F900040080320B4FBF0F0F0BD00290EBF8008CC
:106FA0000520B4FBF0F0F0BD51B10720B4FBF0F0C8
:106FB000F0BD00290EBFC0080920B4FBF0F0F0BD01
:106FC0000621B0FBF1F0F0BD0410024000127A007F
:106FD000006CDC0200093D00000000000000000021
:106FE000010203040607080969AB0008003FAB0172
:106FF00000F01F01012202FA01F1154A80098358AD
:1070000019438150704700BF00F01F01012202FAAE
:1070100001F10F4A8009835819438150704700BF1E
:1070200000F01F01012202FA01F1094A8009835888
:1070300023EA01018150704700F01F01012202FA8A
:1070400001F1034A8009835819438150704700BFFA
:107050000010024004490A6822F003020A600A682C
:1070600010430860704700BF3010024070B5794B84
:107070009A69900315D43848017801F00304DFE8D9
:1070800004F002432336744C744EE569B5429D66A4
:1070900002D9734DE5619D664FF69A739A421FDDE2
:1070A00059E06D486D4A01699142996602D96C496F
:1070B000016199662848017841F0030101706A482E
:1070C000818C41F4404145E0634C644E6569B542B2
:1070D0009D6602D9624D65619D66644B9A4227DDCB
:1070E00001F0FC01013101705F4801222FE05A4C90
:1070F0005A4E2569B5429D6602D9594D25619D6656
:107100005A4B9A421DDC26E0534C544EA569B542B9
:107110009D6602D9524DA5619D66544B9A420CDD85
:1071200001F0FC0101705048818C6FF39F3111E038
:107130004FF69A739A42BFDD0DE04FF69A739A426A
:1071400009DC01F0FC010231017047480222818C08
:1071500062F39F31818470BD0A07002070B53D4BFA
:107160005A69900315D43F48017801F00304DFE821
:1071700004F00248243B384C384EE568B5425D6661
:1071800002D9374DE5605D664FF69A739A4213DC7B
:107190001FE03148314A01689142596602D93049AD
:1071A000016059662F48017841F0030101702E48B3
:1071B000818C41F44051818470BD274C274E656815
:1071C000B5425D6602D9264D65605D66274B9A42E1
:1071D0002BDD01F0FC01013101702348818C21F489
:1071E000405101F58051E6E71B4C1C4E2568B54225
:1071F0005D6602D91A4D25605D661C4B9A42DBDD47
:107200001CE0154C154EA568B5425D6602D9144DBB
:10721000A5605D66154B9A420CDD01F0FC01017022
:107220001148818C21F44051C5E74FF69A739A4278
:10723000BADDC1E74FF69A739A42BDDC01F0FC015A
:10724000023101700848818C21F4405101F5005150
:10725000B1E700BF54030020680600207F96980025
:10726000A08601000B070020CC0300209BFF01003B
:107270006FF00102002908BF6FF00202416811405F
:10728000416070470122002908BF02224168114372
:1072900041607047016841F0400101607047C16082
:1072A00070478068084018BF01207047F0B5026839
:1072B00091E8F81002F441521A4322432A43324320
:1072C00089693A4342EA0C0211430160C16921F421
:1072D0000061C161F0BD0000054800210160054862
:1072E000016005480160054801608F4801617047F1
:1072F000900300208C0300208403002088030020DA
:107300002DE9F04385B0854D6C68ACB184A1204671
:10731000FAF744FFD0B3A86840B100210A22FAF777
:1073200085FF8149CA8860F30002CA807E48C08810
:1073300000F001017DA083E09A4802F0C9FC7A4D7B
:107340008F48B5F80680B5F80C90AF89EE884FF4F9
:107350000071FFF70FFB04464FF090400421FFF748
:1073600009FB2969CDE903010020CDE90140C6F3FD
:107370004000009008F00101C9F30312C7F3810334
:1073800089A002F080FC05B0BDE8F0836AA1204628
:10739000FAF704FFE8B1A868A8B100211022FAF7B3
:1073A00045FF61498A8922F0F00260F307128A8161
:1073B00088896349C0F30310085C002180F0FF0254
:1073C000604801F004FC58488089C0F303115EA0B6
:1073D00036E060A12046FAF7E1FED0B1A86890B18E
:1073E00000210A22FAF722FF4F498A8922F00C0273
:1073F00060F3830258488A81007820B18889C0F3FD
:107400008100FDF7E9F848488089C0F3810153A065
:1074100016E055A12046FAF7C1FEB0B1A86850B1F8
:1074200000210A22FAF702FF3F49CA8822F002022D
:1074300060F34102CA803C48C088C0F340014CA0C0
:1074400005B0BDE8F04302F01EBC4CA12046FAF79F
:10745000A5FEA0B13448C08880072DD5A8680028B3
:107460003FF491AF00210A22FAF7E0FE50B34448FE
:107470004FF4007105B0BDE8F043FFF751BA42A1E7
:107480002046FAF78BFE70B12748C088800713D5D5
:10749000A86800283FF477AF00210A2205B0BDE8B4
:1074A000F043FAF7C3BE39A12046FAF777FE88B158
:1074B0001D48C08880071ED4324805B0BDE8F0439F
:1074C00002F006BC2E484FF4007105B0BDE8F04351
:1074D000FFF724BA2EA12046FAF760FEC0B1A868D3
:1074E00028B100210A22FAF7A1FE0F4908610E48CF
:1074F000016929A0A4E7A86800283FF444AF00214F
:107500000A22FAF793FE28B14FF090400421B1E728
:107510002448D2E74FF090400421D6E738030020FA
:107520006563686F00000000EC03002020454348BD
:107530004F3D25640A000000626B6C74000000007F
:1075400062B20008002C014020424B4C543D2558AB
:107550000A0000006469720054030020204449526C
:107560003D25640A0000000074657374000000008B
:1075700020544553543D25640A0000006C656400A6
:107580000004004808B400086F7074006D6F730049
:1075900074696D65000000002054494D453D256C1F
:1075A00064000000E6B50008204543484F3D2564CF
:1075B00020424B4C543D2558204449523D256420DF
:1075C000544553543D2564204C45443D2564204F8B
:1075D00050543D2564204D4F533D25642054494D62
:1075E000453D256C640A00002DE9F041314D6C6881
:1075F000002C59D030A12046FAF7D0FD00B3A8687E
:10760000F0B3002110220026FAF748FE87B22C487A
:10761000DFF8B08000EB47042BA53F2E0ED0B91940
:107620003E290BD8700702D1404602F02CFB34F8FB
:107630001610284602F027FB0136EEE7244834E016
:1076400024A12046FAF7AAFDE0B1A868C0B1E96814
:10765000B1B100211022FAF721FEC4B2E86800217E
:107660001022FAF71BFE164921F8140081B21BA064
:1076700002F009FB1DA02146BDE8F04102F003BB6A
:10768000BDE8F08121492046FAF788FD18B1FBF7E3
:1076900069FC1FA009E025492046FAF77FFD18B1D3
:1076A000FBF77AFC22A000E02748BDE8F04102F099
:1076B0000FBB00BF3803002072656164000000004A
:1076C0006806002014BA0008253034582000000055
:1076D0000CBA00087772697465000000207772693F
:1076E00074652030782530345800000020746F20F5
:1076F000656570726F6D20616464726573732030AC
:107700007825303458202E2E2E0A00002CBA00087E
:107710004C6F61642066726F6D20496E742E204537
:107720004550524F4D2E2E2E0A00000041BA00083F
:107730005361766520746F20496E742E2045455044
:10774000524F4D2E2E2E0A0056B400082DE9F84F48
:10775000244C6068002843D0002110220026FAF74C
:107760009DFDB0F5803F38BF0646A06868B1002196
:107770001022FAF793FD4FF48077092807D3C6F556
:107780008031884238BF074601E04FF480771948BE
:1077900000250DF1020B81464AF6AA280FF24C0A89
:1077A000AF421AD07419280703D10F48214602F0BE
:1077B0006AFAA0B259460122FBF738FB18B15046CD
:1077C00002F086FA04E09DF80210094802F05BFA24
:1077D0004846C9F800800135E2E7074802F078FA28
:1077E000BDE8F88F3803002014BA00084646200090
:1077F0000EBA0008003000400CBA00082DE9F04F26
:1078000085B03B4F7868002857D038491022D1F80E
:10781000008000210024FAF741FDB4EB104F4CD159
:107820008146B868002848D0002110220025FAF7C8
:1078300035FD0646F86820B100211022FAF72EFD2A
:107840000546310A681E002201AB082A06D003EB68
:10785000420403F8121066700132F6E74FF6FF712A
:1078600000270DF1040A0122884228BF1546AF42C5
:1078700026D207EB0900112D07D34FF6F07108400F
:107880004FF0100B5146102204E080B24FF0020B73
:1078900051460222FBF708FB10BB5F440024FBF7B4
:1078A000B7FA0028E3D00120FBF786FA601C0B2C06
:1078B0000446F4D324A002F00BFA05B0BDE8F08F23
:1078C000B1B20CA04A4602F0DEF90848022DF4D30A
:1078D00000682946A0EB080211A002F0D4F9ECE7F9
:1078E0000146184802F0CFF9E7E700BFC8030020BF
:1078F0003803002020777269746520307825303491
:107900005820746F20656570726F6D2061646472B9
:1079100065737320307825303458202E2E2E0A00BF
:107920002077726974652030782530345820776F5D
:107930007264732074616B6520256C6420746963C4
:107940006B730A00ABB8000820454532345F4368CA
:1079500065636B427573792074696D656F75742EFC
:107960000D0A00002DE9F047524C53A12046322267
:10797000FBF7ACF95D484FF0010A007804F10F06FF
:1079800000F003000AFA00F040F03000207258487E
:1079900031460068FDF7F8FD564804F11608006806
:1079A0004146FDF7E7F8544804F11F0700683946DF
:1079B000FCF7B2FF514804F1260500682946FDF79F
:1079C00059FDDFF83C91B9F80800C0071CBF6D20D5
:1079D00084F82400204602F07BF94AA12046322296
:1079E000FBF774F954483146007800F003000AFAB6
:1079F00000F040F03000207250480068FDF7C4FDF0
:107A00004F4841460068FDF7B5F84E4839460068D2
:107A1000FCF782FF4C4829460068FDF72BFDB9F8BA
:107A20000800C00704D06B2084F825006D20207763
:107A3000204602F04DF9454920462822FBF746F939
:107A4000434804F10A010088FDF788FD41483146AA
:107A5000B0F900000122FDF7BCFB3F4804F117011B
:107A6000B0F900000122FDF7B4FB204602F030F926
:107A70003AA120462822FBF729F94048E11C00687A
:107A8000FDF778F83E4804F10D010068FDF772F843
:107A9000D9F810004146FDF7EDFCB9F80800C00721
:107AA0001EBF6D20E07460720248BDE8F04702F02E
:107AB0000FB900BFE40B002020553A205047413D4C
:107AC000382041443D307830304330374320203433
:107AD0002E393038315620302E303030305720207B
