:020000040800F2
:1020000038170020E12000088343000895380008B5
:1020100000000000000000000000000000000000C0
:102020000000000000000000000000001F50000839
:10203000000000000000000075440008CD5F0008AB
:10204000F3200008F3200008F3200008F320000824
:10205000F3200008F3200008F3200008F320000814
:1020600000000000F3200008F3200008F32000081F
:10207000F3200008F3200008F3200008000000000F
:10208000F3200008F320000800000000F3200008FF
:10209000F3200008F3200008F3200008F3200008D4
:1020A000F3200008F3200008F32000082D66000844
:1020B000F320000800000000000000000000000005
:1020C000F320000800000000F320000803488546C4
:1020D00000F004FD00480047E19700083817002091
:1020E0000448804704480047FEE7FEE7FEE7FEE7B6
:1020F000FEE7FEE74D600008CD200008004870476D
:1021000074D6000801464139192900D8203070479B
:1021100003460B439B0703D009E008C9121F08C000
:10212000042AFAD203E00B780370401C491C521EAB
:10213000F9D27047D2B201E00270401C491EFBD2B6
:1021400070470022F6E710B513460A4604461946C2
:10215000FFF7F0FF204610BD30B505462A460B4676
:1021600010781C78521C5B1C002801D0A042F7D0CC
:10217000002C03D0002802D06D1CEFE7284630BDAC
:1021800010B5044605E00B780370401C002B00D00E
:10219000491C521EF7D2204610BDCAB2401E4178DB
:1021A000401C8A4202D00029F9D100207047421C0D
:1021B0000178401C0029FBD1801A704730B50446D5
:1021C0000020034600E05B1C934203D2E05CCD5C40
:1021D000401BF8D030BD000070B5104D002800D174
:1021E0002868002414E00A4602E09E4203D0521CF4
:1021F0001378002BF9D1DAB2224307D0002B06D096
:10220000002C04D000210170401C04E00446401C56
:102210000678002EE7D12860204670BD000200201D
:1022200030B503461D78002D08D00A461478521C9C
:10223000002C03D0AC42F9D15B1CF3E7181A30BD77
:1022400030B50546002008E00A4602E0A34207D068
:10225000521C1378002BF9D1401C2C5C002CF3D1BC
:1022600030BD0000F7B5009C0F4600262578641CA1
:10227000002D05D0FFF742FF0068405DC007F5D193
:102280002B2D02D02D2D18D0641E39462046029ADF
:1022900000F030FB002F04D03968A14201D1009931
:1022A00039607105022400290BDA4042002803DD61
:1022B0000BF08CF90460A007FEBD012080020643EC
:1022C000E3E70028F8DA0BF081F904600048FEBD6E
:1022D000FFFFFF7FF7B582B00F460026029C0BF090
:1022E00075F90090006801902578641C002D05D0D8
:1022F000FFF704FF0068405DC007F5D12B2D02D029
:102300002D2D1CD0641E0098002101603946204606
:10231000049A00F0EFFA0146002F04D03868A0427A
:1023200001D1029838600098006802280BD000980C
:10233000019A0260700506D5484205B0F0BD012043
:1023400080020643DFE70846F7E7024670B54A40D9
:10235000D30FDB0740002DD04A002AD0010E140E07
:10236000000212020919400A520A8418E5010446C3
:102370005443000A120A2E045043A4194219200C97
:10238000C543AA18120C0125AD03521C52191204A0
:102390007F39240400D0521C104301D44000491E50
:1023A000C2B20C06C0092018401C4008802A02D086
:1023B00003E0002070BD40084000002900DA002042
:1023C000184370BD70B502464A40D50F40004A0020
:1023D000ED0740085208002814D0002A12D0C40D7E
:1023E000D30D41020120C0055202490A520AE41AE3
:1023F000091812187D34914201D3641C00E0490091
:10240000002C01DA002070BD0023914201D3891A0B
:102410000343400849000028F7D100290AD091421F
:1024200002D10121C90705E0914201D2012101E059
:102430000121C943E005C018401900F0AEFA70BD93
:10244000F0B507460846584087B0C00F04904800D2
:102450000E46590040084908BC1A884105D2384642
:1024600031461E4617460B460246580040081043A8
:102470004CD0300D039040055900400D490D05909A
:10248000401A0290402872DA18030121000B090556
:102490000843019004980092002805D00199524207
:1024A0000020884100920190029840210A1A019967
:1024B000009800F0EBF905460C466B4607CB00F0A0
:1024C00006FAC0197141039A0E0D0023D717564022
:1024D0001A467A40164344D0049A002A2DD0029A14
:1024E000012A039A15DC1205C01A9141012636050E
:1024F000001C7141D20F059ED207009301920296F3
:102500002A46234600F097FA07B0F0BD3846314618
:10251000FAE71605224A0F46B218C01AB741012140
:102520000905001C4F4100187F41114618187941D8
:10253000E20F10436D19644113E0E2076D08154383
:102540006408C2071443039A01261205C01A914178
:102550003605001C7141CE07400830434908C018B9
:1025600051412A46234600F059FACDE7FFE7049887
:1025700001224000C117121A00238B4104983146F2
:10258000C417381AA141EEE730B40124E4076340D0
:1025900030BC55E730B40124E407614030BC4FE75C
:1025A0000000E0FFF0B51FB488B00B990998002433
:1025B00048400999C00F490049080991C0070B9983
:1025C0000090490049080B9109990898A6460843CC
:1025D0001CD00B990A98084318D009980124400090
:1025E000420D4800410D099824050003000B2043CB
:1025F00009900B980003000B20430B9050181C49C6
:102600004018002201901446104605E000200146C3
:102610000DB0F0BD032801DA034600E003239C4619
:10262000C11A0AAE0AE05F0008ADED5B4F00F75B30
:102630007D430027AA187C41491C5B1E6145F2DDE1
:10264000410004AB5A522104120C0A43240C401CD2
:102650000828DFDB019802900099704601910090F4
:10266000059B049A0799069800F0E5F9D0E7000069
:102670000DFCFFFFF0B50C465C4085B0E40FE407AD
:1026800003944C0000266408590094464908024609
:102690000296224321D062460A431ED06200570DA3
:1026A0004A000E032303550D012402462C4924053C
:1026B000781B1B0B360B40182343264361460090C2
:1026C0001C46501AB44103D30098401C009002E00D
:1026D000921800985B41002803DA0020014605B0FB
:1026E000F0BD0020012109050746864611E0644639
:1026F0001D46141BB54106D36546521BB3417446B3
:1027000007430C43A646CD074008490828439218C2
:102710005B4105460D43EAD11046184313D060468D
:10272000194650407140084306D06046101AB34124
:1027300006D20122002306E000220123DB0702E08B
:102740000122D2435310009874460105381C6141A0
:10275000029C039D0019694100F060F9BFE7000089
:10276000FD030000C217C10F504010B54018CA0742
:102770009623002100F019F910BD10B50022962310
:10278000114600F012F910BD0EB5C217C10F50402E
:10279000CA0740180021054B0293019200910A4696
:1027A0000B4600F048F903B000BD00003304000000
:1027B000C20F410040020123400ADB05D207090E87
:1027C000C0187F2901DA00207047962903DC962380
:1027D000591AC84001E096398840002AF4D0404296
:1027E0007047000070B5CD0F4A0009030123090BA3
:1027F0001B0519430B4BED070024520D9A4201DAD9
:10280000002070BD074B34339A4203DC9A1A00F063
:102810004DF802E00449511888402C43F1D0404261
:1028200070BD0000FF030000CDFBFFFFC20FD20709
:10283000400040080BD0C10D0723DB01C91840023E
:102840000905400A1143C2084007114370470020A0
:1028500001467047CB0FDB07490010B54908024617
:102860000A4307D00A0D07240903E401090B121BD0
:10287000002A01DC002010BDC900440F0C43C10038
:10288000E018D205801800F088F810BD10B5202A95
:1028900004DB0146203A9140002010BD91402023E6
:1028A0009C1A0346E3401943904010BD10B5202AFE
:1028B00004DB0846203AD040002110BD0B46D3402F
:1028C000D0402024A21A91400843194610BD10B5EB
:1028D000202A06DBCB170846203A1041C1170B43CC
:1028E00006E00B461341D0402024A21A9140084331
:1028F000194610BDF7B582B0029C00272078641CF1
:1029000015460197302802D0002D15D015E020780B
:102910000127641C782804D0582802D0002D09D043
:102920000BE0002D01D0102D07D1002710252078B5
:10293000641C02E0082500E00A250026009610E04D
:102940000099012769430818020C294680B2714397
:1029500000908E183804864201D30120019020781F
:10296000641C294600F0CCF80028E9DA0398002816
:1029700005D0002F01D0641E00E0029C0460019885
:10298000002806D00AF022FE02210160C81E05B010
:10299000F0BD009930040843F9E7002904DA401C2F
:1029A000490001D140084000704770B40024050C74
:1029B00005D11024000402D1002921D01124050ED4
:1029C00001D100020834050F01D10001241D850F3B
:1029D00001D18000A41C002801DB4000641C0029F8
:1029E00008D020252E1B0D46F540A14000D0012126
:1029F0002943084301061B1B000ADB1D02D50020EA
:102A000070BC7047DB05181880180029F8DA401CE4
:102A10004900F5D170BC40084000704710B5002B4C
:102A200008DA0024401C614192185B411A4301D12D
:102A30004008400010BDF0B51FB482B005460C0040
:102A400003D008460AF0AAFD02E00AF0A7FD2030F4
:102A50000246009021462846FFF718FF049B059A7E
:102A600004460F4618431143084314D01846104338
:102A70001BD0009840210A1A18460599FFF716FF47
:102A800005460E46009A05990498FFF7FFFE084395
:102A900005D0012004E02046394607B0F0BD0020F3
:102AA000C11705430E432C43374300990E98630525
:102AB000401A7905E40A00220C43FD0A0A3002D5C7
:102AC00000200146E9E70105101969410C9C0D9DA4
:102AD00000196941FFF7A2FFDFE70000064C01255E
:102AE000064E05E0E36807CC2B430C3C98471034B6
:102AF000B442F7D3FFF7EEFAF4FC000824FD000817
:102B00003A2800D23038202302469A43412A01D382
:102B100010463738884201D30020C043704770B553
:102B20008C180578401C6B075B0F01D10378401CA3
:102B30002A1106D10278401C03E006780E70401C72
:102B4000491C5B1EF9D12B0705D40023521E0DD45E
:102B50000B70491CFAE70378401CCB1A921C03E067
:102B60001D780D70491C5B1C521EF9D5A142D8D3AB
:102B7000002070BD80B5174840F2002104F005FD2B
:102B80001548C08C4007154842F2000104D480BCAF
:102B900004BC964604F0F9BC80BC04BC964604F024
:102BA000F2BCC04680B50B4840F2002104F0EBFCBB
:102BB0000948C08C4007094842F2000104D480BC97
:102BC00004BC964604F0DFBC80BC04BC964604F00E
:102BD000DCBCC0460004004868060020000800482D
:102BE000F8B582887A2A00D37A2241885218532A6B
:102BF00001D900212CE01346002404760327C77571
:102C0000827A827500900546163518468AB290423F
:102C10000FD99200104B9B58264622460BB11E88B6
:102C2000320ABBB2EA547A1C92B2AE54491CBF1CA1
:102C3000ECE7F81E009C2076BEB22846314601F033
:102C400037FBA855000A791C89B268542046B91C84
:102C50000173C8B2F8BDC046E0030020F8B5828811
:102C60007A2A00D37A2241885218422A01D90021B7
:102C70002DE01346002404760422C275827A827500
:102C8000009005461635032718468AB290420FD9A0
:102C90009200104B9B58264622460BB11E88320AE2
:102CA000BBB2EA547A1C92B2AE54491CBF1CECE78A
:102CB000F81E009C2076BEB22846314601F0F8FA94
:102CC000A855000A791C89B268542046B91C0173C2
:102CD000C8B2F8BDD802002010B504461020E07537
:102CE0000020A076A07AA07560886076217AE176CF
:102CF000000A207620461630062101F0D9FA207706
:102D000008212173000A6077084610BD10B50446FB
:102D10000621C175807AA07560886076A288E27607
:102D2000000A2076100AA0762046163001F0C0FA7C
:102D3000207708212173000A6077084610BD000043
:102D400070B52B480168016001680160016801608D
:102D500028490A68102313430B600168264A0A4079
:102D600002601F21090402680A43026001210A0669
:102D7000011F0B6813430B600A689201FCD50168C0
:102D8000032291430160016802220A430260016844
:102D90000907FCD5032007F03FF840F20054201D3E
:102DA00007F01AF8A01C07F017F840F20050113095
:102DB000124EB04740F200501230B04740F200507F
:102DC0001330B04740F20050B0470D4C601CB04784
:102DD0000C4D2846B0472046B0470E352846B04730
:102DE000E01CB04770BC01BC864603F0F1B8C04699
:102DF0000410024000200240FFFFC277C59D00087A
:102E00000B0600000E0700001FB502466846362379
:102E1000037013784370537883709378C370D378BA
:102E2000AA2444710371137983715379C37193791F
:102E30000372D379252484724372137AC372537A4E
:102E40000373937A4373D27A9B23C373827303F021
:102E500059F9009801994140029A4A40039850401C
:102E600004B010BD01463039CAB20A2A01D2C8B234
:102E700070472D2815D06D2815D03A2815D0412837
:102E800015D0442815D0452815D0502815D05628DF
:102E900015D0572815D0682815D02E2815D10B210C
:102EA000E5E71221E3E71121E1E71021DFE70D213A
:102EB000DDE71421DBE71321D9E71521D7E70C2142
:102EC000D5E70E21D3E70F21D1E70A21CFE701880B
:102ED00049B9418839B9818829B9C18819B90189A5
:102EE00009B9408908B1002070470020C0437047ED
:102EF00070B5BB48018E428E120452185F4B818E12
:102F0000C48E24046518018F448F24046418818FB3
:102F1000C08F000446189A65DD651C665E66002158
:102F2000C843AA4203DD9B6AAB4204DA05E006DA35
:102F30009B6AAB4202DA934200DD084670BDB442A0
:102F400003DDDA6AB24204DAF7E7F7DADA6AB242A4
:102F5000F4DAA242F2DDF0E7FEB50103002601201B
:102F600001900296102E17D030020C46411840F204
:102F700000150A4F384640F2001204F03BF835B114
:102F8000791C6D1E3878FF280F46F8D002E0761CB9
:102F90002146E7E70298FEBD0198FEBD34120020ED
:102FA000FFF7EEB8F8B504469620205C2070234663
:102FB00096335A786270D878997809020D1865802E
:102FC0005879197909020918A180032A0BD0102A0F
:102FD0000FD0062A2BD0042A3FD12069E8BB204617
:102FE000FFF73CFE2FE02069B8BB2046FFF7F8FD55
:102FF00029E020729979617208282ED84200914206
:103000002BD121469E310022D54390421FD06688A5
:103010009619522E08D8B600104B9E5926B14F5D16
:103020003F020B78FB183380891C521CEDE7522DB0
:1030300013D8A800094A105878B10180206960B9F6
:103040002046FFF763FE0020C0432061F8BD2069E1
:1030500018B92046FFF740FE2561F8BDE0030020C7
:10306000B0B506498A6F0F4B0F4C1546AD1A854215
:1030700003D21C6000BF8D6FF8E7B0BDEC050020E7
:10308000BCB501A90880074C074D01A801884A1E5C
:10309000028029B140F2703000F008F82560F4E7B2
:1030A000BCBDC04600300040AAAA000081B06946FD
:1030B00008800098800008800098001D08806846FD
:1030C00001884A1E02800029F9D101B07047000032
:1030D000F8B5444DA81C00218022434C40F28033B7
:1030E00008290CD016461E402E43871E3F8836887E
:1030F0000FB9A64210D080328030491CF0E7374E1D
:10310000002030800AF032FA3088C00140190AF0FD
:1031100033FA0AF037FA02E0304A11800488204678
:10312000F8BDC046B0B52D48018807220A4002808C
:10313000D00108494218931C0024294A7C2C03D052
:103140001D5B1553A41CF9E7084300887C215052ED
:10315000B0BDC046021C0008F8B5204F38880726CD
:10316000304038801E4C3E21204601F0B9F805461B
:103170000AF0FCF93988481C30403880C90140F217
:1031800000128A1840F280311140164E8A5B164BAD
:103190009A4203D088190AF0EFF93888C0013746FF
:1031A000801929040AF0F4F90546002086B23D2E64
:1031B00010D87000215A2218528812045118381859
:1031C000064A1288D2018018001D0AF0E1F905466E
:1031D000B01CEBE70AF0D6F9E8B2F8BDB809002058
:1031E00038090020001C0008FFFF000003480168A8
:1031F00004229143016030BF7047C04610ED00E0EB
:10320000F0B587B00920C606C04C3046A047C0487C
:10321000A047C048A047002506950127BE4C304670
:1032200029463A463B46A0470223059330462946A5
:103230003A46A0470424304639463A462346B64D1E
:10324000A847304606990A462346B44DA84730465B
:103250002146B34A90470824304639463A46234629
:103260000394AD4DA84710230493304639463A469F
:10327000A847304639463A462346A84CA047304630
:1032800039463A46049BA0472023029330460699CC
:103290003A46A84740230193304639463A46A84764
:1032A0008024304639463A4623469B4DA84730464F
:1032B00039463A46019B994DA847304639463A4629
:1032C0002346A8473046059C2146224640F200137B
:1032D000914DA847304606993A4640F200138F4D6B
:1032E000A847904B3046214640F20012984730469E
:1032F00021463A4640F20023874DA84730460699BA
:103300003A4640F20023854DA8473046394640F200
:103310000022844B9847304621463A4640F200430B
:103320007D4DA847304606993A4640F200437B4C13
:10333000A0473046394640F200427A4B9847304623
:103340003946059C224640F60003734DA847304697
:103350003946224641F20003A84730463946224604
:1033600042F20003A84730463946224644F20003A1
:10337000A8473046069D29463A4640F60003674C6A
:10338000A047304629463A4641F20003A04730465E
:1033900029463A4642F20003A047304629463A46BB
:1033A00044F20003A0475A4C204639462A463B4681
:1033B000594EB047204629462A463B46574EB0470D
:1033C0002046394604F0DFF8204639462A46059C57
:1033D0002346514EB0474E4829462A4623464F4E73
:1033E000B0474B4E3046214604F0CDF830463946C2
:1033F0002246039B484EB047454E3046394622464A
:10340000049B454EB047424E304639462246029B09
:10341000414CA047304629463A46039B3F4CA047C3
:10342000304629463A46049BA047304629463A464C
:10343000029BA0473046344639463A4640F20023C4
:10344000354EB047204629462A4640F20023334EE7
:10345000B047204640F20021314A90472046059966
:103460003A4640F600432C4EB047032220462946F8
:103470001446049240F60043284EB0470621244EDD
:10348000304640F60042274B9847304639463A4688
:1034900041F20003204EB0471D482946224641F222
:1034A00000031E4EB0471A4E304641F200011C4A3E
:1034B0009047304605992A464EF20003164CA04725
:1034C00030462946049A4EF20003144CA047304679
:1034D00029464EF20002134B98470E4C20463946BF
:1034E0002A4642F200030C4EB047204629462A469F
:1034F00042F20003094DA847204642F20001084A63
:1035000007B0F0BC08BC9E461047C0469D75000839
:103510000004004800080048FF7500083D760008D8
:103520008B75000831750008F0B585B01D4614464E
:10353000C21DD2B20B460F33DBB201F0B7FC2C2018
:1035400001F03BFD02950DB11F2501E0944805886F
:10355000203CE0B2BE49098804910021FF2201927B
:103560000001154B18180090BA4E0F4610291AD0BA
:10357000029810B10F29019B01D00098435C039180
:103580000024072C0CD8D807284600D00498020A3B
:10359000B9B2725471184870641CBF1C5B08F0E724
:1035A0000399491CE2E7AB4840F2001105B0F0BCBA
:1035B00004BC964601F0E6BC88D60008F0B585B09C
:1035C0000D4606461046FFF74DFC044630460F30C8
:1035D000C2B228461F30C3B23046294601F066FC0D
:1035E0002C2001F0EAFC6E4803889948008804907A
:1035F0000026A001134A10180190964C31460296FD
:10360000402915D001980391475C029A072A0CD8EB
:10361000F807184600D00498050AB1B2655461183D
:103620004870521CB61C7F08F0E70399491CE7E775
:10363000884840F2004105B0F0BC04BC964601F059
:10364000A1BCC04698DC0008FEB5814840F2E0719C
:10365000018005465248002404800094224E102325
:10366000029320462146324600F0A2F84B482880BB
:1036700032461032112108271C4D20463B46A847F0
:1036800040F2E0701F307249088032461832302113
:1036900020463B46A84745486D49088032462032BF
:1036A0004F2120463B46A84740F2E0706849088019
:1036B0000F4600942836702120463246029D2B4644
:1036C00000F076F81F2038807F26204631462A46B3
:1036D00000F09AF86F222046314603B0F0BC08BCD7
:1036E0009E4600F091B8C0461A020020E537000857
:1036F000FEB55749294808802948002404800094D1
:10370000284E1027284D2046214632463B46A847E2
:10371000009432461032204639463B463D460297D9
:10372000214FB84740F2E071494801800094324689
:103730002032202120462B461B4DA84700943246BC
:10374000303230212046029D2B46174FB84740F2B9
:10375000E0711F313E4801800094324640324021E2
:1037600020462B46104FB847009432465032502125
:1037700020462B46B8470D4835490880009432460C
:103780006032602120462B46B84700947036702185
:10379000204632462B46B847FEBDC046E0FF00003B
:1037A000E406002052020020B13700081FF8000094
:1037B000FEB51C460292019107460026089800902B
:1037C000012520060DD00298825D52B1009BF34086
:1037D0002B40F8B20199FFF7A7FE761C641E08374C
:1037E000EFE7FEBDF8B51C4615460E460746200617
:1037F00009D02A783AB1F8B23146FFF7DFFE641EED
:1038000010376D1CF3E7F8BD70B513460C4605463E
:103810001146224601F04AFB2C2001F0CEFB601B32
:10382000401C81B20A4A1288130A0024094DE6B2EC
:10383000B14205D97600AB55761CAA55641CF6E753
:103840004004010C034870BC04BC964601F09ABBCE
:1038500018020020340E0020072803D0062803D0C9
:10386000052803D1FFF744BFFFF7EEBE7047000005
:10387000022804D840B2800003A1085870470148CC
:103880007047C04618EB00080AEB0008FEEA000883
:1038900004EB0008FEE7000070B50546022801D0E1
:1038A000082100E040210920C406204603F06BFEF9
:1038B00003207D490E468847022D01D0102500E0E7
:1038C00080252046294603F060FE0520B0472046AB
:1038D000294603F058FE0220314670BC04BC9646CF
:1038E0000847C04670B50546022801D0082100E00F
:1038F00040210920C406204603F047FE03206A4900
:103900000E468847022D01D0102500E08025204674
:10391000294603F03AFE0520B0472046294603F029
:1039200032FE0220314670BC04BC96460847C046B1
:10393000F0B587B00446022801D0082000E04020FE
:1039400005900920C0060390059903F01EFE022C85
:10395000009401D0102000E080200290002101207E
:1039600001900691019D504F029C07291ED82846C0
:103970000491B847039E3046214603F004FE05201B
:10398000B8473046214603F000FE0320B8473046D2
:10399000059903F02FFE06460220B84704992E40F1
:1039A0000698400030180690491CDEE7009802286F
:1039B00001D0102100E08021039803F0E4FD0220F3
:1039C000FFF774FB0698C0B207B0F0BDFEB50291D8
:1039D000022801D0102600E080260228009001D0A5
:1039E000082000E0402001900920C706002401259E
:1039F000082C17D00298A040C0B2C20938460199DD
:103A000003F0C5FD2846FFF751FB3846314603F069
:103A1000BCFD0520FFF74AFB3846314603F0B3FDF5
:103A2000641CE5E702242046FFF740FB009D022DC1
:103A300001D0082100E04021384603F0A6FD2046D1
:103A4000FFF734FB2846FEBC02BC8E4600F050B89F
:103A5000F8B50646022801D0082400E040240920D9
:103A6000C5062846214603F090FD022E01D01026FF
:103A700000E080262846314603F087FD05273846BA
:103A8000094988472846214603F07DFD3846064906
:103A900088472846314603F076FD02200249F8BCEB
:103AA00004BC96460847C046AD30000870B50646CF
:103AB000022801D0082400E040240920C506284639
:103AC000214603F060FD022E01D0102100E080218C
:103AD000284603F05AFD0520FFF7E8FA284621465C
:103AE00003F053FD042070BC02BC8E46FFF7DEBA23
:103AF00070B50646022801D0102400E08024092079
:103B0000C5062846214603F040FD0320FFF7CEFA04
:103B1000022E01D0082100E04021284603F06AFD72
:103B200006462846214603F02EFD0220FFF7BEFA86
:103B3000304670BDB0B5F64C204641F2000103F0AE
:103B400022FD482001F044F8FF2001F041F805462D
:103B5000204641F2000103F018FDE8B2B0BDC046B6
:103B6000F0B51749174A904228DB184A904201DD08
:103B7000154923E00025164B0124164A1BB22EB22C
:103B80009E420ADCF7187E10A743D75F874202DC0B
:103B900011DA751CF3E7731EF0E75900515E7400EB
:103BA000125F521A401A0A21484390FBF2F059431F
:103BB0000818034901E00A207043411808B2F0BD1B
:103BC00018FC00001FF2FFFFBE1E0000E57F000092
:103BD0007703000052E2000880B51248018D890683
:103BE000890F0AD001291CD1E120400202F042FDD8
:103BF00080BC01BC864608F061B80B490978008D8D
:103C00000005000FB0FBF1F24A43801A800007491B
:103C1000085802F02FFD064880BC02BC8E4600F01A
:103C200097BB80BD6806002048E2000818E2000843
:103C30005C0D002010B501F011FA044601F02CFAD9
:103C400015490A88D3087D2B02D340F2E83200E000
:103C5000521C0A80012C02D108B9032010BD1CB9E6
:103C6000012801D1052010BD022C02D108B9042081
:103C700010BD1CB9022801D1062010BD012C03D1B2
:103C8000012801D1072010BD022148404C400443C7
:103C900060426041C00010BDDE06002010B501206A
:103CA0000024214600F0B4F858482021202C02D0EE
:103CB0000155641CFAE710BDF8B505261A493046CF
:103CC000884730270024194D38462146A8473046FA
:103CD0001549884738462146A847012528461249F4
:103CE000884738462146114A904728460E4FB84724
:103CF0002827384621460D4A904730460A498847CA
:103D00000B4E38462146B04708202146B0470620D2
:103D10002146B0470C202146B0472846214632466E
:103D2000F8BC08BC9E46104781300008193F0008C7
:103D3000113E000870B503281BD8810001A251185C
:103D40008F46C04600F006B800F022B800F030B848
:103D500000F03DB880200024214600F059F82B4E99
:103D60000125082C51D0305D294600F051F8641C23
:103D7000F7E780200024214600F04AF8234E012571
:103D8000102C33D0305D294600F042F8641CF7E770
:103D900088200024214600F03BF81C4E0125082C09
:103DA00033D03019007A294600F032F8641CF6E767
:103DB000C020002100F02CF81025144E0124182DED
:103DC00023D0705D214600F023F86D1CF7E7C82072
:103DD000002100F01DF818250C4E0124202D14D0D0
:103DE000705D214600F014F86D1CF7E7C020002438
:103DF000214600F00DF80125102C06D03019007C6A
:103E0000294600F005F8641CF6E770BDBA090020E9
:103E100080B500F007F80A2080BC02BC8E46FFF790
:103E200045B90000F8B50E4605465F4C20212046F6
:103E300003F0A9FB0821204616B103F0A6FB01E020
:103E400003F0A1FB1021334A204690470A26574928
:103E500030468847280656490C461034002820462C
:103E600000D5084640F6000202606806204600D5EC
:103E7000084641F200020260A806204600D5084626
:103E800042F200020260E806204600D5084644F2ED
:103E9000000101603046454988472027424839469D
:103EA00003F073FB3046414988473F483946194A79
:103EB00090473F492807204600D5084640F60002B3
:103EC00002606807204600D5084641F20002026001
:103ED000A807204600D5084642F200020260E80723
:103EE00000D00C4644F20000206030462F490D46B9
:103EF00088472D4C2046394603F047FB3046A847FB
:103F000020463946034AF8BC08BC9E461047C046C6
:103F10000004004887750008F8B50E460546224C97
:103F20002021204603F02FFB0821204616B103F084
:103F30002CFB01E003F027FB1021204603F023FBBC
:103F40000A261A4F3046B8472A0619490846103043
:103F5000002A024600D50A4640F6000313606A06AE
:103F6000024600D50A4641F200031360AA06024643
:103F700000D50A4642F200031360EA0600D508465F
:103F800044F2000101603046B8472025204629460A
:103F900003F0FBFA3046B84720462946F8BC04BC7B
:103FA000964603F0F0BAC04600040048AD30000861
:103FB00018000048F8B5184940F20015194B1A4E80
:103FC0001A4F1B4A1B480C460834CD6408654A65E5
:103FD0008C65CF6518480088CE620B63104A4A632F
:103FE0000E4A8A63CD630D6441F200024A6488641C
:103FF0002831124805F024F901461148828841B160
:10400000104B1A40828010A0F8BC04BC964609F000
:1040100082B92A438280F8BD8C050020A573000870
:10402000597300086D73000889730008200A002086
:10403000200B0020200C002038050020DC09002087
:1040400088060020FFFE0000206D6F756E742065ED
:1040500072726F722025642C2074727920666F72E0
:104060006D61742066696C652073797374656D2069
:1040700066697273742E0A00F8B5B94C382120466F
:1040800000F02EF930B1B648392100F029F908B115
:104090000020F8BD6020215A4848C1806221615A41
:1040A00001816621615A4181218862881204551874
:1040B000434B1D606821615A81814249424A9542C1
:1040C00003D9218019600B0C6380238A658A2D0433
:1040D000ED183E4B1D60954203D9218219600B0CEF
:1040E0006382238C658C2D04EB18394E3360394D77
:1040F000AB4204D9218431600B0C63840B46A68C3F
:10410000E78C3F04BF19344E37606D1CAF4201D2BB
:104110009F4203DB0023E384A3843360238D658DFA
:104120002D04ED182D4B1D604E1EB54204D90025FF
:1041300065852B4D25851D60A38DE58D2D04EB1820
:10414000934203D90023E385264BA3854A23E55AEE
:10415000642D01D30425E552238E658E2D04EB18C2
:10416000214D2B60A38EE58E2D04EB181F4D2B6087
:10417000238F658F2D04EB181D4D2B60A38FE58FCA
:104180002D04EB181B4D2B604023E35A2546403588
:104190006D882D04EB18934202D9A185090CE185A5
:1041A00001894907C90F144A117080890007800FDF
:1041B000124908700020C043F8BDC04688060020A0
:1041C00054060020A08601007F9698005806002023
:1041D0005C0600203F420F00600600201402002011
:1041E00088130000A8610000440600204806002053
:1041F0004C06002050060020EC050020D8060020C8
:10420000F8B5D1B30D460446002008602046FFF7FC
:104210001FFCD1212046FFF7D9FB194E2046B0479D
:1042200037460646174920468847B007C017FF2182
:104230000906014030042A6802430A432A602046E6
:10424000B847064620460F4988473002296801438F
:1042500029602046B847064620460A49884728680C
:10426000304328602046B84705462046FFF73AFB12
:104270002046FFF71BFC2846F8BD0020F8BDC046CD
:104280003139000899380008B0B50C460546FFF7EB
:10429000DFFBD0212846FFF799FB28462146FFF790
:1042A00095FB2846B0BC02BC8E46FFF7FFBB000062
:1042B000F0B5184D0022184B14468C420DD0065D07
:1042C00075401646072E06D86F08ED0700D05F40F0
:1042D0003D46761CF6E7641CEFE7A8B2F0BDC04689
:1042E000F0B50C4D00220C4B14468C420FD06600EA
:1042F000865B6E401546072D06D87708F60700D076
:104300005F403E466D1CF6E7641C3546EDE7A8B2FB
:10431000F0BDC046FFFF000001A0000010B50A4636
:10432000C17AA1B10446808A401CA08280B290422A
:104330000DD93F200140E17220469630FFF7B8FFCB
:1043400010B92046FEF72EFE0020A082E07210BDBC
:104350000021C1726422024B9A5C81828272704792
:1043600038090020024600209082D37A402B01D3E6
:10437000D0727047581CD072D018962281540846CB
:1043800070477047F0B51749174A904227D8A128BF
:1043900001D2164923E00025B4230124144A1BB29C
:1043A0002EB29E420ADCF7187E10A743D75B8742E5
:1043B00002D311D9751CF3E7731EF0E75900515A67
:1043C0007400125B521A401A0A21484390FBF2F023
:1043D00059430818034901E00A207043411808B204
:1043E000F0BDC046D4FE0000C3E00000DC050000C4
:1043F000D0F400081B20012105F01EBBF0B51849C0
:10440000184A904229D3194A904201D9164924E00A
:10441000002440F25C350123154A2DB226B2AE428B
:104420000ADC77197E109F43D75B874202D811D2EE
:10443000741CF3E7751EF0E77100515A6B00D25AF5
:10444000521A401A0A21484390FBF2F071430818AF
:10445000034901E00A207043411808B2F0BDC0468C
:1044600030F800003D070000C8190000FE81000080
:104470003AF6000870470000F0B585B000AB07C3FE
:1044800000202E26184F04900446A4B202988442BD
:1044900025D201982118134808F03DFF0098039495
:1044A0000419049D102D05D0615D384608F033FFD6
:1044B0006D1CF7E7049D102D0BD0605D014620397F
:1044C000C9B25F2900D33046C0B208F031FF6D1C7D
:1044D000F1E7A84808F044FF039C1034D5E705B085
:1044E000F0BDC04619F3000813F30008B0B5002072
:1044F000114CA047014611A0154DA8470120A04727
:10450000014614A0A8470220A047014616A0A847CC
:104510000320A047014619A0A8470420A047014650
:104520001BA0A8470520A04701461EA02A46B0BCF4
:1045300008BC9E461047C0469D9C000820434B5F28
:104540005359532020203D20256C640A00000000B0
:1045500017D3000820434B5F4148422020203D20D4
:10456000256C640A0000000020434B5F415042313B
:1045700020203D20256C640A0000000020434B5F92
:104580004150423220203D20256C640A000000008A
:1045900020434B5F4144432020203D20256C640A8A
:1045A0000000000020434B5F5553415254203D20F2
:1045B000256C640A00000000F0B587B000201021CF
:1045C00003916A4E0290049001461A484078814255
:1045D00028D21AA0019108F09EFE029F049810288C
:1045E00018D005900697039D049C55B13846FEF7F8
:1045F000B3FC5D490E606D1E80B2A84004437F1C71
:10460000F3E7A1B25A4808F086FE069F10370598D6
:10461000401CE4E740F20010029909180291019948
:10462000491CD2E7044807B0F0BC02BC8E4608F033
:1046300097BEC04638050020EBE900080A25303453
:1046400058200000F0B591B002910246224803A91B
:10465000012304F0BBF9002838D41F4803A9414EB8
:10466000324640F2001304F04DFA0746002005469A
:104670000190012F21DB00BB019CA7420DD0305DD2
:1046800008F0AAFD305D0A2805D16D1C02980128AA
:1046900001DB85420BDA641CEFE703A90E483246C2
:1046A00040F2001304F02EFA0746002001E000203B
:1046B000C0432D492D4A0A60DBE7074803A904F0EF
:1046C00007F9002806D50146044801E001460448E0
:1046D00008F021FE11B0F0BDDC09002034EA00082A
:1046E000E5F10008FEB500030090002010210291C2
:1046F000054610282BD0019000020099441817A0FD
:10470000214608F008FE174F3846214640F20012B5
:1047100002F070FC2C46102C16D03946029A28461E
:1047200042B10B78FF3B5E425E41521E96403043E1
:10473000491CF5E70C490D4A0A6081B20C4808F0A3
:10474000EAFD1037641CE6E70198401CD1E70948F0
:10475000FEBC02BC8E4608F003BEC0460A253038B7
:10476000582000003412002000300040AAAA0000A7
:1047700021F30008EBE90008F0B585B05D4F5E4A13
:10478000BA813A81BA803A80BA833A83BA823A824D
:1047900003217984594B3B840021F984B984F9853C
:1047A000574CBC857985574C3C8579863986564D62
:1047B0002A60564D2A60564D2B60564B1960564B59
:1047C0001C60564B1960160CFE817E81FE807E8037
:1047D000FE837E83FE827E824023FA524422B952B7
:1047E00046220223BB524822B9524A220424BC5218
:1047F000502264200490B852494AD180D5880120C3
:1048000000900543D580D5889D43D580E043D3886B
:1048100003400390D380434B1960434B1960434BD3
:104820001960D38860243B53F986B9867987398724
:10483000F987B9873B4640335E801181009DEC4388
:10484000029413892340138113890340138114892F
:1048500010231C432020019084431481C024E4438E
:104860001689264016811089314E304040F20036BC
:10487000801910811089049EBD536226B85351815E
:104880005089029E304050815089039E30405081B3
:104890005089984350815089019B18435081508919
:1048A000204050815089C0B240F20013C01850819E
:1048B00050896623F852918190892843908190898C
:1048C0000C2188439081908980210143702081438D
:1048D000918190891749014091819089144908403C
:1048E00040F200614018908190896821785205B0AB
:1048F000F0BDC04638090020A0860100400D03002D
:1049000050C3000088130000540600205806002001
:104910005C060020600600201402002044060020EF
:1049200088060020480600204C0600205006002083
:10493000FFF00000FF0F0000F0B58FB003273846EE
:10494000009702F049FD01AE0024B47640F2001059
:1049500030830294C54D0C3501950494039442F2C2
:104960000000069005943846314602F05FFD0427AA
:10497000384602F031FD0120B07640F2001030835D
:10498000029401950494039442F200000690059469
:104990003846314602F04AFD0E9400980D900C9472
:1049A00040F200700A90099440F204100890FC3024
:1049B0000B9008A9AD4C204605F0E4FB204641F2DF
:1049C000000105F0A8FB204605F0A0FB0FB0F0BDEC
:1049D000FEB50C46009002AFFF203870002601960D
:1049E0000425284602F060FD2846394602F054FDB1
:1049F0002846214602F06AFD0327384602F05CFD96
:104A00003846009902F048FD3846214602F05EFD26
:104A1000964C2046314605F071FB0121204605F0F9
:104A20006DFB384602F0D0FC284602F0CDFC8E4FDC
:104A3000019702262846314602F0EEFC48B901985B
:104A4000401E019001980028F4D189480168491C52
:104A500001600197032502262846314602F0DCFC5E
:104A600048B90198401E019001980028F4D180486F
:104A70000168491C0160019780252046294605F000
:104A80006DFB012809D10198401E01900198002872
:104A9000F3D177480168491C01600425284602F0DB
:104AA0008BFC0326304602F087FC0021204605F0EF
:104AB0001DFB0121204605F019FB02242846214652
:104AC00002F0A0FC3046214602F09CFCFEBDC04630
:104AD000FEB50C46064602AFFF203870002000905D
:104AE00001900425284602F0E7FC2846314602F0F2
:104AF000D3FC2846214602F0E9FC0326304602F0AA
:104B0000D3FC3046394602F0C7FC3046214602F05D
:104B1000DDFC564C2046009905F0F0FA01212046B4
:104B200005F0ECFA304602F04FFC284602F04CFC4F
:104B30004D4F019702262846314602F06DFC48B9D8
:104B40000198401E019001980028F4D1484801685E
:104B5000491C01600197032502262846314602F0D0
:104B60005BFC48B90198401E019001980028F4D1DF
:104B70003F480168491C016001978025204629466D
:104B800005F0ECFA012809D10198401E0190019826
:104B90000028F3D136480168491C016004252846E5
:104BA00002F00AFC0326304602F006FC00212046F3
:104BB00005F09CFA0121204605F098FA02242846C7
:104BC000214602F01FFC3046214602F01BFCFEBDD0
:104BD000F8B50546684600210180C9430180224F8F
:104BE000224C02262046314605F0B8FA50B900980A
:104BF000401E6946088008880028F3D11C480168D7
:104C0000491C01602046294605F09CFA6846078049
:104C100001252046294605F0A1FA50B90098401E0A
:104C20006946088008880028F3D111480168491CAA
:104C30000160204605F078FA054668460780802620
:104C40002046314605F08AFA01280AD10098401E14
:104C50006946088008880028F2D105480168491C87
:104C600001602846F8BDC046FFFF00000038004044
:104C7000D4060020F8B5010A80220F4B22B15870EB
:104C800019709B1C521EF9E700247F222046214602
:104C9000134600F00BF92C2000F08FF9064D074E5B
:104CA000074F7F2C07D8284640F2001100F06AF920
:104CB0003760641CF5E7F8BD340E0020003000407A
:104CC000AAAA0000F0B585B00920C506284640F61E
:104CD000000102F05AFC0A260496654C3046A047B3
:104CE000284640F6000102F04EFC3046A047284618
:104CF00040F6000102F049FC78252846A047112023
:104D00005C4EB0472846A047B120B04702265A4C17
:104D10003046A04735273846A04736252846039514
:104D2000A047B220534988473046A0473846A0479D
:104D30002846A047B3204F4988473046A047384609
:104D4000A0472846A0473046A0473846A0472846F7
:104D5000A047B420474DA8470320A047C020A8473C
:104D6000A220A0473046A0478420A047C120A847E2
:104D7000C5263046A047C220A8470D20A0470020E6
:104D8000A047C320A8478D273846A0472A20A04720
:104D9000C420A8473846A047EE20A0473046A84781
:104DA0000498A0470398A84775480078032805D8B9
:104DB000C0003D49C140C8B200F018F9E0202D49BB
:104DC000884712200490A0471C200390A04710257C
:104DD0002846A04718200290A0473320A0472C2047
:104DE000A0472520A04728273846A0473846A04797
:104DF0002720A0472F200190A0473C20A04700205B
:104E00000090A04703263046A0473046A0472846DA
:104E1000A047E120174988470498A0470398A04776
:104E20002846A0470298A0472D20A0473846A04713
:104E30002320A0473846A0473846A0472620A04751
:104E40000198A0473B20A0470098A0473046A047C4
:104E50003046A0472846A0473A2006498847052003
:104E6000A0472920034905B0F0BC04BC964608477A
:104E700061300008BB4F0008ED4F000810B503215A
:104E800001403F4C2170362000F097F8207803282D
:104E900008D8C0000449C140C8B210BC02BC8E464C
:104EA00000F0A4B810BDC046A8C86808FEB5064604
:104EB00033480078032862D81D46174601918100C7
:104EC00001A251188F46C04600F006B800F00EB897
:104ED00000F021B800F034B82A2000F06EF8F81C79
:104EE00002AFF8700024BC70F01C1DE02A2000F016
:104EF00064F8B81C02AFF8700024BC70B01C787065
:104F00003C700421384600F03DF82B2000F055F8A5
:104F10003C70032128E02A2000F04FF8781C02AFF3
:104F2000F8700024BC70701C78703C700421384606
:104F300000F028F82B2000F040F83C70022113E02C
:104F40002A2000F03AF8B81C02AFF8700024BC70B8
:104F5000B01C78703C700421384600F013F82B2008
:104F600000F02BF83C70012102A8002282704A193F
:104F7000C270019A89184170042100F003F8FEBD47
:104F8000D806002070B50C4606460920C5062846FE
:104F900041F2000102F0F7FA284642F2000102F065
:104FA000F4FA3046214601F01FFA284641F200018A
:104FB00070BC04BC964602F0E8BAB0B504460920BD
:104FC000C506284641F2000102F0DDFA284642F209
:104FD000000102F0D8FA204601F082FA284641F298
:104FE0000001B0BC04BC964602F0CFBAB0B504468E
:104FF0000920C506284641F2000102F0C4FA2846FD
:1050000042F2000102F0C1FA204601F069FA284696
:1050100041F20001B0BC04BC964602F0B6BA70473B
:1050200010B50C48C18860220B4CA1520189622244
:10503000A15241896622A15280896821605237219C
:105040002046FFF74DF96E21605210BC01BC864628
:10505000FEF782B8880600203809002010B5092024
:10506000C0060124214602F0C5FA0A490A881A4BF3
:1050700038B10020632A00D804469A4206D9022497
:1050800004E0581C824200D2501C002408802046B4
:1050900010BDC046DA060020B0B50920C0060224C3
:1050A000214602F0A7FA0B490A880B4B20B10020D9
:1050B000632A07D8054606E0581C824200D2501CDD
:1050C000002403E001259A4200D82C46088020469F
:1050D000B0BDC046DC060020E7030000024803A183
:1050E0002022FDF75DBFC046BA0900202055494D7A
:1050F000657465722056342E31202020206279207C
:105100004543484F2053747564696F2000000000C8
:10511000F8B5144E14492025144C30462A46A047B1
:105120003046203012A12A46A0473146353115209D
:10513000184FB847314638310C20B84731463B311B
:105140000E20B8473046403013A12A46A0476036AB
:10515000304605492A46234601B0049CA646F0BCC9
:1051600001B018475202002049EA0008A12F0008A8
:105170002055494D657465722056342E312020200B
:10518000204657207631392E31322E3232202020DF
:105190000000000091530008206279204543484FE9
:1051A0002053747564696F20202020202020202047
:1051B000202020202020202000000000B0B5002862
:1051C0002BD46B4A904230DC2E224A700A22B0FB6C
:1051D000F2F413466343C51A30231D434D71A5B243
:1051E000B5FBF2F55543641B1C430C716424B0FB02
:1051F000F4F4A5B2B5FBF2F55543641B1C43CC7027
:1052000040F2E834B0FBF4F4E5B2B5FBF2F55543F7
:10521000641B1C438C705B4C97E030204871087114
:10522000C87088702E224A7097E0524A90422CDC57
:105230002E228A700A22B0FBF2F3B3FBF2F454433D
:105240001C1B30231C434C716424B0FBF4F4A5B246
:10525000B5FBF2F55543641B1C430C7140F2E83476
:10526000B0FBF4F4A5B2B5FBF2F55543641B1C4347
:10527000CC70444CB0FBF4F4E5B2B5FBF2F5554309
:10528000641B1C434C703E4C5FE03B4A90422DDC5B
:105290002E22CA706422B0FBF2F30A22B3FBF2F4AE
:1052A00054431C1B30231C434C7140F2E834B0FBC8
:1052B000F4F4A5B2B5FBF2F55543641B1C430C7125
:1052C000304CB0FBF4F4A5B2B5FBF2F55543641BCA
:1052D0001C438C702A4CB0FBF4F4E5B2B5FBF2F53C
:1052E0005543641B1C434C70274C2EE0234A9042CC
:1052F00035DC2E220A7140F2E832B0FBF2F30A22CA
:10530000B3FBF2F454431C1B30231C434C711C4C64
:10531000B0FBF4F4B4FBF2F55543641B1C438C70F2
:10532000184CB0FBF4F4A5B2B5FBF2F55543641B81
:105330001C43CC70144CB0FBF4F4E5B2B5FBF2F5B1
:105340005543641B1C434C70104CB0FBF4F0C4B2CA
:10535000B4FBF2F45443001B18430870B0BD39206D
:10536000C87088704870087048712E200871B0BDF0
:105370009F8601003F420F007F969800FFE0F505F1
:10538000A08601001027000040420F008096980080
:1053900010B50A2290FBF2F314465C43001B303038
:1053A000487093FBF2F05043181A3030087010BD6B
:1053B00070B50C46002831D4F949884261DC2E21B1
:1053C000A170202121700A21B0FBF1F293B2B3FB4E
:1053D000F1F34B43D51A30231D4365716425B0FBAF
:1053E000F5F5AEB2B6FBF1F64E43AD1B1D4325718C
:1053F00040F2E835B0FBF5F5EEB2B6FBF1F64E4300
:10540000AD1B1D43E570F44DB0FBF5F5EEB2B6FBF8
:10541000F1F64E43AD1B1D4365706AE02D212170EE
:10542000E049884269DB2E21A170E64990FBF1F248
:105430000A2192FBF1F34B43D21A3032E270DD4A7B
:1054400090FBF2F292FBF1F34B43D21A30326270CE
:105450000922D24390FBF2F292FBF1F34B43D21AB2
:10546000303262716322D24390FBF2F292FBF1F38D
:105470004B43D21A3032227190FBF1F24A43151A93
:10548000D6E0D149884265DC2E21A1700A21B0FB0B
:10549000F1F2B2FBF1F34B43D51A30231D43657192
:1054A0006425B0FBF5F5AEB2B6FBF1F64E43AD1B8D
:1054B0001D43257140F2E835B0FBF5F5AEB2B6FB01
:1054C000F1F64E43AD1B1D43E570EC4DB0FBF5F519
:1054D000EEB2B6FBF1F64E43AD1B1D436570E84DD1
:1054E000B0FBF5F5EEB2B6FBF1F64E43AD1B1D4336
:1054F00025705143451A1D434FE1AB49884265DB96
:105500002E21E170AF4990FBF1F20A2192FBF1F3F9
:105510004B43D21A30322271A64A90FBF2F292FB30
:10552000F1F34B43D21A3032A270A34A90FBF2F24D
:1055300092FBF1F34B43D21A303262706322D243B2
:1055400090FBF2F292FBF1F34B43D21A30326271CC
:10555000092266E09D4988426CDC2E21E1706421BD
:10556000B0FBF1F20A21B2FBF1F34B43D31A302224
:105570001343637140F2E833B0FBF3F39DB2B5FB24
:10558000F1F54D435B1B13432371BC4BB0FBF3F3AD
:105590009DB2B5FBF1F54D435B1B1343A370B84BB4
:1055A000B0FBF3F3DDB2B5FBF1F54D435B1B1343E9
:1055B0006370B44BB0FBF3F3DDB2B5FBF1F54D43D3
:1055C0005B1B13432370B0FBF1F0D2E077498842B4
:1055D0006ADB2E2121717B4990FBF1F20A2192FBBB
:1055E000F1F34B43D21A30326271724A90FBF2F2FD
:1055F00092FBF1F34B43D21A3032E2706E4A90FBC9
:10560000F2F292FBF1F34B43D21A3032A2706B4AA2
:1056100090FBF2F292FBF1F34B43D21A30326270FC
:105620006322D24390FBF2F090FBF1F24A43851AD9
:105630003035B2E06649884262DC2E21217140F2A9
:10564000E831B0FBF1F20A21B2FBF1F34B43D31A7C
:105650003022134363718A4BB0FBF3F3B3FBF1F5D4
:105660004D435B1B1343A370844BB0FBF3F39DB21C
:10567000B5FBF1F54D435B1B1343E370814BB0FB6E
:10568000F3F3DDB2B5FBF1F54D435B1B13436370E0
:10569000534BB0FBF3F3DDB2B5FBF1F54D435B1BB0
:1056A00013432370642362E04149884267DB2E2163
:1056B0006171404990FBF1F20A2192FBF1F34B43F7
:1056C000D21A303222713C4A90FBF2F292FBF1F393
:1056D0004B43D21A3032E270384A90FBF2F292FB1E
:1056E000F1F34B43D21A3032A270354A90FBF2F2FA
:1056F00092FBF1F34B43D21A30326270314A91E798
:105700003449884241DC2E216171DD49B0FBF1F260
:105710000A21B2FBF1F34B43D31A30221343237116
:10572000574BB0FBF3F3B3FBF1F54D435B1B134356
:10573000E370544BB0FBF3F3B3FBF1F54D435B1B4C
:105740001343A370254BB0FBF3F3B3FBF1F54D43CB
:105750005B1B13432370224BB0FBF3F3DDB2B5FBAD
:10576000F1F54D435B1B1343637040F2E833B0FB2C
:10577000F3F0B0FBF1F34B43C51A15430DE03925A7
:105780002571E570A570657005E005213925204675
:105790002A46FCF7CFFC2E206071A57170BDC04673
:1057A0009F8601006179FEFFC1BDF0FF816967FF3F
:1057B000011F0AFAF0D8FFFF6079FEFFC0BDF0FFBD
:1057C000806967FF18FCFFFF3F420F007F9698003B
:1057D000FFE0F505FFC99A3B1027000000E1F50541
:1057E0008096980070B52E228A70C317C2185A404E
:1057F0000A23B2FBF3F51C466C43161B30242643E8
:10580000CE71B5FBF3F65E43AD1B25438D71642568
:10581000B2FBF5F5B5FBF3F65E43AD1B25434D71C9
:1058200040F2E835B2FBF5F5B5FBF3F65E43AD1B90
:1058300025430D71E84DB2FBF5F5B5FBF3F65E437C
:10584000AD1B2543CD70E54DB2FBF5F5B5FBF3F689
:105850005E43AD1B25434D70E14DB2FBF5F2B2FB4B
:10586000F3F55D43521B22430A70002803D4302A0B
:1058700003D1202000E02D20087070BD102700000B
:10588000A086010040420F0070B5C2138418544036
:1058900023B20A2293FBF2F516466E43A41B303462
:1058A0008C7095FBF2F454432C1B30344C70642400
:1058B00093FBF4F393FBF2F454431A1B30320A7057
:1058C000491E00221346022B0AD04C78302C04D1FA
:1058D00020244C70491C5B1CF5E7DBB25A425A414C
:1058E000002802D50AB92D20087070BDF8B52E2306
:1058F000CB70C3130090C5185D402CB20A2394FBF3
:10590000F3F61F467743ED1B30350D7196FBF3F52B
:105910005D43751B30358D70642594FBF5F595FB63
:10592000F3F65E43AD1B30354D7040F2E83594FB25
:10593000F5F494FBF3F55D43651B30350D700124E0
:10594000E043052C0CD0EDB2302D09D142B10D5DF4
:105950002E2D05D00E19471C2023F355641CF0E7AB
:10596000009A002A05D5621E120602D009192D22BE
:105970000A54F8BD70B5C2138418544023B20A22E9
:1059800093FBF2F516466E43A41B3034CC7095FBA6
:10599000F2F454432C1B30348C70642493FBF4F4E5
:1059A00094FBF2F55543641B30344C7040F2E834FC
:1059B00093FBF4F393FBF2F454431A1B30320A7056
:1059C0000222D2433AB18B18DC78302C05D1202446
:1059D000DC70521CF6E7002303E0D4B2FD3C6342C6
:1059E0006341002803D513B988182D21817070BD3B
:1059F000F0B5C417031963400A24B3FBF4F6254637
:105A000075435F1B30252F430F71B6FBF4F76743D7
:105A1000F61B2E43CE706426B3FBF6F6B6FBF4F706
:105A20006743F61B2E438E7040F2E836B3FBF6F662
:105A3000B6FBF4F76743F61B2E434E709B4EB3FB49
:105A4000F6F3B3FBF4F666439B1B2B430B70032367
:105A5000DB4343B14AB1CC182579302D05D120253F
:105A600025715B1CF5E7002203E0DCB2FC3C6242DE
:105A70006241002803D512B9C8182D21C170F0BDAC
:105A80001027000070B5C317C2185A400A23B2FB92
:105A9000F3F51C466C43161B302426434E71B5FBB0
:105AA000F3F65E43AD1B25430D716425B2FBF5F59E
:105AB000B5FBF3F65E43AD1B2543CD7040F2E835F0
:105AC000B2FBF5F5B5FBF3F65E43AD1B25438D70D8
:105AD000764DB2FBF5F5B5FBF3F65E43AD1B254302
:105AE0004D70734DB2FBF5F2B2FBF3F55D43521B03
:105AF00022430A700422D2433AB18B185C79302CCD
:105B000005D120245C71521CF6E7002303E0D4B2D7
:105B1000FB3C63426341002803D513B988182D214B
:105B2000017170BD70B5C317C2185A400A23B2FB89
:105B3000F3F51C466C43161B302426438E71B5FBCF
:105B4000F3F65E43AD1B25434D716425B2FBF5F5BD
:105B5000B5FBF3F65E43AD1B25430D7140F2E8350E
:105B6000B2FBF5F5B5FBF3F65E43AD1B2543CD70F7
:105B70004E4DB2FBF5F5B5FBF3F65E43AD1B254389
:105B80008D704B4DB2FBF5F5B5FBF3F65E43AD1BE7
:105B900025434D70474DB2FBF5F2B2FBF3F55D4383
:105BA000521B22430A700522D2433AB18B189C79CA
:105BB000302C05D120249C71521CF6E7002303E011
:105BC000D4B2FA3C63426341002803D513B9881864
:105BD0002D21417170BDC04610270000A086010034
:105BE00040420F0070B5C217831853400A22B3FB1E
:105BF000F2F514466C431E1B30242643CE71B5FBD0
:105C0000F2F65643AD1B25438D716425B3FBF5F5C4
:105C1000B5FBF2F65643AD1B25434D7140F2E83516
:105C2000B3FBF5F5B5FBF2F65643AD1B25430D71FD
:105C30001E4DB3FBF5F5B5FBF2F65643AD1B254300
:105C4000CD701B4DB3FBF5F5B5FBF2F65643AD1B1E
:105C500025438D70174DB3FBF5F5B5FBF2F65643B2
:105C6000AD1B25434D70144DB3FBF5F3DDB2B5FB11
:105C7000F2F555435A1B22430A700622D2433AB129
:105C80008B18DC79302C05D12024DC71521CF6E70E
:105C9000002303E0D4B2F93C63426341002803D5FA
:105CA00013B988182D21817170BDC04610270000DE
:105CB000A086010040420F008096980010B5030BAB
:105CC000194A1468E35C0B7003051B0F1468E35C4E
:105CD0004B7003061B0F1468E35C8B700F230340AB
:105CE0001068C05CC87010BD10B50F4A136804027C
:105CF000240F1B5D0B7003031B0F1468E35C4B70D8
:105D000003041B0F1468E35C8B7003051B0F1468FE
:105D1000E35CCB7003061B0F1268D35C0B710F237F
:105D20000340D05C487110BDD402002070B5044619
:105D30001520734D2146A8472E26A670E11C0C2085
:105D4000A8476671A11D0E20A84708340025054EFE
:105D50000C2D06D0A85B2146FFF7B0FF241DAD1C1B
:105D6000F6E770BDACF7FF1F10B5044609A120226D
:105D7000FDF716F99448406D21460931FFF782FE80
:105D80001B348A48408D000A214610BC04BC96464C
:105D9000FFF77ABD204C6F67436E743A20202020B5
:105DA0002020302020496E74657276616C3A202084
:105DB0002031732000000000F8B5044616A120250C
:105DC0002A46FDF7EDF87948008D0006800F022184
:105DD0004140880019490958601C0522FDF7E0F888
:105DE000794F386AA11DFFF79DFE1020385E2146CD
:105DF000103101263246FFF779FD1420385E214626
:105E000018313246FFF772FD387808B17F2000E084
:105E1000E84360756077F8BD20545950454B202009
:105E200020202020307556202032302E306F432025
:105E30002032302E306F43200000000078D600085A
:105E4000F8B5044624A12022FDF7AAF85E4D686B40
:105E50002146FFF7ADFAA86B21461031FFF7A8FAEB
:105E6000524D288DC00702D06D20A071A075286BFF
:105E7000224990FBF1F0642190FBF1F24A43801A31
:105E800000B221460A311E4FB847286B40F6106118
:105E900090FBF1F0182190FBF1F24A43801A00B216
:105EA00021460D31B847286B3C2690FBF6F090FB5D
:105EB000F6F17143401A00B221461A31B847286BF7
:105EC00090FBF6F17143401A00B21D3421463A4668
:105ED000F8BC08BC9E46104720302E303030304190
:105EE000682030306430306820302E303030305709
:105EF000682030306D3030730000000080510100A8
:105F00009153000870B504461EA12022FDF748F801
:105F100044202549085A401C86B22B4D2846022EA3
:105F200001D3303000E0283000682146FFF740FA06
:105F3000022E01D3412000E05620E071E86A21469C
:105F40001031FFF735FA686C21460931FFF736F951
:105F5000A86C21461931FFF731F91448018DC907A2
:105F600002D06D21A173A175008DC00703D12878DF
:105F700018B17F2002E06B2001E00B20C043E077E6
:105F800070BDC04620302E303030305620302E309C
:105F90003030305720302E303030304120393939D0
:105FA000392E395200000000380900206806002010
:105FB00080B50548816F491C816706F0B3FB80BC42
:105FC00001BC864606F0A2BFEC050020FFF7F0BF3B
:105FD00010B5164801680C230B40154A082B09D14F
:105FE00001688902090F03681B0105D40F2905D038
:105FF000891C04E011460EE0113100E01021036815
:10600000DB0301D40B4A05E0836A0F241C40631CA8
:10601000B2FBF3F25143084A116000680006000F1A
:1060200006A3185CC140116010BDC04604100240B8
:1060300000127A0000093D0010020020000000005C
:1060400000000000010203040607080930B42848D4
:10605000026801210A43026002689207FCD5426887
:10606000244B134043604268234B13404360026853
:10607000224B13400360C26A0F239A43C262026B31
:1060800040F203139A4302630A04036B93430363CE
:10609000CB07046B9C430463436B8B434363002334
:1060A00083600368134303604A04154B04685D1E54
:1060B0009D4202D214402B46F8D00368134215D0FB
:1060C000426842604268426042684260426803231C
:1060D0009A43426042680A43426042685207FCD5D4
:1060E000C80642F2000130BC03F0DABCFEE7C0464D
:1060F000001002400C00FF08FFFFC277FFFFF2FE16
:10610000FF070000F0B586B0029101908568162166
:1061100000200490080642D0491E009104982149AD
:10612000401804900007800F03900026019A022E69
:106130001CD0104602C8059101680B46049C6340C0
:106140003746039C6740BF00029CE7596F40FB182D
:106150002F01CC087C406D0989006940091959401C
:10616000059BCD181560761C0246E0E72901019CCD
:106170002068C2084A40690983004B409918049A74
:1061800050400222039B53409A00029B9A586A4057
:1061900010184840A1684518A5600099BAE706B0F4
:1061A000F0BDC046B979379EFEB50E46044640F2B2
:1061B0004610002727522518FBF7A0FF324600683B
:1061C000805D8006C00E2346443378B101202880CC
:1061D0001A70AE883F2E00D9B8E01046FBF792FF48
:1061E000711CA980A119C4228854AFE01046083858
:1061F000082825D88100164601A2511832468F463C
:1062000000F010B800F040B800F0A0B800F03CB8C2
:1062100000F03AB800F049B800F036B800F034B8F1
:1062200000F094B8202058700820187003212980AD
:106230009870A888002800D188E0401EA88085E0DA
:10624000032A00D182E01B2A58D01D2A1CD1E988DC
:10625000481C02B2012A00DD481EE88000B2C001DD
:10626000454909182046C430802201921E46FBF79A
:1062700087FFFBF79CFFA8800620285EC0013E49EF
:1062800009183046019A55E010093C490968085C34
:10629000164601222A8018700F203040085C587082
:1062A000032028802020987050E00D2018700220D4
:1062B00028800A205870A8883F2841D82146C43138
:1062C00000220A54AA80D04320600626A85FC20F8D
:1062D00082180123DB4302931A40801AE880C00130
:1062E000254A10188022FBF74BFFA85F401CC10F06
:1062F0004118029A1140401AE88027E0E988481EB8
:1063000002B2002A029300D5481CE88000B2C00106
:10631000194909182046C43080263246FBF730FF61
:10632000FBF745FFA8800620285EC0011249091826
:1063300002983246FBF724FFFBF739FF288005E07F
:1063400040F20310201800210170A98029883F2005
:1063500008402880C449C988C9070BD04426F9B22F
:1063600080B2884206D96018805D06F035FF7F1C38
:106370002888F4E7FF20FEBDE6060020D4020020B6
:1063800070B58EB00225284601F026F86946012036
:10639000887640F200100883002601966B4C204658
:1063A0000C3000900396029642F20000059004968D
:1063B000284601F03BF80D9603200C900B9640F216
:1063C000007009904CF20000089040F20410079011
:1063D000FC300A9007A9204603F0D4FE204603F0C3
:1063E00095FE0EB070BDC046F8B50C4601466F462E
:1063F00000263E800225284601F04EF82846214618
:1064000001F064F8514C2046314603F077FE2846EF
:1064100000F0DAFFF04338804B4E2846294600F062
:10642000FBFF50B90098401E694608800888002884
:10643000F3D147480168491C016068460680802501
:106440002046294603F08AFE01280AD10098401E02
:106450006946088008880028F2D13D480168491C37
:1064600001600225284600F0A7FF0021204603F026
:106470003DFE28462946F8BC04BC964600F0C2BF43
:10648000F8B5164C02270825204639463A462B46D1
:1064900001F0B5F82026204639463A46334601F049
:1064A000AEF8002703240D48394622462B4601F05A
:1064B000C5F80A4839462246334601F0BFF8074876
:1064C000044639462A4601F033F82046394632461A
:1064D000F8BC08BC9E4601F02BB8C046000400483A
:1064E000F8B50646684600210180C9430180164C74
:1064F000164D02272846394603F030FE50B9009861
:10650000401E6946088008880028F3D110480168B9
:10651000491C01602846314603F014FE6846048099
:1065200080262846314603F019FE01280AD100983A
:10653000401E6946088008880028F2D10448016896
:10654000491C01602046F8BDFFFF000000300140FB
:10655000E0060020B0B588B0164C204605F042FD9C
:1065600004A900250D73FF200690E92004900595ED
:10657000204605F06DFD40F20010039002200290CD
:106580000D48019001AA2046294605F0E5FB20466A
:1065900029462A4605F01FFD70222046294605F0AF
:1065A000EDFC0121204605F0A5FD204605F04AFD41
:1065B00008B0B0BD002C014001000400F8B504464D
:1065C00001252846FDF744FA91212846FDF7FEF9FA
:1065D00008B10220F8BD01263046FDF7A9F90546AD
:1065E0003046FDF759F93046FDF7A2F90746304627
:1065F000FDF778F93046FDF759FA002014B1290269
:10660000C9192180F8BD000010B50021064B0C22ED
:106610000C2905D01C68844203D91B1D491CF7E7CF
:106620001146C8B210BDC04618E200080D48016806
:10663000090703D5416808220A43426001688906B8
:106640000BD58068084909898906890F012905D079
:1066500019B9C1B20648FDF785BE7047C1B20348FB
:10666000FFF7A2BD1C38014088060020E807002083
:106670005C0D0020B0B50546134C204606F0EAFD3F
:106680002046294606F0BEFD00252046294606F094
:106690000BFE2046294606F031FE2046294606F02C
:1066A00018FE0421204606F00CFE0821204606F0C4
:1066B0001DFE0521204606F0EEFD204606F0E6FD13
:1066C000024803490160B0BD003801403405002094
:1066D000D9D10008F8B52020A44E305C122800D98A
:1066E0001CE1810001A251188F46C04600F024B879
:1066F00000F028B800F02CB800F030B800F034B842
:1067000000F00CB900F00AB900F008B900F006B9C1
:1067100000F030B800F047B800F060B800F072B890
:1067200000F080B800F08FB800F0A0B800F0C9B851
:1067300000F0D3B800F0DEB88D48F8BC02BC8E463D
:10674000FFF7E0BB8A48F8BC02BC8E46FFF778BB77
:106750008748F8BC02BC8E46FFF706BB8448F8BCED
:1067600002BC8E46FFF728BB8148F8BC02BC8E46AF
:10677000FFF7DCBA7E4CA54920222046FCF710FC2E
:10678000854DA86A2146FEF713FEE86A21461031BE
:10679000FEF70EFE6878C0071ED0A86E21460831AD
:1067A000FFF720F818E0724C974920222046FCF7AA
:1067B000F7FB794DA86A2146FEF7FAFDE86A214603
:1067C0001031FEF7F5FDA86E21460831FFF70AF8F3
:1067D0006878C00700D1A1E0E86E0CE0644C8949FC
:1067E00020222046FCF7DCFB6B484078C00700D134
:1067F00094E08148406818342146F8BC04BC9646B1
:10680000FEF7F0BF5A4C7E4920222046FCF7C8FB19
:10681000614D6878C00714D0286F21460831FEF713
:10682000C7FD0EE0524C754920222046FCF7B8FB0C
:10683000594D286F21460831FEF7BAFD6878C00728
:106840006CD0686F0BE04A4C62A120222046FCF716
:10685000A7FB51484078C00760D0674800681834EB
:106860002146F8BC04BC9646FEF7A2BD404C6849E0
:10687000202520462A46FCF793FB474F7878C0072F
:106880000CD0308D0006800F022141408800614904
:106890000958204609300522FCF782FB1020385E9B
:1068A0002146103101263246FFF720F81420385EC9
:1068B000214618313246FFF719F8387878B37F202F
:1068C0002EE000252A4C102D28D07019008A214670
:1068D000FFF7F4F9241DAD1CF5E7254C2FA120226C
:1068E0002046FCF75DFB308D8006800F01281AD012
:1068F000344919E01E4C1FA120222046FCF750FB12
:10690000708D010140F60040084021460A31012205
:10691000FFF76EF820484078C0071ED1F8BDE84365
:1069200060776075F8BD264900B92749E01D072248
:10693000FCF736FB308D8006800F06D1642023499A
:10694000085E21460D31FEF79FFF21480068B18D9A
:106950000906090F405C2077F8BD1B34708D000AD2
:106960002146F8BC04BC9646FEF78EBF68060020A0
:10697000BA0900204C6F674D61783A2020202034FE
:1069800030393620496E74657276616C3A20202069
:106990002020732000000000EC050020205541520B
:1069A000543A205445524D2020202020204261633B
:1069B0006B4C696768743A2030202020000000008A
:1069C000ACEA000810EB0008D5EA000838090020FE
:1069D000D402002055204D696E204D61782053650A
:1069E0007475702E536574537465703A202020209E
:1069F0002020205600000000080200201EEB0008A6
:106A00003FEB00086AEA00088BEA0008DDEA0008AC
:106A1000B4EA000878D60008F8B52020854F385C25
:106A200007282AD0062815D0052800D000E1824C7E
:106A30002046FFF767FA20462030FFF701FA20468C
:106A40004030FFF7B9F960342046F8BC02BC8E46EE
:106A5000FFF78AB99B4C264610369BA10825304685
:106A60002A46FCF79DFA44209449085A401C87B2F4
:106A70007C48022F30D330302FE06F4C6FA120259F
:106A8000774B20462A469847764E306F214608318C
:106A9000FEF78EFC706F21461831FEF789FC204608
:106AA000203071A12A466E4B9847B06E214628319E
:106AB000FEF798FEF06E21463831FEF793FE204631
:106AC000403072A12A46664DA847388D8006800F57
:106AD00001280AD0774909E0283000683146FEF7DE
:106AE00067FC022F2BD341202AE0714900B972497B
:106AF000204645300322A84764207049085E21469D
:106B00004D31FEF7C1FE788D010140F6004008408E
:106B100021465531FEF72EFFB88D6948006801788F
:106B20005E22A154B98D0906090F405C5F216054B3
:106B300060342046F8BC02BC8E46FFF7F7B85620FA
:106B40003C4FE0752646183662A130462A46FCF7CF
:106B500027FA4448C06A3146FEF72AFC388DC00740
:106B600001D06D20A077254620355DA1082228465A
:106B7000FCF716FA3B48406C2946FEF719FC388DA5
:106B8000C00702D026206D212154584910222046EA
:106B9000FCF706FA386B564990FBF1F0642190FB44
:106BA000F1F24A43801A00B22146FEF7F1FB386B3E
:106BB00040F6106190FBF1F0182190FBF1F24A438E
:106BC000801A00B2E11CFEF7E3FB2648406BE11D92
:106BD000FEF7EEFB388DC00701D06D2060732546AF
:106BE0002835444910222846FCF7DAF9386B3C2650
:106BF00090FBF6F090FBF6F17143401A00B2294683
:106C0000FEF7C6FB386B90FBF6F17143401A00B2F9
:106C100021462B31FEF7BCFB1248806B21462F31F9
:106C2000FEF7C6FB388DC00702D035206D212154F8
:106C3000F8BDC046680600205202002055204D6174
:106C4000783A202032302E303030305655204D6981
:106C50006E3A202020302E303030305600000000B8
:106C6000A12F0008EC050020552041646A3A20203D
:106C700020312E3030303030492041646A3A2020B3
:106C800020312E3030303030000000005541525459
:106C90003A202020204144523A2020204C4F474D9A
:106CA0003A2020202020424C3A20202000000000E2
:106CB000ACEA000810EB0008D5EA0008380900200B
:106CC000D40200201A02002020302E3030303056FE
:106CD0000000000020302E30303030410000000035
:106CE00020302E30303030570000000060EB0008BC
:106CF0008051010071EB000876203149085A0146A5
:106D000010390A0389B20909891889B2072904D8F8
:106D100001228A408B210A4201D105480088054999
:106D200008800122D2068002801848607047C04661
:106D3000E0F7FF1F8C05002010B50F4800780322F4
:106D400002401F4908461030930001A4E3189F46F3
:106D500000F006B800F006B800F006B800F006B87B
:106D60001C3102E0183100E0143108461549C96EA3
:106D70000180090C418010BD580D00200F4800789B
:106D8000032101400E488A0001A39A189746C04685
:106D900000F006B800F007B800F008B800F008B836
:106DA00007480C3004E00648083001E00448001DA4
:106DB0000449896E0180090C41807047590D0020FB
:106DC00038090020EC050020F8B50C46064600F016
:106DD000DBF9EC4D284641F2000100F0D4FB012024
:106DE000A34FB8473046B8472046B847284641F237
:106DF0000001F8BC04BC964600F0C7BB10B500F01B
:106E0000C3F900F0A3F9E94C204641F2000100F07B
:106E1000BAFBC720FDF7DCFE204641F2000100F07E
:106E2000B4FB00F09DF910BC01BC864600F08EB9A1
:106E3000BCB501ACE07020212170010AA170000CEA
:106E4000607000F0A1F900F081F9D84D284641F2B8
:106E5000000100F098FB04212046FDF739FE28468A
:106E600041F2000100F091FB00F07AF900F06EF9B8
:106E7000BCBDC046BCB501ACE070D8212170010A90
:106E8000A170000C607000F07FF900F05FF9ED4D2B
:106E9000284641F2000100F076FB04212046FDF770
:106EA00017FE284641F2000100F06FFB00F058F990
:106EB00000F04CF9BCBDC046B0B5E24C3E4D20469A
:106EC00040F20041A847204640F60001A84720466E
:106ED00041F20001A84700F0ADF8EB494860374A9D
:106EE000831840F20022032B2AD9354BC318032BF9
:106EF00032D9344BC318032B3AD9334BC318032B65
:106F000042D9324B984251D0314B98424BD0314B01
:106F1000984245D0304B984242D0304B984245D0B1
:106F20002F4B98423FD02F4B984241D02E4B984246
:106F300036D02E4B98423BD02D4A904230D038E08C
:106F4000980001A42018874600F032B800F028B855
:106F500000F02CB800F027B8980001A4201887464C
:106F600000F026B800F01CB800F020B800F01BB804
:106F7000980001A42018874600F01AB800F010B855
:106F800000F014B800F00FB8980001A4201887464C
:106F900000F00EB800F004B800F008B800F003B834
:106FA00040F2004204E041F2000201E040F600023B
:106FB0000A800020B0BDC0468B750008EBBF97FF6C
:106FC000EBDF3DFFEBBF37FFEBBF10FF17301C00BF
:106FD00018301C0016331C0016701C0017701C00A3
:106FE00018701C001520200016409D0015409D00C3
:106FF00016202000F8B5144605466F46F9700320A8
:107000003870080AB870080C7870BF4E304641F2EC
:10701000000100F0B8FA04213846FDF759FD284672
:107020002146FDF7D5FC304641F2000100F0ADFAF3
:10703000F8BDC046F8B5B44841F2000100F0A3FA2B
:107040009F200B4CA047FF252846A0470646284610
:10705000A04707462846A0470546AB4841F2000135
:1070600000F093FA3004390201430D432846F8BD7D
:10707000D14B0008FEB51546064601AFFF2038711A
:10708000F9700024BC707C705A2038709E4841F220
:10709000000100F078FA05213846FDF719FD304669
:1070A0002946FDF795FC984841F2000100F06DFA81
:1070B0002046FEBDB0B5944C204641F2000100F0E0
:1070C00062FA0520FDF784FDFF20FDF781FD0546EE
:1070D000204641F2000100F058FAE8B2B0BDC046C7
:1070E000B0B5894C204641F2000100F04CFA352041
:1070F000FDF76EFDFF20FDF76BFD0546204641F2D2
:10710000000100F042FAE8B2B0BDC046FEB50D463F
:10711000064601AFFF2038710024FC70BC707C7003
:107120004B203870784841F2000100F02CFA05211C
:107130003846FDF7CDFC30462946FDF749FC72483C
:1071400041F2000100F021FA2046FEBDB0B5984C96
:10715000984DFFF7AFFFC00701D02560F9E7B0BD3C
:1071600010B5694C204641F2000100F00CFA0420F1
:10717000FDF72EFD204641F2000110BC04BC9646EE
:1071800000F003BA0004004810B55F4C204641F2FD
:10719000000100F0F8F90620FDF71AFD204641F243
:1071A000000110BC04BC964600F0EFB90004004892
:1071B000F8B54B42DCB2944200D314460092A7B219
:1071C00005460E463A4600F015F8009988B2B842D6
:1071D0000ED0091B88B240F20012904200910C467A
:1071E00001D340F200143146F1192846E819E6E7C8
:1071F000F8BD0000F8B5144605466E46F170022051
:107200003070080AB070080C7070FFF7BDFFFFF710
:107210009DFF3D4F384641F2000100F0B4F90421D2
:107220003046FDF755FC28462146FDF751FC38460F
:1072300041F2000100F0A9F9FFF792FFFFF786FF86
:10724000F8BDC04600040048B0B50546FFF732FF60
:107250000446FFF745FF014615B10220014301E056
:10726000FD20014008484068084A904203D120466A
:10727000FFF7AAFD02E0084600F028F8B0BC01BC08
:107280008646FFF72DBFC046380500201740EF00A7
:10729000B0B50446FFF778FFFFF758FF1A4D2846B0
:1072A00041F2000100F06FF90120FDF791FC20464A
:1072B000FDF78EFC284641F2000100F066F9FFF769
:1072C0004FFFB0BC01BC8646FFF740BFB0B50446D7
:1072D000FFF75AFFFFF73AFF0B4D284641F2000136
:1072E00000F051F93120FDF773FC2046FDF770FCEA
:1072F000284641F2000100F048F9FFF731FFB0BC29
:1073000001BC8646FFF722BF0004004880B5044850
:10731000052100F0E3F881480249016080BDC046C4
:10732000350C0000CCCC0000BFF34F8F0848094952
:107330000160BFF34F8F00BFFDE7C046BFF34F8F23
:10734000034804490160BFF34F8F00BFFDE7C0460B
:107350000CED00E00400FA0580B5704A734B136031
:10736000C0694843FFF764FD002080BDB0B56B4C99
:107370006E4D2560C0694843811804A802881846EC
:10738000FFF716FF0020B0BDB0B5644C674D256017
:10739000C0694843811804A802881846FFF72AFEEE
:1073A0000020B0BD5D486149016000207047C046C3
:1073B00000300040AAAA00001421414342480A5864
:1073C00001239A430A507047142141433E480A580A
:1073D000012313430B50704710B5142242430D494B
:1073E000521853680124A3435360002353609360F1
:1073F000D360136180000F22824008681043086048
:1074000010BDC04680008140024802680A43026005
:107410007047C04604000240800081400248006876
:107420000840411E8841704700000240B0B5142258
:107430004243254813580124A343135013180C68E2
:107440009C608C68DC600C8A5C60135843F60074A6
:10745000A3434C681C43CB6823434C691C43145022
:107460000D7E13584024012D01D0A34300E0234397
:1074700013504D7E13588024012D01D0A34300E00A
:10748000234313508C7E115810230CB1194300E094
:1074900099431150B0BDC0461422424301481150D7
:1074A0007047C046140002401421414306480A5860
:1074B00080239A430A5070471421414302480A58D6
:1074C000802313430B5070470800024014224243AC
:1074D00088B20149505070470C00024070B50F4B04
:1074E0000F4A1A600F4D01242A46DE68264012B169
:1074F000521C002EF9D1002276B959600221DE68B3
:107500000E4015B16D1C002EF9D12EB90649084068
:107510009860064818602246104670BD0030004052
:10752000555500000200F0FFFF0F0000AAAA00005E
:10753000FCB50191016A0090446A00252E46202D79
:107540000CD01746F740FF0705D0019FAF400F232F
:10755000AB40994339432D1D761CF0E708250026E2
:10756000202E0CD01346EB40DB0705D0019BB34027
:107570000F27B740BC431C43361D6D1CF0E7009835
:1075800001624462FCBD81627047816170470AB14B
:10759000182200E0282211507047000010B5172172
:1075A000C90640180A21C841052815D8104C810089
:1075B00001A251188F46C04600F010B800F008B87C
:1075C00000F008B800F008B800F006B800F005B800
:1075D000641C03E0A41C01E010BD641D204602F001
:1075E0000FFC204610BC02BC8E4602F0FFBBC0461A
:1075F000110A000000690840411E88417047FEB52D
:107600000293019202680090C56800263746202E3A
:1076100010D0029BFB40DB0709D0019BB340032441
:10762000B440A5431D430B46B340A2431A43B61CC6
:107630007F1CECE700980260C560FEBDF8B501292B
:1076400002D14168194301E04168994341600090CB
:107650008168002403202646202C0CD01F46F740CA
:10766000FF0705D01746A7400546A540A943394363
:10767000A41C761CF0E700988160F8BD03480168FF
:107680000620084001D00020C04370471C20024063
:10769000F8B5009104460027226B636B9A420FD025
:1076A0005E1C6663A06B401EA0631F20E16B5D093A
:1076B0000340AD004D59DD40EB073346EED11DE0F0
:1076C000E06A8218A06BC0B321680B6AB2FBF3F5C5
:1076D0005D43521BE262496A676381420A4600D3F6
:1076E00002462263E06BC908FAF72BFD20461749D2
:1076F000224601F0DCFF0028CED0F8BDE26A9219E4
:10770000521E23681B6AB2FBF3F55D43521B009BBC
:107710001A60626B236B93420DD0154605405609E3
:10772000B6008E59EE40F50705D0521C6263A56B7A
:107730006D1EA563EFE73846F8BD05A040F23A118B
:1077400005F0E9FD1B20C043F8BDC0467577000871
:107750006C6673207761726E3A25643A204E6F2012
:107760006D6F726520667265652073706163652058
:1077700025750A0010B5C26A036B891A0268126A7D
:107780008918B1FBF2F45443091B994209D21F2214
:107790000A4001239340C06B4909890042581A43AB
:1077A0004250002010BDF0B589B01C461546069128
:1077B0000746059014370E98049000200790012684
:1077C00094B1029608A80190009505983946079A49
:1077D000069B00F0FBF840B908A90498324600F077
:1077E00067F9641E6D1CEBE7079809B0F0BD1FB583
:1077F0000C46069900920193029101462031002225
:10780000234600F065F804B010BD1FB50C4606997C
:10781000009201930291014614310022234600F0A8
:10782000D5F804B010BDF0B589B01C4604AB07C351
:107830000F9E0E9F012007900025A6B10798029089
:1078400008A801900094049805992A46069B00F028
:10785000BDF848B9397808AA12788A4204D17F1C49
:10786000641C761EE9E7079809B0F0BDF0B585B055
:107870000C46054609680023481C24D00492039353
:107880006268A3682868876886690096B847D8B98F
:107890003320C743049961B10CCC20682E68B669C7
:1078A000009001962846083CFFF7BDFF00280BD446
:1078B0000CD0A06829688969FF22FAF73BFC3337AE
:1078C0002760039800E0184605B0F0BD3846FBE796
:1078D000F0B589B01C4604920E460746109B0F98DF
:1078E00008900E9D002002900397002B68D030680E
:1078F0000793A04207D17168A94204D83868826909
:107900005018854233D338688169B5FBF1F24A4398
:10791000AA1A8B4200D322B1A81A346070602046A4
:10792000E7E7B3FBF1F24A438168059106920092C2
:1079300021462A46089B059FB847002844D1049851
:10794000039F60B10898009006980190384604990A
:1079500022462B46FFF767FF002835D490B3079BDC
:1079600006995B1A4D19089840180890BDE7681AE7
:107970000690B36806981B18491B5118079A8A424B
:1079800000D30A46184608990692FAF7C1FB069AF0
:10799000551938688069B5FBF0F14143681A079BB7
:1079A0009B1A08998918089100289ED138463146BB
:1079B000049A0793FFF75AFF079B002895D003E02E
:1079C000029801E03320C04309B0F0BDF0B589B0A2
:1079D000089307920C460590109D0F9F0E9A002069
:1079E0000190002D61D003970492079870B1079819
:1079F00000680899884209D107984068904205D8E4
:107A0000059909688F6939188A4239D3206808991D
:107A1000884208D16068904205D8059909684F6985
:107A200039188A4229D3059800684169B2FBF1F3FD
:107A30004B43D31A8D4200D37BB1D21A089E2660E5
:107A40006260A3684768069700913146069EB0477A
:107A500060BB002D049AC8D128E0B5FBF1F34B437D
:107A600041680291069300930899039B029FB847CF
:107A7000E0B906982D1A039F13E0111AA36802E0DB
:107A8000111A079B9B685918801A381885422A4694
:107A900000D302460692039F3846FAF739FB069850
:107AA0002D1A3F18049A82189BE7019809B0F0BD7F
:107AB000F0B50B4B0F2492B10D78066837096E4074
:107AC0003607B60E9E597E40370926402D0975406F
:107AD000AD005D597D400560491C521EEBE7F0BDCD
