:020000040800F2
:10200000301300200121000805430008BD370008F7
:102010002F420008D32B0008C96700080000000009
:10202000000000000000000000000000CD4D00088E
:10203000D92E000800000000AD4400082D5A000809
:102040001B2100081B2100081B210008DD4500089A
:102050001B2100081B2100081B2100081B21000870
:102060001B2100081B2100081B2100081B21000860
:102070001B2100081B2100081B2100081B21000850
:102080001B2100081B2100081B2100081B21000840
:102090008B6200081B2100081B2100081B2100087F
:1020A0001B2100081B2100081B2100081B21000820
:1020B0001B2100081B2100081B2100081B21000810
:1020C0001B2100081B2100081B2100081B21000800
:1020D0001B210008456000081B2100081B21000887
:1020E0001B2100081B2100081B210008DFF80CD071
:1020F00000F06EFC00480047F56700083013002030
:102100000648804706480047FEE7FEE7FEE7FEE791
:10211000FEE7FEE7FEE7FEE7FEE7FEE7315A0008CE
:10212000ED20000800487047FCB30008A0F1410111
:10213000192900D82030704730B505462A460B468D
:1021400012F8010B13F8014B08B1A042F8D01CB1F2
:10215000002802D06D1CF1E7284630BD10B50446BA
:1021600004E00B7800F8013B03B1491C521EF8D281
:10217000204610BD421C10F8011B0029FBD1801A1B
:102180007047000070B50F4D00B92868002412E0B8
:102190000A4602E09E4203D0521C1378002BF9D16C
:1021A000DAB2224305D02BB124B1002100F8011B83
:1021B00004E00446401C0678002EE9D12860204641
:1021C00070BD0000CC0300202DE9F04791460F467A
:1021D00080460446002614F8015B2DB1FFF7A2FFEC
:1021E0000068405DC007F6D12B2D02D02D2D18D0F0
:1021F000641E4A463946204600F006FB27B139687E
:10220000A14201D1C7F8008071054FF002040BD53F
:102210004042002803DD04F0D9FA0460A007BDE8BD
:10222000F08746F48066E4E70028F8DA04F0CEFA96
:1022300004606FF00040F2E72DE9F05F93460F462F
:1022400080460446002604F0C1FAD0F80090824689
:1022500014F8015B2DB1FFF765FF0068405DC00712
:10226000F6D12B2D02D02D2D1AD0641E0021CAF8D4
:1022700000105A463946204600F0C6FA014627B1FA
:102280003868A04201D1C7F80080DAF800000228BF
:1022900009D0CAF80090700505D54842BDE8F09F06
:1022A00046F48066E2E70846F8E780EA010210B5E6
:1022B00002F00043400022D04A001FD0010E01EB83
:1022C0001261C0F35600C2F3560240F4000042F41B
:1022D0000002A0FB022000047F39140400D0401C3F
:1022E00050EA124001D44000491EC2B20C0604EB71
:1022F000D010401C4008802A02D003E0002010BD0E
:1023000020F00100002900DA0020184310BD30B48D
:1023100080EA010202F0004530F0004221F0004066
:1023200013D090B1C30DD40DC2F31601C0F3160043
:10233000E41A41F4000140F400027D34914201D3DB
:10234000641C00E04900002C02DA30BC0020704719
:102350004FF400000023914201D3891A034340083F
:102360004FEA4101F7D151B1914202D14FF0004102
:1023700005E002D24FF0010101E06FF0010103EB33
:10238000C450284430BC00F08EBA2DE9FE4F804680
:1023900081EA0300C00F0C46009021F0004123F0B9
:1023A0000045B8EB0200A94105D2404621469046BF
:1023B0001C460B46024623F00040104347D0270D31
:1023C000C7F30A00C3F30A510290401A0190402853
:1023D0006BDAC3F3130040F4801B0098924620B1DF
:1023E0000023D2EB030A63EB0B0B01985946C0F1B3
:1023F0004002504600F0D7F906460D465046594671
:10240000019A00F0EFF910EB08006141002487EA1F
:10241000115284EAE7731A4340D0009A62B3019ADA
:10242000012A4FEA075215DC001B61EB02014FF055
:10243000004202EA0752CDE90042001C41F580113A
:1024400032462B4600F075FA03B0BDE8F08F4046E7
:102450002146F9E7001B61EB0201001C41F58013E6
:1024600000185B412018A2F5001747EB030140EA72
:10247000D570B6196D4111E06D084FEA360645EA90
:10248000C0754FEA0752001B61EB0201001C41F5C9
:10249000801149084FEA30000019514132462B465D
:1024A00003B0BDE8F04F00F035BA009801224000BB
:1024B0000023D0EB020263EBE073009821464FEA61
:1024C000E074B8EB000061EB0401E9E783F000433E
:1024D0005BE781F0004158E72DE9FE4F81EA0304F4
:1024E00004F0004421F0004100944FF0000B23F071
:1024F000004350EA01045ED052EA03045BD0C3F308
:102500000A54C1F30A552C44A4F2F3340194A0FBFD
:102510000254C1F3130141F48011C3F3130343F4D4
:10252000801301FB024400FB034E840A970A44EA2D
:10253000815447EA8357A4FB076802958D0A05FB7F
:1025400007854FEA932C04FB0C542705029D4FEAA4
:10255000065847EA1637B5EB08056EEB070C870EF1
:10256000920E47EA811742EA8312A7FB0201B6EBFB
:102570000B0164EB00042B0D43EA0C335E1844EBB3
:102580001C50DA465146E7FB0201C5F313044FEA3B
:102590000B3343EA14534FEA0432019C43EA060327
:1025A000A4F10C040294009CCDE900B400F0C1F940
:1025B00003B0BDE8F08F00200146F9E72DE9F04DAA
:1025C00081EA030404F0004B21F0004514464FF06B
:1025D000000A23F0004150EA050220D054EA01022B
:1025E0001DD0C5F30A570246C5F31303C1F3130008
:1025F000C1F30A5640F4801543F48013A7EB060894
:10260000101BD64608F2FD3873EB050002D308F123
:10261000010801E092185B41B8F1000F03DA0020D5
:102620000146BDE8F08D00204FF480110646844637
:102630000EE0171B73EB050705D3121B63EB0503B5
:1026400006434CEA010C49084FEA300092185B41FE
:1026500050EA0107EDD152EA030012D082EA0400E9
:1026600083EA0501084305D0101BAB4106D20122C5
:10267000002306E000224FF0004302E06FF0010269
:1026800053101AEB06004CEB085110EB0A0041EB1B
:102690000B01BDE8F04D00F03DB9C10F80EAE070DC
:1026A0000844CA079623002100F006B996230022A9
:1026B000114600F001B90EB5C10F80EAE070084480
:1026C000CA07002140F233438DE80E000A460B464C
:1026D00000F02FF903B000BD00F0004220F00040F0
:1026E000C10DC0F3160040F400007F2901DA00207C
:1026F0007047962903DCC1F19601C84001E0963984
:102700008840002AF4D04042704770B5C1F30A52A5
:1027100001F000450024C1F3130140F2FF3341F4FE
:1027200080119A4201DA002070BD40F233439A4290
:10273000A2F2334203DC524200F044F800E0904041
:102740002C43F1D0404270BD00F0004230F0004018
:102750000AD0C10D01F56071C0F3160042EA0151C3
:10276000C20840071143704700200146704701F03E
:10277000004330B421F0004150EA010206D00A0DB6
:10278000A2F56072C1F31301002A02DC30BC002004
:102790007047440F44EAC104C100E01830BC00EBAC
:1027A000C25000F080B8202A04DB203A00FA02F17F
:1027B000002070479140C2F1200320FA03F319432F
:1027C00090407047202A04DB203A21FA02F00021D1
:1027D000704721FA02F3D040C2F120029140084331
:1027E00019467047202A06DBCB17203A41FA02F03F
:1027F00043EAE07306E041FA02F3D040C2F120025E
:1028000091400843194670472DE9F05F82460078F1
:10281000002715468B460AF10104B946302801D03D
:102820009DB113E014F8010B0127782803D0582834
:1028300001D045B10AE00DB1102D07D100271025B8
:1028400014F8010B02E0082500E00A250026B04636
:102850000EE005FB080005FB06F1012701EB104621
:102860001FFA80F8B6F5803F00D3B94614F8010B83
:10287000294600F0BFF80028EBDABBF1000F05D0C5
:102880000FB1641E00E05446CBF80040B9F1000FD0
:1028900006D003F09BFF02210160C81EBDE8F09F37
:1028A00048EA0640FAE70029A8BF7047401C4900E3
:1028B00008BF20F00100704710B4B0FA80FC00FAA5
:1028C0000CF050EA010404BF10BC704749B1CCF1D0
:1028D000200421FA04F411FA0CF118BF012121435C
:1028E0000843A3EB0C01CB1D4FEA00614FEA102017
:1028F00042BF002010BC704700EBC35010440029B9
:10290000A4BF10BC7047401C490008BF20F0010064
:1029100010BC704710B5141E73F1000408DA401C97
:1029200041F1000192185B411A4301D120F00100EE
:1029300010BD2DE9F04D92469B4611B1B1FA81F2DE
:1029400002E0B0FA80F220329046FFF72CFF0446F6
:102950000F4640EA0A0041EA0B0153465A46084333
:1029600013D0114653EA010019D0C8F14002504675
:10297000FFF728FF05460E46504659464246FFF7E8
:1029800012FF084305D0012004E020463946BDE887
:10299000F08D0020054346EAE0762C4337430A9841
:1029A0006305E40AA0EB08000022FD0A44EA47544C
:1029B0000A3002D500200146E9E7010510196941F6
:1029C000DDE9084500196941BDE8F04DA2E70000C6
:1029D000064C074D06E0E06840F0010394E807006C
:1029E00098471034AC42F6D3FFF784FBDCB70008FD
:1029F000FCB700083A2800D2303820F02002412AE3
:102A000001D3A2F13700884201D34FF0FF30704765
:102A100070B58C1810F8015B15F0070301D110F8A0
:102A2000013B2A1106D110F8012B03E010F8016BCD
:102A300001F8016B5B1EF9D12B0705D40023521E50
:102A40000DD401F8013BFAE710F8013BCB1A921CB8
:102A500003E013F8015B01F8015B521EF9D5A142B6
:102A6000D8D3002070BD00002DE9F04181880446D4
:102A70007A2900D97A21608800220B18532B01D8BB
:102A8000802901D910462BE0A37AA3750323E375AF
:102A90001D462276144B46180FE000BF53F8201055
:102AA00001B1098867190A0ABA756D1CAAB2A5187E
:102AB000521CA975401C95B280B28642EED8E81E21
:102AC0002076294604F1160001F0B2FB0146601998
:102AD0006D1C8175A8B2090A2218401C9175C0B2FC
:102AE0002073BDE8F0810000440100202DE9F04191
:102AF000818804467A2900D97A21608800220B183F
:102B0000422B01D8802901D910462BE0A37AA37566
:102B10000423E37503252276144B46180FE000BF0B
:102B200053F8201001B1098867190A0ABA756D1C9B
:102B3000AAB2A518521CA975401C95B280B2864253
:102B4000EED8E81E2076294604F1160001F070FB4D
:102B5000014660196D1C8175A8B2090A2218401C33
:102B60009175C0B22073BDE8F08100003C000020E8
:102B700010B50446807AA0751020E0756088010ABF
:102B8000217660760020A076207AE076062104F196
:102B9000160001F04DFB2077000A607708202073B3
:102BA00010BD10B50446807AA0750621E1756088D5
:102BB000020A22766076A088020AA276E07604F104
:102BC000160001F035FB2077000A6077082020739B
:102BD00010BDFEE770B50488134B002101EB4102E4
:102BE00033F82250AC4218D103EB82024588568854
:102BF000B54212D185889688B5420ED1C588D6884F
:102C0000B5420AD105891689B54206D1458952894E
:102C1000954202D14FF0FF3070BD491C0904090CE8
:102C2000DCD0002070BD00008AA8000830B5134B2E
:102C300013481A6B8266596BC1669C6B0467DD6B27
:102C40000F4B45674FF0FF305B6A8A4202DD8B42D3
:102C500003DA11E004DA8B420FDA93420DDD0BE068
:102C60000749AC42896A02DDA94203DA04E004DACA
:102C7000A94202DAA14200DD002030BD6409002033
:102C80009002002006484FF6FE71B0F84400401E46
:102C9000884202D24FF0FF3070470020704700009A
:102CA00064090020FFF75ABAC10002D50249086042
:102CB0007047024948607047040402400000024027
:102CC0000029016802D041F0010102E04FF6FE72D6
:102CD000114001607047000001684FF6FE7211401C
:102CE00001600021016041608160C1603149314A69
:102CF0000839904203D1486840F00F0006E02D4AA1
:102D00001432904204D1486840F0F00048607047A7
:102D1000284A2832904203D1486840F47060F5E7B1
:102D2000244A3C32904203D1486840F47040EDE7B9
:102D3000204A5032904203D1486840F47020E5E7C1
:102D40001C4A6432904203D1486840F47000DDE7C9
:102D5000184A7832904203D1486840F07060D5E755
:102D6000154A111F904203D1086840F00F0006E099
:102D7000114A1432904204D1086840F0F000086013
:102D800070470D4A2832904203D1086840F47060C1
:102D9000F5E7094A3C32904203D1086840F470409C
:102DA000EDE7054A50329042EAD1086840F47020BD
:102DB000E5E7000008000240080402400146002048
:102DC000CA0001D5034A00E0034A12680A4200D053
:102DD00001207047000402400000024030B5036843
:102DE00047F6F07293430C6A8A682243D1E904459E
:102DF0002C4322438C692243CC6922434C6A2243F0
:102E00008C6A22431A430260CA6842600A68826080
:102E10004968C16030BD000070B5044690F8960066
:102E2000207094F897306370B4F898004FF0FF3535
:102E300042BA6280B4F89A00032B40BAA08019D03D
:102E4000042B10D02349062B1CD0102B19D1C0B253
:102E5000207294F89C206272082812D8B2EB400FBE
:102E60000FD100202BE0206900280AD12046FFF76F
:102E70003DFE05E02069002803D12046FFF7F4FD60
:102E8000256170BD532AFCD251F822100029F8D0D8
:102E9000088020690028F4D12046FFF782FEEFE782
:102EA00062880244532A08D251F822202AB104EB46
:102EB0004003B3F89D305BBA1380401CC0B2227A45
:102EC0008242EDD820690028DBD12046FFF750FE72
:102ED000D6E70000440100207047000070B5064EA0
:102EE0000546346903E000BF00F054FE00BF3069BE
:102EF000001BA842F8D370BDEC0E002031B54FF492
:102F00005C7404E0204600F009F800F043FEBDF8D0
:102F10000010481EADF80000F4D238BD01B5BDF870
:102F200000004FF6FF7101EA8000ADF80000BDF827
:102F30000000001DADF80000BDF80000411EADF816
:102F40000010F9D208BD00002DE9F04100250E4621
:102F50000746402A01D9402201E002B90122144665
:102F6000022000F02FFDA021022000F0DFFC88B934
:102F7000390A022000F0DAFC60B9F9B2022000F050
:102F8000D5FC38B9022000F01DFDA121022000F07F
:102F9000CDFC10B10220BDE8F081641E08E000BF46
:102FA00000F06EFC7055022000F00AFC6D1CEDB2C2
:102FB000A5424FF00200F3DB00F062FC70550220E6
:102FC00000F02EFC022000F035FD0020E3E70000B9
:102FD00070B50D460646402A01D9402201E002B9EB
:102FE00001221446022000F0EDFCA021022000F096
:102FF0009DFC88B9310A022000F098FC60B9F1B25A
:10300000022000F093FC38B90AE000BF15F8011B5C
:10301000022000F08BFC08B1022070BD641EE4B2F7
:10302000002CF3D1022000F005FD002070BD00004F
:1030300010B50A490A4B00204FF47F4403EBC0123D
:10304000B2F8002CA24202D10880012010BD401C21
:1030500080B20828F2D30020088010BD3000002084
:10306000001000080C4830B401780C4A01F0070148
:10307000018000200A4BC90101EB40041444B4F85C
:10308000024C23F81040401C80B23F28F4D330BCDF
:103090003F21034801F0E7B830000020001000088D
:1030A00064090020024AC0B232F81000088070475C
:1030B000640900202DE9F041244C00254FF6FF77EC
:1030C000207800F00700208000F0B0F82088204E23
:1030D000002106EBC01000F08FF820781D4A401C3C
:1030E00000F0070002EBC0112080B1F8001CB942CB
:1030F00005D006EBC01000F03BF80020208080B225
:1031000006EBC0104FF47F4100F076F83E211248E4
:1031100001F0A9F8104EDFF83880A6F87C0008F11D
:1031200002082088C00100EB450101EB080036F8D9
:10313000151000F061F86D1CADB207463F2DF0D3BD
:1031400000F052F83846BDE8F08100003000002061
:10315000001C000800100008640900200246084610
:10316000D1B2024A22F81100704700006409002021
:1031700070B505464FF43026304600F063F8042859
:1031800011D1094C206940F002002061656120697D
:1031900040F040002061304600F054F8216941F6CB
:1031A000FD721140216170BD0020024008490420D9
:1031B000CA68D20701D001207047CA68520701D5FA
:1031C00002207047C968C906FBD50320704700007C
:1031D0000020024003490020C969890700D5012069
:1031E00070470000002002400248016941F0800160
:1031F0000161704700200240F0B506464FF40057C9
:103200000D46384600F01EF804280CD1064C206903
:1032100040F0010020613580384600F013F8216944
:10322000BA1E11402161F0BD00200240034802494E
:103230004160034941607047230167450020024017
:10324000AB89EFCD00B50346FFF7B0FF03E000BF49
:10325000FFF7ACFF5B1E012803D0002B00D1052037
:1032600000BD002BF4D1FAE72DE9F8430124ADF8B5
:10327000004018263B4F8DF803608DF802406946E8
:10328000384600F075F8FE20ADF8000010258DF8E6
:1032900003508DF802406946384600F069F8600234
:1032A000ADF800008DF803608DF80240694638469D
:1032B00000F05EF84FF41040ADF800004FF0480801
:1032C0008DF8038002268DF802606946384600F0CA
:1032D0004FF80820ADF80000DFF88C908DF803500F
:1032E0008DF802606946484600F042F808214846D9
:1032F00000F0C5F801211D4800F08CF86020ADF801
:10330000000014278DF803708DF802406946484686
:1033100000F02EF88020ADF800008DF803808DF8C5
:1033200002406946484600F023F84FF44070ADF87B
:1033300000008DF803708DF802406946484600F0A1
:1033400017F82403ADF800408DF803508DF80260A3
:103350006946484600F00CF82146484600F08FF8D0
:10336000BDE8F88300080140000C01400002300075
:10337000F0B5CA78002502F00F03D20601D58A788D
:1033800013430A784FF00F0E12F0FF0F4FF00102B7
:103390001CD004680F8802FA05F63740B74211D1F5
:1033A0004FEA850C0EFA0CF724EA070703FA0CF42F
:1033B0003C43CF78282F02D0482F02D002E046614C
:1033C00000E006616D1C082DE4D304600C88FF2C1E
:1033D0001ED944685FF0000606F1080702FA07F5F7
:1033E0000F882F40AF420FD14FEA860C0EFA0CF730
:1033F000BC4303FA0CF73C43CF78282F00D145613A
:10340000CF78482F00D10561761C082EE4D34460A4
:10341000F0BD0000F0B5144C002801DAE36900E0CB
:103420006368420D120185B2C0F301579540C0F3A5
:103430000346032F05D0C2020AD50322B2409343AC
:1034400007E023F07062636823F07063636002E05A
:10345000AB4343F0706201B12A43002801DAE26114
:10346000F0BD6260F0BD0000000001400246002097
:1034700092680A4200D001207047416170470161A3
:1034800070470AB101617047416170472DE9F04111
:10349000203AD6B201F10F02D3B2C21D164D00245C
:1034A000D2B201F0C7FB2C2001F064FC13480021CC
:1034B00000EB0617124E785C0022C30701D0338858
:1034C00000E07388521C4FEA132C05F804C005EB8A
:1034D000040CA41C4008D2B28CF80130A4B2082A13
:1034E000EBD3491CC9B21029E5D32846BDE8F04109
:1034F0004FF4807101F026BC040A0020A8A800083F
:10350000240300202DE9F0412E4D0024A2F13003C8
:10351000092B01D8DEB214E0412A2CD008DC202A85
:103520000ED02D2A31D02E2A21D03A2A08D128E0D7
:10353000562A1ED0572A20D0682A20D06D2A22D0A1
:103540000A2601F11F02D3B200F10F02D2B201F03C
:1035500071FB2C2001F00EFC1B48002100EB8617AC
:103560001A4E785C0022C30711D0338810E00B2676
:10357000E7E70C26E5E70D26E3E70E26E1E70F2651
:10358000DFE71026DDE71126DBE71226D9E773888F
:10359000521C4FEA132C05F804C005EB040CA41CC4
:1035A0004008D2B28CF80130A4B2082ADBD3491CFF
:1035B000C9B24029D5D32846BDE8F0414FF4806117
:1035C00001F0C0BB040A0020B8AE000824030020AC
:1035D0002DE9F0411C4615460F46064608E03946DF
:1035E00030466D1CFFF752FF0836641EF6B2E4B297
:1035F0002A78002A01D0002CF1D1BDE8F0812DE914
:10360000F0411C4615460F46064608E0394630464E
:103610006D1CFFF777FF1036641EF6B2E4B22A780D
:10362000002A01D0002CF1D1BDE8F0812DE9F04154
:103630004FF6E0710022384C4E114FF4FC654FF606
:103640001F07052803D0062840D0072861D16280D3
:103650002180314A00211023121D0846FFF7B8FFD0
:103660002D4A1023143219460020FFF7B1FF2A4AD1
:1036700025801023243220210020FFF7A9FF264AAD
:103680001023343230210020FFF7A2FF224A268087
:103690001023443240210020FFF79AFF1E4A1023D6
:1036A000543250210020FFF793FF1B4A278010233C
:1036B000643260210020FFF78BFFBDE8F041164A1D
:1036C0001023743270210020FFF782BF62802180B6
:1036D000114A0021082384320846FFF790FF0E4A62
:1036E000258008238C3220210020FFF788FF0A4A1A
:1036F00026800823943240210020FFF780FF278096
:10370000BDE8F041044A08239C3260210020FFF705
:1037100076BFBDE8F08100002403002018B1012825
:1037200003D003A0704705A0704707A070470000B2
:10373000554E4B4E4F574E20000000005354445FEF
:1037400056323020000000004D494E495F5632305D
:103750000000000018B1012803D003A0704704A0A6
:10376000704705A070470000554E4B4E4F574E0016
:103770004C43443136303200544654312E343400F8
:1037800048B1012805D0022801D004A0704705A047
:10379000704706A0704707A0704700004F54484587
:1037A000520000004E5443354B000000505431305D
:1037B00030000000545950454B000000FEE7000067
:1037C00070B5164C022816D020212046FFF755FE72
:1037D0000320FFF7A3FB40212046FFF750FE052002
:1037E000FFF79CFB40212046FFF747FEBDE87040F5
:1037F0000220FFF793BB4FF480712046FFF73DFE98
:103800000320FFF78BFB4FF4007529462046FFF796
:1038100036FE0520FFF782FB2946E4E7000C014055
:1038200070B5164C022816D020212046FFF727FE3F
:103830000320FFF773FB40212046FFF720FE052001
:10384000FFF76CFB40212046FFF717FEBDE87040F4
:103850000220FFF763BB4FF480712046FFF70FFE95
:103860000320FFF75BFB4FF4007529462046FFF766
:1038700006FE0520FFF752FB2946E4E7000C014055
:103880002DE9F0470024284D07464FF4807902289F
:1038900036D020212846FFF7F2FD00264FF40078AD
:1038A0000120FFF73BFB022F2CD040212846FFF7D9
:1038B000E4FD0520FFF732FB40212846FFF7DFFD3E
:1038C0000320FFF72BFB20212846FFF7CFFD6106E1
:1038D0000C0EC00701D0641CE4B20220FFF71EFBEF
:1038E000761CF6B2082EDBD3022F1BD040212846CF
:1038F000FFF7C3FD0220FFF711FB2046BDE8F0876C
:103900004946C7E741462846FFF7B7FD0520FFF7C0
:1039100005FB41462846FFF7B2FD0320FFF7FEFAFC
:103920004946D1E74146E2E7000C01402DE9F04766
:10393000234D0F46064600244FF480794FF400785B
:1039400007FA04F0C0F3C012022E26D02021284628
:10395000FFF797FD0120FFF7E1FA40212846FFF726
:103960008EFD0520FFF7DAFA40212846FFF785FD96
:10397000641CE4B2082CE3D30220FFF7CFFA022E36
:103980001BD020212846FFF77AFD0220FFF7C6FA58
:103990003046BDE8F04700F077B849462846FFF7C3
:1039A00070FD0120FFF7BAFA41462846FFF767FD90
:1039B0000520FFF7B3FA4146D7E74946E2E70000A2
:1039C000000C014070B51A4C02281AD02021204664
:1039D000FFF755FD40212046FFF751FD0520FFF779
:1039E0009DFA20212046FFF748FD0520FFF796FAB3
:1039F00040212046FFF741FDBDE870400220FFF75F
:103A00008DBA4FF4807631462046FFF738FD7500B9
:103A100029462046FFF733FD0520FFF77FFA3146A0
:103A20002046FFF72AFD0520FFF778FA2946E0E750
:103A3000000C014070B5134C022813D02021204601
:103A4000FFF71BFD40212046FFF719FD0520FFF77A
:103A500065FA20212046FFF712FDBDE870400420E2
:103A6000FFF75CBA4FF4807529462046FFF705FD45
:103A700069002046FFF703FD0520FFF74FFA2946AE
:103A8000E8E70000000C014070B5164C022816D083
:103A900040212046FFF7F3FC0320FFF73FFA2021E7
:103AA00025462046FFF7E2FC044640214FEA050088
:103AB000FFF7E3FC0220FFF731FA204670BD4FF418
:103AC000007529462046FFF7DAFC0320FFF726FAA7
:103AD000691026462046FFF7C9FC044629463046B1
:103AE000E6E70000000C014030B5002340F6E2514B
:103AF00040F27732C84201DC184830BD47F6E67123
:103B0000884229DB41F6BE6030BDD118491034F936
:103B10001150854203DDA1F101010AB203E015DA7B
:103B200001F101010BB29342EFDD34F9121034F9C7
:103B30001330401A00EB80005B1A400090FBF3F05A
:103B4000643A02EB820100EB410003E0643901EBCF
:103B50008100400000B230BD014CD6E718FCFFFFE9
:103B60009AA1000810B500F00DF845F2555000F08C
:103B700025F8032000F016F8BDE8104040F6A660D6
:103B800000F016B802494CF6CC40086070470000BF
:103B90000030004002494AF6AA2008607047000041
:103BA000003000400149486070470000003000408C
:103BB00001498860704700000030004001490860FA
:103BC0007047000000300040114810B50189C1F372
:103BD000011149B1012919D14FF4E13002F084FA01
:103BE000BDE8104004F082BE40890A49000A097805
:103BF000B0FBF1F201FB1200074951F8200002F07E
:103C000073FABDE81040054800F062BB10BD00002B
:103C1000EC0E00207499000844990008040E00205E
:103C200070B500F0EDF9054600F07AFD044601F0AC
:103C3000CFF8012D03D045B1022D0DD00FE014B106
:103C4000012C16D00BE0032070BD012C02D0022CF9
:103C50000DD004E0052070BD3CB1022C0BD0012832
:103C60000BD0022809D0002070BD042070BD0620B2
:103C700070BD072070BD082070BD092070BD000018
:103C800010B50021012000F0D9F8002003492022BE
:103C90000A54401CC0B22028FAD310BDE409002009
:103CA00010B50520FFF72AF90021302000F056F961
:103CB0000520FFF723F90021302000F04FF9012003
:103CC000FFF71CF90021302000F048F90120FFF730
:103CD00015F90021282000F041F90520FFF70EF921
:103CE0000021282000F0AAF80021082000F0A6F802
:103CF0000021062000F0A2F800210C2000F09EF820
:103D00000021BDE81040012000F098B870B52C4D9E
:103D10000024F8B101282AD0022836D003282146F1
:103D200041D0802000F08AF8285D012100F086F85B
:103D3000641CE4B2102CF7D30021C02000F07EF800
:103D400010240121285D00F079F8641CE4B2202CD5
:103D5000F7D370BD0021802000F070F8285D0121AC
:103D600000F06CF8641CE4B2082CF7D370BD00219D
:103D7000882000F063F808240121285D00F05EF837
:103D8000641CE4B2102CF7D370BD0021C02000F0F9
:103D900055F810240121285D00F050F8641CE4B2AD
:103DA000182CF7D370BDC82000F048F81824012162
:103DB000285D00F043F8641CE4B2202CF7D370BDFA
:103DC000E409002070B51C4E002420213046FFF786
:103DD00054FB40213046FFF752FB0A20FFF79EF8C4
:103DE00080213046FFF74BFB0A20FFF797F8124D72
:103DF0000C3506E0641CA4B20A20FFF78FF8022CF1
:103E000013D82868296800F00200800101F004013D
:103E100040EA0110296801F0080140EA81002968A0
:103E200001F0100108430006E4D43046BDE87040BC
:103E30008021FFF722BB00000008014010B500F010
:103E400005F8BDE81040FFF7BDBF000070B5414D5B
:103E50000C46064680212846FFF70FFB4FF0200155
:103E6000284614B1FFF70BFB01E0FFF706FB4021EA
:103E70002846FFF702FB0A20FFF750F8364C46F0C1
:103E80000F000106216802D541F0020101E021F096
:103E9000020121604106216802D541F0040101E0E0
:103EA00021F0040121608106216802D541F008015A
:103EB00001E021F008012160C006206802D540F031
:103EC000100001E020F0100020600A20FFF726F823
:103ED00080212846FFF7D3FA0A20FFF71FF8802138
:103EE0002846FFF7CAFA0F2040EA061001062168AB
:103EF00002D541F0020101E021F0020121604106FA
:103F0000216802D541F0040101E021F004012160A3
:103F10008106216802D541F0080101E021F0080185
:103F20002160C006206802D540F0100001E020F0BA
:103F3000100020600A20FEF7F1FF80212846FFF7DD
:103F40009EFA0A20FEF7EAFF2846BDE8704080216D
:103F5000FFF793BA000801400C08014070B5264DE8
:103F60000E46044680212846FFF787FA4FF02001CD
:103F7000284616B1FFF783FA01E0FFF77EFA4021E9
:103F80002846FFF77AFA0A20FEF7C8FF1B492006E9
:103F9000086802D540F0020001E020F0020008604D
:103FA0006006086802D540F0040001E020F004003B
:103FB0000860A006086802D540F0080001E020F083
:103FC00008000860E006086802D540F0100001E033
:103FD00020F0100008600A20FEF7A0FF802128468C
:103FE000FFF74DFA0A20FEF799FF2846BDE870401A
:103FF0008021FFF742BA0000000801400C08014090
:1040000010B500244FF480510B48FFF72FFA0B49ED
:104010000028087808D0642801D3022402E00A2886
:1040200000D30124002004E0421C0A70642801D35C
:1040300064200870204610BD00080140C80300201D
:104040002DE9F0413921404800F00DF910B1002070
:10405000BDE8F0813C483D49B0F86020CA80B0F826
:1040600062200A81B0F864204A81B0F866208A8113
:10407000B0F86820CA81364C0568364B364A256050
:104080009D4201D322600260344C056925609D4247
:1040900001D322600261324C056A324F2560BD4275
:1040A00001D322600262304E456A3560BD4202D2C1
:1040B0002468A54202DB0024346044622B4C856AEC
:1040C0002560954203D341F2883525608562C46A34
:1040D0009C4202D346F2A814C462B0F84A40632C52
:1040E00002D90424A0F84A40214D046B2C60214DD4
:1040F000446B2C60204D846B2C60204DC46B2C6075
:10410000046C9C4200D3C2620889C0F301221C489F
:10411000022A027006D30A8922F440720A81C2F38D
:1041200001220270C889C0F381021648042A027075
:1041300006D3CA8922F00C02CA81C2F38101017040
:104140004FF0FF3084E7000064090020EC0E0020EF
:104150000803002080969800A08601000C03002030
:10416000F002002040420F00F4020020C4020020B0
:10417000F8020020FC0200200003002004030020BD
:10418000950200203800002070B506460C004FF064
:10419000000039D020603046FFF714FCD1213046B2
:1041A000FFF7C4FB3046FFF76BFB05463046FFF7D1
:1041B00007FB2068A90702D54FF07F4100E00021EE
:1041C000084340EA054020603046FFF759FB0546AA
:1041D0003046FFF7F5FA206840EA052020603046B7
:1041E000FFF74EFB05463046FFF7EAFA2068284302
:1041F00020603046FFF744FB04463046FFF710FBD3
:104200003046FFF717FC204670BD70B50C460546DA
:10421000FFF7D8FBD0212846FFF788FB2146284628
:10422000FFF784FB2846BDE87040FFF703BCFEE7BC
:1042300070B5064600224FF6FF704AF201040FE007
:10424000B35C58405FF0000310F0010F4FEA5000DC
:1042500000D060405B1C9BB2082BF5D3521C92B27D
:104260008A42EDD370BD70B5064600224FF6FF704E
:104270004AF201040FE036F812305840002310F0E3
:10428000010F4FEA500000D060405B1C9BB2082B2E
:10429000F5D3521C92B28A42EDD370BD10B50446DC
:1042A000C07A002813D0A28A521C92B2A2828A42FB
:1042B0000DD900F03F01E17204F19600FFF7B8FF5D
:1042C00010B92046FEF7A8FD0020E072A08210BDC4
:1042D000034A0021C17252898272818270470000B4
:1042E000EC0E002010B500238382C27A402A02D34C
:1042F000C372184610BD531C00F19604C3721155C9
:10430000084610BD7047000030B50023B4224EF2BD
:10431000C401884201D3184830BDA02829D840F2F2
:10432000DC5030BDD118491034F81150854203D209
:10433000A1F101010AB203E015D901F101010BB2AB
:104340009342EFDD34F8121034F81330401A00EBCA
:1043500080005B1A400090FBF3F01E3A02EB8201F2
:1043600000EB410003E01E3901EB8100400000B288
:1043700030BD024CD6E70000D4FEFFFF769900085E
:1043800008B54FF4E06000F03FF825208DF80000FC
:1043900000208DF8020001208DF80300684600F02F
:1043A00001F808BD70B50F23C47801780122F4B17B
:1043B000144C2468457804F4E064C4F5E064240AED
:1043C000C4F10406E3408478B5401C402C4301F15D
:1043D000E021230181F80034007800F01F018A40B9
:1043E0004009800000F1E020C0F8002170BD01F01C
:1043F0001F0082404809800000F1E020C0F88021C1
:1044000070BD00000CED00E002490843024908605D
:10441000704700000000FA050CED00E030B5002206
:1044200040F23C714FF45773884201D8184830BDB0
:1044300048F2FF11884229D341F6C81030BD9918BF
:10444000491034F81150854203D9A1F101010BB292
:1044500003E015D201F101010AB29A42EFDD34F80E
:10446000121034F81330401A00EB80005B1A400041
:1044700090FBF3F0C83A02EB820100EB410003E04D
:10448000C83901EB8100400000B230BD014CD6E7D5
:1044900030F8FFFFE09A00080348016821F00401AA
:1044A000016030BF7047000010ED00E07047000071
:1044B000044A0029516901D0014300E08143516160
:1044C0007047000000100240044A0029D16901D061
:1044D000014300E08143D1617047000000100240B9
:1044E000044A0029116901D0014300E081431161B0
:1044F0007047000000100240044A0029916901D071
:10450000014300E0814391617047000000100240C8
:10451000044A0029D16801D0014300E08143D16001
:10452000704700000010024010B501210846FFF757
:10453000BFFF01210448FFF7C7FFBDE8104001217C
:1045400045F20D00FFF7D8BF0100001030B51F493C
:104550004A6812F00C031E4A03D0042B01D0082B2A
:1045600021D002604A680F231A4C03EA1212A35C9E
:104570000268DA4042604B68072505EA1323E35CD2
:1045800022FA03F383604B6805EAD323E35CDA4045
:10459000C2604968032303EA9131231F595CB2FBCF
:1045A000F1F1016130BD4A684B6802F470124FF0BE
:1045B000020413F4803F04EB924202D04B689B0349
:1045C00001D5054B00E0024B5A43CAE700100240F8
:1045D00000127A000400002000093D00704700002E
:1045E000444810B5424A026043484449444B026083
:1045F00042608260C2600A60026142618261510071
:10460000C26119603F4B0162002119603E4C41F2CA
:1046100088334162236083625310C3623B4B19604D
:104620003B4B016319603B4B416319603A4B81631B
:104630001960C0E90F12A0F84410A0F84610A0F8C5
:1046400048100422A0F84A203448C180C28842F0B1
:104650000102C280C28842F00202C2800181028946
:1046600022F003020281028922F03002103202811C
:10467000028922F440720281028922F440520281AE
:104680004181428922F0FF02521C42814289D2B20A
:1046900002F5407242818181828922F00102828189
:1046A000828922F002028281828922F0F002403265
:1046B00082818289D2B202F580728281C181C189F0
:1046C00041F00101C181C18921F0F0018031C18136
:1046D000C18921F00C01C181C18921F47041C181DE
:1046E000C18921F4706101F5A061C18110BD000094
:1046F000A086010008030020640900200C030020AC
:10470000F0020020F4020020C4020020F802002081
:10471000FC0200200003002004030020EC0E002017
:1047200010B500244FF400410B48FEF79FFE0B49E3
:104730000028487808D0642801D3022402E00A281F
:1047400000D30124002004E0421C4A70642801D3F5
:1047500064204870204610BD00080140C8030020B6
:104760000029018802D041F0400101E021F0400120
:1047700001807047F0B5284F91B03846FEF7ACFA8B
:104780000024264DCDE900548026CDE9044603944B
:104790006814CDE9084002940694079469463846A7
:1047A0000A94FEF71BFB1C4F14373846FEF794FAA9
:1047B00010200095CDE90140CDE90446039406940C
:1047C000079408940994694638460A94FEF706FB54
:1047D000ADF82C404FF48270ADF83040ADF82E00AB
:1047E0000220ADF832000120ADF83400ADF83840B9
:1047F0004002ADF83A40ADF83600084C0720ADF85D
:104800003C000C3C0BA9204600F0A7F801212046F3
:10481000FFF7A6FF11B0F0BD1C0002400C300140B4
:104820002DE9F84FFF228DF80020404C0026E06370
:104830006163E06920F08000E061C4F828D0216263
:104840003B4D01220221284600F074F80122114656
:10485000284600F06FF8DFF8D490012109F1300903
:104860004846FEF72DFADFF8C4A001210AF11C0A20
:104870005046FEF725FA4FF400784FF4FA7706E039
:10488000761CB6B20A20FEF749FBBE4204D8404669
:10489000FEF794FA0028F3D0002606E0761CB6B2A4
:1048A0000A20FEF73BFBBE4205D80221284600F055
:1048B00049F80028F2D0002606E0761CB6B20A209D
:1048C000FEF72CFBBE4205D88021284600F03AF8BE
:1048D0000128F2D0002606E0761CB6B20A20FEF7C8
:1048E0001DFBBE4204D82020FEF768FA0028F3D052
:1048F00000214846FEF7E4F900215046FEF7E0F9B2
:1049000000220221284600F015F800220121284645
:1049100000F010F84046FEF7C7F92020FEF7C4F972
:10492000E06940F08000E061BDE8F88F00000240DF
:1049300000300140002A828801D00A4300E08A4307
:10494000828070470246002012890A4200D001206E
:104950007047808970478181704730B502884C88E4
:1049600002F441530A88CD8822438C882C43224389
:104970000C8922434C8922438C892243CC892243CF
:104980001A430280828B22F400628283098A0182A8
:1049900030BD000070B50B4C054602212046FFF7E4
:1049A000D1FF0028F9D029462046FFF7D4FF012186
:1049B0002046FFF7C7FF0028F9D02046FFF7C9FFC0
:1049C000C0B270BD0030014070B50021030A114A29
:1049D0005FFA80F002EB410402F81130491C89B201
:1049E00060708029F6D37F2300211A46084600F024
:1049F00021F92C2000F0BEF900244FF480752946DF
:104A0000044800F09FF9FFF7C5F8641CA4B2802C9D
:104A1000F5D370BD040A002010B5844C0221204655
:104A2000FEF72DFD0120FEF759FA02212046FEF780
:104A300024FD0120FEF752FA02212046FEF71FFD59
:104A40000C20FEF74BFA112000F094F90C20FEF731
:104A500045FAB12000F08EF9022000F0A1F93520CE
:104A600000F09EF9362000F09BF9B22000F082F9A8
:104A7000022000F095F9352000F092F9362000F080
:104A80008FF9B32000F076F9022000F089F9352083
:104A900000F086F9362000F083F9022000F080F95A
:104AA000352000F07DF9362000F07AF9B42000F0CE
:104AB00061F9032000F074F9C02000F05BF9A22036
:104AC00000F06EF9022000F06BF9842000F068F924
:104AD000C12000F04FF9C52000F062F9C22000F0BB
:104AE00049F90D2000F05CF9002000F059F9C320CD
:104AF00000F040F98D2000F053F92A2000F050F921
:104B0000C42000F037F98D2000F04AF9EE2000F0C3
:104B100047F9C52000F02EF90A2000F041F93620AF
:104B200000F028F94248007830B1012806D0022868
:104B300078D0032805D177E0A82000E0C82000F055
:104B40002FF9E02000F016F9122000F029F91C20BE
:104B500000F026F9102000F023F9182000F020F9C9
:104B6000332000F01DF92C2000F01AF9252000F068
:104B700017F9282000F014F9282000F011F9272057
:104B800000F00EF92F2000F00BF93C2000F008F99E
:104B9000002000F005F9032000F002F9032000F0E6
:104BA000FFF8102000F0FCF8E12000F0E3F81220FC
:104BB00000F0F6F81C2000F0F3F8102000F0F0F8F8
:104BC000182000F0EDF82D2000F0EAF8282000F081
:104BD000E7F8232000F0E4F8282000F0E1F828208E
:104BE00000F0DEF8262000F0DBF82F2000F0D8F8E7
:104BF0003B2000F0D5F8002000F0D2F8032000F0B0
:104C0000CFF8032000F0CCF8102000F0C9F83A20CB
:104C100000F0B0F8052000F0C3F8BDE810402920EE
:104C200000F0A8B868208AE7082088E7000801405B
:104C3000380000202DE9F84F074641480E461C4633
:104C40000178B01C00F0FF0B981C154600F0FF0A1D
:104C500071B3B81C00F0FF09A81C00F0FF0801297F
:104C600033D002294DD0032920D12A2000F082F828
:104C700000258DF800508DF801908DF802508DF8C8
:104C800003800421684600F05DF82B2000F072F8E4
:104C9000761C8DF800508DF801608DF80250641C70
:104CA0008DF803400421684600F04CF8BDE8F88F09
:104CB0002A2000F05FF80024FF1C8DF800408DF8DA
:104CC00001708DF80240ED1C27E02A2000F052F818
:104CD00000258DF800508DF801908DF802508DF868
:104CE00003800421684600F02DF82B2000F042F8E4
:104CF000F61C8DF800508DF801608DF80250E41C10
:104D0000CEE72A2000F036F800247F1C8DF8004002
:104D10008DF801708DF802406D1C8DF80350042150
:104D2000684600F00FF82B2000F024F88DF80040C2
:104D30008DF801B08DF802408DF803A0B2E70000B5
:104D40003800002070B50A4C0D4606460421204666
:104D5000FEF793FB08212046FEF791FB29463046DB
:104D6000FFF75EFD2046BDE870400421FEF787BBDB
:104D70000008014070B5094C054604212046FEF7A5
:104D80007CFB08212046FEF778FB2846FFF702FE51
:104D90002046BDE870400421FEF771BB00080140C9
:104DA00070B5094C054604212046FEF766FB082134
:104DB0002046FEF764FB2846FFF7ECFD2046BDE8E1
:104DC00070400421FEF75BBB000801407047000003
:104DD000044A002091784B1C9370642901D364210C
:104DE00091707047C80300200B4810B5C1880B4C68
:104DF00024F8601F018961804189A1808189E18057
:104E0000C089208138210548FFF72DFA2082BDE8AE
:104E10001040FEF74FB90000EC0E0020640900209E
:104E2000F0B52E23002806DA302008708B70487009
:104E3000C870087119E0494F0A22642542F21076C1
:104E40004FF47A74B84212DA90FBF6F696FBF2F75A
:104E500002FB176630360E704B7090FBF4F393FB39
:104E6000F2F402FB1433303316E04871F0BD3C4FCE
:104E7000B84222DA90FBF2F090FBF6F696FBF2F7DE
:104E800090FBF4F402FB176630360E7094FBF2F6DA
:104E900002FB164430344C708B7090FBF5F393FB9F
:104EA000F2F402FB14333033CB7090FBF2F393FB3C
:104EB000F2F402FB1433303342E02A4FB8421ADADC
:104EC00090FBF5F090FBF6F696FBF2F790FBF4F40E
:104ED00002FB176630360E7094FBF2F602FB1644A6
:104EE00030344C7090FBF5F494FBF2F502FB154462
:104EF00030348C70D8E71C4FB84228DA90FBF4F0BD
:104F000090FBF6F696FBF2F790FBF4F402FB1766C3
:104F100030360E7094FBF2F602FB164430344C70BF
:104F200090FBF5F494FBF2F502FB154430348C70E1
:104F300090FBF2F494FBF2F502FB15443034CC7094
:104F40000B7190FBF2F302FB130030308DE7392038
:104F5000087048708870C8700B7186E7A0860100E1
:104F600040420F008096980000E1F5050A2290FB70
:104F7000F2F310B593FBF2F402FB143330330B70F1
:104F800090FBF2F302FB13003030487010BD0000BC
:104F90002DE9F04F0A226424DFF8BCC1DFF8BC9190
:104FA000DFF8BCA12E256F4F42F210764FF47A73D2
:104FB0004FF0390B002848DBB84201DA202708E01F
:104FC000604515DA90FBF7F797FBF2FC02FB1C77C4
:104FD00030370F7040E000BF90FBF2F393FBF2F428
:104FE00002FB143330334B71A9E08871BDE8F08FB8
:104FF00048450ADA90FBF2F090FBF7F797FBF2FCDA
:1050000002FB1C7730370F703CE050450ADA90FB0A
:10501000F4F090FBF7F797FBF2FC02FB1C773037BC
:105020000F704DE0DFF840C160450ADA90FBF3F005
:1050300090FBF7F797FBF2FC02FB1C7730370F7001
:105040005CE0584681F800B080E040424FF02D0807
:1050500081F80080B84211DA90FBF6F696FBF2F781
:1050600090FBF3F302FB176630364E708D7093FBA6
:10507000F2F502FB15333033CB7014E060451BDAD8
:1050800090FBF2F090FBF6F696FBF2F790FBF3F351
:1050900002FB176630364E7093FBF2F602FB1633B6
:1050A00030338B70CD7090FBF4F393FBF2F402FB82
:1050B000143330330B718FE748451BDA90FBF4F063
:1050C00090FBF6F696FBF2F790FBF3F302FB176604
:1050D00030364E7093FBF2F602FB163330338B7092
:1050E00090FBF4F393FBF2F402FB14333033CB70F8
:1050F0000D7171E7504528DA90FBF3F090FBF6F65E
:1051000096FBF2F790FBF3F302FB176630364E7016
:1051100093FBF2F602FB163330338B7090FBF4F303
:1051200093FBF2F402FB14333033CB7090FBF2F3B9
:1051300093FBF2F402FB143330330B714D7190FB8F
:10514000F2F302FB130030304FE758464870887086
:10515000C87008714D7148E740420F008096980072
:1051600000E1F505A086010000CA9A3B70B5002356
:10517000002801DA5B1E4042244A90FBF2F40A2226
:1051800094FBF2F502FB1544214D303490FBF5F50C
:1051900095FBF2F602FB1655E4B20C7030354D70FB
:1051A0002E258D7042F2107590FBF5F595FBF2F609
:1051B00002FB16553035CD704FF47A7590FBF5F53E
:1051C00095FBF2F602FB165530350D71642590FB08
:1051D000F5F595FBF2F602FB165530354D7190FB57
:1051E000F2F595FBF2F602FB165530358D7190FB0A
:1051F000F2F502FB15003030C8710BB12D2002E032
:10520000302C01D12020087070BD000040420F00FA
:10521000A086010030B50023002802DA5B1E404260
:1052200000B2642290FBF2F40A2294FBF2F502FB36
:10523000154430340C7090FBF2F494FBF2F502FB51
:10524000154430344C7090FBF2F402FB1400303003
:105250008870002020220C5C302C04D10A54401CA1
:10526000C0B20228F7D3002B05D0002803D0084491
:105270002D2200F8012C30BD30B50023002802DAC1
:105280005B1E404200B24FF47A7290FBF2F40A22A5
:1052900094FBF2F502FB154430340C70642490FB4F
:1052A000F4F494FBF2F502FB154430344C7090FB9F
:1052B000F2F494FBF2F502FB154430348C702E248A
:1052C000CC7090FBF2F402FB140030300871002027
:1052D00020220C5C302C08D10C1864782E2C04D0C1
:1052E0000A54401CC0B20428F3D3002B05D0002878
:1052F00003D008442D2200F8012C30BD30B5002326
:10530000002802DA5B1E404200B24FF47A7290FB32
:10531000F2F40A2294FBF2F502FB154430340C70CF
:10532000642490FBF4F494FBF2F502FB1544303452
:105330004C7090FBF2F494FBF2F502FB1544303410
:105340008C7090FBF2F402FB14003030C870002027
:1053500020220C5C302C04D10A54401CC0B203281B
:10536000F7D3002B05D0002803D008442D2200F8E5
:10537000012C30BD30B50023002801DA5B1E40420D
:1053800042F2107290FBF2F40A2294FBF2F502FB57
:10539000154430340C704FF47A7490FBF4F494FBA1
:1053A000F2F502FB154430344C70642490FBF4F4A5
:1053B00094FBF2F502FB154430348C7090FBF2F450
:1053C00094FBF2F502FB15443034CC7090FBF2F400
:1053D00002FB140030300871002020220C5C302CBD
:1053E00004D10A54401CC0B20428F7D3002B05D0C6
:1053F000002803D008442D2200F8012C30BD000005
:1054000030B50023002801DA5B1E4042284A90FB99
:10541000F2F40A2294FBF2F502FB154430340C70CE
:10542000244C90FBF4F494FBF2F502FB1544303469
:105430004C7042F2107490FBF4F494FBF2F502FB12
:10544000154430348C704FF47A7490FBF4F494FB70
:10545000F2F502FB15443034CC70642490FBF4F474
:1054600094FBF2F502FB154430340C7190FBF2F41E
:1054700094FBF2F502FB154430344C7190FBF2F4CE
:1054800002FB140030308871002020220C5C302C8C
:1054900004D10A54401CC0B20628F7D3002B05D013
:1054A000002803D008442D2200F8012C30BD000054
:1054B00040420F00A08601000B4A10B51368C0F3EC
:1054C000032403EB10331B780B7013681B5D4B70C8
:1054D0001368C0F3031400F00F001B5D8B7012689B
:1054E000105CC87010BD0000340000200F4A10B5D9
:1054F0001368C0F303541B5D0B701368C0F30344BF
:105500001B5D4B701368C0F303341B5D8B70136815
:10551000C0F303241B5DCB701268C0F3031300F0CB
:105520000F00D35C0B71105C487110BD340000207B
:105530002DE9F041144D0024124E687901281FD046
:1055400012491120E965FFF711FDE96D2E270C20A6
:105550008F70C91CFFF70AFDE96D06204F71891D88
:10556000FFF704FDE86D00EB840136F81400083104
:10557000FFF7A2FF641CE4B2062CF3D3BDE8F08170
:105580000349DEE7E8F7FF1F90020020E40900204E
:10559000880300202DE9F0413B4C3A4808223BA10A
:1055A000E065FDF77FFBFDF76DFBE16D412628B15E
:1055B000E06AFFF7EDFCE06DC67105E0606AFFF799
:1055C000E7FCE16D5620C8712E480822083032A150
:1055D000E065FDF767FBE16DA06AFFF7D9FC314D8F
:1055E00028896D2700F00300012801D1E06D877143
:1055F0002448082210302CA1E065FDF753FBE16D33
:10560000E06BFFF7C5FC288900F00300012801D1F9
:10561000E06D4771E06D682108228671C1711948FB
:1056200024A11830E065FDF73DFB68694FF4616126
:1056300090FBF1F0642190FBF1F201FB120000B24B
:10564000E16DFFF793FC68693C2690FBF6F090FB58
:10565000F6F106FB1100E16D00B2C91CFFF786FCF4
:10566000686990FBF6F106FB1100E16D00B2891D3F
:10567000FFF77CFCE06D0178302901D12021017019
:10568000BDE8F081A80300209002002020302E30D9
:10569000303030560000000020302E3030303041A5
:1056A00000000000EC0E002020302E303030416829
:1056B0000000000020303A30313A30320000000063
:1056C00010B50D4C6079012813D00C4820220CA194
:1056D000E065FDF7E7FAE16D60890A31FFF74AFE00
:1056E00010488089E16D000ABDE810401B31FFF7CA
:1056F00091BD0D48EAE7000090020020E409002077
:10570000204C6F67436F756E743A20202020302044
:1057100020496E74657276616C3A202020317320C6
:1057200000000000EC0E00208803002010B5194C8A
:10573000607901282AD01848202218A1E065FDF7D9
:10574000B1FA1F480089C0F30130FEF719F801468D
:10575000E06D0522401CFDF7A5FAE16DE069891DA9
:10576000FFF74EFEA089E16D00B21031FFF784FD16
:10577000208AE16D00B21831FFF77EFD60790128C3
:1057800006D0DF21E06D4177417510BD0D48D3E7AC
:105790007F21F7E790020020E409002020545950AF
:1057A000454B202020202020307556202032302EDE
:1057B000306F43202032302E306F43200000000035
:1057C000EC0E00206803002070B52B4C6079012896
:1057D00015D02A4820222AA1E065FDF763FAE16D81
:1057E000E06BFFF7D5FBE16D206C1031FFF7D0FBCC
:1057F0002C4D288900F00300012802D005E02A483A
:10580000E8E7E06D6D21817581716869274990FB3A
:10581000F1F0642190FBF1F201FB1200E16D00B2A6
:105820000A31FFF7A3FB68694FF4616190FBF1F067
:10583000182190FBF1F201FB1200E16D00B20D3175
:10584000FFF794FB68693C2690FBF6F090FBF6F1BD
:1058500006FB1100E16D00B21A31FFF787FB6869A2
:1058600090FBF6F106FB1100E16DBDE8704000B25F
:105870001D31FFF77BBB000090020020E4090020EF
:1058800020302E3030303041682030306430306885
:1058900020302E3030303057682030306D3030734B
:1058A00000000000EC0E00204803002080510100A1
:1058B00010B5224C607901280ED02148202221A168
:1058C000E065FDF7EFF9FDF7DDF9E16D30B1E06A74
:1058D000FFF75EFB412005E02348EFE7606AFFF732
:1058E00057FB5620E16DC871E16DA06A1031FFF7DA
:1058F0004FFBE16DE06C0931FFF792FAE16D206D2D
:105900001931FFF78DFA1948018901F003010129C6
:1059100003D1E16D6D228A758A73008900F003005E
:10592000012806D06079012805D0F420E16DC87700
:1059300010BD6B20FAE78020F8E7000090020020FD
:10594000E409002020302E303030305620302E3008
:105950003030305720302E30303030412039393916
:10596000392E39520000000028030020EC0E0020E0
:105970000CB50021244801910091026842F4803264
:1059800002604FF4A063026802F400320092019AB0
:10599000521C0192009A12B9019A9A42F3D10268FC
:1059A00092032FD50121009118490A6842F0100294
:1059B0000A600A6822F003020A600A680A60416805
:1059C00041604168416041684160416821F47C1157
:1059D0004160416841F498114160016841F0807173
:1059E000016001688901FCD5416821F00301416033
:1059F000416841F0020141604168C1F3810102291F
:105A0000FAD10CBD00910CBD0010024000200240F4
:105A1000054810B50169491C016103F0EBF9BDE8C7
:105A2000104003F0E1BC0000EC0E0020FFF7F0BFD7
:105A30000F4810B5016841F00101016041680D4A4D
:105A40001140416001680C4A11400160016821F475
:105A500080210160416821F4FE0141604FF41F0183
:105A60008160FFF785FF06490448086010BD00000B
:105A7000001002400000FFF8FFFFF6FE00200008C3
:105A800008ED00E02DE9F05F044600270E46A4F87B
:105A90004671BA46FCF746FB006804F1C40B04F1FA
:105AA0004405805D10F03E0F4FF0010013D0A4F8C4
:105AB00046010AF80560B4F84A01402832D230465F
:105AC000FCF734FB0146B4F84A01421CA4F84A2111
:105AD00000F80B1026E002214FF0200E4FF00308D3
:105AE000082E2AD0DFF854910D2E34D00A2E19D06A
:105AF000032E17D0102E15D01B2E60D01D2E68D06F
:105B00004F4A126802EB161393F800C0A4F846013E
:105B100006F00F030AF805C0D25C4255A4F846818E
:105B200001F805E094F8460100F03F00A4F84601B2
:105B30004448C088C0077AD17DE008220AF80520D1
:105B400000F805E0A4F846814A55B4F84A01002857
:105B5000E8D0401E30E00D230AF805300A22A4F8F0
:105B600046114255B4F84A01402822D200F80BA051
:105B7000A4F84AA14FF0FF302060B4F94C01802214
:105B8000C11700EB517121F00701401AA4F84C0134
:105B900009EBC0105946FCF7E1FAB4F94C01401C7E
:105BA000C11700EB517121F00701401AA4F84C0114
:105BB000B8E7504684F803A1A4F84A01B2E7B4F864
:105BC0004C01401E00B2A4F84C0100280CDA083049
:105BD00008E0B4F84C01401C00B2A4F84C010828BD
:105BE00002DB0838A4F84C01B4F94C01802209EB1F
:105BF000C0115846FCF7B2FA5846FCF7BBFAA4F8B5
:105C00004A01B4F94C01802209EBC0112846FCF787
:105C1000A5FA2846FCF7AEFAA4F8460182E706E0AA
:105C2000E01990F8440003F047FD7F1CFFB2B4F880
:105C30004601B842F4D8FF20BDE8F09F640500207B
:105C400034000020EC0E002008B5E020ADF8000084
:105C500018208DF8030003208DF8020069460248E1
:105C6000FDF786FB08BD00000008014030B54FF08D
:105C7000804587B0284600F053F8E920ADF81000C1
:105C80000024FF20ADF81400ADF81240ADF8164026
:105C90008DF8184004A9284600F03CF97020ADF8B2
:105CA00000000120ADF802000420ADF80400BDF8AA
:105CB000140069464008ADF806000220ADF808005F
:105CC000C001ADF80C00ADF80A40ADF80E40284612
:105CD00000F0DEF80121284600F00CF801212846EA
:105CE00000F012F807B030BDC0F1FF014FF0804066
:105CF00000F00EB90029018802D041F0010101E055
:105D000021F0010101807047002930F8441F02D0C2
:105D100041F4004101E0C1F30E0101807047000031
:105D20004B4910B5884202D10121C41486E0B0F17C
:105D3000804F09D0474988420DD101210220FEF74A
:105D4000CFFB0021022064E001210846FEF7C8FBDA
:105D5000002101205DE04049884206D10121042054
:105D6000FEF7BEFB0021042053E03C49884206D1E7
:105D700001210820FEF7B4FB0021082049E0384942
:105D8000884206D101211020FEF7AAFB0021102035
:105D90003FE03449884206D101212020FEF7A0FBD4
:105DA0000021202035E03049884202D101214414ED
:105DB00044E02E49884202D10121CC043EE02C4926
:105DC000884202D101210C0538E02A49884202D1DB
:105DD00001214C0532E02849884206D101214020AA
:105DE000FEF77EFB0021402013E02449884206D1C3
:105DF00001218020FEF774FB0021802009E020496A
:105E000088420AD1841501212046FEF769FB002152
:105E10002046BDE81040FEF763BB1A49884202D114
:105E200001210C040AE01849884202D101214C04E6
:105E300004E0164988420AD101218C042046FEF76D
:105E400067FB2046BDE810400021FEF761BB10BD96
:105E5000002C01400004004000080040000C0040FD
:105E6000001000400014004000340140004C01408C
:105E7000005001400054014000180040001C004048
:105E80000020004000400140004401400048014023
:105E900030B5028C22F001020284028C8388048BCC
:105EA00022F0020224F073050C882C430D8915435F
:105EB0004A882A43114DA8420BD0114DA84208D060
:105EC000104DA84205D0104DA84202D00F4DA84257
:105ED0000DD122F008054A8923F440732A4322F0A9
:105EE00004058A882A438D891D43CB892B438380EF
:105EF0000483C9888186028430BD0000002C0140E3
:105F0000003401400040014000440140004801408D
:105F10008186704730B502881B4B1C4C98420DD0CF
:105F2000A0420BD0B0F1804F08D0194DA84205D047
:105F3000184DA84202D0184DA84203D122F0700596
:105F40004A882A43154DA84206D0154DA84203D0D1
:105F500022F44075CA882A4302808A8882850A888A
:105F6000028598420AD0A04208D00E4A904205D03D
:105F70000D4A904202D00D4A904201D1097A018621
:105F80000121818230BD0000002C0140003401401D
:105F90000004004000080040000C004000100040D9
:105FA000001400400040014000440140004801400E
:105FB00070B504460120FDF705FD91210120FDF794
:105FC000B5FC08B1022070BD0120FDF759FC054663
:105FD0000120FDF7F5FB0120FDF752FC06460120EC
:105FE000FDF71EFC0120FDF725FD14B146EA052052
:105FF0002080002070BD00000146064A002000BF3E
:1060000052F820308B4203D9401CC0B20C28F7D381
:10601000704700004499000818B1012803D003A07C
:10602000704704A0704705A070470000554E4B4EC6
:106030004F574E004D4F4442555320005445524D4A
:106040002020200070B5114C40F2255529462046ED
:1060500000F07BF8012818D1204600F003F9C1B206
:106060000B480089C0F3011010B1012807D103E0EB
:106070000848FEF737F902E00748FFF703FD294615
:106080002046BDE8704000F01FB870BD00380140E8
:10609000EC0E0020040E00201404002070B5094C02
:1060A00005468021204600F049F80128F9D129460B
:1060B000204600F0DBF84021204600F03FF80128A0
:1060C000F9D170BD003801400A0A01219140C9434D
:1060D000018070470029818902D041F4005101E01C
:1060E00021F40051818170477FB50446684600F075
:1060F000C1F80F4D00212846FFF7ECFF69462846FE
:10610000009400F059F8012240F22551284600F091
:106110003BF8002240F22771284600F035F80121B3
:106120002846FFF7D7FF0449024808607FBD0000FA
:10613000003801409D600008140000200246002045
:1061400012880A4200D00120704730B501F01F02CA
:1061500001240025C1F3421304FA02F2012B0FD0EF
:10616000022B0FD0838A4FEA11210088134204FAD0
:1061700001F400EA040001D000B10125284630BD39
:106180008389F0E7038AEEE710B5C1F3421301F00B
:106190001F040121A140012B07D0022B07D014308E
:1061A000002A026805D00A4304E00C30F8E71030FA
:1061B000F6E78A43026010BD30B50446008A85B018
:1061C0000D464CF6FF710840E98801432182A18900
:1061D0004EF6F3100140A8882A8910436A890A43C1
:1061E0001043A081A08A4FF6FF410840A9890143CE
:1061F000A1826846FEF7AAF91948844201D10398A2
:1062000000E00298A189090400EBC00101EB001035
:10621000296801D5490000E08900B0FBF1F0642253
:10622000B0FBF2F109010B096FF018056B4300EBAD
:106230008300A3891D044FF0320306D503EBC00091
:10624000B0FBF2F000F0070005E003EB0010B0FB3C
:10625000F2F000F00F000843208105B030BD0000CF
:10626000003801408088C0F308007047C1F308017E
:10627000818070474FF41651016000218180C180F8
:1062800001810C2242818181704770472DE9F047DE
:10629000C04D2978C04FC14EC14C07F1100907F11C
:1062A000180A07F1080813293AD2DFE801F00A0EAC
:1062B000F112A1EFEEED393D546977869316A5CC26
:1062C000F500BDE8F047FFF7F3BABDE8F047FFF788
:1062D0007BBABDE8F047FFF729BA2022B1A1E06DF3
:1062E000FCF7E0FCA079C0070AD02889C0F3013090
:1062F000FDF746FA0146A84805220930FCF7D2FC12
:10630000A089494600B2FEF7B7FF208A514600B285
:10631000FEF7B2FF6079012804D0DF207877787526
:10632000BDE8F0877F20F9E72022A7A19A48FCF773
:10633000B9FC9949606AFEF72BFE4946A06AFEF750
:1063400027FEA079C00703D04146A06FFEF70EFFDD
:106350005146E06F1EE02022A4A18F48FCF7A2FC6A
:106360008D49606AFEF714FE4946A06AFEF710FEEA
:106370004146A06FFEF7FAFEA079C007E8D1CFE74B
:106380002022A3A18448FCF78DFCA079C007C7D0C8
:10639000A06B5146BDE8F047FEF7E8BE2022A5A15C
:1063A0007D48FCF77FFCA079C00703D04146206EF2
:1063B000FEF7EEFD5146606E16E02022A6A176485B
:1063C000FCF770FC4146206EFEF7E2FDA079C007A5
:1063D000F0D1A5E72022A9A16F48FCF763FCA079C2
:1063E000C0079DD0206B5146BDE8F047FEF7D0BDF9
:1063F000BDE8F047FFF79CB8664C67492034208819
:10640000FFF75AF86088391DFFF756F8A088414613
:10641000FFF752F86049E0880C31FFF74DF820890A
:106420004946FFF749F85C4960891431FFF744F8A1
:10643000A0895146FFF740F8E089BDE8F04756498A
:106440001C31FFF739B8202295A15348FCF72AFCEC
:106450002889C0F30110FFF7DFFD01460722F81D70
:10646000FCF720FC288910F0300F05D168894A49D3
:10647000C0B20D31FEF7CEFEE8893168C0F30310DB
:10648000085C38774CE707E029E024E01CE0FFE7F0
:10649000BDE8F047FFF714B920228AA13E48FCF777
:1064A00001FCA8893C49C0F3031080020A31FEF7C1
:1064B00061FFA079C0078CD0A889BDE8F0473649B4
:1064C000000A1B31FEF7A6BEFFF7F2F9FFF77CF9D1
:1064D000FFF72CF9DCE7BDE8F047FFF75BB8607920
:1064E00001284FD02C4820227FA1E065FCF7DAFB81
:1064F000D4E917100831FEF74BFDE16D606E1831DD
:10650000FEF746FD607901283ED0234820227FA176
:10651000E065FCF7C7FBE16DA06F0831FEF726FED2
:10652000E16DE06F1831FEF721FE607901282ED071
:10653000194820227EA1E065FCF7B4FB2889C0F34E
:106540000110FFF769FD0146E06D0322401DFCF7D5
:10655000A9FB6889E16DC0B20D31FEF75BFEA88929
:10656000E16DC0F3031080021531FEF7C7FEE88924
:106570003168E06D0A788277EA89C2F30312895C98
:10658000C17735E77348AEE772482030BEE77148FF
:106590004030CEE7EC0E0020E4090020340000205B
:1065A000900200202050726F62653A202020202047
:1065B000202020202032302E306F43202032302EF9
:1065C000306F43200000000020302E303030305635
:1065D000202020202020202020302E30303030413C
:1065E00020312E30303030300000000020302E308E
:1065F0003030305620312E303030303020302E3098
:1066000030303041202020202020202000000000B9
:106610005520492043616C6962726174696F6E2E06
:1066200041646A537465703A202020202020202085
:106630000000000055204D61783A202020202020C5
:106640002020205655204D696E3A202020302E39CA
:10665000303030560000000055204D61783A20203F
:1066600032302E303030305655204D696E3A202071
:1066700020202020202020560000000055204D69B9
:106680006E204D61782053657475702E5365745378
:106690007465703A20202020202020560000000041
:1066A00020554152543A205445524D20202020205C
:1066B000204261636B4C696768743A203020202067
:1066C000000000004C6F674D61783A202020203494
:1066D00030393620496E74657276616C3A2020201C
:1066E000202073200000000055204D61783A2020C2
:1066F00032302E303030305655204D696E3A2020E1
:1067000020302E30303030560000000055204164DB
:106710006A3A202020312E30303030304920416418
:106720006A3A202020312E30303030300000000016
:10673000554152543A202020204144523A202020F2
:106740004C4F474D3A2020202020424C3A20202018
:1067500000000000280300200A480C49007810F0CF
:1067600003020948C06F0BD0012A07D0022A03D0C8
:10677000032A00D1086170474861704788617047FB
:10678000C86170473A000020900200206409002090
:106790000A480C49007810F003020948806F0BD0BA
:1067A000012A07D0022A03D0032A00D108607047CB
:1067B0004860704788607047C860704739000020A3
:1067C0009002002064090020FEE7000000487047A6
:1067D000D003002002E008C8121F08C1002AFAD125
:1067E00070477047002001E001C1121F002AFBD151
:1067F00070470000FDF798FEFCF736FDFCF718FC2B
:10680000FCF730FCFDF71CFC18B9FDF7E9FEFEF7BC
:10681000EBFAFDF7B5FDFFF729FAFDF7A3F9744888
:1068200064210068B0FBF1F0401EB0F1807F18D207
:106830004FF0E02148616F4AF02082F8140D0026E5
:106840008E6107200861DFF8B0814FF48057394628
:106850004046FCF70BFE694D694C4FF4004A08B105
:1068600005E0FEE751464046FCF700FE38B1B94668
:10687000394647464046FCF7F9FD18B108E0FDF7F8
:10688000AFFE1EE051463846FCF7F0FD012806D069
:1068900049463846FCF7EAFD012804D013E0208978
:1068A00020F4407009E051463846FCF7DFFD50B94E
:1068B000208920F4407000F580702081C0F3012011
:1068C0006871FEF791FA687910B1012866D119E074
:1068D000FDF7E6F9FDF7D4F9E089000B2070207888
:1068E000042800D92670E089C00757D00520FCF79E
:1068F000F5FA202243A14C48FBF730FC0520FDF7B8
:1069000005FA46E0FFF7A0F9FDF734FFFEF784F83B
:10691000FDF740F90020FEF757F8E089C0F30320A7
:1069200020702078072802D82078052801D2052079
:106930002070E089C00731D03C4820223CA1E865A6
:10694000FBF70CFC39482022203042A1E865FBF718
:1069500005FCE96D11201531FEF708FBE96D0C20EF
:106960001831FEF703FBE96D06201B31FEF7FEFA36
:106970002E482022403040A1E865FBF7EFFB2B4872
:10698000202260302AA1E865FBF7E8FB0520FCF730
:106990004DFE6420FCF7A2FAFDF7FCF83F48FCF737
:1069A00019F910B1FDF7F6F8FCE7E0893C49C0F3AE
:1069B0000310085CFFF798F9FDF706F902F01AFCDE
:1069C00002F0AEF802F052F802F0DCFD02F03EFEFA
:1069D00002F0E6F902F000FC02F00CF901F0D8FF39
:1069E00002F062F9FDF7D6F8FDF756FDE6E7000084
:1069F000100300200FE000E000080140900200209A
:106A0000EC0E00202055494D657465722056322EDB
:106A100030202020206279204543484F2053747550
:106A200064696F2000000000E409002028030020B2
:106A30002020202020202020202020202020202056
:106A40002020202020202020202020202020202046
:106A5000000000002055494D657465722056322EA5
:106A600030202020204657207631372E31302E32EC
:106A70003620202000000000206279204543484F46
:106A80002053747564696F2020202020202020204E
:106A9000202020202020202000000000E8F7FF1FF9
:106AA00098A80008094B08495A7841F82200521C5E
:106AB00002F003005870D1E900021044D1E902212C
:106AC0001144084480107047DC0E00209002002022
:106AD00070B5252231A13B48FCF7E4F839493A4822
:106AE00008310E460068FEF741FB384C354994F8F2
:106AF00046001D3140B20D464034FEF73BFC3148A4
:106B000002F0E8FD252232A12E48FCF7CBF83A48E6
:106B100031460068FEF72AFB207A294640B2FEF78C
:106B200029FC284802F0D6FD252234A12548FCF78F
:106B3000B9F83C4831460068FEF72AFA3A4821493C
:106B40001A310068FEF724FA1E4802F0C3FD252220
:106B500036A11C48FCF7A6F83E4831460068FEF70F
:106B600017FA184960891B31FEF74AFC154802F0F4
:106B7000B1FD2B2238A11348FCF794F81149A088E5
:106B80001331FEF7F7FB0F4920682031FEF7EEFACC
:106B9000BDE870400B4802F09DBD0000205520412B
:106BA000646A3A2031323334353637382020205564
:106BB000205A65726F3A20202031323334350D0A65
:106BC00000000000D4030020080300206409002016
:106BD00020492041646A3A2031323334353637381F
:106BE00020202049205A65726F3A2020203132330C
:106BF00034350D0A000000000C0300202055204D04
:106C000061783A20313233343536375620202055DA
:106C1000204D696E3A2031323334353637560D0AFD
:106C200000000000F0020020F4020020205520485F
:106C300079733A20313233343536375620202043A9
:106C4000686B4E756D3A20313233343536370D0A64
:106C500000000000C40200202037356D5620534844
:106C6000554E542052616E67653A203132333435C7
:106C700041204761696E3A2039392E39393939391D
:106C80000D0A00002DE9F0472E48314B3149856946
:106C9000DFF8B4C02D4A0C781E69AF0307D5C6676C
:106CA000664501D3C2671A6144F003003EE014F068
:106CB0000308284C4FF69B7A247824F0030404F14F
:106CC000010735D0DFF89090B8F1010F1FD0B8F16F
:106CD000020F0DD0B8F1030F08D1C667664501D386
:106CE000C2671A614D4501DDA41C0C70BDE8F08738
:106CF0005C69C467644501D3C2675A614D4500DDD4
:106D00000F705545F2DA087840F003000EE09E69F6
:106D1000C667664501D3C2679A614D4500DD0C70B8
:106D20005545E3DA087820F00300801C0870DDE7A1
:106D3000DC69C467644501D3C267DA615545D5DAB9
:106D40000F70D3E79002002080969800A086010083
:106D5000640900203A0000209BFF01002DE9F04764
:106D60002E48314B31494569DFF8B4C02D4A0C78C3
:106D70001E68AF0307D58667664501D382671A6030
:106D800044F003003EE014F00308284C4FF69B7AD1
:106D9000247824F0030404F1010735D0DFF8909043
:106DA000B8F1010F1FD0B8F1020F0DD0B8F1030FE9
:106DB00008D18667664501D382671A604D4501DDBB
:106DC000A41C0C70BDE8F0875C688467644501D33F
:106DD00082675A604D4500DD0F705545F2DA08783C
:106DE00040F003000EE09E688667664501D3826727
:106DF0009A604D4500DD0C705545E3DA087820F0C7
:106E00000300801C0870DDE7DC688467644501D3FB
:106E10008267DA605545D5DA0F70D3E7900200201B
:106E200080969800A08601006409002039000020A7
:106E30009BFF0100054900200860054908600549DD
:106E4000086005490860054948617047D402002080
:106E5000D8020020CC020020D0020020EC0E00203E
:106E60002DE9F0416B4D686800287AD06AA1FBF7E4
:106E700063F96B4E6B4C88B1A86850B110220021A9
:106E8000FBF7A2F9E18860F30001E180E088A6F851
:106E90006000E08800F0010163A07DE065A1686802
:106EA000FBF74AF9B0B1A868002858D01022002199
:106EB000FBF78AF9E18960F30711E181E0895F4915
:106EC000C0F30310085CFEF70FFFE089C0F3031165
:106ED0005BA05AE05DA16868FBF72EF95C4FC0B17A
:106EE000E088800701D55BA01CE0A868002836D0A8
:106EF0000A220021FBF768F94FF4805120B138468F
:106F0000BDE8F041FCF7B9BA3846BDE8F041FCF7FE
:106F1000B6BA5AA16868FBF70FF998B1E088800704
:106F200004D557A0BDE8F04102F0D4BBA868002802
:106F300015D00A220021FBF747F94FF0080100287D
:106F4000E2D1DCE757A16868FBF7F6F850B1A86812
:106F5000002804D00A220021FBF736F96061BDE861
:106F6000F08155E051A16868FBF7E6F8C0B1A86868
:106F700070B10A220021FBF727F9E18960F3830150
:106F8000E181E089C0F3810149A002F08BFB31E08F
:106F9000E089C0F3810153A0BDE8F04102F082BB5B
:106FA00053A16868FBF7C8F8002831D0A86828B357
:106FB0000A220021FBF708F9C11700EB517121F0FB
:106FC0000701401A05B2042D08D8E08965F30F3097
:106FD000E081E089010B48A002F064FB681F0228F1
:106FE00008D8E08965F30B20E081E089C0F3032134
:106FF0004FA0CAE7E089A6F86800B0E7E089C0F3CF
:107000000322E089BDE8F041010B57A002F04ABB22
:107010005C4887E71C0000206563686F0000000083
:1070200064090020EC0E0020204543484F3D2564B4
:107030000D0A0000626B6C740000000098A8000844
:1070400020424B4C543D25640D0A00006C656400E1
:10705000000C01402073657420414C41524D207456
:107060006F20302066697273742C2061626F7274B5
:10707000696E672E2E2E0D0A000000006D6F7300E2
:107080002073657420414C41524D3D302066697239
:1070900073742C2061626F7274696E672E2E2E0DD0
:1070A0000A00000074696D650000000064697200E8
:1070B00020736574204449523D25642073617665D0
:1070C00020616E64207265626F6F7420746F20613E
:1070D00070706C79206368616E67652E2E2E0D0AC4
:1070E00000000000204449523D25640D0A000000C4
:1070F0006D656E750000000020736574204D454E6F
:1071000055313630323D2564207361766520616EDD
:1071100064207265626F6F7420746F206170706C90
:1071200079206368616E67652E2E2E0D0A000000BF
:1071300020736574204D454E553134343D2564200F
:107140007361766520616E64207265626F6F742072
:10715000746F206170706C79206368616E67652E52
:107160002E2E0D0A00000000204D454E55313630C0
:10717000323D2564204D454E553134343D25640D56
:107180000A000000F4B40008F8B50020394CADF84E
:10719000000005466068002869D037A1FAF7CCFFE7
:1071A00078B3A06800282BD010220021FBF744F808
:1071B000C6B2E06840B110220021FBF73DF884B26E
:1071C000A4F10800392812D3402412E0680703D143
:1071D00039462BA002F066FAB8B26946FBF762FFA7
:1071E000BDF8001029A002F05DFA6D1CADB2A542F9
:1071F00002D277193F2FE9D326A000BF02F06AFA26
:10720000F8BDFFE724A16068FAF796FFE8B1A0682F
:107210000028F5D0E1680029F2D010220021FBF708
:107220000BF8C5B210220021E068FBF705F884B224
:1072300021462846FBF792FF214619A002F032FAB8
:1072400029461CA002F02EFADAE722A16068FAF7BC
:1072500073FF18B1FBF706FF20A0CFE726A16068F7
:10726000FAF76AFF18B1FBF725FF25A0C6E72B4800
:10727000C4E700001C00002072656164000000008B
:107280000D0A30782530345820200000253034583D
:10729000200000000D0A000077726974650000008C
:1072A0002077726974652030782530345820746FE7
:1072B0000000000020656570726F6D20616464726B
:1072C00065737320307825303458202E2E2E0D0A09
:1072D000000000006C6F6164000000004C6F61648E
:1072E0002066726F6D20496E742E20454550524FB6
:1072F0004D2E2E2E0D0A00007361766500000000F1
:107300005361766520746F20496E742E2045455078
:10731000524F4D2E2E2E0D0A0000000030B40008F2
:10732000F8B51D4D0024686800282ED010220021D9
:10733000FAF782FFB0F5803F01D34FF6FF700646A3
:10734000A86850B110220021FAF776FFC5B2FF2DD0
:1073500001D3FF2502E0082D12D28025200703D19A
:1073600031190EA002F09EF9301980B2012269464F
:10737000FBF7EAFD50B10CA002F0ACF9641CE4B2DA
:10738000AC42EBD309A002F0A5F9F8BD9DF80010BE
:1073900007A002F087F9F1E71C0000200D0A307801
:1073A0002530345820000000464620000D0A000019
:1073B00025303258200000007CB5144D6868002844
:1073C0001AD010220021FAF737FF0446B0F5803FAB
:1073D00012D2A86800280FD010220021FAF72CFF43
:1073E00005468DF80000A0B201226946FBF7F0FDCA
:1073F00018B107A002F06EF97CBD294608A002F082
:1074000051F921460BA002F04DF97CBD1C00002073
:1074100020493243204572726F72210D0A0000002C
:107420002077726974652030782530325820746F67
:107430000000000020656570726F6D2061646472E9
:1074400065737320307825303458202E2E2E0D0A87
:10745000000000002DE9F04777A002F03BF97948E1
:107460000126007800F0030106FA01F03030C0B2C6
:1074700002F022F974A002F02DF9764874490068F0
:10748000FEF734F8724C74482025A571E11D0068A0
:10749000FDF77EFD5620A0737048E57304F11001DE
:1074A0008A460068FDF7BCFCDFF8B481B8F8080034
:1074B0006D2700F00300012800D167755720A075E3
:1074C0004FF0000984F81790614802F003F965480D
:1074D0005F490068FDF794FF052263A1E01DFBF7FB
:1074E000E1FB5B4802F0F6F861A002F0F3F86348B4
:1074F000007800F0030086403036F0B202F0DCF88D
:1075000051A002F0E7F85E4851490068FDF7EEFF30
:107510005C48A571E11D0068FDF73AFDB8F8080068
:10752000464600F00300012800D167734120A07394
:107530005548E57351460068FDF772FC308900F04C
:10754000030001284FD05220A07584F817904048BE
:1075500002F0C0F84D483E490068FDF751FF052292
:1075600041A1E01DFBF79EFB394802F0B3F80A2267
:1075700047A13748FBF796FB4848354900880A3150
:1075800080B28846FDF798FF4548A57330490088CA
:107590000F3100B2FDF770FE2D480322143041A1D7
:1075A0000546FBF77FFB404829490088173100B2A8
:1075B000FDF762FE264804223CA11C30FBF772FB5B
:1075C000234802F087F8032239A12148FBF76AFB20
:1075D0003848E11C0068FDF7DBFC308900F003004F
:1075E000012802D002E06B20AEE76772032232A1CD
:1075F0004046FBF757FB314815490D310068FDF750
:10760000C7FC308900F00300012800D1E774022292
:107610002BA12846FBF746FB70690D491631FDF793
:10762000EFFE0B48042227A11D30FBF73BFBBDE812
:10763000F047074802F04EB820553A205047413DE8
:1076400000000000390000202041443D3078000057
:10765000D4030020A4020020B4020020DC02002099
:10766000EC0E0020AC02002075560D0A0000000050
:1076700020493A205047413D000000003A000020D8
:10768000A8020020B8020020E0020020B002002082
:1076900020543A205241573D307800009802002093
:1076A0009C02002043202000A0020020430D0A007D
:1076B00020503A00CC02002041682000D002002077
:1076C00057680000730D0A0070B50C4D0024281F88
:1076D0000678761F0EE000BF04EB440005EB800146
:1076E0008A682AB14A6855F8201005A001F0DAFF2F
:1076F000641C24B2B442EFDB70BD00008498000823
:10770000202573202D3E2025730000002DE9F04F29
:10771000C44DC54EC54F6868DFF81483C54C85B0AD
:1077200006F10A0B06F10C0906F10D0A002879D0C2
:10773000C1A1FAF701FDC8B1A86848B10A22002129
:10774000FAF77AFD00F00101208961F30100208140
:107750001822BAA1B448FBF7A5FA208900F003006B
:10776000FBF7DCFF01460822504620E0B9A168681B
:10777000FAF7E2FCF8B1A86860B10A220021FAF732
:1077800023FD00EBD07121F00101401A218960F343
:10779000092121811422B0A1A348FBF783FA208993
:1077A000C0F30120FBF7D6FF014607225846FBF73E
:1077B00079FA9D48ADE0ADA16868FAF7BDFCE0B18B
:1077C000A86860B10A220021FAF7FEFC032190FBB1
:1077D000F1F201FB1200218960F30D3121811422A5
:1077E000A4A19148FBF75EFA2089C0F30130FBF7B2
:1077F000C7FF014605224846D9E7A3A16868FAF702
:107800009BFC38B3A868C0B10A220021FAF7DCFC5F
:10781000618960F3070161816089C0B2F72802D9EC
:10782000F72006E07AE0608910F0FF0F10D0608941
:10783000C0B2618960F307016181132294A17A4883
:10784000FBF730FA60895146C0B2FDF7E3FCB0E7C0
:107850000120EEE793A16868FAF76EFCB0B1A86862
:1078600038B10A220021FAF7AFFCE18860F3410148
:10787000E18014228DA16C48FBF714FAE0888007A0
:1078800001D5312000E03020307292E78AA168688B
:10789000FAF752FCE8B1A86848B10A220021FAF7C9
:1078A00093FCFEF7A9FB618960F30F216181162229
:1078B00083A15D48FBF7F6F960893978000AB0FBCF
:1078C000F1F201FB120158F821004946FDF798FD3D
:1078D0006FE781A16868FAF72FFCC8B16846FCF72A
:1078E00035FE7EA0009901F0DDFE80A0019901F037
:1078F000D9FE81A0029901F0D5FE83A0039901F081
:10790000D1FE85A0049901F0CDFE05B0BDE8F08F51
:10791000854805B0BDE8F04F01F0DCBE824801F0BB
:10792000D9FE182245A14048FBF7BCF9208900F098
:107930000300FBF7F3FE014608225046FBF7B2F9BD
:10794000394801F0C7FE142243A13748FBF7AAF9D2
:107950002089C0F30120FBF7FDFE014607225846AF
:10796000FBF7A0F9304801F0B5FE142241A12E48E2
:10797000FBF798F92089C0F30130FBF701FF0146BE
:1079800005224846FBF78EF9274801F0A3FE202286
:1079900066A12548FBF786F960895146C0B2FDF71C
:1079A00039FC60893978000AB0FBF1F201FB120161
:1079B00058F821001C491631FDF722FD1A4801F044
:1079C00089FE142239A11848FBF76CF9E088C0F34E
:1079D000400030303072144801F07CFE1A225BA166
:1079E0001148FBF75FF92089C0F30110FEF714FB83
:1079F00001460722F01DFBF755F9E08800F0010071
:107A00003030B075084801F065FE132256A10648D3
:107A1000FBF748F9E0895949C0F303100968085C8D
:107A2000B073C6E61C000020D4030020749900083F
:107A300044990008EC0E00206465760020446576C9
:107A4000696365547970653A20313233343536379D
:107A5000380D0A006C636400204C636454797065CF
:107A60003A20313233343536370D0A0070726F6286
:107A7000650000002050726F6265547970653A208D
:107A800031323334350D0A00616464720000000045
:107A9000204D6F64627573416464723A20313233F1
:107AA0000D0A0000616C61726D00000020414C41C4
:107AB000524D3A20310D0A006261756400000000E9
:107AC000204D6F64627573426175643A20313135BF
:107AD0003230300D0A0000007263630020535953A6
