:020000040800F2
:10200000C8080020595B000811590008135900083E
:1020100000000000000000000000000000000000C0
:10202000000000000000000000000000155900083A
:1020300000000000000000001759000819590008AE
:10204000895B000800000000895B0008895B0008CC
:10205000895B0008895B0008895B000877590008E4
:10206000000000005F590008895B0008895B0008D8
:10207000895B0008895B0008895B0008000000009C
:10208000895B00080000000000000000895B000878
:10209000895B0008895B0008895B0008895B000890
:1020A000895B0008895B0008895B00081B590008F0
:1020B000895B00080348854603F0CCFE00480047D2
:1020C000FB520008C8080020B848016801221143EB
:1020D00001604168B64A114041600168B54A11404B
:1020E00001600168012292049143016041683F222E
:1020F000120491434160C16A09090901C162016B7F
:10210000AD4A11400163416B490849004163002118
:102110008160704703460020A4495A090CD0012A67
:102120000CD0022A0CD0496BDA06D20E0123934060
:102130000B4200D0012070470968F5E7096AF3E710
:10214000496AF1E799490028086802D00122104342
:1021500001E04008400008607047012293491206E0
:102160000028086801D0104300E0904308607047E1
:102170008E4A5168890889000143516070478B4835
:1021800040680C2108407047884A5168F023994301
:10219000014351607047854A516807231B029943E8
:1021A00001435160704781494A6801239B039A4368
:1021B0004A604A6883B21A434A600A6B8B159A4395
:1021C0000A630A6B000C02430A637047020F7749E7
:1021D000012A0AD0022A0A6B0BD003239B049A43DC
:1021E0000A630A6B02430A6370470A6B9208920003
:1021F000F6E703231B04F2E7F8B56C4D0446686864
:1022000000210C226D4E104005D0042803D0082870
:1022100003D00C281AD026601AE069686868032287
:102220008902D2030F0F1040BF1C00280AD0E86AB1
:102230000107090F3046491C03F0FEFC78430146B4
:10224000216005E05E4839464143F9E75D4820607A
:1022500068685D4F0006000F3B5C20680246DA406C
:1022600062606B685B055B0FFB5CDA40A2602B6B06
:10227000DB0501D4554B05E06B685B0401D45308C2
:1022800000E09308E3602B6B5F06514B03D4504F83
:102290001237276100E023612F6BFF0601D46661CE
:1022A00000E060612F6BBF070ED02F6BBF07BF0F21
:1022B000012F0BD02F6BBF07BF0F022F08D02F6B42
:1022C000FF43BF0706D006E0A26104E0A06102E080
:1022D000A36100E0A6612F6BBF03BF0F0FD02F6B70
:1022E000BF03BF0F012F0CD02F6BBF03BF0F022FF7
:1022F00009D02F6BBF03BF0F032F06D006E0E261AA
:1023000004E0E06102E0E36100E0E6612F6B3F037F
:10231000BF0F0FD02A6B1203920F012A0CD0286B2B
:102320000003800F022809D0286B0003800F0328C8
:1023300006D006E0226204E0206202E0236200E0B0
:102340002662286B000602D41E486062F8BD6162F6
:10235000F8BD164A0029516901D0014300E08143CC
:1023600051617047114A0029916901D0014300E091
:102370008143916170470D4A0029D16901D0014321
:1023800000E08143D1617047084A0029D16801D03B
:10239000014300E08143D1607047044A002911697C
:1023A00001D0014300E081431161704700100240F9
:1023B0000CB8FF08FFFFF6FEACFEF0FF00127A003B
:1023C00000093D00006CDC0200010020809FD50068
:1023D00000800000F0B50022012423460D689340E0
:1023E0001D409D422AD10D79012D01D0022D12D11F
:1023F000876855000326AE40B74387604E79AE40EC
:1024000085682E43866085889D43858085888B7985
:1024100093401D438580066855000323AB409E43CF
:1024200006600E790768AE403E430660C6689E436C
:10243000C660CB79AB40C5682B43C360521C102AE1
:10244000CBD3F0BD0246128A00200A4200D0012000
:1024500070478161704701857047002A01D0816112
:102460007047018570474B07DB0E9A40C90810B5CD
:1024700089000818016A0F249C40A1430162016A87
:102480001143016210BD00005D4A1168490849000E
:102490000143116070475A4910220028086801D092
:1024A000104300E0904308607047554801690906F1
:1024B00003D554494160544941607047504801690F
:1024C00080221143016170474D490420CA68D20738
:1024D00001D001207047CA68D20601D5022070479A
:1024E000C9684907FBD50320704700B50346FFF7CD
:1024F000EBFF02E0FFF7E8FF5B1E012803D0002B93
:1025000000D1052000BD002BF4D1FAE7F0B50B2770
:1025100006463F043846FFF7E8FF04280FD1384C41
:102520002069022528432061666120694021084313
:1025300020613846FFF7D9FF2169A9432161F0BD29
:10254000F0B50B2706463F040D463846FFF7CDFF92
:1025500004280CD12A4C20690121084320613580D0
:102560003846FFF7C2FF2169490849002161F0BDE3
:1025700023480169890503D4224981602249816089
:1025800070471F48016942159143016170471C481B
:10259000016901225203114301617047184900206B
:1025A000C9694907890F00D001207047F0B50B2693
:1025B000074636043046FFF798FF04281ED1104C1A
:1025C000206920252843206120694021084320619B
:1025D0003046FFF78AFF04280BD12069A843206109
:1025E0002069102528432061084807803046FFF7FE
:1025F0007CFF052802D02169A9432161F0BD0000BC
:102600000020024023016745AB89EFCD00F8FF1F92
:1026100030B5044600688BB00D464008400020608D
:102620006068032109038843A96801436160206849
:102630004849EA680840696811432A69024311431E
:102640002160A06803210902884369690143A160F0
:102650006846FFF7D1FD4048844201D106980AE060
:102660003E48844201D1079805E03D48844201D1AB
:10267000089800E0029821680904296800D5400004
:1026800003F0DAFA2A6852088A4200D8401C21680E
:10269000090404D50107334A490F10400843A081BB
:1026A0000BB030BD4B21C901016000214160816048
:1026B0000C22C1600261416170470029016802D0AB
:1026C0000122114301E04908490001607047808CF4
:1026D000C005C00D704710B50B041C0E01238B40C4
:1026E000022C02D0032C02D002E0001D00E00830D2
:1026F0000168002A01D0194300E09943016010BD30
:102700000246D26900200A4200D0012070470162CF
:10271000704730B50A04130E0122144600258C4080
:10272000012B0ED0022B0ED08368090C2340C06908
:102730008A401040002B02D0002800D001252846F6
:1027400030BD0368F1E74368EFE70A0C01219140CF
:1027500001627047F3E9FFFF003801400044004088
:1027600000480040F0FF000030B583780121027876
:10277000002B15D094080E4BA400E4182368920790
:10278000D50EFF22AA40934342789207120EAA4028
:102790001A4322600078C006C00E8140054804E05C
:1027A000D006C00E814003488030016030BD00007B
:1027B00000E400E000E100E05E4910B5884202D18B
:1027C0000121C4143AE001218907884206D1012180
:1027D0000846FFF7E2FD0021012008E05649884243
:1027E00008D101210220FFF7D8FD00210220FFF7C8
:1027F000D4FD10BD5149884206D101211020FFF7B8
:10280000CCFD00211020F2E74D49884206D101217C
:102810002020FFF7C2FD00212020E8E74949884237
:1028200007D1841501212046FFF7B7FD002120467E
:10283000DDE74549884209D101210C042046FFF714
:10284000A3FD00212046FFF79FFD10BD3F498842B0
:1028500002D101214C04F1E73D498842F5D1012123
:102860008C04EBE710B50288324B984206D0012465
:10287000A407A04202D0304CA04203D17024A2434E
:102880004C8822432D4CA04203D0324C22400C896C
:10289000224302804A68C2620A880285984208D0B0
:1028A000294A904205D0294A904202D0284A9042B3
:1028B00001D1897A01860121818210BD30B5028C57
:1028C000520852000284038C8288048B7025AC432A
:1028D000A4080D88A40025430224A3438C891C432B
:1028E0004B882343134CA04208D0174CA04205D07C
:1028F000164CA04202D0164CA0420DD10824A3438E
:10290000CC891C4304239C438B882343114C2240D5
:102910000C8A14434A8A2243828005838968416372
:10292000038430BD828870239A43828082880A4360
:1029300082807047002C01400004004000100040DD
:1029400000140040002000400040014000440140CD
:1029500000480140FFFC0000424910B5884208D100
:10296000441501212046FFF70FFD00212046FFF707
:102970000BFD10BD30B5C3683B4A8C6813400A6834
:102980000D792243CC686D032C4322430C694969BD
:1029900022430A431A43C26030BD0029816801D036
:1029A000012200E0022211438160704701222F4979
:1029B000D2050028886801D0104300E09043886069
:1029C00070470122294992050028886801D01043E8
:1029D00000E0904388607047836A0B4383624261E2
:1029E0007047826800210123DB071A4382600F23AE
:1029F0001B038268491CD20FD207994201D0002ADA
:102A0000F7D18168002901DB006C70470020704716
:102A1000816810221143816070478168042211434C
:102A2000816070470029C16802D00122114301E092
:102A300049084900C1607047C26802239A43C260D6
:102A4000C2680A43C260704702460020CB0104D529
:102A5000926801231B069A4300E012680A4200D0E4
:102A6000012070470024014003D2FFFF00270140EE
:102A7000F0B501684D4A11400160002101604160DC
:102A80008160C1604A494A4B08390F22984201D1FE
:102A9000486823E0464CF0231434A04229D0444D2A
:102AA0001C012835A8422BD0414E1D023C36B042B5
:102AB0002DD03F4F1E035037B8422FD03C4F6437C4
:102AC000B84204D148681A0408E04860F0BD384FA5
:102AD0007837B84204D148680F2212061043F4E751
:102AE0003449344F0839B842D2D0324A1432904275
:102AF00002D148681843E8E72E4A2832904202D1B2
:102B000048682043E1E72B4A3C32904202D14868B2
:102B10002843DAE7274A50329042D7D148683043F9
:102B2000D3E730B50368244A0C6A13408A684D69BC
:102B300022430C692C4322438C692243CC692243F3
:102B40004C6A22438C6A22431A430260CA6842607C
:102B50000A6882604968C16030BD0029016802D0FE
:102B60000122114301E0114A114001607047002A1F
:102B7000026801D00A4300E08A43026070470146C0
:102B80000020CA0002D50B4A083A01E0084A083A78
:102B900012680A4200D001207047C10002D50549E1
:102BA000083901E00249083948607047FEFF00001B
:102BB00008000240080402400F80FFFF024901485C
:102BC00008607047AAAA00000030004030B50388B2
:102BD000C122920113400A88CC890D892243CC88F6
:102BE0002C4322434C8922438C8922431A4302807E
:102BF0008288124B1A408B88134383800A8A028290
:102C00000288042349889A4311430180818B0C4A2E
:102C10001140818330BD40220029018801D0114339
:102C200000E09143018070470173704702461289AA
:102C300000200A4200D0012070470000FFF0000091
:102C4000FFF7000013490A6904239A430A61012827
:102C500003D040BF20BF20BF704730BF70470E4B2E
:102C60001A689208920002431A600A480369042213
:102C700013430361012906D0022906D0016902220B
:102C800011430161704730BF00E020BF01699143EB
:102C9000F7E7000000ED00E00070004010B5837918
:102CA0001F490268002B26D00B6893430B604A68CB
:102CB00003689A434A6002795218136804682343F0
:102CC00013608A6803689A438A60CA6803689A43F3
:102CD000CA604279102A05D051180A680068024378
:102CE0000A6010BD8A6803681A438A60CA6800686F
:102CF0000243CA6010BD0079401801689143016029
:102D000010BD074948617047054A014652690020D5
:102D10000A4200D001207047014948617047000015
:102D20000004014010B504460A2802D10D20FFF727
:102D3000F9FF78494A68002A03D01470521C4A608F
:102D400010BD09680029FBD02046884710BD10B58A
:102D5000044602E0641CFFF7E5FF20780028F9D163
:102D600010BDF3B58BB006463078761C002877D0BE
:102D7000252802D0FFF7D6FFF6E70020029034782E
:102D8000761C302C02D02D2C02D005E0012000E072
:102D9000022002903478761C002705E00A20474381
:102DA0003F193478761C303F204630380928F5D951
:102DB0006C2C01D04C2C05D10298042108430290C0
:102DC0003478761C002C4BD02146612C01D320395D
:102DD000C9B24F2937D006DC422932D043292AD044
:102DE000442906D13DE0532905D0552939D0582929
:102DF00039D02046BEE70C98002420C80C9000E093
:102E0000641C285D0028FBD102E02020FFF78AFF28
:102E10000298800703D42046641CB842F5D32846A4
:102E2000FFF795FF02E02020FFF77CFF2046641C9F
:102E3000B84299D2F7E70C980178001D0C9008462B
:102E400098E7022000E0082001900298400701D492
:102E500044290AD00C9A442901CA0C9208D00EE0E9
:102E60004CE00A20F0E71020EEE70C9901C90C9124
:102E7000002804DA029940420822114302910025F9
:102E8000019902F0D9FEC9B2092904D9782C16D0CB
:102E900007225118C9B204AA303151556D1C0028BF
:102EA00001D0102DECD30298000702D52D215155E9
:102EB0006D1C02982C46C00703D0302002E0272268
:102EC000E7E72020089002E00898FFF72BFF029820
:102ED000800703D42046641CB842F5D304A86D1EB5
:102EE000405DFFF71FFF002DF8D102E02020FFF723
:102EF00019FF2046641CB8429BD2F7E70DB0F0BD25
:102F00000FB410B503A90298FFF72BFF10BC08BC43
:102F100004B0184710010020FEB505462C460020DD
:102F2000FF3441340290A0800F46019002F0AEFEC3
:102F300000682946C05DC4318006C20E2E460120BD
:102F400044360091002A0FD00199A0808F55208926
:102F5000402823D2384602F09DFE22890146501CAB
:102F6000009B2081D15419E0082F20D00D2F2CD0A8
:102F70000A2F13D01B2F56D01D2F5CD0464A39097B
:102F800013685A5C0199A0808A553907090F5A5C69
:102F90008255022120220320A0808A5520798006B4
:102FA000800EA0803D48008900286FD172E0019911
:102FB00008228A552023835503200221A0808A55A8
:102FC00020890028EAD0401E2BE001990D228A5565
:102FD00002210A22A1808255208940281DD2009B0F
:102FE0000021C1542181481E2860A05E8022C10FAB
:102FF000091849084900401A6081C1012848081889
:10300000009902F061FE0A20205E401CC10F0918E1
:1030100049084900401A6081C0E70020FF210431BF
:1030200048552081BAE76089401E00B260810028BF
:1030300009DA801C06E06089401C00B26081022829
:1030400001DB801E60810A20205E154FC001C1197E
:103050008022009802F038FE009802F042FE2081A3
:103060000A20205E8022C001C119304602F02CFEE9
:10307000304602F036FEA08090E7281840300079F4
:1030800002F092FA0298401CC0B20290A188029805
:103090008142F2D8FF20FEBD300100200004002054
:1030A00000030020F8B5F84800250068002844D047
:1030B000F548F6A1C43002F01BFEF54C0028206054
:1030C00019D0F2A1002002F013FE6060002812D097
:1030D000EEA1002002F00CFEA06000280BD0EBA1B6
:1030E000002002F005FEE060002804D0E7A10020E7
:1030F00002F0FEFD2061E74F3E1D09E00C20684311
:103100003158206802F0CCFD002804D16D1CEDB2CE
:1031100038788542F2D33878854206D20C20454370
:10312000A8198068002800D08047002020606060D7
:10313000A060E060D44920610860F8BDF8B5D44DC6
:103140000024686800282BD01022002102F0F4FD32
:1031500086B2A86800280AD01022002102F0ECFDF7
:10316000C5B2FF2D01D3FF2502E0082D13D2802523
:10317000200703D13119C8A0FFF7C2FE301980B271
:103180000122694601F086FC00280AD0C5A0FFF79D
:10319000DEFD641CE4B2AC42EAD3C3A0FFF7D7FD66
:1031A000F8BD68460178C1A0FFF7AAFEF1E77CB53B
:1031B000B74C6068002818D01022002102F0BCFD36
:1031C00085B2A068002810D01022002102F0B4FDC2
:1031D00004466846047001226946284601F02DFC29
:1031E000002803D0B3A0FFF7B2FD7CBD2146B5A0F7
:1031F000FFF786FE2946B8A0FFF782FE7CBD0022BD
:1032000006E083181B78FF2B01D000207047521C6A
:103210008A42F6D30020C0437047F8B50126002447
:10322000F6067714A002851939462846FFF7E7FF0E
:10323000002804D12A462146AEA0FFF761FE641C97
:10324000A4B2202CEED3F8BD10B5FFF72EF99048AC
:103250004068002812D01022002102F06DFD1F21CD
:10326000C9064418012189048C420AD2FFF74EF99D
:103270000246E10AA8A0FFF743FE02E0ADA0FFF777
:1032800066FDFFF71BF910BDF8B5814C002560689D
:10329000002867D0B1A102F003FD00282CD0A0685F
:1032A000002828D01022002102F046FDC6B2E068B6
:1032B000002808D01022002102F03EFD84B22046F2
:1032C000083839280FD340240FE0680703D1394666
:1032D000A4A0FFF715FEA6487900415AA5A0FFF764
:1032E0000FFE6D1CADB2A54202D277193F2FECD371
:1032F0006DA0FFF72CFDF8BDA0A1606802F0D0FC26
:1033000000281BD0A0680028F5D0E1680029F2D081
:103310001022002102F010FDC5B210220021E06849
:1033200002F00AFD81B292486A00815295A0FFF72F
:10333000E7FD294668A0FFF7E3FDF8BD96A16068A8
:1033400002F0AEFC002803D001F05FF994A0D0E7B2
:1033500099A1606802F0A4FC002803D001F06DF987
:1033600097A0C6E79B48C4E7F8B5494D00266868B2
:10337000002855D01022002102F0DEFC1F21044657
:10338000C906401801218904884228D3924889112E
:103390002018884223D30720400721180120C003AA
:1033A00081421CD3032189076118814217D38B49BD
:1033B0006118814213D38A4811212018890288425A
:1033C0000DD31720C00603212018C902884206D356
:1033D00001204007012120180905884221D2FF273A
:1033E000A8680137002808D01022002102F0A4FCB0
:1033F00085B2BD4201D8082D0DD23D460BE0300705
:1034000003D1A11977A0FFF77BFDA15D27A0FFF7EE
:1034100077FD761CB6B2AE42F1D323A0FFF797FC3E
:10342000F8BD73A0FAE770B5194D6868002828D078
:103430001022002102F080FC1F210446C90640181A
:1034400001218904884205D3072040072018C910AC
:10345000884217D2A8686A4D002808D0102200219F
:1034600002F06AFC81B208460838A84201D3FF2165
:1034700001310D46204601F0EEF903462A46214669
:10348000C0E0C2E0C2E00000B40100202000000063
:1034900018010020D85E00080A3078253034582002
:1034A00000000000464620000A0000002530325887
:1034B0002000000020493243204572726F72210AB9
:1034C0000000000020777269746520307825303262
:1034D0005820746F0000000020656570726F6D20C9
:1034E0006164647265737320307825303458202EFF
:1034F0002E2E0A002050616765202533642040206D
:1035000030782530384C58206973206E6F742065F0
:103510006D707479210A0000204572617365205036
:103520006167652025642C20726573756C74202595
:10353000640A0000206572617365205B70616765D5
:1035400020616464725D20457261736520666C6100
:10355000736820706167652E0A00000072656164FF
:10356000000000000A307825303858202000000084
:103570000004002025303458200000007772697460
:10358000650000002077726974652030782530343A
:103590005820746F000000006C6F61640000000030
:1035A0004C6F61642066726F6D20454550524F4DDF
:1035B0002E2E2E0A000000007361766500000000C8
:1035C0005361766520746F20454550524F4D2E2E25
:1035D0002E0A0000BC600008001400E00000FFBFDD
:1035E0000000FEBF0A307825303858200000000067
:1035F000204261642041647265737321200A0000D7
:10360000F9FF0300B2A0FFF77BFC70BDB948FFF7DC
:103610009EFB70BD30B5B84DB84C68688BB00028C3
:1036200071D0B7A102F03CFB002810D0A868002898
:1036300007D00A22002102F07FFB81B22181B2A0D3
:1036400001E02189B7A0FFF75BFC0BB030BDBAA148
:10365000686802F025FB002812D0A86800280CD06A
:103660000A22002102F068FB01F078FA642102F0DE
:10367000E3FA81B2A180B2A0E5E7A188BFA0E2E7AA
:10368000C3A1686802F00CFB00280DD0A8680028D0
:1036900007D00A22002102F04FFB81B2A182BEA016
:1036A000D1E7A18AC5A0CEE7CBA1686802F0F8FAFD
:1036B00000280ED0A868002808D00A22002102F0B5
:1036C0003BFB8107890FE182C5A0BCE7E18ACBA063
:1036D000B9E7CFA1686802F0E3FA002814D0A8681F
:1036E00000280DD00A22002102F026FB80B22083A0
:1036F000401E022801D203202083218BC6A0A2E70E
:10370000218BCDA09FE73BE0D1A1686802F0C8FA09
:1037100000280DD0A868002807D00A22002102F056
:103720000BFB81B26183CCA08DE7618BD0A08AE7CF
:10373000D4A1686802F0B4FA00281DD06846FEF7EC
:103740005BFDD1A00099FFF7DBFBD3A00199FFF748
:10375000D7FBD4A00299FFF7D3FBD5A00399FFF7BD
:10376000CFFBD7A00499FFF7CBFBD9A00599FFF7B2
:10377000C7FBDBA0069966E7DDA0FFF7E8FA64E780
:10378000DBA0FFF7E4FAE08A628B218B6B4607C36C
:10379000A38A2289A188E5A0FFF7B2FB608A009086
:1037A000238AE289A189EFA0FFF7AAFB4DE770B554
:1037B000514C524D6068002846D0F3A102F070FAD7
:1037C00000280AD0A068002837D00A22002102F081
:1037D000B3FA25E0FFF794FB70BDECA1606802F03E
:1037E0005FFA00282ED0A068002826D001F076FBD2
:1037F000E84988421DD1E84D2868002819D00A22DE
:103800000021A06802F098FA296800B2002900DAC5
:103810004942002800DA4042DE4A504302F022FAD0
:1038200084B2204601F06CFB2146DCA0FFF768FB68
:1038300070BDDFA0FFF78BFA70BD2B8DEA8CA98CD1
:10384000E3A0C7E7E7A0F5E72B8DEA8CA98CF0A0F1
:10385000C0E770B5284D294C6868002835D0CAA14A
:1038600002F01EFA00280AD0A86800282ED00A22EA
:10387000002102F061FA23E0FFF742FB70BDC3A113
:10388000686802F00DFA002821D0A86800281DD031
:10389000218EC04A914217D1E14D2968002913D0E9
:1038A0000A22002102F048FA296800B2002900DA51
:1038B0004942002800DA4042B64A504302F0D2F9A9
:1038C00081B22186D7A0D7E7B6E1D3E1B6E1B8E16E
:1038D00053544152543D307825303858204C454E91
:1038E0003D307825303858204352433D30782530DC
:1038F00034580A00F03500081801002000040020A8
:103900006563686F000000002053657420454348DC
:103910004F2073746174757320746F2025642E2E8C
:103920002E0A0000204543484F207374617475735C
:10393000203D2025640A00006261756400000000DB
:10394000207365742055415254206261756420745F
:103950006F20256C6430302C207361766520262022
:103960007265626F6F7420746F206170706C792063
:103970006E657720626175642E0A00002055415201
:10398000542062617564203D20256C6430300A004B
:103990006D656E75000000002053657420646566D7
:1039A00061756C74204D656E7520696E6465782054
:1039B000746F2025642E2E2E0A0000002064656698
:1039C00061756C74204D656E7520696E6465782034
:1039D00069732025640A0000626B6C7400000000AB
:1039E00020536574206272696768746E6573732012
:1039F000746F2025642E2E2E0A000000206272694A
:103A00006768746E6573732069732025640A00000B
:103A100068616C7400000000205365742068616C5C
:103A2000742074696D656F757420746F20256473DC
:103A30002E2E2E0A000000002068616C742074692C
:103A40006D656F7574206973202564730A0000002A
:103A5000636F6D610000000020536574204C454485
:103A6000207479706520746F2025642E2E2E0A0034
:103A7000204C454420747970652069732025640AC0
:103A8000000000007263630020535953434C4B3DC8
:103A9000256C640A000000002048434C4B3D256C17
:103AA000640A00002050434C4B3D256C640A000022
:103AB00020414443434C4B3D256C640A0000000008
:103AC00020434543434C4B3D256C640A00000000F5
:103AD0002049324331434C4B3D256C640A000000C1
:103AE00020555341525431434C4B3D256C640A00E0
:103AF000696E666F205B6563686F7C626175647C6C
:103B00006D656E757C626B6C747C68616C747C63D3
:103B10006F6D615D204F70657261746520706172B8
:103B2000616D65746572732E0A0000002042415574
:103B3000443D25643030204543484F3D2564204DA9
:103B4000454E553D256420424B4C543D256420484C
:103B5000414C543D25647320434F4D413D25640A3B
:103B600000000000204C4F474D3D2564204954562D
:103B70004C3D25642052494E473D25642041555413
:103B80004F3D25640A00000061646A0063616C694E
:103B900000000000102700007C0100202053657405
:103BA000205541444A20746F2025642E2E2E0A0091
:103BB00020536574205541444A20746F20313030C1
:103BC00030302066697273742E2E2E0A00000000B9
:103BD000205541444A203D20256420256420256449
:103BE0000A00000075736574205B61646A7C636120
:103BF0006C695D205365742F53686F7720566F6C26
:103C00007461676520706172616D732E0A00000037
:103C1000205541444A3D25642025642025640A003E
:103C20007801002020536574204941444A20746F74
:103C30002025642E2E2E0A0093A018E0218E9AA033
:103C40001AE69CA1686802F02BF800280ED0A8683C
:103C5000002807D00A22002102F06EF8608601B227
:103C600095A009E63221615E98A005E69AA0FFF7CB
:103C70006EF870BD3222A25E218EA3A0FFF740F93C
:103C800070BD10B5A54C6068002823D0A44902F08F
:103C900007F8002805D0A3A0FFF759F800F0B5FCFD
:103CA00010BD9F496068203101F0FAFF002805D05F
:103CB000A5A0FFF74CF801F08CFF10BDAAA1606829
:103CC00001F0EEFF002805D0A9A0FFF740F801F0B1
:103CD0008CFF10BDAEA0FFF73AF810BD10B5FEF78F
:103CE0005DFC002801D0B6A018E0BDA0FFF72FF8BA
:103CF000FEF7DBFBFEF73CFCBB20FEF757FC014662
:103D000004280ED0BFA0FFF7FBF8FEF73AFCFEF741
:103D1000D5FBFEF743FC012802D1BFA0FFF717F83F
:103D200010BDC6A0FFF713F8FEF731FCEDE7FEB5B6
:103D300000267A4D019602966868C44C002874D01B
:103D4000C3A101F0ADFF00282ED00A220021A868EF
:103D500001F0F2FFA18901F06FFF0C04240C21D0C7
:103D6000BDA0FEF7F4FF1AE0F004000C082201A940
:103D700000F090FEFEF722FF6846808841BA684650
:103D8000C08842BA6846008943BA6846408940BA4A
:103D900000B20090B8A0FFF7B3F8761CB6B2A64206
:103DA000E2D3FEBDBAA062E2BFA1686801F078FF6D
:103DB000002810D0A868002807D00A22002101F0AE
:103DC000BBFF81B2A181B9A059E0BFA0FEF7BFFF40
:103DD000A189C8A053E0CFA1686801F061FF002865
:103DE00010D0A868002807D00A22002101F0A4FF03
:103DF00081B2E181C8A042E0CEA0FEF7A8FFE18930
:103E0000D7A03CE0DEA1686801F04AFF00281BD083
:103E1000A86800280DD00A22002101F08DFFC007FC
:103E2000C00F208202D0D8A101E023E2D7A1D8A000
:103E300025E0DDA0FEF78BFF208A002801D0D2A16B
:103E400000E0D2A1E2A01AE0E8A1686801F028FF32
:103E5000002817D0A86800280CD00A22002101F001
:103E60006BFFC007C00F608201D0C7A100E0C7A1EF
:103E7000E0A004E0E7A0FEF76AFF12E2F2A0FFF77D
:103E80003FF8FEBDF2E10000205365742049414433
:103E90004A20746F2031303030302066697273747C
:103EA0002E2E2E0A00000000204941444A203D20C9
:103EB00025640A007A726F002053657420495A52B3
:103EC0004F20746F2025642E2E2E0A0020495A524E
:103ED0004F203D2025640A0069736574205B61648E
:103EE0006A7C63616C697C7A726F5D205365742FA4
:103EF00053686F772043757272656E7420706172BB
:103F0000616D732E0A000000204941444A3D25643A
:103F100020495A524F3D25640A0000001801002034
:103F200098350008204C6F616420706172616D6586
:103F3000746572732066726F6D20454550524F4D07
:103F40002E2E2E0A0000000020536176652070613D
:103F500072616D657465727320746F2045455052AF
:103F60004F4D2E2E2E0A0000726573746F7265001D
:103F700020526573746F72652064656661756C7438
:103F800020706172616D65746572732E2E2E0A0049
:103F9000706172616D205B6C6F61647C73617665CA
:103FA0007C726573746F72655D204F7065726174A9
:103FB0006520706172616D65746572732E0A000010
:103FC0002052656164204F75742050726F74656370
:103FD00074696F6E206973204F4E210A0000000043
:103FE00020456E61626C652052656164204F757476
:103FF0002050726F74656374696F6E202E2E2E0AC6
:1040000000000000204572726F7220436F646520CB
:104010003D2025640A00000020456E61626C652029
:1040200052656164204F75742050726F74656374BB
:10403000696F6E204F4B210A00000000204C617513
:104040006E6368696E672E2E2E0A00000004002041
:1040500064756D70000000002020202020692C2055
:1040600020742873292C2055286D56292C20492886
:104070006D41290A00000000202535642C202535DB
:10408000642C202535642C202535640A00000000AE
:10409000206C6F672064756D70205B646563206EB3
:1040A000756D5D200A0000006D6178002053657415
:1040B000206C6F672064617461206C656E67746842
:1040C00020746F2025640A00206C6F67206D617872
:1040D000205B646563206C656E5D20536574206CA5
:1040E0006F672064617461206C656E6774682E0A66
:1040F000000000002063757272656E74206C6F673B
:104100002064617461206C656E6774682069732037
:1041100025640A00696E740020536574206C6F6713
:1041200020696E74657276616C20746F2025640A54
:1041300000000000206C6F6720696E74205B64656E
:104140006320696E74657276616C5D2053657420BE
:104150006C6F6720696E74657276616C2E0A000060
:104160002063757272656E74206C6F6720696E745F
:10417000657276616C2069732025640A0000000076
:1041800072696E67000000004F6E00004F666600A7
:10419000205365742052696E67204D6F64652074EA
:1041A0006F2025730A000000206C6F672072696E13
:1041B00067205B307C315D205475726E204F6E2F0E
:1041C0004F66662072696E67206D6F64652E0A0007
:1041D0002063757272656E742072696E67206D6FF0
:1041E00064652069732025730A0000006175746F8F
:1041F0000000000020736574206175746F20737473
:10420000617274206C6F67206D6F646520746F201D
:1042100025730A00206C6F67206175746F205B3016
:104220007C315D205475726E204F6E2F4F66662074
:104230006175746F207374617274206C6F67206D88
:104240006F64652E0A0000002063757272656E74DB
:10425000206175746F207374617274206C6F6720B5
:104260006D6F64652069732025730A0061A0FEF7F5
:104270006EFDFEBD5FA0FEF76AFDA1896A48FEF7EC
:104280003FFE6948E1896C30FEF73AFE208A00283B
:1042900001D066A101E0644998316348DC30FEF743
:1042A0002FFE608A002801D060A1E7E55E499831C1
:1042B000E4E50EB560485E4A5E4900681268096828
:1042C0006B4607C35D4803685D4802685D48016846
:1042D0005DA0FEF715FE0EBD10B56748654C03687E
:1042E00066482188028866A0FEF70AFE6A4861884F
:1042F00003686A4802886AA0FEF702FE6E48A18839
:1043000003686E4802886EA0FEF7FAFD724800222C
:104310000068E18803887148825E71A0FEF7F0FDB5
:1043200075482189006803887448028874A0FEF7E4
:10433000E7FD7A48008881B27948028879A0FEF7C3
:10434000DFFD10BD7C4900204B68002B04D00A2201
:104350000021184601F0F0FC784900220A600A6842
:104360008242FCD376A0FEF7F2FCBFF34F8F7A496E
:104370007848C860BFF34F8FFEE770B5774D0024D3
:1043800020460C21484341194A68295874A0FEF779
:10439000B7FD641C24B2092CF2DB70BDF8B573487C
:1043A000002400680088009071480178CB060188DD
:1043B0000088C9050A0F410ADB0E6EA0FEF7A0FDBA
:1043C000764D774E28683168005D0009085CFEF77D
:1043D000A9FC28683168005D0007000F085CFEF743
:1043E000A1FC641CE4B20C2CECD36EA0FEF7AFFC75
:1043F000F8BD00006C6F67205B64756D707C6D614B
:10440000787C696E747C72696E677C6175746F5DAF
:10441000204F7065726174652064617461206C6FF7
:1044200067732E0A00000000F44000084F6E000081
:10443000500100204C010020800100207801002064
:104440007C0100204801002020543D256C6473202D
:10445000553D25646D5620493D25646D4120503DF4
:1044600025646D5720256C646D416820256C646D52
:1044700057680A00B40400206C0100203E010020AF
:1044800020636830303D25642025646D56203078E7
:10449000253038580A00000070010020400100203B
:1044A00020636830313D25642025646D56203078C6
:1044B000253038580A000000740100204201002015
:1044C00020636830323D25642025646D56203078A5
:1044D000253038580A000000EC5F00084601002033
:1044E00020636831363D25642025646F4320545392
:1044F00043414C3D25640A00E85F00083C01002070
:1045000020636831373D25642025646D562056525E
:104510004546494E543D25640A00000084010020B0
:104520003A0100202063616C693D256420564444B3
:10453000413D25646D560A001801002064010020E9
:10454000207265626F6F74696E67202E2E2E200AAE
:10455000000000000400FA0500ED00E0DC5E000849
:10456000202573202D3E2025730000008C010020A3
:10457000E45F00082055494D657465724D696E69A8
:10458000207625642E25642E256420466C61736890
:104590003A25646B20534E3A000000008801002049
:1045A000300100200A204543484F20537475646948
:1045B0006F203C6563686F2E786A747540676D6123
:1045C000696C2E636F6D3E2E20416C6C20526967C2
:1045D0006874732052657365727665642E200A00D4
:1045E00010B500203549364BFF242402C201D218F1
:1045F0001288A24202D10880012010BD401C80B266
:104600000828F3D30020088010BD70B52B482C4B30
:1046100001782C4C4907490F01800020C901420054
:104620008D18ED186D88401C80B2A5523F28F6D336
:104630003F21244800F027F970BDF8B51F4C002534
:104640002078214F4007400F2080FDF72EFF208863
:104650001B4EC00180190021FDF772FF2078401C1D
:104660004007400F2080C00180190188B94203D063
:10467000FDF74CFF002020802088FF21C001801919
:104680000902FDF75DFF3E210E4800F0FCF80D49E0
:104690000C4F4031888720886900C00142180848C3
:1046A000795A801C1018FDF74BFF6D1CADB2064601
:1046B0003F2DF0D3FDF702FF3046F8BD2C0100205E
:1046C000001C000800040020FFFF0000020B0A701D
:1046D0000205120F4A700206120F00078A70000FBF
:1046E000C87000200871704770B50C467D210546E2
:1046F000C90001F0B7FA0A2101F0B4FA217064216F
:10470000284601F0AFFA0A2101F0ACFA61700A21E3
:10471000284601F0A7FA0D460A2101F0A3FAA1707C
:10472000E5700020207170BD70B50C46050002D503
:104730004542012000E00020207166487D26F600F9
:10474000854202DA2079082114E06348854207DABD
:104750000A21284601F086FA05462079042109E05D
:104760005E48854209DA6421284601F07BFA054655
:10477000207902210843207107E05948854204DA74
:104780003146284601F06EFA05463146284601F0CA
:1047900069FA0A2101F066FA21706421284601F0C5
:1047A00061FA0A2101F05EFA61700A21284601F0DF
:1047B00059FA0D460A2101F055FAA170E57070BD55
:1047C00070B50C46050002D54542012000E00020EE
:1047D000E0704048854207DA0A21284601F042FA93
:1047E0000546E078042109E03B48854209DA642166
:1047F000284601F037FA0546E07802210843E070C8
:1048000008E03648854205DA7D21C900284601F0D6
:1048100029FA05466421284601F024FA0A2101F00C
:1048200021FA21700A21284601F01CFA0D460A21BE
:1048300001F018FA6170A57070BD0178002909D1E6
:10484000132101704278002A04D141708278002A35
:1048500000D18170704770B5064600222148224D74
:104860000EE0B35C58400023C407E40F4008002C5E
:1048700000D068405B1C9BB2082BF5D3521C92B24F
:104880008A42EED370BD70B5064600221548164D1B
:104890000FE05300F35A58400023C407E40F4008C8
:1048A000002C00D068405B1C9BB2082BF5D3521C37
:1048B00092B28A42EDD370BD01B569460888800086
:1048C00008800888001D08806A461088411E1180F3
:1048D000FAD208BD10270000A086010040420F0058
:1048E00080969800FFFF000001A0000010B59A4CD0
:1048F00002212046FDF7ADFD0120FFF7DDFF01217C
:104900002046FDF7A6FD0520FFF7D6FF0221204631
:10491000FDF7A1FD0520FFF7CFFF01212046FDF7A0
:104920009AFD0220FFF7C8FF10BD10B58A4C022186
:104930002046FDF790FD0120FFF7BEFF0121204634
:10494000FDF787FD0520FFF7B7FF02212046FDF7A1
:1049500080FD0420FFF7B0FF10BD70B57E4E054608
:1049600000242846A0400006C20F02213046FDF771
:1049700074FD0120FFF7A0FF01213046FDF769FD1E
:104980000520FFF799FF01213046FDF764FD641C07
:10499000E4B2082CE5D30220FFF78EFF0221304657
:1049A000FDF757FD0220FFF787FF01213046FDF795
:1049B00050FD0320FFF780FF02213046FDF742FD46
:1049C000044601213046FDF746FD0220FFF774FF43
:1049D000204670BD70B5604E002402213046FDF7C0
:1049E00038FD00250120FFF767FF01213046FDF764
:1049F00032FD0520FFF760FF01213046FDF729FD5C
:104A00000320FFF759FF02213046FDF71BFD610629
:104A10000C0EC00701D0641CE4B20220FFF74CFF6B
:104A20006D1CEDB2082DDDD301213046FDF713FDDD
:104A30000220FFF741FF204670BD70B50D460646C7
:104A4000402A01D9402202E0002A00D10122144666
:104A5000FFF74CFFA020FFF780FF002810D1300A9D
:104A6000FFF77BFF00280BD1F0B2FFF776FF00289D
:104A700006D109E028786D1CFFF76FFF002801D0F0
:104A8000022070BD641EE4B2002CF3D1FFF74DFF8D
:104A9000002070BDF8B500250E460746402A01D912
:104AA000402202E0002A00D101221446FFF71EFF37
:104AB000A020FFF752FF002810D1380AFFF74DFF62
:104AC00000280BD1F8B2FFF748FF002806D1FFF706
:104AD0000DFFA120FFF741FF002801D00220F8BD03
:104AE0001D4F641E19E0FFF775FF7055022138460F
:104AF000FDF7B1FC0320FFF7DFFE01213846FDF78B
:104B0000A8FC0520FFF7D8FE01213846FDF7A3FCDD
:104B10000220FFF7D1FE6D1CEDB2A542E3DBFFF7EB
:104B200059FF705502213846FDF793FC0320FFF72B
:104B3000C3FE01213846FDF78CFC0520FFF7BCFEC3
:104B400001213846FDF787FC0220FFF7B5FEFFF78D
:104B5000ECFE0020F8BD000000140048074A0021C8
:104B60008B00D358834202D1880010587047491CEB
:104B700089B20C29F4D3E12040027047B45F0008E9
:104B800070B5FE480924408BE406FD4D002810D086
:104B900040212046FDF75FFC02212846FDF75BFC23
:104BA00010212046FDF757FC08212046FDF753FC55
:104BB00070BD40212046FDF74CFC02212846FDF740
:104BC00048FC10212046FDF744FC08212046FDF753
:104BD00040FC70BD70B5EB480179C078C907C90FBA
:104BE00000F079FEE5480924408BE406E44D0028F6
:104BF00010D040212046FDF72EFC02212846FDF76B
:104C00002AFC10212046FDF726FC08212046FDF74E
:104C100020FC70BD40212046FDF71BFC02212846E8
:104C2000FDF717FC10212046FDF713FC0821204654
:104C3000FDF711FC70BD70B5D24802220179807871
:104C4000114000F048FECD480924408BE406CC4DCD
:104C5000002810D040212046FDF7FDFB0221284608
:104C6000FDF7F9FB10212046FDF7F3FB0821204654
:104C7000FDF7F1FB70BD40212046FDF7EAFB022164
:104C80002846FDF7E6FB10212046FDF7E4FB08214E
:104C90002046FDF7DEFB70BD70B5BA4804220179ED
:104CA0004078114000F017FEB4480924408BE40618
:104CB000B34D002810D040212046FDF7CCFB022147
:104CC0002846FDF7C6FB10212046FDF7C4FB08214E
:104CD0002046FDF7C0FB70BD40212046FDF7B9FB23
:104CE00002212846FDF7B7FB10212046FDF7B1FB56
:104CF00008212046FDF7ADFB70BD70B5A148082224
:104D000001790078114000F0E6FD9C480924408BB1
:104D1000E4069B4D002810D040212046FDF799FB6A
:104D200002212846FDF797FB10212046FDF793FB53
:104D300008212046FDF78FFB70BD40212046FDF77E
:104D40008AFB02212846FDF784FB10212046FDF74F
:104D500080FB08212046FDF77CFB70BD87488A4A0E
:104D6000807D81075078890F401C0007000F50702C
:104D7000042802D2884210D8BFE7082803D2001FB7
:104D800088420ADC88E70C2803D20838884204DC11
:104D900051E70C38884200DC1CE7F1E670B57A4C2C
:104DA000206B401C20637D21C900206B00F044FF74
:104DB00025463435714A2868022904D0032913D0C6
:104DC000052921D04AE06169491C6161A16A491C39
:104DD00044D1A188491C89B2A180D2898A423DD898
:104DE0000021A18010210CE06188491C89B26180FA
:104DF000128B002A32D08A4230D221780A292DD053
:104E000040210843286029E0606C002800DC404213
:104E10005E494843092100F025FF216A46182662B1
:104E2000E06C002800DC404258494843092100F06A
:104E300019FF616A564B401860625942A26901E04D
:104E4000F618521C8E42FBDC2662A261E26901E088
:104E5000C018521C8842FBDCE26160620A21206BB0
:104E600000F0EAFE072903D12868082108432860DA
:104E70006421206B00F0E0FE0B2903D1286801219A
:104E80000843286070BDF8B5424F002039463239DA
:104E90000C460C3C83004200CD58A65AAD19CD50AB
:104EA000BE5C761C3606360EBE520ED1394E1E3E04
:104EB000F5502D022D0C1436B552A25ACA50324A62
:104EC0000225343213682B431360401CC0B20528FE
:104ED000E0D3FFF763FFFFF741FFF8BD2D48012244
:104EE0000A38818892022548914201D2808C70470D
:104EF0000122D202914201D2C08C7047008D7047CE
:104F0000244901230A398A889B021C499A4201D20A
:104F1000888470470123DB029A4201D2C88470471B
:104F200008857047F8B51848343001688A0775D588
:104F30000222914301601848164E0068174A008803
:104F40000A3E3189504300F077FE0F4C85B2374658
:104F5000E580143F38686843010B0802000CA16328
:104F6000608178686843000B0202E063120C401A0B
:104F700080000112A2810148322211E000040020C9
:104F8000000400489001002034010020C409000002
:104F9000C0BDF0FFBE040020E85F0008E40C000084
:104FA000825E008E891A4843FE4900F05BFE606411
:104FB000B8686843000B0102090C2064E1810B21F1
:104FC0004843000AA064FFF789FFA16C4843F549F4
:104FD00000F048FEA064616C48437D21C90000F0E8
:104FE00041FEE064F088E188F04A48430001000C8B
:104FF000ED492082096809885143090B081A7D216F
:10500000C9004843EA4900F02DFE1E306082E9489D
:10501000E649006800884843000B2081F8BDF8B5D8
:10502000E54801680A0723D508229143016000F092
:1050300020FCE14900223439002800D04A800F7852
:1050400003250226DD4C3B0000F025FF0D08152747
:10505000344059616159647A95951200032866D0ED
:10506000042806D0052878D0062801D1052008702C
:10507000F8BD0820FBE7032807D0042809D005283D
:1050800005D00628F4D10A20F1E70A70F8BD0E70A9
:10509000F8BD4A618A61CA61F8BD03285DD0042861
:1050A00006D0052802D00628F6D1E0E70D70F8BD3D
:1050B0000720DCE70328EAD0042805D0052836D0ED
:1050C0000628F4D10C20D2E70B20D0E70328EDD03E
:1050D000042805D00528D8D00628E8D10920C6E73D
:1050E000886A002801D08A62F8BD0020C043CA62E5
:1050F0008862F8BD0428FCD00528FAD1C5E703284A
:10510000F8D1C2E70428F4D00528F2D1BFE703287C
:10511000F8D1BCE703280CD0042808D005280BD010
:105120000628E6D1A448202302681A43026004201E
:105130009DE7E089401E01E0E089401CE081F8BD68
:1051400003280CD0042808D005280BD00628F6D157
:105150009948202302681A430260012087E7208BC8
:10516000401E01E0208B401C2083F8BD0428FCD0A9
:105170000528FAD19AE70328F8D197E7F8B58E4ABF
:105180001068C1071FD046087600104634381660F4
:1051900007788B49834D894C3B0000F07CFE0D085D
:1051A0000B1A1D2432353B3E272D434E14008449F3
:1051B000806C34E04069A84206D28149FFF794FA36
:1051C0007F48FFF73AFBF8BD80B218E0FFF77EFAA0
:1051D000F8BD7B49406C22E011220A70C06C491C6A
:1051E000FFF7EEFAF8BD7649C06AE7E7E08904E028
:1051F0007349FFF779FAF8BD208BA842F8D37049BC
:10520000E4E7FFF76BFE00E0208E0A2100F014FDBA
:105210006B4904E06A49806901E06949C069FFF7A8
:1052200083FAF8BD1320087048708870C870002099
:105230000871402006431660F8BD5A486049AF38EF
:10524000C4E71CB500205C49009001900A68D306B1
:1052500027D510239A430A60574C5849343C8A8911
:10526000E36A9A4203D8098A00291BD0E062A18D23
:1052700068460A0A02704170A28A130A8370C270DB
:10528000A26C131203714271626C13128371C271AA
:10529000C804000C08226946FFF7CFFBE06A401CF7
:1052A000E0621CBDA0621CBD10B5434801688A06BF
:1052B00004D520229143016000F08BFC10BD10B595
:1052C0003D4801684A0617D54022914301600121FB
:1052D0000807FDF750F83B4C2046FDF799FB0021ED
:1052E0002046FDF75AFB00F03DF9012000F02CF9B3
:1052F00001210846FDF7B3FC10BD00F071F800F085
:10530000A9FB00F0BCF82C4900200860FFF768F901
:10531000FFF77BF937212948FFF7B5FA274901261E
:105320004031C98DB60309247510E40688420BD1BB
:1053300031462046FDF786F8002809D12946204647
:10534000FDF780F8002803D100F04FFC00F041FC8D
:1053500000F02EFC002801D000F03BFC3146204636
:10536000FDF770F8002809D129462046FDF76AF8B4
:10537000012803D109201149C001888000F020F9DB
:1053800000F03EF900F0DEF900F05FF800F0ABF954
:10539000FFF704F8FFF7C6FDFFF741FEFDF782FEB9
:1053A00012E0000010270000EC5F0008E40C000091
:1053B000CC100000E85F0008680100200004002015
:1053C0009001002000240140FFF7D8FEFFF739FFCD
:1053D000FFF76AFFFFF773FF0120FDF733FCD9E702
:1053E00010B5FCF771FE0120FCF7ACFE0120FCF7C4
:1053F00091FE0028FAD00020FCF7BAFEFCF7BFFEB1
:105400000028FBD10120FDF746F80020FDF73CF80D
:105410000020FCF7B9FE0020FCF7BDFE0020FCF7E1
:105420009CFE0020FCF7BFFEFA48FCF7CFFE0121EE
:10543000F948FCF78EFF01210807FCF79CFF2D209F
:1054400001214002FCF78EFF10BD38B507216846E8
:1054500001700321417001248470FDF785F91B213F
:1054600068460170022141708470FDF77DF90921C1
:105470006846017044708470FDF776F938BDFEB55A
:105480000720009003266846067109206946C00679
:10549000FCF7A0FF582000900024684644710125C5
:1054A0000571847109206946C006FCF793FFA020AE
:1054B0000090022768460771467184710920694689
:1054C000C006FCF787FF092000220521C006FCF773
:1054D000CAFF092000220721C006FCF7C4FF7002A2
:1054E00000906846077144718471C571092069464E
:1054F000C006FCF76FFF09210122C806FCF7B3FFC5
:10550000092001220A21C006FCF7ADFF70030090BC
:10551000684644710471C57109206946C006FCF7EC
:1055200059FF684600974471057184716946BB480C
:10553000FCF750FF68460096457105718571694614
:10554000B748FCF747FFFEBD1CB509218902009151
:10555000002269460A7108224A7188716846FDF77F
:105560009DFB1CBD7CB5FF200090092503246946E6
:10557000ED060C712846FCF72DFF022000906946CD
:10558000A648FCF727FF3320400200900020694620
:1055900008710120C8712846FCF71CFF6946A04825
:1055A0000094FCF717FF7CBD10B59E4908819D4C07
:1055B000203C40212046FDF7A3F80128F9D110BD79
:1055C00010B586B06846FDF76DF89748642180886D
:1055D0004843FFF7C3FA934C0090203C69462046AD
:1055E000FDF716F8012291492046FDF774F80121D4
:1055F0002046FDF762F88F498D48086006B010BD5F
:10560000F0B58D4F91B03846FDF732FA8B480690D1
:105610008B4807900520099080200B9040000024C3
:1056200086000C9020200E900A94000208940F909F
:105630000D9606A910943846FDF773FA012202214F
:105640003846FDF794FA7D4D403D2846FDF784F934
:1056500068460094047103940494694628460296AF
:105660000594FDF787F9072201212846FDF7B4F9D3
:10567000072202212846FDF7AFF907220421284618
:10568000FDF7AAF90722B1012846FDF7A5F907227F
:10569000F1012846FDF7A0F90120FDF787F9012067
:1056A000FDF78FF902212846FDF7C6F92846FDF7D8
:1056B00098F96449086001213846FDF74EFA012146
:1056C0002846FDF7AFF901212846FDF766F95E4C43
:1056D00028462146FDF7B8F90028F9D02846FDF7FD
:1056E0009CF911B0F0BD70B5584D88B02846FDF753
:1056F00063F8002469468C827D20CC82800106906C
:105700008C838C7705A92846FDF7ACF87020694694
:10571000088001264E80042088807D204001029070
:1057200002208881CC81C00108824C822846FDF786
:10573000C5F820212846FDF7F5F828883043288051
:1057400008B070BD10B586B000206946FF22088001
:1057500005324A80072212028A800222CA80012270
:105760000A8152024A8108228A81C8810720384C66
:1057700008822046FDF72AFA01212046FDF74BFA60
:105780003CE770B5324C054602212046FDF74EFA43
:105790000028F9D029462046FDF746FAFF2070BDC3
:1057A0002C4900208A78642A01D3022002E00A2AC8
:1057B00000D3012000228A70704710B50121092012
:1057C00000244903C006FCF73DFE22490028487822
:1057D00008D0642801D3022402E00A2800D301245F
:1057E000002004E0421C4A70642801D36420487001
:1057F000204610BD10B50121092000248903C006F0
:10580000FCF720FE1349002808782AD0642823D307
:10581000022424E0030000100100460000040048B8
:105820000014004820380140000400200501050054
:10583000A955000810010020080002404024014042
:10584000800400208401002001000001002C0140A0
:1058500000300140950100200A2800D301240020D7
:1058600004E0421C0A70642801D3642008702046BA
:1058700010BD10B5FFF7BEFF0446FFF79EFF0346BD
:10588000FFF78EFF012C04D0002C09D0022C0ED083
:1058900011E0002B02D0012B17D00CE0032010BD2B
:1058A000012B02D0022B0ED005E0052010BD002BED
:1058B00007D0022B0BD001280BD0022809D00020E2
:1058C00010BD042010BD062010BD072010BD08200B
:1058D00010BD092010BD10B50C46152100F0ACF923
:1058E0000948405C0949498B002906D0FF21081A64
:1058F000002C06D04006400E03E0002C01D0802191
:105900000843FFF73EFF10BDF05F000800040020D1
:105910007047FEE770477047704770B5304C0821FC
:105920002046FCF7EDFE002803D008212046FCF7B6
:10593000EEFE2C4D20462946FCF7EBFE00280DD04C
:105940002046FCF7C4FEC1B22748FDF7E5FA274917
:105950000020088029462046FCF7F7FE70BD10B5F0
:105960000220FDF70CF9002804D0FFF78CFA022082
:10597000FDF713F910BDF8B50124A4022046FDF788
:10598000C3F9E500002804D12846FDF7BDF9002839
:1059900025D017481749007D087014490020088059
:1059A000FFF7D2FDFFF76BFD134E01213046FCF7E8
:1059B000F4FF124F30463946FDF746F80028F9D07B
:1059C0003046FDF72AF82046FDF7A6F92046FDF7F8
:1059D00098F92846FDF7A0F92846FDF792F9F8BD99
:1059E0000038014005010500B40100203601002007
:1059F00000040020340100200024014001000001C7
:105A000010B54E48016801221143016041684C4ABB
:105A10001140416001684B4A114001600168012258
:105A200092049143016041683F2212049143416016
:105A3000C16A09090901C162016BFF225432914315
:105A40000163416B4908490041630021816000F016
:105A50002EF810BD70B5394D69680C2001403A48E8
:105A60003A4C03D0042901D0082901D0206014E069
:105A70006A68696803239202DB03160F1940B61C9B
:105A8000002907D0E96A0907090F491C00F0D4F87A
:105A90007043EBE72E484643266068682B490006B2
:105AA000000F091D085C2168C140216070BD1CB554
:105AB0000021224801910091026801231B041A432E
:105AC00002605B000522120304681C400094019CE4
:105AD000641C0194009C002C02D1019C9442F3D1DF
:105AE0000268920328D5012100911A4A1121116000
:105AF000416841604168416041687F22D20391431F
:105B00004160416811221204114341600168012281
:105B100012061143016001688901FCD541688908BA
:105B200089004160416802221143416041680907D0
:105B3000890F0229FAD11CBD00911CBD0010024042
:105B40000CB8FF08FFFFF6FE00127A009801002053
:105B500000093D00002002400C4880F308880C48F2
:105B60000168090E0B4A914205D10B480B490160AF
:105B70000B480C4901600C4880470C480047FEE781
:105B8000FEE7FEE7FEE7FEE7FEE70000C8080020AC
:105B9000040000001F000000181002400100000077
:105BA0000000014000000000015A0008B520000874
:105BB00070B51C4C0025A08A0D2100F03DF81A4854
:105BC0000170608A002802D01849681E08602846C3
:105BD00070BD10B537211348FEF755FE114C403407
:105BE000E085FEF72AFDE08D10BD0E4810490180CA
:105BF0000921C90181800121018141810A0382813A
:105C0000C1810021018241828182C182018341835D
:105C1000084A028441848284C284028502864186C5
:105C20007047000000040020340100205C010020C7
:105C3000881300001027000030B50B4601460020F5
:105C40002022012409E00D46D5409D4205D31D4682
:105C50009540491B2546954040191546521E002D7A
:105C6000F1DC30BD70B500242546002801DA01249E
:105C70004042002901DA01254942FFF7DDFFAC422D
:105C800000D04042002C00D0494270BD004870470F
:105C90008860000801464139192900D82030704732
:105CA00030B505462A460B4610781C78521C5B1C02
:105CB000002801D0A042F7D0002C03D0002802D049
:105CC0006D1CEFE7284630BD10B5044605E00B78A3
:105CD0000370401C002B00D0491C521EF7D22046F6
:105CE00010BD421C0178401C0029FBD1801A70476E
:105CF00070B5104D002800D12868002414E00A4631
:105D000002E09E4203D0521C1378002BF9D1DAB284
:105D1000224307D0002B06D0002C04D000210170B4
:105D2000401C04E00446401C0678002EE7D12860A1
:105D3000204670BDAC010020F7B582B00F460026AA
:105D4000029C00F0B5F80090006801902578641C72
:105D5000002D05D0FFF79AFF0068405DC007F5D120
:105D60002B2D02D02D2D1CD0641E00980021016027
:105D700039462046049A00F01AF80146002F04D054
:105D80003868A04201D10298386000980068022863
:105D90000BD00098019A0260700506D5484205B004
:105DA000F0BD012080020643DFE70846F7E7F7B5BC
:105DB00082B0029C00272078641C15460197302889
:105DC00002D0002D15D015E020780127641C78281A
:105DD00004D0582802D0002D09D00BE0002D01D0AE
:105DE000102D07D1002710252078641C02E008251B
:105DF00000E00A250026009610E00099012769437B
:105E00000818020C294680B2714300908E1838049D
:105E1000864201D3012001902078641C294600F0BD
:105E20002BF80028E9DA0398002805D0002F01D0CC
:105E3000641E00E0029C04600198002806D000F077
:105E400037F802210160C81E05B0F0BD009930048A
:105E50000843F9E7064C0125064E05E0E36807CC48
:105E60002B430C3C98471034B442F7D3FCF726F987
:105E70000C6400082C6400083A2800D23038202333
:105E800002469A43412A01D310463738884201D34B
:105E90000020C043704730B47446641E2578641CEB
:105EA000AB4200D21D46635D5B00E31830BC18476F
:105EB00000487047B001002002E008C8121F08C166
:105EC000002AFAD170477047002001E001C1121F7B
:105ED000002AFBD170470000120000009C630008FC
:105EE0007C610008B342000898630008086200085B
:105EF0002F3D0008BC6300089862000815360008B2
:105F0000E06300083C620008AF370008D86300086F
:105F10006862000853380008A4630008D0620008D3
:105F2000833C0008E8630008C86100084543000896
:105F3000C8630008FC6100087B430008B4630008E4
:105F4000606100089D43000880630008006100084C
:105F50003D310008D063000830610008AF3100080F
:105F60008863000844630008693300087063000810
:105F70008C6000082734000890630008A0610008C6
:105F800049320008AC630008BC6000088932000890
:105F9000C463000800630008DD3C0008F0630008EB
:105FA000186300081B32000878630008EC610008E1
:105FB000D942000800100E0000080700008403000A
:105FC00000C2010000E1000000960000004B00004C
:105FD00080250000C012000060090000B00400002D
:105FE0002C01000061260000BAF7FF1FB8F7FF1F61
:105FF0003F065B4F666D7D077F6F777C395E7971F9
:1060000080733E004000404040404040404040419E
:10601000414141414040404040404040404040407C
:1060200040404040404005020202020202020202D9
:106030000202020202022020202020202020202014
:1060400002020202020202909090909090101010B2
:106050001010101010101010101010101010101040
:1060600010020202020202888888888888080808CC
:1060700008080808080808080808080808080808A0
:106080000802020202400000066000086D656D63B0
:106090007263205B68657820616464725D205B6870
:1060A0006578206C656E5D2053686F77204D656D57
:1060B0006F7279204352432E0A00000065657072AA
:1060C0006F6D205B6C6F61647C736176657C72655B
:1060D00061647C77726974655D205B616464725D84
:1060E000205B646174615D204F706572617465202E
:1060F000496E742E20454550524F4D2E0A00000027
:1061000065657264205B68657820616464725D20F7
:106110005B686578206C656E5D2052656164204522
:1061200078742E20454550524F4D2E0A0000000035
:1061300065657772205B68657820616464725D20B4
:106140005B68657820646174615D2057726974656D
:10615000204578742E20454550524F4D2E0A0000A0
:10616000646973706C617920535720766572736926
:106170006F6E20616E6420534E2E0A006765742096
:10618000766F6C746167652063757272656E7420DA
:10619000616E6420706F776572206574632E0A00EB
:1061A0006572617365205B7061676520616464720C
:1061B0005D20457261736520666C61736820706153
:1061C00067652E0A000000007265626F6F74205BC5
:1061D00064656C6179206D735D20526573746172C2
:1061E000742073797374656D2E0A000067657420DE
:1061F000414420496E666F2E0A00000068656C708D
:1062000020496E666F2E0A006C6F67205B64756DA7
:10621000707C6D61787C696E747C72696E677C617C
:1062200075746F5D204F7065726174652064617470
:1062300061206C6F67732E0A00000000757365742F
:10624000205B61646A7C63616C695D205365742FB7
:1062500053686F7720566F6C746167652070617248
:10626000616D732E0A00000069736574205B6164C0
:106270006A7C63616C697C7A726F5D205365742FF0
:1062800053686F772043757272656E742070617207
:10629000616D732E0A000000696E666F205B656396
:1062A000686F7C626175647C6D656E757C626B6C19
:1062B000747C68616C747C636F6D615D2053657480
:1062C0002F53686F7720706172616D732E0A000022
:1062D000706172616D205B6C6F61647C7361766567
:1062E0007C726573746F72655D204F706572617446
:1062F0006520706172616D65746572732E0A0000AD
:10630000656E61626C65205244502070726F7465D6
:1063100063742E0A00000000656D70747920436874
:1063200065636B20666C61736820736563746F725C
:1063300020697320656D707479206F72206E6F74A0
:106340002E0A00006D656D7264205B6865782061BF
:106350006464725D205B686578206C656E5D2053B7
:10636000686F77204D656D6F72792E0A000000000E
:106370006D656D63726300006765746164000000A1
:1063800065657264000000006D656D726400000058
:1063900065726173650000006C6F670067657475F6
:1063A00069000000706172616D00000065657072C7
:1063B0006F6D000076657273696F6E00696E666F4F
:1063C000000000007264700068656C7000000000DE
:1063D0006565777200000000697365740000000055
:1063E00075736574000000007265626F6F74000061
:1063F000656D7074790000003031323334353637D2
:106400003839414243444546000000002C640008EE
:1064100000010020B4000000B85E0008E06400083D
:10642000B401002014070000C85E0008000000004E
:10643000010203040102030406070809000000002A
:10644000000000000000000000000000000000004C
:10645000000000000000000000000000F8630008D9
:10646000000000000000000000000000000000002C
:10647000000000000000000000000000000000001C
:10648000000000000000000000000000000000000C
:1064900000000000000000000000000000000000FC
:1064A00000000000000000000000000000000000EC
:1064B00000000000ACF7FF1FCCF7FF1F000000003A
:1064C00000000000006CDC02000000000000000082
:1064D0000102030406070809000000000000000094
:04000005080020B51A
:00000001FF
