:020000040800F2
:102000003815002065210008E7400008D136000897
:1020100019400008312C0008896D000800000000FC
:10202000000000000000000000000000734D0008E8
:102030000D2F00080000000001420008655F000845
:102040007F2100087F2100087F2100087F210008F0
:102050007F2100087F2100087F2100087F210008E0
:102060007F2100087F2100087F2100087F210008D0
:102070007F2100087F2100087F2100087F210008C0
:102080007F2100087F210008000000007F21000858
:102090007F2100087F2100087F2100087F210008A0
:1020A0007F2100087F2100087F2100083D6600088D
:1020B0007F210008000000007F21000800000000D0
:1020C0007F210008000000007F21000800000000C0
:1020D0000000000000000000000000000000000000
:1020E00000000000000000007F2100080000000048
:1020F00000000000000000000000000000000000E0
:102100007F21000800000000000000000000000027
:1021100000000000000000000000000000000000BF
:1021200000000000000000000000000000000000AF
:10213000000000000000000000000000000000009F
:102140000000000000000000000000007F210008E7
:10215000DFF80CD000F030FC00480047159900086B
:10216000381500200648804706480047FEE7FEE78E
:10217000FEE7FEE7FEE7FEE7FEE7FEE7FEE7FEE737
:10218000E55F0008512100080048704704D60008A8
:10219000A0F14101192900D82030704740EA01031D
:1021A0009B0703D009E008C9121F08C0042AFAD20D
:1021B00003E011F8013B00F8013B521EF9D27047D1
:1021C000D2B201E000F8012B491EFBD27047002279
:1021D000F6E710B513460A4604461946FFF7F0FF26
:1021E000204610BD30B505462A460B4612F8010BB5
:1021F00013F8014B08B1A042F8D01CB1002802D05E
:102200006D1CF1E7284630BD10B5044604E00B789C
:1022100000F8013B03B1491C521EF8D2204610BD04
:10222000CAB2401E10F8011F8A4202D00029F9D11B
:1022300000207047421C10F8011B0029FBD1801AB6
:10224000704730B504460020034600E05B1C934213
:1022500003D2E05CCD5C401BF8D030BD70B50F4DB3
:1022600000B92868002412E00A4602E09E4203D02A
:10227000521C1378002BF9D1DAB2224305D02BB1CE
:1022800024B1002100F8011B04E00446401C06783C
:10229000002EE9D12860204670BD0000000000201B
:1022A00030B503461D783DB10A4612F8014B1CB10A
:1022B000AC42FAD15B1CF5E7181A30BD30B50546C3
:1022C000002008E00A4602E0A34207D0521C13781F
:1022D000002BF9D1401C2C5C002CF3D130BD2DE932
:1022E000F04791460F4680460446002614F8015BED
:1022F0002DB1FFF749FF0068405DC007F6D12B2DD7
:1023000002D02D2D18D0641E4A463946204600F0D2
:102310006FFA27B13968A14201D1C7F80080710571
:102320004FF002040BD54042002803DD0BF016F9F4
:102330000460A007BDE8F08746F48066E4E7002863
:10234000F8DA0BF00BF904606FF00040F2E72DE9CA
:10235000F05F93460F468046044600260BF0FEF8D9
:10236000D0F80090824614F8015B2DB1FFF70CFF06
:102370000068405DC007F6D12B2D02D02D2D1AD05C
:10238000641E0021CAF800105A463946204600F063
:102390002FFA014627B13868A04201D1C7F8008062
:1023A000DAF80000022809D0CAF80090700505D5B7
:1023B0004842BDE8F09F46F48066E2E70846F8E749
:1023C0002DE9FE4F804681EA0300C00F0C460090C5
:1023D00021F0004123F00045B8EB0200A94105D2ED
:1023E0004046214690461C460B46024623F00040DC
:1023F000104347D0270DC7F30A00C3F30A510290D8
:10240000401A019040286BDAC3F3130040F4801B9C
:102410000098924620B10023D2EB030A63EB0B0B2A
:1024200001985946C0F14002504600F0B0F9064606
:102430000D4650465946019A00F0C8F910EB0800C5
:102440006141002487EA115284EAE7731A4340D0BD
:10245000009A62B3019A012A4FEA075215DC001B69
:1024600061EB02014FF0004202EA0752CDE900425F
:10247000001C41F5801132462B4600F04EFA03B0A5
:10248000BDE8F08F40462146F9E7001B61EB0201F1
:10249000001C41F5801300185B412018A2F50017BD
:1024A00047EB030140EAD570B6196D4111E06D08A4
:1024B0004FEA360645EAC0754FEA0752001B61EB4A
:1024C0000201001C41F5801149084FEA3000001953
:1024D000514132462B4603B0BDE8F04F00F00EBA32
:1024E0000098012240000023D0EB020263EBE0736E
:1024F000009821464FEAE074B8EB000061EB04015C
:10250000E9E783F000435BE781F0004158E72DE9FC
:10251000FE4F81EA030404F0004421F000410094DE
:102520004FF0000B23F0004350EA01045ED052EA62
:1025300003045BD0C3F30A54C1F30A552C44A4F23C
:10254000F3340194A0FB0254C1F3130141F4801150
:10255000C3F3130343F4801301FB024400FB034E57
:10256000840A970A44EA815447EA8357A4FB076820
:1025700002958D0A05FB07854FEA932C04FB0C544A
:102580002705029D4FEA065847EA1637B5EB0805BE
:102590006EEB070C870E920E47EA811742EA831210
:1025A000A7FB0201B6EB0B0164EB00042B0D43EA21
:1025B0000C335E1844EB1C50DA465146E7FB02012F
:1025C000C5F313044FEA0B3343EA14534FEA0432C2
:1025D000019C43EA0603A4F10C040294009CCDE99B
:1025E00000B400F09AF903B0BDE8F08F0020014676
:1025F000F9E72DE9F04D81EA030404F0004B21F0E6
:10260000004514464FF0000A23F0004150EA05024D
:1026100020D054EA01021DD0C5F30A570246C5F383
:102620001303C1F31300C1F30A5640F4801543F4B9
:102630008013A7EB0608101BD64608F2FD3873EB93
:10264000050002D308F1010801E092185B41B8F1DE
:10265000000F03DA00200146BDE8F08D00204FF4A2
:102660008011064684460EE0171B73EB050705D361
:10267000121B63EB050306434CEA010C49084FEAC1
:10268000300092185B4150EA0107EDD152EA030095
:1026900012D082EA040083EA0501084305D0101B2A
:1026A000AB4106D20122002306E000224FF0004396
:1026B00002E06FF0010253101AEB06004CEB0851D8
:1026C00010EB0A0041EB0B01BDE8F04D00F016B92C
:1026D0000EB5C10F80EAE0700844CA07002140F23D
:1026E00033438DE80E000A460B4600F016F903B09E
:1026F00000BD70B5C1F30A5201F000450024C1F3DA
:10270000130140F2FF3341F480119A4201DA0020B4
:1027100070BD40F233439A42A2F2334203DC52428C
:1027200000F044F800E090402C43F1D0404270BDEE
:1027300000F0004230F000400AD0C10D01F5607198
:10274000C0F3160042EA0151C20840071143704726
:1027500000200146704701F0004330B421F00041F1
:1027600050EA010206D00A0DA2F56072C1F313010E
:10277000002A02DC30BC00207047440F44EAC10448
:10278000C100E01830BC00EBC25000F080B8202A35
:1027900004DB203A00FA02F1002070479140C2F1B8
:1027A000200320FA03F3194390407047202A04DBEA
:1027B000203A21FA02F00021704721FA02F3D040BA
:1027C000C2F120029140084319467047202A06DBD7
:1027D000CB17203A41FA02F043EAE07306E041FAEF
:1027E00002F3D040C2F120029140084319467047DD
:1027F0002DE9F05F82460078002715468B460AF1E6
:102800000104B946302801D09DB113E014F8010B42
:102810000127782803D0582801D045B10AE00DB12E
:10282000102D07D10027102514F8010B02E0082510
:1028300000E00A250026B0460EE005FB080005FB77
:1028400006F1012701EB10461FFA80F8B6F5803F2C
:1028500000D3B94614F8010B294600F0BFF8002850
:10286000EBDABBF1000F05D00FB1641E00E0544657
:10287000CBF80040B9F1000F06D00AF06FFE02213C
:102880000160C81EBDE8F09F48EA0640FAE700294B
:10289000A8BF7047401C490008BF20F001007047E6
:1028A00010B4B0FA80FC00FA0CF050EA010404BF46
:1028B00010BC704749B1CCF1200421FA04F411FA9C
:1028C0000CF118BF012121430843A3EB0C01CB1DE0
:1028D0004FEA00614FEA102042BF002010BC704751
:1028E00000EBC35010440029A4BF10BC7047401C2B
:1028F000490008BF20F0010010BC704710B5141E3D
:1029000073F1000408DA401C41F1000192185B41A8
:102910001A4301D120F0010010BD2DE9F04D92467F
:102920009B4611B1B1FA81F202E0B0FA80F2203296
:102930009046FFF72CFF04460F4640EA0A0041EAA2
:102940000B0153465A46084313D0114653EA01007F
:1029500019D0C8F140025046FFF728FF05460E4641
:10296000504659464246FFF712FF084305D0012062
:1029700004E020463946BDE8F08D0020054346EAD4
:10298000E0762C4337430A986305E40AA0EB08007D
:102990000022FD0A44EA47540A3002D500200146CD
:1029A000E9E7010510196941DDE9084500196941A8
:1029B000BDE8F04DA2E70000064C074D06E0E068D8
:1029C00040F0010394E8070098471034AC42F6D376
:1029D000FFF7C2FBFCFC00081CFD00083A2800D2EF
:1029E000303820F02002412A01D3A2F1370088427A
:1029F00001D34FF0FF30704770B58C1810F8015BB1
:102A000015F0070301D110F8013B2A1106D110F887
:102A1000012B03E010F8016B01F8016B5B1EF9D18B
:102A20002B0705D40023521E0DD401F8013BFAE711
:102A300010F8013BCB1A921C03E013F8015B01F87C
:102A4000015B521EF9D5A142D8D3002070BD000011
:102A500010B5194C4FF40071A4F5806004F0EEFD40
:102A60001648C08C400706D420464FF40051BDE8FC
:102A7000104004F0E3BD20464FF40051BDE8104083
:102A800004F0DABD10B50C4C4FF40071A4F5806071
:102A900004F0D2FD0948C08C400706D420464FF40C
:102AA0000051BDE8104004F0C7BD20464FF400516E
:102AB000BDE8104004F0C2BD0008004868040020D2
:102AC0002DE9F041804680887A2828BF7A20B8F81E
:102AD00002104218532A01D900202BE098F80A303E
:102AE0004046DFF824C400F8163F032608F1160715
:102AF000A0F801608CB2A2420FD95CF8244014B156
:102B000025882C0A01E000250024B3B2FC54731C74
:102B10009BB2FD5401310236ECE7F11EB5B288F8E4
:102B20001810294601F079FA711C7855000A89B20B
:102B30007854B01C88F80C00C0B2BDE8F08100BF2A
:102B40002DE9F041804680887A2828BF7A20B8F89D
:102B500002104218422A01D900202CE098F80A30CD
:102B60004046DFF85CC000F8163F0423032608F156
:102B70001607A0F801308CB2A2420FD95CF82440AD
:102B800014B125882C0A01E000250024B3B2FC54BE
:102B9000731C9BB2FD5401310236ECE7F11EB5B255
:102BA00088F81810294601F038FA711C7855000A87
:102BB00089B27854B01C88F80C00C0B2BDE8F0812E
:102BC000D800002010B50446807A04F8160F1020B3
:102BD00060700020207134F8140CE07014F80E1CA2
:102BE000000A6171A0702046062101F016FAE0800B
:102BF000082004F80A0C082010BD10B50446807A9D
:102C0000062104F8160F0620607034F8140C00BA80
:102C1000000C608034F8120C00BA000CA080204632
:102C200001F0FBF9E080082004F80A0C082010BD30
:102C3000FEE7000010B52748274A016801600168D7
:102C4000016001680160016811400160016841F4A0
:102C5000F811016050F8041C41F0807140F8041C28
:102C600050F8041C8901FBD5016821F003010160C3
:102C7000016841F00201016001680907FCD50320E9
:102C800007F072F940F2045007F048F940F20250A0
:102C900007F044F9114C40F21150A04740F2125095
:102CA000A04740F21350A0474FF4A060A04740F265
:102CB0000C60A04740F20E70A04740F20B60A047A6
:102CC00040F21C70A04740F20E60A047BDE81040E3
:102CD00003F04AB904100240FFFFC277059F0008C5
:102CE000F8B536228DF80020AA228DF8052025227D
:102CF0008DF80A209B228DF80F20026843688068B7
:102D0000CDF80120CDF80630CDF80B00684603F071
:102D100023FA9DE80F0048405040584004B080BD61
:102D2000A0F13001CAB20A2A01D2C8B270472D28D8
:102D300016D06D2816D03A2816D0412816D044282F
:102D400016D0452816D0502816D0562816D0572809
:102D500016D0682816D02E280CBF0B210A21E4E7D4
:102D60001221E2E71121E0E71021DEE70D21DCE787
:102D70001421DAE71321D8E71521D6E70C21D4E78F
:102D80000E21D2E70F21D0E7018849B9418839B92E
:102D9000818829B9C18819B9018909B9408908B15F
:102DA000002070474FF0FF307047000010B5BA4860
:102DB000026B446B816BC36B5D48A242C0E9162471
:102DC000C0E9181307DD806AA0420CDB90420ADCE0
:102DD0004FF0FF3010BD08DA816A4FF0FF30A1429A
:102DE00002DA914200DD002010BD994205DDC06A83
:102DF0009842F8DB8842EBDDF5E7E9DAC26A4FF08A
:102E0000FF309A42F0DA8A42EDDCEDE770B50D4C06
:102E100005030026102E13D005EB062120464FF4A3
:102E2000807204F0ADF80020B0F5807F04D0215C02
:102E30000130FF29F8D001E00136EBE7002070BD3A
:102E4000012070BD34100020FFF7DEB9B0B5044694
:102E500094F8981094F8992090F8960094F8973088
:102E600042EA012220706370628094F89A1094F80C
:102E70009B00032B40EA0121A1800BD0102B0FD027
:102E8000062B2AD0042B3DD12069D8BB2046FFF762
:102E900057FE34E02069A8BB2046FFF711FE2EE064
:102EA000207294F89C10082861722BD8B1EB400F67
:102EB00028D1154A002188421CD063880B44522B2C
:102EC00009D852F8233033B104EB4105B5F89D50D1
:102ED0002DBA2D0C1D800131EDE7522A12D80A4877
:102EE00050F8220070B10180206958B92046FFF7E0
:102EF00084FE04E0206928B92046FFF763FE4FF006
:102F0000FF302061B0BD00BFE0010020704700002D
:102F1000B0B50749114B8A6F4AF6AA241546AD1A77
:102F2000854228BFB0BD1C6000BF8D6FF7E700BFB2
:102F3000EC030020BCB5094C4AF6AA25ADF8060002
:102F4000BDF80600411EADF8061028B14FF45C70C4
:102F500000F006F82560F3E7BCBD00BF003000407C
:102F600081B0ADF80200BDF802008000ADF80200AB
:102F7000BDF802000430ADF80200BDF80200411EA9
:102F80000028ADF80210F8D101B0704770B5434D7C
:102F90000021A81C80224FF6FF7408290CD002F4EF
:102FA00060732B4330F8026C1B880EB9A34210D01B
:102FB000803280300131F0E7364E0020308004F05E
:102FC000BBFA308805EBC01004F078FA04F070FA10
:102FD00002E0304A11800488204670BDB0B52D480B
:102FE0002D4B0188002401F007010180074840EAC9
:102FF000C1120232C9017C2C03D0155B1D5302346F
:10300000F9E708430088A3F87C00B0BD021C000863
:103010002DE9F0411F4EDFF8188F30883E2100F077
:1030200007003080404601F011F8054604F084FAAC
:1030300031884FF48072481C00F0070002EBC11188
:10304000164F308001F46071CA5B4FF6FF739A42ED
:1030500004D041EA070004F031FA308807EBC010D1
:10306000290404F079FA0546002084B23D2C0CD8DE
:10307000328807EB440058F8141000EBC2100430FB
:1030800004F06AFA0546A01CEFE704F011FAE8B272
:10309000BDE8F081B807002038070020001C0008B8
:1030A0000348016821F00401016030BF704700BF90
:1030B00010ED00E02DE9F843B24E4FF09040B047DC
:1030C000B14D2846B04705F580642046B047AF4E65
:1030D0004FF09040002101220123B0474FF0904073
:1030E000002101220223B0474FF09040012101222C
:1030F0000423B047A64F4FF0904000210022042344
:10310000B847DFF890924FF090400421C8474FF045
:103110009040012101220823B0474FF09040012147
:1031200001221023B0474FF09040012101220823D3
:10313000B8474FF09040012101221023B8474FF0CB
:103140009040002101222023B0474FF09040012100
:1031500001224023B0474FF09040012101228023FB
:10316000B0474FF09040012101224023B8474FF073
:103170009040012101228023B8474FF09040022166
:1031800002224FF48073B0474FF09040002101229B
:103190004FF48073B847DFF800824FF0904002216F
:1031A0004FF48072C0474FF09040022101224FF44B
:1031B0000073B0474FF09040002101224FF400739C
:1031C000B8474FF0904001214FF40072C0474FF0D4
:1031D0009040022101224FF48063B0474FF09040AD
:1031E000002101224FF48063B8474FF09040012145
:1031F0004FF48062C0474FF09040012102224FF40B
:103200000063B0474FF09040012102224FF48053F9
:10321000B0474FF09040012102224FF40053B047D5
:103220004FF09040012102224FF48043B0474FF00D
:103230009040002101224FF40063B8474FF09040C6
:10324000002101224FF48053B8474FF090400021F5
:1032500001224FF40053B8474FF090400021012263
:103260004FF48043B8472846012100220123B0478C
:103270002846002100220123B8472846012104F0F6
:10328000DBF92846012100220223B047284600210D
:1032900000220223B8472846022104F0CDF928462F
:1032A000012102220823B0472846012102221023CF
:1032B000B0472846012102222023B047284600219A
:1032C00001220823B8472846002101221023B847CD
:1032D0002846002101222023B84728460121012247
:1032E0004FF40073B0472846002100224FF40073CA
:1032F000B84728464FF40071C847284602210122EA
:103300004FF44063B0472846002103224FF4406346
:10331000B847284606214FF44062C047284601219D
:1033200001224FF48053B0472846002103224FF476
:103330008053B84728464FF48051C8472846022199
:1033400000224FF46043B0472846002103224FF487
:103350006043B847284600214FF46042C0472046EA
:10336000012100224FF40053B047204600210022E3
:103370004FF40053B84720464FF400514A46BDE889
:10338000F84310474D760008000400489B7600087B
:10339000E97600083D760008D97500082DE9F0416E
:1033A00098461546C21D01F10F03D2B2DBB201F0FF
:1033B00021FC2C2001F0ABFC8748A5F12001CBB209
:1033C000B149194D0088B8F1000F18BF1F200988B6
:1033D00005EB031CAD4D4FF0000E0026BEF1100FA3
:1033E0001BD0B8F1000F04D0BEF10F0F01D1FF27A1
:1033F00001E01CF80E700023072B0BD8FC070C46CD
:1034000008BF044624BA240CB2B2AC5201330236CF
:103410007F08F1E70EF1010EE0E79C484FF4807160
:10342000BDE8F04101F058BC18D60008F8B50546D3
:1034300010460C46FFF774FC064605F10F00C2B2B9
:1034400004F11F00C3B22846214601F0D3FB2C2013
:1034500001F05DFC60488C49124B008809888B4C58
:103460004FF0000E03EB861C0025BEF1400F12D07A
:103470001CF80E600027072F0AD8F3070B4608BF79
:1034800003465BBAAAB2A352013702357608F2E7C7
:103490000EF1010EE9E77D484FF48061BDE8F84088
:1034A00001F01ABC28DC00082DE9FC414A48224CF6
:1034B000754D00274FF4FC6807800020002122464C
:1034C0001023A5F80080009700F08CF84FF6E0700C
:1034D0001A4E288004F11002002011210823B04761
:1034E00040F2FF70288004F11802002030210823E8
:1034F000B0474FF61F00288004F1200200204F2122
:103500000823B04704F12802002070211023A5F8F9
:103510000080009700F066F81F20288000207F219F
:10352000102200F08DF800207F216F2202B0BDE84C
:10353000F04100F085B800BF1A0000201B360008DB
:10354000F8B5514F4FF6E07038802348234C0025E2
:10355000234E058000200021224610230095B0470D
:1035600004F110020020102110230095B0474FF401
:10357000FC60388004F120020020202110230095F7
:10358000B04704F130020020302110230095B047ED
:1035900040F2FF70388004F14002002040211023E7
:1035A0000095B04704F150020020502110230095EF
:1035B000B0474FF61F00388004F160020020602100
:1035C00010230095B04704F17002002070211023F1
:1035D0000095B047F8BD00BFE40400205200002071
:1035E000E53500082DE9F843DDF820901C46154626
:1035F00088460746002620060DD0AA5D5AB129FA52
:1036000006F000F00103F8B24146FFF7C7FE0136AD
:10361000013C0837EFE7BDE8F883F8B51C461546CE
:103620000E460746200609D02A783AB1F8B231464C
:10363000FFF7FCFE013C10370135F3E7F8BD000051
:1036400070B50C46134611462246054601F0D2FAE3
:103650002C2001F05CFB0C4A601B128801300B4DE2
:1036600081B2130A0024E6B2B14206D905F8163039
:1036700076000136AA550134F5E7400081B20348CF
:10368000BDE8704001F028BB18000020340C002079
:10369000072808BFFFF754BF062804D0052818BF25
:1036A0007047FFF74DBFFFF7FFBE0000022884BF41
:1036B0000348704740B203A151F82000704700BF93
:1036C000A5EA000897EA00088BEA000891EA0008DA
:1036D000FEE7000070B50446082102284FF0904034
:1036E00008BF402103F0A8FF734E0320B047102508
:1036F000022C08BF80254FF09040294603F09EFF22
:103700000520B0474FF09040294603F095FF022076
:103710003146BDE87040084770B5044608210228CC
:103720004FF0904008BF402103F088FF624E032015
:10373000B0471025022C08BF80254FF09040294645
:1037400003F07CFF0520B0474FF09040294603F07E
:1037500073FF02203146BDE8704008472DE9F0476D
:103760004FF008098046022808BF4FF040094FF08B
:103770009040494603F062FF4F4C102600254FF061
:10378000000AB8F1020F08BF8026072D1DD80120BE
:10379000A0474FF09040314603F04EFF0520A04770
:1037A0004FF09040314603F049FF0320A0474FF00F
:1037B0009040494603F06CFF07460220A04707F0FF
:1037C000010040EA4A0A0135DFE710214FF090403E
:1037D000B8F1020F08BF802103F02EFF0220FFF78F
:1037E000BFFB5FFA8AF0BDE8F08700BF2DE9F0412A
:1037F0000D468046102608270024022808BF802690
:1038000008BF4027082C1AD005FA04F0C0B2C2093C
:103810004FF09040394603F013FF0120FFF7A0FB63
:103820004FF09040314603F009FF0520FFF798FB69
:103830004FF09040314603F0FFFE0134E2E70220F2
:10384000FFF78EFB08214FF09040B8F1020F08BF40
:10385000402103F0F3FE0220FFF782FB4046BDE863
:10386000F04100F04BB8000070B50825044602286E
:1038700008BF40254FF09040294603F0DFFE102698
:10388000022C08BF80264FF09040314603F0D6FE50
:10389000094C0520A0474FF09040294603F0CCFE8C
:1038A0000520A0474FF09040314603F0C5FE0220AE
:1038B0002146BDE870400847612F0008B0B50825D3
:1038C0000446022808BF40254FF09040294603F0E7
:1038D000B3FE10214FF09040022C08BF802103F06E
:1038E000ADFE0520FFF73CFB4FF09040294603F06A
:1038F000A5FE0420BDE8B040FFF732BBB0B51025EF
:103900000446022808BF80254FF09040294603F066
:1039100095FE0320FFF724FB08214FF09040022C76
:1039200008BF402103F0B4FE04464FF09040294602
:1039300003F082FE0220FFF713FB2046B0BD00001B
:10394000B0B50A4C4FF48051204603F075FE482074
:1039500000F0F2FFFF2000F0EFFF054620464FF495
:10396000805103F06BFEE8B2B0BD00BF0004004818
:10397000B0B56FF45E61884202DA4FF6184032E06B
:1039800047F6E571884202DD41F6BE602BE017493B
:10399000002240F277331BB214B29C420BDC1C4471
:1039A00024F001054D5F6410854202DC16DA621CCA
:1039B000F2E7631EEFE731F9132031F91410801A92
:1039C00000EB8000891A400090FBF1F003EB8301CB
:1039D00000EB41004FF61841084404E0044904EBB1
:1039E000840001EB400000B2B0BD00BFE2E100087E
:1039F00018FCFFFF80B51148018DC1F3011151B1D1
:103A0000012918BF80BD4FF4E13002F03BFEBDE854
:103A1000804008F0EFB90A490978008DC0F303200F
:103A2000B0FBF1F202FB1100064951F8200002F050
:103A300029FE0548BDE8804000F03CBB680400203A
:103A4000D8E10008A8E100085C0B002010B501F0E7
:103A5000AFF9044601F0CAF915494FF47A730A88A0
:103A6000B2F57A7F38BF531C012C0B8002BF0028AF
:103A7000032010BD1CB9012804BF052010BD022C75
:103A800002BF0028042010BD1CB9022804BF062074
:103A900010BD012C02BF0128072010BD80F00200DC
:103AA00084F002010843B0FA80F04009C00010BD64
:103AB000DE04002010B501200021002400F09CF855
:103AC0004C482021202C08BF10BD01550134F9E7D6
:103AD000B0B5154C0520A047144D30200021A84753
:103AE0000520A04730200021A8470120A047302012
:103AF0000021A8470120A04728200021A847052031
:103B0000A0470B4C28200021A04708200021A047F7
:103B100006200021A0470C200021A0470120002101
:103B20002246BDE8B0401047352F0008ED3C0008A4
:103B3000F93B0008B0B5032811D8DFE800F0021EF9
:103B40002D3C80200021002400F056F8294D082C3F
:103B50004ED0285D012100F04FF80134F7E78020B6
:103B60000021002500F048F8224C102D32D0605D75
:103B7000012100F041F80135F7E7882000210024F9
:103B800000F03AF81B4D082C32D02819007A012198
:103B900000F032F80134F6E7C0200021002400F0E4
:103BA0002BF8144D082C23D02819007C012100F09B
:103BB00023F80134F6E7C8200021002400F01CF8A7
:103BC0000C4D082C14D02819007E012100F014F8A7
:103BD0000134F6E7C0200021002500F00DF8102D7B
:103BE00006D06019007C012100F006F80135F6E7E7
:103BF000B0BD00BFBA07002080B500F005F80A206C
:103C0000BDE88040FFF7ACB92DE9F84F594F0E469B
:103C100007F57A7405462046202103F00DFD204665
:103C2000082116B103F00AFD01E003F005FD2E4A5C
:103C3000204610219047DFF840810A20C04728061F
:103C4000384607F1100658BF30464FF40061016056
:103C50006806384658BF30464FF4805AC0F800A076
:103C6000A806384658BF30464FF4005BC0F800B095
:103C7000E806384658BF30464FF48049C0F80090F7
:103C80000A20C0472046202103F0D8FC0A20C04764
:103C9000154A2046202190472807384658BF30460D
:103CA0004FF4006101606807384658BF3046C0F8DD
:103CB00000A0A807384658BF3046C0F800B0E80753
:103CC0004FF00A0008BF3746C7F80090C0472046AB
:103CD000202103F0B3FC0A20C047034A20462021DC
:103CE000BDE8F84F104700BF39760008F8B5214FFE
:103CF0000E4607F57A7405462046202103F09CFC09
:103D00002046082116B103F099FC01E003F094FC71
:103D10002046102103F090FC174E0A20B0472806D9
:103D2000394607F1100058BF01464FF400620A609F
:103D30006906394658BF01464FF480520A60A90609
:103D4000394658BF01464FF400520A60E90658BF91
:103D500007464FF4804038600A20B04720462021B3
:103D600003F06CFC0A20B04720462021BDE8F84053
:103D700003F062BC18000048612F00082DE9F041F3
:103D80001A48214B4FF480721E49C0E9132300F1F9
:103D900054031B4F00F1080492C31C49DFF850E0A4
:103DA000DFF85080144D154E09884FF4805CC0E94F
:103DB0000B65C0E90D8EC0E90F22C0E911C100F109
:103DC0002801134805F0C4FA01461248828839B127
:103DD00022F48072828010A0BDE8F04109F08BBA15
:103DE00042F480718180BDE8F08100BF8C03002027
:103DF00051730008F972000811730008317300084C
:103E00002008002020090020200A0020380300207C
:103E1000DC07002088040020206D6F756E7420651B
:103E200072726F722025642C2074727920666F7212
:103E30006D61742066696C652073797374656D209B
:103E400066697273742E0A00F8B59E4C38212046BC
:103E500000F0FCF830B19B48392100F0F7F808B1C8
:103E60000020F8BDB4F860103248334BC180B4F87C
:103E70006210334A0181B4F86610334E41812568DF
:103E8000B4F868101D6081812C49954284BF21607F
:103E9000196025692B4B95421D6084BF2161196013
:103EA000236A2A4D3360AB4282BF216231600B46E8
:103EB000676A274E0135AF42376001D29F4202DB6D
:103EC000002363623360A56A224B4E1E1D60B5421B
:103ED00082BF41F28835A5621D60E36A9446934231
:103EE00084BF46F2A813E362B4F84A301A4A642B3E
:103EF00024BF0423A4F84A30236B656B1360174A70
:103F0000A66B1560164AE76B1660164A1760226C9E
:103F1000624588BFE1620189134AC1F380011170D3
:103F200080891249C0F3810008704FF0FF30F8BD5E
:103F3000380700208804002054040020A0860100D7
:103F40007F969800580400205C0400203F420F0038
:103F500060040020140000204404002048040020D5
:103F60004C04002050040020EC030020D804002062
:103F7000C9B32DE9F04104460020086020460D46F3
:103F8000FFF772FC2046D121FFF730FC174F204687
:103F9000B847DFF85C8006462046C047B00728686F
:103FA00040EA064048BF40F07F4028602046B847BE
:103FB00006462046C047286840EA0620286020467A
:103FC000B84706462046C047286830432860204648
:103FD000B84705462046FFF79FFB2046FFF76EFCDB
:103FE0002846BDE8F0810020704700BF5D3700081B
:103FF000D5360008B0B50C460546FFF735FC284617
:10400000D021FFF7F3FB28462146FFF7EFFB2846B8
:10401000BDE8B040FFF752BCFEE7F0B54FF6FF73C6
:1040200000224AF201048A420ED0855C6B400025D2
:10403000072D07D884EA5306DF0708BF5E0801355D
:104040003346F5E70132EEE798B2F0BDF0B54FF632
:10405000FF7300224AF201048A420FD030F8125056
:104060006B400025072D07D884EA5306DF0708BFF9
:104070005E0801353346F5E70132EDE798B2F0BD51
:1040800010B50446C07A98B1A28A0132A28292B2D7
:104090008A420DD900F03F0104F19600E172FFF76A
:1040A000BCFF10B92046FEF7D1FE0020A082E072CE
:1040B00010BD00000021034AC17292F86420818281
:1040C0008272704738070020024600209082D37A1F
:1040D000402B24BFD0727047D01880F89610581C1F
:1040E000D072084670477047B0B54EF2C30188429F
:1040F00002D94FF6D4602FE0A12802D240F2DC5062
:104100002AE016490022B4231BB214B29C420BDCF5
:104110001C4424F001054D5B6410854202D316D97E
:10412000621CF2E7631EEFE731F8132031F8141038
:10413000801A00EB8000891A400090FBF1F003EB3D
:10414000830100EB41004FF6D461084404E00449C8
:1041500004EB840001EB400000B2B0BDD8F40008CD
:10416000D4FEFFFF80B54FF4A06005F02BFD1B20AF
:1041700001210122BDE8804005F0F8BCB0B540F255
:104180003D71884202D24FF6300032E048F2FE1113
:10419000884202D941F6C8102BE0174900224FF49B
:1041A00057731BB214B29C420BDC1C4424F0010573
:1041B0004D5B6410854202D816D2621CF2E7631E82
:1041C000EFE731F8142031F81310801A00EB80006B
:1041D000891A400090FBF1F004EB840100EB4100F0
:1041E0004FF63001084404E0044904EB840001EB7D
:1041F000400000B2B0BD00BF42F6000830F8FFFF3B
:10420000704700002DE9F84F1A4F91468A468346C1
:10421000002085B24D4528BFBDE8F88F144805EB56
:104220000A0109F068F80BEB05060024102C05D0F4
:10423000315D384609F05FF80134F7E74FF00008C8
:10424000B8F1100F0DD016F80800A0F12001C9B286
:104250005F2928BF2E20C0B209F05AF808F10108E2
:10426000EEE7B74809F06CF805F11000D1E700BFA0
:1042700001F30008FBF20008B0B5144C0020A04781
:10428000184D014612A0A8470120A047014616A0DC
:10429000A8470220A047014618A0A8470320A0472E
:1042A00001461BA0A8470420A04701461DA0A8471F
:1042B0000520A047014620A0A8470620A0470146A8
:1042C00022A02A46BDE8B040104700BF899D0008E3
:1042D00020434B5F5359532020203D20256C640A16
:1042E00000000000F7D2000820434B5F4148422005
:1042F00020203D20256C640A0000000020434B5F15
:104300004150423120203D20256C640A000000000D
:1043100020434B5F4150423220203D20256C640AEF
:104320000000000020434B5F4144432020203D20FB
:10433000256C640A0000000020434B5F4345432086
:1043400020203D20256C640A0000000020434B5FC4
:104350005553415254203D20256C640A0000000052
:104360002DE9FE4F754D744C4FF0000A4AF6AA260F
:1043700000211D484078814230D21DA0019108F0F3
:10438000BAFF4FF00008CDF808A0B8F1100F1ED00A
:104390004FF000094FF00F0B57461BF101000CD0F6
:1043A0003846FEF733FD80B200FA0BF0266049EA8A
:1043B00000090137ABF1010BEFE71FFA89F128463D
:1043C00008F099FF0AF1100A08F10108DDE7DDF8AD
:1043D00008A001990AF5807A0131CAE70348BDE8CF
:1043E000FE4F08F0ADBF00BF380300207BE9000896
:1043F0000A253034582000002DE9F04F8FB00246D6
:1044000027488B4601A9012304F06FFBB0F1FF3F61
:104410003EDD484F22480DF1040949463A464FF423
:10442000807304F0FEFB05464348002680464AF6AA
:10443000AA2A0020012D21DB00BB0024A5420DD0BB
:10444000385D08F0BFFE385D0A2805D10136BBF1A2
:10445000010FA8BF5E450BDA0134EFE7104849466B
:104460003A464FF4807304F0DCFB0546002001E07F
:104470004FF0FF304146C8F800A0DBE7084801A92B
:1044800004F0B5FAB0F1FF3F06DC0146054801E053
:104490000146054808F02FFF0FB0BDE8F08F00BFC0
:1044A000DC070020C1E90008CDF100082DE9F84F34
:1044B000DFF88080204D214E4FEA00394FF0000B8D
:1044C0004AF6AA24BBF1100F2AD009EB0B2717A03C
:1044D000394608F010FF404639464FF4807202F02A
:1044E0004FFD0027C246102F17D000200F21524643
:1044F0004B1C09D012F8013BFF3BB3FA83F35B0975
:104500008B4018430139F3E781B230462C6008F044
:10451000F2FE0AF1100A0137E5E70BF1010BD1E7D2
:104520000748BDE8F84F08F00BBF00BF0A25303838
:1045300058200000341000200030004009F300082B
:104540007BE90008F0B55049504A534B1160504A7E
:104550004C4811604F4AC1601360504A816041600D
:104560000160C161816141610161036200231360E7
:104570004B4A41F2883414604CF250324362C262BA
:10458000484A84621360484A0363D380D488012771
:1045900044F00104D480D48824F00204D480D48868
:1045A00024F00404D480B2F806C01381158925F0E4
:1045B00001051581158925F004051581158945F03A
:1045C000100525F020051581158925F0C0051581F8
:1045D000158925F4706505F5407515811589538198
:1045E000568926F001065681568926F00406568122
:1045F000568926F010065681568946F020065681C7
:10460000568926F0C0065681568967F31F265681C3
:1046100056899381948944F001049481948924F00B
:104620000C049481948944F0800424F070049481F3
:104630001E4C436323601E4C8363C36301644FF4C9
:10464000003123601B4C41644FF48021816464215C
:104650002360A0F85010A0F860C091896FF31F315B
:104660009181A0F86470A0F86250918921F4706182
:1046700001F5C0619181A0F866609189A0F8681089
:10468000F0BD00BF38070020A086010054040020C0
:10469000580400205C040020400D0300600400204A
:1046A0001400002044040020880400204804002056
:1046B0004C040020500400202DE9F0438FB003206B
:1046C0004FF0030802F060FE4FF40056002701206F
:1046D00007960697ADF81400C0486D4600F10C042B
:1046E000814603202946CDE903778DF808700197AC
:1046F000009402F075FE042002F046FE40F2011024
:10470000CDE90676ADF8140004202946CDE90377FB
:104710008DF80870CDE9004702F062FE4FF400709A
:104720000E97CDE90C780B904FF48270CDE90977A4
:10473000089008A9484605F046FD484605F034FDB6
:104740000FB0BDE8F08300BFBCB50546FF208DF873
:1047500007000020009004200C4602F089FE0DF1B5
:104760000701042002F07CFE0420214602F096FEA0
:10477000032002F087FE0320294602F071FE032089
:10478000214602F08BFE954C0021204605F004FDE9
:104790002046012105F000FD032002F0EBFD04207E
:1047A00002F0E8FD4FF6FF7000900420022102F0B5
:1047B0000BFE48B900980138009000980028F4D109
:1047C00087480168013101604FF6FF7000900320B7
:1047D000022102F0F9FD48B90098013800900098D4
:1047E0000028F4D17E480168013101604FF6FF7066
:1047F00000902046802105F0E1FC012809D10098B5
:104800000138009000980028F3D175480168013103
:104810000160042002F0A4FD032002F0A1FD204667
:10482000002105F0AFFC2046012105F0ABFC04207F
:10483000022102F0BFFD0320022102F0BBFDBCBD3E
:10484000BCB50546FF208DF807000020009004202D
:104850000C4602F017FE0420294602F001FE042057
:10486000214602F01BFE032002F002FE0DF10701BB
:10487000032002F0F5FD0320214602F00FFE574C05
:104880000021204605F088FC2046012105F084FC2B
:10489000032002F06FFD042002F06CFD4FF6FF7064
:1048A00000900420022102F08FFD48B900980138E1
:1048B000009000980028F4D1494801680131016056
:1048C0004FF6FF7000900320022102F07DFD48B9F1
:1048D00000980138009000980028F4D14048016801
:1048E000013101604FF6FF7000902046802105F0F5
:1048F00065FC012809D10098013800900098002833
:10490000F3D13748016801310160042002F028FD2D
:10491000032002F025FD2046002105F033FC20464F
:10492000012105F02FFC0420022102F043FD0320A9
:10493000022102F03FFDBCBD7CB505460020274C9E
:10494000ADF806004FF0FF304FF6FF76ADF80600E9
:104950002046022105F032FC60B9BDF8060001389E
:10496000ADF80600BDF806000028F1D11C4801682A
:10497000013101602046294605F01EFCADF80660B5
:104980002046012105F01AFC60B9BDF80600013887
:10499000ADF80600BDF806000028F1D11048016806
:1049A00001310160204605F004FC0546ADF80660C3
:1049B0002046802105F002FC01280CD1BDF806003C
:1049C0000138ADF80600BDF806000028F0D1044813
:1049D00001680131016028467CBD00BF00380040FD
:1049E000D4040020F8B5124B010A0022802A06D018
:1049F00003EB420403F8121060700132F6E7002066
:104A000000217F227F23002500F0F4F82C2000F005
:104A10007EF9074C074E4AF6AA277F2D88BFF8BDBE
:104A200020464FF4807100F057F937600135F4E704
:104A3000340C00200030004070B54FF090404FF42F
:104A4000006102F0FBFD5C4C0A20A0474FF0904053
:104A50004FF4006102F0F0FD0A20A0474FF09040B3
:104A60004FF4006102F0EAFD7820A047534D112079
:104A7000A8477820A047B120A847514C0220A04762
:104A80003520A0473620A047B220A8470220A047E3
:104A90003520A0473620A047B320A8470220A047D2
:104AA0003520A0473620A0470220A0473520A04748
:104AB0003620A047B420A8470320A047C020A8471D
:104AC000A220A0470220A0478420A047C120A847D9
:104AD000C520A047C220A8470D20A0470020A0471E
:104AE000C320A8478D20A0472A20A047C420A8475C
:104AF0008D20A047EE20A047C520A8470A20A04748
:104B000036202E46A84773480078032806D838492F
:104B1000C00021FA00F0C0B200F012F9E020B04766
:104B20001220A0471C20A0471020A0471820A04713
:104B30003320A0472C20A0472520A0472820A047AD
:104B40002820A0472720A0472F20A0473C20A0478F
:104B50000020A0470320A0470320A0471020A04723
:104B6000E120B0471220A0471C20A0471020A047FA
:104B70001820A0472D20A0472820A0472320A04789
:104B80002820A0472820A0472620A0472F20A04764
:104B90003B20A0470020A0470320A0470320A047B8
:104BA0001020A0473A20B0470520A04729203146D1
:104BB000BDE87040084700BF112F00080F4D0008E6
:104BC000414D000810B5434C00F003002070362022
:104BD00000F09DF82078032888BF10BD0449C0006C
:104BE00021FA00F0C0B2BDE8104000F0A9B800BF43
:104BF000A8C86808F8B5064636480078032868D87B
:104C00000C461D461746DFE800F0020D263F2A201D
:104C100000F07DF8F81C8DF803000027F01C8DF8DB
:104C2000027022E02A2000F072F8B81C8DF8030010
:104C30000027B01C8DF802708DF801006846042131
:104C40008DF8007000F048F82B2000F060F88DF827
:104C50000070032030E02A2000F059F8781C00276B
:104C60008DF803008DF80270701C8DF80100684605
:104C700004218DF8007000F02FF82B2000F047F889
:104C80008DF80070022017E02A2000F040F8B81CD0
:104C90008DF803000027B01C8DF802708DF801001C
:104CA000684604218DF8007000F016F82B2000F003
:104CB0002EF801208DF8007000218DF802104119A6
:104CC00020448DF803108DF801006846042100F09F
:104CD00003F8F8BDD8040020B0B50C4605464FF0E7
:104CE00090404FF4805102F0A7FC4FF090404FF4F9
:104CF000005102F0A3FC2846214601F07DFB4FF055
:104D000090404FF48051BDE8B04002F097BC10B520
:104D100004464FF090404FF4805102F08DFC4FF06C
:104D200090404FF4005102F087FC204601F0DCFB7C
:104D30004FF090404FF48051BDE8104002F07EBC2F
:104D400010B504464FF090404FF4805102F074FCCF
:104D50004FF090404FF4005102F070FC204601F0FB
:104D6000C3FB4FF090404FF48051BDE8104002F07B
:104D700065BC704710B50C480C4CC188A4F8601095
:104D80000189A4F862104189A4F86610808937214E
:104D9000A4F868002046FFF759F9A4F86E00BDE8B2
:104DA0001040FEF735B900BF880400203807002006
:104DB00080B54FF09040012102F06AFC0A490B884F
:104DC00048B10020632B88BF0120DB0800227C2B28
:104DD00088BF022006E04FF47A720020B3F57A7F94
:104DE00038BF5A1C0A8080BDDA04002080B54FF01D
:104DF0009040022102F04CFC0A490B8848B1002087
:104E0000632B88BF0120DB0800227C2B88BF022097
:104E100006E04FF47A720020B3F57A7F38BF5A1C4F
:104E20000A8080BDDC040020024803A12022FEF796
:104E30000BB800BFBA0700202055494D6574657254
:104E40002056342E30202020206279204543484FC0
:104E50002053747564696F2000000000F8B5134D8D
:104E6000134C144F284621462022B84705F1200054
:104E700011A12022B847194E05F135011520B04780
:104E800005F138010C20B04705F13B010E20B04779
:104E900005F1400012A12022B84705F1600021462B
:104EA00020223B4601B0BDE8F040184752000020E8
:104EB000D6E90008492E00082055494D65746572F1
:104EC0002056342E30202020204657207631392E8F
:104ED00031322E32322020200000000039510008EB
:104EE000206279204543484F2053747564696F20D0
:104EF00020202020202020202020202020202020B2
:104F00000000000010B5B0F1FF3F36DD834A90424B
:104F10003BDC2E224A700A22B0FBF2F303EB83043F
:104F2000A0EB440444F030044C719CB2B4FBF2F4A6
:104F300004EB8404A3EB440343F030030B716423BC
:104F4000B0FBF3F39CB2B4FBF2F404EB8404A3EBE8
:104F5000440343F03003CB704FF47A73B0FBF3F3A8
:104F6000DCB2B4FBF2F404EB8404A3EB440343F09F
:104F700030038B7042F21073BBE04FF03030C1F859
:104F8000020042F63060088010BD654A904238DC6D
:104F90002E228A700A22B0FBF2F3B3FBF2F404EB88
:104FA0008404A3EB440343F030034B716423B0FB50
:104FB000F3F39CB2B4FBF2F404EB8404A3EB4403DC
:104FC00043F030030B714FF47A73B0FBF3F39CB2F0
:104FD000B4FBF2F404EB8404A3EB440343F030038A
:104FE000CB7042F21073B0FBF3F3DCB2B4FBF2F41B
:104FF00004EB8404A3EB440343F030034B704B4BAE
:1050000077E0484A904239DC2E22CA706422B0FB15
:10501000F2F30A22B3FBF2F404EB8404A3EB44039F
:1050200043F030034B714FF47A73B0FBF3F39CB24F
:10503000B4FBF2F404EB8404A3EB440343F0300329
:105040000B7142F21073B0FBF3F39CB2B4FBF2F4B9
:1050500004EB8404A3EB440343F030038B70334B25
:10506000B0FBF3F3DCB2B4FBF2F404EB8404A3EB87
:10507000440343F030034B702D4B3AE02A4A9042F0
:1050800044DC2E220A714FF47A72B0FBF2F30A224A
:10509000B3FBF2F404EB8404A3EB440343F03003CA
:1050A0004B71224BB0FBF3F3B3FBF2F404EB84043B
:1050B000A3EB440343F030038B7042F21073B0FB58
:1050C000F3F39CB2B4FBF2F404EB8404A3EB4403CB
:1050D00043F03003CB70164BB0FBF3F3DCB2B4FB00
:1050E000F2F404EB8404A3EB440343F030034B706D
:1050F000104BB0FBF3F0C3B2B3FBF2F202EB82024F
:10510000A0EB420040F03000087010BD43F62E10B6
:1051100088804FF03930086010BD00BF9F860100C5
:105120003F420F007F969800FFE0F505A086010042
:1051300040420F008096980010B50A2290FBF2F3CF
:1051400003EB8304A0EB44003030487093FBF2F093
:1051500000EB8000A3EB40003030087010BD000071
:10516000B0B500283DD4E24A904278DC2E228A7005
:1051700020220A230A70B0FBF3F294B2B4FBF3F4DA
:1051800004EB8404A2EB440444F030044C71642426
:10519000B0FBF4F4A5B2B5FBF3F505EB8505A4EB84
:1051A000450444F030040C714FF47A74B0FBF4F40D
:1051B000E5B2B5FBF3F505EB8505A4EB450444F03A
:1051C0003004CC7042F21074B0FBF4F4E5B2B5FBDD
:1051D000F3F303EB8303A4EB430343F030034B707F
:1051E00018E22D220A70C34A9042C0F280802E221B
:1051F0008A706FF0090290FBF2F20A2392FBF3F43B
:1052000004EB8404A2EB440230324A716FF0630273
:1052100090FBF2F292FBF3F404EB8404A2EB440261
:1052200030320A71B44A90FBF2F292FBF3F404EBD1
:105230008404A2EB44023032CA70B04A90FBF2F20E
:1052400092FBF3F404EB8404A2EB440230324A7084
:1052500090FBF3F202EB8202C0EB42008EE1A84A1F
:1052600090427ADC2E220A238A70B0FBF3F2B2FB62
:10527000F3F404EB8404A2EB440444F030044C71D6
:105280006424B0FBF4F4A5B2B5FBF3F505EB85059A
:10529000A4EB450444F030040C714FF47A74B0FB75
:1052A000F4F4A5B2B5FBF3F505EB8505A4EB4504D5
:1052B00044F03004CC7042F21074B0FBF4F4E5B268
:1052C000B5FBF3F505EB8505A4EB450444F030048C
:1052D0004C70E74CB0FBF4F4E5B2B5FBF3F303EB31
:1052E0008303A4EB430343F030030B7092E1D54AF0
:1052F00090427DDB2E22CA706FF0630290FBF2F3C6
:105300000A2293FBF2F404EB8404A3EB440330334E
:105310004B71D34B90FBF3F393FBF2F404EB840457
:10532000A3EB440330330B71C94B90FBF3F393FBB6
:10533000F2F404EB8404A3EB440330338B70C54BCD
:1053400090FBF3F393FBF2F404EB8404A3EB44032C
:1053500030334B706FF0090308E1C24A90427DDCA4
:105360002E22CA706422B0FBF2F30A22B3FBF2F4DD
:1053700004EB8404A3EB440343F030034B714FF47C
:105380007A73B0FBF3F39CB2B4FBF2F404EB840445
:10539000A3EB440343F030030B7142F21073B0FBF4
:1053A000F3F39CB2B4FBF2F404EB8404A3EB4403E8
:1053B00043F030038B70E24BB0FBF3F3DCB2B4FB91
:1053C000F2F404EB8404A3EB440343F030034B708A
:1053D000DC4BB0FBF3F3B0FBF2F0DCB2B4FBF2F465
:1053E00004EB8404A3EB440343F030030B700FE1A0
:1053F000954A9042C0F286802E220A71984A90FB0C
:10540000F2F30A2293FBF2F404EB8404A3EB4403CB
:1054100030334B718E4B90FBF3F393FBF2F404EBC0
:105420008404A3EB44033033CB708A4B90FBF3F33B
:1054300093FBF2F404EB8404A3EB440330338B704E
:10544000854B90FBF3F393FBF2F404EB8404A3EBA2
:10545000440330334B706FF0630387E0824A90421D
:1054600000F38E802E220A714FF47A72B0FBF2F3B1
:105470000A22B3FBF2F404EB8404A3EB440343F0ED
:1054800030034B71AE4BB0FBF3F3B3FBF2F404EB20
:105490008404A3EB440343F030038B7042F2107397
:1054A000B0FBF3F39CB2B4FBF2F404EB8404A3EB83
:1054B000440343F03003CB70A24BB0FBF3F3DCB2F8
:1054C000B4FBF2F404EB8404A3EB440343F0300395
:1054D0004B70694BB0FBF3F3DCB2B4FBF2F404EBBA
:1054E0008404A3EB440343F030030B7064238DE08A
:1054F0009F8601006179FEFF18FCFFFFF0D8FFFFD7
:105500003F420F00514A9042C0F28C802E224A71D5
:105510004F4A90FBF2F30A2293FBF2F404EB84046B
:10552000A3EB440330330B714A4B90FBF3F393FB33
:10553000F2F404EB8404A3EB44033033CB70464B0A
:1055400090FBF3F393FBF2F404EB8404A3EB44032A
:1055500030338B70414B90FBF3F393FBF2F404EB8D
:105560008404A3EB440330334B703D4B90FBF3F0CA
:1055700090FBF2F202EB8202A0EB420030304FE0EF
:105580003A4A904255DC2E224A7142F21072B0FB28
:10559000F2F30A22B3FBF2F404EB8404A3EB44031A
:1055A00043F030030B71664BB0FBF3F3B3FBF2F443
:1055B00004EB8404A3EB440343F03003CB70614B52
:1055C000B0FBF3F3B3FBF2F404EB8404A3EB44036A
:1055D00043F030038B70274BB0FBF3F3B3FBF2F4D3
:1055E00004EB8404A3EB440343F030030B70224B21
:1055F000B0FBF3F3DCB2B4FBF2F404EB8404A3EBF2
:10560000440343F030034B704FF47A73B0FBF3F074
:10561000B0FBF2F202EB8202A0EB420040F030005D
:105620008871B0BD2E2048714FF03930C1F80100AB
:1056300005E04FF03930086042F639608880392043
:10564000EEE700BFC1BDF0FF816967FF011F0AFAE5
:10565000F0D8FFFF6079FEFFC0BDF0FF806967FFF3
:1056600018FCFFFF7F969800FFE0F505FFC99A3B05
:10567000A086010000E1F50580969800B0B52E22C5
:105680008A700028024600D542420A23B2FBF3F496
:10569000002804EB8405A2EB450545F03005CD71EB
:1056A000B4FBF3F505EB8505A4EB450444F03004A9
:1056B0008C714FF06404B2FBF4F4B4FBF3F505EB2A
:1056C0008505A4EB450444F030044C714FF47A7422
:1056D000B2FBF4F4B4FBF3F505EB8505A4EB45044C
:1056E00044F030040C7142F21074B2FBF4F4B4FBD9
:1056F000F3F505EB8505A4EB450444F03004CC70CC
:10570000D64CB2FBF4F4B4FBF3F505EB8505A4EB42
:10571000450444F030044C700A4CB2FBF4F2B2FB86
:10572000F3F303EB8303A2EB430242F030020A706F
:1057300003D4302A03D1202000E02D200870B0BD12
:10574000A086010040420F0070B500EBE03282EA13
:10575000E03213B20A2493FBF4F505EB8506A2EBC5
:10576000460230328A7095FBF4F202EB8202A5EB1E
:10577000420230324A70642293FBF2F292FBF4F35D
:1057800003EB8303A2EB430230320A700022202392
:10579000022A05D08C5C302C04D18B540132F7E7FF
:1057A000002303E0D3B2B3FA83F35B09B0F1FF3F08
:1057B00004DC1BB988182D2100F8011C70BDF0B560
:1057C0002E23CB7000EBE03383EAE0331CB20A25D2
:1057D00094FBF5F606EB8607A3EB470330330B711A
:1057E00096FBF5F303EB8303A6EB430330338B7097
:1057F000642394FBF3F393FBF5F606EB8606A3EB29
:10580000460330334B704FF47A7394FBF3F393FBFE
:10581000F5F404EB8404A3EB440303F13005002307
:1058200020240D70042B0BD0EDB2302D08D13AB1ED
:10583000CD186D782E2D03D05E1CCC543346F1E785
:10584000B0F1FF3F05DC18061EBFC8182D2100F877
:10585000011CF0BD70B500EBE03282EAE03213B219
:105860000A2493FBF4F505EB8506A2EB46023032E1
:10587000CA7095FBF4F202EB8202A5EB42023032D1
:105880008A70642293FBF2F292FBF4F505EB850536
:10589000A2EB450230324A704FF47A7293FBF2F277
:1058A00092FBF4F303EB8303A2EB430230320A7062
:1058B00000222023032A05D08C5C302C04D18B5489
:1058C0000132F7E7002303E0D3B2B3FA83F35B09B5
:1058D000B0F1FF3F04DC1BB988182D2100F8011C32
:1058E00070BD0028034600D5434270B50A24B3FBBF
:1058F000F4F505EB8506A3EB460646F030060E717F
:10590000B5FBF4F606EB8606A5EB460545F030053B
:10591000CD706425B3FBF5F5B5FBF4F606EB860612
:10592000A5EB460545F030058D704FF47A75B3FB55
:10593000F5F5B5FBF4F606EB8606A5EB460545F056
:1059400030054D7042F21075B3FBF5F3B3FBF4F480
:1059500004EB8404A3EB440343F030030B700023F7
:105960002024042B06D03AB1CD5C302D04D1CC5488
:105970000133F6E7002203E0DAB2B2FA82F252090A
:10598000B0F1FF3F04DC1AB9C8182D2100F8011C42
:1059900070BD00000028024600D54242B0B50A237F
:1059A000B2FBF3F404EB8405A2EB450545F03005AA
:1059B0004D71B4FBF3F505EB8505A4EB450444F00C
:1059C00030040C716424B2FBF4F4B4FBF3F505EB82
:1059D0008505A4EB450444F03004CC704FF47A7490
:1059E000B2FBF4F4B4FBF3F505EB8505A4EB450439
:1059F00044F030048C7042F21074B2FBF4F4B4FB47
:105A0000F3F505EB8505A4EB450444F030044C7038
:105A1000894CB2FBF4F2B2FBF3F303EB8303A2EB8A
:105A2000430242F030020A7000222023052A05D0EA
:105A30008C5C302C04D18B540132F7E7002303E057
:105A4000D3B2B3FA83F35B09B0F1FF3F04DC1BB9B7
:105A500088182D2100F8011CB0BD00BFA0860100F0
:105A60000028024600D54242B0B50A23B2FBF3F447
:105A700004EB8405A2EB450545F030058D71B4FBC0
:105A8000F3F505EB8505A4EB450444F030044C71B7
:105A90006424B2FBF4F4B4FBF3F505EB8505A4EB49
:105AA000450444F030040C714FF47A74B2FBF4F402
:105AB000B4FBF3F505EB8505A4EB450444F0300495
:105AC000CC7042F21074B2FBF4F4B4FBF3F505EBC6
:105AD0008505A4EB450444F030048C70564CB2FBB1
:105AE000F4F4B4FBF3F505EB8505A4EB450444F0B1
:105AF00030044C70514CB2FBF4F2B2FBF3F303EB05
:105B00008303A2EB430242F030020A7000222023FA
:105B1000062A05D08C5C302C04D18B540132F7E777
:105B2000002303E0D3B2B3FA83F35B09B0F1FF3F84
:105B300004DC1BB988182D2100F8011CB0BD00BF82
:105B40000028024600D54242B0B50A23B2FBF3F466
:105B500004EB8405A2EB450545F03005CD71B4FB9F
:105B6000F3F505EB8505A4EB450444F030048C7196
:105B70006424B2FBF4F4B4FBF3F505EB8505A4EB68
:105B8000450444F030044C714FF47A74B2FBF4F4E1
:105B9000B4FBF3F505EB8505A4EB450444F03004B4
:105BA0000C7142F21074B2FBF4F4B4FBF3F505EBA4
:105BB0008505A4EB450444F03004CC701E4CB2FBC8
:105BC000F4F4B4FBF3F505EB8505A4EB450444F0D0
:105BD00030048C70194CB2FBF4F4B4FBF3F505EB14
:105BE0008505A4EB450444F030044C70144CB2FB22
:105BF000F4F2D4B2B4FBF3F303EB8303A2EB43025E
:105C000042F030020A7000222023072A05D08C5C63
:105C1000302C04D18B540132F7E7002303E0D3B2D8
:105C2000B3FA83F35B09B0F1FF3F04DC1BB98818BA
:105C30002D2100F8011CB0BDA086010040420F00DC
:105C40008096980010B51A4B020B1C68A25C0A7073
:105C5000C0F303221C68A25C4A70C0F303121C68E4
:105C600000F00F00A25C8A701A68105CC87010BD4A
:105C700010B50F4BC0F303521C68A25C0A70C0F34E
:105C800003421C68A25C4A70C0F303321C68A25C29
:105C90008A70C0F303221C68A25CCA70C0F30312AE
:105CA0001B6800F00F009A5C0A71185C487110BD07
:105CB000D400002070B50446774D15202146A84732
:105CC0002E26E11C0C20A670A847A11D0E2066718F
:105CD000A847074E08340025062D08BF70BD36F8CA
:105CE00015002146FFF7AEFF04340135F4E700BF8D
:105CF000ACF7FF1F10B50AA120220446FDF7A4F857
:105D0000974804F10901406DFFF744FE8D4804F106
:105D10001B01408D000ABDE81040FFF715BD00BF14
:105D2000204C6F67436E743A2020202020203020C2
:105D300020496E74657276616C3A202020317320A0
:105D400000000000B0B517A120220446FDF77CF842
:105D50007C481D49008D0522C0F3811080F00200AF
:105D600051F82010601CFDF76FF87D4DA11D286AC9
:105D7000FFF776FEB5F9100004F110010122FFF7DC
:105D80001EFDB5F9140004F118010122FFF717FDFB
:105D900028787F21002808BF6FF0200161776175A6
:105DA000B0BD00BF20545950454B2020202020205A
:105DB000307556202032302E306F43202032302E66
:105DC000306F43200000000008D60008F8B528A175
:105DD00020220446FDF738F8614D2146686BFFF735
:105DE000BFF9A86B04F11001FFF7BAF9554D294925
:105DF000288D294FC0071EBF6D20A071A075286B8C
:105E000090FBF1F0642190FBF1F202FB110004F130
:105E10000A0100B2B847286B4FF4616190FBF1F0C2
:105E2000182190FBF1F101EB4101A0EBC10000B2A0
:105E300004F10D01B847286B3C2690FBF6F090FB6F
:105E4000F6F1C1EB0111A0EB810000B204F11A01DF
:105E5000B847286B3A4690FBF6F1C1EB0111A0EB75
:105E6000810000B204F11D01BDE8F840104700BFF9
:105E700020302E303030304168203030643030688F
:105E800020302E3030303057682030306D30307355
:105E900000000000805101003951000870B51FA1B9
:105EA00020220446FCF7D0FF25492D4DB1F84410BF
:105EB00005F1300001318EB2022E38BF05F1280005
:105EC00000682146FFF74CF94120022E38BF5620CA
:105ED000E071E86A04F11001FFF742F9686C04F11F
:105EE0000901FFF70FF8A86C04F11901FFF70AF890
:105EF0001448018DC9071EBF6D21A173A175008DC6
:105F0000C00707D129786FF07F00002908BF6FF024
:105F10000B0000E06B20E07770BD00BF20302E301A
:105F20003030305620302E303030305720302E3048
:105F30003030304120393939392E395200000000D3
:105F4000380700206804002080B50548816F0131C2
:105F5000816706F079FCBDE8804006F0F5BF00BF20
:105F6000EC030020FFF7F0BF1648016801F00C02B7
:105F70001549082A1AD1026803681B014FF0110362
:105F800058BF0223C2F383421A44836A002B48BFDE
:105F90001F320368DB0302D40C49514306E0836AD5
:105FA00003F00F030133B1FBF3F15143084A09A396
:105FB00011600068C0F30310185C21FA00F0106053
:105FC000704700BF0410024000127A0000093D0033
:105FD0001000002000000000000000000102030487
:105FE0000607080952485349534A0160026041605C
:105FF0004260C16841F02001C160C16841F04001C8
:10600000C1608168C907FCD1C16821F02001C1606D
:10601000C16841F01001C1608269484912F0060F61
:1060200006D0826902F00602022A03D1BB2207E0F1
:10603000A52205E0826902F00602062A01D1CC22DF
:106040000A808269DF2303EA12224A808269C2F34E
:1060500007428A808269120ECA80C269D2B20A815E
:10606000C26992B2120A4A81C16821F01001C1606E
:106070003348016841F4700101603248016841F021
:106080000101016001688907FCD541682E4A114071
:10609000416041682D4A1140416001682C4A11401D
:1060A0000160C16A2B4A1140C162016B40F20312C8
:1060B00091430163016B21F480310163016B21F095
:1060C00000410163416B21F001014163D0F8C01030
:1060D00021F48031C0F8C01000218160C0F8CC10DC
:1060E000016841F48031016040F2FF714A1E03688B
:1060F0008A4203D213F400311146F7D001688903B4
:1061000010D5416841604168416041684160416823
:1061100021F003014160416841F0010141604168A3
:106120004907FCD54FF000604FF4005103F054BD17
:106130000420024023016745AB89EFCD00F8FF1F23
:1061400088ED00E0001002400C00FF08FFFFC2775E
:10615000FFFFF2FEF0FFFF3F2DE9F041214A856885
:106160004FF0160C4FF0000E90465FEA0C6608BF29
:10617000BDE8F081C644ACF1010CCEF381060027E6
:106180004246022F19D000EB870487EA06036468B1
:1061900051F8233084EA0E026B401A44E308A4004D
:1061A00083EA051384EA551423445A4050F82730F3
:1061B000D51840F827500137E3E786F00206026859
:1061C00051F8266082EA0E046E403444D6089200EC
:1061D00086EA051682EA5512836832446240D51871
:1061E0008560C2E7B979379E70B5044600200D4638
:1061F000A4F84601FBF7C8FF0068405D10F03E0FB1
:1062000013D0012084F84450A4F84601B4F84A6140
:106210003F2E00F299802846FBF7BAFF711CA4F8C4
:106220004A11A11981F8C4008EE0A5F108000828E0
:1062300018D8DFE800F005258925253825258900AF
:106240000320A4F8460142F20800A4F84400082004
:1062500084F84600B4F84A01002875D00138A4F843
:106260004A0171E0032D6FD01B2D4AD01D2D07D19F
:10627000B4F84C01411C0AB2012AC8BF411E47E0D4
:106280004349280909680122085CA4F8462184F8DA
:10629000440005F00F00085C84F84500202084F8D5
:1062A000460003204EE00220A4F8460140F60D20EF
:1062B000A4F84400B4F84A013F2860D804F1C401AE
:1062C00000220A544FF0FF302060A4F84A21B4F9AC
:1062D0004C0100EBD07222F00102801A2B4AA4F884
:1062E0004C0102EBC0108022FBF78EFFB4F94C0189
:1062F000013000EBD07121F00101401AA4F84C01EB
:1063000022E0B4F84C01411E0AB2002A48BF411CE9
:106310001E4D08B2A4F84C1105EBC01104F1C400E5
:106320008022FBF771FFFBF785FFA4F84A01B4F95F
:106330004C01802205EBC01104F14400FBF764FF1F
:10634000FBF778FFA4F84601B4F84601CA4900F00B
:106350003F00A4F84601C988C9070ED00025E9B25C
:1063600080B2884209D954FA85F090F8440006F0CA
:1063700029FFB4F846010135F1E7FF2070BD002088
:10638000A4F84A0184F80301DEE700BFE604002018
:10639000D4000020B0B590B0022000F0F5FF4FF41B
:1063A00000506E4C0890002540F201100795ADF8A2
:1063B000180004F10C00CDE904558DF80C5002953D
:1063C000019001A9022001F00BF803200F95CDE9FF
:1063D0000D504FF40070CDE90B504FF440400A903F
:1063E0004FF48270099009A9204603F0ECFE204684
:1063F00003F0DAFE10B0B0BDBCB50C46014600207B
:10640000ADF80600022001F02BF80220214601F031
:1064100045F8524C0021204603F0BEFE022000F059
:10642000A9FF4FF0FF304FF6FF75ADF806000220D0
:10643000022100F0C9FF60B9BDF806000138ADF8CF
:106440000600BDF806000028F1D145480168013179
:106450000160ADF806502046802103F0AFFE012810
:106460000CD1BDF806000138ADF80600BDF80600F5
:106470000028F0D13A48016801310160022000F0A3
:106480006FFF2046002103F07DFE02200221BDE8BF
:10649000BC4000F08FBF00BF10B5124C0221204657
:1064A0000222082301F0F9F82046022102222023CB
:1064B00001F0F3F8204600210322082301F014F92B
:1064C000204600210322202301F00EF9204600215E
:1064D000082201F081F8204600212022BDE810406A
:1064E00001F07AB8000400487CB5054600201B4C3A
:1064F000ADF806004FF0FF304FF6FF76ADF806001E
:106500002046022103F05AFE60B9BDF806000138AA
:10651000ADF80600BDF806000028F1D1104801686A
:10652000013101602046294603F046FEADF80660C1
:106530002046802103F042FE01280CD1BDF8060060
:106540000138ADF80600BDF806000028F0D1044877
:106550000168013101604FF6FF707CBD00300140E1
:10656000E0040020B0B588B0184C204605F0AEFD20
:10657000FF200690E9200490002504A920468DF80C
:106580001C50059505F0DCFD4FF08070ADF80C5007
:1065900002900F486A460190012000902046002199
:1065A00005F076FC20460021002205F088FD2046FB
:1065B0000021702205F068FD2046012105F018FE3B
:1065C000204605F0B7FD08B0B0BD00BF002C01406B
:1065D0000400020070B504460120FDF745F90120D2
:1065E0009121FDF703F908B1022070BD0120FDF7EC
:1065F000B5F805460120FDF76DF80120FDF7AEF86E
:1066000006460120FDF788F80120FDF757F914B17F
:1066100046EA05202080002070BD0000064A0021C7
:106620000C2905D052F82130834202D90131F7E715
:106630000C21C8B2704700BFA8E100080D480168EE
:10664000090703D5416841F00801416001688906E6
:106650000BD5094980680989C1F30111012905D0C9
:1066600019B9C1B20648FDF72FBD7047C1B2034842
:10667000FFF7BABD1C38014088040020E80500205F
:106680005C0B0020B0B5144C0546204606F0D6FD44
:106690002046294606F0ACFD2046002106F0F7FD15
:1066A0002046002106F01BFE2046002106F003FED6
:1066B0002046042106F0F7FD2046082106F007FEDB
:1066C0002046052106F0D9FD204606F0D1FD0348FD
:1066D00003490160B0BD00BF003801403403002011
:1066E000C5D1000870B5984D95F82000122800F229
:1066F0002281DFE810F0130018001D00220027009F
:1067000020012001200120012C00450060007300C1
:1067100083009500A800D600E3000C018B48BDE87B
:106720007040FFF7BBBB8948BDE87040FFF74EBB28
:106730008648BDE87040FFF7DDBA8448BDE8704088
:10674000FFF700BB8148BDE87040FFF7B3BA7F4C4C
:10675000A54920462022FCF777FB864D2146A86AF2
:10676000FEF7FEFCE86A04F11001FEF7F9FC687818
:10677000C0071ED0A86E04F10801FEF77FFF18E0E5
:10678000724C984920462022FCF75EFB794D214649
:10679000A86AFEF7E5FCE86A04F11001FEF7E0FCE8
:1067A000A86E04F10801FEF769FF6878C00700F0E1
:1067B000C280E86E0CE0654C894920462022FCF737
:1067C00043FB6C484078C00700F0B58081484068C2
:1067D00004F11801BDE87040FEF750BF5B4C7F49E3
:1067E00020462022FCF730FB624D6878C00715D0A8
:1067F000286F04F10801FEF7B3FC0FE0534C764913
:1068000020462022FCF720FB5A4D04F10801286F96
:10681000FEF7A6FC6878C00700F08D80686F0CE07A
:106820004A4C63A120462022FCF70EFB51484078D9
:10683000C00700F080806748006804F11801BDE8D7
:106840007040FEF78DBC414C684920462022FCF781
:10685000FBFA484E7078C0070CD0288D6449C0F30D
:10686000811080F0020051F8201004F10900052287
:10687000FCF7EAFAB6F9100004F110010122FEF764
:106880009EFFB6F9140004F118010122FEF797FFEC
:1068900030787F21002808BF6FF020016177617593
:1068A00070BD2A4C0026082E45D005EB4600008A14
:1068B0002146FFF7C7F904340136F4E7234C2EA133
:1068C00020462022FCF7C0FA288D3449C0F301107D
:1068D000334A012808BF0A463249002818BF11462A
:1068E000E01D0722FCF7B0FA288D10F0300F06D11A
:1068F0002D4804F10D01B0F96400FEF725FF2B4887
:106900000068A98DC1F30311405C207770BD0F4C66
:106910000FA120462022FCF797FA688D4FF44061C2
:1069200001EA001004F10A010122FEF7DAFF114822
:106930004078C00700D170BD688D04F11B01000ACA
:10694000BDE87040FEF700BF68040020BA070020D1
:106950004C6F674D61783A20202020343039362042
:10696000496E74657276616C3A2020202020732075
:1069700000000000EC03002020554152543A2054FE
:1069800045524D2020202020204261636B4C6967D6
:1069900068743A20302020200000000039EA000806
:1069A0009DEA000862EA000838070020D4000020B1
:1069B00055204D696E204D61782053657475702E99
:1069C000536574537465703A20202020202020568F
:1069D0000000000008000020ABEA0008CCEA000834
:1069E000F7E9000818EA00086AEA000841EA000826
:1069F00008D600082DE9F041874E96F820000728B8
:106A000016D006286BD0052840F00381834C204621
:106A1000FFF744FA04F12000FFF7D8F904F1400031
:106A2000FFF790F904F16000BDE8F041FFF762B9AB
:106A30007A4C844D7AA120462022A847824F04F147
:106A40000801386FFEF78CFB786F04F11801FEF730
:106A500087FB04F120007DA12022A847B86E04F135
:106A60002801FEF70BFEF86E04F13801FEF706FE72
:106A700004F140007EA12022A847308D8549C0F353
:106A80000110854A012808BF0A468449002818BF1A
:106A9000114604F145000322A847814804F14D0145
:106AA000B0F96400FEF750FE708D4FF4406101EACA
:106AB000001004F15501FEF7CDFEB08D7948006855
:106AC000017884F85E10B18DC1F30311405C84F845
:106AD0005F0004F16000BDE8F041FFF7EBB8724CD5
:106AE00072A104F1100528460822FCF7ADF96C49A3
:106AF000DFF85481B1F8441008F1300001318FB251
:106B0000022F38BF08F1280000682946FEF728FB4D
:106B10004120022F38BF562004F11805E07566A108
:106B200028460822FCF790F9D8F82C002946FEF7F1
:106B300017FB308D04F12005C0071CBF6D20A07726
:106B400060A128460822FCF77FF9D8F844002946BE
:106B5000FEF706FB308D5E49C0071CBF6D2084F830
:106B6000260020461022FCF76FF9306B594990FB44
:106B7000F1F0642190FBF1F202FB1100214600B21A
:106B8000FEF7DAFA306B4FF4616190FBF1F01821F7
:106B900090FBF1F101EB4101A0EBC10000B2E11C5F
:106BA000FEF7CAFAD8F83400E11DFEF7D9FA308DA5
:106BB00004F12805C0071CBF6D20607346492846B4
:106BC0001022FCF741F9306B3C2790FBF7F090FB6B
:106BD000F7F1C1EB0111A0EB810000B22946FEF7ED
:106BE000ABFA306B90FBF7F1C1EB0111A0EB810028
:106BF00000B204F12B01FEF79FFAD8F8380004F137
:106C00002F01FEF7ADFA308DC0071CBF6D2084F850
:106C10003500BDE8F08100BF68040020520000206C
:106C200055204D61783A202032302E3030303056A9
:106C300055204D696E3A202020302E3030303056AD
:106C400000000000492E0008EC030020552041649C
:106C50006A3A202020312E303030303049204164D3
:106C60006A3A202020312E303030303000000000D1
:106C7000554152543A202020204144523A202020AD
:106C80004C4F474D3A2020202020424C3A202020D3
:106C90000000000039EA00089DEA000862EA0008E6
:106CA00038070020D40000201A00002020302E30A9
:106CB000303030560000000020302E30303030416F
:106CC0000000000020302E3030303057000000002F
:106CD000EDEA000880510100FEEA00082848B0F8FB
:106CE0007600A0F110018AB2120942EA013189B29C
:106CF000072905D8012202FA01F111F08B0F01D109
:106D00000448008804490880800200F1006048605F
:106D1000704700BFE0F7FF1F8C0300200B4A1849A3
:106D2000127802F0030201F11000DFE802F0020520
:106D3000080A01F11C0004E001F1180001E001F172
:106D400014001049C96E0160704700BF580B002045
:106D50000A48007800F003010948DFE801F0020565
:106D6000080A07480C3004E00548083001E00448F0
:106D700004300449896E0160704700BF590B002040
:106D800038070020EC030020FEE70000F8B50D46B0
:106D9000064600F0C5F9EB4C4FF48051204600F058
:106DA0004BFC974F0120B8473046B8472846B847B4
:106DB00020464FF48051BDE8F84000F03FBC00BFD2
:106DC00010B500F0ADF900F08DF9DE4C4FF48051B4
:106DD000204600F031FCC720FDF7AEFD20464FF401
:106DE000805100F02BFC00F089F9BDE8104000F064
:106DF00079B900BF1CB520218DF804108DF807006B
:106E0000010A000C8DF806108DF8050000F088F9D5
:106E100000F068F9F14C4FF48051204600F00CFC72
:106E200001A80421FDF70CFD20464FF4805100F02D
:106E300005FC00F063F900F055F91CBD1CB5D82124
:106E40008DF804108DF80700010A000C8DF806106B
:106E50008DF8050000F064F900F044F9DF4C4FF4C0
:106E60008051204600F0E8FB01A80421FDF7E8FC72
:106E700020464FF4805100F0E1FB00F03FF900F0B4
:106E800031F91CBDB0B5D54C2E4D20464FF4806174
:106E9000A84720464FF40061A84720464FF4805190
:106EA000A84700F08FF8284ADC4983184FF4007295
:106EB000032B48602AD9254B0344032B2AD9244BA2
:106EC0000344032B2AD9234B0344032B2AD9224BF7
:106ED000984231D0214B98422BD0214B984225D05B
:106EE000204B984222D0204B984225D01F4B9842ED
:106EF0001FD01F4B984221D01E4B984216D01E4BDC
:106F000098421BD01D4A904210D018E0DFE803F0F1
:106F1000160E1411DFE803F0120A100DDFE803F07B
:106F20000E060C09DFE803F00A0208054FF4806240
:106F300004E04FF4805201E04FF400620A80002028
:106F4000B0BD00BF3D760008EBBF97FFEBDF3DFF14
:106F5000EBBF37FFEBBF10FF17301C0018301C00D1
:106F600016331C0016701C0017701C0018701C00D3
:106F70001520200016409D0015409D001620200081
:106F80007CB5064603208DF80400080AC34C8DF832
:106F900007108DF80600080C8DF8050020464FF408
:106FA0008051154600F048FB01A80421FDF748FC7C
:106FB00030462946FDF7C8FB20464FF4805100F0CB
:106FC0003DFB7CBDF8B5B54C4FF48051204600F038
:106FD00033FB0B4F9F20B847FF20B8470546FF20E3
:106FE000B8470646FF20B847074620464FF4805171
:106FF00000F024FB300240EA05403843F8BD00BFF2
:10700000394900087CB50646FF208DF807000020AE
:10701000A24C8DF806108DF805005A20ADF803003B
:1070200020464FF48051154600F006FB0DF1030099
:107030000521FDF705FC30462946FDF785FB204676
:107040004FF4805100F0FAFA00207CBDB0B5934CAB
:107050004FF48051204600F0EFFA0520FDF76CFC5C
:10706000FF20FDF769FC054620464FF4805100F0F3
:10707000E5FAE8B2B0BD00BFB0B5884C4FF480511E
:10708000204600F0D9FA3520FDF756FCFF20FDF729
:1070900053FC054620464FF4805100F0CFFAE8B289
:1070A000B0BD00BF7CB50646FF207C4C8DF80700C4
:1070B0004B200D46CDF8030020464FF4805100F0E0
:1070C000BBFA0DF103000521FDF7BAFB3046294656
:1070D000FDF73AFB20464FF4805100F0AFFA002054
:1070E0007CBD00BFB0B59D4C4AF6AA25FFF7AEFFA8
:1070F000C00708BFB0BD2560F8E700BF10B5674CFA
:107100004FF48051204600F097FA0420FDF714FC5C
:1071100020464FF48051BDE8104000F08FBA00BF08
:1071200010B55E4C4FF48051204600F085FA0620E1
:10713000FDF702FC20464FF48051BDE8104000F0FE
:107140007DBA00BF000400482DE9F04106464842E0
:1071500015468846C4B2944228BF1446A7B23046AA
:1071600041463A4600F010F8A8B2B84208BFBDE860
:10717000F0812D1BA8B22C46B0F5807F28BF4FF4BC
:107180008074B8443E44E9E77CB5064602208DF899
:107190000400080A8DF807108DF80600080C154643
:1071A0008DF80500FFF7BCFFFFF79CFF3B4C4FF449
:1071B0008051204600F040FA01A80421FDF740FB71
:1071C00030462946FDF73CFB20464FF4805100F045
:1071D00035FAFFF793FFFFF785FF7CBD00040048F9
:1071E000B0B50546FFF732FF0446FFF745FF40F014
:1071F0000201002D08BF00F0FD010848084A406860
:10720000904203D12046FFF7C1FD02E0084600F09E
:1072100027F8BDE8B040FFF72FBF00BF38030020BC
:107220001740EF00B0B50446FFF77AFFFFF75AFFAB
:107230001A4D4FF48051284600F0FEF90120FDF769
:107240007BFB2046FDF778FB28464FF4805100F089
:10725000F5F9FFF753FFBDE8B040FFF743BF00BFAC
:10726000B0B50446FFF75CFFFFF73CFF0B4D4FF452
:107270008051284600F0E0F93120FDF75DFB204603
:10728000FDF75AFB28464FF4805100F0D7F9FFF77D
:1072900035FFBDE8B040FFF725BF00BF0004004840
:1072A00080B540F63540052100F070F9C8484CF62D
:1072B000CC41016080BD00BF0D48BFF34F8F0D4A28
:1072C000016801F4E06111430160BFF34F8F00BF1B
:1072D000FDE700BF0648BFF34F8F064A016801F47F
:1072E000E06111430160BFF34F8F00BFFDE700BFB6
:1072F0000CED00E00400FA0580B5B54A4AF6AA2371
:107300001360C0694843FFF775FD002080BD00BFD2
:10731000B0B5AF4C4AF6AA252560C06900FB012133
:10732000BDF810201846FFF70FFF0020B0BD00BFCA
:10733000B0B5A74C4AF6AA252560C06900FB01211B
:10734000BDF810201846FFF71BFE0020B0BD00BF9F
:107350009F484AF6AA210160002070470030004093
:107360004D4900EB800051F8202022F0010241F845
:1073700020207047484900EB800051F8202042F05F
:10738000010241F8202070470E4A00EB800102EB19
:1073900081014B68800023F001034B6000234B60A8
:1073A0008B60CB600B610F2101FA00F0116808437C
:1073B00010607047800001FA00F002490A6810432B
:1073C0000860704704000240800001FA00F00349A1
:1073D0000968084018BF0120704700BF0000024044
:1073E00070B52D4A00EB800052F8203023F00103E5
:1073F00042F820300C6802EB80039C60CC68DC60B3
:107400000C8B5C6052F820304C6823F47C530D697F
:10741000CE6923432B43334342F8203052F82030C7
:107420000D7A23F040040E7D012D08BF43F0400487
:1074300042F8204052F82030012E23F0800408BF8B
:1074400043F0800442F8204052F82030497D43F058
:107450001004002908BF23F0100442F8204070BD3A
:10746000024A00EB800042F82010704714000240EE
:10747000094900EB800051F8202022F0800241F8F9
:1074800020207047044900EB800051F8202042F092
:10749000800241F82020704708000240034A00EBB8
:1074A000800089B242F82010704700BF0C000240F3
:1074B0003548016841F0800101607047B0B504466D
:1074C0004FF4702000F016F800B1B0BD2E4D2868C2
:1074D00040F0020028606C60286840F0400028609E
:1074E0004FF4702000F006F8296821F002012960AD
:1074F000B0BD00BF70B5441E0025013C45F100063B
:1075000000F008F8012801D1002EF6D1012808BFAB
:10751000042070BD07480168C9071CBF01207047DF
:107520000168C9064FBF03200068022101EA50002C
:10753000704700BF0C2002400448C168090603D50B
:107540000349016003490160704700BF0420024005
:1075500023016745AB89EFCD70B505464FF4702028
:107560000C46FFF7C7FF00B170BD074E306840F012
:10757000010030604FF470202C60FFF7BBFF3168D2
:1075800021F00101316070BD10200240B0B5104AF9
:1075900045F2555313600F4B1C46D56805F00105A5
:1075A00014B10134002DF8D145B95160D16801F012
:1075B000020113B101330029F8D109B10020B0BD97
:1075C0006FF31F3090604AF6AA2010600120B0BD12
:1075D000003000400200F0FFF0B5D0F820E0446A2F
:1075E00000254FF00F0C0027082F0ED022FA07F6C7
:1075F000F60707D00CFA05F301FA05F62EEA0303A5
:1076000043EA060E04350137EEE7082500264FF061
:107610000F0C102D0CD022FA05F3DB0705D00CFA65
:1076200006F701FA06F3BC431C4304360135F0E7C4
:10763000C0F820E04462F0BD81627047816170470C
:107640001823002A08BF28231950704710B500F1ED
:1076500038404FEAB02005280FD840F61124DFE863
:1076600000F00F0306090C0D40F6122408E040F666
:10767000132405E040F6142402E010BD40F6162461
:10768000204602F063FC2046BDE8104002F052BCE8
:107690000069084018BF012070472DE9F043D0F879
:1076A00000E0D0F80C8000264FF0030C0027102FCC
:1076B00014D023FA07F4E4070DD00CFA06F502FA09
:1076C00006F928EA050444EA090801FA06F42EEA54
:1076D000050545EA040E02360137E8E7C0F800E088
:1076E000C0F80C80BDE8F083F0B50129416814BFF3
:1076F00099431943416081684FF6FF74A24212D149
:10770000C26B002401254FF0030C0027102F1DD061
:1077100005FA07F61E421EBF32430CFA04F6314347
:1077200002340137F2E700244FF0030C0026102E3C
:107730000FD023FA06F7FF0705D00CFA04F502FA7A
:1077400004F7A943394302340136F0E78160C2638C
:10775000F0BD8160F0BD00000348006810F0060035
:1077600018BF4FF0FF3070471C2002402DE9F04158
:10777000314E0D4604464FF00008D4E90C129142F8
:1077800010D0531C6363D4E90E70013FA7635709FF
:1077900050F8277002F01F0227FA02F2D2071A46A9
:1077A000EDD11EE0E06AA36B4218DBB3C4F834806D
:1077B0002168E06BD1E90871994238BF0B46236319
:1077C000B2FBF7F3C90803FB1722E262FAF7FFFCEA
:1077D00020463146224601F0F5FF0028CDD0BDE815
:1077E000F0812168E26A096A1A44013AB2FBF1F3B6
:1077F00003FB11212960D4E90C1204E00132626319
:10780000A36B013BA36391421FBF530950F8233080
:1078100002F01F05EB4018BF5FEAC373EED10020F2
:10782000BDE8F08105A04FF49D7105F064FD6FF097
:107830001B00BDE8F08100BF617800086C66732012
:107840007761726E3A25643A204E6F206D6F7265D3
:1078500020667265652073706163652025750A0076
:1078600010B50268D0E90B34126AC91A1144B1FB91
:10787000F2F303FB1211A1420BD2C06B01F01F0205
:107880000123490903FA02F250F821301A4340F863
:107890002120002010BD2DE9F04F85B0DDF8389093
:1078A0001C4615468846074600F1140A4FF0010BA6
:1078B0000DF1130684B138465146002243468DE847
:1078C000600800F0FBF840B948463146012200F05C
:1078D00069F9013C0135EDE7002005B0BDE8F08F06
:1078E0001FB50C460699CDE90023029100F1200155
:1078F0000022234600F067F804B010BD1FB50C4607
:107900000699CDE90023029100F1140100222346DB
:1079100000F0D4F804B010BD2DE9F04F85B0DDE9DA
:107920000E651C469046894607464FF0010A0DF148
:10793000130B9DB13846494600224346CDE9004B22
:10794000CDF808A000F0BAF848B931789DF81320B6
:107950008A4204D101360134013DEAE7012005B035
:10796000BDE8F08F2DE9FC410C4609680546481C2E
:1079700022D028689046D4E901238768866900965A
:10798000B847D0B9B8F1000F0DD02968A06889694F
:10799000D4E90023CDE9000128464146FFF7BCFFAA
:1079A00000280AD40BD02968A0688969FF22FAF759
:1079B00007FC4FF0FF3020600020BDE8FC816FF035
:1079C0003300BDE8FC812DE9F04F85B01C46DDF8A1
:1079D00040B0DDE90E530E4680460392BBF1000F26
:1079E00065D03068A04208D17168A94205D8D8F89E
:1079F000000082695018854232D3D8F800008769A8
:107A0000B5FBF7F1BB4501FB175100D321B1681A53
:107A1000C6E900402046E5E7BBFBF7F1D0F808C017
:107A2000049101FB07FA21462A46CDF800A09946A9
:107A3000E04700283FD1039850B1039940462246C1
:107A40002B46CDE9009AFFF767FF002833D430D0EA
:107A500004984B4600FB17BB554409EB0A03BDE7EE
:107A6000681AB768491B02EB010A3844D34538BF8E
:107A7000DA46194652461F46FAF790FBD8F800003E
:107A8000554480693B46B5FBF0F1ABEB0A0B01FBBB
:107A9000105007EB0A030028A0D1039A4046314654
:107AA0001F46FFF75FFF3B46002897D003E000200A
:107AB00001E06FF0330005B0BDE8F08F2DE9F04F25
:107AC00085B0DDF840A0DDE90E751C4693460E46F4
:107AD0008146BAF1000F61D00495BBF1000F0DD0C3
