:020000040800F2
:10200000081300206521000821410008B1360008AE
:102010004B4000085B2C0008C55E00080000000073
:102020000000000000000000000000000949000856
:10203000952E00080000000031420008C954000835
:102040007F2100087F2100087F2100087F210008F0
:102050007F2100087F2100087F2100083931000816
:102060007F2100087F2100087F2100087F210008D0
:102070007F2100087F2100087F2100087F210008C0
:102080007F2100087F210008000000007F21000858
:102090007F2100087F2100087F2100087F210008A0
:1020A0007F2100087F2100087F210008ED580008EB
:1020B0007F210008000000007F21000800000000D0
:1020C0007F210008000000007F2100087F21000818
:1020D0007F21000800000000000000000000000058
:1020E00000000000000000007F2100080000000048
:1020F00000000000000000000000000000000000E0
:102100007F21000800000000000000007F2100087F
:1021100000000000000000000000000000000000BF
:1021200000000000000000000000000000000000AF
:10213000000000000000000000000000000000009F
:102140000000000000000000000000007F210008E7
:10215000DFF80CD000F080FC00480047196300084D
:10216000081300200648804706480047FEE7FEE7C0
:10217000FEE7FEE7FEE7FEE7FEE7FEE7FEE7FEE737
:102180005D5500085121000800487047D4B7000889
:10219000A0F14101192900D82030704740EA01031D
:1021A0009B0703D009E008C9121F08C0042AFAD20D
:1021B00003E011F8013B00F8013B521EF9D27047D1
:1021C00030B505462A460B4612F8010B13F8014BB1
:1021D00008B1A042F8D01CB1002802D06D1CF1E774
:1021E000284630BD10B5044604E00B7800F8013BEA
:1021F00003B1491C521EF8D2204610BD421C10F8F3
:10220000011B0029FBD1801A7047000070B50F4DEB
:1022100000B92868002412E00A4602E09E4203D07A
:10222000521C1378002BF9D1DAB2224305D02BB11E
:1022300024B1002100F8011B04E00446401C06788C
:10224000002EE9D12860204670BD0000A8030020C0
:102250002DE9F04791460F4680460446002614F8C3
:10226000015B2DB1FFF790FF0068405DC007F6D11C
:102270002B2D02D02D2D18D0641E4A4639462046FB
:1022800000F006FB27B13968A14201D1C7F80080F0
:1022900071054FF002040BD54042002803DD03F026
:1022A00021FE0460A007BDE8F08746F48066E4E7FD
:1022B0000028F8DA03F016FE04606FF00040F2E741
:1022C0002DE9F05F93460F4680460446002603F052
:1022D00009FED0F80090824614F8015B2DB1FFF79B
:1022E00053FF0068405DC007F6D12B2D02D02D2D85
:1022F0001AD0641E0021CAF800105A4639462046FA
:1023000000F0C6FA014627B13868A04201D1C7F8EB
:102310000080DAF80000022809D0CAF800907005A1
:1023200005D54842BDE8F09F46F48066E2E70846DE
:10233000F8E780EA010210B502F00043400022D025
:102340004A001FD0010E01EB1261C0F35600C2F328
:10235000560240F4000042F40002A0FB02200004F8
:102360007F39140400D0401C50EA124001D44000D0
:10237000491EC2B20C0604EBD010401C4008802A53
:1023800002D003E0002010BD20F00100002900DA97
:102390000020184310BD30B480EA010202F000456D
:1023A00030F0004221F0004013D090B1C30DD40DA5
:1023B000C2F31601C0F31600E41A41F4000140F420
:1023C00000027D34914201D3641C00E04900002CDE
:1023D00002DA30BC002070474FF400000023914225
:1023E00001D3891A034340084FEA4101F7D151B1A3
:1023F000914202D14FF0004105E002D24FF00101BD
:1024000001E06FF0010103EBC450284430BC00F040
:102410008EBA2DE9FE4F804681EA0300C00F0C46BC
:10242000009021F0004123F00045B8EB0200A941E3
:1024300005D24046214690461C460B46024623F0F4
:102440000040104347D0270DC7F30A00C3F30A51D9
:102450000290401A019040286BDAC3F3130040F455
:10246000801B0098924620B10023D2EB030A63EB55
:102470000B0B01985946C0F14002504600F0D7F9C5
:1024800006460D4650465946019A00F0EFF910EB0A
:1024900008006141002487EA115284EAE7731A4375
:1024A00040D0009A62B3019A012A4FEA075215DC24
:1024B000001B61EB02014FF0004202EA0752CDE936
:1024C0000042001C41F5801132462B4600F075FA9F
:1024D00003B0BDE8F08F40462146F9E7001B61EBF1
:1024E0000201001C41F5801300185B412018A2F581
:1024F000001747EB030140EAD570B6196D4111E0B2
:102500006D084FEA360645EAC0754FEA0752001BD0
:1025100061EB0201001C41F5801149084FEA3000CF
:102520000019514132462B4603B0BDE8F04F00F090
:1025300035BA0098012240000023D0EB020263EB81
:10254000E073009821464FEAE074B8EB000061EBBD
:102550000401E9E783F000435BE781F0004158E7BD
:102560002DE9FE4F81EA030404F0004421F000410C
:1025700000944FF0000B23F0004350EA01045ED0BA
:1025800052EA03045BD0C3F30A54C1F30A552C4446
:10259000A4F2F3340194A0FB0254C1F3130141F4FB
:1025A0008011C3F3130343F4801301FB024400FBC7
:1025B000034E840A970A44EA815447EA8357A4FBEE
:1025C000076802958D0A05FB07854FEA932C04FBEB
:1025D0000C542705029D4FEA065847EA1637B5EB1B
:1025E00008056EEB070C870E920E47EA811742EA48
:1025F0008312A7FB0201B6EB0B0164EB00042B0D69
:1026000043EA0C335E1844EB1C50DA465146E7FBB4
:102610000201C5F313044FEA0B3343EA14534FEAA4
:102620000432019C43EA0603A4F10C040294009CCA
:10263000CDE900B400F0C1F903B0BDE8F08F00208F
:102640000146F9E72DE9F04D81EA030404F0004B5F
:1026500021F0004514464FF0000A23F0004150EAF3
:10266000050220D054EA01021DD0C5F30A570246E4
:10267000C5F31303C1F31300C1F30A5640F48015E8
:1026800043F48013A7EB0608101BD64608F2FD386A
:1026900073EB050002D308F1010801E092185B41D9
:1026A000B8F1000F03DA00200146BDE8F08D0020EC
:1026B0004FF48011064684460EE0171B73EB0507A6
:1026C00005D3121B63EB050306434CEA010C4908D2
:1026D0004FEA300092185B4150EA0107EDD152EA0F
:1026E000030012D082EA040083EA0501084305D002
:1026F000101BAB4106D20122002306E000224FF05E
:10270000004302E06FF0010253101AEB06004CEB9D
:10271000085110EB0A0041EB0B01BDE8F04D00F051
:102720003DB9C10F80EAE0700844CA079623002132
:1027300000F006B996230022114600F001B90EB54B
:10274000C10F80EAE0700844CA07002140F2334319
:102750008DE80E000A460B4600F02FF903B000BDCD
:1027600000F0004220F00040C10DC0F3160040F41C
:1027700000007F2901DA00207047962903DCC1F1AF
:102780009601C84001E096398840002AF4D04042C2
:10279000704770B5C1F30A5201F000450024C1F33F
:1027A000130140F2FF3341F480119A4201DA002014
:1027B00070BD40F233439A42A2F2334203DC5242EC
:1027C00000F044F800E090402C43F1D0404270BD4E
:1027D00000F0004230F000400AD0C10D01F56071F8
:1027E000C0F3160042EA0151C20840071143704786
:1027F00000200146704701F0004330B421F0004151
:1028000050EA010206D00A0DA2F56072C1F313016D
:10281000002A02DC30BC00207047440F44EAC104A7
:10282000C100E01830BC00EBC25000F080B8202A94
:1028300004DB203A00FA02F1002070479140C2F117
:10284000200320FA03F3194390407047202A04DB49
:10285000203A21FA02F00021704721FA02F3D04019
:10286000C2F120029140084319467047202A06DB36
:10287000CB17203A41FA02F043EAE07306E041FA4E
:1028800002F3D040C2F1200291400843194670473C
:102890002DE9F05F82460078002715468B460AF145
:1028A0000104B946302801D09DB113E014F8010BA2
:1028B0000127782803D0582801D045B10AE00DB18E
:1028C000102D07D10027102514F8010B02E0082570
:1028D00000E00A250026B0460EE005FB080005FBD7
:1028E00006F1012701EB10461FFA80F8B6F5803F8C
:1028F00000D3B94614F8010B294600F0BFF80028B0
:10290000EBDABBF1000F05D00FB1641E00E05446B6
:10291000CBF80040B9F1000F06D003F0E3FA022132
:102920000160C81EBDE8F09F48EA0640FAE70029AA
:10293000A8BF7047401C490008BF20F00100704745
:1029400010B4B0FA80FC00FA0CF050EA010404BFA5
:1029500010BC704749B1CCF1200421FA04F411FAFB
:102960000CF118BF012121430843A3EB0C01CB1D3F
:102970004FEA00614FEA102042BF002010BC7047B0
:1029800000EBC35010440029A4BF10BC7047401C8A
:10299000490008BF20F0010010BC704710B5141E9C
:1029A00073F1000408DA401C41F1000192185B4108
:1029B0001A4301D120F0010010BD2DE9F04D9246DF
:1029C0009B4611B1B1FA81F202E0B0FA80F22032F6
:1029D0009046FFF72CFF04460F4640EA0A0041EA02
:1029E0000B0153465A46084313D0114653EA0100DF
:1029F00019D0C8F140025046FFF728FF05460E46A1
:102A0000504659464246FFF712FF084305D00120C1
:102A100004E020463946BDE8F08D0020054346EA33
:102A2000E0762C4337430A986305E40AA0EB0800DC
:102A30000022FD0A44EA47540A3002D5002001462C
:102A4000E9E7010510196941DDE908450019694107
:102A5000BDE8F04DA2E70000064C074D06E0E06837
:102A600040F0010394E8070098471034AC42F6D3D5
:102A7000FFF772FB60BB000880BB00083A2800D259
:102A8000303820F02002412A01D3A2F137008842D9
:102A900001D34FF0FF30704770B58C1810F8015B10
:102AA00015F0070301D110F8013B2A1106D110F8E7
:102AB000012B03E010F8016B01F8016B5B1EF9D1EB
:102AC0002B0705D40023521E0DD401F8013BFAE771
:102AD00010F8013BCB1A921C03E013F8015B01F8DC
:102AE000015B521EF9D5A142D8D3002070BD000071
:102AF0002DE9F041818804467A2900D97A2160883D
:102B000000220B18532B01D8802901D910462BE045
:102B1000A37AA3750323E3751D462276144B46184A
:102B20000FE000BF53F8201001B1098867190A0AA5
:102B3000BA756D1CAAB2A518521CA975401C95B295
:102B400080B28642EED8E81E2076294604F11600AF
:102B500001F07CFA014660196D1C8175A8B2090A62
:102B60002218401C9175C0B22073BDE8F0810000AE
:102B7000300100202DE9F041818804467A2900D9EE
:102B80007A21608800220B18422B01D8802901D9B4
:102B900010462BE0A37AA3750423E3750325227660
:102BA000144B46180FE000BF53F8201001B10988FC
:102BB00067190A0ABA756D1CAAB2A518521CA97524
:102BC000401C95B280B28642EED8E81E2076294697
:102BD00004F1160001F03AFA014660196D1C817586
:102BE000A8B2090A2218401C9175C0B22073BDE832
:102BF000F08100002800002010B50446807AA075FE
:102C00001020E0756088010A217660760020A076A9
:102C1000207AE076062104F1160001F017FA2077F9
:102C2000000A60770820207310BD10B50446807A32
:102C3000A0750621E1756088020A22766076A08878
:102C4000020AA276E07604F1160001F0FFF920777F
:102C5000000A60770820207310BDFEE7264810B5F3
:102C60004168416041684160416841604168234A70
:102C700011404160416841F4A0214160016841F088
:102C80008071016001688901FCD5416821F0030170
:102C90004160416841F00201416041680907FCD58B
:102CA000032003F0CFFE40F2045003F0A1FE40F2F7
:102CB000025003F09DFE40F2115003F08BFE40F2F3
:102CC000125003F087FE4FF4A06003F083FE40F241
:102CD0000C6003F07FFE40F20B6003F07BFE40F2DD
:102CE0001C7003F077FE40F20E6003F073FEBDE847
:102CF000104002F0EBBB000000100240FFFFC27763
:102D000070B50488134B002101EB410233F82250C7
:102D1000AC4218D103EB820245885688B54212D1E5
:102D200085889688B5420ED1C588D688B5420AD125
:102D300005891689B54206D145895289954202D145
:102D40004FF0FF3070BD491C0904090CDCD0002095
:102D500070BD0000509D000830B5134B13481A6B2E
:102D60008266596BC1669C6B0467DD6B0F4B4567D0
:102D70004FF0FF305B6A8A4202DD8B4203DA11E0DA
:102D800004DA8B420FDA93420DDD0BE00749AC42C7
:102D9000896A02DDA94203DA04E004DAA94202DA10
:102DA000A14200DD002030BD000900207C0200208F
:102DB00006484FF6FE71B0F84400401E884202D229
:102DC0004FF0FF30704700207047000000090020DE
:102DD000FFF708BA70B5044690F89600207094F892
:102DE00097306370B4F898004FF0FF3542BA6280B4
:102DF000B4F89A00032B40BAA08019D0042B10D04D
:102E00002349062B1CD0102B19D1C0B2207294F884
:102E10009C206272082812D8B2EB400F0FD100201C
:102E20002BE0206900280AD12046FFF7A3FE05E029
:102E30002069002803D12046FFF75AFE256170BDA6
:102E4000532AFCD251F822100029F8D008802069BA
:102E50000028F4D12046FFF7E8FEEFE7628802443D
:102E6000532A08D251F822202AB104EB4003B3F8C8
:102E70009D305BBA1380401CC0B2227A8242EDD8EA
:102E800020690028DBD12046FFF7B6FED6E7000018
:102E9000300100207047000030B5064A11694AF63B
:102EA000AA23054C01E0236000BF15696D1A854215
:102EB000F9D330BDC80E00200030004031B54FF4CA
:102EC0005C754AF6AA22064C03E0284600F00AF890
:102ED0002260BDF80010481EADF80000F5D238BDE4
:102EE0000030004001B5BDF800004FF6FF7101EA67
:102EF0008000ADF80000BDF80000001DADF8000036
:102F0000BDF80000411EADF80010F9D208BD000068
:102F10002DE9F04100250E460746402A01D94022FE
:102F200001E002B901221446022000F0DBFCA021DE
:102F3000022000F087FC88B9390A022000F082FCE8
:102F400060B9F9B2022000F07DFC38B9022000F02F
:102F5000C9FCA121022000F075FC10B10220BDE8DF
:102F6000F081641E08E000BF00F00EFC70550220E6
:102F700000F0A6FB6D1CEDB2A5424FF00200F3DBA2
:102F800000F002FC7055022000F0CCFB022000F0A3
:102F9000E3FC0020E3E7000070B50D460646402A3A
:102FA00001D9402201E002B901221446022000F0BA
:102FB00099FCA021022000F045FC88B9310A0220CA
:102FC00000F040FC60B9F1B2022000F03BFC38B9DF
:102FD0000AE000BF15F8011B022000F033FC08B125
:102FE000022070BD641EE4B2002CF3D1022000F078
:102FF000B3FC002070BD000010B50A490A4B002048
:103000004FF47F4403EBC012B2F8002CA24202D16D
:103010000880012010BD401C80B20828F2D3002097
:10302000088010BD00000020001000080C4830B4DB
:1030300001780C4A01F00701018000200A4BC90108
:1030400001EB40041444B4F8024C23F81040401C37
:1030500080B23F28F4D330BC3F21034801F011B8BF
:10306000000000200010000800090020024AC0B241
:1030700032F8100008807047000900202DE9F04167
:10308000244C00254FF6FF77207800F007002080C1
:1030900003F036F82088204E002106EBC01002F025
:1030A000CFFF20781D4A401C00F0070002EBC01142
:1030B0002080B1F8001CB94205D006EBC01002F028
:1030C000E1FF0020208080B206EBC0104FF47F416A
:1030D00002F0B6FF3E21124800F0D3FF104EDFF899
:1030E0003880A6F87C0008F102082088C00100EBB7
:1030F000450101EB080036F8151002F0A1FF6D1C28
:10310000ADB207463F2DF0D302F0B4FF3846BDE81C
:10311000F081000000000020001C000800100008E2
:103120000009002002460846D1B2024A22F81100E6
:103130007047000000090020704700000348016844
:1031400021F00401016030BF7047000010ED00E085
:103150002DE9F0414FF09046304603F045F8DFF896
:10316000F081404603F040F801231A460021304622
:1031700003F06DF8022301220021304603F067F8C6
:10318000012204231146304603F061F80022042393
:103190001146304603F07EF80421304603F01CF857
:1031A000012208231146304603F051F80122102372
:1031B0001146304603F04BF80122082311463046F1
:1031C00003F068F8012210231146304603F062F83C
:1031D0004FF48074022223461146304603F037F83C
:1031E000234601220021304603F054F822460221F2
:1031F000304602F0BDFF6400234601220221304622
:1032000003F025F8234601220021304603F042F85E
:1032100022460121304602F0ABFF65002B46012219
:103220000221304603F013F82B46012200213046DC
:1032300003F030F82A460121304602F099FF0223BC
:1032400001220021404603F002F808230222012156
:10325000404602F0FCFF102302220121404602F00A
:10326000F6FF202302220121404602F0F0FF08234E
:1032700001220021404603F00DF810230122002115
:10328000404603F007F8202301220021404603F0C6
:1032900001F8012223461146404602F0D8FF0022E1
:1032A00023461146404602F0F5FF2146404602F013
:1032B00093FF01222B461146404602F0C8FFA400AE
:1032C000012223461146404602F0C1FF01222B464F
:1032D0001146404602F0DEFF0122234611464046D9
:1032E00002F0D8FF6400234602220121404602F08A
:1032F000AEFF65002B4602220121404602F0A7FFE7
:10330000A600334602220121404602F0A0FFE7005A
:103310003B4602220121404602F099FF234601224A
:103320000021404602F0B6FF2B4601220021404614
:1033300002F0B0FF334601220021404602F0AAFF0E
:103340003B464046BDE8F0410122002102F0A2BF09
:10335000000400482DE9F041203AD6B201F10F02F5
:10336000D3B2C21D164D0024D2B201F0F9F92C20BF
:1033700001F09AFA1348002100EB0617124E785C10
:103380000022C30701D0338800E07388521C4FEA43
:10339000132C05F804C005EB040CA41C4008D2B2A1
:1033A0008CF80130A4B2082AEBD3491CC9B2102909
:1033B000E5D32846BDE8F0414FF4807101F058BADA
:1033C000E009002082AC0008040300202DE9F04150
:1033D0002E4D0024A2F13003092B01D8DEB214E0F7
:1033E000412A2CD008DC202A0ED02D2A31D02E2ABA
:1033F00021D03A2A08D128E0562A1ED0572A20D0B8
:10340000682A20D06D2A22D00A2601F11F02D3B2E9
:1034100000F10F02D2B201F0A3F92C2001F044FA1E
:103420001B48002100EB86171A4E785C0022C30768
:1034300011D0338810E00B26E7E70C26E5E70D26D0
:10344000E3E70E26E1E70F26DFE71026DDE711268A
:10345000DBE71226D9E77388521C4FEA132C05F8D4
:1034600004C005EB040CA41C4008D2B28CF8013057
:10347000A4B2082ADBD3491CC9B24029D5D32846B7
:10348000BDE8F0414FF4806101F0F2B9E00900209D
:1034900092B20008040300202DE9F0411C461546B5
:1034A0000F46064608E0394630466D1CFFF752FFCE
:1034B0000836641EF6B2E4B22A78002A01D0002C45
:1034C000F1D1BDE8F0812DE9F0411C4615460F46CB
:1034D000064608E0394630466D1CFFF777FF103688
:1034E000641EF6B2E4B22A78002A01D0002CF1D191
:1034F000BDE8F0812DE9F0414FF6E0710022384C33
:103500004E114FF4FC654FF61F07052803D006281F
:1035100040D0072861D162802180314A00211023E8
:10352000121D0846FFF7B8FF2D4A10231432194622
:103530000020FFF7B1FF2A4A2580102324322021E2
:103540000020FFF7A9FF264A102334323021002043
:10355000FFF7A2FF224A2680102344324021002098
:10356000FFF79AFF1E4A1023543250210020FFF724
:1035700093FF1B4A27801023643260210020FFF74D
:103580008BFFBDE8F041164A1023743270210020F1
:10359000FFF782BF62802180114A00210823843214
:1035A0000846FFF790FF0E4A258008238C32202121
:1035B0000020FFF788FF0A4A268008239432402122
:1035C0000020FFF780FF2780BDE8F041044A082370
:1035D0009C3260210020FFF776BFBDE8F08100003B
:1035E0000403002018B1012803D003A0704705A0F0
:1035F000704707A070470000554E4B4E4F574E2066
:10360000000000005354445F563230200000000098
:103610004D494E495F5632300000000018B1012874
:1036200003D003A0704704A0704705A070470000B6
:10363000554E4B4E4F574E004C43443136303200BE
:10364000544654312E34340048B1012805D00228A4
:1036500001D004A0704705A0704706A0704707A0DE
:10366000704700004F544845520000004E54433507
:103670004B00000050543130300000005459504588
:103680004B00000018B1012803D003A0704704A02C
:10369000704705A070470000554E4B4E4F574E00E7
:1036A0004D4F4442555320005445524D2020200098
:1036B00002480068C00700D000BEFEE7F0ED00E061
:1036C00070B5022818D04FF090440821204602F02F
:1036D00081FD0320FFF706FC1021204602F07CFD4F
:1036E0000520FFF7FFFB1021204602F073FDBDE827
:1036F00070400220FFF7F6BB094C4FF48061204672
:1037000002F068FD0320FFF7EDFB4FF4006529464A
:10371000204602F061FD0520FFF7E4FB2946E3E7C0
:103720000004004870B5022818D04FF090440821DA
:10373000204602F051FD0320FFF7D4FB1021204664
:1037400002F04AFD0520FFF7CDFB1021204602F0D4
:1037500041FDBDE870400220FFF7C4BB094C4FF4A7
:103760008061204602F038FD0320FFF7BBFB4FF4D9
:1037700000652946204602F02FFD0520FFF7B2FB29
:103780002946E3E7000400482DE9F04700242C4FC8
:1037900006464FF4806A4FF09048022838D008213E
:1037A0004FEA080002F018FD00254FF400690120DF
:1037B000FFF798FB022E2ED01021404602F00AFDA2
:1037C0000520FFF78FFB1021404602F005FD032086
:1037D000FFF788FB0821404602F034FD61060C0E1D
:1037E000C00701D0641CE4B20220FFF77BFB6D1C14
:1037F000EDB2082DDBD3022E1ED010214FEA0800B7
:1038000002F0E8FC0220FFF76DFB2046BDE8F087E0
:1038100051463846C6E74946384602F0DBFC0520EB
:10382000FFF760FB4946384602F0D6FC0320FFF75D
:1038300059FB51463846CFE749463846E0E7000095
:10384000000400482DE9F047254F0E4605460024A8
:103850004FF4806A4FF400694FF0904806FA04F084
:10386000C0F3C012022D27D00821404602F0B6FC5A
:103870000120FFF737FB1021404602F0ADFC052088
:10388000FFF730FB1021404602F0A4FC641CE4B2B8
:10389000082CE3D30220FFF725FB022D1DD00821C1
:1038A0004FEA080002F098FC0220FFF71BFB2846B5
:1038B000BDE8F04700F07CB85146384602F08EFC77
:1038C0000120FFF70FFB4946384602F085FC052032
:1038D000FFF708FB49463846D6E751463846E1E748
:1038E0000004004870B502281CD04FF09044082115
:1038F000204602F071FC1021204602F06DFC0520EC
:10390000FFF7F0FA0821204602F064FC0520FFF7DB
:10391000E9FA1021204602F05DFCBDE8704002206B
:10392000FFF7E0BA0B4C4FF480663146204602F0B8
:1039300053FC75002946204602F04EFC0520FFF797
:10394000D1FA3146204602F045FC0520FFF7CAFABD
:103950002946DFE70004004870B5022815D04FF073
:1039600090440821204602F035FC1021204602F048
:1039700033FC0520FFF7B6FA0821204602F02CFCA4
:10398000BDE870400420FFF7ADBA084C4FF48065E5
:103990002946204602F01EFC6900204602F01CFC6D
:1039A0000520FFF79FFA2946E7E7000000040048DA
:1039B00070B5022816D04FF090451021284602F02D
:1039C0000BFC0320FFF78EFA0821284602F03AFC90
:1039D00004461021284602F0FDFB0220FFF782FA80
:1039E000204670BD084D4FF400663146284602F06F
:1039F000F3FB0320FFF776FA7110284602F022FC51
:103A000004463146E6E700000004004830B50023D4
:103A100040F6E25140F27732C84201DC184830BD2E
:103A200047F6E671884229DB41F6BE6030BDD11809
:103A3000491034F91150854203DDA1F101010AB2A8
:103A400003E015DA01F101010BB29342EFDD34F925
:103A5000121034F91330401A00EB80005B1A40005A
:103A600090FBF3F0643A02EB820100EB410003E0CB
:103A7000643901EB8100400000B230BD014CD6E753
:103A800018FCFFFF5C9D0008114810B50189C1F3C7
:103A9000011149B1012919D14FF4E13001F044FF7E
:103AA000BDE8104004F084BE40890A49000A097844
:103AB000B0FBF1F201FB1200074951F8200001F0C0
:103AC00033FFBDE81040054800F010BB10BD0000FA
:103AD000C80E0020889C0008589C0008E00D0020BB
:103AE00070B500F09DF9054600F054FC044600F066
:103AF0000DFF012D03D045B1022D0DD00FE014B103
:103B0000012C16D00BE0032070BD012C02D0022C3A
:103B10000DD004E0052070BD3CB1022C0BD0012873
:103B20000BD0022809D0002070BD042070BD0620F3
:103B300070BD072070BD082070BD092070BD000059
:103B400010B50021012000F09DF80020034920223B
:103B50000A54401CC0B22028FAD310BDC00900206E
:103B600010B50520FFF7AAF90021302000F00CF96C
:103B70000520FFF7A3F90021302000F005F901200E
:103B8000FFF79CF90021302000F0FEF80120FFF73C
:103B900095F90021282000F0F7F80520FFF78EF9AD
:103BA0000021282000F06EF80021082000F06AF8BB
:103BB0000021062000F066F800210C2000F062F8D9
:103BC0000021BDE81040012000F05CB870B52C4D1C
:103BD0000024F8B101282AD0022836D00328214633
:103BE00041D0802000F04EF8285D012100F04AF815
:103BF000641CE4B2102CF7D30021C02000F042F87E
:103C000010240121285D00F03DF8641CE4B2202C52
:103C1000F7D370BD0021802000F034F8285D012129
:103C200000F030F8641CE4B2082CF7D370BD00211A
:103C3000882000F027F808240121285D00F022F8F0
:103C4000641CE4B2102CF7D370BD0021C02000F03A
:103C500019F810240121285D00F014F8641CE4B266
:103C6000182CF7D370BDC82000F00CF818240121DF
:103C7000285D00F007F8641CE4B2202CF7D370BD77
:103C8000C009002010B500F005F8BDE810400A207A
:103C9000FFF728B92DE9F05F384C0D468246202108
:103CA000204602F097FA4FF00801204615B102F0C5
:103CB00093FA01E002F08EFA1021A346204602F0AA
:103CC00089FA0A20FFF70EF94AF00F002C4C2D4D0F
:103CD00001064FF4805601D5266000E02E604106B3
:103CE0004FF4005701D5276000E02F6081064FF4A4
:103CF0008048414601D5216000E02960C0064FF4AC
:103D00000049484601D5206000E028600A20FFF7FE
:103D1000E9F82021584602F05FFA0A20FFF7E2F89E
:103D20002021584602F056FA0F2141EA0A100106F6
:103D300001D5266000E02E60410601D5276000E035
:103D40002F608106414601D5216000E02960C00650
:103D5000484601D5206000E028600A20FFF7C2F83D
:103D600020215C46584602F037FA0A20FFF7BAF8DD
:103D70002046BDE8F05F202102F02CBA0004004884
:103D8000180400482804004870B5224D0E46044629
:103D90002021284602F01EFA4FF00801284616B1ED
:103DA00002F01AFA01E002F015FA1021284602F09A
:103DB00011FA0A20FFF796F81748184923064FF41E
:103DC000805201D5026000E00A6063064FF40052A1
:103DD00001D5026000E00A60A3064FF4804201D5DD
:103DE000026000E00A60E3064FF4004201D5026081
:103DF00000E00A600A20FFF775F82021284602F04B
:103E0000EBF90A20FFF76EF82846BDE87040202144
:103E100002F0E0B9000400481804004828040048F3
:103E200010B5002401214FF0904002F00BFA0A492E
:103E30000028087808D0642801D3022402E00A2868
:103E400000D30124002004E0421C0A70642801D33E
:103E500064200870204610BD000300202DE9F041C9
:103E60003921404800F00DF910B10020BDE8F08183
:103E70003C483D49B0F86020CA80B0F862200A8111
:103E8000B0F864204A81B0F866208A81B0F86820D2
:103E9000CA81364C0568364B364A25609D4201D3AF
:103EA00022600260344C056925609D4201D3226086
:103EB0000261324C056A324F2560BD4201D3226057
:103EC0000262304E456A3560BD4202D22468A54286
:103ED00002DB0024346044622B4C856A25609542E5
:103EE00003D341F2883525608562C46A9C4202D3BF
:103EF00046F2A814C462B0F84A40632C02D90424E4
:103F0000A0F84A40214D046B2C60214D446B2C607D
:103F1000204D846B2C60204DC46B2C60046C9C4243
:103F200000D3C2620889C0F301221C48022A027031
:103F300006D30A8922F440720A81C2F30122027078
:103F4000C889C0F381021648042A027006D3CA89C0
:103F500022F00C02CA81C2F3810101704FF0FF30E0
:103F600084E7000000090020C80E0020F4020020B1
:103F700080969800A0860100F8020020DC02002054
:103F800040420F00E0020020B0020020E4020020C6
:103F9000E8020020EC020020F00200208102002054
:103FA0002600002070B506460C004FF0000039D006
:103FB00020603046FFF796FCD1213046FFF742FCE7
:103FC0003046FFF7E1FB05463046FFF779FB2068F6
:103FD000A90702D54FF07F4100E00021084340EAE5
:103FE000054020603046FFF7CFFB05463046FFF71F
:103FF00067FB206840EA052020603046FFF7C4FBDD
:1040000005463046FFF75CFB2068284320603046B9
:10401000FFF7BAFB04463046FFF784FB3046FFF754
:104020009BFC204670BD70B50C460546FFF75AFC58
:10403000D0212846FFF706FC21462846FFF702FC60
:104040002846BDE87040FFF787BCFEE770B506461E
:1040500000224FF6FF704AF201040FE0B35C5840B3
:104060005FF0000310F0010F4FEA500000D06040F5
:104070005B1C9BB2082BF5D3521C92B28A42EDD343
:1040800070BD70B5064600224FF6FF704AF201047B
:104090000FE036F812305840002310F0010F4FEABD
:1040A000500000D060405B1C9BB2082BF5D3521C23
:1040B00092B28A42EDD370BD10B50446C07A002892
:1040C00013D0A28A521C92B2A2828A420DD900F069
:1040D0003F01E17204F19600FFF7B8FF10B92046E6
:1040E000FEF778FE0020E072A08210BD034A002196
:1040F000C17252898272818270470000C80E00200E
:1041000010B500238382C27A402A02D3C3721846B4
:1041100010BD531C00F19604C3721155084610BD22
:104120007047000030B50023B4224EF2C40188422B
:1041300001D3184830BDA02829D840F2DC5030BD4A
:10414000D118491034F81150854203D2A1F1010170
:104150000AB203E015D901F101010BB29342EFDD80
:1041600034F8121034F81330401A00EB80005B1A58
:10417000400090FBF3F01E3A02EB820100EB41009D
:1041800003E01E3901EB8100400000B230BD024C5B
:10419000D6E70000D4FEFFFF4CA4000810B54FF492
:1041A000A06002F04DFA0122BDE8104011461B202C
:1041B00002F006BA30B5002240F23C714FF457735A
:1041C000884201D8184830BD48F2FF11884229D3EF
:1041D00041F6C81030BD9918491034F81150854285
:1041E00003D9A1F101010BB203E015D201F10101E4
:1041F0000AB29A42EFDD34F8121034F81330401A44
:1042000000EB80005B1A400090FBF3F0C83A02EB31
:10421000820100EB410003E0C83901EB810040005E
:1042200000B230BD014CD6E730F8FFFFB6A500085C
:10423000704700004C4910B54A4808604B494C4A49
:104240004C4B086048608860C86010600861486135
:1042500088614200C8611A60474B0A6200221A60F6
:10426000464C41F288334A6223608B624310CB6232
:10427000434B1A60434B0A631A60434B4A631A600C
:10428000424B8A631A60C1E90F20A1F84420022042
:10429000A1F84600A1F848200420A1F84A003C48B3
:1042A000C280C38843F00103C380C38843F0020384
:1042B000C380C388A1F860300281038923F003031F
:1042C0000381038923F0300310330381038923F42E
:1042D00040730381038923F4405303810389A1F8C8
:1042E00062304281438923F0FF035B1C4381438991
:1042F000DBB203F5407343814389A1F864308281C6
:10430000838923F001038381838923F0020383815E
:10431000838923F0F003403383818389DBB203F583
:10432000807383818389A1F86630C281C28942F09B
:104330000102C281C28922F0F0028032C281C289A8
:1043400022F00C02C281C28922F47042C281C28969
:1043500022F4706202F5A062C281C089A1F86800EF
:1043600010BD0000A0860100F4020020000900201A
:10437000F8020020DC020020E0020020B002002051
:10438000E4020020E8020020EC020020F0020020FD
:10439000C80E002010B5002402214FF0904001F01B
:1043A00051FF0A490028487808D0642801D3022424
:1043B00002E00A2800D30124002004E0421C4A70D5
:1043C000642801D364204870204610BD00030020FB
:1043D00030B595B0022001F0B1FD194D0024CDE9B2
:1043E000055401208DF828008DF829008DF81C4017
:1043F000089409944003CDE90B40142208A96846AB
:10440000FDF7CCFE224629460220079B01F0C4FDA1
:104410004FF482700D904FF44040CDE90E046815C2
:10442000CDE910040320CDE91204054C0DA90C3C84
:10443000204602F00BFC204602F0FCFB15B030BD1C
:104440000C30014070B50D4601460024022001F0F9
:10445000E3FD2946022001F0E9FD124D0021284626
:1044600002F0DEFB022001F05DFD4FF4FA7606E07B
:10447000641CA4B20A20FEF735FDB44205D802211F
:10448000084601F07DFD0028F2D0022001F03EFD3B
:104490000021284602F0BAFBBDE870400221084620
:1044A00001F064BD003001402DE9F04107460024D1
:1044B0000B4D4FF4FA7606E0641CA4B20A20FEF716
:1044C00011FDB44205D80221284602F0BAFB0028AB
:1044D000F2D03946284602F0B2FBFF20BDE8F08159
:1044E000003001402DE9F0410021030A124AC0B218
:1044F00002EB410402F81130491C89B26070802936
:10450000F6D37F2300211A46084600F029F92C2013
:1045100000F0CAF9094E00244FF480774AF6AA2524
:104520003946054800F0A4F93560641CA4B2802C1B
:10453000F6D3BDE8F0810000E00900200030004023
:1045400070B5854D4FF480542146284601F044FE55
:104550000120FEF7A1FC2146284601F03BFE012088
:10456000FEF79AFC2146284601F036FE0C20FEF7A5
:1045700093FC112000F098F90C20FEF78DFCB1207F
:1045800000F092F9022000F0A7F9352000F0A4F91C
:10459000362000F0A1F9B22000F086F9022000F0E8
:1045A0009BF9352000F098F9362000F095F9B320FA
:1045B00000F07AF9022000F08FF9352000F08CF934
:1045C000362000F089F9022000F086F9352000F04D
:1045D00083F9362000F080F9B42000F065F903205B
:1045E00000F07AF9C02000F05FF9A22000F074F921
:1045F000022000F071F9842000F06EF9C12000F073
:1046000053F9C52000F068F9C22000F04DF90D20E3
:1046100000F062F9002000F05FF9C32000F044F9D7
:104620008D2000F059F92A2000F056F9C42000F03E
:104630003BF98D2000F050F9EE2000F04DF9C52037
:1046400000F032F90A2000F047F9362000F02CF98A
:104650004248007830B1012806D0022878D00328DB
:1046600005D177E0A82000E0C82000F035F9E0206F
:1046700000F01AF9122000F02FF91C2000F02CF99C
:10468000102000F029F9182000F026F9332000F05E
:1046900023F92C2000F020F9252000F01DF9282016
:1046A00000F01AF9282000F017F9272000F014F97B
:1046B0002F2000F011F93C2000F00EF9002000F04E
:1046C0000BF9032000F008F9032000F005F9102091
:1046D00000F002F9E12000F0E7F8122000F0FCF809
:1046E0001C2000F0F9F8102000F0F6F8182000F077
:1046F000F3F82D2000F0F0F8282000F0EDF823204A
:1047000000F0EAF8282000F0E7F8282000F0E4F8AC
:10471000262000F0E1F82F2000F0DEF83B2000F02A
:10472000DBF8002000F0D8F8032000F0D5F80320D3
:1047300000F0D2F8102000F0CFF83A2000F0B4F8E2
:10474000052000F0C9F8BDE87040292000F0ACB8A1
:1047500068208AE7082088E7000400482600002037
:104760002DE9F84F074641480E461C460178B01C1B
:1047700000F0FF0B981C154600F0FF0A71B3B81C3F
:1047800000F0FF09A81C00F0FF08012933D002291E
:104790004DD0032920D12A2000F086F800258DF87D
:1047A00000508DF801908DF802508DF8038004219F
:1047B000684600F05DF82B2000F076F8761C8DF846
:1047C00000508DF801608DF80250641C8DF8034094
:1047D0000421684600F04CF8BDE8F88F2A2000F06C
:1047E00063F80024FF1C8DF800408DF801708DF8EF
:1047F0000240ED1C27E02A2000F056F800258DF835
:1048000000508DF801908DF802508DF8038004213E
:10481000684600F02DF82B2000F046F8F61C8DF8C5
:1048200000508DF801608DF80250E41CCEE72A207C
:1048300000F03AF800247F1C8DF800408DF80170DC
:104840008DF802406D1C8DF803500421684600F07D
:104850000FF82B2000F028F88DF800408DF801B0FB
:104860008DF802408DF803A0B2E70000260000207A
:104870002DE9F0410B4D0E4607464FF400542146FA
:10488000284601F0A7FC6100284601F0A5FC31464E
:104890003846FFF7D7FD21462846BDE8F04101F034
:1048A0009BBC00000004004870B50A4D06464FF45A
:1048B00000542146284601F08DFC6100284601F095
:1048C00089FC3046FFF7F0FD21462846BDE87040E0
:1048D00001F082BC0004004870B50A4D06464FF452
:1048E00000542146284601F075FC6100284601F07D
:1048F00073FC3046FFF7D8FD21462846BDE87040DE
:1049000001F06ABC0004004870470000044A00201F
:1049100091784B1C9370642901D364219170704786
:10492000000300200B4810B5C1880B4C24F8601F11
:10493000018961804189A1808189E180C0892081CC
:1049400038210548FFF79DFB2082BDE81040FEF7A7
:1049500095BB0000C80E002000090020F0B52E23F2
:10496000002806DA302008708B704870C870087113
:1049700019E0494F0A22642542F210764FF47A7406
:10498000B84212DA90FBF6F696FBF2F702FB1766D6
:1049900030360E704B7090FBF4F393FBF2F402FB95
:1049A0001433303316E04871F0BD3C4FB84222DA80
:1049B00090FBF2F090FBF6F696FBF2F790FBF4F426
:1049C00002FB176630360E7094FBF2F602FB1644BB
:1049D00030344C708B7090FBF5F393FBF2F402FBD8
:1049E00014333033CB7090FBF2F393FBF2F402FB01
:1049F0001433303342E02A4FB8421ADA90FBF5F014
:104A000090FBF6F696FBF2F790FBF4F402FB1766C8
:104A100030360E7094FBF2F602FB164430344C70C4
:104A200090FBF5F494FBF2F502FB154430348C70E6
:104A3000D8E71C4FB84228DA90FBF4F090FBF6F66A
:104A400096FBF2F790FBF4F402FB176630360E701B
:104A500094FBF2F602FB164430344C7090FBF5F4F4
:104A600094FBF2F502FB154430348C7090FBF2F4A9
:104A700094FBF2F502FB15443034CC700B7190FBC3
:104A8000F2F302FB130030308DE7392008704870D4
:104A90008870C8700B7186E7A086010040420F0045
:104AA0008096980000E1F5050A2290FBF2F310B51C
:104AB00093FBF2F402FB143330330B7090FBF2F3F0
:104AC00002FB13003030487010BD00002DE9F04F9C
:104AD0000A226424DFF8BCC1DFF8BC91DFF8BCA176
:104AE0002E256F4F42F210764FF47A734FF0390B48
:104AF000002848DBB84201DA202708E0604515DAD3
:104B000090FBF7F797FBF2FC02FB1C7730370F7036
:104B100040E000BF90FBF2F393FBF2F402FB14338E
:104B200030334B71A9E08871BDE8F08F48450ADA4F
:104B300090FBF2F090FBF7F797FBF2FC02FB1C777F
:104B400030370F703CE050450ADA90FBF4F090FBF0
:104B5000F7F797FBF2FC02FB1C7730370F704DE044
:104B6000DFF840C160450ADA90FBF3F090FBF7F7FD
:104B700097FBF2FC02FB1C7730370F705CE0584665
:104B800081F800B080E040424FF02D0881F80080AD
:104B9000B84211DA90FBF6F696FBF2F790FBF3F3CE
:104BA00002FB176630364E708D7093FBF2F502FBF8
:104BB00015333033CB7014E060451BDA90FBF2F014
:104BC00090FBF6F696FBF2F790FBF3F302FB176609
:104BD00030364E7093FBF2F602FB163330338B7097
:104BE000CD7090FBF4F393FBF2F402FB14333033FB
:104BF0000B718FE748451BDA90FBF4F090FBF6F65B
:104C000096FBF2F790FBF3F302FB176630364E701B
:104C100093FBF2F602FB163330338B7090FBF4F308
:104C200093FBF2F402FB14333033CB700D7171E758
:104C3000504528DA90FBF3F090FBF6F696FBF2F77E
:104C400090FBF3F302FB176630364E7093FBF2F6DF
:104C500002FB163330338B7090FBF4F393FBF2F4CA
:104C600002FB14333033CB7090FBF2F393FBF2F47E
:104C700002FB143330330B714D7190FBF2F302FBE6
:104C8000130030304FE7584648708870C87008717C
:104C90004D7148E740420F008096980000E1F5050D
:104CA000A086010000CA9A3B70B50023002801DAF3
:104CB0005B1E4042244A90FBF2F40A2294FBF2F578
:104CC00002FB1544214D303490FBF5F595FBF2F6CF
:104CD00002FB1655E4B20C7030354D702E258D70E8
:104CE00042F2107590FBF5F595FBF2F602FB1655B6
:104CF0003035CD704FF47A7590FBF5F595FBF2F6F3
:104D000002FB165530350D71642590FBF5F595FBCA
:104D1000F2F602FB165530354D7190FBF2F595FB1E
:104D2000F2F602FB165530358D7190FBF2F502FB61
:104D300015003030C8710BB12D2002E0302C01D1AC
:104D40002020087070BD000040420F00A0860100C6
:104D500030B50023002802DA5B1E404200B2642214
:104D600090FBF2F40A2294FBF2F502FB1544303476
:104D70000C7090FBF2F494FBF2F502FB1544303416
:104D80004C7090FBF2F402FB14003030887000206D
:104D900020220C5C302C04D10A54401CC0B20228E2
:104DA000F7D3002B05D0002803D008442D2200F8AB
:104DB000012C30BD30B50023002802DA5B1E4042D2
:104DC00000B24FF47A7290FBF2F40A2294FBF2F5EF
:104DD00002FB154430340C70642490FBF4F494FB13
:104DE000F2F502FB154430344C7090FBF2F494FB66
:104DF000F2F502FB154430348C702E24CC7090FBFD
:104E0000F2F402FB140030300871002020220C5C08
:104E1000302C08D10C1864782E2C04D00A54401C75
:104E2000C0B20428F3D3002B05D0002803D00844D7
:104E30002D2200F8012C30BD30B50023002802DA05
:104E40005B1E404200B24FF47A7290FBF2F40A22E9
:104E500094FBF2F502FB154430340C70642490FB93
:104E6000F4F494FBF2F502FB154430344C7090FBE3
:104E7000F2F494FBF2F502FB154430348C7090FB95
:104E8000F2F402FB14003030C870002020220C5CC9
:104E9000302C04D10A54401CC0B20328F7D3002B95
:104EA00005D0002803D008442D2200F8012C30BD85
:104EB00030B50023002801DA5B1E404242F2107236
:104EC00090FBF2F40A2294FBF2F502FB1544303415
:104ED0000C704FF47A7490FBF4F494FBF2F502FB3F
:104EE000154430344C70642490FBF4F494FBF2F5D8
:104EF00002FB154430348C7090FBF2F494FBF2F515
:104F000002FB15443034CC7090FBF2F402FB140029
:104F100030300871002020220C5C302C04D10A545F
:104F2000401CC0B20428F7D3002B05D0002803D0C2
:104F300008442D2200F8012C30BD000030B50023BC
:104F4000002801DA5B1E4042284A90FBF2F40A2254
:104F500094FBF2F502FB154430340C70244C90FBAA
:104F6000F4F494FBF2F502FB154430344C7042F239
:104F7000107490FBF4F494FBF2F502FB154430340A
:104F80008C704FF47A7490FBF4F494FBF2F502FB0E
:104F900015443034CC70642490FBF4F494FBF2F5A7
:104FA00002FB154430340C7190FBF2F494FBF2F5E3
:104FB00002FB154430344C7190FBF2F402FB1400F8
:104FC00030308871002020220C5C302C04D10A542F
:104FD000401CC0B20628F7D3002B05D0002803D010
:104FE00008442D2200F8012C30BD000040420F0083
:104FF000A08601000B4A10B51368C0F3032403EB2D
:1050000010331B780B7013681B5D4B701368C0F373
:10501000031400F00F001B5D8B701268105CC870E9
:1050200010BD0000180000200F4A10B51368C0F32F
:1050300003541B5D0B701368C0F303441B5D4B707E
:105040001368C0F303341B5D8B701368C0F3032433
:105050001B5DCB701268C0F3031300F00F00D35C2C
:105060000B71105C487110BD180000202DE9F04153
:10507000144D0024124E687901281FD012491220C5
:10508000E965FFF711FDE96D2E2707208F70C91C18
:10509000FFF70AFDE96D1D204F71891DFFF704FD23
:1050A000E86D00EB840136F814000831FFF7A2FF29
:1050B000641CE4B2062CF3D3BDE8F0810349DEE7BB
:1050C000ACF7FF1F7C020020C0090020680300200D
:1050D0002DE9F0413B4C3A4808223BA1E065FDF741
:1050E00077FEFDF765FEE16D412628B1E06AFFF726
:1050F000EDFCE06DC67105E0606AFFF7E7FCE16D6D
:105100005620C8712E480822083032A1E065FDF70C
:105110005FFEE16DA06AFFF7D9FC314D28896D274C
:1051200000F00300012801D1E06D877124480822B6
:1051300010302CA1E065FDF74BFEE16DE06BFFF751
:10514000C5FC288900F00300012801D1E06D4771FA
:10515000E06D682108228671C171194824A11830B8
:10516000E065FDF735FE68694FF4616190FBF1F091
:10517000642190FBF1F201FB120000B2E16DFFF738
:1051800093FC68693C2690FBF6F090FBF6F106FB79
:105190001100E16D00B2C91CFFF786FC686990FB45
:1051A000F6F106FB1100E16D00B2891DFFF77CFCF2
:1051B000E06D0178302901D120210170BDE8F08136
:1051C000880300207C02002020302E303030305602
:1051D0000000000020302E30303030410000000050
:1051E000C80E002020302E30303041680000000012
:1051F00020303A30313A30320000000010B50D4C0A
:105200006079012813D00C4820220CA1E065FDF73D
:10521000DFFDE16D60890A31FFF74AFE10488089A1
:10522000E16D000ABDE810401B31FFF791BD0D484C
:10523000EAE700007C020020C0090020204C6F67D4
:10524000436F756E743A20202020302020496E7400
:10525000657276616C3A20202031732000000000D6
:10526000C80E00206803002010B5194C6079012891
:105270002AD01848202218A1E065FDF7A9FD1F4893
:105280000089C0F30130FEF7DFF90146E06D052229
:10529000401CFDF79DFDE16DE069891DFFF74EFEA5
:1052A000A089E16D00B21031FFF784FD208AE16D25
:1052B00000B21831FFF77EFD6079012806D0DF21AA
:1052C000E06D4177417510BD0D48D3E77F21F7E7C9
:1052D0007C020020C009002020545950454B20205A
:1052E00020202020307556202032302E306F432071
:1052F0002032302E306F432000000000C80E002006
:105300004803002070B52B4C6079012815D02A483D
:1053100020222AA1E065FDF75BFDE16DE06BFFF760
:10532000D5FBE16D206C1031FFF7D0FB2C4D2889A7
:1053300000F00300012802D005E02A48E8E7E06D0C
:105340006D21817581716869274990FBF1F06421B5
:1053500090FBF1F201FB1200E16D00B20A31FFF7A0
:10536000A3FB68694FF4616190FBF1F0182190FB99
:10537000F1F201FB1200E16D00B20D31FFF794FB79
:1053800068693C2690FBF6F090FBF6F106FB1100F5
:10539000E16D00B21A31FFF787FB686990FBF6F107
:1053A00006FB1100E16DBDE8704000B21D31FFF752
:1053B0007BBB00007C020020C009002020302E3082
:1053C00030303041682030306430306820302E304A
:1053D00030303057682030306D30307300000000BE
:1053E000C80E0020280300208051010010B5224C77
:1053F000607901280ED02148202221A1E065FDF727
:10540000E7FCFDF7D5FCE16D30B1E06AFFF75EFB2C
:10541000412005E02348EFE7606AFFF757FB56207D
:10542000E16DC871E16DA06A1031FFF74FFBE16DCE
:10543000E06C0931FFF792FAE16D206D1931FFF749
:105440008DFA1948018901F00301012903D1E16DA9
:105450006D228A758A73008900F00300012806D046
:105460006079012805D0F420E16DC87710BD6B206C
:10547000FAE78020F8E700007C020020C009002045
:1054800020302E303030305620302E3030303057F3
:1054900020302E303030304120393939392E3952D0
:1054A0000000000008030020C80E0020054810B5C9
:1054B0000169491C016103F0E9FDBDE8104004F0F9
:1054C000DFB80000C80E0020FFF7F0BF3FB51BA3F8
:1054D0000FCB8DE80F001D4841681D4B1D4AC1F3DD
:1054E000810119B1012901D0022901D013601CE00A
:1054F00041684468C1F38341C4F3C065C46AE40FE2
:105500000DB1113100E0891C04B11F314468C4F3AE
:1055100000443CB1C46A04F00F04641CB3FBF4F310
:105520004B43E3E70C4B5943116040681168C0F3EB
:1055300003101DF80000C14011603FBD00000000D5
:1055400000000000010203040607080900100240E1
:1055500000127A00FC02002000093D001A48016890
:1055600041F00101016001688907FCD54168174AD3
:10557000114041604168164A114041600168154A76
:1055800011400160C16A144A1140C162016B40F2CE
:10559000031291430163016B21F480310163016BBC
:1055A00021F000410163416B21F001014163D0F81A
:1055B000C01021F48031C0F8C01000218160C0F813
:1055C000CC1003F045B90000001002400C00FF08A9
:1055D000FFFFC277FFFFF2FEF0FFFF3F2DE9F05F14
:1055E000044600270E46A4F84671BA46FCF7CCFDE7
:1055F000006804F1C40B04F14405805D10F03E0F17
:105600004FF0010013D0A4F846010AF80560B4F881
:105610004A01402832D23046FCF7BAFD0146B4F8C0
:105620004A01421CA4F84A2100F80B1026E002218E
:105630004FF0200E4FF00308082E2AD0DFF85491C7
:105640000D2E34D00A2E19D0032E17D0102E15D0BF
:105650001B2E60D01D2E68D04F4A126802EB161325
:1056600093F800C0A4F8460106F00F030AF805C03D
:10567000D25C4255A4F8468101F805E094F8460151
:1056800000F03F00A4F846014448C088C0077AD122
:105690007DE008220AF8052000F805E0A4F846811C
:1056A0004A55B4F84A010028E8D0401E30E00D23E6
:1056B0000AF805300A22A4F846114255B4F84A0106
:1056C000402822D200F80BA0A4F84AA14FF0FF30E6
:1056D0002060B4F94C018022C11700EB517121F018
:1056E0000701401AA4F84C0109EBC0105946FCF719
:1056F00079FDB4F94C01401CC11700EB517121F048
:105700000701401AA4F84C01B8E7504684F803A1F9
:10571000A4F84A01B2E7B4F84C01401E00B2A4F864
:105720004C0100280CDA083008E0B4F84C01401CA9
:1057300000B2A4F84C01082802DB0838A4F84C0198
:10574000B4F94C01802209EBC0115846FCF74AFD20
:105750005846FCF753FDA4F84A01B4F94C018022E5
:1057600009EBC0112846FCF73DFD2846FCF746FD35
:10577000A4F8460182E706E0E01990F8440004F03E
:10578000DDF87F1CFFB2B4F84601B842F4D8FF2020
:10579000BDE8F09F0005002018000020C80E002082
:1057A00010B5124C022208231146204600F04FFD8E
:1057B000022220231146204600F049FD082303223F
:1057C0000021204600F066FD202303220021204610
:1057D00000F060FD08220021204600F0C9FC2046B0
:1057E0002022BDE81040002100F0C2BC00040048A7
:1057F00030B51F4D89B0284603F07CF9E920ADF89B
:1058000010000024FF200690ADF81C40ADF81240B7
:10581000ADF814408DF81E4004A9284603F0AAF9FB
:10582000012000900420ADF804000220ADF806002D
:10583000ADF80840C001ADF80A00ADF80C406A466A
:105840000021284603F02AF806980021420828463D
:1058500003F041F970220021284603F015F90121D7
:10586000284603F0D7F9284603F07EF909B030BD89
:10587000002C0140C0F1FF020021014803F02BB9C8
:10588000002C014070B504460120FEF72BF8912151
:105890000120FDF7D7FF08B1022070BD0120FDF700
:1058A00073FF05460120FDF70BFF0120FDF76CFF9C
:1058B00006460120FDF736FF0120FEF74DF814B132
:1058C00046EA05202080002070BD00000146064AFF
:1058D000002000BF52F820308B4203D9401CC0B2D8
:1058E0000C28F7D370470000589C00080A4800684D
:1058F000800610D5084808300068C1B20748008902
:10590000C0F3011020B1012805D10548FFF766BE9C
:105910000448FEF7F5BB70471C380140C80E002054
:10592000B0030020E00D002070B5144D0446284659
:1059300004F03EF82146284604F00EF800212846DF
:1059400004F05EF80021284604F082F80021284681
:1059500004F06AF80421284604F05EF8082128467D
:1059600004F06EF80521284604F03FF8284604F0BC
:1059700037F804490248086070BD00000038014053
:105980003D9900081C0000202DE9F047C04D297802
:10599000C04FC14EC14C07F1100907F1180A07F1B9
:1059A000080813293AD2DFE801F00A0EF112A1EF3C
:1059B000EEED393D546977869316A5CCF500BDE828
:1059C000F047FFF713BDBDE8F047FFF79BBCBDE80C
:1059D000F047FFF749BC2022B1A1E06DFDF7F8F9CF
:1059E000A079C0070AD02889C0F30130FDF72CFE4A
:1059F0000146A84805220930FDF7EAF9A089494681
:105A000000B2FFF7D7F9208A514600B2FFF7D2F96A
:105A10006079012804D0DF2078777875BDE8F087B9
:105A20007F20F9E72022A7A19A48FDF7D1F99949EB
:105A3000606AFFF74BF84946A06AFFF747F8A0797C
:105A4000C00703D04146A06FFFF72EF95146E06F23
:105A50001EE02022A4A18F48FDF7BAF98D49606AA3
:105A6000FFF734F84946A06AFFF730F84146A06FC7
:105A7000FFF71AF9A079C007E8D1CFE72022A3A148
:105A80008448FDF7A5F9A079C007C7D0A06B51469F
:105A9000BDE8F047FFF708B92022A5A17D48FDF732
:105AA00097F9A079C00703D04146206EFFF70EF8A2
:105AB0005146606E16E02022A6A17648FDF788F9CF
:105AC0004146206EFFF702F8A079C007F0D1A5E7A4
:105AD0002022A9A16F48FDF77BF9A079C0079DD0CE
:105AE000206B5146BDE8F047FEF7F0BFBDE8F04738
:105AF000FFF7BCBA664C674920342088FFF77AFA72
:105B00006088391DFFF776FAA0884146FFF772FAE0
:105B10006049E0880C31FFF76DFA20894946FFF7AC
:105B200069FA5C4960891431FFF764FAA08951462B
:105B3000FFF760FAE089BDE8F04756491C31FFF7EE
:105B400059BA202295A15348FDF742F92889C0F39C
:105B50000110FDF797FD01460722F81DFDF738F902
:105B6000288910F0300F05D168894A49C0B20D313B
:105B7000FFF7EEF8E8893168C0F30310085C387766
:105B80004CE707E029E024E01CE0FFE7BDE8F04730
:105B9000FFF734BB20228AA13E48FDF719F9A889F6
:105BA0003C49C0F3031080020A31FFF781F9A07964
:105BB000C0078CD0A889BDE8F0473649000A1B31E0
:105BC000FFF7C6B8FFF712FCFFF79CFBFFF74CFB93
:105BD000DCE7BDE8F047FFF77BBA607901284FD0DA
:105BE0002C4820227FA1E065FDF7F2F8D4E91710D8
:105BF0000831FEF76BFFE16D606E1831FEF766FF4E
:105C0000607901283ED0234820227FA1E065FDF77E
:105C1000DFF8E16DA06F0831FFF746F8E16DE06F46
:105C20001831FFF741F8607901282ED01948202259
:105C30007EA1E065FDF7CCF82889C0F30110FDF7DF
:105C400021FD0146E06D0322401DFDF7C1F8688982
:105C5000E16DC0B20D31FFF77BF8A889E16DC0F3AB
:105C6000031080021531FFF7E7F8E8893168E06D2D
:105C70000A788277EA89C2F30312895CC17735E733
:105C80007348AEE772482030BEE771484030CEE737
:105C9000C80E0020C0090020180000207C0200204F
:105CA0002050726F62653A20202020202020202082
:105CB0002032302E306F43202032302E306F432080
:105CC0000000000020302E303030305620202020C0
:105CD0002020202020302E303030304120312E3016
:105CE000303030300000000020302E303030305660
:105CF00020312E303030303020302E3030303041B6
:105D000020202020202020200000000055204920B5
:105D100043616C6962726174696F6E2E41646A538B
:105D20007465703A202020202020202000000000F0
:105D300055204D61783A2020202020202020205618
:105D400055204D696E3A202020302E3930303056A3
:105D50000000000055204D61783A202032302E306E
:105D60003030305655204D696E3A202020202020BA
:105D7000202020560000000055204D696E204D6106
:105D8000782053657475702E536574537465703A3A
:105D900020202020202020560000000020554152C5
:105DA000543A205445524D20202020202042616347
:105DB0006B4C696768743A20302020200000000096
:105DC0004C6F674D61783A202020203430393620DE
:105DD000496E74657276616C3A2020202020732011
:105DE0000000000055204D61783A202032302E30DE
:105DF0003030305655204D696E3A202020302E30FC
:105E00003030305600000000552041646A3A2020AE
:105E100020312E3030303030492041646A3A202021
:105E200020312E30303030300000000055415254C7
:105E30003A202020204144523A2020204C4F474D08
:105E40003A2020202020424C3A2020200000000050
:105E5000080300200A480C49007810F003020948A2
:105E6000C06F0BD0012A07D0022A03D0032A00D129
:105E7000086170474861704788617047C861704722
:105E8000250000207C020020000900200A480C495F
:105E9000007810F003020948806F0BD0012A07D068
:105EA000022A03D0032A00D1086070474860704777
:105EB00088607047C8607047240000207C02002082
:105EC00000090020FEE7000010B5032140F6A6609F
:105ED00000F026F902494CF6CC40086010BD0000E5
:105EE0000030004000487047AC03002002E008C8C2
:105EF000121F08C1002AFAD170477047002001E044
:105F000001C1121F002AFBD17047000000EB800086
:105F1000810003480844816821F0010181607047D5
:105F20000000024000EB80008100034808448168C3
:105F300041F0010181607047000002400A4B00EB14
:105F4000800103EB81018A6822F001028A6000224D
:105F50008A60CA600A614A61596882000F209040D5
:105F6000014359607047000000000240034A536833
:105F7000800081400B4353607047000000000240E6
:105F8000044A1268800081400A4201D00120704713
:105F900000207047000002402DE9F0470C460AA996
:105FA000DDE9086991E820050746FFF7AFFF07EB39
:105FB000870081001748084404614661C0F80C80DE
:105FC000816842EA090221F47C514AEA0104224331
:105FD0008260D9B20129816813D021F0400181602B
:105FE000E9B2012981680FD021F080018160C5F3F9
:105FF0000721002981680AD041F010018160BDE8C5
:10600000F08741F04001EAE741F08001EEE721F03E
:106010001001F3E700000240034A00EB800002EBAE
:10602000800041617047000000000240034A00EB1D
:10603000800002EB800089B2C1607047000002401E
:10604000F0B506464FF470270D46384600F038F894
:1060500000280CD1064C206940F0010020613580F9
:10606000384600F02DF8216921F001012161F0BDD1
:10607000002002400248016941F08001016170473F
:106080000020024070B505464FF47026304600F0FF
:1060900017F8002810D1094C206940F00200206157
:1060A0006561206940F040002061304600F008F84A
:1060B000216921F00201216170BD00000020024031
:1060C00000B5034600F008F85B1E012802D1002B42
:1060D000F8D1042000BD000008490020CA68D2079A
:1060E00001D001207047CA68D20601D5032070474D
:1060F000C9684907FBD50220704700000020024014
:1061000004480169090603D5034941600349416018
:10611000704700000020024023016745AB89EFCDA6
:1061200030B5124A104B45F255551C461560D568DE
:10613000641E05F0010502D0002DF8D100E04DB934
:106140005160D1685B1E01F0020102D00029F8D134
:1061500002E009B1002030BDC0F30B0090604AF6A8
:10616000AA201060012030BDFFFF0F00003000406A
:10617000F0B5036A446A002501260F2706FA05FCDC
:106180001CEA020F09D04FEA850C07FA0CFE23EA3D
:106190000E0301FA0CFE4EEA03036D1CADB2082D8E
:1061A000ECD3082506FA05FC1CEA020F0BD04FEAD7
:1061B000850CACF1200C07FA0CFE24EA0E0401FA5F
:1061C0000CFE4EEA04046D1CADB2102DEAD303623E
:1061D0004462F0BD81627047816170470AB181619C
:1061E0007047816270470000144A10B5811A9042CE
:1061F0001CD008DCB0F1904F15D01149C8421BD11A
:1062000040F6122407E0B1F5806F12D0B1F5406F6F
:1062100012D140F61624204600F006FC2046BDE8C8
:10622000104000F0F3BB40F61124F4E740F61324CD
:10623000F1E740F61424EEE710BD00000008004826
:1062400000FCFFB70069084000D0012070472DE92D
:10625000F047894601689246C268002401274FF042
:10626000030C07FA04F51D420BD066000CFA06F584
:10627000A943AA4309FA06F80AFA06F548EA010111
:106280002A43641CA4B2102CEBD30160C260BDE8A9
:10629000F0870000F0B50129416831D09943416091
:1062A000816801270325A2F57F44FF3C13D0002419
:1062B00007FA04F61E4208D0660005FA06FC21EA39
:1062C0000C0102FA06FC4CEA0101641CA4B2102C79
:1062D000EED38160F0BDC66B5FF0000407FA04F2F4
:1062E0001A4206D04FEA440C05FA0CFC4CEA0101B4
:1062F0001643641CA4B2102CF0D38160C663F0BDB9
:106300001943CCE70348C06910F0060001D04FF0F4
:10631000FF30704700200240FCF7A0FCFCF718FF9C
:10632000FCF76AFEFCF782FEFDF798FD18B9FDF751
:1063300081FFFEF7F7FAFDF731FFFFF759FAFFF794
:10634000C3FD724864210068B0FBF1F0401EB0F15B
:10635000807F16D24FF0E02148616D4AF02082F82C
:10636000140D4FF00008C1F81880072008614FF0A5
:10637000904601213046FFF765FF664D664C08B137
:1063800005E0FEE702213046FFF75CFF28B101215E
:106390003046FFF757FF18B108E0FDF74BFF1EE04E
:1063A00002213046FFF74EFF012806D0012130467A
:1063B000FFF748FF012804D013E0208920F4407043
:1063C00009E002213046FFF73DFF50B9208920F453
:1063D000407000F580702081C0F301206871FEF7E5
:1063E000A1FA68794D4F4AF6AA2610B1012865D165
:1063F0001AE0FDF7B5FBFDF7A3FBE089000B207069
:106400002078042801D984F80080E089C00755D09D
:106410000520FCF741FD202241A14A48FBF7E2FE9E
:106420000520FDF7D3FB45E0FFF7BAF9FDF7D0FFF4
:10643000FEF786F83E600020FEF754F8E089C0F3CE
:10644000032020702078072802D82078052801D260
:1064500005202070E089C00730D03B4820223BA1B6
:10646000E865FBF7BFFE38482022203040A1E865F0
:10647000FBF7B8FEE96D12201531FEF715FBE96D4B
:1064800007201831FEF710FBE96D1D201B31FEF7C8
:106490000BFB2D48202240303EA1E865FBF7A2FE11
:1064A00029482022603029A1E865FBF79BFE0520E2
:1064B000FDF720F86420FCF7EFFC3E603E48FCF757
:1064C0001FFC08B13E60FDE7E0893C49C0F30310C2
:1064D000085CFFF7CFF9FDF7D7FA00BF02F0D6FF4F
:1064E00002F06AFC02F00EFC03F098F903F0FAF9EE
:1064F00002F0A2FD02F0BCFF02F0C8FC02F094FB27
:1065000002F01EFD3E60FCF719FEE7E7FC020020EA
:106510000FE000E07C020020C80E002000300040A8
:106520002055494D657465722056332E3020202049
:10653000206279204543484F2053747564696F2069
:1065400000000000C00900200803002020202020B7
:10655000202020202020202020202020202020203B
:1065600020202020202020202020202000000000AB
:106570002055494D657465722056332E30202020F9
:10658000204657207631372E31302E3236202020CB
:1065900000000000206279204543484F2053747565
:1065A00064696F202020202020202020202020200F
:1065B0002020202000000000ACF7FF1F72AC000874
:1065C00030B51E4D002423462D6805F4E065B5F571
:1065D000A06F12D006DCB5F5407F14D0B5F5806F02
:1065E00012D10DE0B5F5C06F04D0B5F5E06F0BD159
:1065F000042309E00124032306E00224234603E0E8
:106600000324012300E00424C4F10404A140C3F1E5
:1066100004040F23E34013400B4300F1E02219016F
:1066200082F8001400F01F0201219140400980000F
:1066300000F1E020C0F8001130BD00000CED00E0DA
:106640000249084302490860704700000000FA054B
:106650000CED00E0094B08495A7841F82200521C21
:1066600002F003005870D1E900021044D1E9022180
:106670001144084480107047B80E00207C020020AE
:1066800070B5252231A13A48FCF7A2FB38493948B8
:1066900008310E460068FEF707FB374C344994F882
:1066A00046001D3140B20D464034FEF701FC304833
:1066B00003F0FCF9252231A12D48FCF789FB38486D
:1066C00031460068FEF7F0FA207A294640B2FEF71C
:1066D000EFFB274803F0EAF9252232A12448FCF712
:1066E00077FB394831460068FEF7F0F93748204912
:1066F0001A310068FEF7EAF91D4803F0D7F92522A0
:1067000033A11B48FCF764FB3A4831460068FEF7AA
:10671000DDF9174960891B31FEF710FC144803F0BE
:10672000C5F92B2234A11248FCF752FB1049A0886E
:106730001331FEF7BDFB0E4920682031FEF7B4FA95
:10674000BDE870400A4803F0B1B90000205520416F
:10675000646A3A20313233343536373820202055B8
:10676000205A65726F3A20202031323334350A00C6
:1067700080090020F4020020000900202049204167
:10678000646A3A2031323334353637382020204994
:10679000205A65726F3A20202031323334350A0096
:1067A000F80200202055204D61783A2031323334F0
:1067B0003536375620202055204D696E3A2031322B
:1067C0003334353637560A00DC020020E002002060
:1067D0002055204879733A203132333435363756D4
:1067E00020202043686B4E756D3A203132333435AA
:1067F00036370A00B00200202037356D5620534846
:10680000554E542052616E67653A2031323334352B
:1068100041204761696E3A2039392E393939393981
:106820000A0000002DE9F04760A688B06ACE8DE826
:106830006A005FA38046D3E90013CDE904135CA38B
:106840000020D3E90013CDE906135C4B0446024651
:1068500059685B4EC1F3810119B1012901D00229A8
:1068600001D0314623E059685D68C1F38341C5F327
:10687000C067DD6AED0F0FB1113100E0891C05B171
:106880001F315D68DF6AC5F30045C7F3807765B1E6
:10689000DD6A05F00F056D1C27B14A4FB7FBF5F512
:1068A000694304E0B6FBF5F5FAE7474D69435D68D7
:1068B000C5F303151DF8057021FA07F55F680DF1A2
:1068C000100CC7F302271CF8077025FA07F95F6858
:1068D0000DF1180CC7F3C2274FF4004A1CF80770DB
:1068E00025FA07F7B8F1070F06D2DFE808F0040829
:1068F0000A0C0E3C4400084608B0BDE8F087284664
:10690000FAE74846F8E73846F6E7186BC00506D4BC
:10691000186BC00301D42D4C23E02D4C21E05868A6
:10692000C0F38131186BC00F31B1012909D00229A0
:106930000ED0032915D110E008B1032003E07C0834
:106940000FE018B10520B7FBF0F40AE0BC0808E03E
:1069500008B10720F7E70620F5E708B10920F2E7BC
:10696000FC082046C8E7186B400602D448F2120023
:10697000C2E75046C0E7186B80070ED0186B00F0D6
:10698000030001280BD0186B00F00300022808D088
:10699000186BC043800706D006E03A4604E00A467A
:1069A00002E0524600E032461046A5E70000000033
:1069B000000000000102030406070809001002405D
:1069C00000127A00006CDC0200093D00809FD500B7
:1069D000003FAB01054901EB90110A6800F01F036D
:1069E0000120984002430A607047000000100240F6
:1069F000054901EB90110A6800F01F03012098403F
:106A000002430A607047000000100240054901EB94
:106A100090110A6800F01F030120984082430A6029
:106A20007047000000100240054901EB90110A6810
:106A300000F01F030120984002430A6070470000E5
:106A40000010024004490A6B22F003020A630A6B39
:106A500002430A6370470000001002402DE9F0472E
:106A60002E48314B31498569DFF8B4C02D4A0C7886
:106A70001E69AF0307D5C667664501D3C2671A61B1
:106A800044F003003EE014F00308284C4FF69B7AD4
:106A9000247824F0030404F1010735D0DFF8909046
:106AA000B8F1010F1FD0B8F1020F0DD0B8F1030FEC
:106AB00008D1C667664501D3C2671A614D4501DD3D
:106AC000A41C0C70BDE8F0875C69C467644501D301
:106AD000C2675A614D4500DD0F705545F2DA0878FE
:106AE00040F003000EE09E69C667664501D3C267A9
:106AF0009A614D4500DD0C705545E3DA087820F0C9
:106B00000300801C0870DDE7DC69C467644501D3BD
:106B1000C267DA615545D5DA0F70D3E77C020020F1
:106B200080969800A0860100000900202500002022
:106B30009BFF01002DE9F0472E48314B3149456953
:106B4000DFF8B4C02D4A0C781E68AF0307D58667FE
:106B5000664501D382671A6044F003003EE014F0FA
:106B60000308284C4FF69B7A247824F0030404F1A0
:106B7000010735D0DFF89090B8F1010F1FD0B8F1C0
:106B8000020F0DD0B8F1030F08D18667664501D317
:106B900082671A604D4501DDA41C0C70BDE8F087CA
:106BA0005C688467644501D382675A604D4500DDA7
:106BB0000F705545F2DA087840F003000EE09E6849
:106BC0008667664501D382679A604D4500DD0C708B
:106BD0005545E3DA087820F00300801C0870DDE7F3
:106BE000DC688467644501D38267DA605545D5DA8D
:106BF0000F70D3E77C02002080969800A0860100E9
:106C000000090020240000209BFF010000294168AA
:106C100003D021F001014160704721F00201FAE741
:106C20000029416803D041F001014160704741F003
:106C30000201FAE7016841F0400101607047C1605C
:106C400070478068084000D001207047026802F455
:106C500041530A681A434B6813438A681A43CB6846
:106C600013430A691A434B69896913431943016045
:106C7000C16921F40061C16170470000054900202D
:106C8000086005490860054908600549086005492C
:106C900048617047C0020020C4020020B8020020F2
:106CA000BC020020C80E002070B56C4D686800283A
:106CB0007AD06BA1FBF784FA6B4E6C4C88B1A86854
:106CC00050B110220021FBF7C3FAE18860F3000104
:106CD000E180E088A6F86000E08800F0010164A08F
:106CE0007DE066A16868FBF76BFAB0B1A868002880
:106CF00059D010220021FBF7ABFAE18960F30711AC
:106D0000E181E0895F49C0F30310085CFEF7B2FD42
:106D1000E089C0F303115CA05AE05EA16868FBF74C
:106D20004FFAC0B1E088800701D55BA01CE0A868DD
:106D3000002838D00A220021FBF78AFA02005F48B7
:106D40004FF4007103D0BDE87040FFF743BABDE8CF
:106D50007040FFF741BA5AA16868FBF731FAA8B151
:106D6000E088800704D557A0BDE8704002F09EBEC1
:106D7000A868002817D00A220021FBF769FA010051
:106D80004FF090404FF00401E1D1DCE756A1686874
:106D9000FBF716FA48B1A868002804D00A2200219F
:106DA000FBF756FA606170BD55E051A16868FBF7CA
:106DB00007FAC0B1A86870B10A220021FBF748FAAF
:106DC000E18960F38301E181E089C0F3810149A099
:106DD00002F04AFE31E0E089C0F3810151A0BDE834
:106DE000704002F041BE52A16868FBF7E9F9002843
:106DF00031D0A86828B30A220021FBF729FAC1176D
:106E000000EB517121F00701401A05B2042D08D89A
:106E1000E08965F30F30E081E089010B46A002F0C4
:106E200023FE681F022808D8E08965F30B20E08163
:106E3000E089C0F303214EA0CAE7E089A6F8680004
:106E4000B1E7E089C0F30322E089BDE87040010B9F
:106E500054A002F009BE5AA086E7000004000020FA
:106E60006563686F0000000000090020C80E002064
:106E7000204543484F3D25640A000000626B6C7456
:106E80000000000072AC000820424B4C543D2564C9
:106E90000A0000006C6564002073657420414C4159
:106EA000524D20746F20302066697273742C2061FB
:106EB000626F7274696E672E2E2E0A0000040048FD
:106EC0006D6F73002073657420414C41524D3D300D
:106ED0002066697273742C2061626F7274696E67C8
:106EE0002E2E2E0A0000000074696D65000000005F
:106EF0006469720020736574204449523D25642002
:106F00007361766520616E64207265626F6F7420B4
:106F1000746F206170706C79206368616E67652E94
:106F20002E2E0A00204449523D25640A000000002C
:106F30006D656E750000000020736574204D454E30
:106F400055313630323D2564207361766520616E9F
:106F500064207265626F6F7420746F206170706C52
:106F600079206368616E67652E2E2E0A000000008E
:106F700020736574204D454E553134343D256420D1
:106F80007361766520616E64207265626F6F742034
:106F9000746F206170706C79206368616E67652E14
:106FA0002E2E0A00204D454E55313630323D256497
:106FB000204D454E553134343D25640A0000000013
:106FC0006374726C205B6563686F7C626B6C747C4D
:106FD0006C65647C6D6F737C74696D657C646972CB
:106FE0007C6D656E755D205B706172616D5D2044C6
:106FF000657669636520436F6E74726F6C2E0A004C
:10700000F8B50020394CADF800000546606800284E
:1070100069D037A1FBF7D4F878B3A06800282BD04B
:1070200010220021FBF74CF9C6B2E06840B11022F3
:107030000021FBF745F984B2A4F10800392812D3E6
:10704000402412E0680703D139462BA002F00CFD62
:10705000B8B26946FCF70AF8BDF8001029A002F0A2
:1070600003FD6D1CADB2A54202D277193F2FE9D3C3
:1070700026A000BF02F01AFDF8BDFFE724A160685A
:10708000FBF79EF8E8B1A0680028F5D0E168002978
:10709000F2D010220021FBF713F9C5B21022002113
:1070A000E068FBF70DF984B221462846FCF73AF870
:1070B000214619A002F0D8FC29461CA002F0D4FCFD
:1070C000DAE721A16068FBF77BF818B1FBF7AEFFA8
:1070D0001FA0CFE725A16068FBF772F818B1FBF796
:1070E000CDFF24A0C6E72948C4E700000400002023
:1070F00072656164000000000A3078253034582041
:107100002000000025303458200000000A00000054
:1071100077726974650000002077726974652030A9
:10712000782530345820746F0000000020656570A9
:10713000726F6D20616464726573732030782530DE
:107140003458202E2E2E0A006C6F6164000000005F
:107150004C6F61642066726F6D20496E742E2045FD
:107160004550524F4D2E2E2E0A0000007361766559
:10717000000000005361766520746F20496E742E04
:1071800020454550524F4D2E2E2E0A0008B80008BB
:10719000F8B51D4D0024686800282ED0102200216B
:1071A000FBF78EF8B0F5803F01D34FF6FF7006462F
:1071B000A86850B110220021FBF782F8C5B2FF2D5C
:1071C00001D3FF2502E0082D12D28025200703D12C
:1071D00031190EA002F048FC301980B20122694634
:1071E000FBF796FE50B10CA002F060FC641CE4B208
:1071F000AC42EBD309A002F059FCF8BD9DF8001099
:1072000007A002F031FCF1E7040000200A307825E5
:107210003034582000000000464620000A000000DC
:1072200025303258200000007CB5144D68680028D5
:107230001AD010220021FBF743F80446B0F5803F36
:1072400012D2A86800280FD010220021FBF738F8CE
:1072500005468DF80000A0B201226946FBF79CFEAE
:1072600018B107A002F022FC7CBD294608A002F05C
:10727000FBFB21460BA002F0F7FB7CBD04000020C5
:1072800020493243204572726F72210A00000000CB
:107290002077726974652030782530325820746FF9
:1072A0000000000020656570726F6D20616464727B
:1072B00065737320307825303458202E2E2E0A0026
:1072C0002DE9F04777A002F0F1FB7948012600781C
:1072D00000F0030106FA01F03030C0B202F0CEFB3C
:1072E00074A002F0E3FB764874490068FDF79CFE49
:1072F000724C74482025A571E11D0068FDF7E6FB7E
:107300005620A0737048E57304F110018A460068A6
:10731000FDF724FBDFF8B481B8F808006D2700F012
:107320000300012800D167755720A0754FF00009B0
:1073300084F81790614802F0B9FB65485F4900681E
:10734000FDF7FCFD052263A1E01DFBF741FD5B4855
:1073500002F0ACFB60A002F0A9FB6248007800F0EC
:10736000030086403036F0B202F088FB51A002F0F4
:107370009DFB5D4851490068FDF756FE5B48A571CD
:10738000E11D0068FDF7A2FBB8F80800464600F0D2
:107390000300012800D167734120A0735448E573AE
:1073A00051460068FDF7DAFA308900F00300012841
:1073B0004FD05220A07584F81790404802F076FB19
:1073C0004C483E490068FDF7B9FD052241A1E01D8A
:1073D000FBF7FEFC394802F069FB0A2246A1374858
:1073E000FBF7F6FC4748354900880A3180B28846E9
:1073F000FDF700FE4448A573304900880F3100B204
:10740000FDF7D8FC2D480322143040A10546FBF7B8
:10741000DFFC3F4829490088173100B2FDF7CAFC5C
:10742000264804223BA11C30FBF7D2FC234802F083
:107430003DFB032238A12148FBF7CAFC3748E11C79
:107440000068FDF743FB308900F00300012802D0FB
:1074500002E06B20AEE76772032231A14046FBF7E2
:10746000B7FC304815490D310068FDF72FFB308916
:1074700000F00300012800D1E77402222AA1284667
:10748000FBF7A6FC70690D491631FDF757FD0B4857
:10749000042226A11D30FBF79BFCBDE8F0470748FE
:1074A00002F004BB20553A205047413D0000000047
:1074B000240000202041443D307800008009002055
:1074C00090020020A0020020C8020020C80E002068
:1074D0009802002075560A0020493A205047413D45
:1074E000000000002500002094020020A4020020DB
:1074F000CC0200209C02002020543A205241573DEB
:107500003078000084020020880200204320200000
:107510008C020020430A000020503A00B8020020EC
:1075200041682000BC02002057680000730A000078
:1075300070B50C4D0024281F0678761F0EE000BFA2
:1075400004EB440005EB80018A682AB14A6855F8CB
:10755000201005A002F088FA641C24B2B442EFDBCC
:1075600070BD0000909C0008202573202D3E202532
:10757000730000002DE9F05FD04DD14ED14F686807
:10758000DFF84483D14C06F10A0B06F10C0906F131
:107590000D0A002879D0CEA1FAF712FEC8B1A8686A
:1075A00048B10A220021FAF78BFE00F00101208980
:1075B00061F3010020811822C6A1C148FBF708FC35
:1075C000208900F00300FCF70DF801460822504620
:1075D00020E0C6A16868FAF7F3FDF8B1A86860B1C9
:1075E0000A220021FAF734FE00EBD07121F00101EC
:1075F000401A218960F3092121811422BCA1B048DD
:10760000FBF7E6FB2089C0F30120FCF707F80146F1
:1076100007225846FBF7DCFBA948C7E0B9A1686818
:10762000FAF7CEFDE0B1A86860B10A220021FAF7AE
:107630000FFE032190FBF1F201FB1200218960F3A0
:107640000D3121811422B1A19D48FBF7C1FB208996
:10765000C0F30130FBF7F8FF014605224846D9E7A1
:10766000AFA16868FAF7ACFD38B3A868C0B10A22C8
:107670000021FAF7EDFD618960F3070161816089FE
:10768000C0B2F72802D9F72006E093E0608910F035
:10769000FF0F10D06089C0B2618960F3070161817A
:1076A0001322A1A18648FBF793FB60895146C0B223
:1076B000FDF74EFBB0E70120EEE7A0A16868FAF7FE
:1076C0007FFDB0B1A86838B10A220021FAF7C0FDE9
:1076D000E18860F34101E18014229AA17848FBF728
:1076E00077FBE088800701D5312000E03020307240
:1076F00092E797A16868FAF763FDE8B1A86848B116
:107700000A220021FAF7A4FDFEF7E0F8618960F390
:107710000F216181162290A16948FBF759FB60890E
:107720003978000AB0FBF1F201FB120158F8210090
:107730004946FDF703FC6FE78DA16868FAF740FD45
:10774000002832D00020FFF76DF8014689A002F032
:107750008BF90120FFF766F801468BA002F084F94F
:107760000220FFF75FF801468CA002F07DF90320AC
:10777000FFF758F801468EA002F076F90420FFF7D3
:1077800051F801468FA002F06FF90520FFF74AF883
:10779000014691A002F068F90620FFF743F8BDE822
:1077A000F05F014691A002F05FB995A0BDE8F05FDF
:1077B00002F07CB992A002F079F9182245A1404864
:1077C000FBF706FB208900F00300FBF70BFF0146E7
:1077D00008225046FBF7FCFA394802F067F91422F8
:1077E00043A13748FBF7F4FA2089C0F30120FBF7E7
:1077F00015FF014607225846FBF7EAFA304802F027
:1078000055F9142241A12E48FBF7E2FA2089C0F372
:107810000130FBF719FF014605224846FBF7D8FA6D
:10782000274802F043F9202285A12548FBF7D0FA2A
:1078300060895146C0B2FDF78BFA60893978000A39
:10784000B0FBF1F201FB120158F821001C4916317E
:10785000FDF774FB1A4802F029F9142239A11848DF
:10786000FBF7B6FAE088C0F34000303030721448BD
:1078700002F01CF91A227AA11148FBF7A9FA208913
:10788000C0F30110FBF7FEFE01460722F01DFBF7D7
:107890009FFAE08800F0010030307075084802F06F
:1078A00005F9132274A10648FBF792FAE08977499B
:1078B000C0F303100968085CB073ADE60400002053
:1078C00080090020889C0008589C0008C80E0020F1
:1078D0006465760020446576696365547970653A1D
:1078E0002031323334353637380A00006C63640097
:1078F000204C6364547970653A2031323334353624
:10790000370A000070726F62650000002050726FCD
:107910006265547970653A2031323334350A00009B
:107920006164647200000000204D6F6462757341F1
:107930006464723A203132330A000000616C617273
:107940006D00000020414C41524D3A20310A0000A8
:107950006261756400000000204D6F6462757342BF
:107960006175643A203131353230300A0000000050
:107970007263630020434B5F5359532020203D2006
:10798000256C640A0000000020434B5F4148422000
:1079900020203D20256C640A0000000020434B5F3E
:1079A0004150423120203D20256C640A0000000037
:1079B00020434B5F4150423220203D20256C640A19
:1079C0000000000020434B5F4144432020203D2025
:1079D000256C640A0000000020434B5F43454320B0
:1079E00020203D20256C640A0000000020434B5FEE
:1079F0005553415254203D20256C640A000000007C
:107A000020696E666F205B6465767C6C63647C7055
:107A1000726F62657C616464727C616C61726D7CA2
:107A2000626175645D20446973706C61792F536580
:107A3000742073797374656D20496E666F2E0A0029
:107A4000204D6F64627573416464723A2031323341
:107A500020426175643A203131353230300A0000FD
:107A600020554152543A20313233343536370A20CA
:107A70004543484F3A580A00204261636B4C69679E
:107A800068743A20307846200A0000001800002070
:107A900070B53B4C606800286BD03AA1FAF790FBB8
:107AA000394D58B1A068002817D00A220021FAF7F2
:107AB000CFFB2860BDE87040FEF7CCB933A1606809
:107AC000FAF77EFB334E48B1A068002805D00A22A1
:107AD0000021FAF7BDFBA6F8480070BD2EA1606832
