:020000040800F2
:10200000300A002039740008FD700008FF700008D5
:1020100000000000000000000000000000000000C0
:102020000000000000000000000000000171000836
:1020300000000000000000000371000805710008A6
:1020400069740008000000006974000869740008E1
:1020500069740008697400086974000869740008EC
:1020600000000000457100086974000869740008E8
:1020700069740008697400086974000800000000B1
:102080006974000800000000000000006974000886
:1020900069740008697400086974000869740008AC
:1020A0006974000869740008697400080771000801
:1020B000697400080348854605F086FB0048004720
:1020C0007D690008300A0020020F7349012A0AD0F6
:1020D000022A0A6B0BD003239B049A430A630A6B00
:1020E00002430A6370470A6B92089200F6E70323E3
:1020F0001B04F2E7F8B5684D0446686800210C221D
:10210000664E104005D0042803D0082803D00C28C0
:102110001AD026601AE06968686803228902D2032F
:102120000F0F1040BF1C00280AD0E86A0107090FF2
:102130003046491C05F0ACF978430146216005E0C2
:10214000574839464143F9E7564820606868564F7A
:102150000006000F3B5C20680246DA4062606B6854
:102160005B055B0FFB5CDA40A2602B6BDB0501D4E7
:102170004E4B05E06B685B0401D4530800E0930804
:10218000E3602B6B5F064A4B03D4494F123727613C
:1021900000E023612F6BFF0601D4666100E06061FF
:1021A0002F6BBF070ED02F6BBF07BF0F012F0BD0B8
:1021B0002F6BBF07BF0F022F08D02F6BFF43BF0746
:1021C00006D006E0A26104E0A06102E0A36100E0A5
:1021D000A6612F6BBF03BF0F0FD02F6BBF03BF0FC5
:1021E000012F0CD02F6BBF03BF0F022F09D02F6B15
:1021F000BF03BF0F032F06D006E0E26104E0E061F9
:1022000002E0E36100E0E6612F6B3F03BF0F0FD0F8
:102210002A6B1203920F012A0CD0286B0003800F47
:10222000022809D0286B0003800F032806D006E09F
:10223000226204E0206202E0236200E02662286B52
:10224000000602D417486062F8BD6162F8BD124A08
:102250000029516901D0014300E081435161704779
:102260000D4A0029916901D0014300E08143916149
:102270007047094A0029D16801D0014300E0814339
:10228000D1607047044A0029116901D0014300E080
:1022900081431161704700000010024000127A0073
:1022A00000093D00006CDC0200010020809FD50089
:1022B00000800000F0B50022012423460D68934001
:1022C0001D409D422AD10D79012D01D0022D12D140
:1022D000876855000326AE40B74387604E79AE400D
:1022E00085682E43866085889D43858085888B79A7
:1022F00093401D438580066855000323AB409E43F1
:1023000006600E790768AE403E430660C6689E438D
:10231000C660CB79AB40C5682B43C360521C102A02
:10232000CBD3F0BD0246128A00200A4200D0012021
:1023300070478161704701857047002A01D0816133
:102340007047018570474B07DB0E9A40C90810B5EE
:1023500089000818016A0F249C40A1430162016AA8
:102360001143016210BD000035480169090603D51B
:1023700034494160344941607047314801698022E5
:102380001143016170472E490420CA68D20701D069
:1023900001207047CA68D20601D502207047C9687B
:1023A0004907FBD50320704700B50346FFF7EBFF55
:1023B00002E0FFF7E8FF5B1E012803D0002B00D1ED
:1023C000052000BD002BF4D1FAE7F0B50B27064637
:1023D0003F043846FFF7E8FF04280FD1184C206966
:1023E000022528432061666120694021084320615D
:1023F0003846FFF7D9FF2169A9432161F0BDF0B547
:102400000B2706463F040D463846FFF7CDFF04284C
:102410000CD10B4C206901210843206135803846DE
:10242000FFF7C2FF2169490849002161F0BD044955
:102430000020C9694907890F00D0012070470000BA
:102440000020024023016745AB89EFCD30B504463B
:1024500000688BB00D464008400020606068032192
:1024600009038843A9680143616020684849EA6814
:102470000840696811432A69024311432160A0683A
:1024800003210902884369690143A1606846FFF797
:1024900031FE4048844201D106980AE03E48844219
:1024A00001D1079805E03D48844201D1089800E039
:1024B000029821680904296800D5400004F0E8FF6B
:1024C0002A6852088A4200D8401C2168090404D5B1
:1024D0000107334A490F10400843A0810BB030BDBB
:1024E0004B21C90101600021416081600C22C16063
:1024F0000261416170470029016802D00122114345
:1025000001E04908490001607047808CC005C00D9A
:10251000704710B50B041C0E01238B40022C02D017
:10252000032C02D002E0001D00E008300168002A00
:1025300001D0194300E09943016010BD0246D26901
:1025400000200A4200D0012070470162704730B578
:102550000A04130E0122144600258C40012B0ED0D4
:10256000022B0ED08368090C2340C0698A401040BA
:10257000002B02D0002800D00125284630BD03687A
:10258000F1E74368EFE70A0C0121914001627047CF
:10259000F3E9FFFF003801400044004000480040DC
:1025A000F0FF000030B5837801210278002B15D0B0
:1025B00094080E4BA400E41823689207D50EFF225E
:1025C000AA40934342789207120EAA401A4322600F
:1025D0000078C006C00E8140054804E0D006C00E59
:1025E000814003488030016030BD000000E400E01D
:1025F00000E100E05C4910B5884202D10121C41419
:102600003AE001218907884206D101210846FFF7F7
:1026100039FE0021012008E05449884208D10121F7
:102620000220FFF72FFE00210220FFF72BFE10BD36
:102630004F49884206D101211020FFF723FE0021D7
:102640001020F2E74B49884206D101212020FFF7F4
:1026500019FE00212020E8E74749884207D1841568
:1026600001212046FFF70EFE00212046DDE7434909
:10267000884209D101210C042046FFF7FAFD002110
:102680002046FFF7F6FD10BD3D49884202D10121E9
:102690004C04F1E73B498842F5D101218C04EBE77A
:1026A00010B50288304B984206D00124A407A042FE
:1026B00002D02E4CA04203D17024A2434C88224366
:1026C0002B4CA04203D0304C22400C892243028084
:1026D0004A68C2620A880285984208D0274A904216
:1026E00005D0274A904202D0264A904201D1897AE9
:1026F00001860121818210BD30B5028C234B1A4026
:102700000284038C8288848B7025AC43A4080D88D6
:10271000A40025431E4C23400C7B2406240C1C43A0
:102720008B781B061B0C23430F4CA04215D1194C70
:1027300023408C7B2406240C1C43174B1C400B7934
:102740001B061B0C2343154C22400C8A2405240C29
:1027500014434A8A1205120C2243828085838968B9
:10276000C163038430BD0000002C01400004004020
:1027700000100040001400400020004000400140D4
:102780000044014000480140FFFC0000FFFE000043
:10279000FFFD0000FFF70000FFFB0000FFCF00007F
:1027A000F0B50168554A11400160002101604160A7
:1027B0008160C1605249524B08390F22984201D1C1
:1027C000486823E04E4CF0231434A04229D04C4DED
:1027D0001C012835A8422BD0494E1D023C36B04280
:1027E0002DD0474F1E035037B8422FD0444F643787
:1027F000B84204D148681A0408E04860F0BD404F70
:102800007837B84204D148680F2212061043F4E723
:102810003C493C4F0839B842D2D03A4A143290422F
:1028200002D148681843E8E7364A2832904202D17C
:1028300048682043E1E7334A3C32904202D148687D
:102840002843DAE72F4A50329042D7D148683043C4
:10285000D3E730B503682C4A0C6A13408A684D6987
:1028600022430C692C4322438C692243CC692243C6
:102870004C6A22438C6A22431A430260CA6842604F
:102880000A6882604968C16030BD0029016802D0D1
:102890000122114301E0194A1140016070470146CD
:1028A0000020CA0002D5174A083A01E0144A083A43
:1028B00012680A4200D001207047C10002D51149B8
:1028C000083901E00E490839486070470146002088
:1028D000CA0002D50B4A083A01E0094A083A1268D0
:1028E0000A4200D001207047C10002D505490839CD
:1028F00001E003490839486070470000FEFF00000E
:1029000008000240080402400F80FFFF08490860E9
:102910007047074948607047054988607047044917
:102920000448086070470249034808607047000087
:1029300000300040AAAA0000CCCC000030B50388CB
:10294000C122920113400A88CC890D892243CC8888
:102950002C4322434C8922438C8922431A43028010
:1029600082881B4B1A408B88134383800A8A028219
:102970000288042349889A4311430180818B154AB8
:102980001140818330BD40220029018801D01143CC
:1029900000E091430180704782880F4B1A4082808B
:1029A00082880A438280704701737047007B7047BA
:1029B000002A828801D00A4300E08A43828070475F
:1029C0000246128900200A4200D001207047000010
:1029D000FFF00000FFF70000FFEF000010B5044615
:1029E0000A2802D10D20FFF7F9FF78494A68002A2A
:1029F00003D01470521C4A6010BD09680029FBD036
:102A00002046884710BD10B5044602E0641CFFF75D
:102A1000E5FF20780028F9D110BDF3B58BB006464C
:102A20003078761C002877D0252802D0FFF7D6FF13
:102A3000F6E7002002903478761C302C02D02D2C42
:102A400002D005E0012000E0022002903478761CDC
:102A5000002705E00A2047433F193478761C303FB1
:102A6000204630380928F5D96C2C01D04C2C05D1E2
:102A700002980421084302903478761C002C4BD035
:102A80002146612C01D32039C9B24F2937D006DC49
:102A9000422932D043292AD0442906D13DE0532986
:102AA00005D0552939D0582939D02046BEE70C9891
:102AB000002420C80C9000E0641C285D0028FBD195
:102AC00002E02020FFF78AFF0298800703D4204607
:102AD000641CB842F5D32846FFF795FF02E020209A
:102AE000FFF77CFF2046641CB84299D2F7E70C98A8
:102AF0000178001D0C90084698E7022000E00820AD
:102B000001900298400701D444290AD00C9A442924
:102B100001CA0C9208D00EE04CE00A20F0E7102029
:102B2000EEE70C9901C90C91002804DA02994042A1
:102B30000822114302910025019904F0A9FCC9B2B1
:102B4000092904D9782C16D007225118C9B204AA31
:102B5000303151556D1C002801D0102DECD3029856
:102B6000000702D52D2151556D1C02982C46C00737
:102B700003D0302002E02722E7E72020089002E07F
:102B80000898FFF72BFF0298800703D42046641CA7
:102B9000B842F5D304A86D1E405DFFF71FFF002D5E
:102BA000F8D102E02020FFF719FF2046641CB8424C
:102BB0009BD2F7E70DB0F0BD0FB410B503A9029892
:102BC000FFF72BFF10BC08BC04B018471001002011
:102BD000FEB505462C460020FF3441340290E080CB
:102BE0000F46019004F0A4FC00682946C05DC43182
:102BF0008006C20E2E46012044360091002A0FD0D6
:102C00000199E0808F556089402823D2384604F02E
:102C100093FC62890146501C009B6081D15419E0ED
:102C2000082F20D00D2F2CD00A2F13D01B2F57D0B8
:102C30001D2F5DD0474A390913685A5C0199E0801D
:102C40008A553907090F5A5C825502212022032038
:102C5000E0808A55A0798006800EE0803E48C08CD6
:102C6000002870D173E0019908228A5520238355EA
:102C700003200221E0808A5560890028EAD0401EA6
:102C80002CE001990D228A5502210A22E180825509
:102C9000608940281ED2009B0021C1546181481EDA
:102CA00028600C20205E8022C10F091849084900C5
:102CB000401AA081C10129480818009904F056FC67
:102CC0000C20205E401CC10F091849084900401A19
:102CD000A081BFE70020FF21043148556081B9E79A
:102CE000A089401E00B2A081002809DA801C06E0FD
:102CF000A089401C00B2A081022801DB801EA081B7
:102D00000C20205E154FC001C1198022009804F0EC
:102D10002DFC009804F037FC60810C20205E80229E
:102D2000C001C119304604F021FC304604F02BFCF0
:102D3000E0808FE728184030007903F082FF029886
:102D4000401CC0B20290E18802988142F2D8FF2074
:102D5000FEBD00003001002040050020400300209F
:102D6000F8B5FF4800250068002844D0FC48FDA1C4
:102D7000C43004F00FFCFC4C0028206019D0F9A1ED
:102D8000002004F007FC6060002812D0F5A10020AC
:102D900004F000FCA06000280BD0F2A1002004F099
:102DA000F9FBE060002804D0EEA1002004F0F2FB63
:102DB0002061EE4F3E1D09E00C2068433158206829
:102DC00004F0C0FB002804D16D1CEDB238788542B8
:102DD000F2D33878854206D20C204543A819806882
:102DE000002800D08047002020606060A060E06084
:102DF000DB4920610860F8BDF7B517460646002498
:102E000021E001980119DAA0FFF7D6FE002560192C
:102E1000315CD9A0FFF7D0FE6D1CADB2102DF6D3FA
:102E200000256019305C014620395E2900D92E202A
:102E3000FFF7D4FD6D1CADB2102DF2D3D0A0FFF77B
:102E4000E2FD1034A4B2BC42DBD3FEBDF8B50024D1
:102E50000503FF27CB4E0137200229183A46C948FF
:102E600002F0A7FF0020315CFF2901D00020F8BD4F
:102E7000401C80B2FF28F6D9641CA4B2102CEBD3FE
:102E80000120F8BDFEB500200090BF480068029008
:102E900023E00146BDA0FFF78FFE00980025000249
:102EA000019000260199280134460F183819FFF7C0
:102EB000CDFF0F21091B8840304386B2FFF72FFD5D
:102EC000641C102CF2D33146B2A0FFF775FE6D1CC6
:102ED000102DE6D30098401C0090B0480088010AED
:102EE00000988142D5D8A84801680298081A810044
:102EF0004118ABA0FFF760FEFEBDFEB5A24900255C
:102F000009680F2700030191009029024418214607
:102F1000A9A0FFF751FEFF2221460132994802F095
:102F200048FF002400263046220196491318C95C48
:102F3000FF2918D000213B1A99403143401C80B230
:102F40008EB21028F1D3FFF7EAFC314691A0FFF7CB
:102F500033FE641CA4B2102CE4D36D1CADB2102D52
:102F600003D20098D1E70121E5E78748016801987D
:102F7000091A8BA0FFF720FEFEBD70B57A4C88B011
:102F8000606800287DD08EA104F0DCFAFF250135B1
:102F900000281CD0A068002851D01022002104F085
:102FA00055FB0646E068002808D01022002104F0F6
:102FB0004DFB84B220460838F92800D32C4622461F
:102FC0003146704802F0F5FE2246314691E07EA17E
:102FD000606804F0B7FA00281ED0A06800282ED040
:102FE0001022002104F032FB0646E068654C002800
:102FF00006D01022002104F029FB2070012200E0FD
:103000002A4631465F4802F014FF217870A0FFF78E
:10301000D3FD314673A01EE079A1606804F092FAF6
:1030200000281BD0A068002809D077A104F08AFAF4
:10303000002806D002F0A8FE75A0FFF7E4FC08B057
:1030400070BD10220021A06804F000FB044602F0CD
:103050000DFF214673A0FFF7AFFDF0E778A1606890
:1030600004F070FA4D4E002812D0A06800280CD051
:103070001022002104F0EAFA318804F009FA084627
:1030800000E03AE0FFF739FFD9E7FFF7FBFED6E7AC
:103090006DA1606804F056FA00282ED0002005903B
:1030A00006903388180A00906948026869480168E8
:1030B00069A0FFF781FD05A802F01CFE6846C37EEB
:1030C000827E417E007E01AC0FC46846C07D0090C8
:1030D0006846837D427D017D6CA0FFF76DFD77A082
:1030E000FFF791FC2A460021264802F025FE2A46D9
:1030F00000212448FFF780FEA1E775A09DE78349E2
:10310000002008608249086082490860824908609E
:1031100082490860824908608249086082490860E3
:10312000824908607047F8B5002069460E4C088057
:103130000546606800280FD021A104F003FA00289A
:103140000BD0A068002809D01022002104F07EFADC
:10315000C6B2E0680028EBE048E10FE10DE10000B5
:10316000F00100202000000018010020C0780008B5
:1031700030782530385820002530325820000000A3
:103180000A00000040040020BC0100200A25303461
:10319000582000002530345800000000380100207D
:1031A0000A746F74616C2074696D65203D20256C14
:1031B000646D730A000000000A25303858200000B2
:1031C0007265616400000000777269746500000038
:1031D0002077726974652030782530325820746FFA
:1031E0000000000020666C61736820616464726591
:1031F000737320307825303858202E2E2E0A000088
:10320000657261736500000063686970000000000A
:10321000206572617365206368697020646F6E65F4
:103220002E0A000020657261736520736563746FF8
:1032300072203078253034582E2E2E0A00000000DF
:103240006D61707300000000696E666F0000000021
:10325000400100203C0100202049443D30782530C9
:103260003458204A454445435F49443D3078253031
:10327000385820536563746F72733D256C642A342B
:103280006B423D25644D420A0000000020556E69E6
:103290007175652049443D25303258253032582516
:1032A00030325825303258253032582530325825A2
:1032B000303258253032580A00000000205346446E
:1032C00050205265676973746572733A0A00000092
:1032D000666C617368205B726561647C7772697487
:1032E000657C65726173655D205B616464725D20FD
:1032F0005B646174615D204F706572617465205319
:10330000504920466C6173682E0A00008801002035
:103310008C010020980100209C01002090010020D9
:1033200094010020A0010020A401002054010020ED
:1033300008D01022002104F089F984B22046083810
:10334000392812D3402412E0680703D13946D5A0AA
:10335000FFF732FCB8B2694601F049FD68460188C2
:10336000D3A0FFF729FC6D1CADB2A54202D277199C
:103370003F2FE9D3D0A0FFF746FBF8BDCF496068E7
:1033800004F0E0F800281DD0A0680028F5D0E1681E
:103390000029F2D01022002104F058F9C5B2102201
:1033A0000021E06804F052F984B22146284601F079
:1033B00017FD2146C2A0FFF7FFFB2946C5A0FFF776
:1033C000FBFBF8BDC9A1606804F0BCF8002803D07D
:1033D00001F0ADFCC7A0CEE7CCA1606804F0B2F864
:1033E000002803D001F0BBFCCAA0C4E7CEA0C2E70E
:1033F000F8B5002503F043FE401C2BD0DA4C606882
:10340000002827D01022002104F020F9060022D045
:10341000FF27A0680137002808D01022002104F0FF
:1034200015F984B2BC4201D8082C0ED23C460CE0FF
:10343000280703D17119CDA0FFF7BEFB9F48715D2E
:103440005038FFF7B9FB6D1CADB2A542F0D39AA07E
:10345000FFF7D9FAF8BDC8A0FAE770B5C24DCA4C5B
:103460006868CA4E8AB0002877D0C9A104F06AF80B
:10347000002812D0A86800280CD00A22002104F0ED
:10348000E5F802F093F8642104F002F881B2218497
:10349000C1A015E0218CCFA012E0D3A1686804F090
:1034A00051F8002810D0A868002807D00A2200216F
:1034B00004F0CCF881B2E184CDA001E0E18CD3A08E
:1034C000FFF77AFB0AB070BDD5A1686804F03AF83E
:1034D000002812D0A86800280CD01022002104F087
:1034E000B5F8C1B2A184D0A0FFF766FBA08C03F0B1
:1034F000B3FDE7E7A18CD5A0E2E7DBA1686804F0A3
:1035000021F8002818D0A86800280BD0102200212C
:1035100004F09CF8C0B2608403F0A7FD0246618C01
:10352000D2A006E0608CC0B203F09FFD0246618C21
:10353000D5A0FFF741FBC5E7D8A1686804F002F801
:1035400000280ED0A868002808D00A22002104F024
:103550007DF801463060D3A0B2E72AE0D7A03168F9
:10356000AEE7DAA1686803F0EDFF00281DD06846D9
:10357000FEF7C0FDD6A00099FFF71EFBD9A0019968
:10358000FFF71AFBDCA00299FFF716FBDFA00399F7
:10359000FFF712FBE2A00499FFF70EFBE5A00599E7
:1035A000FFF70AFBE8A006998AE7ECA0FFF72BFAE1
:1035B00088E7EAA0FFF727FA608CC0B203F055FD58
:1035C000316800900191A38CE28C218CF0A0FFF770
:1035D000F3FA77E7F8B5644D6B4C6868F84E00284D
:1035E0005CD0F8A103F0AEFF37460E37002821D09B
:1035F000A868002815D00A22002103F0EFFF010C73
:10360000218060801C22F0A1304603F0AFFF2088AB
:103610006188000435E201F0FDFDE948FFF7F3F9A8
:10362000F8BD1222EFA1E64803F0A0FF20886188D0
:10363000000431E2F0A1686803F084FF00281BD089
:10364000A86800280FD00A22002103F0C7FF010C50
:10365000218160811C22E9A1D94803F087FF2089DC
:10366000618900040DE21222EBA1D54803F07EFF30
:103670002089618900040FE2ECA1686803F062FF11
:1036800000280CD0A86800280AD00A22002103F0E4
:10369000A5FF010C218260821C22C9E101E2D8E170
:1036A000CEE100000A307825303458202000000098
:1036B00025303458200000000A000000C8310008FE
:1036C0002077726974652030782530345820746F03
:1036D00000000000206164647265737320307825F7
:1036E000303458202E2E2E0A000000006C6F6164CA
:1036F000000000004C6F61642066726F6D204545CC
:1037000050524F4D2E2E2E0A000000007361766538
:10371000000000005361766520746F2045455052CB
:103720004F4D2E2E2E0A0000656570726F6D205B66
:103730006C6F61647C736176657C726561647C77B3
:10374000726974655D205B616464725D205B6461B5
:1037500074615D204F7065726174652045455052FB
:103760004F4D2E0A00000000180100200A30782575
:10377000303858200000000020426164204164720B
:1037800065737321200A00004005002054010020C9
:103790006261756400000000207365742055415219
:1037A00054206261756420746F20256C6430302C65
:1037B00020736176652026207265626F6F742074B5
:1037C0006F206170706C79206E657720626175641E
:1037D0002E0A000020554152542062617564203D3C
:1037E00020256C6430300A006563686F00000000BB
:1037F00020536574204543484F207374617475737A
:1038000020746F2025642E2E2E0A00002045434888
:103810004F20737461747573203D2025640A000085
:10382000626B6C740000000020536574204C4344AC
:10383000204261636B6C6967687420746F20307814
:10384000253032582E2E2E0A00000000204C434412
:10385000204261636B6C69676874203D2030782575
:103860003032580A000000006C6364002053657415
:10387000204C4344205479706520746F20256420C7
:1038800025732E2E2E0A0000204C434420547970BC
:1038900065203D2025642025730A000074696D654C
:1038A00000000000205365742054696D6520746F1A
:1038B000202564732E2E2E0A000000002054696D0E
:1038C00065203D202564732E2E2E0A00726363004E
:1038D00020535953434C4B202020203D20256C641D
:1038E000487A0A002048434C4B2020202020203DCD
:1038F00020256C64487A0A002050434C4B2020203D
:103900002020203D20256C64487A0A002041444351
:10391000434C4B202020203D20256C64487A0A002F
:1039200020434543434C4B202020203D20256C6400
:10393000487A0A002049324331434C4B2020203D35
:1039400020256C64487A0A00205553415254314373
:103950004C4B203D20256C64487A0A00696E666FE6
:10396000205B626175647C6563686F7C626B6C74FC
:103970007C6C63647C74696D655D204F70657261F9
:10398000746520706172616D65746572732E0A00D2
:1039900020424155443D25643030204543484F3D49
:1039A000256420424B4C543D307825303258204C11
:1039B00043443D25732054494D453D2564730A0019
:1039C0004004002075610000205365742055616437
:1039D0006A4120746F2030302E30303030302E2E3F
:1039E0002E0A0000205561646A413A30302E303092
:1039F0003030300A00000000696100002053657417
:103A0000204961646A4120746F2030302E3030309C
:103A100030302E2E2E0A0000204961646A413A306F
:103A2000302E30303030300A000000007562000067
:103A3000F2A1F94803F09AFD208A618A000420E08F
:103A40001222F6A1F44803F091FD208A618A000455
:103A500022E0F7A1686803F075FD00281FD0A86870
:103A6000002811D00A22002103F0B8FD010C2183A7
:103A700060831C22EFA1E84803F078FD208B618B66
:103A8000000440183946C6E51222F1A1E24803F0CD
:103A90006DFD208B618B00044018F11DBBE5F1A08A
:103AA000BCE5F0A0FEF7AFFF4122FEA1DA4803F02B
:103AB0005DFD2088618800044018F11D01F0AAFB1B
:103AC000208A618A00044018D349163101F0A2FB14
:103AD0002089618900044018CF49263101F09AFB02
:103AE000208B618B00044018CB49353193E5F8B544
:103AF000FC4CFD4D6068002878D0FCA103F022FD4D
:103B0000C54E37460F37002819D0A06800280ED0C0
:103B10000A22002103F062FD04B2AC801C22F4A151
:103B200052E001F05BFCBC48FEF76DFFF8BD1222CD
:103B3000F6A1B94803F01AFD0420285E51E0F7A170
:103B4000606803F0FFFC002813D0A068002808D0AC
:103B50000A22002103F042FD04B2AC811C22F0A134
:103B600032E01222F5A1AC4803F000FD0C20285EE3
:103B700037E0F6A1606803F0E5FC002813D0A068E8
:103B8000002808D00A22002103F028FD04B2AC82EC
:103B90001C22EFA118E01222F4A19F4803F0E6FCDA
:103BA0001420285E1DE0A2A1606803F0CBFC002871
:103BB0001AD0A06800280DD00A22002103F00EFDC3
:103BC00004B2AC831C22EDA1934803F0CFFC39462C
:103BD0002046A6E71222F0A18F4803F0C7FC1C2064
:103BE000285EF11D9DE701E0EFA09DE7EEA0FEF746
:103BF0000AFF4122FAA1884803F0B8FC8649042054
:103C0000285E093101F0EAFB83490C20285E173158
:103C100001F0E4FB80491420285E263101F0DEFB30
:103C20001C207D49285E34317BE7F8B5AD4DAE4CA4
:103C30006868794E00287CD0ACA103F083FC314643
:103C40000E31F64F009100282DD0A868002820D012
:103C5000F34D296800291CDD0A22002103F0BEFC77
:103C6000394603F0F3FD2A68D31703F03BFC010C3F
:103C7000218060801C22EB49304603F077FC2088CD
:103C80006188000490E001F0C5FA6348FEF7BBFECE
:103C9000F8BDE44912221C315F4803F067FC20881C
:103CA000618800048BE09DA1686803F04BFC00284C
:103CB00028D0A86800281BD0DB4D2968002917DD13
:103CC0000A22002103F08AFC394603F0BFFD2A686E
:103CD000D31703F007FC010C2181D24960811C221B
:103CE00034314D4803F042FC2089618900045BE0D7
:103CF000CC4912225031484803F038FC20896189B0
:103D000000045CE091A1686803F01CFC002828D046
:103D1000A86800281CD0C54D2968002918DD0A2292
:103D2000002103F05BFC394603F090FD2A68D317AD
:103D300000E049E003F0D6FB010C218260821C22E6
:103D40002EA1354803F012FC208A618A00042BE082
:103D5000122232A1304803F009FC208A618A000453
:103D60002DE033A1686803F0EDFB00282AD0A86895
:103D700000281CD0AE4D2968002918DD0A22002138
:103D800003F02CFC394603F061FD2A68D31703F0D9
:103D9000A9FB010C218360831C2226A11E4803F08D
:103DA000E5FB208B618B0004401800996BE7122221
:103DB00027A1194803F0DAFB208B618B000440181F
:103DC000F11D60E79B4861E79A48FEF71CFE41221F
:103DD00034A1114803F0CAFB208861880004401810
:103DE000F11D01F017FA208A618A000440180A497F
:103DF000163101F00FFA208900041DE1205365748B
:103E0000205561646A4220746F2030302E3030308B
:103E100030302E2E2E0A0000400400202055616410
:103E20006A423A30302E30303030300A0000000024
:103E30006962000020536574204961646A422074FD
:103E40006F2030302E30303030302E2E2E0A0000D1
:103E5000204961646A423A30302E30303030300AC6
:103E60000000000061646A205B75617C69617C759B
:103E7000627C69625D205B61646A5F313030303042
:103E800030785D207365742073616D706C65206798
:103E900061696E2061646A7573746D656E742E0A53
:103EA00000000000205561646A413A30302E303005
:103EB000303030205561646A423A30302E30303034
:103EC00030300A204961646A413A30302E30303057
:103ED0003030204961646A423A30302E3030303020
:103EE000300A000018010020400500207561000024
:103EF0002053657420557A65726F4120746F2031AC
:103F000032333435202E2E2E0A00000020557A65DB
:103F1000726F413A2031323334350A006961000052
:103F20002053657420497A65726F4120746F203187
:103F300032333435202E2E2E0A00000020497A65B7
:103F4000726F413A2031323334350A007562000015
:103F50002053657420557A65726F4220746F20314A
:103F600032333435202E2E2E0A00000020557A657B
:103F7000726F423A2031323334350A00205365746F
:103F800020497A65726F4220746F203132333435A4
:103F9000202E2E2E0A00000020497A65726F423AC8
:103FA0002031323334350A007A65726F205B7561D7
:103FB0007C69617C75627C69625D205B4C53425D0B
:103FC000207365742073616D706C65207A65726F03
:103FD0002061646A7573746D656E742E0A0000004A
:103FE00020557A65726F413A203132333435204999
:103FF0007A65726F413A2031323334350A20557A6E
:1040000065726F423A20313233343520497A657215
:104010006F423A2031323334350A0000A086010065
:1040200060010020C83900086401002070010020F0
:1040300074010020147B000861894018ED4901F0EB
:10404000E9F8208B618B00044018EA490F311AE629
:1040500010B5E94C6068002823D0E84903F072FAF3
:10406000002805D0E6A0FEF7CEFC00F060FE10BDF3
:10407000E2496068203103F065FA002805D0E9A024
:10408000FEF7C1FC03F0F2F810BDEEA1606803F08A
:1040900059FA002805D0EDA0FEF7B5FC03F0F2F8C0
:1040A00010BDF2A0FEF7AFFC10BDF0B5D248D14D67
:1040B000426800265A35F94C89B0002A7CD0F8A114
:1040C000104603F03FFA2F460146803F384608303D
:1040D0000890001D079014300690001D04900029E0
:1040E0006ED0F1480068401C17D0C3488368002B8D
:1040F00064D00A220021184603F0A8FA2188890317
:1041000008180290BC48C068002808D00A22002184
:1041100003F09CFA040002D002E0E4A0D3E00A24F9
:10412000EFA0FEF770FC43E0029840228019810165
:10413000B048263801F03DFEFEF7F1FBAD484021C6
:10414000263801F0F8F9002831D14022F2A12846A2
:1041500003F00CFAA748263801F0E2F9691C01F0D7
:1041600081F9381D01F0DCF929460A3101F07AF9AC
:10417000089801F0D5F92946133100F02DFF079872
:1041800001F0CEF929461C3100F026FF069801F017
:10419000C7F92946253100F01FFF049801F0C0F946
:1041A00029462E3100F018FF2846FEF72CFC761C1D
:1041B000A642B9D309B0F0BDCDE201E0E4A082E0AF
:1041C0008D48ECA1406803F0BDF900287ED0B648C8
:1041D0000068401CA1D088488368002B72D00A2256
:1041E0000021184603F032FA21888903081802904A
:1041F0008148C068002805D00A22002103F026FA71
:10420000040000D10A24DC48FEF7FDFB55E00298CB
:104210004022801981017748263801F0CAFDFEF757
:104220007EFB74484021263801F085F9002843D1EF
:104230005022D249284603F099F96E48263801F0F9
:104240006FF9691C01F00EF9381D01F069F9294672
:104250000A3101F007F9089801F062F92946133193
:1042600000F0BAFE079801F05BF929461C3100F016
:10427000B3FE6048163801F053F92946253100F0A5
:10428000ABFE5C48123801F04BF929462E3100F0A4
:10429000A3FE58480E3801F043F92946373101F0A2
:1042A000E1F854480A3801F03BF92946403101F061
:1042B000D9F82846FEF7A7FB761CA642A7D379E7D4
:1042C00004E0FFE7AEA0FEF79EFB73E74A48B4A107
:1042D000406803F037F900287DD073480068401C1F
:1042E00000D11AE744488368002B72D00A220021CB
:1042F000184603F0ABF921888903081802903E485C
:10430000C068002805D00A22002103F09FF90400AC
:1043100000D10A24A348FEF776FB55E0029840221C
:10432000801981013348263801F043FDFEF7F7FA82
:1043300030484021263801F0FEF8002843D15022B1
:104340008E49284603F012F92A48263801F0E8F889
:10435000691C01F087F8381D01F0E2F829460A319E
:1043600001F080F8069801F0DBF82946133100F0DF
:1043700033FE049801F0D4F829461C3100F02CFEDD
:104380001C48801C01F0CCF82946253100F024FEA1
:104390001848801D01F0C4F829462E3100F01CFE9B
:1043A00014480A3001F0BCF82946373101F05AF8B8
:1043B00010480E3001F0B4F82946403101F052F8AF
:1043C0002846FEF720FB761CA642A7D3F2E602E0C1
:1043D000FFE775A077E7084D7BA1686803F0B2F8A6
:1043E000002805D0304801680029EFD1491EFAE0C5
:1043F000EEE000006604002018010020EC36000802
:10440000204C6F616420706172616D6574657273B8
:104410002066726F6D20454550524F4D2E2E2E0A4C
:1044200000000000205361766520706172616D6547
:104430007465727320746F20454550524F4D2E2E77
:104440002E0A0000726573746F72650020526573E6
:10445000746F72652064656661756C74207061723A
:10446000616D65746572732E2E2E0A007061726123
:104470006D205B6C6F61647C736176657C726573C3
:10448000746F72655D204F70657261746520706134
:1044900072616D65746572732E0A000080050020DC
:1044A00064756D7000000000A8010020206465762E
:1044B0006963652069732062757379696E672C2062
:1044C000706C656173652073746F70206C6F6767C3
:1044D000696E672066697273742E2E2E0A000000C2
:1044E00020202020202020692C20202020742873C8
:1044F000292C20202055412856292C2020204941B4
:104500002841292C20202055422856292C202020C3
:1045100049422841290A00002031323334353637E8
:104520002C20313233343536372C2030302E303099
:1045300030302C2030302E303030302C2030302EA7
:10454000303030302C2030302E303030300A000007
:10455000206C6F672064756D70205B6465632073E9
:10456000746172745D205B646563206C656E5D0AC6
:104570000000000063686100787D00082C7D000861
:10458000206C6F6720636861205B646563207374CF
:104590006172745D205B646563206C656E5D0A000A
:1045A00063686200C47D0008206C6F6720636862E6
:1045B000205B6465632073746172745D205B646565
:1045C00063206C656E5D0A00737461727400000094
:1045D000D1A1686802F0B6FF002806D0D048016873
:1045E000491C00D0E6E50160E4E5CEA1686802F070
:1045F000A9FF00280ED0A868002805D00A220021B3
:1046000003F024F8208002E0C8A0FEF7FCF921881E
:10461000D4A013E0D6A1686802F094FF002810D05F
:10462000A868002805D00A22002103F00FF8208195
:1046300002E0D0A0FEF7E7F92189D9A0FEF7BCFA85
:10464000B8E5DAA1686802F07DFF00280ED0A868FE
:10465000002805D00A22002102F0F8FFA08002E025
:10466000D3A0FEF7D0F9A188DCA0E7E7DEA1686857
:1046700002F068FF002810D0A868002807D00A229E
:10468000002102F0E3FFC007C00F608002E0D8A065
:10469000FEF7B9F96188E0A0D0E7E2A1686802F00E
:1046A00051FF002810D0A868002807D00A22002156
:1046B00002F0CCFFC007C00FE08002E0DBA0FEF7F5
:1046C000A2F9E188E6A0B9E7E8A1686802F03AFF3C
:1046D000002810D0A868002807D00A22002102F084
:1046E000B5FFC007C00F608102E0E2A0FEF78BF9C2
:1046F0006189EDA0A2E7EFA1686802F023FF00281E
:1047000010D0A868002807D00A22002102F09EFFDE
:10471000C007C00FA08102E0E8A0FEF774F9A189EC
:10472000F1A08BE7F3A1686802F00CFF002810D01D
:10473000A868002807D00A22002102F087FFC007DE
:10474000C00FE08102E0EDA0FEF75DF9E189F7A07E
:1047500074E7F948B7E5F848FEF755F9E088E389CA
:10476000A289618901AD0FC560880090A388228964
:104770002188F248FEF720FA1CE5F8B54022F0A1A6
:10478000FC4802F0F3FEFB4CFB48A11D006800F062
:1047900023FC21460F31F9480091006800F01CFC11
:1047A0002146F74818310F46006800F015FCF5481F
:1047B00021460088253180B20E4600F047FBF248C2
:1047C000214600882E3180B20D4600F03FFB204686
:1047D000FEF719F94022EDA1204602F0C7FEF84885
:1047E000A11D006800F0F8FBF6480099006800F091
:1047F000F3FBF5483946006800F0EEFBF34831461C
:10480000008880B200F022FBF1482946008880B27F
:1048100000F01CFB2046FEF7F6F8F8BDF8B528229C
:10482000ECA1D44802F0A2FED648D24C0088A11DCB
:1048300080B200F00BFBF148214600680D3180008A
:104840000F4600F0E3FAD04821460088193180B2C3
:104850000E4600F0FBFAEA4821460068203180004D
:104860000D4600F0D3FA2046FEF7CDF82822E5A148
:10487000204602F07BFED548A11D008880B200F0E2
:10488000E5FAEA4839460068800000F0BFFAD048EF
:104890003146008880B200F0D9FAE5482946006820
:1048A000800000F0B3FA2046FEF7ADF8F8BDE1490C
:1048B00000204B68002B04D00A220021184602F089
:1048C000C5FEDD4C00212160052102F0E1FD2168DB
:1048D0008842FCD8D9A0FEF796F872B6BFF34F8F86
:1048E000DC49DB48C860BFF34F8FFEE770B5DA4E96
:1048F0000024301F0578AD1E0AE020460C214843F5
:1049000081194A683158D5A0FEF756F9641C24B2C3
:10491000AC42F2DB70BD000073746F7000000000E9
:10492000A801002066696C6500000000206C6F67BC
:104930002066696C65205B6465632066696C652030
:10494000696E6465785D20536574206C6F672066BE
:10495000696C6520696E64657828307E37292E0A77
:10496000000000002046494C453D25640A00000037
:104970006D617800206C6F67206D6178205B6465E5
:10498000632066696C65206D61785D2053657420D5
:104990006C6F672066696C65206D61782E0A000077
:1049A000204D41583D25640A00000000696E7400E6
:1049B000206C6F6720696E74205B64656320696E8C
:1049C00074657276616C5D20536574206C6F67202E
:1049D000696E74657276616C2E0A000020494E542F
:1049E0003D25640A0000000072696E670000000047
:1049F000206C6F672072696E67205B307C315D20B0
:104A00005475726E204F6E2F4F66662072696E6706
:104A1000206D6F64652E0A002052494E473D256483
:104A20000A0000006175746F00000000206C6F6761
:104A3000206175746F205B307C315D205475726E1F
:104A4000204F6E2F4F6666206175746F20737461FE
:104A50007274206C6F67206D6F64652E0A00000011
:104A6000204155544F3D25640A00000063726F7366
:104A700073000000206C6F672063726F7373205B9C
:104A8000307C315D205475726E204F6E2F4F6666FC
:104A90002063726F73732066696C65206C6F67208A
:104AA0006D6F64652E0A00002043524F53533D251D
:104AB000640A00007561727400000000206C6F676A
:104AC0002075617274205B307C315D205475726E8C
:104AD000204F6E2F4F66662075617274206C6F6771
:104AE000206D6F64652E0A0020554152543D2564A7
:104AF0000A000000666C617368000000206C6F673C
:104B000020666C617368205B307C315D2054757267
:104B10006E204F6E2F4F666620666C617368206C46
:104B20006F67206D6F64652E0A00000020464C41BF
:104B300053483D25640A0000147C0008107E0008DC
:104B4000204348413A2030302E303030305620302B
:104B5000302E30303030412030302E303030305731
:104B600020553A30783132333420493A3078313276
:104B700033340A004004002060010020640100205A
:104B800078010020480100204A01002020434842CB
:104B90003A2030302E30303030562030302E303009
:104BA0003030412030302E303030305720553A30C0
:104BB000783132333420493A3078313233340A0094
:104BC00070010020740100207C0100204C010020B5
:104BD0004E0100202055613A307831323334203094
:104BE000783132333435362049613A3078313233D6
:104BF000342030783132333435360A005801002001
:104C00005C0100202055623A307831323334203054
:104C1000783132333435362049623A3078313233A4
:104C2000342030783132333435360A0068010020C0
:104C30006C01002018010020BC0100202072656278
:104C40006F6F74696E67202E2E2E200A0000000000
:104C50000400FA0500ED00E0C47800082025732068
:104C60002D3E20257300000070B50E480024017809
:104C70000B4DCB0601880088C9050A0F410ADB0EDF
:104C800009A0FDF799FF6000295A0E48FDF794FF2F
:104C9000641CE4B2062CF6D30BA0FDF7B4FE39E693
:104CA000ACF7FF1FA87900082055494D657465725F
:104CB0004475616C207625642E25642E256420536E
:104CC0004E3A0000943100080A204543484F2053D3
:104CD000747564696F203C6563686F2E786A7475BB
:104CE00040676D61696C2E636F6D3E2E20416C6C68
:104CF00020526967687473205265736572766564C3
:104D00002E200A0010B500203C493D4BFF24240210
:104D1000C201D2181288A24202D10880012010BD1F
:104D2000401C80B20828F3D30020088010BD70B565
:104D30003248334B0178334C4907490F018000203A
:104D4000C90142008D18ED186D88401C80B2A55233
:104D50003F28F6D33F212B4800F005FC70BDF8B585
:104D6000264C00252078284F4007400F2080FDF773
:104D7000FBFA2088224EC00180190021FDF73FFB7D
:104D80002078401C4007400F2080C0018019018816
:104D9000B94203D0FDF719FB002020802088FF21B5
:104DA000C00180190902FDF72AFB3E21154800F0D9
:104DB000DAFB1449134F4031888720886900C0010D
:104DC00042180F48795A801C1018FDF718FB6D1C0B
:104DD000ADB206463F2DF0D3FDF7CFFA3046F8BD11
:104DE000024608461106074AC90D50527047000690
:104DF000044AC00D105A0880704700002C010020A2
:104E0000001C000840050020FFFF00000202130FF5
:104E100010B5F94A1468E35C0B70030314681B0FA8
:104E2000E35C4B70030414681B0FE35C8B70030599
:104E300014681B0FE35CCB7003061B0F126800079E
:104E4000D35C0B71000F105C487110BD10B5EA4ABD
:104E5000030B1468E35C0B70030514681B0FE35C21
:104E60004B70030614681B0FE35C8B70000712681D
:104E7000000F105CC87010BD0206130F10B5DE4A9B
:104E800000071468000FE35C0B701268105C487038
:104E900010BDF8B50C460546D84A2D2139202E26DE
:104EA000954205DC21706070A670E070207191E081
:104EB000002D01DA6D4232E0D04F7F42BD4223DA4D
:104EC000202020707D21C900284602F0F7FA0A212F
:104ED00002F0F4FA30316170A6706421284602F0C5
:104EE000EDFA0A2102F0EAFA3031E1700A2128468F
:104EF00002F0E4FA0D460A2102F0E0FA30312171A5
:104F0000294630316171F8BDBD498D4209DA394613
:104F1000284602F0D3FA0A2102F0D0FA303121708B
:104F2000D0E7B8498D4221DA0A21284602F0C6FAB4
:104F30000546394602F0C2FA0A2102F0BFFA3031C2
:104F400021707D21C900284602F0B8FA0A2102F03A
:104F5000B5FA303161706421284602F0AFFA0A21B7
:104F600002F0ACFA3031A170E670BFE7A6498D427D
:104F70002BDA6421284602F0A1FA0546394602F0F0
:104F80009DFA0A2102F09AFA303121707D21C90080
:104F9000284602F093FA0A2102F090FA303161704B
:104FA0006421284602F08AFA0A2102F087FA303199
:104FB000A1700A21284602F081FA0D460A2102F06A
:104FC0007DFA3031E17026719AE720706070A07030
:104FD000E07026716071F8BDF8B50C460646894947
:104FE000894A39202E25864F002E63DBBE4202DA25
:104FF0002020207063E08E4215DA3946304602F0F8
:105000005DFA0A2102F05AFA3031217057E064212A
:10501000304602F053FA0A2102F050FA3031217181
:10502000A3E0A171F8BD964210DA0A21304602F0E1
:1050300045FA0646394602F041FA0A2102F03EFAE4
:10504000303121706D493046494257E06F498E42F8
:1050500010DA6421304602F031FA0646394602F091
:105060002DFA0A2102F02AFA3031217063493046C4
:1050700049425FE066498E421ADA7D21C900304616
:1050800002F01CFA0646394602F018FA0A2102F02C
:1050900015FA3031217059493046494202F00EFA72
:1050A0000A2102F00BFA303161707D21C9007DE0E8
:1050B00020709AE02D2376422370BE4215DA4F49C4
:1050C0003046494202F0FAF90A2102F0F7F930318C
:1050D00061707D21A570C900304602F0EFF90A2108
:1050E00002F0ECF93031E17091E78E4219DA0A21D1
:1050F000304602F0E3F941490646494202F0DEF942
:105100000A2102F0DBF9303161707D21C90030469F
:1051100002F0D4F90A2102F0D1F93031A170E57022
:1051200075E796422EDA6421304602F0C7F933491A
:105130000646494202F0C2F90A2102F0BFF93031B5
:1051400061707D21C900304602F0B8F90A2102F0F1
:10515000B5F93031A1706421304602F0AFF90A216F
:1051600002F0ACF93031E17025710A21304602F0CD
:10517000A5F90D460A2102F0A1F9303161712946E5
:1051800030314EE721498E422FDA7D27FF00394624
:10519000304602F093F919490646494202F08EF969
:1051A0000A2102F08BF9303161703946304602F045
:1051B00085F90A2102F082F93031A170642130466C
:1051C00002F07CF90A2102F079F93031E1700A210C
:1051D000304602F073F90E460A2102F06FF93031C1
:1051E00021713146657130311BE76070A070E0704D
:1051F00020716571A071F8BD30010020F0D8FFFF6B
:10520000A086010040420F008096980000E1F5055D
:1052100000CA9A3BF8B500260C460546002801DA7C
:10522000761E4542DC49284602F048F90A2102F080
:1052300045F93031CFB22770D849284602F03EF9FF
:105240000A2102F03BF9303161702E20A070D44960
:10525000284602F033F90A2102F030F93031E170CA
:105260007D21C900284602F029F90A2102F026F919
:10527000303121716421284602F020F90A2102F020
:105280001DF9303161710A21284602F017F90D46E7
:105290000A2102F013F93031A17129463031E17150
:1052A000002E01D02D2002E0302FA4D1202020702C
:1052B000A1E770B500260C460546002801DA761EE7
:1052C0004542B749284602F0F9F80A2102F0F6F8FB
:1052D000303121707D21C900284602F0EFF80A2103
:1052E00002F0ECF8303161706421284602F0E6F8F3
:1052F0000A2102F0E3F83031A1702E20E0700A217B
:10530000284602F0DBF80D460A2102F0D7F83031CA
:10531000217129463031617100202021225C302A20
:1053200008D1221852782E2A04D02154401CC0B231
:105330000428F3D3002E05D0002803D02D212018F7
:105340002038C17770BD70B50C460A2102F0B6F85E
:105350000D460A2102F0B2F8303121702946303171
:10536000617070BD70B500260C460546002802DA53
:10537000761E404205B27D21C900284602F09EF803
:105380000A2102F09BF8303121706421284602F096
:1053900095F80A2102F092F8303161700A2128460E
:1053A00002F08CF80D460A2102F088F83031A17025
:1053B00029463031E17000202021225C302A04D1BE
:1053C0002154401CC0B20328F7D3002E05D000287A
:1053D00003D02D2120182038C17770BD70B500266C
:1053E0000C460546002801DA761E45426C492846DF
:1053F00002F064F80A2102F061F8303121707D2159
:10540000C900284602F05AF80A2102F057F8303154
:1054100061706421284602F051F80A2102F04EF82A
:105420003031A1700A21284602F048F80D460A21C1
:1054300002F044F83031E17029463031217100200A
:105440002021225C302A04D12154401CC0B20428FF
:10545000F7D3002E05D0002803D02D2120182038A6
:10546000C17770BD70B500260C460546002801DAEC
:10547000761E45424849284602F020F80A2102F0EB
:105480001DF8303121704549284602F017F80A21ED
:1054900002F014F8303161704149284602F00EF8EC
:1054A0000A2102F00BF83031A1707D21C900284695
:1054B00002F004F80A2102F001F83031E1706421B1
:1054C000284601F0FBFF0A2101F0F8FF303121717D
:1054D0000A21284601F0F2FF0D460A2101F0EEFFF5
:1054E0003031617129463031A17100202021225CC8
:1054F000302A04D12154401CC0B20628F7D3002E14
:1055000005D0002803D02D2120182038C17770BD88
:10551000020E0A7002144A7002128A70C870704734
:1055200001780A064178090411438278C078120292
:105530000A431043704770B50646002219481A4DB9
:105540000EE0B35C58400023C407E40F4008002C71
:1055500000D068405B1C9BB2082BF5D3521C92B262
:105560008A42EED370BD70B5064600220D480E4D3E
:105570000FE05300F35A58400023C407E40F4008DB
:10558000002C00D068405B1C9BB2082BF5D3521C4A
:1055900092B28A42EDD370BD40420F00A086010056
:1055A00010270000FFFF000001A00000164A0021A4
:1055B0008B00D358834202D1880010587047491C91
:1055C00089B20C29F4D3E1204002704710B50E4C8B
:1055D000002291006158814203D9521C92B20C2AD8
:1055E000F7D30C21501C01F053FF88002058E12212
:1055F0004B215202C901904201D9084610BD884290
:10560000FCD2104610BD00007879000870B5BD4D81
:105610000E46044620212846FCF78DFE002E04D0BD
:1056200008212846FCF785FE03E008212846FCF700
:1056300082FE10212846FCF77EFE0A2001F029FD9B
:10564000B2492206B0488A8A01D5024300E082436B
:105650008A826206AE488A8A01D5024300E082430C
:105660008A82A206AB488A8A01D5024300E08243BF
:105670008A82E006888A03D50122D203104301E022
:105680004004400C88820A2001F003FD20212846B6
:10569000FCF74FFE0A2001F0FCFC20212846FCF715
:1056A0004AFE70BDF3B5974C0D4681B020212046CF
:1056B000FCF741FE002D04D008212046FCF739FEFE
:1056C00003E008212046FCF736FE10218D48FCF748
:1056D00032FE0A2001F0DDFC01980F2108438B4CBB
:1056E0000106894DA18A01D5294300E0A943A18281
:1056F0004106874EA18A01D5314300E0B143A18222
:105700008106844FA18A01D5394300E0B943A182C3
:10571000C006A08A03D50121C903084301E0400463
:10572000400CA0820A2001F0B4FC20217548FCF74F
:1057300000FE0A2001F0ADFC20217248FCF7FBFDC1
:105740000198000101460F310906A18A01D52943BC
:1057500000E0A943A1820F2241065206D142A18A4C
:1057600001D5314300E0B143A1820F2281069206A8
:10577000D142A18A01D5394300E0B943A1820F216A
:10578000C006C906C842A08A03D50121C90308433F
:1057900001E04004400CA0820A2001F07AFC594C40
:1057A00020212046FCF7C5FD0A2001F072FC2021D3
:1057B0002046FCF7C0FDFEBD10B5052001F077FCCA
:1057C00000213020FFF722FF052001F070FC0021AE
:1057D0003020FFF71BFF012001F069FC0021302081
:1057E000FFF714FF012001F062FC00212820FFF7E1
:1057F0000DFF052001F05BFC0021282000F07BF864
:105800000021082000F077F80021062000F073F84E
:1058100000210C2000F06FF80021012000F06BF84F
:1058200010BD10B50021012000F065F800203A49B4
:1058300020220A54401CC0B22028FAD310BD70B5F3
:105840000024354D00281FD001282AD0022836D048
:10585000032842D00021802000F04DF8285D01216E
:1058600000F049F8641CE4B2102CF7D30021C020EA
:1058700000F041F81024285D012100F03CF8641C80
:10588000E4B2202CF7D370BD0021802000F033F863
:10589000285D012100F02FF8641CE4B2082CF7D336
:1058A00070BD0021882000F026F80824285D012121
:1058B00000F021F8641CE4B2102CF7D370BD002175
:1058C000C02000F018F81024285D012100F013F822
:1058D000641CE4B2182CF7D370BD0021C82000F07E
:1058E0000AF81824285D012100F005F8641CE4B2D0
:1058F000202CF7D370BD10B5FFF7D4FE0A2001F0BD
:10590000C8FB10BD00040048000100000000004872
:105910000008000000100000C005002010B5974CE2
:1059200080212046FCF705FD40212046FCF701FDC3
:10593000022001F0AEFB80212046FCF7FCFC022097
:1059400001F0A7FB40212046FCF7F5FC002001F008
:10595000A0FB10BD70B5894E054600242846A04026
:105960000006C20F80213046FCF7E7FC002001F062
:1059700090FB40213046FCF7DCFC012001F089FB64
:1059800040213046FCF7D7FC641CE4B2082CE5D378
:10599000002001F07EFB80213046FCF7CAFC00208D
:1059A00001F077FB40213046FCF7C3FC002001F0FA
:1059B00070FB80213046FCF7B5FC044640213046A0
:1059C000FCF7B9FC002001F064FB204670BD70B507
:1059D0006A4E002480213046FCF7ABFC00250020F5
:1059E00001F057FB40213046FCF7A5FC012001F0F7
:1059F00050FB40213046FCF79CFC002001F049FBA5
:105A000080213046FCF78EFC61060C0EC00701D0E9
:105A1000641CE4B26D1CEDB2082DE0D34021304689
:105A2000FCF789FC002001F034FB204670BD70B506
:105A300014460E460546FFF771FF68084000FFF761
:105A400089FF3046FFF786FF200AFFF783FFE0B2A9
:105A5000FFF780FF00F07DF870BD70B514000E46B2
:105A6000054649D0FFF75AFF68084000FFF772FF6C
:105A70003046FFF76FFF00F06CF8FFF74FFF284646
:105A800001210843FFF766FFFFF7A1FF3B4D0646E4
:105A900080212846FCF74FFC002001F0FAFA402153
:105AA0002846FCF746FC012001F0F3FA4021284685
:105AB000FCF741FC002001F0ECFA30022080FFF7F7
:105AC00086FF064680212846FCF733FC002001F0C3
:105AD000E0FA40212846FCF72CFC012001F0D9FA1D
:105AE00040212846FCF727FC002001F0D2FA20884C
:105AF0003043208000F02DF870BDF8B5204A002119
:105B00008020FFF7AAFF1E48072402886402A243F0
:105B10003825AA4380262832FF27B24341373A432B
:105B2000028000213046FFF782FF154A0021921CB7
:105B30008220FFF792FF12480021801C0288A243B6
:105B4000AA432832B2433A4302808220FFF76FFF14
:105B5000F8BD10B5094C80212046FCF7ECFB402134
:105B60002046FCF7E6FB012001F093FA8021204655
:105B7000FCF7DFFB002001F08CFA10BD00040048A8
:105B80003401002070B50926F60610213046FCF7D6
:105B9000D2FB9F2001F0D2F8FF2001F0CFF80504DE
:105BA000FF2001F0CBF804022C43FF2001F0C6F8DF
:105BB0002043054610213046FCF7BBFB284670BD4C
:105BC00070B50925ED0610212846FCF7B4FB90209E
:105BD00001F0B4F8002001F0B1F8002001F0AEF8B7
:105BE000002001F0ABF8FF2001F0A8F80006040C3B
:105BF000FF2001F0A3F8044310212846FCF799FB8D
:105C0000204670BD10B50924E40604212046FCF7A7
:105C100090FB08212046FCF78CFB10212046FCF766
:105C200088FBFFF7CDFFA14C6060FFF7ABFFA060E2
:105C30009F4A6068811A90422AD012DC9D4A811ADC
:105C4000904228D007DC9C49401814D001281AD073
:105C500002281BD11CE0994808180CD0012815D146
:105C600011E0974A881A91420DD007DC012912D021
:105C70009448C1420AD10120400206E0012807D021
:105C8000022803D107E0012080022080002010BDFF
:105C90000120C002F9E701200003F6E710B509244E
:105CA000E40610212046FCF746FB062001F046F8EA
:105CB00010212046FCF73DFB10BD70B50925ED060F
:105CC00010212846FCF737FB052001F037F8FF20AC
:105CD00001F034F8C4B210212846FCF72AFB204614
:105CE00070BD10B501E0FCF71AFEFFF7E6FFC00734
:105CF000F9D110BD70B509260546F606002410211D
:105D00003046FCF718FB4B2001F018F8FF2001F09B
:105D100015F8641CE4B2042CF8D30024FF2001F031
:105D20000DF82855641CE4B2082CF7D31021304636
:105D3000FCF7FFFA204670BDF7B509270646FF06B7
:105D40001546002410213846FCF7F5FA5A2000F0D9
:105D5000F5FF002000F0F2FF002000F0EFFF0198B7
:105D600000F0ECFFFF2000F0E9FF05E0FF2000F06D
:105D7000E5FF3055641CA4B2AC42F7D3102138467D
:105D8000FCF7D7FAE0B2FEBD10B5FFF787FFFFF7CB
:105D9000A8FF0924E40610212046FCF7CCFAC7200E
:105DA00000F0CCFF10212046FCF7C3FAFFF799FF63
:105DB00010BDF8B5044603206B461870080C5870E7
:105DC000080A98700926D970F60615461021304643
:105DD000FCF7B1FA0421684601F060F82946204634
:105DE00000F0E4FF10213046FCF7A3FAF8BDF8B547
:105DF000044602206B461870080C5870080A987008
:105E00001546D970FFF74AFF0926F60610213046DD
:105E1000FCF791FA0421684601F040F82946204633
:105E200001F03CF810213046FCF783FAFFF759FFE8
:105E3000F8BDF8B507460E46FF20C9B20130154639
:105E4000441AAC4200D31446224631463846FFF786
:105E5000CEFFA54209D0281B3F193619FF2485B271
:105E60000134A542F0D82C46EEE7F8BD38B5202223
:105E7000694600030A70020C4A70020A8A70C870F0
:105E8000FFF70CFFFFF72DFF0924E4061021204641
:105E9000FCF751FA0421684601F000F81021204671
:105EA000FCF747FAFFF71DFF38BD0000380100205E
:105EB00016C8000017680000EC97FFFF03A0FFFF63
:105EC000FF26000002D9FFFF10B5FF4CC821A06FCC
:105ED00001F0DEFA002902D12069401C2061322144
:105EE000A06F01F0D5FAF8487C30026800291DD077
:105EF00001291AD002291BD00A2916D1616E491C2A
:105F000013D1F2498A88F2498A420ED001460968C3
:105F100008231943002A07D0A36E92005B1CA366D6
:105F20009A4202D80022A266016010BD102100E052
:105F300004210A43026010BDF8B501F055F9E249A9
:105F4000E24C48700F78002509220326403C3B00B4
:105F500001F094FC0C07121D2E97904C116F419E7E
:105F6000AB11032806D00422042803D0052818D03A
:105F7000062800D10A70F8BD032804D00428FAD0FE
:105F80000528F8D11EE00D70F8BD0870F8BD032893
:105F900007D0042809D0052805D00628F6D10D61C0
:105FA000F8BD0120F1E70E70F8BDFDF7A8F8F8BDC7
:105FB000032807D0042874D00528DBD00628F6D1A2
:105FC0000820E2E70220E0E70020C0430D674866B2
:105FD000F8BD4D66F8BD0328E5D0042804D0052897
:105FE000D1D00628F6D1D0E70520CEE7032807D088
:105FF0000428BFD005280DD00628EBD10A7022E076
:10600000208C64214843FFF7E1FA642101F040FA53
:106010002084F8BDA08CA02801D2203004E0F02814
:1060200001D2103000E0401CC0B2A08401F014F88E
:10603000F8BDA64A032809D004280ED0052808D0A8
:106040000628F5D10E7001F011F9F8BD9088401EB8
:1060500001E09088401C9080F8BD90889C4B98424D
:10606000A1D11088401C80B2108011898842F3D3DE
:106070001580F8BD0328A0D00428FAD00528F8D14F
:1060800078E70328ACD00428F3D00528F1D17AE7CB
:106090000B220328F4D0042887D00528F0D0062846
:1060A000E7D1486E002894D18EE70A220328E7D072
:1060B0000428A5D00528E3D00628C4D0F8BD824A1C
:1060C00010B5921D01218020FFF7C7FC7E4A0221F6
:1060D000121D8020FFF7C1FC7B4A01210A32822079
:1060E000FFF7BBFC784A022108328220FFF7B5FC9B
:1060F000754978488A890368002A17D006240C5FFE
:106100001B19036004240C5F43681B1943600A24B5
:106110000C5F83681B19836008240C5FC3681B191C
:10612000C360521C9006800E888110BD8B6143684D
:106130004B6183688B62C3684B620623CB5E03604E
:106140000423CB5E43600A23CB5E83600823CB5ECF
:10615000C3605D4802247C30036823430360E0E7AA
:1061600010B55948816F491C8167FFF7E5FEFFF7BD
:10617000A6FFFFF7A9FE10BDF8B553487C300168B3
:106180008A077ED502229143504D01604E4C403D1E
:106190000C20285EA169081A810040188111216233
:1061A00028896A890004801801F050FB4A4E0023B8
:1061B000324601F097F920620420285E6169081ACE
:1061C00019214843C111E16128886A8800048018B8
:1061D00001F03CFB3246002301F084F9E0611C2011
:1061E000285EA16A081A8100401881112163288B5A
:1061F0006A8B0004801801F029FB3246002301F06D
:1062000071F920631420285E616A081A1921484335
:10621000C111E162288A6A8A0004801801F016FB25
:106220003246002301F05EF9E0620746E169206A28
:106230002A4D4843294601F041F906466063206B28
:106240002946784301F03AF9A063071E0BD0304687
:1062500029464843394601F031F9E063A84204DD9C
:10626000E56302E00DE00020E063002E0AD01B4948
:1062700038464843314601F021F92064A84200DD48
:106280002564F8BD00202064F8BDF8B50E487C30C8
:106290000168CA0658D5102291430B4C0160206A50
:1062A0007D214843122101F009F9616D47186765A6
:1062B000606B7D214843122101F000F9A16D084E69
:1062C0004018A06575420DE04401002080050020C3
:1062D000FFFF0000E0050020A0860100102700005D
:1062E000C0BDF0FF616C01E0BF19491CAF42FBDC8F
:1062F00067656164A16C01E08019491CA842FBDC60
:10630000A164A065206B7D214843122101F0D6F8DD
:10631000E16D4718E765A06B7D214843122101F02C
:10632000CDF8216E40182066E16C01E0BF19491CD0
:10633000AF42FBDCE765E164216D01E08019491C97
:10634000A842FBDC21652066F8BD70B5FE4CFD4817
:106350002022FEA1206001F009F92546803D216838
:10636000E869FEF739FE2168E86A0831FEF734FE75
:106370002168286A1031FEF72FFE2168286B18313A
:10638000FEF72AFE70BD70B5EF4CEE482022F8A152
:10639000206001F0EBF82546803D2168686BFEF730
:1063A0001BFE2168A86B0831FEF716FE2168E86B1A
:1063B0001131FEF77EFF2168286C1931FEF779FF55
:1063C00070BD70B5E04CDF482022F2A1206001F0E2
:1063D000CDF82546803D2168686CFEF75AFD21689E
:1063E000E86C0831FEF755FD2168A86C1031FEF706
:1063F00050FD2168A86C1831FEF74BFD70BD70B5DB
:10640000D14CD0482022ECA1206001F0AFF8F34934
:106410000420085E2168091DFEF7A4FF25462168B7
:10642000803D1431286FFEF7D9FFED49286901F04E
:106430002FF8642101F02CF8084621680A31FEF794
:1064400082FFE1210901286901F022F8182101F0F9
:106450001FF8084621680D31FEF775FF3C212869B9
:1064600001F016F83C2101F013F8084621681A31B2
:10647000FEF769FF3C21286901F00AF80846216807
:106480001D31FEF760FF70BDF8B5AF4DAD4900247A
:10649000D44E13202960FEF756FF29682E278F70EF
:1064A0000B20C91CFEF74FFF296813204F71891D6F
:1064B000FEF749FF2968A00041186000305A0831F2
:1064C000FEF7C4FC641CE4B2062CF3D3F8BD70B52F
:1064D0009D4C9C482022C4A1206001F047F8BF4D8C
:1064E0002168403D2020285EC91DFEF73BFF216842
:1064F000A88C1E31FEF7C0FC70BD70B5924C91485F
:106500002022C2A1206001F031F8B44D2168A88892
:106510000A31FEF763FF21680820285E1531FEF777
:1065200012FF21680020285E1E31FEF70CFF70BDAF
:1065300070B5854C83482022BDA1206001F016F87B
:106540002546803DA888216880B2FEF77FFCE88858
:10655000216880B2091DFEF779FC2889216880B284
:106560000831FEF773FC6889216880B20C31FEF7B0
:106570006DFCA88A216880B21031FEF767FC288B79
:10658000216880B21431FEF761FCA88C216880B2CA
:106590001831FEF75BFC288D216880B21C31FEF7B4
:1065A00055FC70BD70B5684D66482022A9A12860D1
:1065B00000F0DCFF894C403C2088618800044018D2
:1065C0002968FEF727FE208A618A0004401829689E
:1065D0000831FEF71FFE20896189000440182968F0
:1065E0001031FEF717FE208B618B000440182968DC
:1065F0001831FEF70FFE70BD534810B58038007893
:10660000030001F03BF90C070A0D101C1916091FB5
:1066100013222909FFF799FE10BDFFF7B4FE10BD44
:10662000FFF7CFFE10BDFFF7EAFE10BDFFF72CFF0E
:1066300010BDFFF74CFF10BDFFF77AFF10BDFFF74D
:10664000B1FF10BDFFF759FF10BDFFF77EFEFFF74A
:106650009AFEFFF7B6FEE6E7FFF7A4FFFFF74DFF50
:10666000FFF735FFE2E7384810B5001F01684A0719
:1066700014D5042291430160FFF7BEFF32488038F1
:10668000408801280AD00520FFF7D9F800202D4ABC
:1066900020211154401CC0B22028FAD310BDF8B5F7
:1066A0002949091F0868020748D5082290430C466B
:1066B0007C3C0860206FD102484D88420FD3698925
:1066C000002000293BD0206729882A89914202D2E4
:1066D000491C298003E02880698800292FD0664E54
:1066E000E98930461C300090002929D03146206FBE
:1066F000FEF70EFF311D2069FEF70AFF3146083113
:10670000E069FEF705FF31460C31206AFEF700FF15
:1067100031461031606BFEF7FBFE31461431E06B01
:10672000FEF7F6FE31461831606CFEF7F1FE009977
:10673000A06CFEF7EDFE314620319FE0CDE0CBE0CE
:10674000D3E00000C0050020C401002020302E301E
:106750003030305620302E303030305620302E3011
:106760003030304120302E303030304100000000D9
:1067700020302E303030395720302E3030303057E6
:10678000202020302E303025202020302E30302583
:106790000000000020302E303030416820302E3094
:1067A0003030416820302E303030576820302E3065
:1067B00030305768000000004C493A203132333401
:1067C00073203030643030684C433A2031323334F7
:1067D000352030306D30307300000000800500201F
:1067E00080510100ACF7FF1F426175643A202031EF
:1067F00031353230306270734261636B4C69676867
:10680000743A202030783030000000004C6F674927
:106810006E743A2020203132333435734D61783A2A
:106820002031322046696C653A2031320000000088
:106830002055494D657465724475616C2020202097
:10684000206279204543484F2053747564696F2056
:106850000000000020312E303030303020312E301A
:106860003030303020312E303030303020312E304A
:106870003030303000000000F00500200F46E06AA4
:10688000FEF746FE31462431206BFEF741FE3146CD
:106890002831A06BFEF73CFE31462C31206CFEF710
:1068A00037FE31463031E06CFEF732FE314634318E
:1068B000206DFEF72DFE3E213046FEF73CFEB877F8
:1068C000000AF87728786067216F00058901401871
:1068D000E066010502D003E06066F8BDFFF7C6FA86
:1068E00040226548E16EFFF7A4FAA889002823D06A
:1068F000402262A1604800F039FE711C206FFEF753
:10690000B1FD5D4920690A31FEF7ACFD5A49E069E5
:106910001331FEF761FB0099206AFEF75DFB5649D3
:10692000E06A2531FEF758FB5349206B2E31FEF704
:1069300053FB5148FCF767F8206F401C2067F8BDF7
:1069400010B55C4C20690221884320612069400811
:106950004000206158480907C8635848C8210068AA
:1069600000F096FD401E606155480721C269130280
:106970001B0A0022C361A261216110BD00F0AAF8C8
:1069800000F0C1F800F0D6FCFEF7BCF900F060FCA6
:10699000002803D100F076FC00F068FC00F05DF9FF
:1069A00000F0A6F800F00DFB00F049FB00F075F9CF
:1069B0000925ED0601212846FBF7B4FC0026414FCE
:1069C000414C002805D102212846FBF7ABFC0028EA
:1069D00006D001212846FBF7A5FC002803D008E0DB
:1069E00000F050FC0EE002212846FBF79BFC01283A
:1069F00006D001212846FBF795FC012805D008E0C8
:106A00007E84668000F032FC03E002212846FBF71A
:106A100089FCFEF7D1FEFEF704FFB88C00F01CFBEA
:106A20002670642000F043FB20222849284800F00B
:106A30009DFD0520FEF703FF7D20C00000F037FB21
:106A4000FFF75BF8FFF7DEF8FEF70EF9FFF778FFC8
:106A50001C484030C088012801D1801E6066FFF7C5
:106A60008BFBFFF712FCFFF7FEFDFCF779F9FFF750
:106A700016FEFBF754FFF2E7F00500202031323319
:106A8000343536372C20313233343536372C2030FC
:106A9000302E303030302C2030302E303030302C12
:106AA0002030302E303030302C2030302E3030300E
:106AB000300A000000E000E061610008D40100201D
:106AC00004ED00E04005002044010020306800088B
:106AD000C005002010B5FE48FBF7F6FA0121FD487D
:106AE000FBF7B5FB0B200121C002FBF7B9FB10BD82
:106AF00008B51B2168460170022141700121817097
:106B0000FBF750FD08BDFEB503260025684600963C
:106B1000057101240927C471FF0669463846FBF751
:106B2000C9FB1C2000906846447104718571694658
:106B30003846FBF7BFFBE02000906846467102260E
:106B4000067169463846FBF7B5FB00220521384639
:106B5000FBF7F9FB002206213846FBF7F4FB002285
:106B600007213846FBF7EFFB9920000200906846AA
:106B7000447104718471C47169463846FBF79AFB0D
:106B80000320400200906846067145718571C4710A
:106B900069463846FBF78EFB012209213846FBF790
:106BA000D2FB01220A213846FBF7CDFB684644712F
:106BB000857100940571C84FC47169463846FBF76A
:106BC00079FB6846009606714471857169463846BE
:106BD000FBF770FB022201213846FBF7B4FB38209B
:106BE000BE4E0090308801280ED001216846017108
:106BF000032141718571C47169463846FBF75AFB20
:106C00003088012802D010E00221EFE700220321A2
:106C10003846FBF798FB002204213846FBF793FB2C
:106C2000002205213846FBF78EFBC0200090684605
:106C3000047144718471C47169463846FBF73AFBAC
:106C4000FEBD10B5A6490881A54C203C4021204638
:106C5000FBF774FC0128F9D110BD10B586B0684669
:106C6000FBF73EFC9F486421008C4843FEF79EFCE6
:106C70009B4C0090203C69462046FBF7E7FB012235
:106C800099492046FBF745FC01212046FBF733FCE0
:106C900097499648086006B010BDF0B5954F91B081
:106CA0003846FBF77DFD0024934D8026049468143C
:106CB0000596019402940394009509900694079414
:106CC000089469460A943846FBF7C3FD894F143788
:106CD0003846FBF765FD1020079405960194039450
:106CE00004940095029006940894099469460A94C5
:106CF0003846FBF7AEFD6846FF2184850531C18526
:106D0000072109020186022141860121818649026B
:106D1000C1860821018744870721774C81870C3C75
:106D20000BA92046FBF70AFEA1142046FBF734FE10
:106D300001212046FBF727FE11B0F0BDF8B507464C
:106D40000021684601806D4E06806B4D6C4C0C3DF9
:106D500006E069460888401E0880088800280CD094
:106D600002212846FBF72CFE0028F2D0394628469F
:106D7000FBF71AFE684606800AE02068401C206087
:106D8000F4E769460888401E08800888002809D072
:106D900001212846FBF714FE0028F2D02846FBF715
:106DA00005FEF8BD2068401C2060F7E7FEB5FF2215
:106DB0006B461A7100224F4C00921C3C226B8027BC
:106DC000BA43226301AAE2636163A06221624A4D71
:106DD00001220C3D02212846FBF7EAFD0122114663
:106DE0002846FBF7E5FD434801211430FBF74DFD34
:106DF00001214048FBF749FD404E009601E0401E4E
:106E0000009001204002FBF74AFD002802D10098C3
:106E10000028F4D1009601E0401E0090022128468F
:106E2000FBF7CEFD002802D100980028F4D100968F
:106E300001E0401E009080212846FBF7C1FD01289B
:106E400002D100980028F4D1009601E0401E009085
:106E50002020FBF724FD002802D100980028F5D15E
:106E6000244800211430FBF710FD00212148FBF7D6
:106E70000CFD002202212846FBF79AFD0022012189
:106E80002846FBF795FD01204002FBF716FD202068
:106E9000FBF713FD206B38432063FEBDFEB5FF22D8
:106EA0006B461A710022134C00921C3CE063616334
:106EB000E0698027B843E06101A8A06221620E4D1D
:106EC00001220C3D02212846FBF772FD012219E048
:106ED00003000010010006000004004846010020E5
:106EE000203801404005002005010500436C0008E2
:106EF000100100201C0002400C300140FFFF000088
:106F0000C801002011462846FBF752FD01216F48B9
:106F1000FBF7BBFC6D4801211438FBF7B6FC6C4E47
:106F2000009601E0401E009001204002FBF7B7FCF4
:106F3000002802D100980028F4D1009601E0401EFC
:106F4000009002212846FBF73BFD002802D1009863
:106F50000028F4D1009601E0401E009080212846D0
:106F6000FBF72EFD012802D100980028F4D10096ED
:106F700001E0401E00902020FBF791FC002802D188
:106F800000980028F5D100215048FBF77EFC4F48BF
:106F900000211438FBF779FC002202212846FBF778
:106FA00007FD002201212846FBF702FD01204002D7
:106FB000FBF783FC2020FBF780FCE0693843E061AD
:106FC000FEBDF0B593B008A8FBF794F87D21C90089
:106FD000089800F05DFA3F4D3F4E68603046FBF781
:106FE00009FB002468460480448068686946401EA6
:106FF00001906846048184723046FBF751FB702192
:10700000684681810127C7810421018268680221C5
:1070100040080590684601834483C9018183C48385
:1070200003A93046FBF768FB3088384330802A4894
:1070300040308188FA031143818013B0F0BD10B550
:10704000FBF771FC2548FBF761FC0320FBF761FCB3
:107050002348FBF761FC10BDC1B21F48C26AFF2381
:10706000591A4A43110AC1637047002803D0012806
:1070700003D01CA070471DA070471EA0704710B51C
:10708000FBF7D5F9012801D0002010BD0020C04336
:1070900010BD01B569460888800008800888001D79
:1070A00008806A461088411E1180FAD208BD31B5A9
:1070B0003724240104E02046FFF7EBFFFBF72FFC09
:1070C0006A461188481E1080F5D238BD3000024053
:1070D000FFFF0000C8010020002C014055550000B2
:1070E000A60E0000554E4B4E4F574E004C434431B8
:1070F00036303200544654312E3434007047FEE7A7
:1071000070477047704770B5134C08212046FBF755
:1071100015FA002803D008212046FBF716FA0F4D78
:1071200020462946FBF713FA00280AD02046FBF731
:10713000ECF9C1B20A48FBF74BFD29462046FBF7A4
:1071400022FA70BD10B50220FBF7C0FB002802D068
:107150000220FBF7C9FB10BD003801400501050006
:10716000F0010020394A002091784B1C9370C82907
:1071700001D3C8219170704710B509200024022165
:10718000C006FBF7CFF831490028487808D0C82856
:1071900001D3022402E0142800D30124002004E0DB
:1071A000421C4A70C82801D3C8204870204610BD30
:1071B00010B5092000240121C006FBF7B3F82349CC
:1071C0000028087808D0C82801D3022402E0142837
:1071D00000D30124002004E0421C0A70C82801D317
:1071E000C8200870204610BD70B5FFF7E1FF0546C6
:1071F000FFF7C2FF0446FFF7B5FF012D04D0002DB5
:1072000009D0022D0ED011E0002C02D0012C17D095
:107210000CE0032070BD012C02D0022C0ED005E042
:10722000052070BD002C07D0022C0BD001280BD0FC
:10723000022809D0002070BD042070BD062070BD5A
:10724000072070BD082070BD092070BDD00100204E
:1072500010B5FDF76CFD38211E48FEF784F90028B3
:1072600001D0002010BD0020C04310BD10B5372153
:107270001848FEF778F9174C4034E085FDF76FFDAC
:10728000E08D10BD10B5134801220280124B4380DF
:1072900000218180C18002814381104C8481C181A1
:1072A000028243828182C1820283438384830923D1
:1072B000C183DB010384418480238384C284403002
:1072C000018041808280C1800823038141818181C6
:1072D000C28110BD40050020A0860000E8FF00002C
:1072E00010B54E48016801221143016041684C4AC3
:1072F0001140416001684B4A114001600168012260
:1073000092049143016041683F221204914341601D
:10731000C16A09090901C162016BFF22543291431C
:107320000163416B4908490041630021816000F01D
:107330002EF810BD70B5394D69680C2001403A48EF
:107340003A4C03D0042901D0082901D0206014E070
:107350006A68696803239202DB03160F1940B61CA2
:10736000002907D0E96A0907090F491C00F090F8C5
:107370007043EBE72E484643266068682B490006B9
:10738000000F091D085C2168C140216070BD1CB55B
:107390000021224801910091026801231B041A4335
:1073A00002605B000522120304681C400094019CEB
:1073B000641C0194009C002C02D1019C9442F3D1E6
:1073C0000268920328D5012100911A4A1121116007
:1073D000416841604168416041687F22D203914326
:1073E0004160416811221204114341600168012289
:1073F00012061143016001688901FCD541688908C2
:1074000089004160416802221143416041680907D7
:10741000890F0229FAD11CBD00911CBD0010024049
:107420000CB8FF08FFFFF6FE00127A00D40100201E
:1074300000093D00002002400C4880F308880C48F9
:107440000168090E0B4A914205D10B480B490160B6
:107450000B480C4901600C4880470C480047FEE788
:10746000FEE7FEE7FEE7FEE7FEE70000300A002049
:10747000040000001F00000018100240010000007E
:107480000000014000000000E1720008B520000883
:1074900030B50B46014600202022012409E00D46AC
:1074A000D5409D4205D31D469540491B2546954034
:1074B00040191546521E002DF1DC30BD70B5002478
:1074C0002546002801DA01244042002901DA01257D
:1074D0004942FFF7DDFFAC4200D04042002C00D013
:1074E000494270BDF8B500242546002904DA0E464D
:1074F000012400214042B141002B04DA1E46002342
:1075000052420125B34100F0DCF88C4617461E4676
:10751000AC4203D0002540428D41AC46002C02D045
:10752000002657429E4161463A46334601B0F0BDBF
:10753000004870472C7A000801464139192900D8C3
:107540002030704730B505462A460B4610781C7827
:10755000521C5B1C002801D0A042F7D0002C03D0A5
:10756000002802D06D1CEFE7284630BD10B5044658
:1075700005E00B780370401C002B00D0491C521E04
:10758000F7D2204610BD421C0178401C0029FBD1D7
:10759000801A704770B5104D002800D1286800246B
:1075A00014E00A4602E09E4203D0521C1378002BDE
:1075B000F9D1DAB2224307D0002B06D0002C04D038
:1075C00000210170401C04E00446401C0678002E97
:1075D000E7D12860204670BDE8010020F7B5009C87
:1075E0000F4600262578641C002D05D0FFF7A0FF6C
:1075F0000068405DC007F5D12B2D02D02D2D18D08D
:10760000641E39462046029A00F08BF8002F04D001
:107610003968A14201D1009939607105022400291D
:107620000BDA4042002803DD00F036F90460A007C1
:10763000FEBD012080020643E3E70028F8DA00F0EF
:107640002BF904600048FEBDFFFFFF7FF7B582B055
:107650000F460026029C00F01FF900900068019080
:107660002578641C002D05D0FFF762FF0068405D9F
:10767000C007F5D12B2D02D02D2D1CD0641E0098F3
:107680000021016039462046049A00F04AF801467C
:10769000002F04D03868A04201D1029838600098C9
:1076A000006802280BD00098019A0260700506D588
:1076B000484205B0F0BD012080020643DFE70846DE
:1076C000F7E7F0B51FB40646002082B00546402417
:1076D000019100901BE0019922460F46304600F0D0
:1076E00095F8049A059B801A994110D310461946C3
:1076F000224600F07BF8361A8F410197224601207E
:107700000021009F00F072F838184D41009020468B
:10771000641E0028DFDC019B00982946324607B032
:10772000F0BDF7B582B0029C00272078641C154696
:107730000197302802D0002D15D015E020780127C0
:10774000641C782804D0582802D0002D09D00BE002
:10775000002D01D0102D07D1002710252078641CA2
:1077600002E0082500E00A250026009610E00099B6
:10777000012769430818020C294680B27143009022
:107780008E183804864201D3012001902078641CB1
:10779000294600F04CF80028E9DA0398002805D0C3
:1077A000002F01D0641E00E0029C046001980028B4
:1077B00006D000F071F802210160C81E05B0F0BDCE
:1077C000009930040843F9E7064C0125064E05E010
:1077D000E36807CC2B430C3C98471034B442F7D3F2
:1077E000FAF76CFCDC7E0008FC7E000810B5202A4D
:1077F00004DB0146203A9140002010BD9140202337
:107800009C1A0346E3401943904010BD10B5202A4E
:1078100004DB0846203AD040002110BD0B46D3407F
:10782000D0402024A21A91400843194610BD3A289E
:1078300000D23038202302469A43412A01D3104611
:107840003738884201D30020C0437047F8B504148C
:107850008BB2264682B25E430D141046371458434D
:10786000360480190021794116466E4337143604D8
:107870008019794126466E438919F8BD30B47446A3
:10788000641E2578641CAB4200D21D46635D5B001C
:10789000E31830BC1847000000487047EC01002096
:1078A00002E008C8121F08C1002AFAD170477047C9
:1078B000002001E001C1121F002AFBD17047000027
:1078C0000F0000007C7E0008907A00087B470008CB
:1078D000B87E0008B47B0008FF300008687E00080E
:1078E000147C0008AB400008A07E0008DC7B000888
:1078F0005B340008847E0008887C0008D5350008C9
:10790000A87E0008C87C0008EF3A0008747E0008D2
:107910005C7B00082B3C0008907E0008307A000851
:10792000273100086C7E0008B47A00087B2F00081D
:10793000887E0008587C000851400008C07E00087E
:10794000F07A0008AF480008B07E0008D07B00083D
:10795000ED480008987E0008747A0008694C000819
:10796000607E0008007D0008F1330008587E0008A2
:10797000A47B00081D48000800100E000008070046
:107980000084030000C2010000E100000096000036
:10799000004B000080250000C012000060090000BC
:1079A000B00400002C01000073270040404040401C
:1079B00040404040414141414140404040404040C2
:1079C00040404040404040404040400502020202EA
:1079D00002020202020202020202022020202020F1
:1079E00020202020200202020202020290909090A9
:1079F0009090101010101010101010101010101087
:107A000010101010101002020202020288888888EA
:107A100088880808080808080808080808080808E6
:107A2000080808080808020202024000AB790008B2
:107A3000656570726F6D205B6C6F61647C736176DD
:107A4000657C726561647C77726974655D205B61D9
:107A50006464725D205B646174615D204F70657267
:107A600061746520496E742E20454550524F4D2E4D
:107A70000A000000646973706C61792053572076A6
:107A8000657273696F6E20616E6420534E2E0A001A
:107A900067657420766F6C746167652063757272B8
:107AA000656E7420616E6420706F776572206574F6
:107AB000632E0A00666C617368205B726561647C8A
:107AC00077726974657C65726173655D205B616462
:107AD00064725D205B646174615D204F70657261EA
