:020000040800F2
:10200000300A0020256E0008ED6A0008EF6A00081B
:1020100000000000000000000000000000000000C0
:10202000000000000000000000000000F16A00084D
:102030000000000000000000F36A0008F56A0008D4
:10204000556E000800000000556E0008556E00082F
:10205000556E0008556E0008556E0008556E000854
:1020600000000000356B0008556E0008556E000832
:10207000556E0008556E0008556E000800000000FF
:10208000556E00080000000000000000556E0008BA
:10209000556E0008556E0008556E0008556E000814
:1020A000556E0008556E0008556E0008F76A000866
:1020B000556E00080348854605F07CF80048004747
:1020C0009D660008300A0020B848016801221143CB
:1020D00001604168B64A114041600168B54A11404B
:1020E00001600168012292049143016041683F222E
:1020F000120491434160C16A09090901C162016B7F
:10210000AD4A11400163416B490849004163002118
:1021100081607047A54900228A7088707047034625
:102120000020A2495A090CD0012A0CD0022A0CD056
:10213000496BDA06D20E012393400B4200D00120F6
:1021400070470968F5E7096AF3E7496AF1E718B5E6
:1021500000200524240300901120FFF7E0FF0099E0
:10216000491C0091A14201D00028F5D01120FFF7B1
:10217000D6FF002800D0012018BD10B58B4A536847
:102180007B24E403A3435360536808430343536031
:1021900010BD0122854912060028086801D01043AD
:1021A00000E0904308607047804A516889088900C0
:1021B0000143516070477D4840680C2108407047DA
:1021C0007A4A5168F0239943014351607047774A36
:1021D000516807231B029943014351607047020F66
:1021E0007249012A0AD0022A0A6B0BD003239B04EE
:1021F0009A430A630A6B02430A6370470A6B9208A8
:102200009200F6E703231B04F2E7F8B5674D044696
:10221000686800210C22694E104005D0042803D0C4
:10222000082803D00C281AD026601AE0696868686C
:1022300003228902D2030F0F1040BF1C00280AD0CE
:10224000E86A0107090F3046491C04F017FE78437D
:102250000146216005E05A4839464143F9E75948AB
:1022600020606868584F0006000F3B5C20680246FB
:10227000DA4062606B685B055B0FFB5CDA40A26072
:102280002B6BDB0501D4514B05E06B685B0401D47B
:10229000530800E09308E3602B6B5F064C4B03D4BC
:1022A0004B4F1237276100E023612F6BFF0601D4EB
:1022B000666100E060612F6BBF070ED02F6BBF0718
:1022C000BF0F012F0BD02F6BBF07BF0F022F08D0FE
:1022D0002F6BFF43BF0706D006E0A26104E0A061B8
:1022E00002E0A36100E0A6612F6BBF03BF0F0FD018
:1022F0002F6BBF03BF0F012F0CD02F6BBF03BF0F7E
:10230000022F09D02F6BBF03BF0F032F06D006E0AB
:10231000E26104E0E06102E0E36100E0E6612F6B6E
:102320003F03BF0F0FD02A6B1203920F012A0CD06C
:10233000286B0003800F022809D0286B0003800F50
:10234000032806D006E0226204E0206202E0236255
:1023500000E02662286B000602D41A486062F8BDCD
:102360006162F8BD114A0029516901D0014300E0C2
:102370008143516170470D4A0029916901D00143A1
:1023800000E0814391617047084A0029D16801D07B
:10239000014300E08143D1607047044A002911697C
:1023A00001D0014300E081431161704700100240F9
:1023B0000CB8FF08FFFFF6FEACFEF0FF00127A003B
:1023C00000093D00006CDC0200010020809FD50068
:1023D00000800000F0B50022012423460D689340E0
:1023E0001D409D422AD10D79012D01D0022D12D11F
:1023F000876855000326AE40B74387604E79AE40EC
:1024000085682E43866085889D43858085888B7985
:1024100093401D438580066855000323AB409E43CF
:1024200006600E790768AE403E430660C6689E436C
:10243000C660CB79AB40C5682B43C360521C102AE1
:10244000CBD3F0BD0246128A00200A4200D0012000
:1024500070478161704701857047002A01D0816112
:102460007047018570474B07DB0E9A40C90810B5CD
:1024700089000818016A0F249C40A1430162016A87
:102480001143016210BD00003D4A1168490849002E
:102490000143116070473A4910220028086801D0B2
:1024A000104300E090430860704735480169090611
:1024B00003D534494160344941607047304801696F
:1024C00080221143016170472D490420CA68D20758
:1024D00001D001207047CA68D20601D5022070479A
:1024E000C9684907FBD50320704700B50346FFF7CD
:1024F000EBFF02E0FFF7E8FF5B1E012803D0002B93
:1025000000D1052000BD002BF4D1FAE7F0B50B2770
:1025100006463F043846FFF7E8FF04280FD1184C61
:102520002069022528432061666120694021084313
:1025300020613846FFF7D9FF2169A9432161F0BD29
:10254000F0B50B2706463F040D463846FFF7CDFF92
:1025500004280CD10A4C20690121084320613580F0
:102560003846FFF7C2FF2169490849002161F0BDE3
:1025700003490020C9694907890F00D0012070472D
:102580000020024023016745AB89EFCD30B50446FA
:1025900000688BB00D464008400020606068032151
:1025A00009038843A9680143616020684849EA68D3
:1025B0000840696811432A69024311432160A068F9
:1025C00003210902884369690143A1606846FFF756
:1025D0001CFE4048844201D106980AE03E488442ED
:1025E00001D1079805E03D48844201D1089800E0F8
:1025F000029821680904296800D5400004F03EFCD7
:102600002A6852088A4200D8401C2168090404D56F
:102610000107334A490F10400843A0810BB030BD79
:102620004B21C90101600021416081600C22C16021
:102630000261416170470029016802D00122114303
:1026400001E04908490001607047808CC005C00D59
:10265000704710B50B041C0E01238B40022C02D0D6
:10266000032C02D002E0001D00E008300168002ABF
:1026700001D0194300E09943016010BD0246D269C0
:1026800000200A4200D0012070470162704730B537
:102690000A04130E0122144600258C40012B0ED093
:1026A000022B0ED08368090C2340C0698A40104079
:1026B000002B02D0002800D00125284630BD036839
:1026C000F1E74368EFE70A0C01219140016270478E
:1026D000F3E9FFFF0038014000440040004800409B
:1026E000F0FF000030B5837801210278002B15D06F
:1026F00094080E4BA400E41823689207D50EFF221D
:10270000AA40934342789207120EAA401A432260CD
:102710000078C006C00E8140054804E0D006C00E17
:10272000814003488030016030BD000000E400E0DB
:1027300000E100E05C4910B5884202D10121C414D7
:102740003AE001218907884206D101210846FFF7B6
:1027500024FE0021012008E05449884208D10121CB
:102760000220FFF71AFE00210220FFF716FE10BD1F
:102770004F49884206D101211020FFF70EFE0021AB
:102780001020F2E74B49884206D101212020FFF7B3
:1027900004FE00212020E8E74749884207D184153C
:1027A00001212046FFF7F9FD00212046DDE74349DE
:1027B000884209D101210C042046FFF7E5FD0021E4
:1027C0002046FFF7E1FD10BD3D49884202D10121BD
:1027D0004C04F1E73B498842F5D101218C04EBE739
:1027E00010B50288304B984206D00124A407A042BD
:1027F00002D02E4CA04203D17024A2434C88224325
:102800002B4CA04203D0304C22400C892243028042
:102810004A68C2620A880285984208D0274A9042D4
:1028200005D0274A904202D0264A904201D1897AA7
:1028300001860121818210BD30B5028C234B1A40E4
:102840000284038C8288848B7025AC43A4080D8895
:10285000A40025431E4C23400C7B2406240C1C435F
:102860008B781B061B0C23430F4CA04215D1194C2F
:1028700023408C7B2406240C1C43174B1C400B79F3
:102880001B061B0C2343154C22400C8A2405240CE8
:1028900014434A8A1205120C224382808583896878
:1028A000C163038430BD0000002C014000040040DF
:1028B0000010004000140040002000400040014093
:1028C0000044014000480140FFFC0000FFFE000002
:1028D000FFFD0000FFF70000FFFB0000FFCF00003E
:1028E00001460020CA0001D5074A00E0074A1268E5
:1028F0000A4200D001207047C10001D5024900E022
:102900000249486070470000000402400000024095
:102910000849086070470749486070470549886062
:10292000704704490448086070470249034808603A
:102930007047000000300040AAAA0000CCCC000084
:1029400010B504460A2802D10D20FFF7F9FF784997
:102950004A68002A03D01470521C4A6010BD0968EE
:102960000029FBD02046884710BD10B5044602E080
:10297000641CFFF7E5FF20780028F9D110BDF3B5FE
:102980008BB006463078761C002877D0252802D0F8
:10299000FFF7D6FFF6E7002002903478761C302C43
:1029A00002D02D2C02D005E0012000E00220029090
:1029B0003478761C002705E00A2047433F19347815
:1029C000761C303F204630380928F5D96C2C01D0D0
:1029D0004C2C05D102980421084302903478761CCF
:1029E000002C4BD02146612C01D32039C9B24F298C
:1029F00037D006DC422932D043292AD0442906D1D7
:102A00003DE0532905D0552939D0582939D02046E1
:102A1000BEE70C98002420C80C9000E0641C285DE0
:102A20000028FBD102E02020FFF78AFF02988007F0
:102A300003D42046641CB842F5D32846FFF795FF1F
:102A400002E02020FFF77CFF2046641CB84299D2A8
:102A5000F7E70C980178001D0C90084698E70220D3
:102A600000E0082001900298400701D444290AD0D0
:102A70000C9A442901CA0C9208D00EE04CE00A20BE
:102A8000F0E71020EEE70C9901C90C91002804DA58
:102A9000029940420822114302910025019904F055
:102AA000EDF9C9B2092904D9782C16D0072251189A
:102AB000C9B204AA303151556D1C002801D0102D27
:102AC000ECD30298000702D52D2151556D1C0298B8
:102AD0002C46C00703D0302002E02722E7E7202061
:102AE000089002E00898FFF72BFF0298800703D4B4
:102AF0002046641CB842F5D304A86D1E405DFFF764
:102B00001FFF002DF8D102E02020FFF719FF20461B
:102B1000641CB8429BD2F7E70DB0F0BD0FB410B5FE
:102B200003A90298FFF72BFF10BC08BC04B018479C
:102B300010010020FEB505462C460020FF3441342C
:102B40000290A0800F46019004F0E8F90068294641
:102B5000C05DC4318006C20E2E460120443600916D
:102B6000002A0FD00199A0808F552089402823D2B8
:102B7000384604F0D7F922890146501C009B208179
:102B8000D15419E0082F20D00D2F2CD00A2F13D0AC
:102B90001B2F56D01D2F5CD0464A390913685A5C4A
:102BA0000199A0808A553907090F5A5C8255022184
:102BB00020220320A0808A5520798006800EA080E4
:102BC0003D48C08C00286FD172E0019908228A55D7
:102BD0002023835503200221A0808A5520890028C4
:102BE000EAD0401E2BE001990D228A5502210A22CB
:102BF000A1808255208940281DD2009B0021C1540C
:102C00002181481E2860A05E8022C10F0918490852
:102C10004900401A6081C10128480818009904F051
:102C20009BF90A20205E401CC10F09184908490081
:102C3000401A6081C0E70020FF21043148552081FF
:102C4000BAE76089401E00B26081002809DA801C62
:102C500006E06089401C00B26081022801DB801E12
:102C600060810A20205E154FC001C11980220098A2
:102C700004F072F9009804F07CF920810A20205EAB
:102C80008022C001C119304604F066F9304604F0D4
:102C900070F9A08090E728184030007903F067FEB3
:102CA0000298401CC0B20290A18802988142F2D8DA
:102CB000FF20FEBD300100203C0500203C03002029
:102CC000F8B5F94800250068002844D0F648F7A177
:102CD000C43004F055F9F64C0028206019D0F3A157
:102CE000002004F04DF96060002812D0EFA1002010
:102CF00004F046F9A06000280BD0ECA1002004F0FD
:102D00003FF9E060002804D0E8A1002004F038F981
:102D10002061E84F3E1D09E00C20684331582068CF
:102D200004F006F9002804D16D1CEDB23878854214
:102D3000F2D33878854206D20C204543A819806822
:102D4000002800D08047002020606060A060E06024
:102D5000D54920610860F8BDF7B51746064600243E
:102D600021E001980119D4A0FFF7D8FE00256019D1
:102D7000315CD3A0FFF7D2FE6D1CADB2102DF6D39F
:102D800000256019305C014620395E2900D92E20CB
:102D9000FFF7D6FD6D1CADB2102DF2D3CAA0FFF720
:102DA000E4FD1034A4B2BC42DBD3FEBD70B5C04C10
:102DB000606800286CD0C5A104F0BAF8FF25013581
:102DC00000281FD0A06800281BD01022002104F08A
:102DD00033F90646E068002808D01022002104F0EC
:102DE0002BF984B220460838F92800D32C46224615
:102DF0003146B84802F065FE22463146B548FFF735
:102E0000ABFF70BDB4A1606804F092F800281ED03A
:102E1000A0680028F5D01022002104F00DF9064624
:102E2000E068AC4C002806D01022002104F004F920
:102E30002070012200E02A463146A64802F0D3FE67
:102E40002178A7A0FFF76AFE3146AAA01DE0B0A135
:102E5000606804F06DF800281AD0A0680028D0D06F
:102E6000ADA104F065F8002805D002F086FEACA004
:102E7000FFF77BFD70BD10220021A06804F0DCF894
:102E8000044602F08FFE2146AAA0FFF747FE70BD60
:102E9000AFA0EDE7BD4900200860BD490860BD490D
:102EA0000860BD490860BD490860BD490860BD496A
:102EB0000860BD490860BD4908607047F8B500204A
:102EC00069467B4C08800546606800286CD07FA16D
:102ED00004F02EF800282FD0A06800282BD0102254
:102EE000002104F0A9F8C6B2E068002808D010223A
:102EF000002104F0A1F884B220460838392812D302
:102F0000402412E0680703D13946A9A0FFF706FE66
:102F1000B8B2694601F0F5FD68460188A7A0FFF741
:102F2000FDFD6D1CADB2A54202D277193F2FE9D34A
:102F300065A0FFF71AFDF8BD67A1606803F0F8FF10
:102F400000281DD0A0680028F5D0E1680029F2D043
:102F50001022002104F070F8C5B210220021E068B0
:102F600004F06AF884B22146284601F0C3FD2146E8
:102F700094A0FFF7D3FD294697A0FFF7CFFDF8BD3A
:102F80009CA1606803F0D4FF002803D001F059FD34
:102F90009AA0CEE79FA1606803F0CAFF002803D083
:102FA00001F067FD9DA0C4E7A148C2E7F8B5002580
:102FB000FFF7DEFA01282AD03D4C6068002826D0B1
:102FC0001022002104F038F8060021D0FF27A06865
:102FD0000137002808D01022002104F02DF884B217
:102FE000BC4201D8082C0DD23C460BE0280703D187
:102FF000711990A0FFF792FD715D31A0FFF78EFD72
:103000006D1CADB2A542F1D32FA0FFF7AEFCF8BD09
:103010008BA0FAE770B5264D8D4C6868634E8AB078
:1030200000283ED08BA103F083FF002812D0A868AF
:1030300000280CD00A22002103F0FEFF02F040F924
:10304000642103F01BFF81B2218484A015E0218C50
:1030500091A012E095A1686803F06AFF002810D0E3
:10306000A868002807D00A22002103F0E5FF81B2FA
:10307000E18490A001E0E18C95A0FFF74FFD0AB03C
:1030800070BD98A1686803F053FF00280AD0A868B3
:10309000002808D01022002103F0CEFFC1B2A18485
:1030A00024E188E12CE128E1F0010020200000006B
:1030B00018010020AC720008307825303858200004
:1030C00025303258200000000A000000726561645B
:1030D000000000003C040020777269746500000065
:1030E0002077726974652030782530325820746FEB
:1030F0000000000020666C61736820616464726582
:10310000737320307825303858202E2E2E0A000078
:1031100065726173650000006368697000000000FB
:10312000206572617365206368697020646F6E65E5
:103130002E0A000020657261736520736563746FE9
:1031400072203078253034582E2E2E0A00000000D0
:10315000666C617368205B726561647C7772697408
:10316000657C65726173655D205B616464725D207E
:103170005B646174615D204F70657261746520539A
:10318000504920466C6173682E0A000088010020B7
:103190008C010020980100209C010020900100205B
:1031A00094010020A0010020A4010020540100206F
:1031B0000A3078253034582020000000253034585B
:1031C0002000000020777269746520307825303443
:1031D0005820746F0000000020656570726F6D20CC
:1031E0006164647265737320307825303458202E02
:1031F0002E2E0A006C6F6164000000004C6F616449
:103200002066726F6D20454550524F4D2E2E2E0A6E
:103210000000000073617665000000005361766570
:1032200020746F20454550524F4D2E2E2E0A00001F
:103230001C7400080A30782530385820000000003F
:10324000204261642041647265737321200A00008A
:103250003C05002062617564000000002073657405
:103260002055415254206261756420746F20256C92
:103270006430302C20736176652026207265626F81
:103280006F7420746F206170706C79206E65772088
:10329000626175642E0A000020554152542062611B
:1032A0007564203D20256C6430300A006563686FCA
:1032B0000000000020536574204543484F2073747C
:1032C0006174757320746F2025642E2E2E0A000001
:1032D000204543484F20737461747573203D202549
:1032E000640A0000626B6C7400000000C7A0FFF766
:1032F00015FCA08C03F0B2FBC1E6A18CCCA0BCE60F
:10330000D2A1686803F014FE002818D0A86800282D
:103310000BD01022002103F08FFEC0B2608403F0B6
:10332000A6FB0246618CCAA006E0608CC0B203F026
:103330009EFB0246618CCDA0FFF7F0FB9FE6D0A17B
:10334000686803F0F5FD00280DD0A868002807D0B4
:103350000A22002103F070FE01463060CAA08CE60C
:10336000CFA0316889E6D2A1686803F0E1FD0028AA
:103370001DD06846FEF749FFCEA00099FFF7CEFBAF
:10338000D1A00199FFF7CAFBD4A00299FFF7C6FBB1
:10339000D7A00399FFF7C2FBDAA00499FFF7BEFBA1
:1033A000DDA00599FFF7BAFBE0A0069965E6E4A069
:1033B000FFF7DBFA63E6E2A0FFF7D7FA608CC0B252
:1033C00003F055FB316800900191A38CE28C218CB5
:1033D000E8A0FFF7A3FB52E6F8B5F24DF24C68689F
:1033E000F24E00287ED0F2A103F0A2FD37460E3740
:1033F000002821D0A868002815D00A22002103F057
:10340000E3FD010C218060801C22EAA1304603F01C
:10341000A3FD2088618800046CE001F085FDE3488D
:10342000FFF7A3FAF8BD1222E9A1E04803F094FDEA
:1034300020886188000468E0EAA1686803F078FDEC
:1034400000281BD0A86800280FD00A22002103F012
:10345000BBFD010C218160811C22E3A1D34803F054
:103460007BFD20896189000444E01222E5A1CF4858
:1034700003F072FD20896189000446E0E6A16868D6
:1034800003F056FD00281BD0A86800280FD00A22A0
:10349000002103F099FD010C218260821C22DFA132
:1034A000C24803F059FD208A618A000422E01222FA
:1034B000E1A1BE4803F050FD208A618A000424E0A7
:1034C000E2A1686803F034FD002821D0A868002834
:1034D00013D00A22002103F077FD010C21836083C1
:1034E0001C2200E016E0DAA1B04803F035FD208B85
:1034F000618B0004401839468FE71222DBA1AB48EC
:1035000003F02AFD208B618B00044018F11D84E735
:10351000DBA085E7DAA0FFF728FA4122E8A1A3485B
:1035200003F01AFD2088618800044018F11D01F0A5
:10353000FBFC208A618A000440189C49163101F086
:10354000F3FC20896189000440189849263101F074
:10355000EBFC208B618B00044018944935315CE70B
:10356000F8B5904C904D606800284CD090A103F0C5
:10357000DFFC8E4E37460F37002819D0A068002890
:103580000ED00A22002103F01FFD04B2AC801C22E1
:10359000DBA1FCE101F0B7FD8448FFF7E6F9F8BDD7
:1035A0001222DEA1814803F0D7FC0420285EFBE153
:1035B0008CA1606803F0BCFC002813D0A068002830
:1035C00008D00A22002103F0FFFC04B2AC811C22C7
:1035D000D6A1DCE11222DCA1744803F0BDFC0C2072
:1035E000285EE1E18CA1606803F0A2FC00280BD00A
:1035F000A068002809D00A22002103F0E5FC04B2EB
:10360000AC821C22A8E1D3E1B0E1A7E120536574AC
:10361000204C4344204261636B6C6967687420747A
:103620006F203078253032582E2E2E0A00000000F0
:10363000204C4344204261636B6C69676874203D91
:10364000203078253032580A000000006C63640096
:1036500020536574204C4344205479706520746F66
:103660002025642025732E2E2E0A0000204C434472
:103670002054797065203D2025642025730A0000C0
:1036800074696D6500000000205365742054696DF5
:103690006520746F202564732E2E2E0A0000000012
:1036A0002054696D65203D202564732E2E2E0A005E
:1036B0007263630020535953434C4B202020203D1C
:1036C00020256C64487A0A002048434C4B20202077
:1036D0002020203D20256C64487A0A002050434C6D
:1036E0004B2020202020203D20256C64487A0A00B1
:1036F00020414443434C4B202020203D20256C6436
:10370000487A0A0020434543434C4B202020203D6B
:1037100020256C64487A0A002049324331434C4BDF
:103720002020203D20256C64487A0A002055534112
:10373000525431434C4B203D20256C64487A0A009A
:10374000696E666F205B626175647C6563686F7C1F
:10375000626B6C747C6C63647C74696D655D204F16
:1037600070657261746520706172616D65746572F7
:10377000732E0A0020424155443D256430302045D7
:1037800043484F3D256420424B4C543D3078253012
:103790003258204C43443D25732054494D453D2526
:1037A00064730A00180100203C0500203C0400203E
:1037B0007561000020536574205561646A4120746E
:1037C0006F2030302E30303030302E2E2E0A000058
:1037D000205561646A413A30302E30303030300A42
:1037E0000000000069610000205365742049616495
:1037F0006A4120746F2030302E30303030302E2E21
:103800002E0A0000204961646A413A30302E30307F
:103810003030300A000000007562000020536574EB
:10382000205561646A4220746F2030302E30303071
:1038300030302E2E2E0A0000205561646A423A3044
:10384000302E30303030300A000000006962000055
:1038500020536574204961646A4220746F203030BF
:103860002E30303030302E2E2E0A00002049616478
:103870006A423A30302E30303030300A00000000DA
:1038800061646A205B75617C69617C75627C6962D8
:103890005D205B61646A5F313030303030785D20AC
:1038A0007365742073616D706C65206761696E204B
:1038B00061646A7573746D656E742E0A0000000091
:1038C000205561646A413A30302E3030303030203B
:1038D0005561646A423A30302E30303030300A2040
:1038E0004961646A413A30302E30303030302049FE
:1038F00061646A423A30302E30303030300A000095
:103900002053657420557A65726F4120746F2031A1
:1039100032333435202E2E2E0A00000020557A65D1
:10392000726F413A2031323334350A0020536574C6
:1039300020497A65726F4120746F203132333435FB
:10394000202E2E2E0A00000020497A65726F413A1F
:103950002031323334350A00EEA118E01222F4A1EE
:10396000F74803F0F9FA1420285E1DE0F5A160681D
:1039700003F0DEFA002819D0A06800280DD00A2232
:10398000002103F021FB04B2AC831C22EEA1EC4821
:1039900003F0E2FA39462046FCE51222F1A1E8489C
:1039A00003F0DAFA1C20285EF11DF3E5F1A0F4E53E
:1039B000F0A0FEF7DAFF4122FCA1E14803F0CCFAC7
:1039C000DF490420285E093101F09DFBDC490C2011
:1039D000285E173101F097FBD9491420285E263163
:1039E00001F091FB1C20D649285E3431D2E5F8B5B0
:1039F000FD4DFE4C6868D24E00287CD0FCA103F03F
:103A000097FA31460E31FB4F009100282DD0A8685F
:103A1000002820D0F84D296800291CDD0A22002149
:103A200003F0D2FA394603F007FC2A68D31703F0F3
:103A30004FFA010C218060801C22F049304603F0CF
:103A40008BFA20886188000493E001F06DFABC488D
:103A5000FEF78BFFF8BDE94912221C31B84803F08C
:103A60007BFA2088618800048FE0E5A1686803F094
:103A70005FFA002828D0A86800281BD0E14D2968EB
:103A8000002917DD0A22002103F09EFA394603F0CF
:103A9000D3FB2A68D31703F01BFA010C2181D74905
:103AA00060811C223431A64803F056FA20896189CE
:103AB00000045EE0D14912225031A14803F04CFAD3
:103AC00020896189000460E0CFA1686803F030FAC2
:103AD00000282AD0A86800281DD0CC4D29680029CC
:103AE00019DD0A22002103F06FFA394603F0A4FB26
:103AF0002A68D31700E04DE003F0EAF9010C2182B7
:103B0000BE4960821C2268318D4803F025FA208A64
:103B1000618A00042DE0B94912228431884803F0FB
:103B20001BFA208A618A00042FE086A1686803F0EE
:103B3000FFF900282CD0A86800281DD0B44D2968B2
:103B4000002919DD0A22002103F03EFA394603F06C
:103B500073FB2A68D31703F0BBF9010C2183A74933
:103B600060831C229C31764803F0F6F9208B618B30
:103B700000044018009968E7A0491222B831704843
:103B800003F0EAF9208B618B00044018F11D5CE71B
:103B9000A0485DE79F48FEF7E8FE41229E4968483D
:103BA00003F0DAF92088618800044018F11D01F063
:103BB000BBF9208A618A000440186149163101F07E
:103BC000B3F920896189000440185D49263101F06C
:103BD000ABF9208B618B000440185949353134E72B
:103BE00010B5814C6068002823D08C4903F0A0F9FF
:103BF000002805D08AA0FEF7B8FE00F022FF10BD15
:103C000086496068203103F093F9002805D08DA023
:103C1000FEF7ABFE03F022F810BD92A1606803F03E
:103C200087F9002805D091A0FEF79FFE03F022F847
:103C300010BD96A0FEF799FE10BDF0B59F48404C10
:103C4000006800268034401C89B000282ED06648C9
:103C5000664D42684035002A58D099A1104603F0BD
:103C600067F9374F0146384608300890001D079025
:103C700014300690001D0590002948D05A488368EA
:103C8000002B45D00A220021184603F0D5F92988D7
:103C90008903081802905448C068002808D00A22F6
:103CA000002103F0C9F9050002D002E086A0F9E185
:103CB0000A2592A0FEF759FE71E102984022801970
:103CC00081011F4801F0FDFEFEF72BFE40211C483C
:103CD00001F0BBFA00281CD1402296A1204603F037
:103CE0003BF9174801F0A6FA611C01F0B6F9381D3E
:103CF00001F0A0FA21460A3101F0AFF9089801F06D
:103D000099FA2146133100F0F1FF2FE1F7E24DE17E
:103D10004AE143E12053657420557A65726F422071
:103D2000746F203132333435202E2E2E0A000000DD
:103D300020557A65726F423A2031323334350A00A9
:103D40003C040020696200002053657420497A65B4
:103D5000726F4220746F203132333435202E2E2E74
:103D60000A00000020497A65726F423A20313233EE
:103D700034350A007A65726F205B75617C69617CFD
:103D800075627C69625D205B4C53425D2073657493
:103D90002073616D706C65207A65726F2061646A52
:103DA0007573746D656E742E0A00000020557A6577
:103DB000726F413A20313233343520497A65726F5F
:103DC000413A2031323334350A20557A65726F42D8
:103DD0003A20313233343520497A65726F423A20C5
:103DE00031323334350A0000180100203C05002030
:103DF00075610000A086010060010020B437000852
:103E000069610000640100207562000070010020FB
:103E10007401002000750008C0380008F431000863
:103E2000204C6F616420706172616D65746572739E
:103E30002066726F6D20454550524F4D2E2E2E0A32
:103E400000000000205361766520706172616D652D
:103E50007465727320746F20454550524F4D2E2E5D
:103E60002E0A0000726573746F72650020526573CC
:103E7000746F72652064656661756C742070617220
:103E8000616D65746572732E2E2E0A007061726109
:103E90006D205B6C6F61647C736176657C726573A9
:103EA000746F72655D204F7065726174652070611A
:103EB00072616D65746572732E0A0000A80100209E
:103EC00064756D700000000020646576696365208C
:103ED00069732062757379696E672C20706C6561F7
:103EE00073652073746F70206C6F6767696E6720ED
:103EF00066697273742E2E2E0A0000002020202086
:103F0000202020692C20202020742873292C202098
:103F10002055412856292C20202049412841292C70
:103F200020202055422856292C2020204942284173
:103F3000290A000020313233343536372C20313213
:103F400033343536372C2030302E303030302C2082
:103F500030302E303030302C2030302E3030303079
:103F60002C2030302E303030300A0000079801F01D
:103F700061F921461C3100F0B9FE069801F05AF9AA
:103F80002146253100F0B2FE059801F053F9214693
:103F90002E3100F0ABFE2046FEF7E7FC761CAE4269
:103FA00000D28AE609B0F0BDF3A07BE0FC48FBA19B
:103FB000406802F0BDFF002877D0F9488368002BE5
:103FC0006FD00A220021184603F036F829888903A9
:103FD00008180290F248C068002805D00A22002183
:103FE00003F02AF8050000D10A25EE48FEF7BDFCD3
:103FF00052E00298402280198101EB4801F061FDF6
:10400000FEF78FFC4021E84801F01FF9002842D15B
:104010005022E649204602F09FFFE34801F00AF9EA
:10402000611C01F01AF8381D01F004F921460A312B
:1040300001F013F8089801F0FDF82146133100F063
:1040400055FE079801F0F6F821461C3100F04EFEAF
:10405000D548103001F0EEF82146253100F046FE3B
:10406000D148143001F0E6F821462E3100F03EFE32
:10407000CD48183001F0DEF82146373100F0EDFF71
:10408000C9481C3001F0D6F82146403100F0E5FF68
:104090002046FEF76AFC761CAE42AAD382E704E013
:1040A000FFE7C3A0FEF761FC7CE7BD48C8A14068FC
:1040B00002F03EFF002875D0B9488368002B6FD00E
:1040C0000A220021184602F0B7FF29888903081840
:1040D0000290B348C068002805D00A22002102F0EF
:1040E000ABFF050000D10A25BA48FEF73EFC52E0BE
:1040F0000298402280198101AB4801F0E2FCFEF7F2
:1041000010FC4021A84801F0A0F8002842D150221C
:10411000A649204602F020FFA34801F08BF8611C5D
:1041200000F09BFF381D01F085F821460A3100F0B0
:1041300094FF069801F07EF82146133100F0D6FD79
:10414000059801F077F821461C3100F0CFFD964824
:10415000283001F06FF82146253100F0C7FD924864
:104160002C3001F067F821462E3100F0BFFD8E485B
:10417000303001F05FF82146373100F06EFF8A4899
:10418000343001F057F82146403100F066FF2046F8
:10419000FEF7EBFB761CAE42AAD303E702E0FFE793
:1041A0008DA07FE77E4C94A1606802F0C1FE0028DC
:1041B00012D0A068002807D00A22002102F03CFF9C
:1041C00081B229808EA004E094A0FEF7CEFB29885E
:1041D000A0A0FEF7A3FCE5E6A6A1606802F0A8FE99
:1041E000002810D0A068002807D00A22002102F081
:1041F00023FF81B22981A0A0EBE7A6A0FEF7B5FBC3
:104200002989AFA0E5E7B6A1606802F091FE002819
:1042100010D0A068002807D00A22002102F00CFF6D
:1042200081B2A980AFA0D4E7B5A0FEF79EFBA98814
:10423000BEA0CEE7C5A1606802F07AFE00281AD0C1
:10424000A06800280CD00A22002102F0F5FEC00769
:10425000C00F688001D0BFA100E0BFA1BFA0B8E738
:10426000C4A0FEF782FB6888002801D0B9A100E055
:10427000B9A1CAA0ADE7D0A1606802F059FE00283C
:104280001AD0A06800280CD00A22002102F0D4FE27
:10429000C007C00FE88001D0AEA100E0AEA1C8A069
:1042A00097E7CFA0FEF761FBE888002801D0A9A11D
:1042B00000E0A9A1D7A08CE7DFA1606802F038FE7A
:1042C00000281AD0A06800280CD00A22002102F091
:1042D000B3FEC007C00F688101D09EA100E09EA17F
:1042E000D7A076E7DEA0FEF740FB6889002801D062
:1042F00098A100E098A1E7A06BE7EF48D2E6EE486E
:10430000FEF733FB68886A89E9886B4607C3AB8888
:104310002A892988E9A0FEF701FC43E6F8B5402286
:10432000F4A1214802F018FE1F4CFF48A11D0068AF
:1043300000F0DCFC21460F31FC480091006800F0E1
:10434000D5FC2146FA4818310F46006800F0CEFC33
:10435000F84821460088253180B20E4600F000FC66
:10436000F548214600882E3180B20D4600F0F8FB5A
:104370002046FEF7FAFAE1E1206C6F672064756D64
:1043800070205B6465632073746172745D205B648C
:104390006563206C656E5D0A000000006368610063
:1043A00018010020647700083C04002018770008FA
:1043B000206C6F6720636861205B646563207374A1
:1043C0006172745D205B646563206C656E5D0A00DC
:1043D00063686200B0770008206C6F6720636862D2
:1043E000205B6465632073746172745D205B646537
:1043F00063206C656E5D0A0066696C6500000000F4
:1044000020536574206C6F672066696C6520696E47
:1044100064657820746F2025640A0000206C6F6743
:104420002066696C65205B6465632066696C652045
:10443000696E6465785D20536574206C6F672066D3
:10444000696C6520696E64657828307E37292E0A8C
:10445000000000002063757272656E74206C6F67D7
:104460002066696C6520696E646578206973202513
:10447000640A00006D61780020536574206C6F67DA
:104480002066696C65206D617820746F2025640A50
:1044900000000000206C6F67206D6178205B646510
:1044A000632066696C65206D61785D2053657420BA
:1044B0006C6F672066696C65206D61782E0A00005C
:1044C0002063757272656E74206C6F672066696C0C
:1044D00065206D61782069732025640A0000000062
:1044E000696E740020536574206C6F6720696E7468
:1044F000657276616C20746F2025640A00000000EC
:10450000206C6F6720696E74205B64656320696E40
:1045100074657276616C5D20536574206C6F6720E2
:10452000696E74657276616C2E0A00002063757284
:1045300072656E74206C6F6720696E746572766147
:104540006C2069732025640A0000000072696E67A0
:10455000000000004F6E00004F6666002053657437
:104560002052696E67204D6F646520746F2025733B
:104570000A000000206C6F672072696E67205B3054
:104580007C315D205475726E204F6E2F4F66662011
:1045900072696E67206D6F64652E0A002063757204
:1045A00072656E742072696E67206D6F6465206934
:1045B000732025730A0000006175746F000000000D
:1045C00020736574206175746F2073746172742038
:1045D0006C6F67206D6F646520746F2025730A000F
:1045E000206C6F67206175746F205B307C315D20BB
:1045F0005475726E204F6E2F4F6666206175746F12
:10460000207374617274206C6F67206D6F64652E07
:104610000A0000002063757272656E742061757403
:104620006F207374617274206C6F67206D6F6465A6
:104630002069732025730A0063726F737300000092
:10464000207365742063726F73732066696C6520D4
:104650006C6F67206D6F646520746F2025730A008E
:10466000206C6F672063726F7373205B307C315DE9
:10467000205475726E204F6E2F4F66662063726FE6
:1046800073732066696C65206C6F67206D6F64655D
:104690002E0A00002063757272656E742063726F5B
:1046A00073732066696C65206C6F67206D6F64653D
:1046B0002069732025730A0000760008204C6F677C
:1046C0002046494C453D2564204D41583D256420F8
:1046D000494E543D25642052494E473D25642041B2
:1046E00055544F3D25642043524F53533D25640A92
:1046F00000000000204348413A2030302E30303056
:1047000030562030302E30303030412030302E3096
:104710003030305720553A30783132333420493AEE
:104720003078313233340A00600100206401002007
:1047300078010020480100204A010020402263A1A6
:10474000204602F009FC6E48A11D006800F0CEFA78
:104750006C480099006800F0C9FA6B483946006857
:1047600000F0C4FA69483146008880B200F0F8F9D8
:1047700067482946008880B200F0F2F92046FEF72B
:10478000F4F8F8BDF8B5282262A16C4802F0E4FB09
:104790006B486A4C0088A11D80B200F0E1F96948BD
:1047A000214600680D3180000F4600F0B9F96648D7
:1047B00021460088193180B20E4600F0D1F96348D5
:1047C00021460068203180000D4600F0A9F92046FE
:1047D000FEF7CBF828225EA1204602F0BDFB4B4835
:1047E000A11D008880B200F0BBF96348394600681B
:1047F000800000F095F946483146008880B200F00C
:10480000AFF95E4829460068800000F089F920462B
:10481000FEF7ABF8F8BD5A4900204B68002B04D0D6
:104820000A220021184602F007FC564C00212160A4
:10483000052102F023FB21688842FCD852A0FEF734
:1048400094F872B6BFF34F8F55495448C860BFF310
:104850004F8FFEE770B5534E0024301F0578AD1E14
:104860000AE020460C21484381194A6831584EA07D
:10487000FEF754F9641C24B2AC42F2DB70BD70B593
:104880004C4800240178CB0601880088C9050A0F2E
:10489000410ADB0E48A0FEF741F94E4D4E4E286806
:1048A0003168005D0009085CFEF74AF82868316845
:1048B000005D0007000F085CFEF742F8641CE4B2DC
:1048C0000C2CECD345A0FEF750F870BD20434842B5
:1048D0003A2030302E30303030562030302E3030CC
:1048E0003030412030302E303030305720553A3083
:1048F000783132333420493A3078313233340A0057
:1049000070010020740100207C0100204C01002077
:104910004E0100202055613A307831323334203056
:10492000783132333435362049613A307831323398
:10493000342030783132333435360A003C040020DC
:1049400048010020580100204A0100205C0100209D
:104950002055623A30783132333420307831323376
:104960003435362049623A30783132333420307869
:104970003132333435360A00680100206C010020E2
:1049800018010020BC010020207265626F6F7469FD
:104990006E67202E2E2E200A000000000400FA056B
:1049A00000ED00E0B0720008202573202D3E202588
:1049B00073000000947300082055494D65746572BA
:1049C0004475616C207625642E25642E2564205361
:1049D0004E3A0000C8010020300100200A20454363
:1049E000484F2053747564696F203C6563686F2E6F
:1049F000786A747540676D61696C2E636F6D3E2EC9
:104A000020416C6C2052696768747320526573652D
:104A1000727665642E200A0010B500203C493D4B9B
:104A2000FF242402C201D2181288A24202D10880B7
:104A3000012010BD401C80B20828F3D3002008805C
:104A400010BD70B53248334B0178334C4907490FDC
:104A500001800020C90142008D18ED186D88401CAE
:104A600080B2A5523F28F6D33F212B4800F005FC29
:104A700070BDF8B5264C00252078284F4007400F20
:104A80002080FDF712FD2088224EC00180190021F0
:104A9000FDF756FD2078401C4007400F2080C001E4
:104AA00080190188B94203D0FDF730FD0020208035
:104AB0002088FF21C00180190902FDF741FD3E2138
:104AC000154800F0DAFB1449134F403188872088DD
:104AD0006900C00142180F48795A801C1018FDF770
:104AE0002FFD6D1CADB206463F2DF0D3FDF7E6FC61
:104AF0003046F8BD024608461106074AC90D505215
:104B000070470006044AC00D105A08807047000024
:104B10002C010020001C00083C050020FFFF0000C5
:104B20000202130F10B5F94A1468E35C0B7003031B
:104B300014681B0FE35C4B70030414681B0FE35CE9
:104B40008B70030514681B0FE35CCB7003061B0F0F
:104B500012680007D35C0B71000F105C487110BD28
:104B600010B5EA4A030B1468E35C0B700305146884
:104B70001B0FE35C4B70030614681B0FE35C8B7028
:104B800000071268000F105CC87010BD0206130FFA
:104B900010B5DE4A00071468000FE35C0B70126862
:104BA000105C487010BDF8B50C460546D84A2D215A
:104BB00039202E26954205DC21706070A670E070C9
:104BC000207191E0002D01DA6D4232E0D04F7F423A
:104BD000BD4223DA202020707D21C900284602F042
:104BE00063F90A2102F060F930316170A670642126
:104BF000284602F059F90A2102F056F93031E170E5
:104C00000A21284602F050F90D460A2102F04CF91B
:104C100030312171294630316171F8BDBD498D4275
:104C200009DA3946284602F03FF90A2102F03CF938
:104C300030312170D0E7B8498D4221DA0A21284667
:104C400002F032F90546394602F02EF90A2102F047
:104C50002BF9303121707D21C900284602F024F95A
:104C60000A2102F021F9303161706421284602F0F6
:104C70001BF90A2102F018F93031A170E670BFE784
:104C8000A6498D422BDA6421284602F00DF905462B
:104C9000394602F009F90A2102F006F93031217093
:104CA0007D21C900284602F0FFF80A2102F0FCF835
:104CB000303161706421284602F0F6F80A2102F0D2
:104CC000F3F83031A1700A21284602F0EDF80D46C4
:104CD0000A2102F0E9F83031E17026719AE720707C
:104CE0006070A070E07026716071F8BDF8B50C4678
:104CF00006468949894A39202E25864F002E63DBD6
:104D0000BE4202DA2020207063E08E4215DA394676
:104D1000304602F0C9F80A2102F0C6F8303121709D
:104D200057E06421304602F0BFF80A2102F0BCF8D7
:104D300030312171A3E0A171F8BD964210DA0A2149
:104D4000304602F0B1F80646394602F0ADF80A21C5
:104D500002F0AAF8303121706D493046494257E0DF
:104D60006F498E4210DA6421304602F09DF8064603
:104D7000394602F099F80A2102F096F83031217094
:104D80006349304649425FE066498E421ADA7D2126
:104D9000C900304602F088F80646394602F084F829
:104DA0000A2102F081F830312170594930464942D8
:104DB00002F07AF80A2102F077F8303161707D2133
:104DC000C9007DE020709AE02D2376422370BE4218
:104DD00015DA4F493046494202F066F80A2102F0DE
:104DE00063F8303161707D21A570C900304602F052
:104DF0005BF80A2102F058F83031E17091E78E42F9
:104E000019DA0A21304602F04FF841490646494274
:104E100002F04AF80A2102F047F8303161707D2132
:104E2000C900304602F040F80A2102F03DF8303166
:104E3000A170E57075E796422EDA6421304602F0E3
:104E400033F833490646494202F02EF80A2102F0AF
:104E50002BF8303161707D21C900304602F024F812
:104E60000A2102F021F83031A1706421304602F0AD
:104E70001BF80A2102F018F83031E17025710A217F
:104E8000304602F011F80D460A2102F00DF83031DB
:104E90006171294630314EE721498E422FDA7D2754
:104EA000FF003946304601F0FFFF194906464942E6
:104EB00001F0FAFF0A2101F0F7FF30316170394645
:104EC000304601F0F1FF0A2101F0EEFF3031A17010
:104ED0006421304601F0E8FF0A2101F0E5FF30319E
:104EE000E1700A21304601F0DFFF0E460A2101F091
:104EF000DBFF303121713146657130311BE7607065
:104F0000A070E07020716571A071F8BD30010020C3
:104F1000F0D8FFFFA086010040420F008096980065
:104F200000E1F50500CA9A3BF8B500260C46054697
:104F3000002801DA761E4542DC49284601F0B4FF1C
:104F40000A2101F0B1FF3031CFB22770D84928468D
:104F500001F0AAFF0A2101F0A7FF303161702E2075
:104F6000A070D449284601F09FFF0A2101F09CFF60
:104F70003031E1707D21C900284601F095FF0A21FA
:104F800001F092FF303121716421284601F08CFF3D
:104F90000A2101F089FF303161710A21284601F0B0
:104FA00083FF0D460A2101F07FFF3031A1712946B0
:104FB0003031E171002E01D02D2002E0302FA4D13C
:104FC00020202070A1E770B500260C460546002879
:104FD00001DA761E4542B749284601F065FF0A21ED
:104FE00001F062FF303121707D21C900284601F0B7
:104FF0005BFF0A2101F058FF3031617064212846BF
:1050000001F052FF0A2101F04FFF3031A1702E2034
:10501000E0700A21284601F047FF0D460A2101F001
:1050200043FF303121712946303161710020202148
:10503000225C302A08D1221852782E2A04D021541A
:10504000401CC0B20428F3D3002E05D0002803D0A2
:105050002D2120182038C17770BD70B500260C4670
:105060000546002801DA761E45429049284601F09F
:105070001BFF0A2101F018FF303121708C492846AE
:1050800001F012FF0A2101F00FFF303161708949F0
:10509000284601F009FF0A2101F006FF3031A17016
:1050A0007D21C900284601F0FFFE0A2101F0FCFE27
:1050B0003031E1706421284601F0F6FE0A2101F04A
:1050C000F3FE303121710A21284601F0EDFE0D4634
:1050D0000A2101F0E9FE3031617129463031A171B8
:1050E00000202021225C302A04D12154401CC0B26F
:1050F0000628F7D3002E05D0002803D02D21201834
:105100002038C17770BD70B500260C4605460028D2
:1051100001DA761E45426749284601F0C5FE0A219C
:1051200001F0C2FE303121707D21C900284601F016
:10513000BBFE0A2101F0B8FE3031617064212846BF
:1051400001F0B2FE0A2101F0AFFE3031A1700A2158
:10515000284601F0A9FE0D460A2101F0A5FE3031D6
:10516000E17029463031217100202021225C302A53
:1051700004D12154401CC0B20428F7D3002E05D01E
:10518000002803D02D2120182038C17770BD70B5BC
:1051900000260C460546002802DA761E404205B27B
:1051A0007D21C900284601F07FFE0A2101F07CFE26
:1051B000303121706421284601F076FE0A2101F089
:1051C00073FE303161700A21284601F06DFE0D46F4
:1051D0000A2101F069FE3031A17029463031E170B9
:1051E00000202021225C302A04D12154401CC0B26E
:1051F0000328F7D3002E05D0002803D02D21201836
:105200002038C17770BD70B50C460A2101F04CFE04
:105210000D460A2101F048FE303121702946303117
:10522000617070BD020E0A7002144A7002128A7018
:10523000C870704701780A064178090411438278E2
:10524000C07812020A431043704770B50646002228
:1052500019481A4D0EE0B35C58400023C407E40F10
:105260004008002C00D068405B1C9BB2082BF5D393
:10527000521C92B28A42EED370BD70B5064600222F
:105280000D480E4D0FE05300F35A58400023C40759
:10529000E40F4008002C00D068405B1C9BB2082B38
:1052A000F5D3521C92B28A42EDD370BD40420F003A
:1052B000A086010010270000FFFF000001A00000F1
:1052C000164A00218B00D358834202D1880010581F
:1052D0007047491C89B20C29F4D3E1204002704781
:1052E00010B50E4C002291006158814203D9521C26
:1052F00092B20C2AF7D30C21501C01F0BFFD88009C
:105300002058E1224B215202C901904201D908469E
:1053100010BD8842FCD2104610BD00006473000826
:1053200031B53724240104E0204601F0AAFBFDF743
:10533000F8FA6A461188481E1080F5D238BDF8B5D3
:10534000D94D002408212846FDF785F8102128466C
:10535000FDF77FF80A2001F094FB20212846FDF795
:1053600078F80A2001F08DFB09252026ED0680271C
:1053700006E0641CA4B20A2001F083FB022C12D8C0
:10538000A88AA98A400838404909402211400843A8
:10539000A98AC90931400843A98AC44AC90A1140E7
:1053A00008430006E5D42021BF48FDF754F8F8BDB6
:1053B00070B5BD4D0E46044620212846FDF74BF83A
:1053C000002E04D008212846FDF743F803E0082109
:1053D0002846FDF740F810212846FDF73CF80A2042
:1053E00001F04FFBB3492206B1488A8A01D5024336
:1053F00000E082438A826206AF488A8A01D502436E
:1054000000E082438A82A206AC488A8A01D5024320
:1054100000E082438A82E006888A03D50122D20313
:10542000104301E04004400C88820A2001F029FB6F
:1054300020212846FDF70DF80A2001F022FB20214B
:105440002846FDF708F870BDF3B5974C0D4681B0BE
:1054500020212046FCF7FFFF002D04D00821204624
:10546000FCF7F7FF03E008212046FCF7F4FF1021CA
:105470008D48FCF7F0FF0A2001F003FB01980F2193
:1054800008438C4C01068A4DA18A01D5294300E0CE
:10549000A943A1824106884EA18A01D5314300E08B
:1054A000B143A1828106854FA18A01D5394300E02D
:1054B000B943A182C006A08A03D50121C9030843CC
:1054C00001E04004400CA0820A2001F0DAFA202119
:1054D0007548FCF7BEFF0A2001F0D3FA202172487C
:1054E000FCF7B9FF0198000101460F310906A18AB6
:1054F00001D5294300E0A943A1820F2241065206AB
:10550000D142A18A01D5314300E0B143A1820F22EB
:1055100081069206D142A18A01D5394300E0B94300
:10552000A1820F21C006C906C842A08A03D5012165
:10553000C903084301E04004400CA0820A2001F0A6
:10554000A0FA594C20212046FCF783FF0A2001F0E5
:1055500098FA20212046FCF77EFFFEBD10B50520FD
:10556000FFF7DEFE00213020FFF722FF0520FFF7C6
:10557000D7FE00213020FFF71BFF0120FFF7D0FEF0
:1055800000213020FFF714FF0120FFF7C9FE0021A2
:105590002820FFF70DFF0520FFF7C2FE002128207D
:1055A00000F07BF80021082000F077F800210620A9
:1055B00000F073F800210C2000F06FF800210120AA
:1055C00000F06BF810BD10B50021012000F065F867
:1055D00000203B4920220A54401CC0B22028FAD3A4
:1055E00010BD70B50024364D00281FD001282AD0E8
:1055F000022836D0032842D00021802000F04DF848
:10560000285D012100F049F8641CE4B2102CF7D3A6
:105610000021C02000F041F81024285D012100F095
:105620003CF8641CE4B2202CF7D370BD002180202C
:1056300000F033F8285D012100F02FF8641CE4B27B
:10564000082CF7D370BD0021882000F026F808242C
:10565000285D012100F021F8641CE4B2102CF7D37E
:1056600070BD0021C02000F018F81024285D012131
:1056700000F013F8641CE4B2182CF7D370BD0021BD
:10568000C82000F00AF81824285D012100F005F870
:10569000641CE4B2202CF7D370BD10B5FFF7D4FE24
:1056A000FFF74DFE10BD000000040048F0FF1F0092
:1056B0000001000000000048000800000010000089
:1056C000BC05002010B5974C80212046FCF7C1FE98
:1056D00040212046FCF7BDFE022001F0D2F98021D6
:1056E0002046FCF7B8FE022001F0CBF9402120460D
:1056F000FCF7B1FE002001F0C4F910BD70B5894E71
:10570000054600242846A0400006C20F80213046EE
:10571000FCF7A3FE002001F0B4F940213046FCF76D
:1057200098FE012001F0ADF940213046FCF793FED0
:10573000641CE4B2082CE5D3002001F0A2F980211A
:105740003046FCF786FE002001F09BF940213046F0
:10575000FCF77FFE002001F094F980213046FCF731
:1057600071FE044640213046FCF775FE002001F032
:1057700088F9204670BD70B56A4E002480213046FD
:10578000FCF767FE0025002001F07BF94021304640
:10579000FCF761FE012001F074F940213046FCF76E
:1057A00058FE002001F06DF980213046FCF74AFEDA
:1057B00061060C0EC00701D0641CE4B26D1CEDB292
:1057C000082DE0D340213046FCF745FE002001F0D3
:1057D00058F9204670BD70B514460E460546FFF7D1
:1057E00071FF68084000FFF789FF3046FFF786FF2A
:1057F000200AFFF783FFE0B2FFF780FF00F07DF89B
:1058000070BD70B514000E46054649D0FFF75AFF2B
:1058100068084000FFF772FF3046FFF76FFF00F0A7
:105820006CF8FFF74FFF284601210843FFF766FF9A
:10583000FFF7A1FF3B4D064680212846FCF70BFEF3
:10584000002001F01EF940212846FCF702FE01204D
:1058500001F017F940212846FCF7FDFD002001F07A
:1058600010F930022080FFF786FF06468021284687
:10587000FCF7EFFD002001F004F940212846FCF779
:10588000E8FD012001F0FDF840212846FCF7E3FD8A
:10589000002001F0F6F820883043208000F02DF839
:1058A00070BDF8B5204A00218020FFF7AAFF1E48EE
:1058B000072402886402A2433825AA43802628329E
:1058C000FF27B24341373A43028000213046FFF7B9
:1058D00082FF154A0021921C8220FFF792FF124896
:1058E0000021801C0288A243AA432832B2433A43D3
:1058F00002808220FFF76FFFF8BD10B5094C8021B0
:105900002046FCF7A8FD40212046FCF7A2FD01201F
:1059100001F0B7F880212046FCF79BFD002001F044
:10592000B0F810BD0004004834010020F8B500258F
:10593000092706462C46FF0620213846FCF789FD3C
:10594000300604D580213846FCF783FD03E0802132
:105950003846FCF780FD7006060E20213846FCF71D
:105960007AFD6806050E20213846FCF772FD4021BD
:105970003846FCF767FD2843641CE4B20546082C52
:10598000DAD3F8BD70B50926F60610213046FCF7CB
:1059900062FD9F20FFF7CAFFFF20FFF7C7FF050446
:1059A000FF20FFF7C3FF04022C43FF20FFF7BEFFD9
:1059B0002043054610213046FCF74BFD284670BDBC
:1059C00070B50926F60610213046FCF744FD9020FC
:1059D000FFF7ACFF0020FFF7A9FF0020FFF7A6FFAD
:1059E0000020FFF7A3FFFF20FFF7A0FF0502FF2025
:1059F000FFF79CFF2843044610213046FCF729FDA1
:105A0000204670BD10B50924E40604212046FCF7A9
:105A100020FD08212046FCF71CFD10212046FCF744
:105A200018FD20212046FCF714FDFFF7C9FF7C4C30
:105A30006060FFF7A7FFA0607A496068401806D051
:105A4000012807D002280AD0032806D10AE0012045
:105A5000400201E0012080022080002010BD0120D2
:105A6000C002F9E701200003F6E770B50925ED064D
:105A700010212846FCF7EFFC0520FFF757FFFF2019
:105A8000FFF754FF044610212846FCF7E2FC2046AD
:105A900070BD10B50924E40610212046FCF7DBFC9C
:105AA0000620FFF743FF10212046FCF7D2FC10BD73
:105AB00010B501E0FCF735FFFFF7D7FFC007F9D1BC
:105AC00010BDF8B509270C460646FF0615461021FD
:105AD0003846FCF7C0FC0320FFF728FF2002000E29
:105AE000FFF724FF2004000EFFF720FFE0B2FFF7CE
:105AF0001DFF0020694608E0FF20FFF717FF6946F9
:105B00000988705469460888401C08800888A842A3
:105B1000F2D310213846FCF79CFCF8BDF8B51546C9
:105B20000C460646FFF7B5FF0927FF061021384649
:105B3000FCF791FC0220FFF7F9FE2002000EFFF7B0
:105B4000F5FE2004000EFFF7F1FEE0B2FFF7EEFED7
:105B50000020694606E00888305CFFF7E7FE6946EA
:105B60000888401C08800888A842F4D310213846D1
:105B7000FCF76FFCFFF79CFFF8BD10B5FFF789FF3E
:105B8000FFF796FF0924E40610212046FCF763FC8A
:105B9000C720FFF7CBFE10212046FCF75AFCFFF789
:105BA00087FF10BD70B50446FFF773FFFFF780FF56
:105BB0000925ED0610212846FCF74DFC2020FFF7B3
:105BC000B5FE2002000EFFF7B1FE2004000EFFF725
:105BD000ADFEE0B2FFF7AAFE10212846FCF739FC23
:105BE000FFF766FF70BDF8B507460E46FF20C9B245
:105BF00001301546441AAC4200D3144622463146C1
:105C00003846FFF78BFFA54209D0281B3F193619EC
:105C1000FF2485B20134A542F0D82C46EEE7F8BD4A
:105C200038010020EC10FFFF10B5FF4CC821A06F19
:105C300001F024F9002902D12069401C20613221A1
:105C4000A06F01F01BF9F8487C30026800291DD0D4
:105C500001291AD002291BD00A2916D1616E491CCC
:105C600013D1F2498A88F2498A420ED00146096866
:105C700008231943002A07D0A36E92005B1CA36679
:105C80009A4202D80022A266016010BD102100E0F5
:105C900004210A43026010BDF8B500F09DFFE249FF
:105CA000E24C48700F78002509220326403C3B0057
:105CB00001F0DAFA0C07121D2E97904C116F419EDD
:105CC000AB11032806D00422042803D0052818D0DD
:105CD000062800D10A70F8BD032804D00428FAD0A1
:105CE0000528F8D11EE00D70F8BD0870F8BD032836
:105CF00007D0042809D0052805D00628F6D10D6163
:105D0000F8BD0120F1E70E70F8BDFDF7C3F8F8BD4E
:105D1000032807D0042874D00528DBD00628F6D144
:105D20000820E2E70220E0E70020C0430D67486654
:105D3000F8BD4D66F8BD0328E5D0042804D0052839
:105D4000D1D00628F6D1D0E70520CEE7032807D02A
:105D50000428BFD005280DD00628EBD10A7022E018
:105D6000208C64214843FFF7BBFA642101F086F8D8
:105D70002084F8BDA08CA02801D2203004E0F028B7
:105D800001D2103000E0401CC0B2A08400F066FEDA
:105D9000F8BDA64A032809D004280ED0052808D04B
:105DA0000628F5D10E7000F059FFF8BD9088401E0E
:105DB00001E09088401C9080F8BD90889C4B9842F0
:105DC000A1D11088401C80B2108011898842F3D381
:105DD0001580F8BD0328A0D00428FAD00528F8D1F2
:105DE00078E70328ACD00428F3D00528F1D17AE76E
:105DF0000B220328F4D0042887D00528F0D00628E9
:105E0000E7D1486E002894D18EE70A220328E7D014
:105E10000428A5D00528E3D00628C4D0F8BD824ABE
:105E200010B5921D01218020FFF7EBFC7E4A022174
:105E3000121D8020FFF7E5FC7B4A01210A328220F7
:105E4000FFF7DFFC784A022108328220FFF7D9FCF5
:105E5000754978488A890368002A17D006240C5FA0
:105E60001B19036004240C5F43681B1943600A2458
:105E70000C5F83681B19836008240C5FC3681B19BF
:105E8000C360521C9006800E888110BD8B614368F0
:105E90004B6183688B62C3684B620623CB5E0360F1
:105EA0000423CB5E43600A23CB5E83600823CB5E72
:105EB000C3605D4802247C30036823430360E0E74D
:105EC00010B55948816F491C8167FFF7E5FEFFF760
:105ED000A6FFFFF7A9FE10BDF8B553487C30016856
:105EE0008A077ED502229143504D01604E4C403DC1
:105EF0000C20285EA169081A8100401881112162D6
:105F000028896A890004801801F096F94A4E002316
:105F1000324600F0DDFF20620420285E6169081A25
:105F200019214843C111E16128886A88000480185A
:105F300001F082F93246002300F0CAFFE0611C2024
:105F4000285EA16A081A8100401881112163288BFC
:105F50006A8B0004801801F06FF93246002300F0CC
:105F6000B7FF20631420285E616A081A192148438C
:105F7000C111E162288A6A8A0004801801F05CF984
:105F80003246002300F0A4FFE0620746E169206A80
:105F90002A4D4843294600F087FF06466063206B80
:105FA0002946784300F080FFA063071E0BD03046DF
:105FB00029464843394600F077FFE063A84204DDF4
:105FC000E56302E00DE00020E063002E0AD01B49EB
:105FD00038464843314600F067FF2064A84200DDA0
:105FE0002564F8BD00202064F8BDF8B50E487C306B
:105FF0000168CA0658D5102291430B4C0160206AF3
:106000007D214843122100F04FFF616D47186765FD
:10601000606B7D214843122100F046FFA16D084EC0
:106020004018A06575420DE0440100207C05002069
:10603000FFFF0000DC050020A08601001027000003
:10604000C0BDF0FF616C01E0BF19491CAF42FBDC31
:1060500067656164A16C01E08019491CA842FBDC02
:10606000A164A065206B7D214843122100F01CFF34
:10607000E16D4718E765A06B7D214843122100F0D0
:1060800013FF216E40182066E16C01E0BF19491C26
:10609000AF42FBDCE765E164216D01E08019491C3A
:1060A000A842FBDC21652066F8BD70B5FE4CFD48BA
:1060B0002022FEA1206000F04FFF2546803D216890
:1060C000E869FEF713FE2168E86A0831FEF70EFE64
:1060D0002168286A1031FEF709FE2168286B183103
:1060E000FEF704FE70BD70B5EF4CEE482022F8A11B
:1060F000206000F031FF2546803D2168686BFEF787
:10610000F5FD2168A86B0831FEF7F0FD2168E86B0A
:106110001131FEF758FF2168286C1931FEF753FF43
:1061200070BD70B5E04CDF482022F2A1206000F085
:1061300013FF2546803D2168686CFEF734FD216819
:10614000E86C0831FEF72FFD2168A86C1031FEF7CE
:106150002AFD2168A86C1831FEF725FD70BD70B5C9
:10616000D14CD0482022ECA1206000F0F5FEF3498C
:106170000420085E2168091DFFF709F825462168FB
:10618000803D1431286FFEF7BEFFED49286900F00D
:1061900075FE642100F072FE084621680A31FFF79F
:1061A00032F8E1210901286900F068FE182100F0A9
:1061B00065FE084621680D31FFF725F83C21286966
:1061C00000F05CFE3C2100F059FE084621681A31BF
:1061D000FFF719F83C21286900F050FE08462168B5
:1061E0001D31FFF710F870BD70B5AF4DAD490024FB
:1061F00013202960FFF707F829682E268E700620E5
:10620000C91CFFF700F829681B204E71891DFEF795
:10621000FAFF2868CB49CC4A08300B6815681B5D2B
:106220001B09ED5C6300C5540D6816682D5D1B18D5
:106230002D072D0F641C755DE4B25D700C2CECD342
:1062400070BD70B5984C97482022C0A1206000F026
:1062500083FEBA4D2168403D2020285EC91DFEF70F
:1062600096FF2168A88C1E31FEF790FC70BD70B5BA
:106270008D4C8C482022BEA1206000F06DFEAF4DF9
:106280002168A8880A31FEF73EFF21680820285EB1
:106290001531FEF7B8FF21680020285E1E31FEF799
:1062A000B2FF70BD70B5804C7E482022B9A120603D
:1062B00000F052FE2546803DA888216880B2FEF796
:1062C0004FFCE888216880B2091DFEF749FC288947
:1062D000216880B20831FEF743FC6889216880B2EA
:1062E0000C31FEF73DFCA88A216880B21031FEF720
:1062F00037FC288B216880B21431FEF731FCA88C62
:10630000216880B21831FEF72BFC288D216880B2FD
:106310001C31FEF725FC70BD70B5634D614820222D
:10632000A5A1286000F018FE844C403C20886188BC
:10633000000440182968FEF7F7FD208A618A0004EE
:10634000401829680831FEF7EFFD208961890004B3
:10635000401829681031FEF7E7FD208B618B00049F
:10636000401829681831FEF7DFFD70BD4E4810B5A2
:1063700080380078030000F077FF0C070A0D101C2E
:106380001916091F13222909FFF78FFE10BDFFF709
:10639000AAFE10BDFFF7C5FE10BDFFF7E0FE10BD61
:1063A000FFF722FF10BDFFF74CFF10BDFFF77AFF8C
:1063B00010BDFFF7B1FF10BDFFF759FF10BDFFF78C
:1063C00074FEFFF790FEFFF7ACFEE6E7FFF7A4FFD1
:1063D000FFF74DFFFFF735FFE2E7334810B5001F29
:1063E00001684A0714D5042291430160FFF7BEFFFC
:1063F0002D488038408801280AD00520FFF7F1F8A1
:106400000020284A20211154401CC0B22028FAD371
:1064100010BD70B52448001F01680A073FD5082247
:10642000914304467C3C0160206FD102434D884279
:106430000FD369890020002932D0206729882A8952
:10644000914202D2491C298003E0288069880029F2
:1064500026D06249206FFEF7E5FE60492069091DDC
:10646000FEF7E0FE5D49E0690831FEF7DBFE5B49BF
:10647000206A0C31FEF7D6FE5849606B1031FEF7EA
:10648000D1FE5649E06B1431FEF7CCFE5349606CE7
:106490001831FEF7C7FE5149A06C1C31A0E0D2E0D4
:1064A000D0E00000BC050020C401002020302E30C8
:1064B0003030305620302E303030305620302E30B4
:1064C0003030304120302E3030303041000000007C
:1064D00020302E303030395720302E303030305789
:1064E000202020302E303025202020302E30302526
:1064F0000000000020302E303030416820302E3037
:106500003030416820302E303030576820302E3007
:1065100030305768000000004C493A2031323334A3
:1065200073203030643030684C433A203132333499
:10653000352030306D303073000000007C050020C5
:1065400080510100C80100203001002042617564C3
:106550003A20203131353230306270734261636BE2
:106560004C696768743A20203078303000000000B1
:106570004C6F67496E743A202020313233343573C2
:106580004D61783A2031322046696C653A203132CB
:10659000000000002055494D657465724475616CBA
:1065A00020202020206279204543484F20537475D5
:1065B00064696F200000000020312E303030303010
:1065C00020312E303030303020312E3030303030ED
:1065D00020312E303030303000000000EC0500203B
:1065E000FEF720FE6849E06A0E46FEF71BFE66498C
:1065F000206B091DFEF716FE6349A06B0831FEF7FC
:1066000011FE6149206C0C31FEF70CFE5E49E06C16
:106610001031FEF707FE5C49206D1431FEF702FED3
:1066200059483E212038FEF710FEB077000AF07777
:1066300028786067216F000589014018E066010530
:1066400002D003E0606670BDFFF7ACFA4E4840220E
:106650002038E16EFFF7C7FA206F401C206770BD3D
:1066600010B54A4C20690221884320612069400806
:106670004000206146480907C8634648C8210068B1
:1066800000F0FCFB401E606143480721C269130211
:106690001B0A0022C361A261216110BD00F086F8CF
:1066A00000F0C8F800F03CFBFEF7B6F900F0C8FABD
:1066B000002803D100F0DEFA00F0D0FA00F063F910
:1066C00000F0ADF800F07FF900F0BBF90924E40612
:1066D00001212046FBF7B6FE0025304E304F002842
:1066E00005D102212046FBF7ADFE002806D001218E
:1066F0002046FBF7A7FE002803D008E000F0BAFA16
:106700000EE002212046FBF79DFE012806D0012164
:106710002046FBF797FE012805D008E075847D80B0
:1067200000F09CFA03E002212046FBF78BFEFEF707
:1067300015FFFEF748FFB08C00F090F93D70642023
:10674000FEF7EEFD20221749174800F005FC052052
:10675000FEF747FF7D20C000FEF7E2FDFFF7A1F83E
:10676000FFF750F9FEF78BF8FFF77AFFFFF7B4FB5E
:10677000FFF73BFCFFF731FEFCF7A2FAFFF749FEFB
:10678000FCF7CFF8F2E700000C06002000E000E084
:10679000C15E0008D401002004ED00E03C050020AB
:1067A0004401002094650008BC05002010B5FBF7EB
:1067B0008BFC0120FBF7AEFCFBF7C9FC012821D1C3
:1067C000FBF769FE0120FBF75FFE0020FBF7F8FCFA
:1067D0000020FBF7FCFC0020FBF7DBFC0121090596
:1067E0000811FBF7CAFC0120FBF7D3FC1920FBF7CB
:1067F00096FC0028FAD00220FBF7D6FCFBF7DBFC66
:106800000828FBD1A648FBF7EAFC0121A548FBF7C5
:10681000A9FD0B200121C002FBF7ADFD10BD08B59D
:106820001B21684601700221417001218170FBF734
:1068300059FF08BDFEB50326002568460096057180
:106840000124C47109206946C006FBF7C3FD1C2062
:106850000090684644710471857109206946C0063C
:10686000FBF7B8FDA0200090684646710471857161
:1068700009206946C006FBF7ADFD40200090684640
:106880000571C47109206946C006FBF7A3FD992074
:10689000000200906846447104718471C47109203B
:1068A0006946C006FBF796FD700200900227684615
:1068B000077145718571C47109206946C006FBF7EF
:1068C00089FD09210122C806FBF7CDFD092001221F
:1068D0000A21C006FBF7C7FD684644718571009424
:1068E0000571714EC47169463046FBF773FD684609
:1068F000009707714471857169463046FBF76AFD60
:10690000022201213046FBF7AEFD3820674F009090
:10691000388801280ED00121684601710321417198
:106920008571C47169463046FBF754FD38880128EB
:1069300002D010E00221EFE7002203213046FBF7EE
:1069400092FD002204213046FBF78DFD0022052137
:106950003046FBF788FDC020009068460471447102
:106960008471C47169463046FBF734FDFEBD10B535
:106970004F4908814E4C203C40212046FBF77EFECB
:106980000128F9D110BD10B586B06846FBF748FE66
:1069900048486421008C4843FEF792FC444C009028
:1069A000203C69462046FBF7F1FD01224249204682
:1069B000FBF74FFE01212046FBF73DFE40493F48D3
:1069C000086006B010BDF0B593B008A8FBF71DFC39
:1069D0007D21C900089800F051FA3A4D3A4E2860DE
:1069E0003046FBF7A7FE00246846048044802868F0
:1069F0006946401E01906846048184723046FBF768
:106A0000EFFE7021684681810127C7810421018240
:106A10002868022140080590684601834483C90123
:106A20008183C48303A93046FBF706FF30883843CF
:106A30003080254840308188FA031143818013B0AB
:106A4000F0BD10B5FBF771FF2048FBF761FF032095
:106A5000FBF761FF1E48FBF761FF10BDC1B21A488A
:106A6000C26AFF23591A4A43110AC16370470028BA
:106A700003D0012803D017A0704718A0704719A0B1
:106A8000704701B569460888800008800888001DA5
:106A900008806A461088411E1180FAD208BD0000A5
:106AA0000300001001000600000400484601002019
:106AB000203801403C050020050105006F690008F1
:106AC00010010020CC010020002C01405555000091
:106AD000A60E0000554E4B4E4F574E004C434431CE
:106AE00036303200544654312E3434007047FEE7BD
:106AF00070477047704770B5134C08212046FBF76C
:106B0000BDFD002803D008212046FBF7BEFD0F4D38
:106B100020462946FBF7BBFD00280AD02046FBF79C
:106B200094FDC1B20A48FCF705F829462046FBF758
:106B3000CAFD70BD10B50220FBF7D2FE002802D0BE
:106B40000220FBF7D9FE10BD003801400501050009
:106B5000F0010020394A002091784B1C9370C8291D
:106B600001D3C8219170704710B50920002402217B
:106B7000C006FBF767FC31490028487808D0C828D0
:106B800001D3022402E0142800D30124002004E0F1
:106B9000421C4A70C82801D3C8204870204610BD46
:106BA00010B5092000240121C006FBF74BFC234946
:106BB0000028087808D0C82801D3022402E014284D
:106BC00000D30124002004E0421C0A70C82801D32D
:106BD000C8200870204610BD70B5FFF7E1FF0546DC
:106BE000FFF7C2FF0446FFF7B5FF012D04D0002DCB
:106BF00009D0022D0ED011E0002C02D0012C17D0AC
:106C00000CE0032070BD012C02D0022C0ED005E058
:106C1000052070BD002C07D0022C0BD001280BD012
:106C2000022809D0002070BD042070BD062070BD70
:106C3000072070BD082070BD092070BDD001002064
:106C400010B5FDF7FEFE38211D48FEF716FB0028A3
:106C500001D0002010BD0020C04310BD10B5372169
:106C60001748FEF70AFB164C4034E085FDF701FF9C
:106C7000E08D10BD10B5124801220280114B4380F7
:106C800000218180C180028143810F4C8481C181B8
:106C9000028243828182C1820283438384830923E7
:106CA000C183DB010384418480238384C284403018
:106CB000018041808280C18008220281418110BD13
:106CC0003C050020A0860000E8FF000010B54E48FB
:106CD000016801221143016041684C4A1140416042
:106CE00001684B4A114001600168012292049143FE
:106CF000016041683F22120491434160C16A090961
:106D00000901C162016BFF22543291430163416B5F
:106D10004908490041630021816000F02EF810BD50
:106D200070B5394D69680C2001403A483A4C03D09F
:106D3000042901D0082901D0206014E06A6869683C
:106D400003239202DB03160F1940B61C002907D05B
:106D5000E96A0907090F491C00F090F87043EBE756
:106D60002E484643266068682B490006000F091D1F
:106D7000085C2168C140216070BD1CB5002122481B
:106D800001910091026801231B041A4302605B0019
:106D90000522120304681C400094019C641C0194A9
:106DA000009C002C02D1019C9442F3D10268920312
:106DB00028D5012100911A4A1121116041684160D2
:106DC0004168416041687F22D2039143416041683C
:106DD000112212041143416001680122120611437D
:106DE000016001688901FCD541688908890041601A
:106DF000416802221143416041680907890F022955
:106E0000FAD11CBD00911CBD001002400CB8FF0857
:106E1000FFFFF6FE00127A00D401002000093D00B9
:106E2000002002400C4880F308880C480168090ED5
:106E30000B4A914205D10B480B4901600B480C49A4
:106E400001600C4880470C480047FEE7FEE7FEE77C
:106E5000FEE7FEE7FEE70000300A00200400000025
:106E60001F00000018100240010000000000014057
:106E700000000000CD6C0008B520000830B50B46BE
:106E8000014600202022012409E00D46D5409D4204
:106E900005D31D469540491B25469540401915468A
:106EA000521E002DF1DC30BD70B5002425460028AF
:106EB00001DA01244042002901DA01254942FFF7A5
:106EC000DDFFAC4200D04042002C00D0494270BDF2
:106ED000F8B500242546002904DA0E4601240021D5
:106EE0004042B141002B04DA1E46002352420125E4
:106EF000B34100F0DCF88C4617461E46AC4203D086
:106F0000002540428D41AC46002C02D0002657425D
:106F10009E4161463A46334601B0F0BD0048704795
:106F20001874000801464139192900D820307047EB
:106F300030B505462A460B4610781C78521C5B1C5F
:106F4000002801D0A042F7D0002C03D0002802D0A6
:106F50006D1CEFE7284630BD10B5044605E00B7800
:106F60000370401C002B00D0491C521EF7D2204653
:106F700010BD421C0178401C0029FBD1801A7047CB
:106F800070B5104D002800D12868002414E00A468E
:106F900002E09E4203D0521C1378002BF9D1DAB2E2
:106FA000224307D0002B06D0002C04D00021017012
:106FB000401C04E00446401C0678002EE7D12860FF
:106FC000204670BDE8010020F7B5009C0F46002662
:106FD0002578641C002D05D0FFF7A0FF0068405DF8
:106FE000C007F5D12B2D02D02D2D18D0641E3946A7
:106FF0002046029A00F08BF8002F04D03968A14295
:1070000001D1009939607105022400290BDA404250
:10701000002803DD00F036F90460A007FEBD012062
:1070200080020643E3E70028F8DA00F02BF9046059
:107030000048FEBDFFFFFF7FF7B582B00F46002678
:10704000029C00F01FF90090006801902578641CF4
:10705000002D05D0FFF762FF0068405DC007F5D145
:107060002B2D02D02D2D1CD0641E00980021016014
:1070700039462046049A00F04AF80146002F04D011
:107080003868A04201D10298386000980068022850
:107090000BD00098019A0260700506D5484205B0F1
:1070A000F0BD012080020643DFE70846F7E7F0B5B0
:1070B0001FB40646002082B005464024019100908E
:1070C0001BE0019922460F46304600F095F8049ADD
:1070D000059B801A994110D310461946224600F0AC
:1070E0007BF8361A8F410197224601200021009F2C
:1070F00000F072F838184D4100902046641E0028B8
:10710000DFDC019B00982946324607B0F0BDF7B599
:1071100082B0029C00272078641C15460197302815
:1071200002D0002D15D015E020780127641C7828A6
:1071300004D0582802D0002D09D00BE0002D01D03A
:10714000102D07D1002710252078641C02E00825A7
:1071500000E00A250026009610E000990127694307
:107160000818020C294680B2714300908E1838042A
:10717000864201D3012001902078641C294600F04A
:107180004CF80028E9DA0398002805D0002F01D038
:10719000641E00E0029C04600198002806D000F004
:1071A00071F802210160C81E05B0F0BD00993004DD
:1071B0000843F9E7064C0125064E05E0E36807CCD5
:1071C0002B430C3C98471034B442F7D3FAF776FFC0
:1071D00080780008A078000810B5202A04DB01465A
:1071E000203A9140002010BD914020239C1A034674
:1071F000E3401943904010BD10B5202A04DB084637
:10720000203AD040002110BD0B46D340D04020246E
:10721000A21A91400843194610BD3A2800D23038CE
:10722000202302469A43412A01D310463738884228
:1072300001D30020C0437047F8B504148BB2264632
:1072400082B25E430D141046371458433604801939
:107250000021794116466E4337143604801979416E
:1072600026466E438919F8BD30B47446641E2578ED
:10727000641CAB4200D21D46635D5B00E31830BC6A
:107280001847000000487047EC01002002E008C8E1
:10729000121F08C1002AFAD170477047002001E090
:1072A00001C1121F002AFBD1704700000F0000002F
:1072B000207800087C7400081D4300085C780008F2
:1072C000A0750008952E00080C78000800760008CC
:1072D0003B3C000844780008C875000815300008D9
:1072E0002878000874760008D93300084C78000824
:1072F000B476000861350008187800084875000861
:10730000EF390008347800081C740008BD2E00080E
:1073100010780008A0740008AD2D00082C78000833
:1073200044760008E13B000864780008DC7400083B
:107330001748000854780008BC7500085548000834
:107340003C780008607400087F4800080478000852
:10735000EC760008AD2F0008FC7700089075000857
:107360008547000800100E00000807000084030095
:1073700000C2010000E1000000960000004B000088
:1073800080250000C012000060090000B004000069
:107390002C010000DB26004040404040404040407F
:1073A00041414141414040404040404040404040D8
:1073B00040404040404040050202020202020202F8
:1073C000020202020202022020202020202020208F
:1073D00020020202020202029090909090901010FF
:1073E000101010101010101010101010101010109D
:1073F0001010020202020202888888888888080821
:1074000008080808080808080808080808080808FC
:107410000808020202024000977300086565707256
:107420006F6D205B6C6F61647C736176657C7265E7
:1074300061647C77726974655D205B616464725D10
:10744000205B646174615D204F70657261746520BA
:10745000496E742E20454550524F4D2E0A000000B3
:10746000646973706C617920535720766572736913
:107470006F6E20616E6420534E2E0A006765742083
:10748000766F6C746167652063757272656E7420C7
:10749000616E6420706F776572206574632E0A00D8
:1074A000666C617368205B726561647C7772697475
:1074B000657C65726173655D205B616464725D20EB
:1074C0005B646174615D204F706572617465205307
:1074D000504920466C6173682E0A00007265626F25
:1074E0006F74205B64656C6179206D735D205265FB
:1074F00073746172742073797374656D2E0A000061
:1075000063616C69205B75617C69617C75627C6913
:10751000625D205B555F3130303030587C495F31DF
:1075200030303030585D20566F6C74616765206F65
:10753000722043757272656E742063616C69627249
:107540006174696F6E2E0A0063616C69205B7561FE
:107550007C69617C75627C69625D205B555F31305E
:10756000303030787C495F3130303030785D2056B3
:107570006F6C74616765206F722043757272656EFF
:10758000742063616C6962726174696F6E2E0A00A7
:1075900067657420414420496E666F2E0A00000022
:1075A000636C65617220706F77657220616E642014
:1075B00074696D6520496E666F2E0A0068656C708F
:1075C00020496E666F2E0A00696E666F205B6261ED
:1075D00075647C6563686F7C626B6C747C6C6364DF
:1075E0007C74696D655D2053686F772F53657420D7
:1075F00073797374656D20696E666F2E0A000000E2
:107600006C6F67205B64756D707C6368617C636818
:10761000627C66696C657C6D61787C696E747C7275
:10762000696E677C6175746F7C63726F73735D20C4
:107630004F7065726174652064617461206C6F675E
:10764000732E0A00706172616D205B6C6F61647CE7
:10765000736176657C726573746F72655D204F70BF
:10766000657261746520706172616D6574657273B5
:107670002E0A000061646A205B75617C69617C751B
:10768000627C69625D205B61646A5F3130303030FA
:1076900030785D207365742073616D706C65206750
:1076A00061696E2061646A7573746D656E742E0A0B
:1076B000000000007A65726F205B75617C69617CF7
:1076C00075627C69625D205B4C53425D207365741A
:1076D0002073616D706C65207A65726F2061646AD9
:1076E0007573746D656E742E0A0000006D656D72A1
:1076F00064205B68657820616464725D205B686506
:1077000078206C656E5D2053686F77204D656D6FD6
:1077100072792E0A000000002031323334353637BA
:107720002C20313233343536372C2030302E303067
:1077300030302C2030302E303030302C2030302E75
:10774000303030302C2030302E303030302C203162
:107750003233343536372C20313233343536370A2C
:107760000000000020202020202020692C20202044
:1077700020742873292C20202055412856292C209C
:10778000202049412841292C2020205041285729D8
:107790002C20202020456666412C2020206D416849
:1077A0005F412C2020206D57685F410A00000000D7
:1077B00020202020202020692C20202020742873C5
:1077C000292C20202055422856292C2020204942AF
:1077D0002841292C20202050422857292C202020C5
:1077E00020456666422C2020206D41685F422C2097
:1077F00020206D57685F420A0000000067657461D1
:10780000640000006D656D72640000006C6F6700BD
:10781000666C61736800000063616C6900000000C1
:10782000676574756900000061646A007061726167
:107830006D000000656570726F6D00007665727393
:10784000696F6E00696E666F000000007A65726F86
:107850000000000068656C7000000000636C6561EA
:10786000720000007265626F6F7400003031323355
:10787000343536373839414243444546000000002C
:10788000A078000800010020F00000008C720008C1
:1078900090790008F0010020400800009C72000868
:1078A00000000000010203040102030406070809A6
:1078B00000000000000000000000000000000000C8
:1078C00000000000000000000000000000000000B8
:1078D0006C780008000000000008000000000000B4
:1078E0000000000000000000000000000000000098
:1078F0000000000000000000000000000000000088
:107900000000000000000000000000000000000077
:107910000000000000000000000000000000000067
:107920000000000000000000000000000000000057
:107930000000000000000000000000000000000047
:107940000000000000000000000000000000000037
:107950000000000000000000000000000000000027
:107960000000000000000000ACF7FF1F401F0000F7
:1079700000000000006CDC020000000000000000BD
:1079800001020304060708090000000000000000CF
:04000005080020B51A
:00000001FF
