:020000040800F2
:10800000D0370020018100083D880008B1860008B3
:1080100005880008B98200082193000800000000CC
:10802000000000000000000000000000618F000858
:10803000FB83000800000000F18C00082D90000870
:108040001B8100081B8100081B8100081B810008A0
:108050001B8100081B8100081B8100081B81000890
:108060001B8100081B8100081B8100081B81000880
:108070001B8100081B8100081B8100081B81000870
:108080001B8100081B8100081B8100081D9300084C
:108090001F9300081B8100081B8100081B8100083A
:1080A0001B8100081B8100081B8100081B81000840
:1080B0001B8100081B8100081B8100081B81000830
:1080C0001B8100081B8100081B8100081B81000820
:1080D0001B810008A99000081B8100081B81000873
:1080E0001B8100081B8100081B930008DFF80CD0DF
:1080F00000F0C2F80048004731A50008D037002042
:108100000648804706480047FEE7FEE7FEE7FEE731
:10811000FEE7FEE7FEE7FEE7FEE7FEE73190000838
:10812000ED8000080048704778B5000830B5054676
:108130002A460B4612F8010B13F8014B08B1A04276
:10814000F8D01CB1002802D06D1CF1E7284630BDE4
:1081500010B5044604E00B7800F8013B03B1491C5C
:10816000521EF8D2204610BD2DE9F05F93460F460F
:1081700080460446002601F007FAD0F800908246B7
:1081800014F8015B2DB1FFF7CDFF0068405DC0071B
:10819000F6D12B2D02D02D2D1AD0641E0021CAF845
:1081A00000105A463946204600F017F8014627B11C
:1081B0003868A04201D1C7F80080DAF80000022830
:1081C00009D0CAF80090700505D54842BDE8F09F77
:1081D00046F48066E2E70846F8E72DE9F05F82465C
:1081E0000078002715468B460AF10104B94630286D
:1081F00001D09DB113E014F8010B0127782803D0BA
:10820000582801D045B10AE00DB1102D07D1002743
:10821000102514F8010B02E0082500E00A250026CD
:10822000B0460EE005FB080005FB06F1012701EB57
:1082300010461FFA80F8B6F5803F00D3B94614F80F
:10824000010B294600F02AF80028EBDABBF1000FF9
:1082500005D00FB1641E00E05446CBF80040B9F1E0
:10826000000F06D001F090F902210160C81EBDE8A0
:10827000F09F48EA0640FAE7064C074D06E0E06842
:1082800040F0010394E8070098471034AC42F6D35D
:10829000FFF730FF7CB500089CB500083A2800D2F3
:1082A000303820F02002412A01D3A2F13700884261
:1082B00001D34FF0FF307047FEE7000010B50548CE
:1082C00001F0F9FB012204A1002001F025FC4FF090
:1082D000FF3010BD842300202F00000001684FF6FE
:1082E000FE72114001600021016041608160C16047
:1082F0003149314A0839904203D1486840F00F00B3
:1083000006E02D4A1432904204D1486840F0F00053
:1083100048607047284A2832904203D1486840F4A8
:108320007060F5E7244A3C32904203D1486840F43B
:108330007040EDE7204A5032904203D1486840F443
:108340007020E5E71C4A6432904203D1486840F44B
:108350007000DDE7184A7832904203D1486840F057
:108360007060D5E7154A111F904203D1086840F0AC
:108370000F0006E0114A1432904204D1086840F020
:10838000F000086070470D4A2832904203D1086817
:1083900040F47060F5E7094A3C32904203D1086826
:1083A00040F47040EDE7054A50329042EAD1086847
:1083B00040F47020E5E70000080002400804024095
:1083C00030B5036847F6F07293430C6A8A6822431B
:1083D000D1E904452C4322438C692243CC692243D2
:1083E0004C6A22438C6A22431A430260CA68426084
:1083F0000A6882604968C16030BD7047044AD1682C
:1084000000E000BFD3685B1A8342FAD370470000D4
:108410003400002001B5BDF800004FF6FF7101EAFD
:10842000C000ADF80000BDF80000001DADF8000070
:10843000BDF80000411EADF80010F9D208BD0000E3
:1084400010B50A490A4B00204FF47F4403EBC012D9
:10845000B2F80028A24202D10880012010BD401CC1
:1084600080B20828F2D30020088010BD1C00002034
:10847000007000080C4830B401780C4A01F0070184
:10848000018000200A4BC90101EB40041444B4F8F8
:10849000024823F81040401C80B23F28F4D330BC7F
:1084A0003F21034800F0AFB91C0000200070000815
:1084B00074000020F8B51E20ADF8000001262C4FF6
:1084C0008DF8026010258DF803506946384600F09B
:1084D00055F8E020ADF8000003248DF80240182084
:1084E0008DF803006946384600F048F86002ADF8A0
:1084F00000008DF8026048268DF803606946384612
:1085000000F03CF8E002ADF800008DF802401C20BD
:108510008DF803006946384600F030F86003ADF886
:10852000000002248DF8024014208DF803006946F3
:10853000384600F023F801210E4800F071F8E00100
:10854000ADF800008DF802408DF803600A4E6946D0
:10855000304600F013F8E002ADF800008DF802405C
:108560008DF803506946304600F008F8F8BD000069
:108570000008014000043000000C0140F0B5CA784A
:10858000002502F00F03D20601D58A7813430A783A
:108590004FF00F0E12F0FF0F4FF001021CD00468D5
:1085A0000F8802FA05F63740B74211D14FEA850C21
:1085B0000EFA0CF724EA070703FA0CF43C43CF78D1
:1085C000282F02D0482F02D002E0466100E0066169
:1085D0006D1C082DE4D304600C88FF2C1ED9446860
:1085E0005FF0000606F1080702FA07F50F882F4032
:1085F000AF420FD14FEA860C0EFA0CF7BC4303FAD8
:108600000CF73C43CF78282F00D14561CF78482F15
:1086100000D10561761C082EE4D34460F0BD000053
:10862000F0B5144C002801DAE36900E06368420DFC
:10863000120185B2C0F301579540C0F30346032FE2
:1086400005D0C2020AD50322B240934307E023F0CB
:108650007062636823F07063636002E0AB4343F0D1
:10866000706201B12A43002801DAE261F0BD626064
:10867000F0BD0000000001400246002092680A425E
:1086800000D00120704741617047016170470000D0
:1086900090F806220244117190F80612491CC9B2E2
:1086A000A0F8061201490020088070473800002019
:1086B000FEE7000002494AF6AA2008607047000061
:1086C0000030004010B500244FF480710B48FFF7D4
:1086D000D3FF0B490028088808D0642801D302245E
:1086E00002E00A2800D30124002004E0421C0A8092
:1086F000642801D364200880204610BD000C01408E
:108700006C0000202DE9F04101254FF0FF362A468C
:108710002EA12F4801F000FA2E4C0127607018B1ED
:10872000E7800020BDE8F0812B492CA001F0A9FBD7
:1087300038B129480A2229A1183001F013FA90B360
:1087400037E025480068042838D92348012223A1AE
:10875000183001F007FAC0B120E01D4822A11038FE
:10876000FFF7E4FC88B11A4A0021103A0A30D173AD
:108770000A22FFF7F9FC85B21748183001F09BF97F
:10878000FF2D00D30125E58018E0134A1048183268
:108790001021103801F09EF90028DED10E48183063
:1087A00001F089F9EFE7FFE70B4912A0183101F05A
:1087B000B3FA0948183001F07EF9E780012203A1DD
:1087C000002001F0A9F93046ACE700002F000000BE
:1087D00054130020340000200403002055494D4567
:1087E0005445522E494E490053616D706C65496E77
:1087F000743D000053616D706C65496E743D310DC0
:108800000A000000FEE770B5064600224FF6FF7032
:108810004AF201040FE036F812305840002310F0FD
:10882000010F4FEA500000D060405B1C9BB2082B48
:10883000F5D3521C92B28A42EDD370BD704738B561
:108840004FF4A06000F05AF814208DF800000220C8
:108850008DF8010000248DF8024001258DF80350A9
:10886000684600F019F82A208DF800008DF80140C4
:108870008DF80350684600F00FF825208DF80000B1
:1088800003208DF801008DF802408DF803506846F2
:1088900000F002F838BD000070B50F23C4780178ED
:1088A0000122F4B1144C2468457804F4E064C4F562
:1088B000E064240AC4F10406E3408478B5401C4017
:1088C0002C4301F1E021230181F80034007800F00D
:1088D0001F018A404009800000F1E020C0F800211B
:1088E00070BD01F01F0082404809800000F1E020C7
:1088F000C0F8802170BD00000CED00E00249084383
:1089000002490860704700000000FA050CED00E025
:1089100070B506465FF0000404F1B000C0B200F08C
:1089200037F9002000F034F9102000F031F900256B
:10893000304600F044F96D1CEDB2802DF8D3641C74
:10894000E4B2082CE8D370BD10B50446AE2000F0A8
:108950001FF9402000F01CF9B02000F019F90CB10B
:10896000C82000E0C02000F013F9812000F010F9C9
:10897000012000F00DF90CB1A12000E0A02000F0D2
:1089800007F9A62000F004F9A82000F001F91F2043
:1089900000F0FEF8D32000F0FBF8002000F0F8F81B
:1089A000D52000F0F5F8F02000F0F2F8D92000F022
:1089B000EFF8222000F0ECF8DA2000F0E9F80220CD
:1089C00000F0E6F8DB2000F0E3F8492000F0E0F8E2
:1089D0008D2000F0DDF8142000F0DAF8AF2000F070
:1089E000D7F8BDE810400020FFF792BF2DE9F04115
:1089F000144F05464FF4804631463846FFF743FE94
:108A000000244FF4005828064146384602D5FFF7A7
:108A10003CFE01E0FFF737FE0120FFF7FBFC680694
:108A2000050E31463846FFF730FE0520FFF7F2FC11
:108A300031463846FFF727FE641CE4B2082CE2D327
:108A4000BDE8F0810008014010B50446B031C8B25D
:108A500000F09EF804F00F0000F09AF8102040EAB1
:108A60001410BDE8104000F093B800002DE9F0416B
:108A7000203A0E4607460024D5B2FFF7E5FF0D4821
:108A800000EB0515285D00F09AF8641CE4B2082C90
:108A9000F8D3761CF1B23846FFF7D6FF0024281928
:108AA000007A00F08CF8641CE4B2082CF7D3BDE81F
:108AB000F0810000E4AE00082DE9F04117460E46B3
:108AC000044600250CE031462046FFF7CFFF08346E
:108AD000E4B2782C02D90024B61CF6B26D1CEDB2BB
:108AE0007A5D002AEFD1BDE8F081000070B50F4D2E
:108AF0004FF4804421462846FFF7C7FD66103146F3
:108B00002846FFF7C2FD0520FFF784FC31462846C2
:108B1000FFF7B9FD0520FFF77DFC21462846FFF74A
:108B2000B2FDBDE870400220FFF774BC00080140B0
:108B300070B50B4C4FF480412046FFF7A6FD65143D
:108B400029462046FFF79FFD0520FFF763FC2946D5
:108B50002046FFF79AFDBDE870400420FFF75ABC9D
:108B60000008014070B5094D4FF480442146284665
:108B7000FFF78BFD0320FFF74DFC21462846FFF74A
:108B800082FDBDE870400220FFF744BC00080140B0
:108B900010B50446FFF7AAFF7820FFF727FFFFF77D
:108BA000E1FF0020FFF722FFFFF7DCFF2046FFF781
:108BB0001DFFFFF7D7FFBDE81040FFF7B9BF10B5A5
:108BC0000446FFF793FF7820FFF710FFFFF7CAFF77
:108BD0004020FFF70BFFFFF7C5FF2046FFF706FF1A
:108BE000FFF7C0FFBDE81040FFF7A2BF10B501229C
:108BF00007A1084800F090FF28B90A2206A10948F9
:108C000000F0B0FF08B1002010BD4FF0FF3010BDE4
:108C10002F0000005413002055494D455445522E55
:108C200043535600842300202DE9F0410546041DDE
:108C30008CB0002723A1001DFFF778FA4FF0FF3812
:108C4000002618B10446C5F8008000E02E60072217
:108C500004F1160106A8FFF77BFA072204F1470189
:108C600004A8FFF775FA052204F1710108A8FFF7BF
:108C70006FFA052204F179010AA8FFF769FA8DF865
:108C800017609DF816008DF81F608DF825608DF82F
:108C90002D606D2803D1202047468DF816000AABC1
:108CA00008AA04A906A88DE80F00094809A10369CC
:108CB000826905F5827001F0DFFF0CB03846BDE82F
:108CC000F081000020553A205047413D000000004F
:108CD0003400002025386C642C25386C642C202549
:108CE000732C2025732C2025732C2025730A00005B
:108CF00070470000044A0029516901D0014300E097
:108D0000814351617047000000100240044A00296D
:108D1000D16901D0014300E08143D1617047000077
:108D200000100240044A0029916901D0014300E08B
:108D300081439161704700000010024010B500208F
:108D400000F058F801210846FFF7D4FF0121C805BB
:108D5000FFF7DCFFBDE81040012145F20D00FFF7F1
:108D6000E1BF000030B51F494A6812F00C031E4AEB
:108D700003D0042B01D0082B21D002604A680F23B6
:108D80001A4C03EA1212A35C0268DA4042604B6894
:108D9000072505EA1323E35C22FA03F383604B689B
:108DA00005EAD323E35CDA40C2604968032303EA9F
:108DB0009131231F595CB2FBF1F1016130BD4A686A
:108DC0004B6802F470124FF0020413F4803F04EB7E
:108DD000924202D04B689B0301D5054B00E0024B49
:108DE0005A43CAE70010024000127A000400002033
:108DF00000093D000149C1F8D80070470000424217
:108E00000029018802D041F0400101E021F0400139
:108E1000018070472DE9F041DFF8B48090B0404602
:108E2000FFF75CFA2B4D0024CDE90054AE148027E7
:108E3000CDE90246CDE904476814CDE9084006941F
:108E40000794694640460A94FFF7BAFADFF8808033
:108E500008F114084046FFF741FA10200095CDE9CB
:108E60000140CDE90364CDE90574079408940994A1
:108E7000694640460A94FFF7A3FA10211648FFF707
:108E800004FCADF82C404FF48270ADF82E00ADF824
:108E900030400220ADF832000120ADF8340040022D
:108EA000ADF836000820ADF83800ADF83A40094C6E
:108EB0000720ADF83C000C3C0BA9204600F019F847
:108EC00001212046FFF79CFF10B0BDE8F0810000B3
:108ED0001C0002400C300140000801400246002006
:108EE00012890A4200D00120704780897047818131
:108EF000704730B502884C8802F441530A88CD8807
:108F000022438C882C4322430C8922434C892243E0
:108F10008C892243CC8922431A430280828B22F41B
:108F200000628283098A018230BD000070B50B4C5B
:108F3000054602212046FFF7D1FF0028F9D0294637
:108F40002046FFF7D4FF01212046FFF7C7FF002886
:108F5000F9D02046FFF7C9FFC0B270BD0030014014
:108F600070470A2290FBF2F310B593FBF2F402FB78
:108F7000143330330B7090FBF2F302FB13003030EC
:108F8000487010BD0CB5002126480191009102687F
:108F900042F4803202604FF4A063026802F40032AF
:108FA0000092019A521C0192009A12B9019A9A42B7
:108FB000F3D10268920333D5012100911A490A685E
:108FC00042F010020A600A6822F003020A600A688E
:108FD00042F002020A6041684160416841604168B4
:108FE00041F480614160416821F47C114160416835
:108FF00041F4E8114160016841F08071016001684D
:109000008901FCD5416821F003014160416841F0CC
:10901000020141604168C1F381010229FAD10CBD0E
:1090200000910CBD001002400020024001F07EBD06
:109030000F4810B5016841F00101016041680D4A17
:109040001140416001680C4A11400160016821F43F
:1090500080210160416821F4FE0141604FF41F014D
:109060008160FFF78FFF06490448086010BD0000CB
:10907000001002400000FFF8FFFFF6FE008000082D
:1090800008ED00E0074A002152F82130834201D167
:1090900018467047491C89B20C29F5D34FF4E130CA
:1090A00070470000B4AE000870B50F4C0821204690
:1090B00000F08CF810B1204600F01CF940F2255564
:1090C0002946204600F089F800280CD0204600F000
:1090D00011F9C1B20548FFF7DBFA29462046BDE881
:1090E000704000F015B870BD00380140F400002059
:1090F00010B5064C0146204600F000F980212046BC
:1091000000F064F80128F9D110BD000000380140DA
:109110000A0A01219140C9430180704700298189D1
:1091200002D041F4005101E021F4005181817047E7
:109130001FB50446684600F0E5F814B14FF4E1307D
:1091400005E00D48642140884843FFF79BFF0B4C26
:1091500000906946204600F077F8012240F2255140
:10916000204600F059F801212046FFF7D7FF0549B6
:10917000034808601FBD0000740000200038014053
:10918000F19000082000002038B54FF40071ADF8D0
:10919000001001248DF8024008B1182000E048209A
:1091A000094D8DF8030069462846FFF7E7F92815B1
:1091B000ADF800008DF8024048208DF803006946A4
:1091C0002846FFF7DBF938BD0008014002460020C1
:1091D00012880A4200D00120704730B501F01F020A
:1091E00001240025C1F3421304FA02F2012B0FD02F
:1091F000022B0FD0838A4FEA11210088134204FA10
:1092000001F400EA040001D000B10125284630BD78
:109210008389F0E7038AEEE710B5C1F3421301F04A
:109220001F040121A140012B07D0022B07D01430CD
:10923000002A026805D00A4304E00C30F8E7103039
:10924000F6E78A43026010BD30B50446008A85B057
:109250000D464CF6FF710840E98801432182A1893F
:109260004EF6F3100140A8882A8910436A890A4300
:109270001043A081A08A4FF6FF410840A98901430D
:10928000A1826846FFF76EFD1948844201D1039818
:1092900000E00298A189090400EBC00101EB001075
:1092A000296801D5490000E08900B0FBF1F0642293
:1092B000B0FBF2F109010B096FF018056B4300EBED
:1092C0008300A3891D044FF0320306D503EBC000D1
:1092D000B0FBF2F000F0070005E003EB0010B0FB7C
:1092E000F2F000F00F000843208105B030BD00000F
:1092F000003801408088C0F308007047C1F30801BE
:10930000818070474FF41651016000218180C18037
:1093100001810C22428181817047704770477047FC
:10932000FEE7000070B5040300F0E8F800F0DCF898
:109330000D4D10212846FFF7A6F92020FFF7F6FD76
:10934000C4F30740FFF7F2FDC4F30720FFF7EEFD7B
:10935000E0B2FFF7EBFD10212846FFF796F9BDE8D4
:10936000704000F0C1B800000008014010B5194C71
:1093700004212046FFF789F908212046FFF785F9E7
:1093800010212046FFF781F920212046FFF77DF9C3
:1093900000F044F8104C606000F020F8A0606068B5
:1093A000A0F61470B0F5604006D0012807D002285E
:1093B0000AD0032806D10AE04FF4007001E04FF410
:1093C00080602080002010BD4FF40060F9E74FF46A
:1093D0008050F6E7000801402800002070B50E4DCF
:1093E000002410212846FFF74EF99F20FFF79EFD2D
:1093F000FF20FFF79BFD44EA0044FF20FFF796FDA6
:1094000044EA0024FF20FFF791FD04431021284681
:10941000FFF73BF9204670BD0008014070B5104DC4
:10942000002410212846FFF72EF99020FFF77EFD3B
:109430000020FFF77BFD0020FFF778FD0020FFF7FD
:1094400075FDFF20FFF772FD44EA0024FF20FFF7BF
:109450006DFD044310212846FFF717F9204670BD23
:109460000008014070B5094D10212846FFF70BF99F
:109470000520FFF75BFDFF20FFF758FD0446102194
:109480002846FFF702F9204670BD000000080140A1
:109490002DE9F041134E0D46040310213046FFF72D
:1094A000F2F80320FFF742FDC4F30740FFF73EFD4B
:1094B000C4F30720FFF73AFDE0B2FFF737FD0024C1
:1094C000B714FF20FFF732FD2855641CA4B2BC423C
:1094D000F7D310213046FFF7D8F8BDE8F04100F08F
:1094E00003B800000008014010B501E0FFF7E2F802
:1094F000FFF7B8FFC007F9D110BD000010B5074C49
:1095000010212046FFF7BFF80620FFF70FFD204689
:10951000BDE810401021FFF7B8B800000008014076
:109520002DE9F0410403DFF85C800F46002600BF00
:10953000FFF7E4FF10214046FFF7A5F80220FFF7F0
:10954000F5FCC4F30740FFF7F1FCC4F30720FFF775
:10955000EDFCE0B2FFF7EAFC0025785DFFF7E6FCE2
:109560006D1CFF2DF9DD1021404604F5807407F5D0
:109570008077FFF78AF8FFF7B7FF761C102ED7DB4E
:10958000BDE8F081000801400048704770000020ED
:1095900002E008C8121F08C1002AFAD170477047BC
:1095A000002001E001C1121F002AFBD1704700001A
:1095B00010B504460020E070401EE062204601F035
:1095C00046F808B1042010BD04F22E2000F0ABFFD5
:1095D000A0F52A41553901D0032010BD94F8300080
:1095E000E92805D0EB2814D194F83200902810D146
:1095F00004F1660000F08CFF0749B1EB002F06D0A4
:1096000004F1820000F084FF0449884201D1002067
:1096100010BD022010BD00000046415446415433A5
:109620004269891E921E8A4201D800207047826AD0
:10963000408901FB002070472DE9F04105680F00CB
:10964000804606D000F0A4FE022809D20120BDE821
:10965000F081EE6816B16869B04207D8012605E0CE
:10966000411CF4D069698142F1D83E4634466869AC
:10967000641CA04202D80224022E0AD3214640468E
:1096800000F086FE38B10128E1D0411CDFD0B442A1
:10969000EDD10020DBE74FF0FF3632462146284669
:1096A00000F0EEFF30B957B122463946284600F0A7
:1096B000E7FF20B101280FD001242046C7E7EC6066
:1096C000D5E90401891E884201D2401E286128790B
:1096D00040F001002871F0E73446EEE72DE9F04153
:1096E0000E4620300D6804460B22202100F0A8FF12
:1096F0000020014608272A5C401C202A12D92F2A64
:109700000BD05C2A09D02E2A01D0B94214D30B2FDA
:1097100022D02E2A20D10CE0401C2B5C2F2BFBD01A
:109720005C2BF9D028443060B1B12078E5281FD0F7
:1097300020E008210B27DEE7802A03D3114B1A44CF
:1097400012F8802C10A300E05B1C93F800C0BCF161
:10975000000F04D09445F7D10620BDE8F081A2F1B6
:109760006103192B01D8203AD2B26254491CC2E7D6
:1097700005202070202A01D8042000E00020E0729B
:109780000020EAE734AE0008222A2B2C3A3B3C3D6D
:109790003E3F5B5D7C7F00002DE9F04104460021E7
:1097A000056800F0D8F8002826D12846A16900F005
:1097B0004EFF02001FD1E069017899B1C17A01F032
:1097C0003F01A171C17A09070FD404F120010B26D2
:1097D00010F8013B11F8017BDB1B761E04D0002B37
:1097E000F6D002E0042206E02BB10021204600F072
:1097F00005F80200D9D01046BDE8F0812DE9F04708
:1098000005460769046880698946203710B1B7F5B5
:10981000001F02D30420BDE8F087390560D1401C49
:10982000A86169694FF0000829B16089401E10EAFB
:10983000173F05D054E02089B0EB571F1DD94FE0EA
:10984000284600F0A5FD064601281BD9701C33D020
:109850006069B0423ED8B9F1000F0ED02846696960
:10986000FFF7EAFE06000BD0012E0BD0701C23D0B0
:10987000204601F04BF8F8B906E0C5F81880C9E7B2
:109880000720C8E70220C6E74FF48052002104F108
:10989000300000F0D5FE4FF0000831462046FFF7BB
:1098A000BFFE4FF00109E0620DE000BF84F80390B5
:1098B000204601F02BF808B10120ACE7E06A08F17E
:1098C0000108401CE06261894145EFD8E16AA1EBE3
:1098D0000800E062314620466E61FFF7A1FEA861F4
:1098E000C7F30B00204430302F61E861002092E77D
:1098F00070B504460021066800F02DF80DE03046F2
:10990000A16900F0A4FE50B9E0690078E52809D00B
:1099100040B101212046FFF771FF0028EFD0042855
:1099200007D007E03046A16900F091FE050003D0A2
:109930000FE0072005460CE020220021E06900F03E
:109940007FFE0B2204F12001E06900F06FFE012090
:10995000F070284670BD2DE9F04107680E460546B7
:10996000B1F5001F36D2F00634D12E61AC6824B9AF
:109970003878032805D37C6A1CB178894FEA00380F
:1099800012E03889B0EB561F24D9786A12E02846D5
:1099900000F0FEFC0446401C1AD0022C1AD3786951
:1099A000A04217D9A6EB080646452146EFD2384615
:1099B000FFF736FEC5E9054060B100EB1630A8613F
:1099C000C6F30B0038443030E8610020BDE8F08178
:1099D0000120FBE70220F9E7010005D0012902D0B0
:1099E000022800D0012070470020704703004FF08C
:1099F000000004D0012B01D0022B0AD170470029AE
:109A0000FCD0012909D04FF48053022903D0032947
:109A100001D0042070471360704702490988116023
:109A20007047000028000020F8B51E4614460D4679
:109A3000002728B1012812D0022810D00420F8BD38
:109A40000020009009E029462046FFF721FD0098FC
:109A500005F58055401C641C0090B042F3D3384695
:109A6000F8BD010005D0012902D0022800D0012054
:109A7000704700207047F8B51E4614460D46002773
:109A800028B1012815D0022813D00420F8BD0020E9
:109A900000900CE02046FFF745FC29462046FFF7E2
:109AA0003FFD009805F58055401C641C0090B042B5
:109AB000F0D33846F8BD38B5044600F001FA002866
:109AC00007D16946204601F08DF8002801D1002118
:109AD000216038BD2DE9FC4100259046074604462B
:109AE0004E1E0FE001AB01226946404600F027F907
:109AF0000198012808D19DF800006D1C04F8010BA5
:109B00000A2801D0B542EDDB0020207015B138469F
:109B1000BDE8FC810020FBE717B581B01446029830
:109B20000090684600F0C3FC002802DA0B2004B065
:109B300010BD0B4A002352F8201001B10B7001999F
:109B4000002900D00B7042F8201001D0012C01D068
:109B50000020ECE7002201A902A800F0B9FAE6E72C
:109B6000180000202DE9F7438CB005000BD002F05F
:109B70003F06324669460DA800F0AAFA04004FF0ED
:109B8000000804D0C0E009200FB0BDE8F0830098C1
:109B9000019001A80D9900F0C1FB040004D19DF8CB
:109BA0002F00000600D5062416F01C0F4CD04CB137
:109BB000042C03D101A8FFF79BFE044646F00806DB
:109BC0005CB1A1E09DF80A0010F0110F01D007244C
:109BD0009AE0700701D5082496E0300743D54D4F31
:109BE000089839460E3000F040FE08983946163085
:109BF00000F03BFE08992020C8720899009800F0F8
:109C000074FC074600220899009800F01AFE089894
:109C100000211C3000F029FE00990120C87007B314
:109C2000D1F82C900022394601A800F0D0FD0400A4
:109C30006AD14946009800F00AFD04000098A7F197
:109C40000107C7600BD05FE0CCBB9DF80A00C106DE
:109C500001D5042458E0B10701D5C007B7D13007BA
:109C600001D546F040060098C16A296208996962E8
:109C7000089900F03AFCA86008981C3000F048FCF5
:109C8000E8600098286000984FF480520021C08856
:109C9000A8802E7485F81180C5F81C8005F1280075
:109CA0008146C5F8148000F0CBFCB0062ED5EE68D6
:109CB00066B36E610098A968408907030FE023E04E
:109CC000284600F065FB0146012800D80224481C04
:109CD00002D0F61B1CB104E00124F61B01E0BE42D9
:109CE000EED8A96184B9300510D00098FFF798FC30
:109CF00070B100EB1632EA610098012349464078C2
:109D0000FFF792FE10B10124C5F8008020463BE722
:109D10000224F9E70000214810B594B00446002061
:109D2000CDE90010029002E0641C00F01EFD2178D5
:109D300068460029F8D100F035FD14B010BD2DE9BA
:109D4000FE4F88460021196099461546044602A92F
:109D500000F048FF002812D1607C00280FD1207C41
:109D6000C0070BD06169E0680127401A4FF0020A72
:109D700004F1280B854200D905467EE00720BDE8A6
:109D8000FE8F6069010560D102994989491E11EA77
:109D9000103609D108B32046A16900F0F9FA02286B
:109DA0001DD3411C4CD0A061A1690298FFF738FC7B
:109DB000A8B130440190280B009027D002993218A6
:109DC0004889824201D9801B0090DDE90032487841
:109DD0004146FFF729FE98BB05E0A068DFE784F85D
:109DE00011A00220CBE7207C00060CD5E169019888
:109DF000081A0099884206D208EB00304FF48052CE
:109E0000594600F013FC009806032CE0E269019823
:109E1000824218D0207C00060AD5029801235946B8
:109E20004078FFF728FE58B9207C00F07F002074AE
:109E30000298012359464078019AFFF7F5FD10B1C9
:109E4000677401209BE70198E061A08AC0F30B00D2
:109E5000C0F58056AE4200D92E4601193246404622
:109E6000283100F0E3FB6069B04430446061D9F808
:109E700000008119AD1BC9F80010002D81D1002010
:109E80007DE733B58BB00D46002269460BA800F084
:109E90001FF9040010D168460B9900F03FFA040046
:109EA0000AD19DF82B00000601D5062404E01DB15F
:109EB0002946684600F0CAFA0DB0204630BD0000C1
:109EC000F8B50446694600F08DFE00280ED1217CCD
:109ED0004A060BD508060ED50098E26901234078A2
:109EE00004F12801FFF7C7FD08B10120F8BD207C6F
:109EF00000F07F002074154E216A009800F0A7FB47
:109F00000028F3D1656A2946E87A40F02000E8721B
:109F1000A268206800F095FC05F11C00E16800F0E3
:109F2000A4FC314605F1160000F09FFC002105F16C
:109F3000120000F0A2FC00980121C17000F0A2FC08
:109F4000217C01F0BF012174F8BD00000000214810
:109F50002DE9FE4F884600211960994615460446B2
:109F600002A900F03FFE002806D1607C002803D142
:109F7000207C800702D40720BDE8FE8F606901279E
:109F800042194FF0020A04F1280B824200D2C54365
:109F900094E0606901056ED102994989491E11EA70
:109FA000103612D108B1A16902E0A06828B90021D9
:109FB0002046FFF741FB00287DD001282DD0411C11
:109FC00054D0A061A16801B9A060207C00060BD527
:109FD0000298E269012340785946FFF74CFDA0BB87
:109FE000207C00F07F002074A1690298FFF718FB25
:109FF00098B130440190280B009027D00299321874
:10A000004889824201D9801B0090DDE900324878FE
:10A010004146FFF730FDC0B903E084F811A00220EB
:10A02000AAE7E1690198081A009988420AD208EB68
:10A0300000314FF48052584600F0F8FA207C00F0CE
:10A040007F0020740098060327E00FE0E169019883
:10A0500081420ED0E168606988420AD202980123E9
:10A0600059464078019AFFF7DFFC10B16774012070
:10A0700082E70198E061A08AC0F30B00C0F580562A
:10A08000AE4200D92E46204432464146283000F0E8
:10A09000CDFA207C40F0800020746069B0443044E8
:10A0A0006061E168884200D80846E060D9F80000A5
:10A0B000AD1B304400E004E0C9F80000002D7FF43F
:10A0C00068AF207C40F040002074002054E700007E
:10A0D0002DE9FF41002790460E460F6000F0E7F99A
:10A0E000050003D50B2004B0BDE8F081884850F886
:10A0F00025409CB13460207808F0FE0620B16078DD
:10A10000FFF7AFFCC1070BD02770E8B2B84660700C
:10A11000FFF762FCC10708D00320E4E70C20E2E768
:10A120000EB1400704D40020DDE71EB1400701D581
:10A130000A20D8E7002631462046FFF739FA0228E0
:10A1400022D100254FEA0D0704EB051090F8F2111B
:10A1500000F5F77019B1083000F0DAF900E00020DE
:10A1600047F825006D1C042DEED3002557F8256017
:10A1700036B131462046FFF71BFA022801D203E030
:10A1800003206D1C042DF1D3042809D002286DD2C0
:10A1900004F13B0000F0C7F9B0F5805F66D101E043
:10A1A0000120A0E704F1460000F0BDF918B904F160
:10A1B000540000F0ADF9A06194F84050A570012D55
:10A1C00001D0022D52D1454394F83D006081E8B39F
:10A1D000411E08424AD104F1410000F0A4F9208157
:10A1E000400643D104F1430000F09DF9070004D17B
:10A1F00004F1500000F08CF9074604F13E0000F035
:10A2000092F9010032D02389481900EBD31297420A
:10A210002CD3B81A6789B0FBF7F0B8B103274FF613
:10A22000F57C604500D8022740F6F57C604500D8F3
:10A230000127801C3244A26231446061C4E9076195
:10A24000032F15D013B12944616200E00EE0022F04
:10A250001FD000F0010100EB400001EB500000BFF7
:10A26000A16900F6FF70B1EB103F14D20D203AE760
:10A2700004F15A0000F057F90028F7D1208900288E
:10A28000F4D104F15C0000F043F960626069800081
:10A29000E6E74000E4E74FF0FF302061E060802017
:10A2A0002071032F2CD104F1600000F03CF901284B
:10A2B00026D1711C204600F0CAF908BB84F804803E
:10A2C00004F22E2000F02FF9A0F52A41553917D1BC
:10A2D00004F1300000F01CF90E49884210D104F559
:10A2E000057000F015F90C49884209D104F5067093
:10A2F00000F00EF9206104F5077000F009F9E06044
:10A3000003492770091F0888401C0880E0800AE77D
:10A3100018000020525261417272416173B50446C7
:10A320000568019801E0401C019001782F29FAD0BE
:10A330005C29F8D00021A16001980078202806D27D
:10A34000802084F82B002046FFF705FB7CBD01A987
:10A350002046FFF7C3F90028F8D12046FFF71CFA82
:10A3600094F82B1028B10428F0D14907EED4052029
:10A370007CBD4907FCD4A079C006F8D5208AC0F37B
:10A380000B0041192846303100F0AFF8A060DEE73D
:10A390002DE9F04104680D4602290CD36069A842FA
:10A3A00009D920784FF0FF36012808D0370D022850
:10A3B0002BD0032839D001263046BDE8F081206A31
:10A3C00005EB550700EB1731204600F040F9002857
:10A3D000F2D1C7F30B0020447F1C90F83080206A34
:10A3E00000EB1731204600F032F90028E4D1C7F322
:10A3F0000B00204490F8301048EA0120E90701D012
:10A400000609D9E7C0F30B06D6E7206A00EBD52191
:10A41000204600F01CF90028CED107EA4500204470
:10A42000303000F080F80646C6E7206A00EB952140
:10A43000204600F00CF90028BED107EA8500204430
:10A44000303000F065F820F07046B5E72DE9F041B6
:10A45000002305464B7280690C46002825D0002158
:10A460000A462E26E869805C521C20280AD005285E
:10A4700000D1E520092A02D16718491C7E726718AD
:10A48000491C78720B2AEDD360184372E869C07AD0
:10A490002072E8691C3000F03BF82060E869163053
:10A4A00000F036F8E080000CA080BDE8F08110B527
:10A4B00004464FF0FF302268002A13D0114600E016
:10A4C000491C0B78212B0ED33A2BF9D112F8013B02
:10A4D000303B0A2B06D28A4204D1002B02D1491C00
:10A4E0001846216010BD002010BD70B506460D460F
:10A4F00001F11A0000F017F804463078032805D15E
:10A5000005F1140000F00FF844EA0044204670BD45
:10A51000C178827842EA01214278007842EA01213A
:10A5200040EA012070474178007840EA01207047F6
:10A53000FEF704FCFDF7BEFFFDF782FFFDF79AFF73
:10A5400002212A48FEF79FF84FF480512848FEF771
:10A550009CF8FEF774F90020FEF716FE4FF0FF306E
:10A56000FEF7E6FD234800240460FEF753FCFEF7E7
:10A57000FDFE21484FF47A710068B0FBF1F0401EF7
:10A58000B0F1807F31D24FF0E02148611B4AF020CA
:10A5900082F8140D8C6107200861FEF7B3F80120E2
:10A5A000FEF7D2F91F4C202215A16069FDF7D0FDFE
:10A5B0001D48616900880B31000AFEF7D2FC616911
:10A5C00013201631FEF7CDFC616903201931FEF727
:10A5D000C8FC616901201C31FEF7C3FC00F002FADF
:10A5E00000F0DCF900F0BCF9F8E7FEE700080140F4
:10A5F000000C0140F4000020580000200FE000E0B3
:10A6000055494469736B204150502031364D4220EA
:10A610002046573A207631382E30352E31362020DC
:10A62000000000003400002028000020002A05D08F
:10A6300011F8013B00F8013B521EF9D170470000B0
:10A640005FFA81F100F8011B521EFBD1704770B513
:10A650000446C06A0D460026A8420FD0204600F0EE
:10A6600055F906000AD1607801232A4604F1300129
:10A67000FFF7DAF908B1751E0126E562304670BDB4
:10A680002DE9F047022617460D460446022969D3F4
:10A690006069A84266D920784FF00109012806D0E8
:10A6A00040F6FF78022836D003285BD143E0216AC8
:10A6B00005EB550801EB18312046FFF7C8FF0600EF
:10A6C00050D1C8F30B002044303008F10108E907ED
:10A6D00004D00178FAB262F31F1100E0394601702C
:10A6E00084F80390216A204601EB1831FFF7AFFF91
:10A6F000060037D1C8F30B0020443030E90702D000
:10A70000C7F3071105E00178C7F3032201F0F00158
:10A710001143017024E0206A00EBD5212046FFF7A9
:10A7200096FF06001ED108EA45002044B9B2303039
:10A7300000F0A3F814E0206A00EB95212046FFF713
:10A7400086FF06000ED108EA850020443030054619
:10A75000FFF7DEFE67F31B000146284600F085F890
:10A7600084F803903046BDE8F08738B54568044664
:10A77000002D16DB60196D1C01733D2D0DDB6B4642
:10A780002A4604F10C012068FFF7E2FB0098A8427A
:10A7900001D1002501E04FF0FF356560A068401C45
:10A7A000A06038BD38B542680446002A0CDB6B4611
:10A7B00004F10C012068FFF7CBFB28B96068009911
:10A7C000884201D1A06838BD4FF0FF3038BD2DE977
:10A7D000F041056813460E46074602292DD36869E5
:10A7E000B0422AD93BB14FF0FF3219462846FFF755
:10A7F00047FF00281FD131463846FFF7C9FD040046
:10A8000018D0012C19D0601C19D0002231462846DE
:10A81000FFF736FF00280ED1D5E90410821E9142C1
:10A8200005D2491C2961297941F001012971264687
:10A83000B042E0D80020BDE8F0810220FBE7012013
:10A84000F9E770B50C460646154691B204F11A00B8
:10A8500000F013F83078032806D1290C04F1140015
:10A86000BDE8704000F009B870BD0170090A417080
:10A87000090A8170090AC17070470170090A4170A4
:10A880007047000070B5044600F040F8050036D16E
:10A89000207803282CD12079012829D1020304F142
:10A8A000300000210646FFF7CBFE4AF6552104F2A0
:10A8B0002E20FFF7E2FF13493046FFF7D6FF12497B
:10A8C00004F50570FFF7D1FF04F506702169FFF765
:10A8D000CCFF04F50770E168FFF7C7FFE2690123C9
:10A8E000521CE26260783146FFF7C5F80020207103
:10A8F000002260781146FFF779F800B1012528465B
:10A9000070BD000052526141727241612DE9F04107
:10A910000446C0780027F8B1E56A04F13001607898
:10A9200001232A468846FFF7A6F808B1012713E05D
:10A930000020E070206AA169281A88420CD2A6780B
:10A9400008E0A0690123054460782A464146FFF7E4
:10A9500092F8761E022EF4D23846BDE8F08100004F
:10A960000D4910B50868420714D520F00400A1F184
:10A9700020040860A0780021401CA070084662698D
:10A98000FEF79AF8626902210020BDE810401032FB
:10A99000FEF792B810BD000054000020104910B519
:10A9A0000868020713D520F008000860FDF78AFE4A
:10A9B0000B4C203C217859B1012908D0022906D13D
:10A9C000012804D10020FEF7DFFB0320207010BD1A
:10A9D0000128FCD1801EFEF7D7FB0120F6E700001E
:10A9E000540000202DE9F0472F4C2278002A12D085
:10A9F0002E482F4F00254FF48051012A0DD0022AF6
:10AA000019D0032A07D1FDF740FEFDF757FC00B12E
:10AA1000E561A5612570BDE8F087FDF734FEFEF71E
:10AA2000E5F810B14FF0FF30E061A7F806520220C0
:10AA3000A5612070EFE71C4E2036326813060DD555
:10AA400022F08002894680463260FDF71EFE19A082
:10AA500000F004F949464046FDF715FE3068C1068E
:10AA6000D9D520F010003060E0690028D3D0B7F8C5
:10AA700008020A28CFD90E49091D4554081FFEF7C0
:10AA8000D3F8A16931B908B10CA000E018A025499C
:10AA9000FFF742F9386818B122492348FFF73CF91B
:10AAA000A069401CA061B6E734000020000C014002
:10AAB000F400002067657475690A000020202020DA
:10AAC000202020692C20202020742873292C20206D
:10AAD0002020552856292C20202049286D41292C3A
:10AAE000205473656C662C205470726F620D0A00DE
:10AAF00020202020202020692C2020202074287352
:10AB0000292C20202020552856292C20202020497F
:10AB10002841292C205473656C662C205470726F68
:10AB2000620D0A0084230020F801002070B52B4933
:10AB3000C868401CC860C8684FF47A72B0FBF2F372
:10AB400002FB130401F120000A460668D2880025A2
:10AB500046F08003B4F5A77F12D003DC4CB1012C82
:10AB60001AD10DE0A4F500749B3C09D0012C13D13F
:10AB700009E00A69521C0A6146F0040202600BE017
:10AB800052B9036008E03AB10C89641CA4B20C818C
:10AB9000944201D303600D81CA680A23B2FBF3F427
:10ABA00003FB1422012A03D1026842F0080202606A
:10ABB0000B4AB2F80632002B0ED08C88641CA4B26B
:10ABC0008C80322C08D3A2F80832A2F80652026810
:10ABD00042F0100202608D8070BD00003400002041
:10ABE000F400002070B50D4604000CD0206850B170
:10ABF000017841B1C188A288914204D14078FEF722
:10AC000030FFC00703D000202860092070BD2068F5
:10AC10002860002070BD000010B504460A2802D14B
:10AC20000D20FFF7F9FF07494A681AB102F8014BF6
:10AC30004A6010BD09680029FBD02046BDE81040DD
:10AC4000084700002000002010B5044602E0641C04
:10AC5000FFF7E2FF20780028F9D110BD10B50446B7
:10AC600005E0641CFFF7D8FF0520FDF7C7FB20783F
:10AC70000028F6D110BD00000FB410B5064C04A991
:10AC80006060039800F00AF8616800200870606056
:10AC900010BC5DF814FB0000200000202DE9FF5FD0
:10ACA0008A4605464FEA0D0915F8010B00286FD0BA
:10ACB000252802D0FFF7B0FFF6E715F8010B4FF09B
:10ACC0000008302802D02D2802D005E0012000E045
:10ACD0000220804615F8010B002606E006EB8601EF
:10ACE00000EB410615F8010B303EA0F130010929B7
:10ACF000F4D96C2801D04C2803D115F8010B48F089
:10AD00000408002844D00246612801D3203AD2B278
:10AD10004F2A3ED006DC422A38D0432A33D0442A78
:10AD2000C8D138E0532A0FD0552A34D0582AC1D17F
:10AD30005FF010035FEA487101D4442A2DD05AF81D
:10AD4000041B442A2BD02FE05AF8047B002400E097
:10AD5000641C385D0028FBD102E02020FFF75CFF77
:10AD60005FEA887003D42046641CB042F5D33846AD
:10AD7000FFF76AFF02E02020FFF74EFF2046641C29
:10AD8000B04291D2F7E71AF8040B93E70223D1E718
:10AD90004EE00823CEE70A23CCE75AF8041B00292B
:10ADA00002DA494248F0080800244F46B1FBF3F2AA
:10ADB00003FB1212B1FBF3F1D2B2092A05D97828AC
:10ADC00016D04FF0070C6244D2B230323A55641CB0
:10ADD00009B1102CEAD35FEA087003D52D2009F8D9
:10ADE0000400641C27465FEAC87004D0302003E0EA
:10ADF0004FF0270CE7E72020834602E05846FFF794
:10AE00000BFF5FEA887003D438467F1CB042F5D34D
:10AE1000641E19F80400FFF7FFFE002CF8D102E0D1
:10AE20002020FFF7F9FE38467F1CB042A9D2F7E791
:10AE3000BDE8FF9F809A45418E418F804545454939
:10AE400049498E8F9092924F994F555559999A9B97
:10AE50009C9D9E9F41494F55A5A5A6A7A8A9AAAB11
:10AE6000ACADAEAFB0B1B2B3B4B5B6B7B8B9BABBAA
:10AE7000BCBDBEBFC0C1C2C3C4C5C6C7C8C9CACB9A
:10AE8000CCCDCECFD0D1D2D3D4D5D6D7D8D9DADB8A
:10AE9000DCDDDEDFE0E1E2E3E4E5E6E7E8E9EAEB7A
:10AEA000ECEDEEEFF0F1F2F3F4F5F6F7F8F9FAFB6A
:10AEB000FCFDFEFF00100E000008070000840300E8
:10AEC00000C2010000E1000000960000004B0000FD
:10AED00080250000C012000060090000B0040000DE
:10AEE0002C01000000000000000000000000000035
:10AEF00000000000000000F8000000000000003327
:10AF00003000000000100C06100C060000000000CD
:10AF10000000000040C07840C0784000043F0404B6
:10AF20003F040400007088FC08300000001820FF77
:10AF3000211E0000F008F000E018000000211C03B2
:10AF40001E211E0000F00888700000001E2123242E
:10AF50001927211010160E0000000000000000004C
:10AF600000000000000000E01804020000000007DC
:10AF70001820400000020418E000000000402018E3
:10AF800007000000404080F0804040000202010FB6
:10AF900001020200000000F0000000000101011F9A
:10AFA00001010100000000000000000080B07000FE
:10AFB000000000000000000000000000000101018E
:10AFC000010101010000000000000000003030001D
:10AFD00000000000000000008060180400601806F7
:10AFE0000100000000E010080810E000000F102031
:10AFF00020100F00001010F8000000000020203F7B
:10B000002020000000700808088870000030282404
:10B0100022213000003008888848300000182020A5
:10B0200020110E000000C02010F8000000070424CA
:10B03000243F240000F8088888080800001921200F
:10B0400020110E0000E0108888180000000F112069
:10B0500020110E0000380808C83808000000003F22
:10B06000000000000070880808887000001C222181
:10B0700021221C0000E010080810E000000031222E
:10B0800022110F00000000C0C000000000000030CE
:10B090003000000000000080000000000000806020
:10B0A00000000000000080402010080000010204A1
:10B0B0000810200040404040404040000404040488
:10B0C0000404040000081020408000000020100844
:10B0D00004020100007048080808F0000000003079
:10B0E00036010000C030C828E810E0000718272407
:10B0F00023140B000000C038E0000000203C2302B5
:10B100000227382008F8888888700000203F202017
:10B1100020110E00C0300808080838000718202049
:10B120002010080008F808080810E000203F202040
:10B1300020100F0008F88888E8081000203F202021
:10B140002320180008F88888E8081000203F200015
:10B1500003000000C030080808380000071820204D
:10B16000221E020008F808000008F808203F21010C
:10B1700001213F20000808F8080800000020203FB7
:10B180002020000000000808F8080800C080808027
:10B190007F00000008F888C028180800203F200120
:10B1A0002638200008F8080000000000203F20207A
:10B1B0002020300008F8F800F8F80800203F003F91
:10B1C000003F200008F830C00008F808203F2000A9
:10B1D00007183F00E01008080810E0000F102020BA
:10B1E00020100F0008F808080808F000203F21018F
:10B1F00001010000E01008080810E0000F182424E6
:10B2000038504F0008F8888888887000203F200058
:10B21000030C30200070880808083800003820210E
:10B2200021221C00180808F8080818000000203F18
:10B230002000000008F808000008F808001F20207F
:10B2400020201F000878880000C838080000073850
:10B250000E010000F80800F80008F800033C0700A1
:10B26000073C0300081868808068180820302C0309
:10B27000032C30200838C800C83808000000203FE0
:10B280002000000010080808C838080020382621CF
:10B2900020201800000000FE020202000000007FD3
:10B2A00040404000000C30C00000000000000001E1
:10B2B0000638C00000020202FE00000000404040CC
:10B2C0007F000000000004020202040000000000F1
:10B2D000000000000000000000000000808080806E
:10B2E0008080808000020204000000000000000056
:10B2F00000000000000080808080000000192422EF
:10B3000022223F2008F8008080000000003F11202A
:10B3100020110E000000008080800000000E11202F
:10B3200020201100000000808088F800000E11200D
:10B3300020103F200000808080800000001F22221B
:10B3400022221300008080F0888888180020203F87
:10B35000202000000000808080808000006B94949A
:10B360009493600008F8008080800000203F210056
:10B3700000203F2000809898000000000020203F1F
:10B3800020200000000000809898000000C080800D
:10B39000807F000008F8000080808000203F2402A9
:10B3A0002D302000000808F8000000000020203F99
:10B3B000202000008080808080808000203F20004E
:10B3C0003F20003F8080008080800000203F2100DF
:10B3D00000203F200000808080800000001F20208F
:10B3E00020201F00808000808000000080FFA120BE
:10B3F00020110E000000008080808000000E1120CF
:10B4000020A0FF80808080008080800020203F215D
:10B410002000010000008080808080000033242410
:10B4200024241900008080E0808000000000001FBC
:10B43000202000008080000000808000001F20206D
:10B4400020103F20808080000080808000010E302E
:10B450000806010080800080008080800F300C038F
:10B460000C300F0000808000808080000020312E92
:10B470000E312000808080000080808080818E706E
:10B480001806010000808080808080000021302C20
:10B490002221300000000000807C02020000000039
:10B4A000003F404000000000FF00000000000000DE
:10B4B000FF0000000002027C800000000040403FCE
:10B4C0000000000000060101020204040000000068
:10B4D000000000000000609090600000000000008C
:10B4E000000000000000008080000000002E3100FD
:10B4F00000312E000040404040404040404041412B
:10B500004141414040404040404040404040404038
:10B5100040404040400502020202020202020202D2
:10B5200002020202022020202020202020202002CF
:10B53000020202020202909090909090101010105F
:10B5400010101010101010101010101010101010FB
:10B55000020202020202888888888888080808088F
:10B56000080808080808080808080808080808085B
:10B570000202020240000000F5B400089CB5000879
:10B5800000000020740000009095000810B600082C
:10B59000740000205C370000A09500080204060833
:10B5A0000000000001020304010203040607080969
:10B5B000000000000000000000000000000000008B
:10B5C000000000000010000000000000000000006B
:10B5D000000000000000010000000000000000006A
:10B5E00000000000AC33002000000000000000005C
:10B5F0000000000000A24A0400000000000000005B
:10B600000102030406070809000000000000000012
:04000005080080ED82
:00000001FF
